{
  "address": "0xA699e7246D7AF936752789408A071805CC8c99c3",
  "abi": [
    {
      "inputs": [
        {
          "internalType": "contract IBridge",
          "name": "_bridge",
          "type": "address"
        },
        {
          "internalType": "contract IAMB",
          "name": "_amb",
          "type": "address"
        },
        {
          "internalType": "address",
          "name": "_veaInboxArbToGnosis",
          "type": "address"
        },
        {
          "internalType": "address",
          "name": "_veaOutboxArbToGnosis",
          "type": "address"
        }
      ],
      "stateMutability": "nonpayable",
      "type": "constructor"
    },
    {
      "anonymous": false,
      "inputs": [
        {
          "indexed": true,
          "internalType": "uint256",
          "name": "_epoch",
          "type": "uint256"
        },
        {
          "indexed": false,
          "internalType": "bytes32",
          "name": "_ticketID",
          "type": "bytes32"
        }
      ],
      "name": "Routed",
      "type": "event"
    },
    {
      "anonymous": false,
      "inputs": [
        {
          "indexed": false,
          "internalType": "uint256",
          "name": "_requestedSequencerDelayLimit",
          "type": "uint256"
        }
      ],
      "name": "sequencerDelayLimitDecreaseRequested",
      "type": "event"
    },
    {
      "anonymous": false,
      "inputs": [
        {
          "indexed": false,
          "internalType": "bytes32",
          "name": "_ticketID",
          "type": "bytes32"
        }
      ],
      "name": "sequencerDelayLimitSent",
      "type": "event"
    },
    {
      "anonymous": false,
      "inputs": [
        {
          "indexed": false,
          "internalType": "uint256",
          "name": "_newSequencerDelayLimit",
          "type": "uint256"
        }
      ],
      "name": "sequencerDelayLimitUpdated",
      "type": "event"
    },
    {
      "inputs": [],
      "name": "amb",
      "outputs": [
        {
          "internalType": "contract IAMB",
          "name": "",
          "type": "address"
        }
      ],
      "stateMutability": "view",
      "type": "function"
    },
    {
      "inputs": [],
      "name": "bridge",
      "outputs": [
        {
          "internalType": "contract IBridge",
          "name": "",
          "type": "address"
        }
      ],
      "stateMutability": "view",
      "type": "function"
    },
    {
      "inputs": [],
      "name": "executeSequencerDelayLimitDecreaseRequest",
      "outputs": [],
      "stateMutability": "nonpayable",
      "type": "function"
    },
    {
      "inputs": [
        {
          "internalType": "uint256",
          "name": "_epoch",
          "type": "uint256"
        },
        {
          "internalType": "bytes32",
          "name": "_stateroot",
          "type": "bytes32"
        },
        {
          "internalType": "uint256",
          "name": "_gasLimit",
          "type": "uint256"
        },
        {
          "components": [
            {
              "internalType": "bytes32",
              "name": "stateRoot",
              "type": "bytes32"
            },
            {
              "internalType": "address",
              "name": "claimer",
              "type": "address"
            },
            {
              "internalType": "uint32",
              "name": "timestampClaimed",
              "type": "uint32"
            },
            {
              "internalType": "uint32",
              "name": "timestampVerification",
              "type": "uint32"
            },
            {
              "internalType": "uint32",
              "name": "blocknumberVerification",
              "type": "uint32"
            },
            {
              "internalType": "enum Party",
              "name": "honest",
              "type": "uint8"
            },
            {
              "internalType": "address",
              "name": "challenger",
              "type": "address"
            }
          ],
          "internalType": "struct Claim",
          "name": "_claim",
          "type": "tuple"
        }
      ],
      "name": "route",
      "outputs": [],
      "stateMutability": "nonpayable",
      "type": "function"
    },
    {
      "inputs": [],
      "name": "sequencerDelayLimit",
      "outputs": [
        {
          "internalType": "uint256",
          "name": "",
          "type": "uint256"
        }
      ],
      "stateMutability": "view",
      "type": "function"
    },
    {
      "inputs": [],
      "name": "sequencerDelayLimitDecreaseRequest",
      "outputs": [
        {
          "internalType": "uint256",
          "name": "requestedSequencerLimit",
          "type": "uint256"
        },
        {
          "internalType": "uint256",
          "name": "timestamp",
          "type": "uint256"
        }
      ],
      "stateMutability": "view",
      "type": "function"
    },
    {
      "inputs": [],
      "name": "updatesequencerDelayLimit",
      "outputs": [],
      "stateMutability": "nonpayable",
      "type": "function"
    },
    {
      "inputs": [],
      "name": "veaInboxArbToGnosis",
      "outputs": [
        {
          "internalType": "address",
          "name": "",
          "type": "address"
        }
      ],
      "stateMutability": "view",
      "type": "function"
    },
    {
      "inputs": [],
      "name": "veaOutboxArbToGnosis",
      "outputs": [
        {
          "internalType": "address",
          "name": "",
          "type": "address"
        }
      ],
      "stateMutability": "view",
      "type": "function"
    }
  ],
  "transactionHash": "0x0f46ddedce45debf1731d3d09354d4e21e80a9e88aaa884b08184eb1a6464216",
  "args": [
    "0x38f918D0E9F1b721EDaA41302E399fa1B79333a9",
    "0xf2546D6648BD2af6a008A7e7C1542BB240329E11",
    "0x496df82A2fE2f4aa6903C8bdcE759a94505E7D0c",
    "0xAebcedf346f168E5CEaB7Cd367118d2176486ad7"
  ],
  "numDeployments": 1,
  "solcInputHash": "0d66bd5cfdf493ed8e081e9f7e1bf4fa",
  "bytecode": "0x61010060405234801562000011575f80fd5b5060405162000fda38038062000fda833981016040819052620000349162000140565b6001600160a01b03808516608081905284821660a05283821660c05290821660e0526040805163ee35f32760e01b8152905163ee35f327916004808201926020929091908290030181865afa15801562000090573d5f803e3d5ffd5b505050506040513d601f19601f82011682018060405250810190620000b69190620001a5565b6001600160a01b031663ebea461d6040518163ffffffff1660e01b8152600401608060405180830381865afa158015620000f2573d5f803e3d5ffd5b505050506040513d601f19601f82011682018060405250810190620001189190620001ca565b505f5550620001fe945050505050565b6001600160a01b03811681146200013d575f80fd5b50565b5f805f806080858703121562000154575f80fd5b8451620001618162000128565b6020860151909450620001748162000128565b6040860151909350620001878162000128565b60608601519092506200019a8162000128565b939692955090935050565b5f60208284031215620001b6575f80fd5b8151620001c38162000128565b9392505050565b5f805f8060808587031215620001de575f80fd5b505082516020840151604085015160609095015191969095509092509050565b60805160a05160c05160e051610d63620002775f395f818161010a0152818161089301526109e001525f8181610131015261063701525f818160cb015281816107e30152818161086401526109b701525f8181610173015281816102b9015281816103d9015281816105d501526106610152610d635ff3fe608060405234801561000f575f80fd5b5060043610610090575f3560e01c80638c5f173f116100635780638c5f173f1461012c57806390784ae814610153578063b1126dad1461015b578063e78cea921461016e578063e813a75514610195575f80fd5b8063051d1970146100945780630c63fa84146100bc5780631062b39a146100c65780632fa70aa714610105575b5f80fd5b6001546002546100a2919082565b604080519283526020830191909152015b60405180910390f35b6100c46101ab565b005b6100ed7f000000000000000000000000000000000000000000000000000000000000000081565b6040516001600160a01b0390911681526020016100b3565b6100ed7f000000000000000000000000000000000000000000000000000000000000000081565b6100ed7f000000000000000000000000000000000000000000000000000000000000000081565b6100c46103d6565b6100c4610169366004610adc565b6105ca565b6100ed7f000000000000000000000000000000000000000000000000000000000000000081565b61019d5f5481565b6040519081526020016100b3565b6002545f036102165760405162461bcd60e51b815260206004820152602c60248201527f4e6f2070656e64696e672073657175656e636572206c696d697420646563726560448201526b30b9b2903932b8bab2b9ba1760a11b60648201526084015b60405180910390fd5b5f546002546102259190610b22565b421161028e5760405162461bcd60e51b815260206004820152603260248201527f53657175656e636572206c696d697420646563726561736520726571756573746044820152711034b99039ba34b636103832b73234b7339760711b606482015260840161020d565b600180545f9182905560028290556040805163ee35f32760e01b815290519192916001600160a01b037f0000000000000000000000000000000000000000000000000000000000000000169163ee35f3279160048083019260209291908290030181865afa158015610302573d5f803e3d5ffd5b505050506040513d601f19601f820116820180604052508101906103269190610b5b565b6001600160a01b031663ebea461d6040518163ffffffff1660e01b8152600401608060405180830381865afa158015610361573d5f803e3d5ffd5b505050506040513d601f19601f820116820180604052508101906103859190610b7d565b50925050508181036103d2575f82905561039d610958565b6040518281527f611c2e4a78552f908fb0eb2cc503efc1f947cde8574277ab3b0f10fdd510258b906020015b60405180910390a15b5050565b5f7f00000000000000000000000000000000000000000000000000000000000000006001600160a01b031663ee35f3276040518163ffffffff1660e01b8152600401602060405180830381865afa158015610433573d5f803e3d5ffd5b505050506040513d601f19601f820116820180604052508101906104579190610b5b565b6001600160a01b031663ebea461d6040518163ffffffff1660e01b8152600401608060405180830381865afa158015610492573d5f803e3d5ffd5b505050506040513d601f19601f820116820180604052508101906104b69190610b7d565b50925050505f54811115610506575f8190556104d0610958565b6040518181527f611c2e4a78552f908fb0eb2cc503efc1f947cde8574277ab3b0f10fdd510258b9060200160405180910390a150565b5f548110156105c757600254156105795760405162461bcd60e51b815260206004820152603160248201527f53657175656e636572206c696d697420646563726561736520726571756573746044820152701030b63932b0b23c903832b73234b7339760791b606482015260840161020d565b604080518082018252828152426020918201819052600184905560025590518281527fa552b382e128c9d0732f01f09502c18999aec5dce0ed78c5af0ea2274ce9bd7d910160405180910390a15b50565b336001600160a01b037f000000000000000000000000000000000000000000000000000000000000000016146106355760405162461bcd60e51b815260206004820152601060248201526f2737ba10333937b690313934b233b29760811b604482015260640161020d565b7f00000000000000000000000000000000000000000000000000000000000000006001600160a01b03167f00000000000000000000000000000000000000000000000000000000000000006001600160a01b031663ab5d89436040518163ffffffff1660e01b8152600401602060405180830381865afa1580156106bb573d5f803e3d5ffd5b505050506040513d601f19601f820116820180604052508101906106df9190610b5b565b6001600160a01b03166380648b026040518163ffffffff1660e01b8152600401602060405180830381865afa15801561071a573d5f803e3d5ffd5b505050506040513d601f19601f8201168201806040525081019061073e9190610b5b565b6001600160a01b0316146107855760405162461bcd60e51b815260206004820152600e60248201526d3b32b0a4b73137bc1037b7363c9760911b604482015260640161020d565b5f84848360405160240161079b93929190610c01565b60408051601f19818403018152918152602080830180516001600160e01b0316630f0adca560e01b179052815163e5789d0360e01b815291519293505f926001600160a01b037f0000000000000000000000000000000000000000000000000000000000000000169263e5789d039260048083019391928290030181865afa158015610829573d5f803e3d5ffd5b505050506040513d601f19601f8201168201806040525081019061084d9190610cb3565b90505f81851161085d578461085f565b815b90505f7f00000000000000000000000000000000000000000000000000000000000000006001600160a01b031663dc8601b37f000000000000000000000000000000000000000000000000000000000000000086856040518463ffffffff1660e01b81526004016108d293929190610cca565b6020604051808303815f875af11580156108ee573d5f803e3d5ffd5b505050506040513d601f19601f820116820180604052508101906109129190610cb3565b9050877f888a9bef5168f83425ebe9503cb6d29081cf58d52c60126f8a85a22c9d9935548260405161094691815260200190565b60405180910390a25050505050505050565b5f8054604051602481019190915242604482015260640160408051601f19818403018152918152602080830180516001600160e01b0316632c19251960e01b179052815163e5789d0360e01b815291519293505f926001600160a01b037f0000000000000000000000000000000000000000000000000000000000000000169263dc8601b3927f0000000000000000000000000000000000000000000000000000000000000000928792869263e5789d03926004808401938290030181865afa158015610a27573d5f803e3d5ffd5b505050506040513d601f19601f82011682018060405250810190610a4b9190610cb3565b6040518463ffffffff1660e01b8152600401610a6993929190610cca565b6020604051808303815f875af1158015610a85573d5f803e3d5ffd5b505050506040513d601f19601f82011682018060405250810190610aa99190610cb3565b90507fb38aa59aca3a7ad85f6c314d96b54cae25fc75a92e95994a90c63ae93c63d687816040516103c991815260200190565b5f805f80848603610140811215610af1575f80fd5b85359450602086013593506040860135925060e0605f1982011215610b14575f80fd5b509295919450926060019150565b80820180821115610b4157634e487b7160e01b5f52601160045260245ffd5b92915050565b6001600160a01b03811681146105c7575f80fd5b5f60208284031215610b6b575f80fd5b8151610b7681610b47565b9392505050565b5f805f8060808587031215610b90575f80fd5b505082516020840151604085015160609095015191969095509092509050565b8035610bbb81610b47565b919050565b803563ffffffff81168114610bbb575f80fd5b803560038110610bbb575f80fd5b60038110610bfd57634e487b7160e01b5f52602160045260245ffd5b9052565b838152602080820184905282356040830152610120820190830135610c2581610b47565b6001600160a01b03166060830152610c3f60408401610bc0565b63ffffffff808216608085015280610c5960608701610bc0565b1660a085015280610c6c60808701610bc0565b1660c08501525050610c8060a08401610bd3565b610c8d60e0840182610be1565b50610c9a60c08401610bb0565b6001600160a01b03811661010084015250949350505050565b5f60208284031215610cc3575f80fd5b5051919050565b60018060a01b03841681525f60206060602084015284518060608501525f5b81811015610d0557868101830151858201608001528201610ce9565b505f608082860101526080601f19601f8301168501019250505082604083015294935050505056fea2646970667358221220dca82595a68b87899c3f877b03eb1d1b4281744168df20f3df3de470ffead3f164736f6c63430008180033",
  "devdoc": {
    "details": "Router from Arbitrum to Gnosis Chain. Note: This contract is deployed on Ethereum.",
    "events": {
      "Routed(uint256,bytes32)": {
        "details": "Event emitted when a message is relayed to another Safe Bridge.",
        "params": {
          "_epoch": "The epoch of the batch requested to send.",
          "_ticketID": "The unique identifier provided by the underlying canonical bridge."
        }
      },
      "sequencerDelayLimitDecreaseRequested(uint256)": {
        "details": "This event indicates that a request to decrease the sequencer limit has been made.",
        "params": {
          "_requestedSequencerDelayLimit": "The new sequencer limit requested."
        }
      },
      "sequencerDelayLimitSent(bytes32)": {
        "details": "This event indicates a cross-chain message was sent to inform the veaOutbox of the sequencer limit value",
        "params": {
          "_ticketID": "The ticketID from the AMB of the cross-chain message."
        }
      },
      "sequencerDelayLimitUpdated(uint256)": {
        "details": "This event indicates the sequencer limit updated.",
        "params": {
          "_newSequencerDelayLimit": "The new sequencer delay limit."
        }
      }
    },
    "kind": "dev",
    "methods": {
      "constructor": {
        "details": "Constructor.",
        "params": {
          "_amb": "The address of the AMB contract on Ethereum.",
          "_bridge": "The address of the arbitrum bridge contract on Ethereum.",
          "_veaInboxArbToGnosis": "The vea inbox on Arbitrum.",
          "_veaOutboxArbToGnosis": "The vea outbox on Gnosis Chain."
        }
      },
      "executeSequencerDelayLimitDecreaseRequest()": {
        "details": "execute sequencerDelayLimitDecreaseRequest"
      },
      "route(uint256,bytes32,uint256,(bytes32,address,uint32,uint32,uint32,uint8,address))": {
        "details": "Resolves any challenge of the optimistic claim for '_epoch'.",
        "params": {
          "_claim": "The claim associated with the epoch.",
          "_epoch": "The epoch to verify.",
          "_gasLimit": "The true batch gas limit for the epoch.",
          "_stateroot": "The true batch merkle root for the epoch."
        }
      },
      "updatesequencerDelayLimit()": {
        "details": "Update the sequencerDelayLimit. If decreasing, a delayed request is created for later execution."
      }
    },
    "version": 1
  },
  "userdoc": {
    "kind": "user",
    "methods": {
      "route(uint256,bytes32,uint256,(bytes32,address,uint32,uint32,uint32,uint8,address))": {
        "notice": "Note: Access restricted to arbitrum canonical bridge."
      }
    },
    "version": 1
  },
  "storageLayout": {
    "storage": [
      {
        "astId": 1922,
        "contract": "src/arbitrumToGnosis/RouterArbToGnosis.sol:RouterArbToGnosis",
        "label": "sequencerDelayLimit",
        "offset": 0,
        "slot": "0",
        "type": "t_uint256"
      },
      {
        "astId": 1925,
        "contract": "src/arbitrumToGnosis/RouterArbToGnosis.sol:RouterArbToGnosis",
        "label": "sequencerDelayLimitDecreaseRequest",
        "offset": 0,
        "slot": "1",
        "type": "t_struct(SequencerLimitDecreaseRequest)1930_storage"
      }
    ],
    "types": {
      "t_struct(SequencerLimitDecreaseRequest)1930_storage": {
        "encoding": "inplace",
        "label": "struct RouterArbToGnosis.SequencerLimitDecreaseRequest",
        "members": [
          {
            "astId": 1927,
            "contract": "src/arbitrumToGnosis/RouterArbToGnosis.sol:RouterArbToGnosis",
            "label": "requestedSequencerLimit",
            "offset": 0,
            "slot": "0",
            "type": "t_uint256"
          },
          {
            "astId": 1929,
            "contract": "src/arbitrumToGnosis/RouterArbToGnosis.sol:RouterArbToGnosis",
            "label": "timestamp",
            "offset": 0,
            "slot": "1",
            "type": "t_uint256"
          }
        ],
        "numberOfBytes": "64"
      },
      "t_uint256": {
        "encoding": "inplace",
        "label": "uint256",
        "numberOfBytes": "32"
      }
    }
  }
}