{
  "address": "0xb8BF3B6bd3E1a0Cc9E2dB77dd492503310514674",
  "abi": [
    {
      "inputs": [
        {
          "internalType": "uint256",
          "name": "_deposit",
          "type": "uint256"
        },
        {
          "internalType": "uint256",
          "name": "_epochPeriod",
          "type": "uint256"
        },
        {
          "internalType": "uint256",
          "name": "_minChallengePeriod",
          "type": "uint256"
        },
        {
          "internalType": "uint256",
          "name": "_timeoutEpochs",
          "type": "uint256"
        },
        {
          "internalType": "address",
          "name": "_veaInboxArbToEthDevnet",
          "type": "address"
        },
        {
          "internalType": "address",
          "name": "_bridge",
          "type": "address"
        },
        {
          "internalType": "uint256",
          "name": "_maxMissingBlocks",
          "type": "uint256"
        }
      ],
      "stateMutability": "nonpayable",
      "type": "constructor"
    },
    {
      "anonymous": false,
      "inputs": [
        {
          "indexed": true,
          "internalType": "uint256",
          "name": "_epoch",
          "type": "uint256"
        },
        {
          "indexed": true,
          "internalType": "address",
          "name": "_challenger",
          "type": "address"
        }
      ],
      "name": "Challenged",
      "type": "event"
    },
    {
      "anonymous": false,
      "inputs": [
        {
          "indexed": true,
          "internalType": "address",
          "name": "_claimer",
          "type": "address"
        },
        {
          "indexed": true,
          "internalType": "uint256",
          "name": "_epoch",
          "type": "uint256"
        },
        {
          "indexed": false,
          "internalType": "bytes32",
          "name": "_stateRoot",
          "type": "bytes32"
        }
      ],
      "name": "Claimed",
      "type": "event"
    },
    {
      "anonymous": false,
      "inputs": [
        {
          "indexed": false,
          "internalType": "uint64",
          "name": "_msgId",
          "type": "uint64"
        }
      ],
      "name": "MessageRelayed",
      "type": "event"
    },
    {
      "anonymous": false,
      "inputs": [
        {
          "indexed": true,
          "internalType": "uint256",
          "name": "_epoch",
          "type": "uint256"
        }
      ],
      "name": "VerificationStarted",
      "type": "event"
    },
    {
      "anonymous": false,
      "inputs": [
        {
          "indexed": false,
          "internalType": "uint256",
          "name": "_epoch",
          "type": "uint256"
        }
      ],
      "name": "Verified",
      "type": "event"
    },
    {
      "anonymous": false,
      "inputs": [
        {
          "indexed": false,
          "internalType": "uint256",
          "name": "_requestedSequencerDelayLimit",
          "type": "uint256"
        }
      ],
      "name": "sequencerDelayLimitDecreaseRequested",
      "type": "event"
    },
    {
      "anonymous": false,
      "inputs": [
        {
          "indexed": false,
          "internalType": "uint256",
          "name": "_newSequencerDelayLimit",
          "type": "uint256"
        }
      ],
      "name": "sequencerDelayLimitUpdated",
      "type": "event"
    },
    {
      "inputs": [],
      "name": "BURN_ADDRESS",
      "outputs": [
        {
          "internalType": "address",
          "name": "",
          "type": "address"
        }
      ],
      "stateMutability": "view",
      "type": "function"
    },
    {
      "inputs": [],
      "name": "bridge",
      "outputs": [
        {
          "internalType": "contract IBridge",
          "name": "",
          "type": "address"
        }
      ],
      "stateMutability": "view",
      "type": "function"
    },
    {
      "inputs": [],
      "name": "burn",
      "outputs": [
        {
          "internalType": "uint256",
          "name": "",
          "type": "uint256"
        }
      ],
      "stateMutability": "view",
      "type": "function"
    },
    {
      "inputs": [
        {
          "components": [
            {
              "internalType": "bytes32",
              "name": "stateRoot",
              "type": "bytes32"
            },
            {
              "internalType": "address",
              "name": "claimer",
              "type": "address"
            },
            {
              "internalType": "uint32",
              "name": "timestampClaimed",
              "type": "uint32"
            },
            {
              "internalType": "uint32",
              "name": "timestampVerification",
              "type": "uint32"
            },
            {
              "internalType": "uint32",
              "name": "blocknumberVerification",
              "type": "uint32"
            },
            {
              "internalType": "enum Party",
              "name": "honest",
              "type": "uint8"
            },
            {
              "internalType": "address",
              "name": "challenger",
              "type": "address"
            }
          ],
          "internalType": "struct Claim",
          "name": "_claim",
          "type": "tuple"
        }
      ],
      "name": "censorshipTestStatus",
      "outputs": [
        {
          "internalType": "enum VeaOutboxArbToEth.CensorshipTestStatus",
          "name": "status",
          "type": "uint8"
        }
      ],
      "stateMutability": "view",
      "type": "function"
    },
    {
      "inputs": [
        {
          "internalType": "uint256",
          "name": "_epoch",
          "type": "uint256"
        },
        {
          "components": [
            {
              "internalType": "bytes32",
              "name": "stateRoot",
              "type": "bytes32"
            },
            {
              "internalType": "address",
              "name": "claimer",
              "type": "address"
            },
            {
              "internalType": "uint32",
              "name": "timestampClaimed",
              "type": "uint32"
            },
            {
              "internalType": "uint32",
              "name": "timestampVerification",
              "type": "uint32"
            },
            {
              "internalType": "uint32",
              "name": "blocknumberVerification",
              "type": "uint32"
            },
            {
              "internalType": "enum Party",
              "name": "honest",
              "type": "uint8"
            },
            {
              "internalType": "address",
              "name": "challenger",
              "type": "address"
            }
          ],
          "internalType": "struct Claim",
          "name": "_claim",
          "type": "tuple"
        }
      ],
      "name": "challenge",
      "outputs": [],
      "stateMutability": "payable",
      "type": "function"
    },
    {
      "inputs": [
        {
          "internalType": "uint256",
          "name": "_epoch",
          "type": "uint256"
        },
        {
          "components": [
            {
              "internalType": "bytes32",
              "name": "stateRoot",
              "type": "bytes32"
            },
            {
              "internalType": "address",
              "name": "claimer",
              "type": "address"
            },
            {
              "internalType": "uint32",
              "name": "timestampClaimed",
              "type": "uint32"
            },
            {
              "internalType": "uint32",
              "name": "timestampVerification",
              "type": "uint32"
            },
            {
              "internalType": "uint32",
              "name": "blocknumberVerification",
              "type": "uint32"
            },
            {
              "internalType": "enum Party",
              "name": "honest",
              "type": "uint8"
            },
            {
              "internalType": "address",
              "name": "challenger",
              "type": "address"
            }
          ],
          "internalType": "struct Claim",
          "name": "_claim",
          "type": "tuple"
        },
        {
          "internalType": "address",
          "name": "_withdrawalAddress",
          "type": "address"
        }
      ],
      "name": "challenge",
      "outputs": [],
      "stateMutability": "payable",
      "type": "function"
    },
    {
      "inputs": [
        {
          "internalType": "address",
          "name": "_devnetOperator",
          "type": "address"
        }
      ],
      "name": "changeDevnetOperator",
      "outputs": [],
      "stateMutability": "nonpayable",
      "type": "function"
    },
    {
      "inputs": [
        {
          "internalType": "uint256",
          "name": "_epoch",
          "type": "uint256"
        },
        {
          "internalType": "bytes32",
          "name": "_stateRoot",
          "type": "bytes32"
        }
      ],
      "name": "claim",
      "outputs": [],
      "stateMutability": "payable",
      "type": "function"
    },
    {
      "inputs": [
        {
          "internalType": "uint256",
          "name": "epoch",
          "type": "uint256"
        }
      ],
      "name": "claimHashes",
      "outputs": [
        {
          "internalType": "bytes32",
          "name": "",
          "type": "bytes32"
        }
      ],
      "stateMutability": "view",
      "type": "function"
    },
    {
      "inputs": [],
      "name": "deposit",
      "outputs": [
        {
          "internalType": "uint256",
          "name": "",
          "type": "uint256"
        }
      ],
      "stateMutability": "view",
      "type": "function"
    },
    {
      "inputs": [],
      "name": "depositPlusReward",
      "outputs": [
        {
          "internalType": "uint256",
          "name": "",
          "type": "uint256"
        }
      ],
      "stateMutability": "view",
      "type": "function"
    },
    {
      "inputs": [
        {
          "internalType": "uint256",
          "name": "_epoch",
          "type": "uint256"
        },
        {
          "internalType": "bytes32",
          "name": "_stateroot",
          "type": "bytes32"
        }
      ],
      "name": "devnetAdvanceState",
      "outputs": [],
      "stateMutability": "payable",
      "type": "function"
    },
    {
      "inputs": [],
      "name": "devnetOperator",
      "outputs": [
        {
          "internalType": "address",
          "name": "",
          "type": "address"
        }
      ],
      "stateMutability": "view",
      "type": "function"
    },
    {
      "inputs": [
        {
          "internalType": "uint256",
          "name": "timestamp",
          "type": "uint256"
        }
      ],
      "name": "epochAt",
      "outputs": [
        {
          "internalType": "uint256",
          "name": "epoch",
          "type": "uint256"
        }
      ],
      "stateMutability": "view",
      "type": "function"
    },
    {
      "inputs": [],
      "name": "epochNow",
      "outputs": [
        {
          "internalType": "uint256",
          "name": "epoch",
          "type": "uint256"
        }
      ],
      "stateMutability": "view",
      "type": "function"
    },
    {
      "inputs": [],
      "name": "epochPeriod",
      "outputs": [
        {
          "internalType": "uint256",
          "name": "",
          "type": "uint256"
        }
      ],
      "stateMutability": "view",
      "type": "function"
    },
    {
      "inputs": [],
      "name": "executeSequencerDelayLimitDecreaseRequest",
      "outputs": [],
      "stateMutability": "nonpayable",
      "type": "function"
    },
    {
      "inputs": [
        {
          "components": [
            {
              "internalType": "bytes32",
              "name": "stateRoot",
              "type": "bytes32"
            },
            {
              "internalType": "address",
              "name": "claimer",
              "type": "address"
            },
            {
              "internalType": "uint32",
              "name": "timestampClaimed",
              "type": "uint32"
            },
            {
              "internalType": "uint32",
              "name": "timestampVerification",
              "type": "uint32"
            },
            {
              "internalType": "uint32",
              "name": "blocknumberVerification",
              "type": "uint32"
            },
            {
              "internalType": "enum Party",
              "name": "honest",
              "type": "uint8"
            },
            {
              "internalType": "address",
              "name": "challenger",
              "type": "address"
            }
          ],
          "internalType": "struct Claim",
          "name": "_claim",
          "type": "tuple"
        }
      ],
      "name": "hashClaim",
      "outputs": [
        {
          "internalType": "bytes32",
          "name": "hashedClaim",
          "type": "bytes32"
        }
      ],
      "stateMutability": "pure",
      "type": "function"
    },
    {
      "inputs": [
        {
          "internalType": "uint256",
          "name": "_msgId",
          "type": "uint256"
        }
      ],
      "name": "isMsgRelayed",
      "outputs": [
        {
          "internalType": "bool",
          "name": "isRelayed",
          "type": "bool"
        }
      ],
      "stateMutability": "view",
      "type": "function"
    },
    {
      "inputs": [],
      "name": "latestVerifiedEpoch",
      "outputs": [
        {
          "internalType": "uint256",
          "name": "",
          "type": "uint256"
        }
      ],
      "stateMutability": "view",
      "type": "function"
    },
    {
      "inputs": [],
      "name": "maxMissingBlocks",
      "outputs": [
        {
          "internalType": "uint256",
          "name": "",
          "type": "uint256"
        }
      ],
      "stateMutability": "view",
      "type": "function"
    },
    {
      "inputs": [],
      "name": "minChallengePeriod",
      "outputs": [
        {
          "internalType": "uint256",
          "name": "",
          "type": "uint256"
        }
      ],
      "stateMutability": "view",
      "type": "function"
    },
    {
      "inputs": [
        {
          "internalType": "uint256",
          "name": "_epoch",
          "type": "uint256"
        },
        {
          "internalType": "bytes32",
          "name": "_stateRoot",
          "type": "bytes32"
        },
        {
          "components": [
            {
              "internalType": "bytes32",
              "name": "stateRoot",
              "type": "bytes32"
            },
            {
              "internalType": "address",
              "name": "claimer",
              "type": "address"
            },
            {
              "internalType": "uint32",
              "name": "timestampClaimed",
              "type": "uint32"
            },
            {
              "internalType": "uint32",
              "name": "timestampVerification",
              "type": "uint32"
            },
            {
              "internalType": "uint32",
              "name": "blocknumberVerification",
              "type": "uint32"
            },
            {
              "internalType": "enum Party",
              "name": "honest",
              "type": "uint8"
            },
            {
              "internalType": "address",
              "name": "challenger",
              "type": "address"
            }
          ],
          "internalType": "struct Claim",
          "name": "_claim",
          "type": "tuple"
        }
      ],
      "name": "resolveDisputedClaim",
      "outputs": [],
      "stateMutability": "nonpayable",
      "type": "function"
    },
    {
      "inputs": [
        {
          "internalType": "bytes32[]",
          "name": "_proof",
          "type": "bytes32[]"
        },
        {
          "internalType": "uint64",
          "name": "_msgId",
          "type": "uint64"
        },
        {
          "internalType": "address",
          "name": "_to",
          "type": "address"
        },
        {
          "internalType": "bytes",
          "name": "_message",
          "type": "bytes"
        }
      ],
      "name": "sendMessage",
      "outputs": [],
      "stateMutability": "nonpayable",
      "type": "function"
    },
    {
      "inputs": [],
      "name": "sequencerDelayLimit",
      "outputs": [
        {
          "internalType": "uint256",
          "name": "",
          "type": "uint256"
        }
      ],
      "stateMutability": "view",
      "type": "function"
    },
    {
      "inputs": [],
      "name": "sequencerDelayLimitDecreaseRequest",
      "outputs": [
        {
          "internalType": "uint256",
          "name": "requestedsequencerDelayLimit",
          "type": "uint256"
        },
        {
          "internalType": "uint256",
          "name": "timestamp",
          "type": "uint256"
        }
      ],
      "stateMutability": "view",
      "type": "function"
    },
    {
      "inputs": [
        {
          "internalType": "uint256",
          "name": "_epoch",
          "type": "uint256"
        },
        {
          "components": [
            {
              "internalType": "bytes32",
              "name": "stateRoot",
              "type": "bytes32"
            },
            {
              "internalType": "address",
              "name": "claimer",
              "type": "address"
            },
            {
              "internalType": "uint32",
              "name": "timestampClaimed",
              "type": "uint32"
            },
            {
              "internalType": "uint32",
              "name": "timestampVerification",
              "type": "uint32"
            },
            {
              "internalType": "uint32",
              "name": "blocknumberVerification",
              "type": "uint32"
            },
            {
              "internalType": "enum Party",
              "name": "honest",
              "type": "uint8"
            },
            {
              "internalType": "address",
              "name": "challenger",
              "type": "address"
            }
          ],
          "internalType": "struct Claim",
          "name": "_claim",
          "type": "tuple"
        }
      ],
      "name": "startVerification",
      "outputs": [],
      "stateMutability": "nonpayable",
      "type": "function"
    },
    {
      "inputs": [],
      "name": "stateRoot",
      "outputs": [
        {
          "internalType": "bytes32",
          "name": "",
          "type": "bytes32"
        }
      ],
      "stateMutability": "view",
      "type": "function"
    },
    {
      "inputs": [],
      "name": "timeoutEpochs",
      "outputs": [
        {
          "internalType": "uint256",
          "name": "",
          "type": "uint256"
        }
      ],
      "stateMutability": "view",
      "type": "function"
    },
    {
      "inputs": [],
      "name": "updateSequencerDelayLimit",
      "outputs": [],
      "stateMutability": "nonpayable",
      "type": "function"
    },
    {
      "inputs": [],
      "name": "veaInboxArbToEth",
      "outputs": [
        {
          "internalType": "address",
          "name": "",
          "type": "address"
        }
      ],
      "stateMutability": "view",
      "type": "function"
    },
    {
      "inputs": [
        {
          "internalType": "uint256",
          "name": "_epoch",
          "type": "uint256"
        },
        {
          "components": [
            {
              "internalType": "bytes32",
              "name": "stateRoot",
              "type": "bytes32"
            },
            {
              "internalType": "address",
              "name": "claimer",
              "type": "address"
            },
            {
              "internalType": "uint32",
              "name": "timestampClaimed",
              "type": "uint32"
            },
            {
              "internalType": "uint32",
              "name": "timestampVerification",
              "type": "uint32"
            },
            {
              "internalType": "uint32",
              "name": "blocknumberVerification",
              "type": "uint32"
            },
            {
              "internalType": "enum Party",
              "name": "honest",
              "type": "uint8"
            },
            {
              "internalType": "address",
              "name": "challenger",
              "type": "address"
            }
          ],
          "internalType": "struct Claim",
          "name": "_claim",
          "type": "tuple"
        }
      ],
      "name": "verifySnapshot",
      "outputs": [],
      "stateMutability": "nonpayable",
      "type": "function"
    },
    {
      "inputs": [
        {
          "internalType": "uint256",
          "name": "_epoch",
          "type": "uint256"
        },
        {
          "components": [
            {
              "internalType": "bytes32",
              "name": "stateRoot",
              "type": "bytes32"
            },
            {
              "internalType": "address",
              "name": "claimer",
              "type": "address"
            },
            {
              "internalType": "uint32",
              "name": "timestampClaimed",
              "type": "uint32"
            },
            {
              "internalType": "uint32",
              "name": "timestampVerification",
              "type": "uint32"
            },
            {
              "internalType": "uint32",
              "name": "blocknumberVerification",
              "type": "uint32"
            },
            {
              "internalType": "enum Party",
              "name": "honest",
              "type": "uint8"
            },
            {
              "internalType": "address",
              "name": "challenger",
              "type": "address"
            }
          ],
          "internalType": "struct Claim",
          "name": "_claim",
          "type": "tuple"
        }
      ],
      "name": "withdrawChallengeDeposit",
      "outputs": [],
      "stateMutability": "nonpayable",
      "type": "function"
    },
    {
      "inputs": [
        {
          "internalType": "uint256",
          "name": "_epoch",
          "type": "uint256"
        },
        {
          "components": [
            {
              "internalType": "bytes32",
              "name": "stateRoot",
              "type": "bytes32"
            },
            {
              "internalType": "address",
              "name": "claimer",
              "type": "address"
            },
            {
              "internalType": "uint32",
              "name": "timestampClaimed",
              "type": "uint32"
            },
            {
              "internalType": "uint32",
              "name": "timestampVerification",
              "type": "uint32"
            },
            {
              "internalType": "uint32",
              "name": "blocknumberVerification",
              "type": "uint32"
            },
            {
              "internalType": "enum Party",
              "name": "honest",
              "type": "uint8"
            },
            {
              "internalType": "address",
              "name": "challenger",
              "type": "address"
            }
          ],
          "internalType": "struct Claim",
          "name": "_claim",
          "type": "tuple"
        }
      ],
      "name": "withdrawChallengerEscapeHatch",
      "outputs": [],
      "stateMutability": "nonpayable",
      "type": "function"
    },
    {
      "inputs": [
        {
          "internalType": "uint256",
          "name": "_epoch",
          "type": "uint256"
        },
        {
          "components": [
            {
              "internalType": "bytes32",
              "name": "stateRoot",
              "type": "bytes32"
            },
            {
              "internalType": "address",
              "name": "claimer",
              "type": "address"
            },
            {
              "internalType": "uint32",
              "name": "timestampClaimed",
              "type": "uint32"
            },
            {
              "internalType": "uint32",
              "name": "timestampVerification",
              "type": "uint32"
            },
            {
              "internalType": "uint32",
              "name": "blocknumberVerification",
              "type": "uint32"
            },
            {
              "internalType": "enum Party",
              "name": "honest",
              "type": "uint8"
            },
            {
              "internalType": "address",
              "name": "challenger",
              "type": "address"
            }
          ],
          "internalType": "struct Claim",
          "name": "_claim",
          "type": "tuple"
        }
      ],
      "name": "withdrawClaimDeposit",
      "outputs": [],
      "stateMutability": "nonpayable",
      "type": "function"
    },
    {
      "inputs": [
        {
          "internalType": "uint256",
          "name": "_epoch",
          "type": "uint256"
        },
        {
          "components": [
            {
              "internalType": "bytes32",
              "name": "stateRoot",
              "type": "bytes32"
            },
            {
              "internalType": "address",
              "name": "claimer",
              "type": "address"
            },
            {
              "internalType": "uint32",
              "name": "timestampClaimed",
              "type": "uint32"
            },
            {
              "internalType": "uint32",
              "name": "timestampVerification",
              "type": "uint32"
            },
            {
              "internalType": "uint32",
              "name": "blocknumberVerification",
              "type": "uint32"
            },
            {
              "internalType": "enum Party",
              "name": "honest",
              "type": "uint8"
            },
            {
              "internalType": "address",
              "name": "challenger",
              "type": "address"
            }
          ],
          "internalType": "struct Claim",
          "name": "_claim",
          "type": "tuple"
        }
      ],
      "name": "withdrawClaimerEscapeHatch",
      "outputs": [],
      "stateMutability": "nonpayable",
      "type": "function"
    }
  ],
  "transactionHash": "0xcf7a0b07025d0e2bdcbbb68fa613e26d11e794977e1b6d6238c056c7dd6dceea",
  "args": [
    "1000000000000000",
    1800,
    0,
    10000000000000,
    "0x0B5851fE2a931F619F73E739E5435C43976f1D68",
    "0x38f918D0E9F1b721EDaA41302E399fa1B79333a9",
    10000000000000
  ],
  "numDeployments": 3,
  "solcInputHash": "0d66bd5cfdf493ed8e081e9f7e1bf4fa",
  "bytecode": "0x6101a060405234801562000011575f80fd5b5060405162002b9d38038062002b9d8339810160408190526200003491620002e7565b60c08790526101208690526101408590526101608490526001600160a01b0380841660a05282166080526101808190528686868686868662000075620000ed565b620000826002886200035e565b60e0819052620000948860026200037e565b620000a091906200039e565b6101005261012051600190620000b790426200035e565b620000c391906200039e565b6001555050600780546001600160a01b03191633179055506200040b9a5050505050505050505050565b5f6080516001600160a01b031663ee35f3276040518163ffffffff1660e01b8152600401602060405180830381865afa1580156200012d573d5f803e3d5ffd5b505050506040513d601f19601f82011682018060405250810190620001539190620003b4565b6001600160a01b031663ebea461d6040518163ffffffff1660e01b8152600401608060405180830381865afa1580156200018f573d5f803e3d5ffd5b505050506040513d601f19601f82011682018060405250810190620001b59190620003d7565b5092505050600454811115620002005760048190556040518181527f611c2e4a78552f908fb0eb2cc503efc1f947cde8574277ab3b0f10fdd510258b9060200160405180910390a150565b600454811015620002c857600654156200027a5760405162461bcd60e51b815260206004820152603160248201527f53657175656e636572206c696d697420646563726561736520726571756573746044820152701030b63932b0b23c903832b73234b7339760791b606482015260840160405180910390fd5b604080518082018252828152426020918201819052600584905560065590518281527fa552b382e128c9d0732f01f09502c18999aec5dce0ed78c5af0ea2274ce9bd7d910160405180910390a15b50565b80516001600160a01b0381168114620002e2575f80fd5b919050565b5f805f805f805f60e0888a031215620002fe575f80fd5b875196506020880151955060408801519450606088015193506200032560808901620002cb565b92506200033560a08901620002cb565b915060c0880151905092959891949750929550565b634e487b7160e01b5f52601160045260245ffd5b5f826200037957634e487b7160e01b5f52601260045260245ffd5b500490565b80820281158282048414176200039857620003986200034a565b92915050565b818103818111156200039857620003986200034a565b5f60208284031215620003c5575f80fd5b620003d082620002cb565b9392505050565b5f805f8060808587031215620003eb575f80fd5b505082516020840151604085015160609095015191969095509092509050565b60805160a05160c05160e051610100516101205161014051610160516101805161264c620005515f395f818161055b0152611dc501525f818161058e01528181610955015281816117a20152818161192a0152611b3101525f81816106130152611d5a01525f81816105c10152818161097901528181610c7a01528181611498015281816117c60152818161194e0152611b5501525f81816104a401528181611233015261136801525f8181610396015281816111e0015261132001525f818161064601528181610cbc01528181610e2701528181610e53015281816113b701528181611a9101528181611af601528181611c9901528181611d0501528181611eb601528181612042015261206e01525f81816104590152610a6301525f81816106c40152818161083f015281816109f401528181610a8d0152611517015261264c5ff3fe608060405260043610610207575f3560e01c8063836e344b11610113578063b633b9441161009d578063df19e6ff1161006d578063df19e6ff14610687578063e78cea92146106b3578063e813a755146106e6578063eedcf2a9146106fb578063fccc28131461070e575f80fd5b8063b633b944146105e3578063c2114a1614610602578063d0e30db014610635578063da2b7bc414610668575f80fd5b8063930f28af116100e3578063930f28af146105175780639588eca214610536578063aa22a1c61461054a578063b044397e1461057d578063b5b7a184146105b0575f80fd5b8063836e344b146104935780638830dfbd146104c65780638a619a71146104d95780638ad3a8f7146104f8575f80fd5b80633ce43cfd1161019457806349b4299e1161016457806349b4299e146103d75780634a439cfe146103f6578063541adcca146104155780635f43a47f1461043457806369cd250d14610448575f80fd5b80633ce43cfd1461031b57806343b066d51461033a57806344df8e70146103855780634788cb38146103b8575f80fd5b8063222ae786116101da578063222ae786146102875780632639c060146102a957806327ee6bdd146102d457806331d14457146102e957806331ddf743146102fc575f80fd5b806301139b681461020b578063051d1970146102205780630c63fa84146102545780630f0adca514610268575b5f80fd5b61021e6102193660046121ad565b610721565b005b34801561022b575f80fd5b5060055460065461023a919082565b604080519283526020830191909152015b60405180910390f35b34801561025f575f80fd5b5061021e610730565b348015610273575f80fd5b5061021e6102823660046121d9565b610953565b348015610292575f80fd5b5061029b610c74565b60405190815260200161024b565b3480156102b4575f80fd5b5061029b6102c336600461220d565b60026020525f908152604090205481565b3480156102df575f80fd5b5061029b60015481565b61021e6102f7366004612224565b610ca4565b348015610307575f80fd5b5061021e6103163660046122a0565b610e9b565b348015610326575f80fd5b5061021e610335366004612359565b61112b565b348015610345575f80fd5b5061037561035436600461220d565b600881901c5f90815260036020526040902054600160ff9092161c81161490565b604051901515815260200161024b565b348015610390575f80fd5b5061029b7f000000000000000000000000000000000000000000000000000000000000000081565b3480156103c3575f80fd5b5061021e6103d23660046121ad565b61126f565b3480156103e2575f80fd5b5061021e6103f13660046121ad565b6113ee565b348015610401575f80fd5b5061029b61041036600461220d565b611492565b348015610420575f80fd5b5061029b61042f36600461238f565b6114c3565b34801561043f575f80fd5b5061021e611514565b348015610453575f80fd5b5061047b7f000000000000000000000000000000000000000000000000000000000000000081565b6040516001600160a01b03909116815260200161024b565b34801561049e575f80fd5b5061029b7f000000000000000000000000000000000000000000000000000000000000000081565b61021e6104d43660046123b0565b611703565b3480156104e4575f80fd5b5061021e6104f33660046123f0565b61170e565b348015610503575f80fd5b5060075461047b906001600160a01b031681565b348015610522575f80fd5b5061021e6105313660046121ad565b6117a0565b348015610541575f80fd5b5061029b5f5481565b348015610555575f80fd5b5061029b7f000000000000000000000000000000000000000000000000000000000000000081565b348015610588575f80fd5b5061029b7f000000000000000000000000000000000000000000000000000000000000000081565b3480156105bb575f80fd5b5061029b7f000000000000000000000000000000000000000000000000000000000000000081565b3480156105ee575f80fd5b5061021e6105fd3660046121ad565b611928565b34801561060d575f80fd5b5061029b7f000000000000000000000000000000000000000000000000000000000000000081565b348015610640575f80fd5b5061029b7f000000000000000000000000000000000000000000000000000000000000000081565b348015610673575f80fd5b5061021e6106823660046121ad565b611b2f565b348015610692575f80fd5b506106a66106a136600461238f565b611d3e565b60405161024b919061241f565b3480156106be575f80fd5b5061047b7f000000000000000000000000000000000000000000000000000000000000000081565b3480156106f1575f80fd5b5061029b60045481565b61021e610709366004612224565b611e01565b348015610719575f80fd5b5061047b5f81565b61072c828233611e80565b5050565b6006545f0361079b5760405162461bcd60e51b815260206004820152602c60248201527f4e6f2070656e64696e672073657175656e636572206c696d697420646563726560448201526b30b9b2903932b8bab2b9ba1760a11b60648201526084015b60405180910390fd5b6004546006546107ab919061244d565b42116108145760405162461bcd60e51b815260206004820152603260248201527f53657175656e636572206c696d697420646563726561736520726571756573746044820152711034b99039ba34b636103832b73234b7339760711b6064820152608401610792565b600580545f9182905560068290556040805163ee35f32760e01b815290519192916001600160a01b037f0000000000000000000000000000000000000000000000000000000000000000169163ee35f3279160048083019260209291908290030181865afa158015610888573d5f803e3d5ffd5b505050506040513d601f19601f820116820180604052508101906108ac9190612460565b6001600160a01b031663ebea461d6040518163ffffffff1660e01b8152600401608060405180830381865afa1580156108e7573d5f803e3d5ffd5b505050506040513d601f19601f8201168201806040525081019061090b919061247b565b509250505081810361072c5760048290556040518281527f611c2e4a78552f908fb0eb2cc503efc1f947cde8574277ab3b0f10fdd510258b9060200160405180910390a15050565b7f00000000000000000000000000000000000000000000000000000000000000006001547f000000000000000000000000000000000000000000000000000000000000000042816109a6576109a66124ae565b040311156109e95760405162461bcd60e51b815260206004820152601060248201526f213934b233b29029b43aba3237bbb71760811b6044820152606401610792565b336001600160a01b037f00000000000000000000000000000000000000000000000000000000000000001614610a615760405162461bcd60e51b815260206004820181905260248201527f4e6f742066726f6d206e617469766520617262697472756d206272696467652e6044820152606401610792565b7f00000000000000000000000000000000000000000000000000000000000000006001600160a01b03167f00000000000000000000000000000000000000000000000000000000000000006001600160a01b031663ab5d89436040518163ffffffff1660e01b8152600401602060405180830381865afa158015610ae7573d5f803e3d5ffd5b505050506040513d601f19601f82011682018060405250810190610b0b9190612460565b6001600160a01b03166380648b026040518163ffffffff1660e01b8152600401602060405180830381865afa158015610b46573d5f803e3d5ffd5b505050506040513d601f19601f82011682018060405250810190610b6a9190612460565b6001600160a01b031614610bb95760405162461bcd60e51b81526020600482015260166024820152753b32b0a4b73137bc20b9312a37a2ba341037b7363c9760511b6044820152606401610792565b60015483118015610bc957508115155b15610c0b5760018390555f8290556040518381527ff786e7f77ede00a02a5464f8f0555798f42ba99a4a920ef2778db8d75e4656f79060200160405180910390a15b610c14816114c3565b5f8481526002602052604090205403610c6f578051829003610c3c57600160a0820152610c57565b60c08101516001600160a01b031615610c5757600260a08201525b610c60816114c3565b5f848152600260205260409020555b505050565b5f610c9f7f0000000000000000000000000000000000000000000000000000000000000000426124c2565b905090565b6007546001600160a01b03163314610cba575f80fd5b7f0000000000000000000000000000000000000000000000000000000000000000341015610d2a5760405162461bcd60e51b815260206004820152601b60248201527f496e73756666696369656e7420636c61696d206465706f7369742e00000000006044820152606401610792565b80610d475760405162461bcd60e51b8152600401610792906124e1565b5f8281526002602052604090205415610d985760405162461bcd60e51b815260206004820152601360248201527221b630b4b69030b63932b0b23c9036b0b2329760691b6044820152606401610792565b6040805160e0810182528281523360208201524263ffffffff16918101919091525f606082018190526080820181905260a0820181905260c0820152610ddd906114c3565b5f838152600260209081526040918290209290925551828152839133917fd95107f4584744c6c893a04c43058aadd1ce8aac8ca5d64140eaf277de6c1d57910160405180910390a37f000000000000000000000000000000000000000000000000000000000000000034111561072c575f610e787f000000000000000000000000000000000000000000000000000000000000000034612509565b604051909150339082156108fc029083905f818181858888f15050505050505050565b60408510610edd5760405162461bcd60e51b815260206004820152600f60248201526e283937b7b3103a37b7903637b7339760891b6044820152606401610792565b5f84848484604051602001610ef5949392919061251c565b604051602081830303815290604052805190602001209050805f5260205f2090505f5b86811015610f6d575f888883818110610f3357610f3361255d565b90506020020135905082811115610f5657825f528060205260405f209250610f64565b805f528260205260405f2092505b50600101610f18565b50805f5414610faf5760405162461bcd60e51b815260206004820152600e60248201526d24b73b30b634b210383937b7b31760911b6044820152606401610792565b600885901c66ffffffffffffff165f8181526003602052604090205460ff87169080821c600116156110235760405162461bcd60e51b815260206004820152601760248201527f4d65737361676520616c72656164792072656c617965640000000000000000006044820152606401610792565b5f838152600360205260408082206001851b84179055516001600160a01b038916906110529089908990612571565b5f604051808303815f865af19150503d805f811461108b576040519150601f19603f3d011682016040523d82523d5f602084013e611090565b606091505b50509050806110e15760405162461bcd60e51b815260206004820152601760248201527f4661696c656420746f2063616c6c20636f6e74726163740000000000000000006044820152606401610792565b60405167ffffffffffffffff8a1681527f54303fab361bc52c2f1f56ace7351189582264f74ce47a6e7c3f478d64c429439060200160405180910390a15050505050505050505050565b61113d61042f3683900383018361238f565b5f83815260026020526040902054146111685760405162461bcd60e51b8152600401610792906124e1565b600261117a60c0830160a08401612580565b600281111561118b5761118b61240b565b146111cc5760405162461bcd60e51b815260206004820152601160248201527021b430b63632b733b2903330b4b632b21760791b6044820152606401610792565b5f82815260026020526040808220829055517f000000000000000000000000000000000000000000000000000000000000000080156108fc029183818181858288f15061122593505060e0840191505060c083016123f0565b6001600160a01b03166108fc7f000000000000000000000000000000000000000000000000000000000000000090811502906040515f60405180830381858888f150505050505050565b611278816114c3565b5f83815260026020526040902054146112a35760405162461bcd60e51b8152600401610792906124e1565b60018160a0015160028111156112bb576112bb61240b565b146112f85760405162461bcd60e51b815260206004820152600d60248201526c21b630b4b6903330b4b632b21760991b6044820152606401610792565b5f8281526002602052604081205560c08101516001600160a01b0316156113a1576040515f907f000000000000000000000000000000000000000000000000000000000000000080156108fc029183818181858288f150505060208301516040516001600160a01b0390911692507f000000000000000000000000000000000000000000000000000000000000000080156108fc029250905f818181858888f150505050505050565b60208101516040516001600160a01b03909116907f000000000000000000000000000000000000000000000000000000000000000080156108fc02915f818181858888f150505050505050565b6007546001600160a01b03163314611404575f80fd5b61140d816114c3565b5f83815260026020526040902054146114385760405162461bcd60e51b8152600401610792906124e1565b63ffffffff428116606083015243166080820152611455816114c3565b5f8381526002602052604080822092909255905183917f37b700b61b9b4710dddb0c3316b2be7ef6088ed4b1d7bfe0fb98be8f9a163e1691a25050565b5f6114bd7f0000000000000000000000000000000000000000000000000000000000000000836124c2565b92915050565b80516020808301516040808501516060860151608087015160a088015160c089015194515f986114f7989097969101612599565b604051602081830303815290604052805190602001209050919050565b5f7f00000000000000000000000000000000000000000000000000000000000000006001600160a01b031663ee35f3276040518163ffffffff1660e01b8152600401602060405180830381865afa158015611571573d5f803e3d5ffd5b505050506040513d601f19601f820116820180604052508101906115959190612460565b6001600160a01b031663ebea461d6040518163ffffffff1660e01b8152600401608060405180830381865afa1580156115d0573d5f803e3d5ffd5b505050506040513d601f19601f820116820180604052508101906115f4919061247b565b509250505060045481111561163e5760048190556040518181527f611c2e4a78552f908fb0eb2cc503efc1f947cde8574277ab3b0f10fdd510258b9060200160405180910390a150565b60045481101561170057600654156116b25760405162461bcd60e51b815260206004820152603160248201527f53657175656e636572206c696d697420646563726561736520726571756573746044820152701030b63932b0b23c903832b73234b7339760791b6064820152608401610792565b604080518082018252828152426020918201819052600584905560065590518281527fa552b382e128c9d0732f01f09502c18999aec5dce0ed78c5af0ea2274ce9bd7d910160405180910390a15b50565b610c6f838383611e80565b6007546001600160a01b03163314611724575f80fd5b6007546001600160a01b0316331461177e5760405162461bcd60e51b815260206004820152601860248201527f496e76616c696420546573746e6574204f70657261746f7200000000000000006044820152606401610792565b600780546001600160a01b0319166001600160a01b0392909216919091179055565b7f00000000000000000000000000000000000000000000000000000000000000006001547f000000000000000000000000000000000000000000000000000000000000000042816117f3576117f36124ae565b040311156118365760405162461bcd60e51b815260206004820152601060248201526f213934b233b29029b43aba3237bbb71760811b6044820152606401610792565b61183f816114c3565b5f838152600260205260409020541461186a5760405162461bcd60e51b8152600401610792906124e1565b60c08101516001600160a01b0316156118bc5760405162461bcd60e51b815260206004820152601460248201527321b630b4b69034b99031b430b63632b733b2b21760611b6044820152606401610792565b60015482111561190357600182905580515f556040518281527ff786e7f77ede00a02a5464f8f0555798f42ba99a4a920ef2778db8d75e4656f79060200160405180910390a15b600160a0820152611913816114c3565b5f928352600260205260409092209190915550565b7f00000000000000000000000000000000000000000000000000000000000000006001547f0000000000000000000000000000000000000000000000000000000000000000428161197b5761197b6124ae565b0403116119bc5760405162461bcd60e51b815260206004820152600f60248201526e213934b233b290293ab73734b7339760891b6044820152606401610792565b6119c5816114c3565b5f83815260026020526040902054146119f05760405162461bcd60e51b8152600401610792906124e1565b5f8160a001516002811115611a0757611a0761240b565b14611a465760405162461bcd60e51b815260206004820152600f60248201526e21b630b4b6903932b9b7b63b32b21760891b6044820152606401610792565b60c08101516001600160a01b03161561072c5760208101516001600160a01b0316611ac9575f8281526002602052604080822082905560c083015190516001600160a01b03909116917f000000000000000000000000000000000000000000000000000000000000000080156108fc02929091818181858888f150505050505050565b60c0810180515f909152611adc826114c3565b505f83815260026020526040516001600160a01b038316917f000000000000000000000000000000000000000000000000000000000000000080156108fc02929091818181858888f15050505050505050565b7f00000000000000000000000000000000000000000000000000000000000000006001547f00000000000000000000000000000000000000000000000000000000000000004281611b8257611b826124ae565b040311611bc35760405162461bcd60e51b815260206004820152600f60248201526e213934b233b290293ab73734b7339760891b6044820152606401610792565b611bcc816114c3565b5f8381526002602052604090205414611bf75760405162461bcd60e51b8152600401610792906124e1565b5f8160a001516002811115611c0e57611c0e61240b565b14611c4d5760405162461bcd60e51b815260206004820152600f60248201526e21b630b4b6903932b9b7b63b32b21760891b6044820152606401610792565b60208101516001600160a01b03161561072c5760c08101516001600160a01b0316611cd1575f8281526002602090815260408083208390559083015190516001600160a01b03909116917f000000000000000000000000000000000000000000000000000000000000000080156108fc02929091818181858888f150505050505050565b6020810180515f909152611ce4826114c3565b5f848152600260205260408082209290925590516001600160a01b038316917f000000000000000000000000000000000000000000000000000000000000000080156108fc02929091818181858888f15050505050505050565b5f816060015163ffffffff165f03611d5857506002919050565b7f0000000000000000000000000000000000000000000000000000000000000000826060015163ffffffff1642031015611d9457506003919050565b5f600c836060015163ffffffff16420381611db157611db16124ae565b608085015163ffffffff16919004019050437f000000000000000000000000000000000000000000000000000000000000000081830311611df55760019250611df9565b5f92505b50505b919050565b611e0b8282610ca4565b6040805160e0810182528281523360208201524263ffffffff16918101919091525f606082018190526080820181905260a0820181905260c0820152611e5183826113ee565b63ffffffff428116606083015243166080820152611e6f83826117a0565b600160a0820152610c6f838261126f565b611e89826114c3565b5f8481526002602052604090205414611eb45760405162461bcd60e51b8152600401610792906124e1565b7f0000000000000000000000000000000000000000000000000000000000000000341015611f245760405162461bcd60e51b815260206004820152601f60248201527f496e73756666696369656e74206368616c6c656e6765206465706f7369742e006044820152606401610792565b60c08201516001600160a01b031615611f7f5760405162461bcd60e51b815260206004820152601960248201527f436c61696d20616c7265616479206368616c6c656e6765642e000000000000006044820152606401610792565b5f8260a001516002811115611f9657611f9661240b565b14611fe35760405162461bcd60e51b815260206004820152601760248201527f436c61696d20616c72656164792076657269666965642e0000000000000000006044820152606401610792565b6001600160a01b03811660c0830152611ffb826114c3565b5f848152600260205260408082209290925590516001600160a01b0383169185917fcfe09ca25f55d949baba5e280f5750c9ba4b9048fca5532f916067d433afe4d79190a37f0000000000000000000000000000000000000000000000000000000000000000341115610c6f575f6120937f000000000000000000000000000000000000000000000000000000000000000034612509565b604051909150339082156108fc029083905f818181858888f1505050505050505050565b6001600160a01b0381168114611700575f80fd5b8035611dfc816120b7565b803563ffffffff81168114611dfc575f80fd5b803560038110611dfc575f80fd5b5f60e08284031215612107575f80fd5b60405160e0810181811067ffffffffffffffff8211171561213657634e487b7160e01b5f52604160045260245ffd5b6040528235815290508061214c602084016120cb565b602082015261215d604084016120d6565b604082015261216e606084016120d6565b606082015261217f608084016120d6565b608082015261219060a084016120e9565b60a08201526121a160c084016120cb565b60c08201525092915050565b5f8061010083850312156121bf575f80fd5b823591506121d084602085016120f7565b90509250929050565b5f805f61012084860312156121ec575f80fd5b833592506020840135915061220485604086016120f7565b90509250925092565b5f6020828403121561221d575f80fd5b5035919050565b5f8060408385031215612235575f80fd5b50508035926020909101359150565b803567ffffffffffffffff81168114611dfc575f80fd5b5f8083601f84011261226b575f80fd5b50813567ffffffffffffffff811115612282575f80fd5b602083019150836020828501011115612299575f80fd5b9250929050565b5f805f805f80608087890312156122b5575f80fd5b863567ffffffffffffffff808211156122cc575f80fd5b818901915089601f8301126122df575f80fd5b8135818111156122ed575f80fd5b8a60208260051b8501011115612301575f80fd5b6020830198508097505061231760208a01612244565b955061232560408a016120cb565b9450606089013591508082111561233a575f80fd5b5061234789828a0161225b565b979a9699509497509295939492505050565b5f8082840361010081121561236c575f80fd5b8335925060e0601f1982011215612381575f80fd5b506020830190509250929050565b5f60e0828403121561239f575f80fd5b6123a983836120f7565b9392505050565b5f805f61012084860312156123c3575f80fd5b833592506123d485602086016120f7565b91506101008401356123e5816120b7565b809150509250925092565b5f60208284031215612400575f80fd5b81356123a9816120b7565b634e487b7160e01b5f52602160045260245ffd5b60208101600483106124335761243361240b565b91905290565b634e487b7160e01b5f52601160045260245ffd5b808201808211156114bd576114bd612439565b5f60208284031215612470575f80fd5b81516123a9816120b7565b5f805f806080858703121561248e575f80fd5b505082516020840151604085015160609095015191969095509092509050565b634e487b7160e01b5f52601260045260245ffd5b5f826124dc57634e487b7160e01b5f52601260045260245ffd5b500490565b6020808252600e908201526d24b73b30b634b21031b630b4b69760911b604082015260600190565b818103818111156114bd576114bd612439565b60c085901b6001600160c01b0319168152606084901b6bffffffffffffffffffffffff191660088201528183601c8301375f9101601c019081529392505050565b634e487b7160e01b5f52603260045260245ffd5b818382375f9101908152919050565b5f60208284031215612590575f80fd5b6123a9826120e9565b8781525f6bffffffffffffffffffffffff19808960601b16602084015263ffffffff60e01b808960e01b166034850152808860e01b166038850152808760e01b16603c85015250600385106125f0576125f061240b565b60f89490941b60408301525060609190911b90911660418201526055019594505050505056fea2646970667358221220eb4b6a33e134826f8849734c57ec356151a29a7be52c4f63c56667d0af5233e264736f6c63430008180033",
  "devdoc": {
    "details": "Vea Outbox From arbitrumSepolia to Sepolia. Note: This contract is deployed on Sepolia. Note: This contract is permissioned for developer testing (devnet).",
    "events": {
      "Challenged(uint256,address)": {
        "details": "This event indicates that `sendSnapshot(epoch)` should be called in the inbox.",
        "params": {
          "_challenger": "The address of the challenger.",
          "_epoch": "The epoch associated with the challenged claim."
        }
      },
      "Claimed(address,uint256,bytes32)": {
        "details": "Watchers check this event to challenge fraud.",
        "params": {
          "_claimer": "The address of the claimer.",
          "_epoch": "The epoch associated with the claim.",
          "_stateRoot": "The state root of the claim."
        }
      },
      "MessageRelayed(uint64)": {
        "details": "This event indicates that a message has been relayed.",
        "params": {
          "_msgId": "The msgId of the message that was relayed."
        }
      },
      "VerificationStarted(uint256)": {
        "details": "This event indicates that the censorship test started and all challengers are ready even in the worst case scenario of a malicious sequencer.",
        "params": {
          "_epoch": "The epoch that started verification."
        }
      },
      "Verified(uint256)": {
        "details": "This events indicates that verification has succeeded. The messages are ready to be relayed.",
        "params": {
          "_epoch": "The epoch that was verified."
        }
      },
      "sequencerDelayLimitDecreaseRequested(uint256)": {
        "details": "This event indicates that a request to decrease the sequencer limit has been made.",
        "params": {
          "_requestedSequencerDelayLimit": "The new sequencer delay limit requested."
        }
      },
      "sequencerDelayLimitUpdated(uint256)": {
        "details": "This event indicates the sequencer limit updated.",
        "params": {
          "_newSequencerDelayLimit": "The new sequencer delay limit."
        }
      }
    },
    "kind": "dev",
    "methods": {
      "censorshipTestStatus((bytes32,address,uint32,uint32,uint32,uint8,address))": {
        "details": "Gets the status of the censorship test for claim.",
        "params": {
          "_claim": "The claim to test."
        },
        "returns": {
          "status": "True if the claim passed the censorship test."
        }
      },
      "challenge(uint256,(bytes32,address,uint32,uint32,uint32,uint8,address))": {
        "details": "Submit a challenge for the claim of the inbox state root snapshot taken at 'epoch'.",
        "params": {
          "_claim": "The claim associated with the epoch.",
          "_epoch": "The epoch of the claim to challenge."
        }
      },
      "challenge(uint256,(bytes32,address,uint32,uint32,uint32,uint8,address),address)": {
        "details": "Submit a challenge for the claim of the inbox state root snapshot taken at 'epoch'.Allows proxy contracts to batch challenges.",
        "params": {
          "_claim": "The claim associated with the epoch.",
          "_epoch": "The epoch of the claim to challenge.",
          "_withdrawalAddress": "The address to withdraw the deposit + reward to."
        }
      },
      "changeDevnetOperator(address)": {
        "details": "Changes the devnet operator.",
        "params": {
          "_devnetOperator": "The new testnet operator."
        }
      },
      "claim(uint256,bytes32)": {
        "details": "Submit a claim about the _stateRoot at _epoch and submit a deposit.",
        "params": {
          "_epoch": "The epoch for which the claim is made.",
          "_stateRoot": "The state root to claim."
        }
      },
      "constructor": {
        "details": "Constructor.",
        "params": {
          "_deposit": "The deposit amount to submit a claim in wei.",
          "_epochPeriod": "The duration of each epoch.",
          "_maxMissingBlocks": "The maximum number of blocks that can be missing in a challenge period.",
          "_minChallengePeriod": "The minimum time window to challenge a claim.",
          "_timeoutEpochs": "The epochs before the bridge is considered shutdown.",
          "_veaInboxArbToEthDevnet": "The address of the inbox contract on Arbitrum."
        }
      },
      "devnetAdvanceState(uint256,bytes32)": {
        "details": "Testnet operator utility function to claim, validate and withdraw.",
        "params": {
          "_epoch": "The epoch for which the claim is made.",
          "_stateroot": "The state root to claim."
        }
      },
      "epochAt(uint256)": {
        "details": "Get the current epoch from the outbox's point of view using the Ethereum L1 clock.",
        "returns": {
          "epoch": "The hash of the claim."
        }
      },
      "epochNow()": {
        "details": "Get the current epoch from the outbox's point of view using the Ethereum L1 clock.",
        "returns": {
          "epoch": "The hash of the claim."
        }
      },
      "executeSequencerDelayLimitDecreaseRequest()": {
        "details": "execute sequencerDelayLimitDecreaseRequest"
      },
      "hashClaim((bytes32,address,uint32,uint32,uint32,uint8,address))": {
        "details": "Hashes the claim.",
        "params": {
          "_claim": "The claim to hash."
        },
        "returns": {
          "hashedClaim": "The hash of the claim."
        }
      },
      "isMsgRelayed(uint256)": {
        "details": "Get the msg relayed status.",
        "params": {
          "_msgId": "The msgId to check."
        },
        "returns": {
          "isRelayed": "True if the msg was relayed."
        }
      },
      "resolveDisputedClaim(uint256,bytes32,(bytes32,address,uint32,uint32,uint32,uint8,address))": {
        "details": "Resolves any challenge of the optimistic claim for '_epoch'.",
        "params": {
          "_claim": "The claim associated with the epoch.",
          "_epoch": "The epoch to verify.",
          "_stateRoot": "The true state root for the epoch."
        }
      },
      "sendMessage(bytes32[],uint64,address,bytes)": {
        "details": "Verifies and relays the message. UNTRUSTED.",
        "params": {
          "_message": "The message encoded in the vea inbox as abi.encodeWithSelector(fnSelector, msg.sender, param1, param2, ...)",
          "_msgId": "The zero based index of the message in the inbox.",
          "_proof": "The merkle proof to prove the message inclusion in the inbox state root.",
          "_to": "The address of the contract on Ethereum to call."
        }
      },
      "startVerification(uint256,(bytes32,address,uint32,uint32,uint32,uint8,address))": {
        "details": "Start verification for claim for 'epoch'.",
        "params": {
          "_claim": "The claim associated with the epoch.",
          "_epoch": "The epoch of the claim to challenge."
        }
      },
      "updateSequencerDelayLimit()": {
        "details": "Request to decrease the sequencerDelayLimit."
      },
      "verifySnapshot(uint256,(bytes32,address,uint32,uint32,uint32,uint8,address))": {
        "details": "Resolves the optimistic claim for '_epoch'.",
        "params": {
          "_claim": "The claim associated with the epoch.",
          "_epoch": "The epoch of the optimistic claim."
        }
      },
      "withdrawChallengeDeposit(uint256,(bytes32,address,uint32,uint32,uint32,uint8,address))": {
        "details": "Sends the deposit back to the Challenger if successful. Includes a portion of the Bridger's deposit.",
        "params": {
          "_claim": "The claim associated with the epoch.",
          "_epoch": "The epoch associated with the challenge deposit to withraw."
        }
      },
      "withdrawChallengerEscapeHatch(uint256,(bytes32,address,uint32,uint32,uint32,uint8,address))": {
        "details": "When bridge is shutdown, no claim disputes can be resolved. This allows the challenger to withdraw their deposit.",
        "params": {
          "_claim": "The claim associated with the epoch.",
          "_epoch": "The epoch associated with the claim deposit to withraw."
        }
      },
      "withdrawClaimDeposit(uint256,(bytes32,address,uint32,uint32,uint32,uint8,address))": {
        "details": "Sends the deposit back to the Bridger if their claim is not successfully challenged. Includes a portion of the Challenger's deposit if unsuccessfully challenged.",
        "params": {
          "_claim": "The claim associated with the epoch.",
          "_epoch": "The epoch associated with the claim deposit to withraw."
        }
      },
      "withdrawClaimerEscapeHatch(uint256,(bytes32,address,uint32,uint32,uint32,uint8,address))": {
        "details": "When bridge is shutdown, no claim disputes can be resolved. This allows the claimer to withdraw their deposit.",
        "params": {
          "_claim": "The claim associated with the epoch.",
          "_epoch": "The epoch associated with the claim deposit to withraw."
        }
      }
    },
    "version": 1
  },
  "userdoc": {
    "kind": "user",
    "methods": {
      "resolveDisputedClaim(uint256,bytes32,(bytes32,address,uint32,uint32,uint32,uint8,address))": {
        "notice": "Note: Access restricted to arbitrum  bridge."
      }
    },
    "version": 1
  },
  "storageLayout": {
    "storage": [
      {
        "astId": 446,
        "contract": "src/devnets/arbitrumToEth/VeaOutboxArbToEthDevnet.sol:VeaOutboxArbToEthDevnet",
        "label": "stateRoot",
        "offset": 0,
        "slot": "0",
        "type": "t_bytes32"
      },
      {
        "astId": 448,
        "contract": "src/devnets/arbitrumToEth/VeaOutboxArbToEthDevnet.sol:VeaOutboxArbToEthDevnet",
        "label": "latestVerifiedEpoch",
        "offset": 0,
        "slot": "1",
        "type": "t_uint256"
      },
      {
        "astId": 452,
        "contract": "src/devnets/arbitrumToEth/VeaOutboxArbToEthDevnet.sol:VeaOutboxArbToEthDevnet",
        "label": "claimHashes",
        "offset": 0,
        "slot": "2",
        "type": "t_mapping(t_uint256,t_bytes32)"
      },
      {
        "astId": 456,
        "contract": "src/devnets/arbitrumToEth/VeaOutboxArbToEthDevnet.sol:VeaOutboxArbToEthDevnet",
        "label": "relayed",
        "offset": 0,
        "slot": "3",
        "type": "t_mapping(t_uint256,t_bytes32)"
      },
      {
        "astId": 458,
        "contract": "src/devnets/arbitrumToEth/VeaOutboxArbToEthDevnet.sol:VeaOutboxArbToEthDevnet",
        "label": "sequencerDelayLimit",
        "offset": 0,
        "slot": "4",
        "type": "t_uint256"
      },
      {
        "astId": 461,
        "contract": "src/devnets/arbitrumToEth/VeaOutboxArbToEthDevnet.sol:VeaOutboxArbToEthDevnet",
        "label": "sequencerDelayLimitDecreaseRequest",
        "offset": 0,
        "slot": "5",
        "type": "t_struct(SequencerDelayLimitDecreaseRequest)466_storage"
      },
      {
        "astId": 6618,
        "contract": "src/devnets/arbitrumToEth/VeaOutboxArbToEthDevnet.sol:VeaOutboxArbToEthDevnet",
        "label": "devnetOperator",
        "offset": 0,
        "slot": "7",
        "type": "t_address"
      }
    ],
    "types": {
      "t_address": {
        "encoding": "inplace",
        "label": "address",
        "numberOfBytes": "20"
      },
      "t_bytes32": {
        "encoding": "inplace",
        "label": "bytes32",
        "numberOfBytes": "32"
      },
      "t_mapping(t_uint256,t_bytes32)": {
        "encoding": "mapping",
        "key": "t_uint256",
        "label": "mapping(uint256 => bytes32)",
        "numberOfBytes": "32",
        "value": "t_bytes32"
      },
      "t_struct(SequencerDelayLimitDecreaseRequest)466_storage": {
        "encoding": "inplace",
        "label": "struct VeaOutboxArbToEth.SequencerDelayLimitDecreaseRequest",
        "members": [
          {
            "astId": 463,
            "contract": "src/devnets/arbitrumToEth/VeaOutboxArbToEthDevnet.sol:VeaOutboxArbToEthDevnet",
            "label": "requestedsequencerDelayLimit",
            "offset": 0,
            "slot": "0",
            "type": "t_uint256"
          },
          {
            "astId": 465,
            "contract": "src/devnets/arbitrumToEth/VeaOutboxArbToEthDevnet.sol:VeaOutboxArbToEthDevnet",
            "label": "timestamp",
            "offset": 0,
            "slot": "1",
            "type": "t_uint256"
          }
        ],
        "numberOfBytes": "64"
      },
      "t_uint256": {
        "encoding": "inplace",
        "label": "uint256",
        "numberOfBytes": "32"
      }
    }
  }
}