{
  "address": "0x6B43B4DA9ad839dc806e696A248731A65F61f5d9",
  "abi": [
    {
      "inputs": [
        {
          "internalType": "contract IFastBridgeSender",
          "name": "_fastBridgeSender",
          "type": "address"
        },
        {
          "internalType": "address",
          "name": "_receiverGateway",
          "type": "address"
        },
        {
          "internalType": "uint256",
          "name": "_receiverChainID",
          "type": "uint256"
        }
      ],
      "stateMutability": "nonpayable",
      "type": "constructor"
    },
    {
      "inputs": [
        {
          "internalType": "bytes32",
          "name": "",
          "type": "bytes32"
        }
      ],
      "name": "disputeHashtoRelayedData",
      "outputs": [
        {
          "internalType": "uint256",
          "name": "arbitrationCost",
          "type": "uint256"
        },
        {
          "internalType": "address",
          "name": "relayer",
          "type": "address"
        }
      ],
      "stateMutability": "view",
      "type": "function"
    },
    {
      "inputs": [],
      "name": "fastBridgeSender",
      "outputs": [
        {
          "internalType": "contract IFastBridgeSender",
          "name": "",
          "type": "address"
        }
      ],
      "stateMutability": "view",
      "type": "function"
    },
    {
      "inputs": [],
      "name": "receiverChainID",
      "outputs": [
        {
          "internalType": "uint256",
          "name": "",
          "type": "uint256"
        }
      ],
      "stateMutability": "view",
      "type": "function"
    },
    {
      "inputs": [],
      "name": "receiverGateway",
      "outputs": [
        {
          "internalType": "address",
          "name": "",
          "type": "address"
        }
      ],
      "stateMutability": "view",
      "type": "function"
    },
    {
      "inputs": [
        {
          "internalType": "uint256",
          "name": "_data",
          "type": "uint256"
        }
      ],
      "name": "sendFastMessage",
      "outputs": [],
      "stateMutability": "nonpayable",
      "type": "function"
    }
  ],
  "transactionHash": "0xd522d66856e2706c3dd996ff8bfceac42e293fdab32d61c4ea97ef201f712940",
  "args": [
    "0x0FD4610A6BBCE52F8E530f4daE1565F4f7439e02",
    "0xD986380c607350762D802646AAad4eea809219Df",
    10200
  ],
  "numDeployments": 1,
  "solcInputHash": "394aab64c2f3bc8c3e216dd7507dde8f",
  "bytecode": "0x60c060405234801561001057600080fd5b506040516103a73803806103a783398101604081905261002f91610076565b6001600160a01b03928316608052600080546001600160a01b031916929093169190911790915560a0526100b9565b6001600160a01b038116811461007357600080fd5b50565b60008060006060848603121561008b57600080fd5b83516100968161005e565b60208501519093506100a78161005e565b80925050604084015190509250925092565b60805160a0516102c36100e4600039600061011a01526000818160f3015261019701526102c36000f3fe608060405234801561001057600080fd5b50600436106100575760003560e01c8063095f8c431461005c578063c5ffcf7014610071578063cddbfa14146100a1578063e7fe3139146100ee578063ea4f97d314610115575b600080fd5b61006f61006a36600461020f565b61014a565b005b600054610084906001600160a01b031681565b6040516001600160a01b0390911681526020015b60405180910390f35b6100d16100af36600461020f565b600160208190526000918252604090912080549101546001600160a01b031682565b604080519283526001600160a01b03909116602083015201610098565b6100847f000000000000000000000000000000000000000000000000000000000000000081565b61013c7f000000000000000000000000000000000000000000000000000000000000000081565b604051908152602001610098565b60408051602480820184905282518083039091018152604490910182526020810180516001600160e01b0316630395645f60e11b908117909152600054925163263b083b60e21b815290927f00000000000000000000000000000000000000000000000000000000000000006001600160a01b03908116926398ec20ec926101d89216908590600401610228565b600060405180830381600087803b1580156101f257600080fd5b505af1158015610206573d6000803e3d6000fd5b50505050505050565b60006020828403121561022157600080fd5b5035919050565b60018060a01b038316815260006020604081840152835180604085015260005b8181101561026457858101830151858201606001528201610248565b81811115610276576000606083870101525b50601f01601f19169290920160600194935050505056fea264697066735822122002cd9005b28419f3938d4d505b99456d4a14cdc82367d44bee992a6c063a89de64736f6c63430008090033",
  "devdoc": {
    "kind": "dev",
    "methods": {},
    "version": 1
  },
  "userdoc": {
    "kind": "user",
    "methods": {},
    "notice": "Sender Gateway Counterpart of `ReceiverGatewayMock`",
    "version": 1
  },
  "storageLayout": {
    "storage": [
      {
        "astId": 227,
        "contract": "src/test/gateways/SenderGatewayMock.sol:SenderGatewayMock",
        "label": "receiverGateway",
        "offset": 0,
        "slot": "0",
        "type": "t_address"
      },
      {
        "astId": 240,
        "contract": "src/test/gateways/SenderGatewayMock.sol:SenderGatewayMock",
        "label": "disputeHashtoRelayedData",
        "offset": 0,
        "slot": "1",
        "type": "t_mapping(t_bytes32,t_struct(RelayedData)235_storage)"
      }
    ],
    "types": {
      "t_address": {
        "encoding": "inplace",
        "label": "address",
        "numberOfBytes": "20"
      },
      "t_bytes32": {
        "encoding": "inplace",
        "label": "bytes32",
        "numberOfBytes": "32"
      },
      "t_mapping(t_bytes32,t_struct(RelayedData)235_storage)": {
        "encoding": "mapping",
        "key": "t_bytes32",
        "label": "mapping(bytes32 => struct SenderGatewayMock.RelayedData)",
        "numberOfBytes": "32",
        "value": "t_struct(RelayedData)235_storage"
      },
      "t_struct(RelayedData)235_storage": {
        "encoding": "inplace",
        "label": "struct SenderGatewayMock.RelayedData",
        "members": [
          {
            "astId": 232,
            "contract": "src/test/gateways/SenderGatewayMock.sol:SenderGatewayMock",
            "label": "arbitrationCost",
            "offset": 0,
            "slot": "0",
            "type": "t_uint256"
          },
          {
            "astId": 234,
            "contract": "src/test/gateways/SenderGatewayMock.sol:SenderGatewayMock",
            "label": "relayer",
            "offset": 0,
            "slot": "1",
            "type": "t_address"
          }
        ],
        "numberOfBytes": "64"
      },
      "t_uint256": {
        "encoding": "inplace",
        "label": "uint256",
        "numberOfBytes": "32"
      }
    }
  }
}