{
  "address": "0xAb53e341121448Ae259Da8fa17f216Cb0e21199C",
  "abi": [
    {
      "inputs": [
        {
          "internalType": "uint256",
          "name": "_epochPeriod",
          "type": "uint256"
        },
        {
          "internalType": "address",
          "name": "_router",
          "type": "address"
        }
      ],
      "stateMutability": "nonpayable",
      "type": "constructor"
    },
    {
      "anonymous": false,
      "inputs": [
        {
          "indexed": false,
          "internalType": "bytes",
          "name": "nodeData",
          "type": "bytes"
        }
      ],
      "name": "MessageSent",
      "type": "event"
    },
    {
      "anonymous": false,
      "inputs": [
        {
          "indexed": false,
          "internalType": "uint256",
          "name": "count",
          "type": "uint256"
        }
      ],
      "name": "SnapshotSaved",
      "type": "event"
    },
    {
      "anonymous": false,
      "inputs": [
        {
          "indexed": true,
          "internalType": "uint256",
          "name": "epochSent",
          "type": "uint256"
        },
        {
          "indexed": false,
          "internalType": "bytes32",
          "name": "ticketId",
          "type": "bytes32"
        }
      ],
      "name": "SnapshotSent",
      "type": "event"
    },
    {
      "inputs": [],
      "name": "count",
      "outputs": [
        {
          "internalType": "uint256",
          "name": "",
          "type": "uint256"
        }
      ],
      "stateMutability": "view",
      "type": "function"
    },
    {
      "inputs": [],
      "name": "epochPeriod",
      "outputs": [
        {
          "internalType": "uint256",
          "name": "",
          "type": "uint256"
        }
      ],
      "stateMutability": "view",
      "type": "function"
    },
    {
      "inputs": [
        {
          "internalType": "uint256",
          "name": "",
          "type": "uint256"
        }
      ],
      "name": "inbox",
      "outputs": [
        {
          "internalType": "bytes32",
          "name": "",
          "type": "bytes32"
        }
      ],
      "stateMutability": "view",
      "type": "function"
    },
    {
      "inputs": [],
      "name": "router",
      "outputs": [
        {
          "internalType": "address",
          "name": "",
          "type": "address"
        }
      ],
      "stateMutability": "view",
      "type": "function"
    },
    {
      "inputs": [],
      "name": "saveSnapshot",
      "outputs": [],
      "stateMutability": "nonpayable",
      "type": "function"
    },
    {
      "inputs": [
        {
          "internalType": "address",
          "name": "to",
          "type": "address"
        },
        {
          "internalType": "bytes4",
          "name": "fnSelector",
          "type": "bytes4"
        },
        {
          "internalType": "bytes",
          "name": "data",
          "type": "bytes"
        }
      ],
      "name": "sendMessage",
      "outputs": [
        {
          "internalType": "uint64",
          "name": "",
          "type": "uint64"
        }
      ],
      "stateMutability": "nonpayable",
      "type": "function"
    },
    {
      "inputs": [
        {
          "internalType": "uint256",
          "name": "epochSend",
          "type": "uint256"
        },
        {
          "components": [
            {
              "internalType": "bytes32",
              "name": "stateRoot",
              "type": "bytes32"
            },
            {
              "internalType": "address",
              "name": "claimer",
              "type": "address"
            },
            {
              "internalType": "uint32",
              "name": "timestamp",
              "type": "uint32"
            },
            {
              "internalType": "uint32",
              "name": "blocknumber",
              "type": "uint32"
            },
            {
              "internalType": "enum IVeaOutboxArbToGnosis.Party",
              "name": "honest",
              "type": "uint8"
            },
            {
              "internalType": "address",
              "name": "challenger",
              "type": "address"
            }
          ],
          "internalType": "struct IVeaOutboxArbToGnosis.Claim",
          "name": "claim",
          "type": "tuple"
        }
      ],
      "name": "sendSnapshot",
      "outputs": [],
      "stateMutability": "nonpayable",
      "type": "function"
    },
    {
      "inputs": [
        {
          "internalType": "uint256",
          "name": "",
          "type": "uint256"
        }
      ],
      "name": "snapshots",
      "outputs": [
        {
          "internalType": "bytes32",
          "name": "",
          "type": "bytes32"
        }
      ],
      "stateMutability": "view",
      "type": "function"
    }
  ],
  "transactionHash": "0x89571e634f4eb53d4bb88e14521ecef626429e8d0ffb7b7e15fb5ef56190db61",
  "args": [
    1800,
    "0xAb53e341121448Ae259Da8fa17f216Cb0e21199C"
  ],
  "numDeployments": 4,
  "solcInputHash": "6bafce90403631c706636ec1990fe392",
  "bytecode": "0x60c060405234801561001057600080fd5b50604051610afa380380610afa83398101604081905261002f91610046565b6080919091526001600160a01b031660a052610083565b6000806040838503121561005957600080fd5b825160208401519092506001600160a01b038116811461007857600080fd5b809150509250929050565b60805160a051610a3e6100bc60003960008181610151015261050501526000818160e40152818161019001526104120152610a3e6000f3fe608060405234801561001057600080fd5b50600436106100885760003560e01c8063d6565a2d1161005b578063d6565a2d14610106578063e149b5ec14610126578063e5a1c35614610139578063f887ea401461014c57600080fd5b806306661abd1461008d57806351920535146100a95780635f85896c146100b3578063b5b7a184146100df575b600080fd5b61009660415481565b6040519081526020015b60405180910390f35b6100b161018b565b005b6100c66100c1366004610687565b610305565b60405167ffffffffffffffff90911681526020016100a0565b6100967f000000000000000000000000000000000000000000000000000000000000000081565b61009661011436600461074c565b60006020819052908152604090205481565b6100b1610134366004610779565b610410565b61009661014736600461074c565b6105b0565b6101737f000000000000000000000000000000000000000000000000000000000000000081565b6040516001600160a01b0390911681526020016100a0565b6000807f000000000000000000000000000000000000000000000000000000000000000042816101bd576101bd610819565b04600081815260208190526040902054909250156102315760405162461bcd60e51b815260206004820152602660248201527f536e617073686f7420616c72656164792074616b656e20666f7220746869732060448201526532b837b1b41760d11b60648201526084015b60405180910390fd5b6041546000905b80156102715780600116600103610265576001826040811061025c5761025c61082f565b01549250610271565b6001918201911c610238565b60011c5b80156102b95760019182019181811690036102b15760006001836040811061029f5761029f61082f565b015490506102ad81856105c7565b9350505b60011c610275565b50506000828152602081815260409182902083905560415491519182527f8f135def7efb043b292bb76e48b3dd0b59bbe7e1e303862404cd8cc1c36ac3bf910160405180910390a15050565b6041546040516000919082908290879061032790889033908990602001610869565b60408051601f198184030181529082905261034693929160200161089f565b60408051601f1981840301815291905280516020808301919091206000908152908120919250600184015b806001166000036103ae576000600183604081106103915761039161082f565b0154905061039f81856105c7565b9350506001918201911c610371565b5081600182604081106103c3576103c361082f565b015550600183016041556040517f8c5261668696ce22758910d05bab8f186d6eb247ceac2af2e82c7dc17669b036906103fd90849061091a565b60405180910390a1509095945050505050565b7f0000000000000000000000000000000000000000000000000000000000000000428161043f5761043f610819565b0482106104995760405162461bcd60e51b815260206004820152602260248201527f43616e206f6e6c792073656e6420706173742065706f636820736e617073686f6044820152613a1760f11b6064820152608401610228565b6000828152602081905260408082205490516104bb9185918590602401610934565b60408051601f198184030181529181526020820180516001600160e01b031663b9457b0760e01b179052516349460b4d60e11b815290915060009060649063928c169a9061052f907f00000000000000000000000000000000000000000000000000000000000000009086906004016109c3565b6020604051808303816000875af115801561054e573d6000803e3d6000fd5b505050506040513d601f19601f8201168201806040525081019061057291906109ef565b60405181815290915084907f6fdd49f435101fc7b6ebdec7c8972932a926d18f6cb78a8891dfe950743b6b829060200160405180910390a250505050565b600181604081106105c057600080fd5b0154905081565b6000818311156105e5578160005282602052604060002090506105f5565b8260005281602052604060002090505b92915050565b80356001600160a01b038116811461061257600080fd5b919050565b634e487b7160e01b600052604160045260246000fd5b60405160c0810167ffffffffffffffff8111828210171561065057610650610617565b60405290565b604051601f8201601f1916810167ffffffffffffffff8111828210171561067f5761067f610617565b604052919050565b60008060006060848603121561069c57600080fd5b6106a5846105fb565b92506020848101356001600160e01b0319811681146106c357600080fd5b9250604085013567ffffffffffffffff808211156106e057600080fd5b818701915087601f8301126106f457600080fd5b81358181111561070657610706610617565b610718601f8201601f19168501610656565b9150808252888482850101111561072e57600080fd5b80848401858401376000848284010152508093505050509250925092565b60006020828403121561075e57600080fd5b5035919050565b803563ffffffff8116811461061257600080fd5b60008082840360e081121561078d57600080fd5b8335925060c0601f19820112156107a357600080fd5b506107ac61062d565b602084013581526107bf604085016105fb565b60208201526107d060608501610765565b60408201526107e160808501610765565b606082015260a0840135600381106107f857600080fd5b608082015261080960c085016105fb565b60a0820152809150509250929050565b634e487b7160e01b600052601260045260246000fd5b634e487b7160e01b600052603260045260246000fd5b60005b83811015610860578181015183820152602001610848565b50506000910152565b63ffffffff60e01b8416815282600482015260008251610890816024850160208701610845565b91909101602401949350505050565b67ffffffffffffffff60c01b8460c01b1681526bffffffffffffffffffffffff198360601b166008820152600082516108df81601c850160208701610845565b91909101601c01949350505050565b60008151808452610906816020860160208601610845565b601f01601f19169290920160200192915050565b60208152600061092d60208301846108ee565b9392505050565b6000610100820190508482528360208301528251604083015260018060a01b036020840151166060830152604083015163ffffffff80821660808501528060608601511660a085015250506080830151600381106109a257634e487b7160e01b600052602160045260246000fd5b60c083015260a092909201516001600160a01b031660e09091015292915050565b6001600160a01b03831681526040602082018190526000906109e7908301846108ee565b949350505050565b600060208284031215610a0157600080fd5b505191905056fea26469706673582212200643703ee9c0807fffeba15f6e9b52387d153d11895dd38131d9edcd2b52e70e64736f6c63430008120033",
  "devdoc": {
    "events": {
      "MessageSent(bytes)": {
        "details": "Relayers watch for these events to construct merkle proofs to execute transactions on Ethereum.",
        "params": {
          "nodeData": "The data to create leaves in the merkle tree. abi.encodePacked(msgId, to, data), outbox relays to.call(data)"
        }
      },
      "SnapshotSaved(uint256)": {
        "params": {
          "count": "The count of messages in the merkle tree"
        }
      },
      "SnapshotSent(uint256,bytes32)": {
        "details": "The event is emitted when a snapshot through the canonical arbiturm bridge.",
        "params": {
          "epochSent": "The epoch of the snapshot.",
          "ticketId": "The ticketId of the L2->L1 message."
        }
      }
    },
    "kind": "dev",
    "methods": {
      "constructor": {
        "details": "Constructor.",
        "params": {
          "_epochPeriod": "The duration in seconds between epochs.",
          "_router": "The router on ethereum."
        }
      },
      "saveSnapshot()": {
        "details": "Snapshots can be saved a maximum of once per epoch."
      },
      "sendMessage(address,bytes4,bytes)": {
        "details": "Sends an arbitrary message to a receiving chain. `O(log(count))` where count is the number of messages already sent. Note: Amortized cost is O(1).",
        "params": {
          "data": "The message calldata, abi.encode(param1, param2, ...)",
          "fnSelector": "The function selector of the receiving contract.",
          "to": "The address of the contract on the receiving chain which receives the calldata."
        },
        "returns": {
          "_0": "msgId The zero based index of the message in the inbox."
        }
      },
      "sendSnapshot(uint256,(bytes32,address,uint32,uint32,uint8,address))": {
        "details": "Sends the state root snapshot using Arbitrum's canonical bridge.",
        "params": {
          "epochSend": "The epoch of the snapshot requested to send."
        }
      }
    },
    "version": 1
  },
  "userdoc": {
    "events": {
      "SnapshotSaved(uint256)": {
        "notice": "The bridgers can watch this event to claim the stateRoot on the veaOutbox."
      }
    },
    "kind": "user",
    "methods": {
      "saveSnapshot()": {
        "notice": "Saves snapshot of state root. `O(log(count))` where count number of messages in the inbox."
      }
    },
    "notice": "Vea Bridge Inbox From Arbitrum to Gnosis.",
    "version": 1
  },
  "storageLayout": {
    "storage": [
      {
        "astId": 455,
        "contract": "src/arbitrumToGnosis/VeaInboxArbToGnosis.sol:VeaInboxArbToGnosis",
        "label": "snapshots",
        "offset": 0,
        "slot": "0",
        "type": "t_mapping(t_uint256,t_bytes32)"
      },
      {
        "astId": 459,
        "contract": "src/arbitrumToGnosis/VeaInboxArbToGnosis.sol:VeaInboxArbToGnosis",
        "label": "inbox",
        "offset": 0,
        "slot": "1",
        "type": "t_array(t_bytes32)64_storage"
      },
      {
        "astId": 461,
        "contract": "src/arbitrumToGnosis/VeaInboxArbToGnosis.sol:VeaInboxArbToGnosis",
        "label": "count",
        "offset": 0,
        "slot": "65",
        "type": "t_uint256"
      }
    ],
    "types": {
      "t_array(t_bytes32)64_storage": {
        "base": "t_bytes32",
        "encoding": "inplace",
        "label": "bytes32[64]",
        "numberOfBytes": "2048"
      },
      "t_bytes32": {
        "encoding": "inplace",
        "label": "bytes32",
        "numberOfBytes": "32"
      },
      "t_mapping(t_uint256,t_bytes32)": {
        "encoding": "mapping",
        "key": "t_uint256",
        "label": "mapping(uint256 => bytes32)",
        "numberOfBytes": "32",
        "value": "t_bytes32"
      },
      "t_uint256": {
        "encoding": "inplace",
        "label": "uint256",
        "numberOfBytes": "32"
      }
    }
  }
}