{
  "address": "0xD2d4174A971b2AE58F23F7d4F5e4DE9d97bDda31",
  "abi": [
    {
      "inputs": [
        {
          "internalType": "uint256",
          "name": "_epochPeriod",
          "type": "uint256"
        },
        {
          "internalType": "address",
          "name": "_veaOutbox",
          "type": "address"
        }
      ],
      "stateMutability": "nonpayable",
      "type": "constructor"
    },
    {
      "anonymous": false,
      "inputs": [
        {
          "indexed": false,
          "internalType": "bytes32",
          "name": "ticketId",
          "type": "bytes32"
        }
      ],
      "name": "Hearbeat",
      "type": "event"
    },
    {
      "anonymous": false,
      "inputs": [
        {
          "indexed": false,
          "internalType": "bytes",
          "name": "nodeData",
          "type": "bytes"
        }
      ],
      "name": "MessageSent",
      "type": "event"
    },
    {
      "anonymous": false,
      "inputs": [
        {
          "indexed": false,
          "internalType": "bytes32",
          "name": "stateRoot",
          "type": "bytes32"
        }
      ],
      "name": "SnapshotSaved",
      "type": "event"
    },
    {
      "anonymous": false,
      "inputs": [
        {
          "indexed": false,
          "internalType": "uint256",
          "name": "epochSent",
          "type": "uint256"
        },
        {
          "indexed": false,
          "internalType": "bytes32",
          "name": "ticketId",
          "type": "bytes32"
        }
      ],
      "name": "SnapshotSent",
      "type": "event"
    },
    {
      "inputs": [],
      "name": "ARB_SYS",
      "outputs": [
        {
          "internalType": "contract IArbSys",
          "name": "",
          "type": "address"
        }
      ],
      "stateMutability": "view",
      "type": "function"
    },
    {
      "inputs": [],
      "name": "count",
      "outputs": [
        {
          "internalType": "uint256",
          "name": "",
          "type": "uint256"
        }
      ],
      "stateMutability": "view",
      "type": "function"
    },
    {
      "inputs": [],
      "name": "epochPeriod",
      "outputs": [
        {
          "internalType": "uint256",
          "name": "",
          "type": "uint256"
        }
      ],
      "stateMutability": "view",
      "type": "function"
    },
    {
      "inputs": [
        {
          "internalType": "uint256",
          "name": "",
          "type": "uint256"
        }
      ],
      "name": "inbox",
      "outputs": [
        {
          "internalType": "bytes32",
          "name": "",
          "type": "bytes32"
        }
      ],
      "stateMutability": "view",
      "type": "function"
    },
    {
      "inputs": [],
      "name": "saveSnapshot",
      "outputs": [],
      "stateMutability": "nonpayable",
      "type": "function"
    },
    {
      "inputs": [],
      "name": "sendHeartbeat",
      "outputs": [],
      "stateMutability": "nonpayable",
      "type": "function"
    },
    {
      "inputs": [
        {
          "internalType": "address",
          "name": "to",
          "type": "address"
        },
        {
          "internalType": "bytes4",
          "name": "fnSelector",
          "type": "bytes4"
        },
        {
          "internalType": "bytes",
          "name": "data",
          "type": "bytes"
        }
      ],
      "name": "sendMessage",
      "outputs": [
        {
          "internalType": "uint64",
          "name": "",
          "type": "uint64"
        }
      ],
      "stateMutability": "nonpayable",
      "type": "function"
    },
    {
      "inputs": [
        {
          "internalType": "uint256",
          "name": "epochSend",
          "type": "uint256"
        }
      ],
      "name": "sendSnapshot",
      "outputs": [],
      "stateMutability": "nonpayable",
      "type": "function"
    },
    {
      "inputs": [
        {
          "internalType": "uint256",
          "name": "",
          "type": "uint256"
        }
      ],
      "name": "snapshots",
      "outputs": [
        {
          "internalType": "bytes32",
          "name": "",
          "type": "bytes32"
        }
      ],
      "stateMutability": "view",
      "type": "function"
    },
    {
      "inputs": [],
      "name": "veaOutbox",
      "outputs": [
        {
          "internalType": "address",
          "name": "",
          "type": "address"
        }
      ],
      "stateMutability": "view",
      "type": "function"
    }
  ],
  "transactionHash": "0x7be45140af5e524b5d5e5689a269dcd943e05860ee7a95d61b31303d9e14361b",
  "args": [
    1800,
    "0xD035Ccf1FC71A879d9F6E10215c5297489A40B46"
  ],
  "numDeployments": 6,
  "solcInputHash": "7288317c3bc8f4d045a3a350975e8d5d",
  "bytecode": "0x60c060405234801561001057600080fd5b50604051610abb380380610abb83398101604081905261002f91610046565b6080919091526001600160a01b031660a052610083565b6000806040838503121561005957600080fd5b825160208401519092506001600160a01b038116811461007857600080fd5b809150509250929050565b60805160a0516109f76100c46000396000818161017c01528181610208015261062e015260008181610115015281816102c4015261053c01526109f76000f3fe608060405234801561001057600080fd5b506004361061009e5760003560e01c8063b5b7a18411610066578063b5b7a18414610110578063bd8e62d614610137578063d6565a2d14610157578063dea580b914610177578063e5a1c3561461019e57600080fd5b806306661abd146100a357806334f167a9146100bf57806351920535146100c95780635f85896c146100d1578063a20ff9a9146100fd575b600080fd5b6100ac60415481565b6040519081526020015b60405180910390f35b6100c76101b1565b005b6100c76102bf565b6100e46100df36600461074d565b610430565b60405167ffffffffffffffff90911681526020016100b6565b6100c761010b36600461083c565b610538565b6100ac7f000000000000000000000000000000000000000000000000000000000000000081565b61013f606481565b6040516001600160a01b0390911681526020016100b6565b6100ac61016536600461083c565b60006020819052908152604090205481565b61013f7f000000000000000000000000000000000000000000000000000000000000000081565b6100ac6101ac36600461083c565b6106ec565b604080514260248083019190915282518083039091018152604490910182526020810180516001600160e01b0316636e029ad160e01b17905290516349460b4d60e11b815260009060649063928c169a90610232907f00000000000000000000000000000000000000000000000000000000000000009086906004016108b1565b602060405180830381600087803b15801561024c57600080fd5b505af1158015610260573d6000803e3d6000fd5b505050506040513d601f19601f8201168201806040525081019061028491906108dd565b6040518181529091507fb40bf63a4518992f5a0a4a697b290c0e81b27e80a6ef9b6b93bb4562d175d525906020015b60405180910390a15050565b6000807f000000000000000000000000000000000000000000000000000000000000000042816102f1576102f16108f6565b04600081815260208190526040902054909250156103655760405162461bcd60e51b815260206004820152602660248201527f536e617073686f7420616c72656164792074616b656e20666f7220746869732060448201526532b837b1b41760d11b60648201526084015b60405180910390fd5b6041546000905b80156103a657806001166001141561039a57600182604081106103915761039161090c565b015492506103a6565b6001918201911c61036c565b60011c5b80156103ee5760019182019181811614156103e6576000600183604081106103d4576103d461090c565b015490506103e28185610703565b9350505b60011c6103aa565b50506000828152602081815260409182902083905590518281527fe2575fb4918b751e87678399a67d4620181db89929f52fdaaf6a25e5b235f89891016102b3565b6041546040516000919082908290879061045290889033908990602001610922565b60408051601f1981840301815290829052610471939291602001610958565b60408051601f1981840301815291905280516020808301919091206000908152908120919250600184015b600181166104d6576000600183604081106104b9576104b961090c565b015490506104c78185610703565b9350506001918201911c61049c565b5081600182604081106104eb576104eb61090c565b015550600183016041556040517f8c5261668696ce22758910d05bab8f186d6eb247ceac2af2e82c7dc17669b036906105259084906109a7565b60405180910390a1509095945050505050565b60007f00000000000000000000000000000000000000000000000000000000000000004281610569576105696108f6565b0490508082106105c65760405162461bcd60e51b815260206004820152602260248201527f43616e206f6e6c792073656e6420706173742065706f636820736e617073686f6044820152613a1760f11b606482015260840161035c565b60008281526020818152604080832054815160248101879052604480820192909252825180820390920182526064908101835292810180516001600160e01b0316631195d6f560e31b17905290516349460b4d60e11b81529092919063928c169a90610658907f00000000000000000000000000000000000000000000000000000000000000009086906004016108b1565b602060405180830381600087803b15801561067257600080fd5b505af1158015610686573d6000803e3d6000fd5b505050506040513d601f19601f820116820180604052508101906106aa91906108dd565b60408051868152602081018390529192507f6fdd49f435101fc7b6ebdec7c8972932a926d18f6cb78a8891dfe950743b6b82910160405180910390a150505050565b600181604081106106fc57600080fd5b0154905081565b60008183111561072157816000528260205260406000209050610731565b8260005281602052604060002090505b92915050565b634e487b7160e01b600052604160045260246000fd5b60008060006060848603121561076257600080fd5b83356001600160a01b038116811461077957600080fd5b925060208401356001600160e01b03198116811461079657600080fd5b9150604084013567ffffffffffffffff808211156107b357600080fd5b818601915086601f8301126107c757600080fd5b8135818111156107d9576107d9610737565b604051601f8201601f19908116603f0116810190838211818310171561080157610801610737565b8160405282815289602084870101111561081a57600080fd5b8260208601602083013760006020848301015280955050505050509250925092565b60006020828403121561084e57600080fd5b5035919050565b60005b83811015610870578181015183820152602001610858565b8381111561087f576000848401525b50505050565b6000815180845261089d816020860160208601610855565b601f01601f19169290920160200192915050565b6001600160a01b03831681526040602082018190526000906108d590830184610885565b949350505050565b6000602082840312156108ef57600080fd5b5051919050565b634e487b7160e01b600052601260045260246000fd5b634e487b7160e01b600052603260045260246000fd5b63ffffffff60e01b8416815282600482015260008251610949816024850160208701610855565b91909101602401949350505050565b67ffffffffffffffff60c01b8460c01b1681526bffffffffffffffffffffffff198360601b1660088201526000825161099881601c850160208701610855565b91909101601c01949350505050565b6020815260006109ba6020830184610885565b939250505056fea264697066735822122012714ba1a9391166fc4f90d6aab34ca36b5a37907df9db03af4298a56e37ab4b64736f6c63430008090033",
  "devdoc": {
    "events": {
      "Hearbeat(bytes32)": {
        "details": "The event is emitted when a heartbeat is sent.",
        "params": {
          "ticketId": "The ticketId of the L2->L1 message."
        }
      },
      "MessageSent(bytes)": {
        "details": "Relayers watch for these events to construct merkle proofs to execute transactions on Ethereum.",
        "params": {
          "nodeData": "The data to create leaves in the merkle tree. abi.encodePacked(msgId, to, data), outbox relays to.call(data)"
        }
      },
      "SnapshotSaved(bytes32)": {
        "params": {
          "stateRoot": "The receiving domain encoded message data."
        }
      },
      "SnapshotSent(uint256,bytes32)": {
        "details": "The event is emitted when a snapshot through the canonical arbiturm bridge.",
        "params": {
          "epochSent": "The epoch of the snapshot.",
          "ticketId": "The ticketId of the L2->L1 message."
        }
      }
    },
    "kind": "dev",
    "methods": {
      "constructor": {
        "details": "Constructor.",
        "params": {
          "_epochPeriod": "The duration in seconds between epochs.",
          "_veaOutbox": "The veaOutbox on ethereum."
        }
      },
      "saveSnapshot()": {
        "details": "Snapshots can be saved a maximum of once per epoch."
      },
      "sendHeartbeat()": {
        "details": "Sends heartbeat to VeaOutbox."
      },
      "sendMessage(address,bytes4,bytes)": {
        "details": "Sends an arbitrary message to a receiving chain.",
        "params": {
          "data": "The message calldata, abi.encode(param1, param2, ...)",
          "fnSelector": "The function selector of the receiving contract.",
          "to": "The address of the contract on the receiving chain which receives the calldata."
        },
        "returns": {
          "_0": "msgId The zero based index of the message in the inbox."
        }
      },
      "sendSnapshot(uint256)": {
        "details": "Sends the state root snapshot using Arbitrum's canonical bridge.",
        "params": {
          "epochSend": "The epoch of the snapshot requested to send."
        }
      }
    },
    "version": 1
  },
  "userdoc": {
    "events": {
      "SnapshotSaved(bytes32)": {
        "notice": "The bridgers watch this event to claim the stateRoot on the veaOutbox. The epoch (not emitted) is determined by block.timestamp / epochPeriod."
      }
    },
    "kind": "user",
    "methods": {
      "saveSnapshot()": {
        "notice": "Saves snapshot of state root."
      }
    },
    "notice": "Vea Bridge Inbox From Arbitrum to Ethereum.",
    "version": 1
  },
  "storageLayout": {
    "storage": [
      {
        "astId": 46,
        "contract": "src/ArbToEth/VeaInboxArbToEth.sol:VeaInboxArbToEth",
        "label": "snapshots",
        "offset": 0,
        "slot": "0",
        "type": "t_mapping(t_uint256,t_bytes32)"
      },
      {
        "astId": 50,
        "contract": "src/ArbToEth/VeaInboxArbToEth.sol:VeaInboxArbToEth",
        "label": "inbox",
        "offset": 0,
        "slot": "1",
        "type": "t_array(t_bytes32)64_storage"
      },
      {
        "astId": 52,
        "contract": "src/ArbToEth/VeaInboxArbToEth.sol:VeaInboxArbToEth",
        "label": "count",
        "offset": 0,
        "slot": "65",
        "type": "t_uint256"
      }
    ],
    "types": {
      "t_array(t_bytes32)64_storage": {
        "base": "t_bytes32",
        "encoding": "inplace",
        "label": "bytes32[64]",
        "numberOfBytes": "2048"
      },
      "t_bytes32": {
        "encoding": "inplace",
        "label": "bytes32",
        "numberOfBytes": "32"
      },
      "t_mapping(t_uint256,t_bytes32)": {
        "encoding": "mapping",
        "key": "t_uint256",
        "label": "mapping(uint256 => bytes32)",
        "numberOfBytes": "32",
        "value": "t_bytes32"
      },
      "t_uint256": {
        "encoding": "inplace",
        "label": "uint256",
        "numberOfBytes": "32"
      }
    }
  }
}