{
  "address": "0x3b894FE680deB990b4Fb7E7D0000C32Af06687C3",
  "abi": [
    {
      "inputs": [
        {
          "internalType": "uint256",
          "name": "_epochPeriod",
          "type": "uint256"
        },
        {
          "internalType": "address",
          "name": "_veaOutbox",
          "type": "address"
        }
      ],
      "stateMutability": "nonpayable",
      "type": "constructor"
    },
    {
      "anonymous": false,
      "inputs": [
        {
          "indexed": false,
          "internalType": "bytes",
          "name": "nodeData",
          "type": "bytes"
        }
      ],
      "name": "MessageSent",
      "type": "event"
    },
    {
      "anonymous": false,
      "inputs": [
        {
          "indexed": false,
          "internalType": "uint256",
          "name": "count",
          "type": "uint256"
        }
      ],
      "name": "SnapshotSaved",
      "type": "event"
    },
    {
      "anonymous": false,
      "inputs": [
        {
          "indexed": true,
          "internalType": "uint256",
          "name": "epochSent",
          "type": "uint256"
        },
        {
          "indexed": false,
          "internalType": "bytes32",
          "name": "ticketId",
          "type": "bytes32"
        }
      ],
      "name": "SnapshotSent",
      "type": "event"
    },
    {
      "inputs": [],
      "name": "ARB_SYS",
      "outputs": [
        {
          "internalType": "contract IArbSys",
          "name": "",
          "type": "address"
        }
      ],
      "stateMutability": "view",
      "type": "function"
    },
    {
      "inputs": [],
      "name": "count",
      "outputs": [
        {
          "internalType": "uint256",
          "name": "",
          "type": "uint256"
        }
      ],
      "stateMutability": "view",
      "type": "function"
    },
    {
      "inputs": [],
      "name": "epochPeriod",
      "outputs": [
        {
          "internalType": "uint256",
          "name": "",
          "type": "uint256"
        }
      ],
      "stateMutability": "view",
      "type": "function"
    },
    {
      "inputs": [
        {
          "internalType": "uint256",
          "name": "",
          "type": "uint256"
        }
      ],
      "name": "inbox",
      "outputs": [
        {
          "internalType": "bytes32",
          "name": "",
          "type": "bytes32"
        }
      ],
      "stateMutability": "view",
      "type": "function"
    },
    {
      "inputs": [],
      "name": "saveSnapshot",
      "outputs": [],
      "stateMutability": "nonpayable",
      "type": "function"
    },
    {
      "inputs": [
        {
          "internalType": "address",
          "name": "to",
          "type": "address"
        },
        {
          "internalType": "bytes4",
          "name": "fnSelector",
          "type": "bytes4"
        },
        {
          "internalType": "bytes",
          "name": "data",
          "type": "bytes"
        }
      ],
      "name": "sendMessage",
      "outputs": [
        {
          "internalType": "uint64",
          "name": "",
          "type": "uint64"
        }
      ],
      "stateMutability": "nonpayable",
      "type": "function"
    },
    {
      "inputs": [
        {
          "internalType": "uint256",
          "name": "epochSend",
          "type": "uint256"
        },
        {
          "components": [
            {
              "internalType": "bytes32",
              "name": "stateRoot",
              "type": "bytes32"
            },
            {
              "internalType": "address",
              "name": "claimer",
              "type": "address"
            },
            {
              "internalType": "uint32",
              "name": "timestamp",
              "type": "uint32"
            },
            {
              "internalType": "uint32",
              "name": "blocknumber",
              "type": "uint32"
            },
            {
              "internalType": "enum IVeaOutboxArbGoerliToGoerli.Party",
              "name": "honest",
              "type": "uint8"
            },
            {
              "internalType": "address",
              "name": "challenger",
              "type": "address"
            }
          ],
          "internalType": "struct IVeaOutboxArbGoerliToGoerli.Claim",
          "name": "claim",
          "type": "tuple"
        }
      ],
      "name": "sendSnapshot",
      "outputs": [],
      "stateMutability": "nonpayable",
      "type": "function"
    },
    {
      "inputs": [
        {
          "internalType": "uint256",
          "name": "",
          "type": "uint256"
        }
      ],
      "name": "snapshots",
      "outputs": [
        {
          "internalType": "bytes32",
          "name": "",
          "type": "bytes32"
        }
      ],
      "stateMutability": "view",
      "type": "function"
    },
    {
      "inputs": [],
      "name": "veaOutbox",
      "outputs": [
        {
          "internalType": "address",
          "name": "",
          "type": "address"
        }
      ],
      "stateMutability": "view",
      "type": "function"
    }
  ],
  "transactionHash": "0xffbab1ab0ef14e3d4325f92bb7052b9edc897aaaf09b30bef46b0fd2dafd0ade",
  "args": [
    3600,
    "0xAA0FA4fB781d8e17F3998291774601e06f2f27be"
  ],
  "numDeployments": 1,
  "solcInputHash": "c1bd9c1deff19ffeff78fee5cb8f2036",
  "bytecode": "0x60c060405234801561001057600080fd5b50604051610b0d380380610b0d83398101604081905261002f91610046565b6080919091526001600160a01b031660a052610083565b6000806040838503121561005957600080fd5b825160208401519092506001600160a01b038116811461007857600080fd5b809150509250929050565b60805160a051610a516100bc60003960008181610156015261051801526000818160ef015281816101a301526104250152610a516000f3fe608060405234801561001057600080fd5b50600436106100935760003560e01c8063bd8e62d611610066578063bd8e62d614610111578063d6565a2d14610131578063dea580b914610151578063e149b5ec14610178578063e5a1c3561461018b57600080fd5b806306661abd1461009857806351920535146100b45780635f85896c146100be578063b5b7a184146100ea575b600080fd5b6100a160415481565b6040519081526020015b60405180910390f35b6100bc61019e565b005b6100d16100cc36600461069a565b610318565b60405167ffffffffffffffff90911681526020016100ab565b6100a17f000000000000000000000000000000000000000000000000000000000000000081565b610119606481565b6040516001600160a01b0390911681526020016100ab565b6100a161013f36600461075f565b60006020819052908152604090205481565b6101197f000000000000000000000000000000000000000000000000000000000000000081565b6100bc61018636600461078c565b610423565b6100a161019936600461075f565b6105c3565b6000807f000000000000000000000000000000000000000000000000000000000000000042816101d0576101d061082c565b04600081815260208190526040902054909250156102445760405162461bcd60e51b815260206004820152602660248201527f536e617073686f7420616c72656164792074616b656e20666f7220746869732060448201526532b837b1b41760d11b60648201526084015b60405180910390fd5b6041546000905b80156102845780600116600103610278576001826040811061026f5761026f610842565b01549250610284565b6001918201911c61024b565b60011c5b80156102cc5760019182019181811690036102c4576000600183604081106102b2576102b2610842565b015490506102c081856105da565b9350505b60011c610288565b50506000828152602081815260409182902083905560415491519182527f8f135def7efb043b292bb76e48b3dd0b59bbe7e1e303862404cd8cc1c36ac3bf910160405180910390a15050565b6041546040516000919082908290879061033a9088903390899060200161087c565b60408051601f19818403018152908290526103599392916020016108b2565b60408051601f1981840301815291905280516020808301919091206000908152908120919250600184015b806001166000036103c1576000600183604081106103a4576103a4610842565b015490506103b281856105da565b9350506001918201911c610384565b5081600182604081106103d6576103d6610842565b015550600183016041556040517f8c5261668696ce22758910d05bab8f186d6eb247ceac2af2e82c7dc17669b0369061041090849061092d565b60405180910390a1509095945050505050565b7f000000000000000000000000000000000000000000000000000000000000000042816104525761045261082c565b0482106104ac5760405162461bcd60e51b815260206004820152602260248201527f43616e206f6e6c792073656e6420706173742065706f636820736e617073686f6044820152613a1760f11b606482015260840161023b565b6000828152602081905260408082205490516104ce9185918590602401610947565b60408051601f198184030181529181526020820180516001600160e01b0316631ee9e40360e21b179052516349460b4d60e11b815290915060009060649063928c169a90610542907f00000000000000000000000000000000000000000000000000000000000000009086906004016109d6565b6020604051808303816000875af1158015610561573d6000803e3d6000fd5b505050506040513d601f19601f820116820180604052508101906105859190610a02565b60405181815290915084907f6fdd49f435101fc7b6ebdec7c8972932a926d18f6cb78a8891dfe950743b6b829060200160405180910390a250505050565b600181604081106105d357600080fd5b0154905081565b6000818311156105f857816000528260205260406000209050610608565b8260005281602052604060002090505b92915050565b80356001600160a01b038116811461062557600080fd5b919050565b634e487b7160e01b600052604160045260246000fd5b60405160c0810167ffffffffffffffff811182821017156106635761066361062a565b60405290565b604051601f8201601f1916810167ffffffffffffffff811182821017156106925761069261062a565b604052919050565b6000806000606084860312156106af57600080fd5b6106b88461060e565b92506020848101356001600160e01b0319811681146106d657600080fd5b9250604085013567ffffffffffffffff808211156106f357600080fd5b818701915087601f83011261070757600080fd5b8135818111156107195761071961062a565b61072b601f8201601f19168501610669565b9150808252888482850101111561074157600080fd5b80848401858401376000848284010152508093505050509250925092565b60006020828403121561077157600080fd5b5035919050565b803563ffffffff8116811461062557600080fd5b60008082840360e08112156107a057600080fd5b8335925060c0601f19820112156107b657600080fd5b506107bf610640565b602084013581526107d26040850161060e565b60208201526107e360608501610778565b60408201526107f460808501610778565b606082015260a08401356003811061080b57600080fd5b608082015261081c60c0850161060e565b60a0820152809150509250929050565b634e487b7160e01b600052601260045260246000fd5b634e487b7160e01b600052603260045260246000fd5b60005b8381101561087357818101518382015260200161085b565b50506000910152565b63ffffffff60e01b84168152826004820152600082516108a3816024850160208701610858565b91909101602401949350505050565b67ffffffffffffffff60c01b8460c01b1681526bffffffffffffffffffffffff198360601b166008820152600082516108f281601c850160208701610858565b91909101601c01949350505050565b60008151808452610919816020860160208601610858565b601f01601f19169290920160200192915050565b6020815260006109406020830184610901565b9392505050565b6000610100820190508482528360208301528251604083015260018060a01b036020840151166060830152604083015163ffffffff80821660808501528060608601511660a085015250506080830151600381106109b557634e487b7160e01b600052602160045260246000fd5b60c083015260a092909201516001600160a01b031660e09091015292915050565b6001600160a01b03831681526040602082018190526000906109fa90830184610901565b949350505050565b600060208284031215610a1457600080fd5b505191905056fea2646970667358221220305dfa33892ab712e397f42a828052339ea687a0da439ae5724198526dc56b1564736f6c63430008120033",
  "devdoc": {
    "events": {
      "MessageSent(bytes)": {
        "details": "Relayers watch for these events to construct merkle proofs to execute transactions on Ethereum.",
        "params": {
          "nodeData": "The data to create leaves in the merkle tree. abi.encodePacked(msgId, to, data), outbox relays to.call(data)"
        }
      },
      "SnapshotSaved(uint256)": {
        "params": {
          "count": "The count of messages in the merkle tree"
        }
      },
      "SnapshotSent(uint256,bytes32)": {
        "details": "The event is emitted when a snapshot through the canonical arbiturm bridge.",
        "params": {
          "epochSent": "The epoch of the snapshot.",
          "ticketId": "The ticketId of the L2->L1 message."
        }
      }
    },
    "kind": "dev",
    "methods": {
      "constructor": {
        "details": "Constructor.",
        "params": {
          "_epochPeriod": "The duration in seconds between epochs.",
          "_veaOutbox": "The veaOutbox on ethereum."
        }
      },
      "saveSnapshot()": {
        "details": "Snapshots can be saved a maximum of once per epoch."
      },
      "sendMessage(address,bytes4,bytes)": {
        "details": "Sends an arbitrary message to a receiving chain. `O(log(count))` where count is the number of messages already sent. Note: Amortized cost is O(1).",
        "params": {
          "data": "The message calldata, abi.encode(param1, param2, ...)",
          "fnSelector": "The function selector of the receiving contract.",
          "to": "The address of the contract on the receiving chain which receives the calldata."
        },
        "returns": {
          "_0": "msgId The zero based index of the message in the inbox."
        }
      },
      "sendSnapshot(uint256,(bytes32,address,uint32,uint32,uint8,address))": {
        "details": "Sends the state root snapshot using Arbitrum's canonical bridge.",
        "params": {
          "epochSend": "The epoch of the snapshot requested to send."
        }
      }
    },
    "version": 1
  },
  "userdoc": {
    "events": {
      "SnapshotSaved(uint256)": {
        "notice": "The bridgers can watch this event to claim the stateRoot on the veaOutbox."
      }
    },
    "kind": "user",
    "methods": {
      "saveSnapshot()": {
        "notice": "Saves snapshot of state root. `O(log(count))` where count number of messages in the inbox."
      }
    },
    "notice": "Vea Bridge Inbox From Arbitrum to Ethereum.",
    "version": 1
  },
  "storageLayout": {
    "storage": [
      {
        "astId": 9080,
        "contract": "src/testnets/arbitrumGoerliToGoerli/VeaInboxArbGoerliToGoerli.sol:VeaInboxArbGoerliToGoerli",
        "label": "snapshots",
        "offset": 0,
        "slot": "0",
        "type": "t_mapping(t_uint256,t_bytes32)"
      },
      {
        "astId": 9084,
        "contract": "src/testnets/arbitrumGoerliToGoerli/VeaInboxArbGoerliToGoerli.sol:VeaInboxArbGoerliToGoerli",
        "label": "inbox",
        "offset": 0,
        "slot": "1",
        "type": "t_array(t_bytes32)64_storage"
      },
      {
        "astId": 9086,
        "contract": "src/testnets/arbitrumGoerliToGoerli/VeaInboxArbGoerliToGoerli.sol:VeaInboxArbGoerliToGoerli",
        "label": "count",
        "offset": 0,
        "slot": "65",
        "type": "t_uint256"
      }
    ],
    "types": {
      "t_array(t_bytes32)64_storage": {
        "base": "t_bytes32",
        "encoding": "inplace",
        "label": "bytes32[64]",
        "numberOfBytes": "2048"
      },
      "t_bytes32": {
        "encoding": "inplace",
        "label": "bytes32",
        "numberOfBytes": "32"
      },
      "t_mapping(t_uint256,t_bytes32)": {
        "encoding": "mapping",
        "key": "t_uint256",
        "label": "mapping(uint256 => bytes32)",
        "numberOfBytes": "32",
        "value": "t_bytes32"
      },
      "t_uint256": {
        "encoding": "inplace",
        "label": "uint256",
        "numberOfBytes": "32"
      }
    }
  }
}