{
  "address": "0xb7d2C76641B21718cC8A0b595be438c863A6e031",
  "abi": [
    {
      "inputs": [
        {
          "internalType": "uint256",
          "name": "_epochPeriod",
          "type": "uint256"
        },
        {
          "internalType": "address",
          "name": "_veaOutboxArbToEth",
          "type": "address"
        }
      ],
      "stateMutability": "nonpayable",
      "type": "constructor"
    },
    {
      "anonymous": false,
      "inputs": [
        {
          "indexed": false,
          "internalType": "bytes",
          "name": "_nodeData",
          "type": "bytes"
        }
      ],
      "name": "MessageSent",
      "type": "event"
    },
    {
      "anonymous": false,
      "inputs": [
        {
          "indexed": false,
          "internalType": "bytes32",
          "name": "_snapshot",
          "type": "bytes32"
        },
        {
          "indexed": false,
          "internalType": "uint256",
          "name": "_epoch",
          "type": "uint256"
        },
        {
          "indexed": false,
          "internalType": "uint64",
          "name": "_count",
          "type": "uint64"
        }
      ],
      "name": "SnapshotSaved",
      "type": "event"
    },
    {
      "anonymous": false,
      "inputs": [
        {
          "indexed": true,
          "internalType": "uint256",
          "name": "_epochSent",
          "type": "uint256"
        },
        {
          "indexed": false,
          "internalType": "bytes32",
          "name": "_ticketId",
          "type": "bytes32"
        }
      ],
      "name": "SnapshotSent",
      "type": "event"
    },
    {
      "inputs": [],
      "name": "count",
      "outputs": [
        {
          "internalType": "uint64",
          "name": "",
          "type": "uint64"
        }
      ],
      "stateMutability": "view",
      "type": "function"
    },
    {
      "inputs": [
        {
          "internalType": "uint256",
          "name": "_timestamp",
          "type": "uint256"
        }
      ],
      "name": "epochAt",
      "outputs": [
        {
          "internalType": "uint256",
          "name": "epoch",
          "type": "uint256"
        }
      ],
      "stateMutability": "view",
      "type": "function"
    },
    {
      "inputs": [],
      "name": "epochNow",
      "outputs": [
        {
          "internalType": "uint256",
          "name": "epoch",
          "type": "uint256"
        }
      ],
      "stateMutability": "view",
      "type": "function"
    },
    {
      "inputs": [],
      "name": "epochPeriod",
      "outputs": [
        {
          "internalType": "uint256",
          "name": "",
          "type": "uint256"
        }
      ],
      "stateMutability": "view",
      "type": "function"
    },
    {
      "inputs": [
        {
          "internalType": "uint256",
          "name": "",
          "type": "uint256"
        }
      ],
      "name": "inbox",
      "outputs": [
        {
          "internalType": "bytes32",
          "name": "",
          "type": "bytes32"
        }
      ],
      "stateMutability": "view",
      "type": "function"
    },
    {
      "inputs": [],
      "name": "saveSnapshot",
      "outputs": [],
      "stateMutability": "nonpayable",
      "type": "function"
    },
    {
      "inputs": [
        {
          "internalType": "address",
          "name": "_to",
          "type": "address"
        },
        {
          "internalType": "bytes4",
          "name": "_fnSelector",
          "type": "bytes4"
        },
        {
          "internalType": "bytes",
          "name": "_data",
          "type": "bytes"
        }
      ],
      "name": "sendMessage",
      "outputs": [
        {
          "internalType": "uint64",
          "name": "",
          "type": "uint64"
        }
      ],
      "stateMutability": "nonpayable",
      "type": "function"
    },
    {
      "inputs": [
        {
          "internalType": "uint256",
          "name": "_epoch",
          "type": "uint256"
        },
        {
          "components": [
            {
              "internalType": "bytes32",
              "name": "stateRoot",
              "type": "bytes32"
            },
            {
              "internalType": "address",
              "name": "claimer",
              "type": "address"
            },
            {
              "internalType": "uint32",
              "name": "timestampClaimed",
              "type": "uint32"
            },
            {
              "internalType": "uint32",
              "name": "timestampVerification",
              "type": "uint32"
            },
            {
              "internalType": "uint32",
              "name": "blocknumberVerification",
              "type": "uint32"
            },
            {
              "internalType": "enum Party",
              "name": "honest",
              "type": "uint8"
            },
            {
              "internalType": "address",
              "name": "challenger",
              "type": "address"
            }
          ],
          "internalType": "struct Claim",
          "name": "_claim",
          "type": "tuple"
        }
      ],
      "name": "sendSnapshot",
      "outputs": [],
      "stateMutability": "nonpayable",
      "type": "function"
    },
    {
      "inputs": [
        {
          "internalType": "uint256",
          "name": "",
          "type": "uint256"
        }
      ],
      "name": "snapshots",
      "outputs": [
        {
          "internalType": "bytes32",
          "name": "",
          "type": "bytes32"
        }
      ],
      "stateMutability": "view",
      "type": "function"
    },
    {
      "inputs": [],
      "name": "veaOutboxArbToEth",
      "outputs": [
        {
          "internalType": "address",
          "name": "",
          "type": "address"
        }
      ],
      "stateMutability": "view",
      "type": "function"
    }
  ],
  "transactionHash": "0x621ce6c91a841c5f53081f66d2317b777fa769bb1eb7834b0a12aaa623555a8b",
  "args": [
    7200,
    "0x6dfc228652A6eE943eA37c269E2602BF2e198Ae9"
  ],
  "numDeployments": 7,
  "solcInputHash": "c91b42918e7adbbdde95879afcf70ba7",
  "bytecode": "0x60c060405234801561001057600080fd5b50604051610bf6380380610bf683398101604081905261002f91610046565b6080919091526001600160a01b031660a052610083565b6000806040838503121561005957600080fd5b825160208401519092506001600160a01b038116811461007857600080fd5b809150509250929050565b60805160a051610b2b6100cb6000396000818161012001526105b401526000818161015f015281816101ce015281816101ff0152818161022f01526104c10152610b2b6000f3fe608060405234801561001057600080fd5b506004361061009e5760003560e01c8063744b49bf11610066578063744b49bf1461011b578063b5b7a1841461015a578063c705e41214610181578063d6565a2d14610194578063e5a1c356146101b457600080fd5b806306661abd146100a3578063222ae786146100d55780634a439cfe146100eb57806351920535146100fe5780635f85896c14610108575b600080fd5b6041546100b79067ffffffffffffffff1681565b60405167ffffffffffffffff90911681526020015b60405180910390f35b6100dd6101c7565b6040519081526020016100cc565b6100dd6100f93660046106a7565b6101f8565b61010661022a565b005b6100b761011636600461074c565b61034e565b6101427f000000000000000000000000000000000000000000000000000000000000000081565b6040516001600160a01b0390911681526020016100cc565b6100dd7f000000000000000000000000000000000000000000000000000000000000000081565b61010661018f366004610825565b6104bf565b6100dd6101a23660046106a7565b60006020819052908152604090205481565b6100dd6101c23660046106a7565b61065f565b60006101f37f0000000000000000000000000000000000000000000000000000000000000000426108ed565b905090565b60006102247f0000000000000000000000000000000000000000000000000000000000000000836108ed565b92915050565b6000807f0000000000000000000000000000000000000000000000000000000000000000428161025c5761025c6108d7565b604154919004925060009067ffffffffffffffff165b80156102ab578060011660010361029f57600182604081106102965761029661090f565b015492506102ab565b6001918201911c610272565b60011c5b80156102ed5760019182019181811690036102e5576102e2600183604081106102da576102da61090f565b015484610676565b92505b60011c6102af565b505060008281526020818152604091829020839055604154825184815291820185905267ffffffffffffffff168183015290517f592424eb1d6135501bd20833f15fd127c29d08eed4f03872f6f75182126b1e489181900360600190a15050565b60415460009067ffffffffffffffff9081169081106103a55760405162461bcd60e51b815260206004820152600e60248201526d24b73137bc1034b990333ab6361760911b60448201526064015b60405180910390fd5b604051600090829087906103c190889033908990602001610949565b60408051601f19818403018152908290526103e093929160200161097f565b60408051601f1981840301815291905280516020808301919091206000908152908120919250600184015b600181166000036104445761042c600183604081106102da576102da61090f565b92506001918201911c677fffffffffffffff1661040b565b5081600182604081106104595761045961090f565b0155506041805467ffffffffffffffff19166001850167ffffffffffffffff161790556040517f8c5261668696ce22758910d05bab8f186d6eb247ceac2af2e82c7dc17669b036906104ac9084906109fa565b60405180910390a1509095945050505050565b7f000000000000000000000000000000000000000000000000000000000000000042816104ee576104ee6108d7565b0482106105485760405162461bcd60e51b815260206004820152602260248201527f43616e206f6e6c792073656e6420706173742065706f636820736e617073686f6044820152613a1760f11b606482015260840161039c565b60008281526020819052604080822054905161056a9185918590602401610a14565b60408051601f198184030181529181526020820180516001600160e01b0316630f0adca560e01b179052516349460b4d60e11b815290915060009060649063928c169a906105de907f0000000000000000000000000000000000000000000000000000000000000000908690600401610ab0565b6020604051808303816000875af11580156105fd573d6000803e3d6000fd5b505050506040513d601f19601f820116820180604052508101906106219190610adc565b60405181815290915084907f6fdd49f435101fc7b6ebdec7c8972932a926d18f6cb78a8891dfe950743b6b829060200160405180910390a250505050565b6001816040811061066f57600080fd5b0154905081565b60008183101561069457826000528160205260406000209050610224565b5060009081526020919091526040902090565b6000602082840312156106b957600080fd5b5035919050565b80356001600160a01b03811681146106d757600080fd5b919050565b634e487b7160e01b600052604160045260246000fd5b60405160e0810167ffffffffffffffff81118282101715610715576107156106dc565b60405290565b604051601f8201601f1916810167ffffffffffffffff81118282101715610744576107446106dc565b604052919050565b60008060006060848603121561076157600080fd5b61076a846106c0565b92506020848101356001600160e01b03198116811461078857600080fd5b9250604085013567ffffffffffffffff808211156107a557600080fd5b818701915087601f8301126107b957600080fd5b8135818111156107cb576107cb6106dc565b6107dd601f8201601f1916850161071b565b915080825288848285010111156107f357600080fd5b80848401858401376000848284010152508093505050509250925092565b803563ffffffff811681146106d757600080fd5b60008082840361010081121561083a57600080fd5b8335925060e0601f198201121561085057600080fd5b506108596106f2565b6020840135815261086c604085016106c0565b602082015261087d60608501610811565b604082015261088e60808501610811565b606082015261089f60a08501610811565b608082015260c0840135600381106108b657600080fd5b60a08201526108c760e085016106c0565b60c0820152809150509250929050565b634e487b7160e01b600052601260045260246000fd5b60008261090a57634e487b7160e01b600052601260045260246000fd5b500490565b634e487b7160e01b600052603260045260246000fd5b60005b83811015610940578181015183820152602001610928565b50506000910152565b63ffffffff60e01b8416815282600482015260008251610970816024850160208701610925565b91909101602401949350505050565b67ffffffffffffffff60c01b8460c01b1681526bffffffffffffffffffffffff198360601b166008820152600082516109bf81601c850160208701610925565b91909101601c01949350505050565b600081518084526109e6816020860160208601610925565b601f01601f19169290920160200192915050565b602081526000610a0d60208301846109ce565b9392505050565b6000610120820190508482528360208301528251604083015260018060a01b036020840151166060830152604083015163ffffffff80821660808501528060608601511660a08501528060808601511660c0850152505060a083015160038110610a8e57634e487b7160e01b600052602160045260246000fd5b60e083015260c092909201516001600160a01b03166101009091015292915050565b6001600160a01b0383168152604060208201819052600090610ad4908301846109ce565b949350505050565b600060208284031215610aee57600080fd5b505191905056fea264697066735822122091c8e50a4eb68a04b97bfd09e6eedc0e624aaef5954f963f1f6df55f1f0da9cf64736f6c63430008120033",
  "devdoc": {
    "details": "Vea Inbox From Arbitrum to Ethereum. Note: This contract is deployed on Arbitrum.",
    "events": {
      "MessageSent(bytes)": {
        "details": "Relayers watch for these events to construct merkle proofs to execute transactions on Ethereum.",
        "params": {
          "_nodeData": "The data to create leaves in the merkle tree. abi.encodePacked(msgId, to, message), outbox relays to.call(message)."
        }
      },
      "SnapshotSaved(bytes32,uint256,uint64)": {
        "params": {
          "_count": "The count of messages in the merkle tree.",
          "_epoch": "The epoch of the snapshot.",
          "_snapshot": "The snapshot of the merkle tree state root."
        }
      },
      "SnapshotSent(uint256,bytes32)": {
        "details": "The event is emitted when a snapshot is sent through the canonical arbitrum bridge.",
        "params": {
          "_epochSent": "The epoch of the snapshot.",
          "_ticketId": "The ticketId of the L2->L1 message."
        }
      }
    },
    "kind": "dev",
    "methods": {
      "constructor": {
        "details": "Constructor. Note: epochPeriod must match the VeaOutboxArbToEth contract deployment on Ethereum, since it's on a different chain, we can't read it and trust the deployer to set a correct value",
        "params": {
          "_epochPeriod": "The duration in seconds between epochs.",
          "_veaOutboxArbToEth": "The veaOutbox on ethereum."
        }
      },
      "epochAt(uint256)": {
        "details": "Get the epoch from the inbox's point of view using timestamp.",
        "params": {
          "_timestamp": "The timestamp to calculate the epoch from."
        },
        "returns": {
          "epoch": "The calculated epoch."
        }
      },
      "epochNow()": {
        "details": "Get the current epoch from the inbox's point of view using the Arbitrum L2 clock.",
        "returns": {
          "epoch": "The epoch associated with the current inbox block.timestamp"
        }
      },
      "saveSnapshot()": {
        "details": "Saves snapshot of state root. Snapshots can be saved a maximum of once per epoch.      `O(log(count))` where count number of messages in the inbox. Note: See merkle tree docs for details how inbox manages state."
      },
      "sendMessage(address,bytes4,bytes)": {
        "details": "Sends an arbitrary message to Ethereum.      `O(log(count))` where count is the number of messages already sent.      Amortized cost is constant. Note: See docs for details how inbox manages merkle tree state.",
        "params": {
          "_data": "The message calldata, abi.encode(param1, param2, ...)",
          "_fnSelector": "The function selector of the receiving contract.",
          "_to": "The address of the contract on the receiving chain which receives the calldata."
        },
        "returns": {
          "_0": "msgId The zero based index of the message in the inbox."
        }
      },
      "sendSnapshot(uint256,(bytes32,address,uint32,uint32,uint32,uint8,address))": {
        "details": "Sends the state root snapshot using Arbitrum's canonical bridge.",
        "params": {
          "_claim": "The claim associated with the epoch.",
          "_epoch": "The epoch of the snapshot requested to send."
        }
      }
    },
    "version": 1
  },
  "userdoc": {
    "events": {
      "SnapshotSaved(bytes32,uint256,uint64)": {
        "notice": "The bridgers can watch this event to claim the stateRoot on the veaOutbox."
      }
    },
    "kind": "user",
    "methods": {},
    "version": 1
  },
  "storageLayout": {
    "storage": [
      {
        "astId": 24,
        "contract": "src/arbitrumToEth/VeaInboxArbToEth.sol:VeaInboxArbToEth",
        "label": "snapshots",
        "offset": 0,
        "slot": "0",
        "type": "t_mapping(t_uint256,t_bytes32)"
      },
      {
        "astId": 28,
        "contract": "src/arbitrumToEth/VeaInboxArbToEth.sol:VeaInboxArbToEth",
        "label": "inbox",
        "offset": 0,
        "slot": "1",
        "type": "t_array(t_bytes32)64_storage"
      },
      {
        "astId": 30,
        "contract": "src/arbitrumToEth/VeaInboxArbToEth.sol:VeaInboxArbToEth",
        "label": "count",
        "offset": 0,
        "slot": "65",
        "type": "t_uint64"
      }
    ],
    "types": {
      "t_array(t_bytes32)64_storage": {
        "base": "t_bytes32",
        "encoding": "inplace",
        "label": "bytes32[64]",
        "numberOfBytes": "2048"
      },
      "t_bytes32": {
        "encoding": "inplace",
        "label": "bytes32",
        "numberOfBytes": "32"
      },
      "t_mapping(t_uint256,t_bytes32)": {
        "encoding": "mapping",
        "key": "t_uint256",
        "label": "mapping(uint256 => bytes32)",
        "numberOfBytes": "32",
        "value": "t_bytes32"
      },
      "t_uint256": {
        "encoding": "inplace",
        "label": "uint256",
        "numberOfBytes": "32"
      },
      "t_uint64": {
        "encoding": "inplace",
        "label": "uint64",
        "numberOfBytes": "8"
      }
    }
  }
}