{
  "address": "0xb25BA694e53ed11Fa7E1AecA8CC640F85af5b436",
  "abi": [
    {
      "inputs": [
        {
          "internalType": "uint256",
          "name": "_epochPeriod",
          "type": "uint256"
        },
        {
          "internalType": "address",
          "name": "_veaOutbox",
          "type": "address"
        }
      ],
      "stateMutability": "nonpayable",
      "type": "constructor"
    },
    {
      "anonymous": false,
      "inputs": [
        {
          "indexed": false,
          "internalType": "bytes",
          "name": "nodeData",
          "type": "bytes"
        }
      ],
      "name": "MessageSent",
      "type": "event"
    },
    {
      "anonymous": false,
      "inputs": [
        {
          "indexed": false,
          "internalType": "uint256",
          "name": "count",
          "type": "uint256"
        }
      ],
      "name": "SnapshotSaved",
      "type": "event"
    },
    {
      "anonymous": false,
      "inputs": [
        {
          "indexed": true,
          "internalType": "uint256",
          "name": "epochSent",
          "type": "uint256"
        },
        {
          "indexed": false,
          "internalType": "bytes32",
          "name": "ticketId",
          "type": "bytes32"
        }
      ],
      "name": "SnapshotSent",
      "type": "event"
    },
    {
      "inputs": [],
      "name": "ARB_SYS",
      "outputs": [
        {
          "internalType": "contract IArbSys",
          "name": "",
          "type": "address"
        }
      ],
      "stateMutability": "view",
      "type": "function"
    },
    {
      "inputs": [],
      "name": "count",
      "outputs": [
        {
          "internalType": "uint256",
          "name": "",
          "type": "uint256"
        }
      ],
      "stateMutability": "view",
      "type": "function"
    },
    {
      "inputs": [],
      "name": "epochPeriod",
      "outputs": [
        {
          "internalType": "uint256",
          "name": "",
          "type": "uint256"
        }
      ],
      "stateMutability": "view",
      "type": "function"
    },
    {
      "inputs": [
        {
          "internalType": "uint256",
          "name": "",
          "type": "uint256"
        }
      ],
      "name": "inbox",
      "outputs": [
        {
          "internalType": "bytes32",
          "name": "",
          "type": "bytes32"
        }
      ],
      "stateMutability": "view",
      "type": "function"
    },
    {
      "inputs": [],
      "name": "saveSnapshot",
      "outputs": [],
      "stateMutability": "nonpayable",
      "type": "function"
    },
    {
      "inputs": [
        {
          "internalType": "address",
          "name": "to",
          "type": "address"
        },
        {
          "internalType": "bytes4",
          "name": "fnSelector",
          "type": "bytes4"
        },
        {
          "internalType": "bytes",
          "name": "data",
          "type": "bytes"
        }
      ],
      "name": "sendMessage",
      "outputs": [
        {
          "internalType": "uint64",
          "name": "",
          "type": "uint64"
        }
      ],
      "stateMutability": "nonpayable",
      "type": "function"
    },
    {
      "inputs": [
        {
          "internalType": "uint256",
          "name": "epochSend",
          "type": "uint256"
        },
        {
          "components": [
            {
              "internalType": "bytes32",
              "name": "stateRoot",
              "type": "bytes32"
            },
            {
              "internalType": "address",
              "name": "claimer",
              "type": "address"
            },
            {
              "internalType": "uint32",
              "name": "timestamp",
              "type": "uint32"
            },
            {
              "internalType": "uint32",
              "name": "blocknumber",
              "type": "uint32"
            },
            {
              "internalType": "enum IVeaOutboxArbToEth.Party",
              "name": "honest",
              "type": "uint8"
            },
            {
              "internalType": "address",
              "name": "challenger",
              "type": "address"
            }
          ],
          "internalType": "struct IVeaOutboxArbToEth.Claim",
          "name": "claim",
          "type": "tuple"
        }
      ],
      "name": "sendSnapshot",
      "outputs": [],
      "stateMutability": "nonpayable",
      "type": "function"
    },
    {
      "inputs": [
        {
          "internalType": "uint256",
          "name": "",
          "type": "uint256"
        }
      ],
      "name": "snapshots",
      "outputs": [
        {
          "internalType": "bytes32",
          "name": "",
          "type": "bytes32"
        }
      ],
      "stateMutability": "view",
      "type": "function"
    },
    {
      "inputs": [],
      "name": "veaOutbox",
      "outputs": [
        {
          "internalType": "address",
          "name": "",
          "type": "address"
        }
      ],
      "stateMutability": "view",
      "type": "function"
    }
  ],
  "transactionHash": "0x58d9fbae20cf0fc155d32919207406be98b233d4f50c2cf124b04b6db980521e",
  "args": [
    3600,
    "0xa8883c55ed13E1030552d25C24af47caDa5D5DF2"
  ],
  "numDeployments": 15,
  "solcInputHash": "235bc837d5f3ac1d5f8c695db980e85b",
  "bytecode": "0x60c060405234801561001057600080fd5b50604051610b39380380610b3983398101604081905261002f91610046565b6080919091526001600160a01b031660a052610083565b6000806040838503121561005957600080fd5b825160208401519092506001600160a01b038116811461007857600080fd5b809150509250929050565b60805160a051610a7d6100bc60003960008181610156015261052901526000818160ef015281816101a301526104230152610a7d6000f3fe608060405234801561001057600080fd5b50600436106100935760003560e01c8063bd8e62d611610066578063bd8e62d614610111578063d6565a2d14610131578063dea580b914610151578063e149b5ec14610178578063e5a1c3561461018b57600080fd5b806306661abd1461009857806351920535146100b45780635f85896c146100be578063b5b7a184146100ea575b600080fd5b6100a160415481565b6040519081526020015b60405180910390f35b6100bc61019e565b005b6100d16100cc3660046106ba565b610319565b60405167ffffffffffffffff90911681526020016100ab565b6100a17f000000000000000000000000000000000000000000000000000000000000000081565b610119606481565b6040516001600160a01b0390911681526020016100ab565b6100a161013f36600461077f565b60006020819052908152604090205481565b6101197f000000000000000000000000000000000000000000000000000000000000000081565b6100bc6101863660046107ac565b610421565b6100a161019936600461077f565b6105e3565b6000807f000000000000000000000000000000000000000000000000000000000000000042816101d0576101d061084c565b04600081815260208190526040902054909250156102445760405162461bcd60e51b815260206004820152602660248201527f536e617073686f7420616c72656164792074616b656e20666f7220746869732060448201526532b837b1b41760d11b60648201526084015b60405180910390fd5b6041546000905b8015610285578060011660011415610279576001826040811061027057610270610862565b01549250610285565b6001918201911c61024b565b60011c5b80156102cd5760019182019181811614156102c5576000600183604081106102b3576102b3610862565b015490506102c181856105fa565b9350505b60011c610289565b50506000828152602081815260409182902083905560415491519182527f8f135def7efb043b292bb76e48b3dd0b59bbe7e1e303862404cd8cc1c36ac3bf910160405180910390a15050565b6041546040516000919082908290879061033b908890339089906020016108a8565b60408051601f198184030181529082905261035a9392916020016108de565b60408051601f1981840301815291905280516020808301919091206000908152908120919250600184015b600181166103bf576000600183604081106103a2576103a2610862565b015490506103b081856105fa565b9350506001918201911c610385565b5081600182604081106103d4576103d4610862565b015550600183016041556040517f8c5261668696ce22758910d05bab8f186d6eb247ceac2af2e82c7dc17669b0369061040e908490610959565b60405180910390a1509095945050505050565b7f000000000000000000000000000000000000000000000000000000000000000042816104505761045061084c565b0482106104aa5760405162461bcd60e51b815260206004820152602260248201527f43616e206f6e6c792073656e6420706173742065706f636820736e617073686f6044820152613a1760f11b606482015260840161023b565b600082815260208190526040808220549051631ee9e40360e21b916104d6918691908690602401610973565b60408051601f198184030181529181526020820180516001600160e01b03166001600160e01b03199094169390931790925290516349460b4d60e11b815290915060009060649063928c169a90610553907f0000000000000000000000000000000000000000000000000000000000000000908690600401610a02565b602060405180830381600087803b15801561056d57600080fd5b505af1158015610581573d6000803e3d6000fd5b505050506040513d601f19601f820116820180604052508101906105a59190610a2e565b60405181815290915084907f6fdd49f435101fc7b6ebdec7c8972932a926d18f6cb78a8891dfe950743b6b829060200160405180910390a250505050565b600181604081106105f357600080fd5b0154905081565b60008183111561061857816000528260205260406000209050610628565b8260005281602052604060002090505b92915050565b80356001600160a01b038116811461064557600080fd5b919050565b634e487b7160e01b600052604160045260246000fd5b60405160c0810167ffffffffffffffff811182821017156106835761068361064a565b60405290565b604051601f8201601f1916810167ffffffffffffffff811182821017156106b2576106b261064a565b604052919050565b6000806000606084860312156106cf57600080fd5b6106d88461062e565b92506020848101356001600160e01b0319811681146106f657600080fd5b9250604085013567ffffffffffffffff8082111561071357600080fd5b818701915087601f83011261072757600080fd5b8135818111156107395761073961064a565b61074b601f8201601f19168501610689565b9150808252888482850101111561076157600080fd5b80848401858401376000848284010152508093505050509250925092565b60006020828403121561079157600080fd5b5035919050565b803563ffffffff8116811461064557600080fd5b60008082840360e08112156107c057600080fd5b8335925060c0601f19820112156107d657600080fd5b506107df610660565b602084013581526107f26040850161062e565b602082015261080360608501610798565b604082015261081460808501610798565b606082015260a08401356003811061082b57600080fd5b608082015261083c60c0850161062e565b60a0820152809150509250929050565b634e487b7160e01b600052601260045260246000fd5b634e487b7160e01b600052603260045260246000fd5b60005b8381101561089357818101518382015260200161087b565b838111156108a2576000848401525b50505050565b63ffffffff60e01b84168152826004820152600082516108cf816024850160208701610878565b91909101602401949350505050565b67ffffffffffffffff60c01b8460c01b1681526bffffffffffffffffffffffff198360601b1660088201526000825161091e81601c850160208701610878565b91909101601c01949350505050565b60008151808452610945816020860160208601610878565b601f01601f19169290920160200192915050565b60208152600061096c602083018461092d565b9392505050565b6000610100820190508482528360208301528251604083015260018060a01b036020840151166060830152604083015163ffffffff80821660808501528060608601511660a085015250506080830151600381106109e157634e487b7160e01b600052602160045260246000fd5b60c083015260a092909201516001600160a01b031660e09091015292915050565b6001600160a01b0383168152604060208201819052600090610a269083018461092d565b949350505050565b600060208284031215610a4057600080fd5b505191905056fea264697066735822122001bf3d3864e64f07dcf3a492497d280ad13bddcefd068cde6364b68136bec7f664736f6c63430008090033",
  "devdoc": {
    "events": {
      "MessageSent(bytes)": {
        "details": "Relayers watch for these events to construct merkle proofs to execute transactions on Ethereum.",
        "params": {
          "nodeData": "The data to create leaves in the merkle tree. abi.encodePacked(msgId, to, data), outbox relays to.call(data)"
        }
      },
      "SnapshotSaved(uint256)": {
        "params": {
          "count": "The count of messages in the merkle tree"
        }
      },
      "SnapshotSent(uint256,bytes32)": {
        "details": "The event is emitted when a snapshot through the canonical arbiturm bridge.",
        "params": {
          "epochSent": "The epoch of the snapshot.",
          "ticketId": "The ticketId of the L2->L1 message."
        }
      }
    },
    "kind": "dev",
    "methods": {
      "constructor": {
        "details": "Constructor.",
        "params": {
          "_epochPeriod": "The duration in seconds between epochs.",
          "_veaOutbox": "The veaOutbox on ethereum."
        }
      },
      "saveSnapshot()": {
        "details": "Snapshots can be saved a maximum of once per epoch."
      },
      "sendMessage(address,bytes4,bytes)": {
        "details": "Sends an arbitrary message to a receiving chain. `O(log(count))` where count is the number of messages already sent. Note: Amortized cost is O(1).",
        "params": {
          "data": "The message calldata, abi.encode(param1, param2, ...)",
          "fnSelector": "The function selector of the receiving contract.",
          "to": "The address of the contract on the receiving chain which receives the calldata."
        },
        "returns": {
          "_0": "msgId The zero based index of the message in the inbox."
        }
      },
      "sendSnapshot(uint256,(bytes32,address,uint32,uint32,uint8,address))": {
        "details": "Sends the state root snapshot using Arbitrum's canonical bridge.",
        "params": {
          "epochSend": "The epoch of the snapshot requested to send."
        }
      }
    },
    "version": 1
  },
  "userdoc": {
    "events": {
      "SnapshotSaved(uint256)": {
        "notice": "The bridgers can watch this event to claim the stateRoot on the veaOutbox."
      }
    },
    "kind": "user",
    "methods": {
      "saveSnapshot()": {
        "notice": "Saves snapshot of state root. `O(log(count))` where count number of messages in the inbox."
      }
    },
    "notice": "Vea Bridge Inbox From Arbitrum to Ethereum.",
    "version": 1
  },
  "storageLayout": {
    "storage": [
      {
        "astId": 1551,
        "contract": "src/arbitrumToEth/VeaInboxArbToEth.sol:VeaInboxArbToEth",
        "label": "snapshots",
        "offset": 0,
        "slot": "0",
        "type": "t_mapping(t_uint256,t_bytes32)"
      },
      {
        "astId": 1555,
        "contract": "src/arbitrumToEth/VeaInboxArbToEth.sol:VeaInboxArbToEth",
        "label": "inbox",
        "offset": 0,
        "slot": "1",
        "type": "t_array(t_bytes32)64_storage"
      },
      {
        "astId": 1557,
        "contract": "src/arbitrumToEth/VeaInboxArbToEth.sol:VeaInboxArbToEth",
        "label": "count",
        "offset": 0,
        "slot": "65",
        "type": "t_uint256"
      }
    ],
    "types": {
      "t_array(t_bytes32)64_storage": {
        "base": "t_bytes32",
        "encoding": "inplace",
        "label": "bytes32[64]",
        "numberOfBytes": "2048"
      },
      "t_bytes32": {
        "encoding": "inplace",
        "label": "bytes32",
        "numberOfBytes": "32"
      },
      "t_mapping(t_uint256,t_bytes32)": {
        "encoding": "mapping",
        "key": "t_uint256",
        "label": "mapping(uint256 => bytes32)",
        "numberOfBytes": "32",
        "value": "t_bytes32"
      },
      "t_uint256": {
        "encoding": "inplace",
        "label": "uint256",
        "numberOfBytes": "32"
      }
    }
  }
}