{
  "address": "0x4B4217FF81bdD7F163401147F67f770f55Cc2616",
  "abi": [
    {
      "inputs": [
        {
          "internalType": "uint256",
          "name": "_epochPeriod",
          "type": "uint256"
        },
        {
          "internalType": "address",
          "name": "_routerArbToGnosis",
          "type": "address"
        }
      ],
      "stateMutability": "nonpayable",
      "type": "constructor"
    },
    {
      "anonymous": false,
      "inputs": [
        {
          "indexed": false,
          "internalType": "bytes",
          "name": "_nodeData",
          "type": "bytes"
        }
      ],
      "name": "MessageSent",
      "type": "event"
    },
    {
      "anonymous": false,
      "inputs": [
        {
          "indexed": false,
          "internalType": "bytes32",
          "name": "_snapshot",
          "type": "bytes32"
        },
        {
          "indexed": false,
          "internalType": "uint256",
          "name": "_epoch",
          "type": "uint256"
        },
        {
          "indexed": false,
          "internalType": "uint64",
          "name": "_count",
          "type": "uint64"
        }
      ],
      "name": "SnapshotSaved",
      "type": "event"
    },
    {
      "anonymous": false,
      "inputs": [
        {
          "indexed": true,
          "internalType": "uint256",
          "name": "_epochSent",
          "type": "uint256"
        },
        {
          "indexed": false,
          "internalType": "bytes32",
          "name": "_ticketId",
          "type": "bytes32"
        }
      ],
      "name": "SnapshotSent",
      "type": "event"
    },
    {
      "inputs": [],
      "name": "count",
      "outputs": [
        {
          "internalType": "uint64",
          "name": "",
          "type": "uint64"
        }
      ],
      "stateMutability": "view",
      "type": "function"
    },
    {
      "inputs": [
        {
          "internalType": "uint256",
          "name": "_timestamp",
          "type": "uint256"
        }
      ],
      "name": "epochAt",
      "outputs": [
        {
          "internalType": "uint256",
          "name": "epoch",
          "type": "uint256"
        }
      ],
      "stateMutability": "view",
      "type": "function"
    },
    {
      "inputs": [],
      "name": "epochFinalized",
      "outputs": [
        {
          "internalType": "uint256",
          "name": "epoch",
          "type": "uint256"
        }
      ],
      "stateMutability": "view",
      "type": "function"
    },
    {
      "inputs": [],
      "name": "epochNow",
      "outputs": [
        {
          "internalType": "uint256",
          "name": "epoch",
          "type": "uint256"
        }
      ],
      "stateMutability": "view",
      "type": "function"
    },
    {
      "inputs": [],
      "name": "epochPeriod",
      "outputs": [
        {
          "internalType": "uint256",
          "name": "",
          "type": "uint256"
        }
      ],
      "stateMutability": "view",
      "type": "function"
    },
    {
      "inputs": [],
      "name": "routerArbToGnosis",
      "outputs": [
        {
          "internalType": "address",
          "name": "",
          "type": "address"
        }
      ],
      "stateMutability": "view",
      "type": "function"
    },
    {
      "inputs": [],
      "name": "saveSnapshot",
      "outputs": [],
      "stateMutability": "nonpayable",
      "type": "function"
    },
    {
      "inputs": [
        {
          "internalType": "address",
          "name": "_to",
          "type": "address"
        },
        {
          "internalType": "bytes4",
          "name": "_fnSelector",
          "type": "bytes4"
        },
        {
          "internalType": "bytes",
          "name": "_data",
          "type": "bytes"
        }
      ],
      "name": "sendMessage",
      "outputs": [
        {
          "internalType": "uint64",
          "name": "",
          "type": "uint64"
        }
      ],
      "stateMutability": "nonpayable",
      "type": "function"
    },
    {
      "inputs": [
        {
          "internalType": "uint256",
          "name": "_epoch",
          "type": "uint256"
        },
        {
          "internalType": "uint256",
          "name": "_gasLimit",
          "type": "uint256"
        },
        {
          "components": [
            {
              "internalType": "bytes32",
              "name": "stateRoot",
              "type": "bytes32"
            },
            {
              "internalType": "address",
              "name": "claimer",
              "type": "address"
            },
            {
              "internalType": "uint32",
              "name": "timestampClaimed",
              "type": "uint32"
            },
            {
              "internalType": "uint32",
              "name": "timestampVerification",
              "type": "uint32"
            },
            {
              "internalType": "uint32",
              "name": "blocknumberVerification",
              "type": "uint32"
            },
            {
              "internalType": "enum Party",
              "name": "honest",
              "type": "uint8"
            },
            {
              "internalType": "address",
              "name": "challenger",
              "type": "address"
            }
          ],
          "internalType": "struct Claim",
          "name": "_claim",
          "type": "tuple"
        }
      ],
      "name": "sendSnapshot",
      "outputs": [],
      "stateMutability": "nonpayable",
      "type": "function"
    },
    {
      "inputs": [
        {
          "internalType": "uint256",
          "name": "",
          "type": "uint256"
        }
      ],
      "name": "snapshots",
      "outputs": [
        {
          "internalType": "bytes32",
          "name": "",
          "type": "bytes32"
        }
      ],
      "stateMutability": "view",
      "type": "function"
    }
  ],
  "transactionHash": "0xa896762801473261212bac972e0433ae468825804ea6085789f7a0e67a4f107a",
  "args": [
    3600,
    "0xD75dB719B04842174cDB7b1d8C6f60957ab6A25E"
  ],
  "numDeployments": 11,
  "solcInputHash": "76a6a9e6371fade9c8f1066bebbf4e7c",
  "bytecode": "0x60c060405234801561001057600080fd5b50604051610c49380380610c4983398101604081905261002f91610046565b6080919091526001600160a01b031660a052610083565b6000806040838503121561005957600080fd5b825160208401519092506001600160a01b038116811461007857600080fd5b809150509250929050565b60805160a051610b776100d26000396000818161014f01526105e3015260008181610128015281816101c3015281816101f60152818161022c0152818161025c01526104ee0152610b776000f3fe608060405234801561001057600080fd5b506004361061009e5760003560e01c80635f85896c116100665780635f85896c14610110578063b5b7a18414610123578063d5e6a9df1461014a578063d6565a2d14610189578063dc881a72146101a957600080fd5b806306661abd146100a3578063222ae786146100d55780633ac3b6b6146100eb5780634a439cfe146100f35780635192053514610106575b600080fd5b6041546100b79067ffffffffffffffff1681565b60405167ffffffffffffffff90911681526020015b60405180910390f35b6100dd6101bc565b6040519081526020016100cc565b6100dd6101ed565b6100dd6101013660046106c0565b610225565b61010e610257565b005b6100b761011e366004610765565b61037b565b6100dd7f000000000000000000000000000000000000000000000000000000000000000081565b6101717f000000000000000000000000000000000000000000000000000000000000000081565b6040516001600160a01b0390911681526020016100cc565b6100dd6101973660046106c0565b60006020819052908152604090205481565b61010e6101b736600461083e565b6104ec565b60006101e87f000000000000000000000000000000000000000000000000000000000000000042610910565b905090565b6000600161021b7f000000000000000000000000000000000000000000000000000000000000000042610910565b6101e89190610932565b60006102517f000000000000000000000000000000000000000000000000000000000000000083610910565b92915050565b6000807f00000000000000000000000000000000000000000000000000000000000000004281610289576102896108fa565b604154919004925060009067ffffffffffffffff165b80156102d857806001166001036102cc57600182604081106102c3576102c3610953565b015492506102d8565b6001918201911c61029f565b60011c5b801561031a5760019182019181811690036103125761030f6001836040811061030757610307610953565b01548461068f565b92505b60011c6102dc565b505060008281526020818152604091829020839055604154825184815291820185905267ffffffffffffffff168183015290517f592424eb1d6135501bd20833f15fd127c29d08eed4f03872f6f75182126b1e489181900360600190a15050565b60415460009067ffffffffffffffff9081169081106103d25760405162461bcd60e51b815260206004820152600e60248201526d24b73137bc1034b990333ab6361760911b60448201526064015b60405180910390fd5b604051600090829087906103ee9088903390899060200161098d565b60408051601f198184030181529082905261040d9392916020016109c3565b60408051601f1981840301815291905280516020808301919091206000908152908120919250600184015b60018116600003610471576104596001836040811061030757610307610953565b92506001918201911c677fffffffffffffff16610438565b50816001826040811061048657610486610953565b0155506041805467ffffffffffffffff19166001850167ffffffffffffffff161790556040517f8c5261668696ce22758910d05bab8f186d6eb247ceac2af2e82c7dc17669b036906104d9908490610a3e565b60405180910390a1509095945050505050565b7f0000000000000000000000000000000000000000000000000000000000000000428161051b5761051b6108fa565b0483106105755760405162461bcd60e51b815260206004820152602260248201527f43616e206f6e6c792073656e6420706173742065706f636820736e617073686f6044820152613a1760f11b60648201526084016103c9565b60008381526020819052604080822054905161059991869186908690602401610a58565b60408051601f198184030181529181526020820180516001600160e01b031663b1126dad60e01b179052516349460b4d60e11b815290915060009060649063928c169a9061060d907f0000000000000000000000000000000000000000000000000000000000000000908690600401610afc565b6020604051808303816000875af115801561062c573d6000803e3d6000fd5b505050506040513d601f19601f820116820180604052508101906106509190610b28565b60405181815290915085907f6fdd49f435101fc7b6ebdec7c8972932a926d18f6cb78a8891dfe950743b6b829060200160405180910390a25050505050565b6000818310156106ad57826000528160205260406000209050610251565b5060009081526020919091526040902090565b6000602082840312156106d257600080fd5b5035919050565b80356001600160a01b03811681146106f057600080fd5b919050565b634e487b7160e01b600052604160045260246000fd5b60405160e0810167ffffffffffffffff8111828210171561072e5761072e6106f5565b60405290565b604051601f8201601f1916810167ffffffffffffffff8111828210171561075d5761075d6106f5565b604052919050565b60008060006060848603121561077a57600080fd5b610783846106d9565b92506020848101356001600160e01b0319811681146107a157600080fd5b9250604085013567ffffffffffffffff808211156107be57600080fd5b818701915087601f8301126107d257600080fd5b8135818111156107e4576107e46106f5565b6107f6601f8201601f19168501610734565b9150808252888482850101111561080c57600080fd5b80848401858401376000848284010152508093505050509250925092565b803563ffffffff811681146106f057600080fd5b600080600083850361012081121561085557600080fd5b843593506020850135925060e0603f198201121561087257600080fd5b5061087b61070b565b6040850135815261088e606086016106d9565b602082015261089f6080860161082a565b60408201526108b060a0860161082a565b60608201526108c160c0860161082a565b608082015260e0850135600381106108d857600080fd5b60a08201526108ea61010086016106d9565b60c0820152809150509250925092565b634e487b7160e01b600052601260045260246000fd5b60008261092d57634e487b7160e01b600052601260045260246000fd5b500490565b8181038181111561025157634e487b7160e01b600052601160045260246000fd5b634e487b7160e01b600052603260045260246000fd5b60005b8381101561098457818101518382015260200161096c565b50506000910152565b63ffffffff60e01b84168152826004820152600082516109b4816024850160208701610969565b91909101602401949350505050565b67ffffffffffffffff60c01b8460c01b1681526bffffffffffffffffffffffff198360601b16600882015260008251610a0381601c850160208701610969565b91909101601c01949350505050565b60008151808452610a2a816020860160208601610969565b601f01601f19169290920160200192915050565b602081526000610a516020830184610a12565b9392505050565b6000610140820190508582528460208301528360408301528251606083015260018060a01b036020840151166080830152604083015163ffffffff80821660a08501528060608601511660c08501528060808601511660e0850152505060a083015160038110610ad857634e487b7160e01b600052602160045260246000fd5b61010083015260c092909201516001600160a01b0316610120909101529392505050565b6001600160a01b0383168152604060208201819052600090610b2090830184610a12565b949350505050565b600060208284031215610b3a57600080fd5b505191905056fea2646970667358221220e946b1562a2911d87273f6fe8d8a97409f3946f0bbe45ecb965c7172a235bce764736f6c63430008120033",
  "devdoc": {
    "details": "Vea Inbox From Arbitrum to Gnosis. Note: This contract is deployed on the Arbitrum.",
    "events": {
      "MessageSent(bytes)": {
        "details": "Relayers watch for these events to construct merkle proofs to execute transactions on Gnosis.",
        "params": {
          "_nodeData": "The data to create leaves in the merkle tree. abi.encodePacked(msgId, to, message), outbox relays to.call(message)."
        }
      },
      "SnapshotSaved(bytes32,uint256,uint64)": {
        "params": {
          "_count": "The count of messages in the merkle tree.",
          "_epoch": "The epoch of the snapshot.",
          "_snapshot": "The snapshot of the merkle tree state root."
        }
      },
      "SnapshotSent(uint256,bytes32)": {
        "details": "The event is emitted when a snapshot is sent through the canonical arbitrum bridge.",
        "params": {
          "_epochSent": "The epoch of the snapshot.",
          "_ticketId": "The ticketId of the L2->L1 message."
        }
      }
    },
    "kind": "dev",
    "methods": {
      "constructor": {
        "details": "Constructor. Note: epochPeriod must match the VeaOutboxArbToGnosis contract deployment on Gnosis, since it's on a different chain, we can't read it and trust the deployer to set a correct value",
        "params": {
          "_epochPeriod": "The duration in seconds between epochs.",
          "_routerArbToGnosis": "The router on Ethereum that routes from Arbitrum to Gnosis."
        }
      },
      "epochAt(uint256)": {
        "details": "Get the epoch from the inbox's point of view using timestamp.",
        "params": {
          "_timestamp": "The timestamp to calculate the epoch from."
        },
        "returns": {
          "epoch": "The calculated epoch."
        }
      },
      "epochFinalized()": {
        "details": "Get the most recent epoch for which snapshots are finalized.",
        "returns": {
          "epoch": "The epoch associated with the current inbox block.timestamp"
        }
      },
      "epochNow()": {
        "details": "Get the current epoch from the inbox's point of view using the Arbitrum L2 clock.",
        "returns": {
          "epoch": "The epoch associated with the current inbox block.timestamp"
        }
      },
      "saveSnapshot()": {
        "details": "Saves snapshot of state root. Snapshots can be saved a maximum of once per epoch.      `O(log(count))` where count number of messages in the inbox. Note: See merkle tree docs for details how inbox manages state."
      },
      "sendMessage(address,bytes4,bytes)": {
        "details": "Sends an arbitrary message to Gnosis.      `O(log(count))` where count is the number of messages already sent.      Amortized cost is constant. Note: See docs for details how inbox manages merkle tree state.",
        "params": {
          "_data": "The message calldata, abi.encode(param1, param2, ...)",
          "_fnSelector": "The function selector of the receiving contract.",
          "_to": "The address of the contract on the receiving chain which receives the calldata."
        },
        "returns": {
          "_0": "msgId The zero based index of the message in the inbox."
        }
      },
      "sendSnapshot(uint256,uint256,(bytes32,address,uint32,uint32,uint32,uint8,address))": {
        "details": "Sends the state root snapshot using Arbitrum's canonical bridge.",
        "params": {
          "_claim": "The claim associated with the epoch.",
          "_epoch": "The epoch of the snapshot requested to send.",
          "_gasLimit": "The gas limit for the AMB transaction on Gnosis."
        }
      }
    },
    "version": 1
  },
  "userdoc": {
    "events": {
      "SnapshotSaved(bytes32,uint256,uint64)": {
        "notice": "The bridgers can watch this event to claim the stateRoot on the veaOutbox."
      }
    },
    "kind": "user",
    "methods": {},
    "version": 1
  },
  "storageLayout": {
    "storage": [
      {
        "astId": 432,
        "contract": "src/arbitrumToGnosis/VeaInboxArbToGnosis.sol:VeaInboxArbToGnosis",
        "label": "snapshots",
        "offset": 0,
        "slot": "0",
        "type": "t_mapping(t_uint256,t_bytes32)"
      },
      {
        "astId": 436,
        "contract": "src/arbitrumToGnosis/VeaInboxArbToGnosis.sol:VeaInboxArbToGnosis",
        "label": "inbox",
        "offset": 0,
        "slot": "1",
        "type": "t_array(t_bytes32)64_storage"
      },
      {
        "astId": 438,
        "contract": "src/arbitrumToGnosis/VeaInboxArbToGnosis.sol:VeaInboxArbToGnosis",
        "label": "count",
        "offset": 0,
        "slot": "65",
        "type": "t_uint64"
      }
    ],
    "types": {
      "t_array(t_bytes32)64_storage": {
        "base": "t_bytes32",
        "encoding": "inplace",
        "label": "bytes32[64]",
        "numberOfBytes": "2048"
      },
      "t_bytes32": {
        "encoding": "inplace",
        "label": "bytes32",
        "numberOfBytes": "32"
      },
      "t_mapping(t_uint256,t_bytes32)": {
        "encoding": "mapping",
        "key": "t_uint256",
        "label": "mapping(uint256 => bytes32)",
        "numberOfBytes": "32",
        "value": "t_bytes32"
      },
      "t_uint256": {
        "encoding": "inplace",
        "label": "uint256",
        "numberOfBytes": "32"
      },
      "t_uint64": {
        "encoding": "inplace",
        "label": "uint64",
        "numberOfBytes": "8"
      }
    }
  }
}