{
  "address": "0x40Aee52130959241C8b1bB95648Db110bD864923",
  "abi": [
    {
      "inputs": [
        {
          "internalType": "uint256",
          "name": "_epochPeriod",
          "type": "uint256"
        },
        {
          "internalType": "address",
          "name": "_receiver",
          "type": "address"
        }
      ],
      "stateMutability": "nonpayable",
      "type": "constructor"
    },
    {
      "anonymous": false,
      "inputs": [
        {
          "indexed": false,
          "internalType": "bytes",
          "name": "fastMessage",
          "type": "bytes"
        }
      ],
      "name": "MessageSent",
      "type": "event"
    },
    {
      "anonymous": false,
      "inputs": [
        {
          "indexed": true,
          "internalType": "uint256",
          "name": "epoch",
          "type": "uint256"
        },
        {
          "indexed": false,
          "internalType": "bytes32",
          "name": "stateRoot",
          "type": "bytes32"
        }
      ],
      "name": "SnapshotSaved",
      "type": "event"
    },
    {
      "anonymous": false,
      "inputs": [
        {
          "indexed": true,
          "internalType": "uint256",
          "name": "epoch",
          "type": "uint256"
        },
        {
          "indexed": false,
          "internalType": "bytes32",
          "name": "stateRoot",
          "type": "bytes32"
        }
      ],
      "name": "StaterootSent",
      "type": "event"
    },
    {
      "inputs": [],
      "name": "ARB_SYS",
      "outputs": [
        {
          "internalType": "contract IArbSys",
          "name": "",
          "type": "address"
        }
      ],
      "stateMutability": "view",
      "type": "function"
    },
    {
      "inputs": [],
      "name": "epochPeriod",
      "outputs": [
        {
          "internalType": "uint256",
          "name": "",
          "type": "uint256"
        }
      ],
      "stateMutability": "view",
      "type": "function"
    },
    {
      "inputs": [
        {
          "internalType": "uint256",
          "name": "",
          "type": "uint256"
        }
      ],
      "name": "inbox",
      "outputs": [
        {
          "internalType": "bytes32",
          "name": "",
          "type": "bytes32"
        }
      ],
      "stateMutability": "view",
      "type": "function"
    },
    {
      "inputs": [],
      "name": "receiver",
      "outputs": [
        {
          "internalType": "address",
          "name": "",
          "type": "address"
        }
      ],
      "stateMutability": "view",
      "type": "function"
    },
    {
      "inputs": [],
      "name": "saveStateRootSnapshot",
      "outputs": [],
      "stateMutability": "nonpayable",
      "type": "function"
    },
    {
      "inputs": [
        {
          "internalType": "address",
          "name": "_to",
          "type": "address"
        },
        {
          "internalType": "bytes",
          "name": "_data",
          "type": "bytes"
        }
      ],
      "name": "sendMsg",
      "outputs": [
        {
          "internalType": "uint256",
          "name": "msgId",
          "type": "uint256"
        }
      ],
      "stateMutability": "nonpayable",
      "type": "function"
    },
    {
      "inputs": [
        {
          "internalType": "uint256",
          "name": "_epochSnapshot",
          "type": "uint256"
        }
      ],
      "name": "sendStaterootSnapshot",
      "outputs": [],
      "stateMutability": "nonpayable",
      "type": "function"
    },
    {
      "inputs": [
        {
          "internalType": "uint256",
          "name": "",
          "type": "uint256"
        }
      ],
      "name": "stateRootSnapshots",
      "outputs": [
        {
          "internalType": "bytes32",
          "name": "",
          "type": "bytes32"
        }
      ],
      "stateMutability": "view",
      "type": "function"
    }
  ],
  "transactionHash": "0x8f7c3df40f24c15701789427bf0ab8fd4d74677ac5f40d75b66226828bee78a9",
  "args": [
    1800,
    "0x5163B30Bb835E9bbae1eAf2eFA9051A68409f796"
  ],
  "numDeployments": 2,
  "solcInputHash": "cd3369a186a303a616c7faafad33cb21",
  "bytecode": "0x60c060405234801561001057600080fd5b5060405161092d38038061092d83398101604081905261002f91610046565b6080919091526001600160a01b031660a052610083565b6000806040838503121561005957600080fd5b825160208401519092506001600160a01b038116811461007857600080fd5b809150509250929050565b60805160a0516108716100bc6000396000818161014f01526103a001526000818160d50152818161017801526102ca01526108716000f3fe608060405234801561001057600080fd5b50600436106100885760003560e01c8063bd368a5a1161005b578063bd368a5a146100f7578063bd8e62d614610117578063e5a1c35614610137578063f7260d3e1461014a57600080fd5b80634a12b57b1461008d5780636468244d146100975780637bdf8f2b146100bd578063b5b7a184146100d0575b600080fd5b610095610171565b005b6100aa6100a536600461066e565b610266565b6040519081526020015b60405180910390f35b6100956100cb36600461073e565b6102c3565b6100aa7f000000000000000000000000000000000000000000000000000000000000000081565b6100aa61010536600461073e565b60006020819052908152604090205481565b61011f606481565b6040516001600160a01b0390911681526020016100b4565b6100aa61014536600461073e565b61045a565b61011f7f000000000000000000000000000000000000000000000000000000000000000081565b600061019d7f000000000000000000000000000000000000000000000000000000000000000042610757565b600081815260208190526040902054909150156102105760405162461bcd60e51b815260206004820152602660248201527f536e617073686f7420616c72656164792074616b656e20666f7220746869732060448201526532b837b1b41760d11b60648201526084015b60405180910390fd5b600061021a610471565b60008381526020818152604091829020839055905182815291925083917ffd01fa669b73caab75d1c84457b56e023259535ef32cd736fdaa5b2cb8501461910160405180910390a25050565b60008060006102758585610516565b91509150610282826105cb565b92507f8c5261668696ce22758910d05bab8f186d6eb247ceac2af2e82c7dc17669b036816040516102b391906107c6565b60405180910390a1505092915050565b60006102ef7f000000000000000000000000000000000000000000000000000000000000000042610757565b9050808211156103385760405162461bcd60e51b815260206004820152601460248201527322b837b1b41034b7103a343290333aba3ab9329760611b6044820152606401610207565b60008281526020818152604080832054815160248101869052604480820192909252825180820390920182526064908101835292810180516001600160e01b03166313aa813360e01b17905290516349460b4d60e11b81529092919063928c169a906103ca907f00000000000000000000000000000000000000000000000000000000000000009086906004016107e0565b602060405180830381600087803b1580156103e457600080fd5b505af11580156103f8573d6000803e3d6000fd5b505050506040513d601f19601f8201168201806040525081019061041c919061080c565b60405181815290915084907f17d3c3d8cc73b9d3459f576282419d2b4f8a57221961ddfbcd30bd677878b2f69060200160405180910390a250505050565b6001816040811061046a57600080fd5b0154905081565b60415460009081908160015b821561050d5782600116600114156104fc5780156104b557600182604081106104a8576104a8610825565b01549350600090506104fc565b6000600183604081106104ca576104ca610825565b01549050848111156104ea578460005280602052604060002094506104fa565b8060005284602052604060002094505b505b60028304925060019091019061047d565b50919392505050565b604154604051825160a0808201835260208084018590526bffffffffffffffffffffffff19606088811b8216604c87018190528187018290528386016080880152928801516001600160e01b031916938601939093523390921b90911660b08401819052600094909260c4850160248801875b838110156105a35781810151835260209283019201610589565b5050604090815285516020808801919091206000818152915220989497509395505050505050565b6041805460018101918290558118811660005b6001821661063a576000600182604081106105fb576105fb610825565b015490508481111561061b5784600052806020526040600020945061062b565b8060005284602052604060002094505b600283049250506001016105de565b836001826040811061064e5761064e610825565b0155509092915050565b634e487b7160e01b600052604160045260246000fd5b6000806040838503121561068157600080fd5b82356001600160a01b038116811461069857600080fd5b9150602083013567ffffffffffffffff808211156106b557600080fd5b818501915085601f8301126106c957600080fd5b8135818111156106db576106db610658565b604051601f8201601f19908116603f0116810190838211818310171561070357610703610658565b8160405282815288602084870101111561071c57600080fd5b8260208601602083013760006020848301015280955050505050509250929050565b60006020828403121561075057600080fd5b5035919050565b60008261077457634e487b7160e01b600052601260045260246000fd5b500490565b6000815180845260005b8181101561079f57602081850181015186830182015201610783565b818111156107b1576000602083870101525b50601f01601f19169290920160200192915050565b6020815260006107d96020830184610779565b9392505050565b6001600160a01b038316815260406020820181905260009061080490830184610779565b949350505050565b60006020828403121561081e57600080fd5b5051919050565b634e487b7160e01b600052603260045260246000fdfea2646970667358221220ef19b64150760ed4b556bbdf70b69f43b4d9914f6b13205df619c1d7a86bdc2164736f6c63430008090033",
  "devdoc": {
    "events": {
      "MessageSent(bytes)": {
        "details": "Relayers watch for these events to construct merkle proofs to execute transactions on Gnosis Chain.",
        "params": {
          "fastMessage": "The fast message data."
        }
      },
      "SnapshotSaved(uint256,bytes32)": {
        "params": {
          "epoch": "The epoch of the batch requested to send.",
          "stateRoot": "The receiving domain encoded message data."
        }
      },
      "StaterootSent(uint256,bytes32)": {
        "details": "The event is emitted when messages are sent through the canonical arbiturm bridge.",
        "params": {
          "epoch": "The epoch of the batch requested to send.",
          "stateRoot": "The state root of batched messages."
        }
      }
    },
    "kind": "dev",
    "methods": {
      "constructor": {
        "details": "Constructor.",
        "params": {
          "_epochPeriod": "The duration between epochs.",
          "_receiver": "The receiver on ethereum."
        }
      },
      "sendMsg(address,bytes)": {
        "details": "Sends an arbitrary message to a receiving chain.",
        "params": {
          "_data": "The message calldata, abi.encodeWithSelector(...)",
          "_to": "The address of the contract on the receiving chain which receives the calldata."
        },
        "returns": {
          "msgId": "The message id, 1 indexed."
        }
      },
      "sendStaterootSnapshot(uint256)": {
        "details": "Sends the state root using Arbitrum's canonical bridge."
      }
    },
    "version": 1
  },
  "userdoc": {
    "events": {
      "SnapshotSaved(uint256,bytes32)": {
        "notice": "The bridgers need to watch for these events and relay the stateRoot on the FastBridgeReceiver."
      }
    },
    "kind": "user",
    "methods": {
      "saveStateRootSnapshot()": {
        "notice": "Takes snapshot of state root."
      }
    },
    "version": 1
  },
  "storageLayout": {
    "storage": [
      {
        "astId": 165,
        "contract": "src/VeaInbox.sol:VeaInbox",
        "label": "stateRootSnapshots",
        "offset": 0,
        "slot": "0",
        "type": "t_mapping(t_uint256,t_bytes32)"
      },
      {
        "astId": 169,
        "contract": "src/VeaInbox.sol:VeaInbox",
        "label": "inbox",
        "offset": 0,
        "slot": "1",
        "type": "t_array(t_bytes32)64_storage"
      },
      {
        "astId": 171,
        "contract": "src/VeaInbox.sol:VeaInbox",
        "label": "count",
        "offset": 0,
        "slot": "65",
        "type": "t_uint256"
      }
    ],
    "types": {
      "t_array(t_bytes32)64_storage": {
        "base": "t_bytes32",
        "encoding": "inplace",
        "label": "bytes32[64]",
        "numberOfBytes": "2048"
      },
      "t_bytes32": {
        "encoding": "inplace",
        "label": "bytes32",
        "numberOfBytes": "32"
      },
      "t_mapping(t_uint256,t_bytes32)": {
        "encoding": "mapping",
        "key": "t_uint256",
        "label": "mapping(uint256 => bytes32)",
        "numberOfBytes": "32",
        "value": "t_bytes32"
      },
      "t_uint256": {
        "encoding": "inplace",
        "label": "uint256",
        "numberOfBytes": "32"
      }
    }
  }
}