{
  "address": "0x663697f5748c5f4d46a15114Dde5514356E794F4",
  "abi": [
    {
      "inputs": [
        {
          "internalType": "uint256",
          "name": "_deposit",
          "type": "uint256"
        },
        {
          "internalType": "uint256",
          "name": "_epochPeriod",
          "type": "uint256"
        },
        {
          "internalType": "uint256",
          "name": "_challengePeriod",
          "type": "uint256"
        },
        {
          "internalType": "uint256",
          "name": "_timeoutEpochs",
          "type": "uint256"
        },
        {
          "internalType": "address",
          "name": "_routerGnosisToArb",
          "type": "address"
        },
        {
          "internalType": "uint256",
          "name": "_sequencerDelayLimit",
          "type": "uint256"
        },
        {
          "internalType": "uint256",
          "name": "_sequencerFutureLimit",
          "type": "uint256"
        },
        {
          "internalType": "uint256",
          "name": "_maxClaimDelayEpochs",
          "type": "uint256"
        },
        {
          "internalType": "uint256",
          "name": "_maxClaimFutureEpochs",
          "type": "uint256"
        }
      ],
      "stateMutability": "nonpayable",
      "type": "constructor"
    },
    {
      "anonymous": false,
      "inputs": [
        {
          "indexed": false,
          "internalType": "uint256",
          "name": "_epoch",
          "type": "uint256"
        },
        {
          "indexed": true,
          "internalType": "address",
          "name": "_challenger",
          "type": "address"
        }
      ],
      "name": "Challenged",
      "type": "event"
    },
    {
      "anonymous": false,
      "inputs": [
        {
          "indexed": true,
          "internalType": "address",
          "name": "_claimer",
          "type": "address"
        },
        {
          "indexed": false,
          "internalType": "bytes32",
          "name": "_stateRoot",
          "type": "bytes32"
        }
      ],
      "name": "Claimed",
      "type": "event"
    },
    {
      "anonymous": false,
      "inputs": [
        {
          "indexed": false,
          "internalType": "uint64",
          "name": "_msgId",
          "type": "uint64"
        }
      ],
      "name": "MessageRelayed",
      "type": "event"
    },
    {
      "anonymous": false,
      "inputs": [
        {
          "indexed": false,
          "internalType": "uint256",
          "name": "_epoch",
          "type": "uint256"
        }
      ],
      "name": "Verified",
      "type": "event"
    },
    {
      "anonymous": false,
      "inputs": [
        {
          "indexed": false,
          "internalType": "uint256",
          "name": "_newsequencerDelayLimit",
          "type": "uint256"
        }
      ],
      "name": "sequencerDelayLimitUpdateReceived",
      "type": "event"
    },
    {
      "inputs": [
        {
          "internalType": "uint256",
          "name": "_epoch",
          "type": "uint256"
        }
      ],
      "name": "challenge",
      "outputs": [],
      "stateMutability": "payable",
      "type": "function"
    },
    {
      "inputs": [],
      "name": "challengePeriod",
      "outputs": [
        {
          "internalType": "uint256",
          "name": "",
          "type": "uint256"
        }
      ],
      "stateMutability": "view",
      "type": "function"
    },
    {
      "inputs": [
        {
          "internalType": "uint256",
          "name": "",
          "type": "uint256"
        }
      ],
      "name": "challengers",
      "outputs": [
        {
          "internalType": "address",
          "name": "",
          "type": "address"
        }
      ],
      "stateMutability": "view",
      "type": "function"
    },
    {
      "inputs": [
        {
          "internalType": "uint256",
          "name": "_epoch",
          "type": "uint256"
        },
        {
          "internalType": "bytes32",
          "name": "_stateRoot",
          "type": "bytes32"
        }
      ],
      "name": "claim",
      "outputs": [],
      "stateMutability": "payable",
      "type": "function"
    },
    {
      "inputs": [
        {
          "internalType": "uint256",
          "name": "",
          "type": "uint256"
        }
      ],
      "name": "claims",
      "outputs": [
        {
          "internalType": "bytes32",
          "name": "stateRoot",
          "type": "bytes32"
        },
        {
          "internalType": "address",
          "name": "claimer",
          "type": "address"
        },
        {
          "internalType": "uint32",
          "name": "timestamp",
          "type": "uint32"
        },
        {
          "internalType": "enum VeaOutboxGnosisToArb.Party",
          "name": "honest",
          "type": "uint8"
        }
      ],
      "stateMutability": "view",
      "type": "function"
    },
    {
      "inputs": [],
      "name": "deposit",
      "outputs": [
        {
          "internalType": "uint256",
          "name": "",
          "type": "uint256"
        }
      ],
      "stateMutability": "view",
      "type": "function"
    },
    {
      "inputs": [
        {
          "internalType": "uint256",
          "name": "timestamp",
          "type": "uint256"
        }
      ],
      "name": "epochAt",
      "outputs": [
        {
          "internalType": "uint256",
          "name": "epoch",
          "type": "uint256"
        }
      ],
      "stateMutability": "view",
      "type": "function"
    },
    {
      "inputs": [],
      "name": "epochNow",
      "outputs": [
        {
          "internalType": "uint256",
          "name": "epoch",
          "type": "uint256"
        }
      ],
      "stateMutability": "view",
      "type": "function"
    },
    {
      "inputs": [],
      "name": "epochPeriod",
      "outputs": [
        {
          "internalType": "uint256",
          "name": "",
          "type": "uint256"
        }
      ],
      "stateMutability": "view",
      "type": "function"
    },
    {
      "inputs": [],
      "name": "latestVerifiedEpoch",
      "outputs": [
        {
          "internalType": "uint256",
          "name": "",
          "type": "uint256"
        }
      ],
      "stateMutability": "view",
      "type": "function"
    },
    {
      "inputs": [],
      "name": "maxClaimDelayEpochs",
      "outputs": [
        {
          "internalType": "uint256",
          "name": "",
          "type": "uint256"
        }
      ],
      "stateMutability": "view",
      "type": "function"
    },
    {
      "inputs": [],
      "name": "maxClaimFutureEpochs",
      "outputs": [
        {
          "internalType": "uint256",
          "name": "",
          "type": "uint256"
        }
      ],
      "stateMutability": "view",
      "type": "function"
    },
    {
      "inputs": [
        {
          "internalType": "uint256",
          "name": "",
          "type": "uint256"
        }
      ],
      "name": "relayed",
      "outputs": [
        {
          "internalType": "bytes32",
          "name": "",
          "type": "bytes32"
        }
      ],
      "stateMutability": "view",
      "type": "function"
    },
    {
      "inputs": [
        {
          "internalType": "uint256",
          "name": "_epoch",
          "type": "uint256"
        },
        {
          "internalType": "bytes32",
          "name": "_stateRoot",
          "type": "bytes32"
        }
      ],
      "name": "resolveDisputedClaim",
      "outputs": [],
      "stateMutability": "nonpayable",
      "type": "function"
    },
    {
      "inputs": [],
      "name": "routerGnosisToArb",
      "outputs": [
        {
          "internalType": "address",
          "name": "",
          "type": "address"
        }
      ],
      "stateMutability": "view",
      "type": "function"
    },
    {
      "inputs": [
        {
          "internalType": "bytes32[]",
          "name": "_proof",
          "type": "bytes32[]"
        },
        {
          "internalType": "uint64",
          "name": "_msgId",
          "type": "uint64"
        },
        {
          "internalType": "address",
          "name": "_to",
          "type": "address"
        },
        {
          "internalType": "bytes",
          "name": "_message",
          "type": "bytes"
        }
      ],
      "name": "sendMessage",
      "outputs": [],
      "stateMutability": "nonpayable",
      "type": "function"
    },
    {
      "inputs": [],
      "name": "sequencerDelayLimit",
      "outputs": [
        {
          "internalType": "uint256",
          "name": "",
          "type": "uint256"
        }
      ],
      "stateMutability": "view",
      "type": "function"
    },
    {
      "inputs": [],
      "name": "sequencerFutureLimit",
      "outputs": [
        {
          "internalType": "uint256",
          "name": "",
          "type": "uint256"
        }
      ],
      "stateMutability": "view",
      "type": "function"
    },
    {
      "inputs": [],
      "name": "stateRoot",
      "outputs": [
        {
          "internalType": "bytes32",
          "name": "",
          "type": "bytes32"
        }
      ],
      "stateMutability": "view",
      "type": "function"
    },
    {
      "inputs": [],
      "name": "timeoutEpochs",
      "outputs": [
        {
          "internalType": "uint256",
          "name": "",
          "type": "uint256"
        }
      ],
      "stateMutability": "view",
      "type": "function"
    },
    {
      "inputs": [],
      "name": "timestampDelayUpdated",
      "outputs": [
        {
          "internalType": "uint256",
          "name": "",
          "type": "uint256"
        }
      ],
      "stateMutability": "view",
      "type": "function"
    },
    {
      "inputs": [],
      "name": "timestampFutureUpdated",
      "outputs": [
        {
          "internalType": "uint256",
          "name": "",
          "type": "uint256"
        }
      ],
      "stateMutability": "view",
      "type": "function"
    },
    {
      "inputs": [
        {
          "internalType": "uint256",
          "name": "_newSequencerDelayLimit",
          "type": "uint256"
        },
        {
          "internalType": "uint256",
          "name": "_timestamp",
          "type": "uint256"
        }
      ],
      "name": "updateSequencerDelayLimit",
      "outputs": [],
      "stateMutability": "nonpayable",
      "type": "function"
    },
    {
      "inputs": [
        {
          "internalType": "uint256",
          "name": "_newSequencerFutureLimit",
          "type": "uint256"
        },
        {
          "internalType": "uint256",
          "name": "_timestamp",
          "type": "uint256"
        }
      ],
      "name": "updateSequencerFutureLimit",
      "outputs": [],
      "stateMutability": "nonpayable",
      "type": "function"
    },
    {
      "inputs": [
        {
          "internalType": "uint256",
          "name": "_epoch",
          "type": "uint256"
        }
      ],
      "name": "verifySnapshot",
      "outputs": [],
      "stateMutability": "nonpayable",
      "type": "function"
    },
    {
      "inputs": [
        {
          "internalType": "uint256",
          "name": "_epoch",
          "type": "uint256"
        }
      ],
      "name": "withdrawChallengeDeposit",
      "outputs": [],
      "stateMutability": "nonpayable",
      "type": "function"
    },
    {
      "inputs": [
        {
          "internalType": "uint256",
          "name": "_epoch",
          "type": "uint256"
        }
      ],
      "name": "withdrawChallengerEscapeHatch",
      "outputs": [],
      "stateMutability": "nonpayable",
      "type": "function"
    },
    {
      "inputs": [
        {
          "internalType": "uint256",
          "name": "_epoch",
          "type": "uint256"
        }
      ],
      "name": "withdrawClaimDeposit",
      "outputs": [],
      "stateMutability": "nonpayable",
      "type": "function"
    },
    {
      "inputs": [
        {
          "internalType": "uint256",
          "name": "_epoch",
          "type": "uint256"
        }
      ],
      "name": "withdrawClaimerEscapeHatch",
      "outputs": [],
      "stateMutability": "nonpayable",
      "type": "function"
    }
  ],
  "transactionHash": "0x26b88fcb0986901e8ff34f4fa82837e7fdb314669055c5955a620ad3f41ee919",
  "args": [
    "4000000000000000000",
    7200,
    86400,
    168,
    "0xC21c20a719fAc23c54c336FA0E16a0CFdC4baA00",
    86400,
    3600,
    3,
    1
  ],
  "numDeployments": 1,
  "solcInputHash": "7298e2ccdbe09809d528e3141326e32b",
  "bytecode": "0x6101a06040523480156200001257600080fd5b5060405162002273380380620022738339810160408190526200003591620000cf565b60a08990526101008890526101208790526101408690526001600160a01b038516608052600084905560018390556101608290526101808190526200007c60028a62000169565b60c08190526200008e8a60026200018c565b6200009a9190620001ac565b60e05261010051600190620000b0904262000169565b620000bc9190620001ac565b60055550620001c2975050505050505050565b60008060008060008060008060006101208a8c031215620000ef57600080fd5b895160208b015160408c015160608d015160808e0151939c50919a50985096506001600160a01b03811681146200012557600080fd5b8095505060a08a0151935060c08a0151925060e08a015191506101008a015190509295985092959850929598565b634e487b7160e01b600052601160045260246000fd5b6000826200018757634e487b7160e01b600052601260045260246000fd5b500490565b8082028115828204841417620001a657620001a662000153565b92915050565b81810381811115620001a657620001a662000153565b60805160a05160c05160e0516101005161012051610140516101605161018051611f676200030c600039600081816102d601526109780152600081816101d90152610a710152600081816104eb0152818161062b01528181610faa015281816112da015261164d0152600081816105e7015261142901526000818161051f01528181610650015281816107ac015281816109300152818161099c01528181610a2a01528181610a9501528181610fcf0152818161112c015281816112ff01526116720152600081816112550152611b220152600081816112140152611ae10152600081816105530152818161076c015281816108be01528181610c8c01528181610cb9015281816110ed015281816112a0015281816118d20152818161199e01526119cb0152600081816105b3015281816107e10152818161157801526116ec0152611f676000f3fe6080604052600436106101c25760003560e01c8063710cc9a7116100f7578063b044397e11610095578063e813a75511610064578063e813a7551461058b578063eb8dedfa146105a1578063f3f480d9146105d5578063f4cf751b1461060957600080fd5b8063b044397e146104d9578063b5b7a1841461050d578063d0e30db014610541578063d6e01b391461057557600080fd5b806390df63b7116100d157806390df63b71461041c5780639588eca214610449578063a888c2cd1461045f578063ab82d9a0146104c657600080fd5b8063710cc9a7146103c65780637ffc2a6e146103e65780638caeb7a8146103fc57600080fd5b806331ddf743116101645780634a439cfe1161013e5780634a439cfe1461031857806350b81dbe1461033857806364962849146103585780636b45ebcb1461037857600080fd5b806331ddf743146102a45780633968ae00146102c45780634518f79f146102f857600080fd5b8063222ae786116101a0578063222ae7861461024657806327ee6bdd1461025b5780632c1925191461027157806331d144571461029157600080fd5b8063042c4aaf146101c75780630e56752e1461020e578063114095d314610224575b600080fd5b3480156101d357600080fd5b506101fb7f000000000000000000000000000000000000000000000000000000000000000081565b6040519081526020015b60405180910390f35b34801561021a57600080fd5b506101fb60015481565b34801561023057600080fd5b5061024461023f366004611b5d565b610629565b005b34801561025257600080fd5b506101fb6107a5565b34801561026757600080fd5b506101fb60055481565b34801561027d57600080fd5b5061024461028c366004611b76565b6107d6565b61024461029f366004611b76565b6108bc565b3480156102b057600080fd5b506102446102bf366004611c83565b610d09565b3480156102d057600080fd5b506101fb7f000000000000000000000000000000000000000000000000000000000000000081565b34801561030457600080fd5b50610244610313366004611b5d565b610fa8565b34801561032457600080fd5b506101fb610333366004611b5d565b611125565b34801561034457600080fd5b50610244610353366004611b5d565b611157565b34801561036457600080fd5b50610244610373366004611b5d565b6112d8565b34801561038457600080fd5b506103ae610393366004611b5d565b6007602052600090815260409020546001600160a01b031681565b6040516001600160a01b039091168152602001610205565b3480156103d257600080fd5b506102446103e1366004611b76565b61156d565b3480156103f257600080fd5b506101fb60025481565b34801561040857600080fd5b50610244610417366004611b76565b61164b565b34801561042857600080fd5b506101fb610437366004611b5d565b60086020526000908152604090205481565b34801561045557600080fd5b506101fb60045481565b34801561046b57600080fd5b506104b661047a366004611b5d565b600660205260009081526040902080546001909101546001600160a01b03811690600160a01b810463ffffffff1690600160c01b900460ff1684565b6040516102059493929190611d85565b6102446104d4366004611b5d565b61180e565b3480156104e557600080fd5b506101fb7f000000000000000000000000000000000000000000000000000000000000000081565b34801561051957600080fd5b506101fb7f000000000000000000000000000000000000000000000000000000000000000081565b34801561054d57600080fd5b506101fb7f000000000000000000000000000000000000000000000000000000000000000081565b34801561058157600080fd5b506101fb60035481565b34801561059757600080fd5b506101fb60005481565b3480156105ad57600080fd5b506103ae7f000000000000000000000000000000000000000000000000000000000000000081565b3480156105e157600080fd5b506101fb7f000000000000000000000000000000000000000000000000000000000000000081565b34801561061557600080fd5b50610244610624366004611b5d565b611a14565b7f0000000000000000000000000000000000000000000000000000000000000000600554017f0000000000000000000000000000000000000000000000000000000000000000428161067d5761067d611dd4565b04116106c25760405162461bcd60e51b815260206004820152600f60248201526e213934b233b290293ab73734b7339760891b60448201526064015b60405180910390fd5b60008082815260066020526040902060010154600160c01b900460ff1660028111156106f0576106f0611d6f565b1461072f5760405162461bcd60e51b815260206004820152600f60248201526e21b630b4b6903932b9b7b63b32b21760891b60448201526064016106b9565b600081815260076020526040902080546001600160a01b031981169091556001600160a01b031680156107a1576040516001600160a01b038216907f000000000000000000000000000000000000000000000000000000000000000080156108fc02916000818181858888f150505050505b5050565b60006107d17f000000000000000000000000000000000000000000000000000000000000000042611e00565b905090565b336001600160a01b037f000000000000000000000000000000000000000000000000000000000000000061111161111160901b010116146108295760405162461bcd60e51b81526004016106b990611e22565b80600254106108715760405162461bcd60e51b815260206004820152601460248201527326b2b9b9b0b3b29034b99037baba3230ba32b21760611b60448201526064016106b9565b81600054146107a157600082905560028190556040518281527f684f6fb71cbcb798156dcca2a95dbd142fa1f8957637833b1897ab89e05aa707906020015b60405180910390a15050565b7f000000000000000000000000000000000000000000000000000000000000000034101561092c5760405162461bcd60e51b815260206004820152601b60248201527f496e73756666696369656e7420636c61696d206465706f7369742e000000000060448201526064016106b9565b60007f00000000000000000000000000000000000000000000000000000000000000006000544261095d9190611e59565b6109679190611e00565b610972906001611e59565b905060007f00000000000000000000000000000000000000000000000000000000000000006109c17f000000000000000000000000000000000000000000000000000000000000000042611e00565b6109cb9190611e59565b905060008183106109dc57816109de565b825b905080851115610a245760405162461bcd60e51b815260206004820152601160248201527022b837b1b41034b99034b73b30b634b21760791b60448201526064016106b9565b600060017f000000000000000000000000000000000000000000000000000000000000000060015442610a579190611e6c565b610a619190611e00565b610a6b9190611e6c565b905060007f0000000000000000000000000000000000000000000000000000000000000000610aba7f000000000000000000000000000000000000000000000000000000000000000042611e00565b610ac49190611e6c565b90506000818311610ad55781610ad7565b815b905080881015610b1d5760405162461bcd60e51b815260206004820152601160248201527022b837b1b41034b99034b73b30b634b21760791b60448201526064016106b9565b86610b5b5760405162461bcd60e51b815260206004820152600e60248201526d24b73b30b634b21031b630b4b69760911b60448201526064016106b9565b6000888152600660205260409020600101546001600160a01b031615610bb95760405162461bcd60e51b815260206004820152601360248201527221b630b4b69030b63932b0b23c9036b0b2329760691b60448201526064016106b9565b6040805160808101825288815233602080830191825263ffffffff4281168486019081526000606086018181528f82526006909452959095208451815592516001840180549651909216600160a01b026001600160c01b03199096166001600160a01b039091161794909417808555905192939192919060ff60c01b1916600160c01b836002811115610c4e57610c4e611d6f565b0217905550506040518881523391507f91d697238e9aa9f3172d17522c9be529b94a892481554e1ea619369b5b12f39a9060200160405180910390a27f0000000000000000000000000000000000000000000000000000000000000000341115610cff576000610cde7f000000000000000000000000000000000000000000000000000000000000000034611e6c565b604051909150339082156108fc029083906000818181858888f15050505050505b5050505050505050565b6040845110610d4c5760405162461bcd60e51b815260206004820152600f60248201526e283937b7b3103a37b7903637b7339760891b60448201526064016106b9565b6000838383604051602001610d6393929190611eaf565b604051602081830303815290604052805190602001209050806000526020600020905060005b8551811015610de5576000868281518110610da657610da6611ef1565b6020026020010151905082811115610dcc57826000528060205260406000209250610ddc565b8060005282602052604060002092505b50600101610d89565b508060045414610e285760405162461bcd60e51b815260206004820152600e60248201526d24b73b30b634b210383937b7b31760911b60448201526064016106b9565b600884811c66ffffffffffffff16600081815260209290925260409091205460ff86169080821c60011615610e9f5760405162461bcd60e51b815260206004820152601760248201527f4d65737361676520616c72656164792072656c6179656400000000000000000060448201526064016106b9565b6000838152600860205260408082206001851b84179055516001600160a01b03881690610ecd908890611f07565b6000604051808303816000865af19150503d8060008114610f0a576040519150601f19603f3d011682016040523d82523d6000602084013e610f0f565b606091505b5050905080610f605760405162461bcd60e51b815260206004820152601760248201527f4661696c656420746f2063616c6c20636f6e747261637400000000000000000060448201526064016106b9565b60405167ffffffffffffffff891681527f54303fab361bc52c2f1f56ace7351189582264f74ce47a6e7c3f478d64c429439060200160405180910390a1505050505050505050565b7f0000000000000000000000000000000000000000000000000000000000000000600554017f00000000000000000000000000000000000000000000000000000000000000004281610ffc57610ffc611dd4565b041161103c5760405162461bcd60e51b815260206004820152600f60248201526e213934b233b290293ab73734b7339760891b60448201526064016106b9565b60008082815260066020526040902060010154600160c01b900460ff16600281111561106a5761106a611d6f565b146110a95760405162461bcd60e51b815260206004820152600f60248201526e21b630b4b6903932b9b7b63b32b21760891b60448201526064016106b9565b6000818152600660205260408120600181018054929091556001600160c81b0319821690556001600160a01b031680156107a1576040516001600160a01b038216907f000000000000000000000000000000000000000000000000000000000000000080156108fc02916000818181858888f150505050505050565b60006111517f000000000000000000000000000000000000000000000000000000000000000083611e00565b92915050565b6001600082815260066020526040902060010154600160c01b900460ff16600281111561118657611186611d6f565b146111c95760405162461bcd60e51b815260206004820152601360248201527221b630b4b6903ab739bab1b1b2b9b9b33ab61760691b60448201526064016106b9565b6000818152600660209081526040808320600181018054918590556001600160c81b0319821690556007909252909120546001600160a01b03918216911615611290576040516000907f000000000000000000000000000000000000000000000000000000000000000080156108fc029183818181858288f150506040516001600160a01b03851693507f000000000000000000000000000000000000000000000000000000000000000080156108fc02935091506000818181858888f150505050505050565b6040516001600160a01b038216907f000000000000000000000000000000000000000000000000000000000000000080156108fc02916000818181858888f150505050505050565b7f0000000000000000000000000000000000000000000000000000000000000000600554017f0000000000000000000000000000000000000000000000000000000000000000428161132c5761132c611dd4565b04111561136e5760405162461bcd60e51b815260206004820152601060248201526f213934b233b29029b43aba3237bbb71760811b60448201526064016106b9565b600081815260066020526040902060010154600160a01b900463ffffffff16806113cb5760405162461bcd60e51b815260206004820152600e60248201526d24b73b30b634b21031b630b4b69760911b60448201526064016106b9565b6000828152600760205260409020546001600160a01b0316156114275760405162461bcd60e51b815260206004820152601460248201527321b630b4b69034b99031b430b63632b733b2b21760611b60448201526064016106b9565b7f0000000000000000000000000000000000000000000000000000000000000000600154600054600261145a9190611f1a565b6114649190611e59565b61146e9190611e59565b6114788242611e6c565b10156114ec5760405162461bcd60e51b815260206004820152603760248201527f436c61696d206d757374207761697420666f722073657175656e63657244656c60448201527f617920616e64206368616c6c656e6765506572696f642e00000000000000000060648201526084016106b9565b6005548211156115485760058290556000828152600660205260409081902054600455517ff786e7f77ede00a02a5464f8f0555798f42ba99a4a920ef2778db8d75e4656f79061153f9084815260200190565b60405180910390a15b506000908152600660205260409020600101805460ff60c01b1916600160c01b179055565b336001600160a01b037f000000000000000000000000000000000000000000000000000000000000000061111161111160901b010116146115c05760405162461bcd60e51b81526004016106b990611e22565b80600354106116085760405162461bcd60e51b815260206004820152601460248201527326b2b9b9b0b3b29034b99037baba3230ba32b21760611b60448201526064016106b9565b81600154146107a157600182905560038190556040518281527f684f6fb71cbcb798156dcca2a95dbd142fa1f8957637833b1897ab89e05aa707906020016108b0565b7f0000000000000000000000000000000000000000000000000000000000000000600554017f0000000000000000000000000000000000000000000000000000000000000000428161169f5761169f611dd4565b0411156116e15760405162461bcd60e51b815260206004820152601060248201526f213934b233b29029b43aba3237bbb71760811b60448201526064016106b9565b336001600160a01b037f000000000000000000000000000000000000000000000000000000000000000061111161111160901b010116146117345760405162461bcd60e51b81526004016106b990611e22565b6005548211801561174457508015155b1561178757600582905560048190556040518281527ff786e7f77ede00a02a5464f8f0555798f42ba99a4a920ef2778db8d75e4656f79060200160405180910390a15b6000828152600660205260409020548015611809578181036117c95750506000908152600660205260409020600101805460ff60c01b1916600160c01b179055565b6000838152600760205260409020546001600160a01b031615611809576000838152600660205260409020600101805460ff60c01b1916600160c11b1790555b505050565b6000818152600760205260409020546001600160a01b0316156118735760405162461bcd60e51b815260206004820152601960248201527f436c61696d20616c7265616479206368616c6c656e6765642e0000000000000060448201526064016106b9565b6000818152600660205260409020600101546001600160a01b03166118d05760405162461bcd60e51b815260206004820152601360248201527227379031b630b4b6903337b91032b837b1b41760691b60448201526064016106b9565b7f00000000000000000000000000000000000000000000000000000000000000003410156119405760405162461bcd60e51b815260206004820152601f60248201527f496e73756666696369656e74206368616c6c656e6765206465706f7369742e0060448201526064016106b9565b6000818152600760205260409081902080546001600160a01b0319163390811790915590517fcfe09ca25f55d949baba5e280f5750c9ba4b9048fca5532f916067d433afe4d7906119949084815260200190565b60405180910390a27f0000000000000000000000000000000000000000000000000000000000000000341115611a115760006119f07f000000000000000000000000000000000000000000000000000000000000000034611e6c565b604051909150339082156108fc029083906000818181858888f15050505050505b50565b6002600082815260066020526040902060010154600160c01b900460ff166002811115611a4357611a43611d6f565b14611a905760405162461bcd60e51b815260206004820152601760248201527f4368616c6c656e676520756e7375636365737366756c2e00000000000000000060448201526064016106b9565b600081815260076020818152604080842080546006845282862086815560010180546001600160c81b03191690559390925281546001600160a01b031916909155516001600160a01b0390911691907f000000000000000000000000000000000000000000000000000000000000000080156108fc029183818181858288f150506040516001600160a01b03851693507f000000000000000000000000000000000000000000000000000000000000000080156108fc02935091506000818181858888f150505050505050565b600060208284031215611b6f57600080fd5b5035919050565b60008060408385031215611b8957600080fd5b50508035926020909101359150565b634e487b7160e01b600052604160045260246000fd5b604051601f8201601f1916810167ffffffffffffffff81118282101715611bd757611bd7611b98565b604052919050565b803567ffffffffffffffff81168114611bf757600080fd5b919050565b80356001600160a01b0381168114611bf757600080fd5b600082601f830112611c2457600080fd5b813567ffffffffffffffff811115611c3e57611c3e611b98565b611c51601f8201601f1916602001611bae565b818152846020838601011115611c6657600080fd5b816020850160208301376000918101602001919091529392505050565b60008060008060808587031215611c9957600080fd5b843567ffffffffffffffff80821115611cb157600080fd5b818701915087601f830112611cc557600080fd5b8135602082821115611cd957611cd9611b98565b8160051b611ce8828201611bae565b928352848101820192828101908c851115611d0257600080fd5b958301955b84871015611d2057863582529583019590830190611d07565b9950611d30915050898201611bdf565b96505050611d4060408801611bfc565b93506060870135915080821115611d5657600080fd5b50611d6387828801611c13565b91505092959194509250565b634e487b7160e01b600052602160045260246000fd5b8481526001600160a01b038416602082015263ffffffff831660408201526080810160038310611dc557634e487b7160e01b600052602160045260246000fd5b82606083015295945050505050565b634e487b7160e01b600052601260045260246000fd5b634e487b7160e01b600052601160045260246000fd5b600082611e1d57634e487b7160e01b600052601260045260246000fd5b500490565b6020808252601a908201527f4f6e6c79204c3120726f75746572476e6f736973546f4172622e000000000000604082015260600190565b8082018082111561115157611151611dea565b8181038181111561115157611151611dea565b6000815160005b81811015611ea05760208185018101518683015201611e86565b50600093019283525090919050565b60c084901b6001600160c01b0319168152606083901b6bffffffffffffffffffffffff191660088201526000611ee8601c830184611e7f565b95945050505050565b634e487b7160e01b600052603260045260246000fd5b6000611f138284611e7f565b9392505050565b808202811582820484141761115157611151611dea56fea2646970667358221220b3a0ad6e5b33584be6c506b8e5587809023ef0fb13c2f526379a2268554b5d3e64736f6c63430008120033",
  "devdoc": {
    "details": "Vea Outbox From Gnosis to Arbitrum. Note: This contract is deployed on Arbitrum.",
    "events": {
      "Challenged(uint256,address)": {
        "details": "This event indicates that `sendSnapshot(epoch)` should be called in the inbox.",
        "params": {
          "_challenger": "The address of the challenger.",
          "_epoch": "The epoch associated with the challenged claim."
        }
      },
      "Claimed(address,bytes32)": {
        "details": "Watcher check this event to challenge fraud.",
        "params": {
          "_claimer": "The address of the claimer.",
          "_stateRoot": "The state root of the claim."
        }
      },
      "MessageRelayed(uint64)": {
        "details": "This event indicates that a message has been relayed.",
        "params": {
          "_msgId": "The msgId of the message that was relayed."
        }
      },
      "Verified(uint256)": {
        "details": "This events indicates that verification has succeeded. The messages are ready to be relayed.",
        "params": {
          "_epoch": "The epoch that was verified."
        }
      },
      "sequencerDelayLimitUpdateReceived(uint256)": {
        "details": "This event indicates the sequencer limit updated.",
        "params": {
          "_newsequencerDelayLimit": "The new maxL2StateSyncDelay."
        }
      }
    },
    "kind": "dev",
    "methods": {
      "challenge(uint256)": {
        "details": "Submit a challenge for the claim of the inbox state root snapshot taken at 'epoch'.",
        "params": {
          "_epoch": "The epoch of the claim to challenge."
        }
      },
      "claim(uint256,bytes32)": {
        "details": "Submit a claim about the _stateRoot at _epoch and submit a deposit.",
        "params": {
          "_epoch": "The epoch for which the claim is made.",
          "_stateRoot": "The state root to claim."
        }
      },
      "constructor": {
        "details": "Constructor. Note: epochPeriod must match the VeaInboxGnosisToArb contract deployment on Arbitrum, since it's on a different chain, we can't read it and trust the deployer to set a correct value",
        "params": {
          "_challengePeriod": "The duration of the period allowing to challenge a claim.",
          "_deposit": "The deposit amount to submit a claim in wei.",
          "_epochPeriod": "The duration of each epoch.",
          "_maxClaimDelayEpochs": "The maximum number of epochs that can be claimed in the past.",
          "_maxClaimFutureEpochs": "The maximum number of epochs that can be claimed in the future.",
          "_routerGnosisToArb": "The address of the router on Ethereum that routes from Arbitrum to Ethereum.",
          "_sequencerDelayLimit": "The maximum delay in seconds that the Arbitrum sequencer can backdate transactions.",
          "_sequencerFutureLimit": "The maximum delay in seconds that the Arbitrum sequencer can futuredate transactions.",
          "_timeoutEpochs": "The epochs before the bridge is considered shutdown."
        }
      },
      "epochAt(uint256)": {
        "details": "Get the current epoch from the outbox's point of view using the Ethereum L1 clock.",
        "returns": {
          "epoch": "The hash of the claim."
        }
      },
      "epochNow()": {
        "details": "Get the current epoch from the outbox's point of view using the Ethereum L1 clock.",
        "returns": {
          "epoch": "The hash of the claim."
        }
      },
      "resolveDisputedClaim(uint256,bytes32)": {
        "details": "Resolves any challenge of the optimistic claim for '_epoch'.",
        "params": {
          "_epoch": "The epoch to verify.",
          "_stateRoot": "The true state root for the epoch."
        }
      },
      "sendMessage(bytes32[],uint64,address,bytes)": {
        "details": "Verifies and relays the message. UNTRUSTED.",
        "params": {
          "_message": "The message encoded with header from VeaInbox.",
          "_msgId": "The zero based index of the message in the inbox.",
          "_proof": "The merkle proof to prove the message.",
          "_to": "The address of the contract on Gnosis to call."
        }
      },
      "updateSequencerDelayLimit(uint256,uint256)": {
        "details": "Set the sequencerDelayLimit by reading from the Arbitrum Bridge",
        "params": {
          "_newSequencerDelayLimit": "The delaySeconds from the MaxTimeVariation struct in the Arbitrum Sequencer contract.",
          "_timestamp": "The timestamp of the message."
        }
      },
      "updateSequencerFutureLimit(uint256,uint256)": {
        "details": "Set the sequencerFutureLimit by reading from the Arbitrum Bridge",
        "params": {
          "_newSequencerFutureLimit": "The delaySeconds from the MaxTimeVariation struct in the Arbitrum Sequencer contract.",
          "_timestamp": "The timestamp of the message."
        }
      },
      "verifySnapshot(uint256)": {
        "details": "Resolves the optimistic claim for '_epoch'.",
        "params": {
          "_epoch": "The epoch of the optimistic claim."
        }
      },
      "withdrawChallengeDeposit(uint256)": {
        "details": "Sends the deposit back to the Challenger if successful. Includes a portion of the Bridger's deposit.",
        "params": {
          "_epoch": "The epoch associated with the challenge deposit to withraw."
        }
      },
      "withdrawChallengerEscapeHatch(uint256)": {
        "details": "When bridge is shutdown, no claim disputes can be resolved. This allows the challenger to withdraw their deposit.",
        "params": {
          "_epoch": "The epoch associated with the claim deposit to withraw."
        }
      },
      "withdrawClaimDeposit(uint256)": {
        "details": "Sends the deposit back to the Claimer if successful. Includes a portion of the Challenger's deposit if unsuccessfully challenged.",
        "params": {
          "_epoch": "The epoch associated with the claim deposit to withraw."
        }
      },
      "withdrawClaimerEscapeHatch(uint256)": {
        "details": "When bridge is shutdown, no claim disputes can be resolved. This allows the claimer to withdraw their deposit.",
        "params": {
          "_epoch": "The epoch associated with the claim deposit to withraw."
        }
      }
    },
    "version": 1
  },
  "userdoc": {
    "kind": "user",
    "methods": {
      "resolveDisputedClaim(uint256,bytes32)": {
        "notice": "Note: Access restricted to AMB."
      }
    },
    "version": 1
  },
  "storageLayout": {
    "storage": [
      {
        "astId": 8531,
        "contract": "src/gnosisToArbitrum/VeaOutboxGnosisToArb.sol:VeaOutboxGnosisToArb",
        "label": "sequencerDelayLimit",
        "offset": 0,
        "slot": "0",
        "type": "t_uint256"
      },
      {
        "astId": 8533,
        "contract": "src/gnosisToArbitrum/VeaOutboxGnosisToArb.sol:VeaOutboxGnosisToArb",
        "label": "sequencerFutureLimit",
        "offset": 0,
        "slot": "1",
        "type": "t_uint256"
      },
      {
        "astId": 8535,
        "contract": "src/gnosisToArbitrum/VeaOutboxGnosisToArb.sol:VeaOutboxGnosisToArb",
        "label": "timestampDelayUpdated",
        "offset": 0,
        "slot": "2",
        "type": "t_uint256"
      },
      {
        "astId": 8537,
        "contract": "src/gnosisToArbitrum/VeaOutboxGnosisToArb.sol:VeaOutboxGnosisToArb",
        "label": "timestampFutureUpdated",
        "offset": 0,
        "slot": "3",
        "type": "t_uint256"
      },
      {
        "astId": 8539,
        "contract": "src/gnosisToArbitrum/VeaOutboxGnosisToArb.sol:VeaOutboxGnosisToArb",
        "label": "stateRoot",
        "offset": 0,
        "slot": "4",
        "type": "t_bytes32"
      },
      {
        "astId": 8541,
        "contract": "src/gnosisToArbitrum/VeaOutboxGnosisToArb.sol:VeaOutboxGnosisToArb",
        "label": "latestVerifiedEpoch",
        "offset": 0,
        "slot": "5",
        "type": "t_uint256"
      },
      {
        "astId": 8546,
        "contract": "src/gnosisToArbitrum/VeaOutboxGnosisToArb.sol:VeaOutboxGnosisToArb",
        "label": "claims",
        "offset": 0,
        "slot": "6",
        "type": "t_mapping(t_uint256,t_struct(Claim)8568_storage)"
      },
      {
        "astId": 8550,
        "contract": "src/gnosisToArbitrum/VeaOutboxGnosisToArb.sol:VeaOutboxGnosisToArb",
        "label": "challengers",
        "offset": 0,
        "slot": "7",
        "type": "t_mapping(t_uint256,t_address)"
      },
      {
        "astId": 8554,
        "contract": "src/gnosisToArbitrum/VeaOutboxGnosisToArb.sol:VeaOutboxGnosisToArb",
        "label": "relayed",
        "offset": 0,
        "slot": "8",
        "type": "t_mapping(t_uint256,t_bytes32)"
      }
    ],
    "types": {
      "t_address": {
        "encoding": "inplace",
        "label": "address",
        "numberOfBytes": "20"
      },
      "t_bytes32": {
        "encoding": "inplace",
        "label": "bytes32",
        "numberOfBytes": "32"
      },
      "t_enum(Party)8558": {
        "encoding": "inplace",
        "label": "enum VeaOutboxGnosisToArb.Party",
        "numberOfBytes": "1"
      },
      "t_mapping(t_uint256,t_address)": {
        "encoding": "mapping",
        "key": "t_uint256",
        "label": "mapping(uint256 => address)",
        "numberOfBytes": "32",
        "value": "t_address"
      },
      "t_mapping(t_uint256,t_bytes32)": {
        "encoding": "mapping",
        "key": "t_uint256",
        "label": "mapping(uint256 => bytes32)",
        "numberOfBytes": "32",
        "value": "t_bytes32"
      },
      "t_mapping(t_uint256,t_struct(Claim)8568_storage)": {
        "encoding": "mapping",
        "key": "t_uint256",
        "label": "mapping(uint256 => struct VeaOutboxGnosisToArb.Claim)",
        "numberOfBytes": "32",
        "value": "t_struct(Claim)8568_storage"
      },
      "t_struct(Claim)8568_storage": {
        "encoding": "inplace",
        "label": "struct VeaOutboxGnosisToArb.Claim",
        "members": [
          {
            "astId": 8560,
            "contract": "src/gnosisToArbitrum/VeaOutboxGnosisToArb.sol:VeaOutboxGnosisToArb",
            "label": "stateRoot",
            "offset": 0,
            "slot": "0",
            "type": "t_bytes32"
          },
          {
            "astId": 8562,
            "contract": "src/gnosisToArbitrum/VeaOutboxGnosisToArb.sol:VeaOutboxGnosisToArb",
            "label": "claimer",
            "offset": 0,
            "slot": "1",
            "type": "t_address"
          },
          {
            "astId": 8564,
            "contract": "src/gnosisToArbitrum/VeaOutboxGnosisToArb.sol:VeaOutboxGnosisToArb",
            "label": "timestamp",
            "offset": 20,
            "slot": "1",
            "type": "t_uint32"
          },
          {
            "astId": 8567,
            "contract": "src/gnosisToArbitrum/VeaOutboxGnosisToArb.sol:VeaOutboxGnosisToArb",
            "label": "honest",
            "offset": 24,
            "slot": "1",
            "type": "t_enum(Party)8558"
          }
        ],
        "numberOfBytes": "64"
      },
      "t_uint256": {
        "encoding": "inplace",
        "label": "uint256",
        "numberOfBytes": "32"
      },
      "t_uint32": {
        "encoding": "inplace",
        "label": "uint32",
        "numberOfBytes": "4"
      }
    }
  }
}