{
  "address": "0xE14fA0B3910CB0853E811375B9a6fcEEE32db521",
  "abi": [
    {
      "inputs": [
        {
          "internalType": "uint256",
          "name": "_deposit",
          "type": "uint256"
        },
        {
          "internalType": "uint256",
          "name": "_epochPeriod",
          "type": "uint256"
        },
        {
          "internalType": "uint256",
          "name": "_challengePeriod",
          "type": "uint256"
        },
        {
          "internalType": "uint256",
          "name": "_timeoutEpochs",
          "type": "uint256"
        },
        {
          "internalType": "address",
          "name": "_routerGnosisToArb",
          "type": "address"
        },
        {
          "internalType": "uint256",
          "name": "_sequencerDelayLimit",
          "type": "uint256"
        },
        {
          "internalType": "uint256",
          "name": "_sequencerFutureLimit",
          "type": "uint256"
        }
      ],
      "stateMutability": "nonpayable",
      "type": "constructor"
    },
    {
      "anonymous": false,
      "inputs": [
        {
          "indexed": true,
          "internalType": "uint256",
          "name": "_epoch",
          "type": "uint256"
        },
        {
          "indexed": true,
          "internalType": "address",
          "name": "_challenger",
          "type": "address"
        }
      ],
      "name": "Challenged",
      "type": "event"
    },
    {
      "anonymous": false,
      "inputs": [
        {
          "indexed": true,
          "internalType": "address",
          "name": "_claimer",
          "type": "address"
        },
        {
          "indexed": true,
          "internalType": "uint256",
          "name": "_epoch",
          "type": "uint256"
        },
        {
          "indexed": false,
          "internalType": "bytes32",
          "name": "_stateRoot",
          "type": "bytes32"
        }
      ],
      "name": "Claimed",
      "type": "event"
    },
    {
      "anonymous": false,
      "inputs": [
        {
          "indexed": false,
          "internalType": "uint64",
          "name": "_msgId",
          "type": "uint64"
        }
      ],
      "name": "MessageRelayed",
      "type": "event"
    },
    {
      "anonymous": false,
      "inputs": [
        {
          "indexed": true,
          "internalType": "uint256",
          "name": "_epoch",
          "type": "uint256"
        }
      ],
      "name": "Verified",
      "type": "event"
    },
    {
      "anonymous": false,
      "inputs": [
        {
          "indexed": false,
          "internalType": "uint256",
          "name": "_newSequencerDelayLimit",
          "type": "uint256"
        }
      ],
      "name": "sequencerDelayLimitUpdateReceived",
      "type": "event"
    },
    {
      "anonymous": false,
      "inputs": [
        {
          "indexed": false,
          "internalType": "uint256",
          "name": "_newSequencerFutureLimit",
          "type": "uint256"
        }
      ],
      "name": "sequencerFutureLimitUpdateReceived",
      "type": "event"
    },
    {
      "inputs": [],
      "name": "BURN_ADDRESS",
      "outputs": [
        {
          "internalType": "address",
          "name": "",
          "type": "address"
        }
      ],
      "stateMutability": "view",
      "type": "function"
    },
    {
      "inputs": [],
      "name": "burn",
      "outputs": [
        {
          "internalType": "uint256",
          "name": "",
          "type": "uint256"
        }
      ],
      "stateMutability": "view",
      "type": "function"
    },
    {
      "inputs": [
        {
          "internalType": "uint256",
          "name": "_epoch",
          "type": "uint256"
        },
        {
          "internalType": "bytes32",
          "name": "_disputedStateRoot",
          "type": "bytes32"
        }
      ],
      "name": "challenge",
      "outputs": [],
      "stateMutability": "payable",
      "type": "function"
    },
    {
      "inputs": [],
      "name": "challengePeriod",
      "outputs": [
        {
          "internalType": "uint256",
          "name": "",
          "type": "uint256"
        }
      ],
      "stateMutability": "view",
      "type": "function"
    },
    {
      "inputs": [
        {
          "internalType": "uint256",
          "name": "",
          "type": "uint256"
        }
      ],
      "name": "challengers",
      "outputs": [
        {
          "internalType": "address",
          "name": "",
          "type": "address"
        }
      ],
      "stateMutability": "view",
      "type": "function"
    },
    {
      "inputs": [
        {
          "internalType": "address",
          "name": "_devnetOperator",
          "type": "address"
        }
      ],
      "name": "changeDevnetOperator",
      "outputs": [],
      "stateMutability": "nonpayable",
      "type": "function"
    },
    {
      "inputs": [
        {
          "internalType": "uint256",
          "name": "_epoch",
          "type": "uint256"
        },
        {
          "internalType": "bytes32",
          "name": "_stateRoot",
          "type": "bytes32"
        }
      ],
      "name": "claim",
      "outputs": [],
      "stateMutability": "payable",
      "type": "function"
    },
    {
      "inputs": [
        {
          "internalType": "uint256",
          "name": "",
          "type": "uint256"
        }
      ],
      "name": "claims",
      "outputs": [
        {
          "internalType": "bytes32",
          "name": "stateRoot",
          "type": "bytes32"
        },
        {
          "internalType": "address",
          "name": "claimer",
          "type": "address"
        },
        {
          "internalType": "uint32",
          "name": "timestamp",
          "type": "uint32"
        },
        {
          "internalType": "enum VeaOutboxGnosisToArb.Party",
          "name": "honest",
          "type": "uint8"
        }
      ],
      "stateMutability": "view",
      "type": "function"
    },
    {
      "inputs": [],
      "name": "deposit",
      "outputs": [
        {
          "internalType": "uint256",
          "name": "",
          "type": "uint256"
        }
      ],
      "stateMutability": "view",
      "type": "function"
    },
    {
      "inputs": [],
      "name": "depositPlusReward",
      "outputs": [
        {
          "internalType": "uint256",
          "name": "",
          "type": "uint256"
        }
      ],
      "stateMutability": "view",
      "type": "function"
    },
    {
      "inputs": [
        {
          "internalType": "uint256",
          "name": "_epoch",
          "type": "uint256"
        },
        {
          "internalType": "bytes32",
          "name": "_stateroot",
          "type": "bytes32"
        }
      ],
      "name": "devnetAdvanceState",
      "outputs": [],
      "stateMutability": "payable",
      "type": "function"
    },
    {
      "inputs": [],
      "name": "devnetOperator",
      "outputs": [
        {
          "internalType": "address",
          "name": "",
          "type": "address"
        }
      ],
      "stateMutability": "view",
      "type": "function"
    },
    {
      "inputs": [
        {
          "internalType": "uint256",
          "name": "timestamp",
          "type": "uint256"
        }
      ],
      "name": "epochAt",
      "outputs": [
        {
          "internalType": "uint256",
          "name": "epoch",
          "type": "uint256"
        }
      ],
      "stateMutability": "view",
      "type": "function"
    },
    {
      "inputs": [],
      "name": "epochNow",
      "outputs": [
        {
          "internalType": "uint256",
          "name": "epoch",
          "type": "uint256"
        }
      ],
      "stateMutability": "view",
      "type": "function"
    },
    {
      "inputs": [],
      "name": "epochPeriod",
      "outputs": [
        {
          "internalType": "uint256",
          "name": "",
          "type": "uint256"
        }
      ],
      "stateMutability": "view",
      "type": "function"
    },
    {
      "inputs": [
        {
          "internalType": "uint256",
          "name": "_msgId",
          "type": "uint256"
        }
      ],
      "name": "isMsgRelayed",
      "outputs": [
        {
          "internalType": "bool",
          "name": "isRelayed",
          "type": "bool"
        }
      ],
      "stateMutability": "view",
      "type": "function"
    },
    {
      "inputs": [],
      "name": "latestVerifiedEpoch",
      "outputs": [
        {
          "internalType": "uint256",
          "name": "",
          "type": "uint256"
        }
      ],
      "stateMutability": "view",
      "type": "function"
    },
    {
      "inputs": [
        {
          "internalType": "uint256",
          "name": "_epoch",
          "type": "uint256"
        },
        {
          "internalType": "bytes32",
          "name": "_stateRoot",
          "type": "bytes32"
        }
      ],
      "name": "resolveDisputedClaim",
      "outputs": [],
      "stateMutability": "nonpayable",
      "type": "function"
    },
    {
      "inputs": [],
      "name": "routerGnosisToArb",
      "outputs": [
        {
          "internalType": "address",
          "name": "",
          "type": "address"
        }
      ],
      "stateMutability": "view",
      "type": "function"
    },
    {
      "inputs": [
        {
          "internalType": "bytes32[]",
          "name": "_proof",
          "type": "bytes32[]"
        },
        {
          "internalType": "uint64",
          "name": "_msgId",
          "type": "uint64"
        },
        {
          "internalType": "address",
          "name": "_to",
          "type": "address"
        },
        {
          "internalType": "bytes",
          "name": "_message",
          "type": "bytes"
        }
      ],
      "name": "sendMessage",
      "outputs": [],
      "stateMutability": "nonpayable",
      "type": "function"
    },
    {
      "inputs": [],
      "name": "sequencerDelayLimit",
      "outputs": [
        {
          "internalType": "uint256",
          "name": "",
          "type": "uint256"
        }
      ],
      "stateMutability": "view",
      "type": "function"
    },
    {
      "inputs": [],
      "name": "sequencerFutureLimit",
      "outputs": [
        {
          "internalType": "uint256",
          "name": "",
          "type": "uint256"
        }
      ],
      "stateMutability": "view",
      "type": "function"
    },
    {
      "inputs": [],
      "name": "stateRoot",
      "outputs": [
        {
          "internalType": "bytes32",
          "name": "",
          "type": "bytes32"
        }
      ],
      "stateMutability": "view",
      "type": "function"
    },
    {
      "inputs": [],
      "name": "timeoutEpochs",
      "outputs": [
        {
          "internalType": "uint256",
          "name": "",
          "type": "uint256"
        }
      ],
      "stateMutability": "view",
      "type": "function"
    },
    {
      "inputs": [],
      "name": "timestampDelayUpdated",
      "outputs": [
        {
          "internalType": "uint256",
          "name": "",
          "type": "uint256"
        }
      ],
      "stateMutability": "view",
      "type": "function"
    },
    {
      "inputs": [],
      "name": "timestampFutureUpdated",
      "outputs": [
        {
          "internalType": "uint256",
          "name": "",
          "type": "uint256"
        }
      ],
      "stateMutability": "view",
      "type": "function"
    },
    {
      "inputs": [
        {
          "internalType": "uint256",
          "name": "_newSequencerDelayLimit",
          "type": "uint256"
        },
        {
          "internalType": "uint256",
          "name": "_timestamp",
          "type": "uint256"
        }
      ],
      "name": "updateSequencerDelayLimit",
      "outputs": [],
      "stateMutability": "nonpayable",
      "type": "function"
    },
    {
      "inputs": [
        {
          "internalType": "uint256",
          "name": "_newSequencerFutureLimit",
          "type": "uint256"
        },
        {
          "internalType": "uint256",
          "name": "_timestamp",
          "type": "uint256"
        }
      ],
      "name": "updateSequencerFutureLimit",
      "outputs": [],
      "stateMutability": "nonpayable",
      "type": "function"
    },
    {
      "inputs": [
        {
          "internalType": "uint256",
          "name": "_epoch",
          "type": "uint256"
        }
      ],
      "name": "verifySnapshot",
      "outputs": [],
      "stateMutability": "nonpayable",
      "type": "function"
    },
    {
      "inputs": [
        {
          "internalType": "uint256",
          "name": "_epoch",
          "type": "uint256"
        }
      ],
      "name": "withdrawChallengeDeposit",
      "outputs": [],
      "stateMutability": "nonpayable",
      "type": "function"
    },
    {
      "inputs": [
        {
          "internalType": "uint256",
          "name": "_epoch",
          "type": "uint256"
        }
      ],
      "name": "withdrawChallengerEscapeHatch",
      "outputs": [],
      "stateMutability": "nonpayable",
      "type": "function"
    },
    {
      "inputs": [
        {
          "internalType": "uint256",
          "name": "_epoch",
          "type": "uint256"
        }
      ],
      "name": "withdrawClaimDeposit",
      "outputs": [],
      "stateMutability": "nonpayable",
      "type": "function"
    },
    {
      "inputs": [
        {
          "internalType": "uint256",
          "name": "_epoch",
          "type": "uint256"
        }
      ],
      "name": "withdrawClaimerEscapeHatch",
      "outputs": [],
      "stateMutability": "nonpayable",
      "type": "function"
    }
  ],
  "transactionHash": "0x846e791b916c3b4189e457d2d8d747bdf2203bc8409583c7af551f30334f213e",
  "args": [
    "100000000000000000",
    1800,
    0,
    10000000000000,
    "0xcC196cC90bD30109E39400817e6ef63A1b744659",
    86400,
    3600
  ],
  "numDeployments": 10,
  "solcInputHash": "18d8b299616ba6ea1bb506a660a35de5",
  "bytecode": "0x6101606040523480156200001257600080fd5b5060405162002186380380620021868339810160408190526200003591620000e1565b60a08790526101008690526101208590526101408490526001600160a01b03831660805260008290556001819055868686868686866200007760028862000167565b60c0819052620000898860026200018a565b620000959190620001aa565b60e05261010051600190620000ab904262000167565b620000b79190620001aa565b6005555050600980546001600160a01b0319163317905550620001c09a5050505050505050505050565b600080600080600080600060e0888a031215620000fd57600080fd5b8751602089015160408a015160608b015160808c0151939a50919850965094506001600160a01b03811681146200013357600080fd5b8093505060a0880151915060c0880151905092959891949750929550565b634e487b7160e01b600052601160045260246000fd5b6000826200018557634e487b7160e01b600052601260045260246000fd5b500490565b8082028115828204841417620001a457620001a462000151565b92915050565b81810381811115620001a457620001a462000151565b60805160a05160c05160e051610100516101205161014051611eae620002d860003960008181610578015281816108d20152818161104801528181611378015261176b01526000818161068701526114c70152600081816105ac015281816108f601528181610a4d0152818161106c015281816111ca0152818161139c015261178f015260008181610467015281816112f30152611a4e01526000818161032f015281816112b20152611a0d0152600081816105e00152818161079d015281816108590152818161088601528181610a0e01528181610b7601528181610d5501528181610d820152818161118b015261133e01526000818161064001528181610a8201528181611603015261180a0152611eae6000f3fe6080604052600436106101ee5760003560e01c80637ffc2a6e1161010d578063b5b7a184116100a0578063eb8dedfa1161006f578063eb8dedfa1461062e578063eedcf2a914610662578063f3f480d914610675578063f4cf751b146106a9578063fccc2813146106c957600080fd5b8063b5b7a1841461059a578063d0e30db0146105ce578063d6e01b3914610602578063e813a7551461061857600080fd5b80638caeb7a8116100dc5780638caeb7a8146104c95780639588eca2146104e9578063a888c2cd146104ff578063b044397e1461056657600080fd5b80637ffc2a6e1461043f578063836e344b146104555780638a619a71146104895780638ad3a8f7146104a957600080fd5b806343b066d51161018557806350b81dbe1161015457806350b81dbe1461039157806364962849146103b15780636b45ebcb146103d1578063710cc9a71461041f57600080fd5b806343b066d5146102cf57806344df8e701461031d5780634518f79f146103515780634a439cfe1461037157600080fd5b806327ee6bdd116101c157806327ee6bdd146102665780632c1925191461027c57806331d144571461029c57806331ddf743146102af57600080fd5b806302b2f7c7146101f35780630e56752e14610208578063114095d314610231578063222ae78614610251575b600080fd5b610206610201366004611a89565b6106de565b005b34801561021457600080fd5b5061021e60015481565b6040519081526020015b60405180910390f35b34801561023d57600080fd5b5061020661024c366004611aab565b6108d0565b34801561025d57600080fd5b5061021e610a46565b34801561027257600080fd5b5061021e60055481565b34801561028857600080fd5b50610206610297366004611a89565b610a77565b6102066102aa366004611a89565b610b5d565b3480156102bb57600080fd5b506102066102ca366004611baf565b610da7565b3480156102db57600080fd5b5061030d6102ea366004611aab565b600881811c60009081526020919091526040902054600160ff9092161c81161490565b6040519015158152602001610228565b34801561032957600080fd5b5061021e7f000000000000000000000000000000000000000000000000000000000000000081565b34801561035d57600080fd5b5061020661036c366004611aab565b611046565b34801561037d57600080fd5b5061021e61038c366004611aab565b6111c3565b34801561039d57600080fd5b506102066103ac366004611aab565b6111f5565b3480156103bd57600080fd5b506102066103cc366004611aab565b611376565b3480156103dd57600080fd5b506104076103ec366004611aab565b6007602052600090815260409020546001600160a01b031681565b6040516001600160a01b039091168152602001610228565b34801561042b57600080fd5b5061020661043a366004611a89565b6115f8565b34801561044b57600080fd5b5061021e60025481565b34801561046157600080fd5b5061021e7f000000000000000000000000000000000000000000000000000000000000000081565b34801561049557600080fd5b506102066104a4366004611c9b565b6116d6565b3480156104b557600080fd5b50600954610407906001600160a01b031681565b3480156104d557600080fd5b506102066104e4366004611a89565b611769565b3480156104f557600080fd5b5061021e60045481565b34801561050b57600080fd5b5061055661051a366004611aab565b600660205260009081526040902080546001909101546001600160a01b03811690600160a01b810463ffffffff1690600160c01b900460ff1684565b6040516102289493929190611cd3565b34801561057257600080fd5b5061021e7f000000000000000000000000000000000000000000000000000000000000000081565b3480156105a657600080fd5b5061021e7f000000000000000000000000000000000000000000000000000000000000000081565b3480156105da57600080fd5b5061021e7f000000000000000000000000000000000000000000000000000000000000000081565b34801561060e57600080fd5b5061021e60035481565b34801561062457600080fd5b5061021e60005481565b34801561063a57600080fd5b506104077f000000000000000000000000000000000000000000000000000000000000000081565b610206610670366004611a89565b611924565b34801561068157600080fd5b5061021e7f000000000000000000000000000000000000000000000000000000000000000081565b3480156106b557600080fd5b506102066106c4366004611aab565b611940565b3480156106d557600080fd5b50610407600081565b6000828152600760205260409020546001600160a01b0316156107485760405162461bcd60e51b815260206004820152601960248201527f436c61696d20616c7265616479206368616c6c656e6765642e0000000000000060448201526064015b60405180910390fd5b600082815260066020526040902054811461079b5760405162461bcd60e51b815260206004820152601360248201527227379031b630b4b6903337b91032b837b1b41760691b604482015260640161073f565b7f000000000000000000000000000000000000000000000000000000000000000034101561080b5760405162461bcd60e51b815260206004820152601f60248201527f496e73756666696369656e74206368616c6c656e6765206465706f7369742e00604482015260640161073f565b60008281526007602052604080822080546001600160a01b031916339081179091559051909184917fcfe09ca25f55d949baba5e280f5750c9ba4b9048fca5532f916067d433afe4d79190a37f00000000000000000000000000000000000000000000000000000000000000003411156108cc5760006108ab7f000000000000000000000000000000000000000000000000000000000000000034611d38565b604051909150339082156108fc029083906000818181858888f15050505050505b5050565b7f00000000000000000000000000000000000000000000000000000000000000006005547f0000000000000000000000000000000000000000000000000000000000000000428161092357610923611d4b565b0403116109645760405162461bcd60e51b815260206004820152600f60248201526e213934b233b290293ab73734b7339760891b604482015260640161073f565b60008082815260066020526040902060010154600160c01b900460ff16600281111561099257610992611cbd565b146109d15760405162461bcd60e51b815260206004820152600f60248201526e21b630b4b6903932b9b7b63b32b21760891b604482015260640161073f565b600081815260076020526040902080546001600160a01b031981169091556001600160a01b031680156108cc576040516001600160a01b038216907f000000000000000000000000000000000000000000000000000000000000000080156108fc02916000818181858888f150505050505050565b6000610a727f000000000000000000000000000000000000000000000000000000000000000042611d61565b905090565b336001600160a01b037f000000000000000000000000000000000000000000000000000000000000000061111161111160901b01011614610aca5760405162461bcd60e51b815260040161073f90611d83565b8060025410610b125760405162461bcd60e51b815260206004820152601460248201527326b2b9b9b0b3b29034b99037baba3230ba32b21760611b604482015260640161073f565b81600054146108cc57600082905560028190556040518281527f684f6fb71cbcb798156dcca2a95dbd142fa1f8957637833b1897ab89e05aa707906020015b60405180910390a15050565b6009546001600160a01b03163314610b7457600080fd5b7f0000000000000000000000000000000000000000000000000000000000000000341015610be45760405162461bcd60e51b815260206004820152601b60248201527f496e73756666696369656e7420636c61696d206465706f7369742e0000000000604482015260640161073f565b80610c225760405162461bcd60e51b815260206004820152600e60248201526d24b73b30b634b21031b630b4b69760911b604482015260640161073f565b6000828152600660205260409020600101546001600160a01b031615610c805760405162461bcd60e51b815260206004820152601360248201527221b630b4b69030b63932b0b23c9036b0b2329760691b604482015260640161073f565b6040805160808101825282815233602080830191825263ffffffff4281168486019081526000606086018181528982526006909452959095208451815592516001840180549651909216600160a01b026001600160c01b03199096166001600160a01b039091161794909417808555905192939192919060ff60c01b1916600160c01b836002811115610d1557610d15611cbd565b02179055505060405182815283915033907fd95107f4584744c6c893a04c43058aadd1ce8aac8ca5d64140eaf277de6c1d579060200160405180910390a37f00000000000000000000000000000000000000000000000000000000000000003411156108cc5760006108ab7f000000000000000000000000000000000000000000000000000000000000000034611d38565b6040845110610dea5760405162461bcd60e51b815260206004820152600f60248201526e283937b7b3103a37b7903637b7339760891b604482015260640161073f565b6000838383604051602001610e0193929190611dea565b604051602081830303815290604052805190602001209050806000526020600020905060005b8551811015610e83576000868281518110610e4457610e44611e2c565b6020026020010151905082811115610e6a57826000528060205260406000209250610e7a565b8060005282602052604060002092505b50600101610e27565b508060045414610ec65760405162461bcd60e51b815260206004820152600e60248201526d24b73b30b634b210383937b7b31760911b604482015260640161073f565b600884811c66ffffffffffffff16600081815260209290925260409091205460ff86169080821c60011615610f3d5760405162461bcd60e51b815260206004820152601760248201527f4d65737361676520616c72656164792072656c61796564000000000000000000604482015260640161073f565b6000838152600860205260408082206001851b84179055516001600160a01b03881690610f6b908890611e42565b6000604051808303816000865af19150503d8060008114610fa8576040519150601f19603f3d011682016040523d82523d6000602084013e610fad565b606091505b5050905080610ffe5760405162461bcd60e51b815260206004820152601760248201527f4661696c656420746f2063616c6c20636f6e7472616374000000000000000000604482015260640161073f565b60405167ffffffffffffffff891681527f54303fab361bc52c2f1f56ace7351189582264f74ce47a6e7c3f478d64c429439060200160405180910390a1505050505050505050565b7f00000000000000000000000000000000000000000000000000000000000000006005547f0000000000000000000000000000000000000000000000000000000000000000428161109957611099611d4b565b0403116110da5760405162461bcd60e51b815260206004820152600f60248201526e213934b233b290293ab73734b7339760891b604482015260640161073f565b60008082815260066020526040902060010154600160c01b900460ff16600281111561110857611108611cbd565b146111475760405162461bcd60e51b815260206004820152600f60248201526e21b630b4b6903932b9b7b63b32b21760891b604482015260640161073f565b6000818152600660205260408120600181018054929091556001600160c81b0319821690556001600160a01b031680156108cc576040516001600160a01b038216907f000000000000000000000000000000000000000000000000000000000000000080156108fc02916000818181858888f150505050505050565b60006111ef7f000000000000000000000000000000000000000000000000000000000000000083611d61565b92915050565b6001600082815260066020526040902060010154600160c01b900460ff16600281111561122457611224611cbd565b146112675760405162461bcd60e51b815260206004820152601360248201527221b630b4b6903ab739bab1b1b2b9b9b33ab61760691b604482015260640161073f565b6000818152600660209081526040808320600181018054918590556001600160c81b0319821690556007909252909120546001600160a01b0391821691161561132e576040516000907f000000000000000000000000000000000000000000000000000000000000000080156108fc029183818181858288f150506040516001600160a01b03851693507f000000000000000000000000000000000000000000000000000000000000000080156108fc02935091506000818181858888f150505050505050565b6040516001600160a01b038216907f000000000000000000000000000000000000000000000000000000000000000080156108fc02916000818181858888f150505050505050565b7f00000000000000000000000000000000000000000000000000000000000000006005547f000000000000000000000000000000000000000000000000000000000000000042816113c9576113c9611d4b565b0403111561140c5760405162461bcd60e51b815260206004820152601060248201526f213934b233b29029b43aba3237bbb71760811b604482015260640161073f565b600081815260066020526040902060010154600160a01b900463ffffffff16806114695760405162461bcd60e51b815260206004820152600e60248201526d24b73b30b634b21031b630b4b69760911b604482015260640161073f565b6000828152600760205260409020546001600160a01b0316156114c55760405162461bcd60e51b815260206004820152601460248201527321b630b4b69034b99031b430b63632b733b2b21760611b604482015260640161073f565b7f000000000000000000000000000000000000000000000000000000000000000060015460005460026114f89190611e4e565b6115029190611e65565b61150c9190611e65565b6115168242611d38565b101561158a5760405162461bcd60e51b815260206004820152603760248201527f436c61696d206d757374207761697420666f722073657175656e63657244656c60448201527f617920616e64206368616c6c656e6765506572696f642e000000000000000000606482015260840161073f565b6005548211156115d3576005829055600082815260066020526040808220546004555183917ff786e7f77ede00a02a5464f8f0555798f42ba99a4a920ef2778db8d75e4656f791a25b506000908152600660205260409020600101805460ff60c01b1916600160c01b179055565b336001600160a01b037f000000000000000000000000000000000000000000000000000000000000000061111161111160901b0101161461164b5760405162461bcd60e51b815260040161073f90611d83565b80600354106116935760405162461bcd60e51b815260206004820152601460248201527326b2b9b9b0b3b29034b99037baba3230ba32b21760611b604482015260640161073f565b81600154146108cc57600182905560038190556040518281527f5328ca176e0092ea14be7c843a94b093c0fe88c93d9c01ab0f0281d9e62e405590602001610b51565b6009546001600160a01b031633146116ed57600080fd5b6009546001600160a01b031633146117475760405162461bcd60e51b815260206004820152601860248201527f496e76616c696420546573746e6574204f70657261746f720000000000000000604482015260640161073f565b600980546001600160a01b0319166001600160a01b0392909216919091179055565b7f00000000000000000000000000000000000000000000000000000000000000006005547f000000000000000000000000000000000000000000000000000000000000000042816117bc576117bc611d4b565b040311156117ff5760405162461bcd60e51b815260206004820152601060248201526f213934b233b29029b43aba3237bbb71760811b604482015260640161073f565b336001600160a01b037f000000000000000000000000000000000000000000000000000000000000000061111161111160901b010116146118525760405162461bcd60e51b815260040161073f90611d83565b6005548211801561186257508015155b1561189d576005829055600481905560405182907ff786e7f77ede00a02a5464f8f0555798f42ba99a4a920ef2778db8d75e4656f790600090a25b600082815260066020526040902054801561191f578181036118df5750506000908152600660205260409020600101805460ff60c01b1916600160c01b179055565b6000838152600760205260409020546001600160a01b03161561191f576000838152600660205260409020600101805460ff60c01b1916600160c11b1790555b505050565b61192e8282610b5d565b61193782611376565b6108cc826111f5565b6002600082815260066020526040902060010154600160c01b900460ff16600281111561196f5761196f611cbd565b146119bc5760405162461bcd60e51b815260206004820152601760248201527f4368616c6c656e676520756e7375636365737366756c2e000000000000000000604482015260640161073f565b600081815260076020818152604080842080546006845282862086815560010180546001600160c81b03191690559390925281546001600160a01b031916909155516001600160a01b0390911691907f000000000000000000000000000000000000000000000000000000000000000080156108fc029183818181858288f150506040516001600160a01b03851693507f000000000000000000000000000000000000000000000000000000000000000080156108fc02935091506000818181858888f150505050505050565b60008060408385031215611a9c57600080fd5b50508035926020909101359150565b600060208284031215611abd57600080fd5b5035919050565b634e487b7160e01b600052604160045260246000fd5b604051601f8201601f1916810167ffffffffffffffff81118282101715611b0357611b03611ac4565b604052919050565b803567ffffffffffffffff81168114611b2357600080fd5b919050565b80356001600160a01b0381168114611b2357600080fd5b600082601f830112611b5057600080fd5b813567ffffffffffffffff811115611b6a57611b6a611ac4565b611b7d601f8201601f1916602001611ada565b818152846020838601011115611b9257600080fd5b816020850160208301376000918101602001919091529392505050565b60008060008060808587031215611bc557600080fd5b843567ffffffffffffffff80821115611bdd57600080fd5b818701915087601f830112611bf157600080fd5b8135602082821115611c0557611c05611ac4565b8160051b611c14828201611ada565b928352848101820192828101908c851115611c2e57600080fd5b958301955b84871015611c4c57863582529583019590830190611c33565b9950611c5c915050898201611b0b565b96505050611c6c60408801611b28565b93506060870135915080821115611c8257600080fd5b50611c8f87828801611b3f565b91505092959194509250565b600060208284031215611cad57600080fd5b611cb682611b28565b9392505050565b634e487b7160e01b600052602160045260246000fd5b8481526001600160a01b038416602082015263ffffffff831660408201526080810160038310611d1357634e487b7160e01b600052602160045260246000fd5b82606083015295945050505050565b634e487b7160e01b600052601160045260246000fd5b818103818111156111ef576111ef611d22565b634e487b7160e01b600052601260045260246000fd5b600082611d7e57634e487b7160e01b600052601260045260246000fd5b500490565b6020808252601a908201527f4f6e6c79204c3120726f75746572476e6f736973546f4172622e000000000000604082015260600190565b6000815160005b81811015611ddb5760208185018101518683015201611dc1565b50600093019283525090919050565b60c084901b6001600160c01b0319168152606083901b6bffffffffffffffffffffffff191660088201526000611e23601c830184611dba565b95945050505050565b634e487b7160e01b600052603260045260246000fd5b6000611cb68284611dba565b80820281158282048414176111ef576111ef611d22565b808201808211156111ef576111ef611d2256fea2646970667358221220386d791c31a21c841928d78e81eafdfac0bf780f1b11812b6ce5bce9f12587fe64736f6c63430008120033",
  "devdoc": {
    "details": "Vea Outbox From Chiado to ArbitrumGoerli. Note: This contract is deployed on ArbitrumGoerli. Note: This contract is permissioned for developer testing (devnet).",
    "events": {
      "Challenged(uint256,address)": {
        "details": "This event indicates that `sendSnapshot(epoch)` should be called in the inbox.",
        "params": {
          "_challenger": "The address of the challenger.",
          "_epoch": "The epoch associated with the challenged claim."
        }
      },
      "Claimed(address,uint256,bytes32)": {
        "details": "Watchers check this event to challenge fraud.",
        "params": {
          "_claimer": "The address of the claimer.",
          "_epoch": "The epoch associated with the claim.",
          "_stateRoot": "The state root of the claim."
        }
      },
      "MessageRelayed(uint64)": {
        "details": "This event indicates that a message has been relayed.",
        "params": {
          "_msgId": "The msgId of the message that was relayed."
        }
      },
      "Verified(uint256)": {
        "details": "This events indicates that verification has succeeded. The messages are ready to be relayed.",
        "params": {
          "_epoch": "The epoch that was verified."
        }
      },
      "sequencerDelayLimitUpdateReceived(uint256)": {
        "details": "This event indicates the sequencer delay limit updated.",
        "params": {
          "_newSequencerDelayLimit": "The new max sequencer past timestamping power."
        }
      },
      "sequencerFutureLimitUpdateReceived(uint256)": {
        "details": "This event indicates the sequencer futue limit updated.",
        "params": {
          "_newSequencerFutureLimit": "The new max sequencer future timestamping power."
        }
      }
    },
    "kind": "dev",
    "methods": {
      "challenge(uint256,bytes32)": {
        "details": "Submit a challenge for the claim of the inbox state root snapshot taken at 'epoch'.",
        "params": {
          "_disputedStateRoot": "The claimed state root to challenge, included to ensure txn reverts if claim is removed due to a block reorg.",
          "_epoch": "The epoch of the claim to challenge."
        }
      },
      "changeDevnetOperator(address)": {
        "details": "Changes the devnet operator.",
        "params": {
          "_devnetOperator": "The new testnet operator."
        }
      },
      "claim(uint256,bytes32)": {
        "details": "Submit a claim about the _stateRoot at _epoch and submit a deposit.",
        "params": {
          "_epoch": "The epoch for which the claim is made.",
          "_stateRoot": "The state root to claim."
        }
      },
      "constructor": {
        "details": "Constructor. Note: epochPeriod must match the VeaInboxGnosisToArb contract deployment on Arbitrum, since it's on a different chain, we can't read it and trust the deployer to set a correct value",
        "params": {
          "_challengePeriod": "The duration of the period allowing to challenge a claim.",
          "_deposit": "The deposit amount to submit a claim in wei.",
          "_epochPeriod": "The duration of each epoch.",
          "_routerGnosisToArb": "The address of the router on Ethereum that routes from Arbitrum to Ethereum.",
          "_sequencerDelayLimit": "The maximum delay in seconds that the Arbitrum sequencer can backdate transactions.",
          "_sequencerFutureLimit": "The maximum delay in seconds that the Arbitrum sequencer can futuredate transactions.",
          "_timeoutEpochs": "The epochs before the bridge is considered shutdown."
        }
      },
      "devnetAdvanceState(uint256,bytes32)": {
        "details": "Testnet operator utility function to claim, validate and withdraw.",
        "params": {
          "_epoch": "The epoch for which the claim is made.",
          "_stateroot": "The state root to claim."
        }
      },
      "epochAt(uint256)": {
        "details": "Get the current epoch from the outbox's point of view using the Ethereum L1 clock.",
        "returns": {
          "epoch": "The hash of the claim."
        }
      },
      "epochNow()": {
        "details": "Get the current epoch from the outbox's point of view using the Ethereum L1 clock.",
        "returns": {
          "epoch": "The hash of the claim."
        }
      },
      "isMsgRelayed(uint256)": {
        "details": "Get the msg relayed status.",
        "params": {
          "_msgId": "The msgId to check."
        },
        "returns": {
          "isRelayed": "True if the msg was relayed."
        }
      },
      "resolveDisputedClaim(uint256,bytes32)": {
        "details": "Resolves any challenge of the optimistic claim for '_epoch'.",
        "params": {
          "_epoch": "The epoch to verify.",
          "_stateRoot": "The true state root for the epoch."
        }
      },
      "sendMessage(bytes32[],uint64,address,bytes)": {
        "details": "Verifies and relays the message. UNTRUSTED.",
        "params": {
          "_message": "The message encoded in the vea inbox as abi.encodeWithSelector(fnSelector, msg.sender, param1, param2, ...)",
          "_msgId": "The zero based index of the message in the inbox.",
          "_proof": "The merkle proof to prove the message inclusion in the inbox state root.",
          "_to": "The address of the contract on Arbitrum to call."
        }
      },
      "updateSequencerDelayLimit(uint256,uint256)": {
        "details": "Set the sequencerDelayLimit by reading from the Arbitrum Bridge",
        "params": {
          "_newSequencerDelayLimit": "The delaySeconds from the MaxTimeVariation struct in the Arbitrum Sequencer contract.",
          "_timestamp": "The timestamp of the message."
        }
      },
      "updateSequencerFutureLimit(uint256,uint256)": {
        "details": "Set the sequencerFutureLimit by reading from the Arbitrum Bridge",
        "params": {
          "_newSequencerFutureLimit": "The delaySeconds from the MaxTimeVariation struct in the Arbitrum Sequencer contract.",
          "_timestamp": "The timestamp of the message."
        }
      },
      "verifySnapshot(uint256)": {
        "details": "Resolves the optimistic claim for '_epoch'.",
        "params": {
          "_epoch": "The epoch of the optimistic claim."
        }
      },
      "withdrawChallengeDeposit(uint256)": {
        "details": "Sends the deposit back to the Challenger if successful. Includes a portion of the Bridger's deposit.",
        "params": {
          "_epoch": "The epoch associated with the challenge deposit to withraw."
        }
      },
      "withdrawChallengerEscapeHatch(uint256)": {
        "details": "When bridge is shutdown, no claim disputes can be resolved. This allows the challenger to withdraw their deposit.",
        "params": {
          "_epoch": "The epoch associated with the claim deposit to withraw."
        }
      },
      "withdrawClaimDeposit(uint256)": {
        "details": "Sends the deposit back to the Claimer if successful. Includes a portion of the Challenger's deposit if unsuccessfully challenged.",
        "params": {
          "_epoch": "The epoch associated with the claim deposit to withraw."
        }
      },
      "withdrawClaimerEscapeHatch(uint256)": {
        "details": "When bridge is shutdown, no claim disputes can be resolved. This allows the claimer to withdraw their deposit.",
        "params": {
          "_epoch": "The epoch associated with the claim deposit to withraw."
        }
      }
    },
    "version": 1
  },
  "userdoc": {
    "kind": "user",
    "methods": {
      "resolveDisputedClaim(uint256,bytes32)": {
        "notice": "Note: Access restricted to AMB."
      }
    },
    "version": 1
  },
  "storageLayout": {
    "storage": [
      {
        "astId": 4294,
        "contract": "src/devnets/gnosisToArbitrum/VeaOutboxGnosisToArbDevnet.sol:VeaOutboxGnosisToArbDevnet",
        "label": "sequencerDelayLimit",
        "offset": 0,
        "slot": "0",
        "type": "t_uint256"
      },
      {
        "astId": 4296,
        "contract": "src/devnets/gnosisToArbitrum/VeaOutboxGnosisToArbDevnet.sol:VeaOutboxGnosisToArbDevnet",
        "label": "sequencerFutureLimit",
        "offset": 0,
        "slot": "1",
        "type": "t_uint256"
      },
      {
        "astId": 4298,
        "contract": "src/devnets/gnosisToArbitrum/VeaOutboxGnosisToArbDevnet.sol:VeaOutboxGnosisToArbDevnet",
        "label": "timestampDelayUpdated",
        "offset": 0,
        "slot": "2",
        "type": "t_uint256"
      },
      {
        "astId": 4300,
        "contract": "src/devnets/gnosisToArbitrum/VeaOutboxGnosisToArbDevnet.sol:VeaOutboxGnosisToArbDevnet",
        "label": "timestampFutureUpdated",
        "offset": 0,
        "slot": "3",
        "type": "t_uint256"
      },
      {
        "astId": 4302,
        "contract": "src/devnets/gnosisToArbitrum/VeaOutboxGnosisToArbDevnet.sol:VeaOutboxGnosisToArbDevnet",
        "label": "stateRoot",
        "offset": 0,
        "slot": "4",
        "type": "t_bytes32"
      },
      {
        "astId": 4304,
        "contract": "src/devnets/gnosisToArbitrum/VeaOutboxGnosisToArbDevnet.sol:VeaOutboxGnosisToArbDevnet",
        "label": "latestVerifiedEpoch",
        "offset": 0,
        "slot": "5",
        "type": "t_uint256"
      },
      {
        "astId": 4309,
        "contract": "src/devnets/gnosisToArbitrum/VeaOutboxGnosisToArbDevnet.sol:VeaOutboxGnosisToArbDevnet",
        "label": "claims",
        "offset": 0,
        "slot": "6",
        "type": "t_mapping(t_uint256,t_struct(Claim)4331_storage)"
      },
      {
        "astId": 4313,
        "contract": "src/devnets/gnosisToArbitrum/VeaOutboxGnosisToArbDevnet.sol:VeaOutboxGnosisToArbDevnet",
        "label": "challengers",
        "offset": 0,
        "slot": "7",
        "type": "t_mapping(t_uint256,t_address)"
      },
      {
        "astId": 4317,
        "contract": "src/devnets/gnosisToArbitrum/VeaOutboxGnosisToArbDevnet.sol:VeaOutboxGnosisToArbDevnet",
        "label": "relayed",
        "offset": 0,
        "slot": "8",
        "type": "t_mapping(t_uint256,t_bytes32)"
      },
      {
        "astId": 3938,
        "contract": "src/devnets/gnosisToArbitrum/VeaOutboxGnosisToArbDevnet.sol:VeaOutboxGnosisToArbDevnet",
        "label": "devnetOperator",
        "offset": 0,
        "slot": "9",
        "type": "t_address"
      }
    ],
    "types": {
      "t_address": {
        "encoding": "inplace",
        "label": "address",
        "numberOfBytes": "20"
      },
      "t_bytes32": {
        "encoding": "inplace",
        "label": "bytes32",
        "numberOfBytes": "32"
      },
      "t_enum(Party)4321": {
        "encoding": "inplace",
        "label": "enum VeaOutboxGnosisToArb.Party",
        "numberOfBytes": "1"
      },
      "t_mapping(t_uint256,t_address)": {
        "encoding": "mapping",
        "key": "t_uint256",
        "label": "mapping(uint256 => address)",
        "numberOfBytes": "32",
        "value": "t_address"
      },
      "t_mapping(t_uint256,t_bytes32)": {
        "encoding": "mapping",
        "key": "t_uint256",
        "label": "mapping(uint256 => bytes32)",
        "numberOfBytes": "32",
        "value": "t_bytes32"
      },
      "t_mapping(t_uint256,t_struct(Claim)4331_storage)": {
        "encoding": "mapping",
        "key": "t_uint256",
        "label": "mapping(uint256 => struct VeaOutboxGnosisToArb.Claim)",
        "numberOfBytes": "32",
        "value": "t_struct(Claim)4331_storage"
      },
      "t_struct(Claim)4331_storage": {
        "encoding": "inplace",
        "label": "struct VeaOutboxGnosisToArb.Claim",
        "members": [
          {
            "astId": 4323,
            "contract": "src/devnets/gnosisToArbitrum/VeaOutboxGnosisToArbDevnet.sol:VeaOutboxGnosisToArbDevnet",
            "label": "stateRoot",
            "offset": 0,
            "slot": "0",
            "type": "t_bytes32"
          },
          {
            "astId": 4325,
            "contract": "src/devnets/gnosisToArbitrum/VeaOutboxGnosisToArbDevnet.sol:VeaOutboxGnosisToArbDevnet",
            "label": "claimer",
            "offset": 0,
            "slot": "1",
            "type": "t_address"
          },
          {
            "astId": 4327,
            "contract": "src/devnets/gnosisToArbitrum/VeaOutboxGnosisToArbDevnet.sol:VeaOutboxGnosisToArbDevnet",
            "label": "timestamp",
            "offset": 20,
            "slot": "1",
            "type": "t_uint32"
          },
          {
            "astId": 4330,
            "contract": "src/devnets/gnosisToArbitrum/VeaOutboxGnosisToArbDevnet.sol:VeaOutboxGnosisToArbDevnet",
            "label": "honest",
            "offset": 24,
            "slot": "1",
            "type": "t_enum(Party)4321"
          }
        ],
        "numberOfBytes": "64"
      },
      "t_uint256": {
        "encoding": "inplace",
        "label": "uint256",
        "numberOfBytes": "32"
      },
      "t_uint32": {
        "encoding": "inplace",
        "label": "uint32",
        "numberOfBytes": "4"
      }
    }
  }
}