{
  "address": "0x8Da07C6D68F17d7BbC8B42D59Bc9EEE90e9dD621",
  "abi": [
    {
      "inputs": [
        {
          "internalType": "uint256",
          "name": "_deposit",
          "type": "uint256"
        },
        {
          "internalType": "uint256",
          "name": "_epochPeriod",
          "type": "uint256"
        },
        {
          "internalType": "uint256",
          "name": "_challengePeriod",
          "type": "uint256"
        },
        {
          "internalType": "uint256",
          "name": "_timeoutEpochs",
          "type": "uint256"
        },
        {
          "internalType": "address",
          "name": "_routerGnosisToArb",
          "type": "address"
        },
        {
          "internalType": "uint256",
          "name": "_sequencerDelayLimit",
          "type": "uint256"
        },
        {
          "internalType": "uint256",
          "name": "_sequencerFutureLimit",
          "type": "uint256"
        }
      ],
      "stateMutability": "nonpayable",
      "type": "constructor"
    },
    {
      "anonymous": false,
      "inputs": [
        {
          "indexed": false,
          "internalType": "uint256",
          "name": "_epoch",
          "type": "uint256"
        },
        {
          "indexed": true,
          "internalType": "address",
          "name": "_challenger",
          "type": "address"
        }
      ],
      "name": "Challenged",
      "type": "event"
    },
    {
      "anonymous": false,
      "inputs": [
        {
          "indexed": true,
          "internalType": "address",
          "name": "_claimer",
          "type": "address"
        },
        {
          "indexed": true,
          "internalType": "uint256",
          "name": "_epoch",
          "type": "uint256"
        },
        {
          "indexed": false,
          "internalType": "bytes32",
          "name": "_stateRoot",
          "type": "bytes32"
        }
      ],
      "name": "Claimed",
      "type": "event"
    },
    {
      "anonymous": false,
      "inputs": [
        {
          "indexed": false,
          "internalType": "uint64",
          "name": "_msgId",
          "type": "uint64"
        }
      ],
      "name": "MessageRelayed",
      "type": "event"
    },
    {
      "anonymous": false,
      "inputs": [
        {
          "indexed": false,
          "internalType": "uint256",
          "name": "_epoch",
          "type": "uint256"
        }
      ],
      "name": "Verified",
      "type": "event"
    },
    {
      "anonymous": false,
      "inputs": [
        {
          "indexed": false,
          "internalType": "uint256",
          "name": "_newSequencerDelayLimit",
          "type": "uint256"
        }
      ],
      "name": "sequencerDelayLimitUpdateReceived",
      "type": "event"
    },
    {
      "anonymous": false,
      "inputs": [
        {
          "indexed": false,
          "internalType": "uint256",
          "name": "_newSequencerFutureLimit",
          "type": "uint256"
        }
      ],
      "name": "sequencerFutureLimitUpdateReceived",
      "type": "event"
    },
    {
      "inputs": [],
      "name": "BURN_ADDRESS",
      "outputs": [
        {
          "internalType": "address",
          "name": "",
          "type": "address"
        }
      ],
      "stateMutability": "view",
      "type": "function"
    },
    {
      "inputs": [],
      "name": "burn",
      "outputs": [
        {
          "internalType": "uint256",
          "name": "",
          "type": "uint256"
        }
      ],
      "stateMutability": "view",
      "type": "function"
    },
    {
      "inputs": [
        {
          "internalType": "uint256",
          "name": "_epoch",
          "type": "uint256"
        }
      ],
      "name": "challenge",
      "outputs": [],
      "stateMutability": "payable",
      "type": "function"
    },
    {
      "inputs": [],
      "name": "challengePeriod",
      "outputs": [
        {
          "internalType": "uint256",
          "name": "",
          "type": "uint256"
        }
      ],
      "stateMutability": "view",
      "type": "function"
    },
    {
      "inputs": [
        {
          "internalType": "uint256",
          "name": "",
          "type": "uint256"
        }
      ],
      "name": "challengers",
      "outputs": [
        {
          "internalType": "address",
          "name": "",
          "type": "address"
        }
      ],
      "stateMutability": "view",
      "type": "function"
    },
    {
      "inputs": [
        {
          "internalType": "address",
          "name": "_devnetOperator",
          "type": "address"
        }
      ],
      "name": "changeDevnetOperator",
      "outputs": [],
      "stateMutability": "nonpayable",
      "type": "function"
    },
    {
      "inputs": [
        {
          "internalType": "uint256",
          "name": "_epoch",
          "type": "uint256"
        },
        {
          "internalType": "bytes32",
          "name": "_stateRoot",
          "type": "bytes32"
        }
      ],
      "name": "claim",
      "outputs": [],
      "stateMutability": "payable",
      "type": "function"
    },
    {
      "inputs": [
        {
          "internalType": "uint256",
          "name": "",
          "type": "uint256"
        }
      ],
      "name": "claims",
      "outputs": [
        {
          "internalType": "bytes32",
          "name": "stateRoot",
          "type": "bytes32"
        },
        {
          "internalType": "address",
          "name": "claimer",
          "type": "address"
        },
        {
          "internalType": "uint32",
          "name": "timestamp",
          "type": "uint32"
        },
        {
          "internalType": "enum VeaOutboxGnosisToArb.Party",
          "name": "honest",
          "type": "uint8"
        }
      ],
      "stateMutability": "view",
      "type": "function"
    },
    {
      "inputs": [],
      "name": "deposit",
      "outputs": [
        {
          "internalType": "uint256",
          "name": "",
          "type": "uint256"
        }
      ],
      "stateMutability": "view",
      "type": "function"
    },
    {
      "inputs": [],
      "name": "depositPlusReward",
      "outputs": [
        {
          "internalType": "uint256",
          "name": "",
          "type": "uint256"
        }
      ],
      "stateMutability": "view",
      "type": "function"
    },
    {
      "inputs": [
        {
          "internalType": "uint256",
          "name": "_epoch",
          "type": "uint256"
        },
        {
          "internalType": "bytes32",
          "name": "_stateroot",
          "type": "bytes32"
        }
      ],
      "name": "devnetAdvanceState",
      "outputs": [],
      "stateMutability": "payable",
      "type": "function"
    },
    {
      "inputs": [],
      "name": "devnetOperator",
      "outputs": [
        {
          "internalType": "address",
          "name": "",
          "type": "address"
        }
      ],
      "stateMutability": "view",
      "type": "function"
    },
    {
      "inputs": [
        {
          "internalType": "uint256",
          "name": "timestamp",
          "type": "uint256"
        }
      ],
      "name": "epochAt",
      "outputs": [
        {
          "internalType": "uint256",
          "name": "epoch",
          "type": "uint256"
        }
      ],
      "stateMutability": "view",
      "type": "function"
    },
    {
      "inputs": [],
      "name": "epochNow",
      "outputs": [
        {
          "internalType": "uint256",
          "name": "epoch",
          "type": "uint256"
        }
      ],
      "stateMutability": "view",
      "type": "function"
    },
    {
      "inputs": [],
      "name": "epochPeriod",
      "outputs": [
        {
          "internalType": "uint256",
          "name": "",
          "type": "uint256"
        }
      ],
      "stateMutability": "view",
      "type": "function"
    },
    {
      "inputs": [
        {
          "internalType": "uint256",
          "name": "_msgId",
          "type": "uint256"
        }
      ],
      "name": "isMsgRelayed",
      "outputs": [
        {
          "internalType": "bool",
          "name": "isRelayed",
          "type": "bool"
        }
      ],
      "stateMutability": "view",
      "type": "function"
    },
    {
      "inputs": [],
      "name": "latestVerifiedEpoch",
      "outputs": [
        {
          "internalType": "uint256",
          "name": "",
          "type": "uint256"
        }
      ],
      "stateMutability": "view",
      "type": "function"
    },
    {
      "inputs": [
        {
          "internalType": "uint256",
          "name": "_epoch",
          "type": "uint256"
        },
        {
          "internalType": "bytes32",
          "name": "_stateRoot",
          "type": "bytes32"
        }
      ],
      "name": "resolveDisputedClaim",
      "outputs": [],
      "stateMutability": "nonpayable",
      "type": "function"
    },
    {
      "inputs": [],
      "name": "routerGnosisToArb",
      "outputs": [
        {
          "internalType": "address",
          "name": "",
          "type": "address"
        }
      ],
      "stateMutability": "view",
      "type": "function"
    },
    {
      "inputs": [
        {
          "internalType": "bytes32[]",
          "name": "_proof",
          "type": "bytes32[]"
        },
        {
          "internalType": "uint64",
          "name": "_msgId",
          "type": "uint64"
        },
        {
          "internalType": "address",
          "name": "_to",
          "type": "address"
        },
        {
          "internalType": "bytes",
          "name": "_message",
          "type": "bytes"
        }
      ],
      "name": "sendMessage",
      "outputs": [],
      "stateMutability": "nonpayable",
      "type": "function"
    },
    {
      "inputs": [],
      "name": "sequencerDelayLimit",
      "outputs": [
        {
          "internalType": "uint256",
          "name": "",
          "type": "uint256"
        }
      ],
      "stateMutability": "view",
      "type": "function"
    },
    {
      "inputs": [],
      "name": "sequencerFutureLimit",
      "outputs": [
        {
          "internalType": "uint256",
          "name": "",
          "type": "uint256"
        }
      ],
      "stateMutability": "view",
      "type": "function"
    },
    {
      "inputs": [],
      "name": "stateRoot",
      "outputs": [
        {
          "internalType": "bytes32",
          "name": "",
          "type": "bytes32"
        }
      ],
      "stateMutability": "view",
      "type": "function"
    },
    {
      "inputs": [],
      "name": "timeoutEpochs",
      "outputs": [
        {
          "internalType": "uint256",
          "name": "",
          "type": "uint256"
        }
      ],
      "stateMutability": "view",
      "type": "function"
    },
    {
      "inputs": [],
      "name": "timestampDelayUpdated",
      "outputs": [
        {
          "internalType": "uint256",
          "name": "",
          "type": "uint256"
        }
      ],
      "stateMutability": "view",
      "type": "function"
    },
    {
      "inputs": [],
      "name": "timestampFutureUpdated",
      "outputs": [
        {
          "internalType": "uint256",
          "name": "",
          "type": "uint256"
        }
      ],
      "stateMutability": "view",
      "type": "function"
    },
    {
      "inputs": [
        {
          "internalType": "uint256",
          "name": "_newSequencerDelayLimit",
          "type": "uint256"
        },
        {
          "internalType": "uint256",
          "name": "_timestamp",
          "type": "uint256"
        }
      ],
      "name": "updateSequencerDelayLimit",
      "outputs": [],
      "stateMutability": "nonpayable",
      "type": "function"
    },
    {
      "inputs": [
        {
          "internalType": "uint256",
          "name": "_newSequencerFutureLimit",
          "type": "uint256"
        },
        {
          "internalType": "uint256",
          "name": "_timestamp",
          "type": "uint256"
        }
      ],
      "name": "updateSequencerFutureLimit",
      "outputs": [],
      "stateMutability": "nonpayable",
      "type": "function"
    },
    {
      "inputs": [
        {
          "internalType": "uint256",
          "name": "_epoch",
          "type": "uint256"
        }
      ],
      "name": "verifySnapshot",
      "outputs": [],
      "stateMutability": "nonpayable",
      "type": "function"
    },
    {
      "inputs": [
        {
          "internalType": "uint256",
          "name": "_epoch",
          "type": "uint256"
        }
      ],
      "name": "withdrawChallengeDeposit",
      "outputs": [],
      "stateMutability": "nonpayable",
      "type": "function"
    },
    {
      "inputs": [
        {
          "internalType": "uint256",
          "name": "_epoch",
          "type": "uint256"
        }
      ],
      "name": "withdrawChallengerEscapeHatch",
      "outputs": [],
      "stateMutability": "nonpayable",
      "type": "function"
    },
    {
      "inputs": [
        {
          "internalType": "uint256",
          "name": "_epoch",
          "type": "uint256"
        }
      ],
      "name": "withdrawClaimDeposit",
      "outputs": [],
      "stateMutability": "nonpayable",
      "type": "function"
    },
    {
      "inputs": [
        {
          "internalType": "uint256",
          "name": "_epoch",
          "type": "uint256"
        }
      ],
      "name": "withdrawClaimerEscapeHatch",
      "outputs": [],
      "stateMutability": "nonpayable",
      "type": "function"
    }
  ],
  "transactionHash": "0x5e21264c60c98d3ee54493bbe0369ad5fa51ae269a1853b136d6147f2d8a15d0",
  "args": [
    "100000000000000000",
    1800,
    0,
    10000000000000,
    "0xb7d2C76641B21718cC8A0b595be438c863A6e031",
    86400,
    3600
  ],
  "numDeployments": 9,
  "solcInputHash": "556bdf5fc9689e29dc99949f21bc913e",
  "bytecode": "0x6101606040523480156200001257600080fd5b50604051620021df380380620021df8339810160408190526200003591620000e1565b60a08790526101008690526101208590526101408490526001600160a01b03831660805260008290556001819055868686868686866200007760028862000167565b60c0819052620000898860026200018a565b620000959190620001aa565b60e05261010051600190620000ab904262000167565b620000b79190620001aa565b6005555050600980546001600160a01b0319163317905550620001c09a5050505050505050505050565b600080600080600080600060e0888a031215620000fd57600080fd5b8751602089015160408a015160608b015160808c0151939a50919850965094506001600160a01b03811681146200013357600080fd5b8093505060a0880151915060c0880151905092959891949750929550565b634e487b7160e01b600052601160045260246000fd5b6000826200018557634e487b7160e01b600052601260045260246000fd5b500490565b8082028115828204841417620001a457620001a462000151565b92915050565b81810381811115620001a457620001a462000151565b60805160a05160c05160e051610100516101205161014051611f07620002d860003960008181610578015281816106e001528181610e80015281816111b001526115b601526000818161068701526112ff0152600081816105ac015281816107040152818161086101528181610ea401528181611002015281816111d401526115da0152600081816104540152818161112b0152611aa701526000818161031c015281816110ea0152611a660152600081816105e0015281816108210152818161098a01528181610b6901528181610b9601528181610fc3015281816111760152818161183b015281816119070152611934015260008181610640015281816108960152818161144e01526116550152611f076000f3fe6080604052600436106101ee5760003560e01c8063836e344b1161010d578063b5b7a184116100a0578063eb8dedfa1161006f578063eb8dedfa1461062e578063eedcf2a914610662578063f3f480d914610675578063f4cf751b146106a9578063fccc2813146106c957600080fd5b8063b5b7a1841461059a578063d0e30db0146105ce578063d6e01b3914610602578063e813a7551461061857600080fd5b80639588eca2116100dc5780639588eca2146104d6578063a888c2cd146104ec578063ab82d9a014610553578063b044397e1461056657600080fd5b8063836e344b146104425780638a619a71146104765780638ad3a8f7146104965780638caeb7a8146104b657600080fd5b806344df8e70116101855780636496284911610154578063649628491461039e5780636b45ebcb146103be578063710cc9a71461040c5780637ffc2a6e1461042c57600080fd5b806344df8e701461030a5780634518f79f1461033e5780634a439cfe1461035e57806350b81dbe1461037e57600080fd5b80632c192519116101c15780632c1925191461026957806331d144571461028957806331ddf7431461029c57806343b066d5146102bc57600080fd5b80630e56752e146101f3578063114095d31461021c578063222ae7861461023e57806327ee6bdd14610253575b600080fd5b3480156101ff57600080fd5b5061020960015481565b6040519081526020015b60405180910390f35b34801561022857600080fd5b5061023c610237366004611ae2565b6106de565b005b34801561024a57600080fd5b5061020961085a565b34801561025f57600080fd5b5061020960055481565b34801561027557600080fd5b5061023c610284366004611afb565b61088b565b61023c610297366004611afb565b610971565b3480156102a857600080fd5b5061023c6102b7366004611c08565b610bdf565b3480156102c857600080fd5b506102fa6102d7366004611ae2565b600881811c60009081526020919091526040902054600160ff9092161c81161490565b6040519015158152602001610213565b34801561031657600080fd5b506102097f000000000000000000000000000000000000000000000000000000000000000081565b34801561034a57600080fd5b5061023c610359366004611ae2565b610e7e565b34801561036a57600080fd5b50610209610379366004611ae2565b610ffb565b34801561038a57600080fd5b5061023c610399366004611ae2565b61102d565b3480156103aa57600080fd5b5061023c6103b9366004611ae2565b6111ae565b3480156103ca57600080fd5b506103f46103d9366004611ae2565b6007602052600090815260409020546001600160a01b031681565b6040516001600160a01b039091168152602001610213565b34801561041857600080fd5b5061023c610427366004611afb565b611443565b34801561043857600080fd5b5061020960025481565b34801561044e57600080fd5b506102097f000000000000000000000000000000000000000000000000000000000000000081565b34801561048257600080fd5b5061023c610491366004611cf4565b611521565b3480156104a257600080fd5b506009546103f4906001600160a01b031681565b3480156104c257600080fd5b5061023c6104d1366004611afb565b6115b4565b3480156104e257600080fd5b5061020960045481565b3480156104f857600080fd5b50610543610507366004611ae2565b600660205260009081526040902080546001909101546001600160a01b03811690600160a01b810463ffffffff1690600160c01b900460ff1684565b6040516102139493929190611d2c565b61023c610561366004611ae2565b611777565b34801561057257600080fd5b506102097f000000000000000000000000000000000000000000000000000000000000000081565b3480156105a657600080fd5b506102097f000000000000000000000000000000000000000000000000000000000000000081565b3480156105da57600080fd5b506102097f000000000000000000000000000000000000000000000000000000000000000081565b34801561060e57600080fd5b5061020960035481565b34801561062457600080fd5b5061020960005481565b34801561063a57600080fd5b506103f47f000000000000000000000000000000000000000000000000000000000000000081565b61023c610670366004611afb565b61197d565b34801561068157600080fd5b506102097f000000000000000000000000000000000000000000000000000000000000000081565b3480156106b557600080fd5b5061023c6106c4366004611ae2565b611999565b3480156106d557600080fd5b506103f4600081565b7f00000000000000000000000000000000000000000000000000000000000000006005547f0000000000000000000000000000000000000000000000000000000000000000428161073157610731611d7b565b0403116107775760405162461bcd60e51b815260206004820152600f60248201526e213934b233b290293ab73734b7339760891b60448201526064015b60405180910390fd5b60008082815260066020526040902060010154600160c01b900460ff1660028111156107a5576107a5611d16565b146107e45760405162461bcd60e51b815260206004820152600f60248201526e21b630b4b6903932b9b7b63b32b21760891b604482015260640161076e565b600081815260076020526040902080546001600160a01b031981169091556001600160a01b03168015610856576040516001600160a01b038216907f000000000000000000000000000000000000000000000000000000000000000080156108fc02916000818181858888f150505050505b5050565b60006108867f000000000000000000000000000000000000000000000000000000000000000042611da7565b905090565b336001600160a01b037f000000000000000000000000000000000000000000000000000000000000000061111161111160901b010116146108de5760405162461bcd60e51b815260040161076e90611dc9565b80600254106109265760405162461bcd60e51b815260206004820152601460248201527326b2b9b9b0b3b29034b99037baba3230ba32b21760611b604482015260640161076e565b816000541461085657600082905560028190556040518281527f684f6fb71cbcb798156dcca2a95dbd142fa1f8957637833b1897ab89e05aa707906020015b60405180910390a15050565b6009546001600160a01b0316331461098857600080fd5b7f00000000000000000000000000000000000000000000000000000000000000003410156109f85760405162461bcd60e51b815260206004820152601b60248201527f496e73756666696369656e7420636c61696d206465706f7369742e0000000000604482015260640161076e565b80610a365760405162461bcd60e51b815260206004820152600e60248201526d24b73b30b634b21031b630b4b69760911b604482015260640161076e565b6000828152600660205260409020600101546001600160a01b031615610a945760405162461bcd60e51b815260206004820152601360248201527221b630b4b69030b63932b0b23c9036b0b2329760691b604482015260640161076e565b6040805160808101825282815233602080830191825263ffffffff4281168486019081526000606086018181528982526006909452959095208451815592516001840180549651909216600160a01b026001600160c01b03199096166001600160a01b039091161794909417808555905192939192919060ff60c01b1916600160c01b836002811115610b2957610b29611d16565b02179055505060405182815283915033907fd95107f4584744c6c893a04c43058aadd1ce8aac8ca5d64140eaf277de6c1d579060200160405180910390a37f0000000000000000000000000000000000000000000000000000000000000000341115610856576000610bbb7f000000000000000000000000000000000000000000000000000000000000000034611e00565b604051909150339082156108fc029083906000818181858888f15050505050505050565b6040845110610c225760405162461bcd60e51b815260206004820152600f60248201526e283937b7b3103a37b7903637b7339760891b604482015260640161076e565b6000838383604051602001610c3993929190611e43565b604051602081830303815290604052805190602001209050806000526020600020905060005b8551811015610cbb576000868281518110610c7c57610c7c611e85565b6020026020010151905082811115610ca257826000528060205260406000209250610cb2565b8060005282602052604060002092505b50600101610c5f565b508060045414610cfe5760405162461bcd60e51b815260206004820152600e60248201526d24b73b30b634b210383937b7b31760911b604482015260640161076e565b600884811c66ffffffffffffff16600081815260209290925260409091205460ff86169080821c60011615610d755760405162461bcd60e51b815260206004820152601760248201527f4d65737361676520616c72656164792072656c61796564000000000000000000604482015260640161076e565b6000838152600860205260408082206001851b84179055516001600160a01b03881690610da3908890611e9b565b6000604051808303816000865af19150503d8060008114610de0576040519150601f19603f3d011682016040523d82523d6000602084013e610de5565b606091505b5050905080610e365760405162461bcd60e51b815260206004820152601760248201527f4661696c656420746f2063616c6c20636f6e7472616374000000000000000000604482015260640161076e565b60405167ffffffffffffffff891681527f54303fab361bc52c2f1f56ace7351189582264f74ce47a6e7c3f478d64c429439060200160405180910390a1505050505050505050565b7f00000000000000000000000000000000000000000000000000000000000000006005547f00000000000000000000000000000000000000000000000000000000000000004281610ed157610ed1611d7b565b040311610f125760405162461bcd60e51b815260206004820152600f60248201526e213934b233b290293ab73734b7339760891b604482015260640161076e565b60008082815260066020526040902060010154600160c01b900460ff166002811115610f4057610f40611d16565b14610f7f5760405162461bcd60e51b815260206004820152600f60248201526e21b630b4b6903932b9b7b63b32b21760891b604482015260640161076e565b6000818152600660205260408120600181018054929091556001600160c81b0319821690556001600160a01b03168015610856576040516001600160a01b038216907f000000000000000000000000000000000000000000000000000000000000000080156108fc02916000818181858888f150505050505050565b60006110277f000000000000000000000000000000000000000000000000000000000000000083611da7565b92915050565b6001600082815260066020526040902060010154600160c01b900460ff16600281111561105c5761105c611d16565b1461109f5760405162461bcd60e51b815260206004820152601360248201527221b630b4b6903ab739bab1b1b2b9b9b33ab61760691b604482015260640161076e565b6000818152600660209081526040808320600181018054918590556001600160c81b0319821690556007909252909120546001600160a01b03918216911615611166576040516000907f000000000000000000000000000000000000000000000000000000000000000080156108fc029183818181858288f150506040516001600160a01b03851693507f000000000000000000000000000000000000000000000000000000000000000080156108fc02935091506000818181858888f150505050505050565b6040516001600160a01b038216907f000000000000000000000000000000000000000000000000000000000000000080156108fc02916000818181858888f150505050505050565b7f00000000000000000000000000000000000000000000000000000000000000006005547f0000000000000000000000000000000000000000000000000000000000000000428161120157611201611d7b565b040311156112445760405162461bcd60e51b815260206004820152601060248201526f213934b233b29029b43aba3237bbb71760811b604482015260640161076e565b600081815260066020526040902060010154600160a01b900463ffffffff16806112a15760405162461bcd60e51b815260206004820152600e60248201526d24b73b30b634b21031b630b4b69760911b604482015260640161076e565b6000828152600760205260409020546001600160a01b0316156112fd5760405162461bcd60e51b815260206004820152601460248201527321b630b4b69034b99031b430b63632b733b2b21760611b604482015260640161076e565b7f000000000000000000000000000000000000000000000000000000000000000060015460005460026113309190611ea7565b61133a9190611ebe565b6113449190611ebe565b61134e8242611e00565b10156113c25760405162461bcd60e51b815260206004820152603760248201527f436c61696d206d757374207761697420666f722073657175656e63657244656c60448201527f617920616e64206368616c6c656e6765506572696f642e000000000000000000606482015260840161076e565b60055482111561141e5760058290556000828152600660205260409081902054600455517ff786e7f77ede00a02a5464f8f0555798f42ba99a4a920ef2778db8d75e4656f7906114159084815260200190565b60405180910390a15b506000908152600660205260409020600101805460ff60c01b1916600160c01b179055565b336001600160a01b037f000000000000000000000000000000000000000000000000000000000000000061111161111160901b010116146114965760405162461bcd60e51b815260040161076e90611dc9565b80600354106114de5760405162461bcd60e51b815260206004820152601460248201527326b2b9b9b0b3b29034b99037baba3230ba32b21760611b604482015260640161076e565b816001541461085657600182905560038190556040518281527f5328ca176e0092ea14be7c843a94b093c0fe88c93d9c01ab0f0281d9e62e405590602001610965565b6009546001600160a01b0316331461153857600080fd5b6009546001600160a01b031633146115925760405162461bcd60e51b815260206004820152601860248201527f496e76616c696420546573746e6574204f70657261746f720000000000000000604482015260640161076e565b600980546001600160a01b0319166001600160a01b0392909216919091179055565b7f00000000000000000000000000000000000000000000000000000000000000006005547f0000000000000000000000000000000000000000000000000000000000000000428161160757611607611d7b565b0403111561164a5760405162461bcd60e51b815260206004820152601060248201526f213934b233b29029b43aba3237bbb71760811b604482015260640161076e565b336001600160a01b037f000000000000000000000000000000000000000000000000000000000000000061111161111160901b0101161461169d5760405162461bcd60e51b815260040161076e90611dc9565b600554821180156116ad57508015155b156116f057600582905560048190556040518281527ff786e7f77ede00a02a5464f8f0555798f42ba99a4a920ef2778db8d75e4656f79060200160405180910390a15b6000828152600660205260409020548015611772578181036117325750506000908152600660205260409020600101805460ff60c01b1916600160c01b179055565b6000838152600760205260409020546001600160a01b031615611772576000838152600660205260409020600101805460ff60c01b1916600160c11b1790555b505050565b6000818152600760205260409020546001600160a01b0316156117dc5760405162461bcd60e51b815260206004820152601960248201527f436c61696d20616c7265616479206368616c6c656e6765642e00000000000000604482015260640161076e565b6000818152600660205260409020600101546001600160a01b03166118395760405162461bcd60e51b815260206004820152601360248201527227379031b630b4b6903337b91032b837b1b41760691b604482015260640161076e565b7f00000000000000000000000000000000000000000000000000000000000000003410156118a95760405162461bcd60e51b815260206004820152601f60248201527f496e73756666696369656e74206368616c6c656e6765206465706f7369742e00604482015260640161076e565b6000818152600760205260409081902080546001600160a01b0319163390811790915590517fcfe09ca25f55d949baba5e280f5750c9ba4b9048fca5532f916067d433afe4d7906118fd9084815260200190565b60405180910390a27f000000000000000000000000000000000000000000000000000000000000000034111561197a5760006119597f000000000000000000000000000000000000000000000000000000000000000034611e00565b604051909150339082156108fc029083906000818181858888f15050505050505b50565b6119878282610971565b611990826111ae565b6108568261102d565b6002600082815260066020526040902060010154600160c01b900460ff1660028111156119c8576119c8611d16565b14611a155760405162461bcd60e51b815260206004820152601760248201527f4368616c6c656e676520756e7375636365737366756c2e000000000000000000604482015260640161076e565b600081815260076020818152604080842080546006845282862086815560010180546001600160c81b03191690559390925281546001600160a01b031916909155516001600160a01b0390911691907f000000000000000000000000000000000000000000000000000000000000000080156108fc029183818181858288f150506040516001600160a01b03851693507f000000000000000000000000000000000000000000000000000000000000000080156108fc02935091506000818181858888f150505050505050565b600060208284031215611af457600080fd5b5035919050565b60008060408385031215611b0e57600080fd5b50508035926020909101359150565b634e487b7160e01b600052604160045260246000fd5b604051601f8201601f1916810167ffffffffffffffff81118282101715611b5c57611b5c611b1d565b604052919050565b803567ffffffffffffffff81168114611b7c57600080fd5b919050565b80356001600160a01b0381168114611b7c57600080fd5b600082601f830112611ba957600080fd5b813567ffffffffffffffff811115611bc357611bc3611b1d565b611bd6601f8201601f1916602001611b33565b818152846020838601011115611beb57600080fd5b816020850160208301376000918101602001919091529392505050565b60008060008060808587031215611c1e57600080fd5b843567ffffffffffffffff80821115611c3657600080fd5b818701915087601f830112611c4a57600080fd5b8135602082821115611c5e57611c5e611b1d565b8160051b611c6d828201611b33565b928352848101820192828101908c851115611c8757600080fd5b958301955b84871015611ca557863582529583019590830190611c8c565b9950611cb5915050898201611b64565b96505050611cc560408801611b81565b93506060870135915080821115611cdb57600080fd5b50611ce887828801611b98565b91505092959194509250565b600060208284031215611d0657600080fd5b611d0f82611b81565b9392505050565b634e487b7160e01b600052602160045260246000fd5b8481526001600160a01b038416602082015263ffffffff831660408201526080810160038310611d6c57634e487b7160e01b600052602160045260246000fd5b82606083015295945050505050565b634e487b7160e01b600052601260045260246000fd5b634e487b7160e01b600052601160045260246000fd5b600082611dc457634e487b7160e01b600052601260045260246000fd5b500490565b6020808252601a908201527f4f6e6c79204c3120726f75746572476e6f736973546f4172622e000000000000604082015260600190565b8181038181111561102757611027611d91565b6000815160005b81811015611e345760208185018101518683015201611e1a565b50600093019283525090919050565b60c084901b6001600160c01b0319168152606083901b6bffffffffffffffffffffffff191660088201526000611e7c601c830184611e13565b95945050505050565b634e487b7160e01b600052603260045260246000fd5b6000611d0f8284611e13565b808202811582820484141761102757611027611d91565b8082018082111561102757611027611d9156fea2646970667358221220c6ccf20f30d0818d2c2f4feb9ef7fc3d66f9bb2fa7b7b01d57181b1ecc86abcb64736f6c63430008120033",
  "devdoc": {
    "details": "Vea Outbox From Chiado to ArbitrumGoerli. Note: This contract is deployed on ArbitrumGoerli. Note: This contract is permissioned for developer testing (devnet).",
    "events": {
      "Challenged(uint256,address)": {
        "details": "This event indicates that `sendSnapshot(epoch)` should be called in the inbox.",
        "params": {
          "_challenger": "The address of the challenger.",
          "_epoch": "The epoch associated with the challenged claim."
        }
      },
      "Claimed(address,uint256,bytes32)": {
        "details": "Watchers check this event to challenge fraud.",
        "params": {
          "_claimer": "The address of the claimer.",
          "_epoch": "The epoch associated with the claim.",
          "_stateRoot": "The state root of the claim."
        }
      },
      "MessageRelayed(uint64)": {
        "details": "This event indicates that a message has been relayed.",
        "params": {
          "_msgId": "The msgId of the message that was relayed."
        }
      },
      "Verified(uint256)": {
        "details": "This events indicates that verification has succeeded. The messages are ready to be relayed.",
        "params": {
          "_epoch": "The epoch that was verified."
        }
      },
      "sequencerDelayLimitUpdateReceived(uint256)": {
        "details": "This event indicates the sequencer delay limit updated.",
        "params": {
          "_newSequencerDelayLimit": "The new max sequencer past timestamping power."
        }
      },
      "sequencerFutureLimitUpdateReceived(uint256)": {
        "details": "This event indicates the sequencer futue limit updated.",
        "params": {
          "_newSequencerFutureLimit": "The new max sequencer future timestamping power."
        }
      }
    },
    "kind": "dev",
    "methods": {
      "challenge(uint256)": {
        "details": "Submit a challenge for the claim of the inbox state root snapshot taken at 'epoch'.",
        "params": {
          "_epoch": "The epoch of the claim to challenge."
        }
      },
      "changeDevnetOperator(address)": {
        "details": "Changes the devnet operator.",
        "params": {
          "_devnetOperator": "The new testnet operator."
        }
      },
      "claim(uint256,bytes32)": {
        "details": "Submit a claim about the _stateRoot at _epoch and submit a deposit.",
        "params": {
          "_epoch": "The epoch for which the claim is made.",
          "_stateRoot": "The state root to claim."
        }
      },
      "constructor": {
        "details": "Constructor. Note: epochPeriod must match the VeaInboxGnosisToArb contract deployment on Arbitrum, since it's on a different chain, we can't read it and trust the deployer to set a correct value",
        "params": {
          "_challengePeriod": "The duration of the period allowing to challenge a claim.",
          "_deposit": "The deposit amount to submit a claim in wei.",
          "_epochPeriod": "The duration of each epoch.",
          "_routerGnosisToArb": "The address of the router on Ethereum that routes from Arbitrum to Ethereum.",
          "_sequencerDelayLimit": "The maximum delay in seconds that the Arbitrum sequencer can backdate transactions.",
          "_sequencerFutureLimit": "The maximum delay in seconds that the Arbitrum sequencer can futuredate transactions.",
          "_timeoutEpochs": "The epochs before the bridge is considered shutdown."
        }
      },
      "devnetAdvanceState(uint256,bytes32)": {
        "details": "Testnet operator utility function to claim, validate and withdraw.",
        "params": {
          "_epoch": "The epoch for which the claim is made.",
          "_stateroot": "The state root to claim."
        }
      },
      "epochAt(uint256)": {
        "details": "Get the current epoch from the outbox's point of view using the Ethereum L1 clock.",
        "returns": {
          "epoch": "The hash of the claim."
        }
      },
      "epochNow()": {
        "details": "Get the current epoch from the outbox's point of view using the Ethereum L1 clock.",
        "returns": {
          "epoch": "The hash of the claim."
        }
      },
      "isMsgRelayed(uint256)": {
        "details": "Get the msg relayed status.",
        "params": {
          "_msgId": "The msgId to check."
        },
        "returns": {
          "isRelayed": "True if the msg was relayed."
        }
      },
      "resolveDisputedClaim(uint256,bytes32)": {
        "details": "Resolves any challenge of the optimistic claim for '_epoch'.",
        "params": {
          "_epoch": "The epoch to verify.",
          "_stateRoot": "The true state root for the epoch."
        }
      },
      "sendMessage(bytes32[],uint64,address,bytes)": {
        "details": "Verifies and relays the message. UNTRUSTED.",
        "params": {
          "_message": "The message encoded in the vea inbox as abi.encodeWithSelector(fnSelector, msg.sender, param1, param2, ...)",
          "_msgId": "The zero based index of the message in the inbox.",
          "_proof": "The merkle proof to prove the message inclusion in the inbox state root.",
          "_to": "The address of the contract on Arbitrum to call."
        }
      },
      "updateSequencerDelayLimit(uint256,uint256)": {
        "details": "Set the sequencerDelayLimit by reading from the Arbitrum Bridge",
        "params": {
          "_newSequencerDelayLimit": "The delaySeconds from the MaxTimeVariation struct in the Arbitrum Sequencer contract.",
          "_timestamp": "The timestamp of the message."
        }
      },
      "updateSequencerFutureLimit(uint256,uint256)": {
        "details": "Set the sequencerFutureLimit by reading from the Arbitrum Bridge",
        "params": {
          "_newSequencerFutureLimit": "The delaySeconds from the MaxTimeVariation struct in the Arbitrum Sequencer contract.",
          "_timestamp": "The timestamp of the message."
        }
      },
      "verifySnapshot(uint256)": {
        "details": "Resolves the optimistic claim for '_epoch'.",
        "params": {
          "_epoch": "The epoch of the optimistic claim."
        }
      },
      "withdrawChallengeDeposit(uint256)": {
        "details": "Sends the deposit back to the Challenger if successful. Includes a portion of the Bridger's deposit.",
        "params": {
          "_epoch": "The epoch associated with the challenge deposit to withraw."
        }
      },
      "withdrawChallengerEscapeHatch(uint256)": {
        "details": "When bridge is shutdown, no claim disputes can be resolved. This allows the challenger to withdraw their deposit.",
        "params": {
          "_epoch": "The epoch associated with the claim deposit to withraw."
        }
      },
      "withdrawClaimDeposit(uint256)": {
        "details": "Sends the deposit back to the Claimer if successful. Includes a portion of the Challenger's deposit if unsuccessfully challenged.",
        "params": {
          "_epoch": "The epoch associated with the claim deposit to withraw."
        }
      },
      "withdrawClaimerEscapeHatch(uint256)": {
        "details": "When bridge is shutdown, no claim disputes can be resolved. This allows the claimer to withdraw their deposit.",
        "params": {
          "_epoch": "The epoch associated with the claim deposit to withraw."
        }
      }
    },
    "version": 1
  },
  "userdoc": {
    "kind": "user",
    "methods": {
      "resolveDisputedClaim(uint256,bytes32)": {
        "notice": "Note: Access restricted to AMB."
      }
    },
    "version": 1
  },
  "storageLayout": {
    "storage": [
      {
        "astId": 5535,
        "contract": "src/devnets/gnosisToArbitrum/VeaOutboxGnosisToArbDevnet.sol:VeaOutboxGnosisToArbDevnet",
        "label": "sequencerDelayLimit",
        "offset": 0,
        "slot": "0",
        "type": "t_uint256"
      },
      {
        "astId": 5537,
        "contract": "src/devnets/gnosisToArbitrum/VeaOutboxGnosisToArbDevnet.sol:VeaOutboxGnosisToArbDevnet",
        "label": "sequencerFutureLimit",
        "offset": 0,
        "slot": "1",
        "type": "t_uint256"
      },
      {
        "astId": 5539,
        "contract": "src/devnets/gnosisToArbitrum/VeaOutboxGnosisToArbDevnet.sol:VeaOutboxGnosisToArbDevnet",
        "label": "timestampDelayUpdated",
        "offset": 0,
        "slot": "2",
        "type": "t_uint256"
      },
      {
        "astId": 5541,
        "contract": "src/devnets/gnosisToArbitrum/VeaOutboxGnosisToArbDevnet.sol:VeaOutboxGnosisToArbDevnet",
        "label": "timestampFutureUpdated",
        "offset": 0,
        "slot": "3",
        "type": "t_uint256"
      },
      {
        "astId": 5543,
        "contract": "src/devnets/gnosisToArbitrum/VeaOutboxGnosisToArbDevnet.sol:VeaOutboxGnosisToArbDevnet",
        "label": "stateRoot",
        "offset": 0,
        "slot": "4",
        "type": "t_bytes32"
      },
      {
        "astId": 5545,
        "contract": "src/devnets/gnosisToArbitrum/VeaOutboxGnosisToArbDevnet.sol:VeaOutboxGnosisToArbDevnet",
        "label": "latestVerifiedEpoch",
        "offset": 0,
        "slot": "5",
        "type": "t_uint256"
      },
      {
        "astId": 5550,
        "contract": "src/devnets/gnosisToArbitrum/VeaOutboxGnosisToArbDevnet.sol:VeaOutboxGnosisToArbDevnet",
        "label": "claims",
        "offset": 0,
        "slot": "6",
        "type": "t_mapping(t_uint256,t_struct(Claim)5572_storage)"
      },
      {
        "astId": 5554,
        "contract": "src/devnets/gnosisToArbitrum/VeaOutboxGnosisToArbDevnet.sol:VeaOutboxGnosisToArbDevnet",
        "label": "challengers",
        "offset": 0,
        "slot": "7",
        "type": "t_mapping(t_uint256,t_address)"
      },
      {
        "astId": 5558,
        "contract": "src/devnets/gnosisToArbitrum/VeaOutboxGnosisToArbDevnet.sol:VeaOutboxGnosisToArbDevnet",
        "label": "relayed",
        "offset": 0,
        "slot": "8",
        "type": "t_mapping(t_uint256,t_bytes32)"
      },
      {
        "astId": 4757,
        "contract": "src/devnets/gnosisToArbitrum/VeaOutboxGnosisToArbDevnet.sol:VeaOutboxGnosisToArbDevnet",
        "label": "devnetOperator",
        "offset": 0,
        "slot": "9",
        "type": "t_address"
      }
    ],
    "types": {
      "t_address": {
        "encoding": "inplace",
        "label": "address",
        "numberOfBytes": "20"
      },
      "t_bytes32": {
        "encoding": "inplace",
        "label": "bytes32",
        "numberOfBytes": "32"
      },
      "t_enum(Party)5562": {
        "encoding": "inplace",
        "label": "enum VeaOutboxGnosisToArb.Party",
        "numberOfBytes": "1"
      },
      "t_mapping(t_uint256,t_address)": {
        "encoding": "mapping",
        "key": "t_uint256",
        "label": "mapping(uint256 => address)",
        "numberOfBytes": "32",
        "value": "t_address"
      },
      "t_mapping(t_uint256,t_bytes32)": {
        "encoding": "mapping",
        "key": "t_uint256",
        "label": "mapping(uint256 => bytes32)",
        "numberOfBytes": "32",
        "value": "t_bytes32"
      },
      "t_mapping(t_uint256,t_struct(Claim)5572_storage)": {
        "encoding": "mapping",
        "key": "t_uint256",
        "label": "mapping(uint256 => struct VeaOutboxGnosisToArb.Claim)",
        "numberOfBytes": "32",
        "value": "t_struct(Claim)5572_storage"
      },
      "t_struct(Claim)5572_storage": {
        "encoding": "inplace",
        "label": "struct VeaOutboxGnosisToArb.Claim",
        "members": [
          {
            "astId": 5564,
            "contract": "src/devnets/gnosisToArbitrum/VeaOutboxGnosisToArbDevnet.sol:VeaOutboxGnosisToArbDevnet",
            "label": "stateRoot",
            "offset": 0,
            "slot": "0",
            "type": "t_bytes32"
          },
          {
            "astId": 5566,
            "contract": "src/devnets/gnosisToArbitrum/VeaOutboxGnosisToArbDevnet.sol:VeaOutboxGnosisToArbDevnet",
            "label": "claimer",
            "offset": 0,
            "slot": "1",
            "type": "t_address"
          },
          {
            "astId": 5568,
            "contract": "src/devnets/gnosisToArbitrum/VeaOutboxGnosisToArbDevnet.sol:VeaOutboxGnosisToArbDevnet",
            "label": "timestamp",
            "offset": 20,
            "slot": "1",
            "type": "t_uint32"
          },
          {
            "astId": 5571,
            "contract": "src/devnets/gnosisToArbitrum/VeaOutboxGnosisToArbDevnet.sol:VeaOutboxGnosisToArbDevnet",
            "label": "honest",
            "offset": 24,
            "slot": "1",
            "type": "t_enum(Party)5562"
          }
        ],
        "numberOfBytes": "64"
      },
      "t_uint256": {
        "encoding": "inplace",
        "label": "uint256",
        "numberOfBytes": "32"
      },
      "t_uint32": {
        "encoding": "inplace",
        "label": "uint32",
        "numberOfBytes": "4"
      }
    }
  }
}