{
  "address": "0x016170Ad327cE0dCa07b3bd7a7592013a7488FAc",
  "abi": [
    {
      "inputs": [
        {
          "internalType": "uint256",
          "name": "_deposit",
          "type": "uint256"
        },
        {
          "internalType": "uint256",
          "name": "_epochPeriod",
          "type": "uint256"
        },
        {
          "internalType": "uint256",
          "name": "_challengePeriod",
          "type": "uint256"
        },
        {
          "internalType": "uint256",
          "name": "_timeoutEpochs",
          "type": "uint256"
        },
        {
          "internalType": "address",
          "name": "_routerGnosisToArb",
          "type": "address"
        },
        {
          "internalType": "uint256",
          "name": "_sequencerDelayLimit",
          "type": "uint256"
        },
        {
          "internalType": "uint256",
          "name": "_sequencerFutureLimit",
          "type": "uint256"
        }
      ],
      "stateMutability": "nonpayable",
      "type": "constructor"
    },
    {
      "anonymous": false,
      "inputs": [
        {
          "indexed": false,
          "internalType": "uint256",
          "name": "_epoch",
          "type": "uint256"
        },
        {
          "indexed": true,
          "internalType": "address",
          "name": "_challenger",
          "type": "address"
        }
      ],
      "name": "Challenged",
      "type": "event"
    },
    {
      "anonymous": false,
      "inputs": [
        {
          "indexed": true,
          "internalType": "address",
          "name": "_claimer",
          "type": "address"
        },
        {
          "indexed": false,
          "internalType": "uint256",
          "name": "_epoch",
          "type": "uint256"
        },
        {
          "indexed": false,
          "internalType": "bytes32",
          "name": "_stateRoot",
          "type": "bytes32"
        }
      ],
      "name": "Claimed",
      "type": "event"
    },
    {
      "anonymous": false,
      "inputs": [
        {
          "indexed": false,
          "internalType": "uint64",
          "name": "_msgId",
          "type": "uint64"
        }
      ],
      "name": "MessageRelayed",
      "type": "event"
    },
    {
      "anonymous": false,
      "inputs": [
        {
          "indexed": false,
          "internalType": "uint256",
          "name": "_epoch",
          "type": "uint256"
        }
      ],
      "name": "Verified",
      "type": "event"
    },
    {
      "anonymous": false,
      "inputs": [
        {
          "indexed": false,
          "internalType": "uint256",
          "name": "_newsequencerDelayLimit",
          "type": "uint256"
        }
      ],
      "name": "sequencerDelayLimitUpdateReceived",
      "type": "event"
    },
    {
      "inputs": [
        {
          "internalType": "uint256",
          "name": "_epoch",
          "type": "uint256"
        }
      ],
      "name": "challenge",
      "outputs": [],
      "stateMutability": "payable",
      "type": "function"
    },
    {
      "inputs": [],
      "name": "challengePeriod",
      "outputs": [
        {
          "internalType": "uint256",
          "name": "",
          "type": "uint256"
        }
      ],
      "stateMutability": "view",
      "type": "function"
    },
    {
      "inputs": [
        {
          "internalType": "uint256",
          "name": "",
          "type": "uint256"
        }
      ],
      "name": "challengers",
      "outputs": [
        {
          "internalType": "address",
          "name": "",
          "type": "address"
        }
      ],
      "stateMutability": "view",
      "type": "function"
    },
    {
      "inputs": [
        {
          "internalType": "address",
          "name": "_devnetOperator",
          "type": "address"
        }
      ],
      "name": "changeDevnetOperator",
      "outputs": [],
      "stateMutability": "nonpayable",
      "type": "function"
    },
    {
      "inputs": [
        {
          "internalType": "uint256",
          "name": "_epoch",
          "type": "uint256"
        },
        {
          "internalType": "bytes32",
          "name": "_stateRoot",
          "type": "bytes32"
        }
      ],
      "name": "claim",
      "outputs": [],
      "stateMutability": "payable",
      "type": "function"
    },
    {
      "inputs": [
        {
          "internalType": "uint256",
          "name": "",
          "type": "uint256"
        }
      ],
      "name": "claims",
      "outputs": [
        {
          "internalType": "bytes32",
          "name": "stateRoot",
          "type": "bytes32"
        },
        {
          "internalType": "address",
          "name": "claimer",
          "type": "address"
        },
        {
          "internalType": "uint32",
          "name": "timestamp",
          "type": "uint32"
        },
        {
          "internalType": "enum VeaOutboxGnosisToArb.Party",
          "name": "honest",
          "type": "uint8"
        }
      ],
      "stateMutability": "view",
      "type": "function"
    },
    {
      "inputs": [],
      "name": "deposit",
      "outputs": [
        {
          "internalType": "uint256",
          "name": "",
          "type": "uint256"
        }
      ],
      "stateMutability": "view",
      "type": "function"
    },
    {
      "inputs": [
        {
          "internalType": "uint256",
          "name": "_epoch",
          "type": "uint256"
        },
        {
          "internalType": "bytes32",
          "name": "_stateroot",
          "type": "bytes32"
        }
      ],
      "name": "devnetAdvanceState",
      "outputs": [],
      "stateMutability": "payable",
      "type": "function"
    },
    {
      "inputs": [],
      "name": "devnetOperator",
      "outputs": [
        {
          "internalType": "address",
          "name": "",
          "type": "address"
        }
      ],
      "stateMutability": "view",
      "type": "function"
    },
    {
      "inputs": [
        {
          "internalType": "uint256",
          "name": "timestamp",
          "type": "uint256"
        }
      ],
      "name": "epochAt",
      "outputs": [
        {
          "internalType": "uint256",
          "name": "epoch",
          "type": "uint256"
        }
      ],
      "stateMutability": "view",
      "type": "function"
    },
    {
      "inputs": [],
      "name": "epochNow",
      "outputs": [
        {
          "internalType": "uint256",
          "name": "epoch",
          "type": "uint256"
        }
      ],
      "stateMutability": "view",
      "type": "function"
    },
    {
      "inputs": [],
      "name": "epochPeriod",
      "outputs": [
        {
          "internalType": "uint256",
          "name": "",
          "type": "uint256"
        }
      ],
      "stateMutability": "view",
      "type": "function"
    },
    {
      "inputs": [],
      "name": "latestVerifiedEpoch",
      "outputs": [
        {
          "internalType": "uint256",
          "name": "",
          "type": "uint256"
        }
      ],
      "stateMutability": "view",
      "type": "function"
    },
    {
      "inputs": [
        {
          "internalType": "uint256",
          "name": "",
          "type": "uint256"
        }
      ],
      "name": "relayed",
      "outputs": [
        {
          "internalType": "bytes32",
          "name": "",
          "type": "bytes32"
        }
      ],
      "stateMutability": "view",
      "type": "function"
    },
    {
      "inputs": [
        {
          "internalType": "uint256",
          "name": "_epoch",
          "type": "uint256"
        },
        {
          "internalType": "bytes32",
          "name": "_stateRoot",
          "type": "bytes32"
        }
      ],
      "name": "resolveDisputedClaim",
      "outputs": [],
      "stateMutability": "nonpayable",
      "type": "function"
    },
    {
      "inputs": [],
      "name": "routerGnosisToArb",
      "outputs": [
        {
          "internalType": "address",
          "name": "",
          "type": "address"
        }
      ],
      "stateMutability": "view",
      "type": "function"
    },
    {
      "inputs": [
        {
          "internalType": "bytes32[]",
          "name": "_proof",
          "type": "bytes32[]"
        },
        {
          "internalType": "uint64",
          "name": "_msgId",
          "type": "uint64"
        },
        {
          "internalType": "address",
          "name": "_to",
          "type": "address"
        },
        {
          "internalType": "bytes",
          "name": "_message",
          "type": "bytes"
        }
      ],
      "name": "sendMessage",
      "outputs": [],
      "stateMutability": "nonpayable",
      "type": "function"
    },
    {
      "inputs": [],
      "name": "sequencerDelayLimit",
      "outputs": [
        {
          "internalType": "uint256",
          "name": "",
          "type": "uint256"
        }
      ],
      "stateMutability": "view",
      "type": "function"
    },
    {
      "inputs": [],
      "name": "sequencerFutureLimit",
      "outputs": [
        {
          "internalType": "uint256",
          "name": "",
          "type": "uint256"
        }
      ],
      "stateMutability": "view",
      "type": "function"
    },
    {
      "inputs": [],
      "name": "stateRoot",
      "outputs": [
        {
          "internalType": "bytes32",
          "name": "",
          "type": "bytes32"
        }
      ],
      "stateMutability": "view",
      "type": "function"
    },
    {
      "inputs": [],
      "name": "timeoutEpochs",
      "outputs": [
        {
          "internalType": "uint256",
          "name": "",
          "type": "uint256"
        }
      ],
      "stateMutability": "view",
      "type": "function"
    },
    {
      "inputs": [],
      "name": "timestampDelayUpdated",
      "outputs": [
        {
          "internalType": "uint256",
          "name": "",
          "type": "uint256"
        }
      ],
      "stateMutability": "view",
      "type": "function"
    },
    {
      "inputs": [],
      "name": "timestampFutureUpdated",
      "outputs": [
        {
          "internalType": "uint256",
          "name": "",
          "type": "uint256"
        }
      ],
      "stateMutability": "view",
      "type": "function"
    },
    {
      "inputs": [
        {
          "internalType": "uint256",
          "name": "_newSequencerDelayLimit",
          "type": "uint256"
        },
        {
          "internalType": "uint256",
          "name": "_timestamp",
          "type": "uint256"
        }
      ],
      "name": "updateSequencerDelayLimit",
      "outputs": [],
      "stateMutability": "nonpayable",
      "type": "function"
    },
    {
      "inputs": [
        {
          "internalType": "uint256",
          "name": "_newSequencerFutureLimit",
          "type": "uint256"
        },
        {
          "internalType": "uint256",
          "name": "_timestamp",
          "type": "uint256"
        }
      ],
      "name": "updateSequencerFutureLimit",
      "outputs": [],
      "stateMutability": "nonpayable",
      "type": "function"
    },
    {
      "inputs": [
        {
          "internalType": "uint256",
          "name": "_epoch",
          "type": "uint256"
        }
      ],
      "name": "verifySnapshot",
      "outputs": [],
      "stateMutability": "nonpayable",
      "type": "function"
    },
    {
      "inputs": [
        {
          "internalType": "uint256",
          "name": "_epoch",
          "type": "uint256"
        }
      ],
      "name": "withdrawChallengeDeposit",
      "outputs": [],
      "stateMutability": "nonpayable",
      "type": "function"
    },
    {
      "inputs": [
        {
          "internalType": "uint256",
          "name": "_epoch",
          "type": "uint256"
        }
      ],
      "name": "withdrawChallengerEscapeHatch",
      "outputs": [],
      "stateMutability": "nonpayable",
      "type": "function"
    },
    {
      "inputs": [
        {
          "internalType": "uint256",
          "name": "_epoch",
          "type": "uint256"
        }
      ],
      "name": "withdrawClaimDeposit",
      "outputs": [],
      "stateMutability": "nonpayable",
      "type": "function"
    },
    {
      "inputs": [
        {
          "internalType": "uint256",
          "name": "_epoch",
          "type": "uint256"
        }
      ],
      "name": "withdrawClaimerEscapeHatch",
      "outputs": [],
      "stateMutability": "nonpayable",
      "type": "function"
    }
  ],
  "transactionHash": "0x190c2fabdab03e016a5cff9d4d157762c8def2420db5f3c50d8bb5b2e4737d42",
  "args": [
    "100000000000000000",
    1800,
    0,
    10000000000000,
    "0x65b577dC22D3bdfcB20298ac07EF99D574275D04",
    86400,
    3600
  ],
  "numDeployments": 3,
  "solcInputHash": "6b0b750c6eee9aa0a5e450d1f0bbb2d2",
  "bytecode": "0x6101606040523480156200001257600080fd5b5060405162002116380380620021168339810160408190526200003591620000e1565b60a08790526101008690526101208590526101408490526001600160a01b03831660805260008290556001819055868686868686866200007760028862000167565b60c0819052620000898860026200018a565b620000959190620001aa565b60e05261010051600190620000ab904262000167565b620000b79190620001aa565b6005555050600980546001600160a01b0319163317905550620001c09a5050505050505050505050565b600080600080600080600060e0888a031215620000fd57600080fd5b8751602089015160408a015160608b015160808c0151939a50919850965094506001600160a01b03811681146200013357600080fd5b8093505060a0880151915060c0880151905092959891949750929550565b634e487b7160e01b600052601160045260246000fd5b6000826200018557634e487b7160e01b600052601260045260246000fd5b500490565b8082028115828204841417620001a457620001a462000151565b92915050565b81810381811115620001a457620001a462000151565b60805160a05160c05160e051610100516101205161014051611e4c620002ca600039600081816104ce0152818161062101528181610dc5015281816110f501526114fb0152600081816105dd015261124401526000818161050201528181610646015281816107a201528181610dea01528181610f470152818161111a015261152001526000818161107001526119ec01526000818161102f01526119ab01526000818161053601528181610762015281816108cb01528181610aae01528181610adb01528181610f08015281816110bb015281816117800152818161184c0152611879015260008181610596015281816107d701528181611393015261159a0152611e4c6000f3fe6080604052600436106101cd5760003560e01c80638ad3a8f7116100f7578063b5b7a18411610095578063eb8dedfa11610064578063eb8dedfa14610584578063eedcf2a9146105b8578063f3f480d9146105cb578063f4cf751b146105ff57600080fd5b8063b5b7a184146104f0578063d0e30db014610524578063d6e01b3914610558578063e813a7551461056e57600080fd5b80639588eca2116100d15780639588eca21461042c578063a888c2cd14610442578063ab82d9a0146104a9578063b044397e146104bc57600080fd5b80638ad3a8f7146103bf5780638caeb7a8146103df57806390df63b7146103ff57600080fd5b80634518f79f1161016f5780636b45ebcb1161013e5780636b45ebcb1461031b578063710cc9a7146103695780637ffc2a6e146103895780638a619a711461039f57600080fd5b80634518f79f1461029b5780634a439cfe146102bb57806350b81dbe146102db57806364962849146102fb57600080fd5b806327ee6bdd116101ab57806327ee6bdd146102325780632c1925191461024857806331d144571461026857806331ddf7431461027b57600080fd5b80630e56752e146101d2578063114095d3146101fb578063222ae7861461021d575b600080fd5b3480156101de57600080fd5b506101e860015481565b6040519081526020015b60405180910390f35b34801561020757600080fd5b5061021b610216366004611a27565b61061f565b005b34801561022957600080fd5b506101e861079b565b34801561023e57600080fd5b506101e860055481565b34801561025457600080fd5b5061021b610263366004611a40565b6107cc565b61021b610276366004611a40565b6108b2565b34801561028757600080fd5b5061021b610296366004611b4d565b610b24565b3480156102a757600080fd5b5061021b6102b6366004611a27565b610dc3565b3480156102c757600080fd5b506101e86102d6366004611a27565b610f40565b3480156102e757600080fd5b5061021b6102f6366004611a27565b610f72565b34801561030757600080fd5b5061021b610316366004611a27565b6110f3565b34801561032757600080fd5b50610351610336366004611a27565b6007602052600090815260409020546001600160a01b031681565b6040516001600160a01b0390911681526020016101f2565b34801561037557600080fd5b5061021b610384366004611a40565b611388565b34801561039557600080fd5b506101e860025481565b3480156103ab57600080fd5b5061021b6103ba366004611c39565b611466565b3480156103cb57600080fd5b50600954610351906001600160a01b031681565b3480156103eb57600080fd5b5061021b6103fa366004611a40565b6114f9565b34801561040b57600080fd5b506101e861041a366004611a27565b60086020526000908152604090205481565b34801561043857600080fd5b506101e860045481565b34801561044e57600080fd5b5061049961045d366004611a27565b600660205260009081526040902080546001909101546001600160a01b03811690600160a01b810463ffffffff1690600160c01b900460ff1684565b6040516101f29493929190611c71565b61021b6104b7366004611a27565b6116bc565b3480156104c857600080fd5b506101e87f000000000000000000000000000000000000000000000000000000000000000081565b3480156104fc57600080fd5b506101e87f000000000000000000000000000000000000000000000000000000000000000081565b34801561053057600080fd5b506101e87f000000000000000000000000000000000000000000000000000000000000000081565b34801561056457600080fd5b506101e860035481565b34801561057a57600080fd5b506101e860005481565b34801561059057600080fd5b506103517f000000000000000000000000000000000000000000000000000000000000000081565b61021b6105c6366004611a40565b6118c2565b3480156105d757600080fd5b506101e87f000000000000000000000000000000000000000000000000000000000000000081565b34801561060b57600080fd5b5061021b61061a366004611a27565b6118de565b7f0000000000000000000000000000000000000000000000000000000000000000600554017f0000000000000000000000000000000000000000000000000000000000000000428161067357610673611cc0565b04116106b85760405162461bcd60e51b815260206004820152600f60248201526e213934b233b290293ab73734b7339760891b60448201526064015b60405180910390fd5b60008082815260066020526040902060010154600160c01b900460ff1660028111156106e6576106e6611c5b565b146107255760405162461bcd60e51b815260206004820152600f60248201526e21b630b4b6903932b9b7b63b32b21760891b60448201526064016106af565b600081815260076020526040902080546001600160a01b031981169091556001600160a01b03168015610797576040516001600160a01b038216907f000000000000000000000000000000000000000000000000000000000000000080156108fc02916000818181858888f150505050505b5050565b60006107c77f000000000000000000000000000000000000000000000000000000000000000042611cec565b905090565b336001600160a01b037f000000000000000000000000000000000000000000000000000000000000000061111161111160901b0101161461081f5760405162461bcd60e51b81526004016106af90611d0e565b80600254106108675760405162461bcd60e51b815260206004820152601460248201527326b2b9b9b0b3b29034b99037baba3230ba32b21760611b60448201526064016106af565b816000541461079757600082905560028190556040518281527f684f6fb71cbcb798156dcca2a95dbd142fa1f8957637833b1897ab89e05aa707906020015b60405180910390a15050565b6009546001600160a01b031633146108c957600080fd5b7f00000000000000000000000000000000000000000000000000000000000000003410156109395760405162461bcd60e51b815260206004820152601b60248201527f496e73756666696369656e7420636c61696d206465706f7369742e000000000060448201526064016106af565b806109775760405162461bcd60e51b815260206004820152600e60248201526d24b73b30b634b21031b630b4b69760911b60448201526064016106af565b6000828152600660205260409020600101546001600160a01b0316156109d55760405162461bcd60e51b815260206004820152601360248201527221b630b4b69030b63932b0b23c9036b0b2329760691b60448201526064016106af565b6040805160808101825282815233602080830191825263ffffffff4281168486019081526000606086018181528982526006909452959095208451815592516001840180549651909216600160a01b026001600160c01b03199096166001600160a01b039091161794909417808555905192939192919060ff60c01b1916600160c01b836002811115610a6a57610a6a611c5b565b02179055505060408051848152602081018490523392507fd95107f4584744c6c893a04c43058aadd1ce8aac8ca5d64140eaf277de6c1d57910160405180910390a27f0000000000000000000000000000000000000000000000000000000000000000341115610797576000610b007f000000000000000000000000000000000000000000000000000000000000000034611d45565b604051909150339082156108fc029083906000818181858888f15050505050505050565b6040845110610b675760405162461bcd60e51b815260206004820152600f60248201526e283937b7b3103a37b7903637b7339760891b60448201526064016106af565b6000838383604051602001610b7e93929190611d88565b604051602081830303815290604052805190602001209050806000526020600020905060005b8551811015610c00576000868281518110610bc157610bc1611dca565b6020026020010151905082811115610be757826000528060205260406000209250610bf7565b8060005282602052604060002092505b50600101610ba4565b508060045414610c435760405162461bcd60e51b815260206004820152600e60248201526d24b73b30b634b210383937b7b31760911b60448201526064016106af565b600884811c66ffffffffffffff16600081815260209290925260409091205460ff86169080821c60011615610cba5760405162461bcd60e51b815260206004820152601760248201527f4d65737361676520616c72656164792072656c6179656400000000000000000060448201526064016106af565b6000838152600860205260408082206001851b84179055516001600160a01b03881690610ce8908890611de0565b6000604051808303816000865af19150503d8060008114610d25576040519150601f19603f3d011682016040523d82523d6000602084013e610d2a565b606091505b5050905080610d7b5760405162461bcd60e51b815260206004820152601760248201527f4661696c656420746f2063616c6c20636f6e747261637400000000000000000060448201526064016106af565b60405167ffffffffffffffff891681527f54303fab361bc52c2f1f56ace7351189582264f74ce47a6e7c3f478d64c429439060200160405180910390a1505050505050505050565b7f0000000000000000000000000000000000000000000000000000000000000000600554017f00000000000000000000000000000000000000000000000000000000000000004281610e1757610e17611cc0565b0411610e575760405162461bcd60e51b815260206004820152600f60248201526e213934b233b290293ab73734b7339760891b60448201526064016106af565b60008082815260066020526040902060010154600160c01b900460ff166002811115610e8557610e85611c5b565b14610ec45760405162461bcd60e51b815260206004820152600f60248201526e21b630b4b6903932b9b7b63b32b21760891b60448201526064016106af565b6000818152600660205260408120600181018054929091556001600160c81b0319821690556001600160a01b03168015610797576040516001600160a01b038216907f000000000000000000000000000000000000000000000000000000000000000080156108fc02916000818181858888f150505050505050565b6000610f6c7f000000000000000000000000000000000000000000000000000000000000000083611cec565b92915050565b6001600082815260066020526040902060010154600160c01b900460ff166002811115610fa157610fa1611c5b565b14610fe45760405162461bcd60e51b815260206004820152601360248201527221b630b4b6903ab739bab1b1b2b9b9b33ab61760691b60448201526064016106af565b6000818152600660209081526040808320600181018054918590556001600160c81b0319821690556007909252909120546001600160a01b039182169116156110ab576040516000907f000000000000000000000000000000000000000000000000000000000000000080156108fc029183818181858288f150506040516001600160a01b03851693507f000000000000000000000000000000000000000000000000000000000000000080156108fc02935091506000818181858888f150505050505050565b6040516001600160a01b038216907f000000000000000000000000000000000000000000000000000000000000000080156108fc02916000818181858888f150505050505050565b7f0000000000000000000000000000000000000000000000000000000000000000600554017f0000000000000000000000000000000000000000000000000000000000000000428161114757611147611cc0565b0411156111895760405162461bcd60e51b815260206004820152601060248201526f213934b233b29029b43aba3237bbb71760811b60448201526064016106af565b600081815260066020526040902060010154600160a01b900463ffffffff16806111e65760405162461bcd60e51b815260206004820152600e60248201526d24b73b30b634b21031b630b4b69760911b60448201526064016106af565b6000828152600760205260409020546001600160a01b0316156112425760405162461bcd60e51b815260206004820152601460248201527321b630b4b69034b99031b430b63632b733b2b21760611b60448201526064016106af565b7f000000000000000000000000000000000000000000000000000000000000000060015460005460026112759190611dec565b61127f9190611e03565b6112899190611e03565b6112938242611d45565b10156113075760405162461bcd60e51b815260206004820152603760248201527f436c61696d206d757374207761697420666f722073657175656e63657244656c60448201527f617920616e64206368616c6c656e6765506572696f642e00000000000000000060648201526084016106af565b6005548211156113635760058290556000828152600660205260409081902054600455517ff786e7f77ede00a02a5464f8f0555798f42ba99a4a920ef2778db8d75e4656f79061135a9084815260200190565b60405180910390a15b506000908152600660205260409020600101805460ff60c01b1916600160c01b179055565b336001600160a01b037f000000000000000000000000000000000000000000000000000000000000000061111161111160901b010116146113db5760405162461bcd60e51b81526004016106af90611d0e565b80600354106114235760405162461bcd60e51b815260206004820152601460248201527326b2b9b9b0b3b29034b99037baba3230ba32b21760611b60448201526064016106af565b816001541461079757600182905560038190556040518281527f684f6fb71cbcb798156dcca2a95dbd142fa1f8957637833b1897ab89e05aa707906020016108a6565b6009546001600160a01b0316331461147d57600080fd5b6009546001600160a01b031633146114d75760405162461bcd60e51b815260206004820152601860248201527f496e76616c696420546573746e6574204f70657261746f72000000000000000060448201526064016106af565b600980546001600160a01b0319166001600160a01b0392909216919091179055565b7f0000000000000000000000000000000000000000000000000000000000000000600554017f0000000000000000000000000000000000000000000000000000000000000000428161154d5761154d611cc0565b04111561158f5760405162461bcd60e51b815260206004820152601060248201526f213934b233b29029b43aba3237bbb71760811b60448201526064016106af565b336001600160a01b037f000000000000000000000000000000000000000000000000000000000000000061111161111160901b010116146115e25760405162461bcd60e51b81526004016106af90611d0e565b600554821180156115f257508015155b1561163557600582905560048190556040518281527ff786e7f77ede00a02a5464f8f0555798f42ba99a4a920ef2778db8d75e4656f79060200160405180910390a15b60008281526006602052604090205480156116b7578181036116775750506000908152600660205260409020600101805460ff60c01b1916600160c01b179055565b6000838152600760205260409020546001600160a01b0316156116b7576000838152600660205260409020600101805460ff60c01b1916600160c11b1790555b505050565b6000818152600760205260409020546001600160a01b0316156117215760405162461bcd60e51b815260206004820152601960248201527f436c61696d20616c7265616479206368616c6c656e6765642e0000000000000060448201526064016106af565b6000818152600660205260409020600101546001600160a01b031661177e5760405162461bcd60e51b815260206004820152601360248201527227379031b630b4b6903337b91032b837b1b41760691b60448201526064016106af565b7f00000000000000000000000000000000000000000000000000000000000000003410156117ee5760405162461bcd60e51b815260206004820152601f60248201527f496e73756666696369656e74206368616c6c656e6765206465706f7369742e0060448201526064016106af565b6000818152600760205260409081902080546001600160a01b0319163390811790915590517fcfe09ca25f55d949baba5e280f5750c9ba4b9048fca5532f916067d433afe4d7906118429084815260200190565b60405180910390a27f00000000000000000000000000000000000000000000000000000000000000003411156118bf57600061189e7f000000000000000000000000000000000000000000000000000000000000000034611d45565b604051909150339082156108fc029083906000818181858888f15050505050505b50565b6118cc82826108b2565b6118d5826110f3565b61079782610f72565b6002600082815260066020526040902060010154600160c01b900460ff16600281111561190d5761190d611c5b565b1461195a5760405162461bcd60e51b815260206004820152601760248201527f4368616c6c656e676520756e7375636365737366756c2e00000000000000000060448201526064016106af565b600081815260076020818152604080842080546006845282862086815560010180546001600160c81b03191690559390925281546001600160a01b031916909155516001600160a01b0390911691907f000000000000000000000000000000000000000000000000000000000000000080156108fc029183818181858288f150506040516001600160a01b03851693507f000000000000000000000000000000000000000000000000000000000000000080156108fc02935091506000818181858888f150505050505050565b600060208284031215611a3957600080fd5b5035919050565b60008060408385031215611a5357600080fd5b50508035926020909101359150565b634e487b7160e01b600052604160045260246000fd5b604051601f8201601f1916810167ffffffffffffffff81118282101715611aa157611aa1611a62565b604052919050565b803567ffffffffffffffff81168114611ac157600080fd5b919050565b80356001600160a01b0381168114611ac157600080fd5b600082601f830112611aee57600080fd5b813567ffffffffffffffff811115611b0857611b08611a62565b611b1b601f8201601f1916602001611a78565b818152846020838601011115611b3057600080fd5b816020850160208301376000918101602001919091529392505050565b60008060008060808587031215611b6357600080fd5b843567ffffffffffffffff80821115611b7b57600080fd5b818701915087601f830112611b8f57600080fd5b8135602082821115611ba357611ba3611a62565b8160051b611bb2828201611a78565b928352848101820192828101908c851115611bcc57600080fd5b958301955b84871015611bea57863582529583019590830190611bd1565b9950611bfa915050898201611aa9565b96505050611c0a60408801611ac6565b93506060870135915080821115611c2057600080fd5b50611c2d87828801611add565b91505092959194509250565b600060208284031215611c4b57600080fd5b611c5482611ac6565b9392505050565b634e487b7160e01b600052602160045260246000fd5b8481526001600160a01b038416602082015263ffffffff831660408201526080810160038310611cb157634e487b7160e01b600052602160045260246000fd5b82606083015295945050505050565b634e487b7160e01b600052601260045260246000fd5b634e487b7160e01b600052601160045260246000fd5b600082611d0957634e487b7160e01b600052601260045260246000fd5b500490565b6020808252601a908201527f4f6e6c79204c3120726f75746572476e6f736973546f4172622e000000000000604082015260600190565b81810381811115610f6c57610f6c611cd6565b6000815160005b81811015611d795760208185018101518683015201611d5f565b50600093019283525090919050565b60c084901b6001600160c01b0319168152606083901b6bffffffffffffffffffffffff191660088201526000611dc1601c830184611d58565b95945050505050565b634e487b7160e01b600052603260045260246000fd5b6000611c548284611d58565b8082028115828204841417610f6c57610f6c611cd6565b80820180821115610f6c57610f6c611cd656fea2646970667358221220e76f1f04ed49d33a147833dd04ad8a864eb7fdeca074d4525eabbfcec00e586d64736f6c63430008120033",
  "devdoc": {
    "details": "Vea Outbox From Chiado to ArbitrumGoerli. Note: This contract is deployed on ArbitrumGoerli. Note: This contract is permissioned for developer testing (devnet).",
    "events": {
      "Challenged(uint256,address)": {
        "details": "This event indicates that `sendSnapshot(epoch)` should be called in the inbox.",
        "params": {
          "_challenger": "The address of the challenger.",
          "_epoch": "The epoch associated with the challenged claim."
        }
      },
      "Claimed(address,uint256,bytes32)": {
        "details": "Watchers check this event to challenge fraud.",
        "params": {
          "_claimer": "The address of the claimer.",
          "_epoch": "The epoch associated with the claim.",
          "_stateRoot": "The state root of the claim."
        }
      },
      "MessageRelayed(uint64)": {
        "details": "This event indicates that a message has been relayed.",
        "params": {
          "_msgId": "The msgId of the message that was relayed."
        }
      },
      "Verified(uint256)": {
        "details": "This events indicates that verification has succeeded. The messages are ready to be relayed.",
        "params": {
          "_epoch": "The epoch that was verified."
        }
      },
      "sequencerDelayLimitUpdateReceived(uint256)": {
        "details": "This event indicates the sequencer limit updated.",
        "params": {
          "_newsequencerDelayLimit": "The new maxL2StateSyncDelay."
        }
      }
    },
    "kind": "dev",
    "methods": {
      "challenge(uint256)": {
        "details": "Submit a challenge for the claim of the inbox state root snapshot taken at 'epoch'.",
        "params": {
          "_epoch": "The epoch of the claim to challenge."
        }
      },
      "changeDevnetOperator(address)": {
        "details": "Changes the devnet operator.",
        "params": {
          "_devnetOperator": "The new testnet operator."
        }
      },
      "claim(uint256,bytes32)": {
        "details": "Submit a claim about the _stateRoot at _epoch and submit a deposit.",
        "params": {
          "_epoch": "The epoch for which the claim is made.",
          "_stateRoot": "The state root to claim."
        }
      },
      "constructor": {
        "details": "Constructor. Note: epochPeriod must match the VeaInboxGnosisToArb contract deployment on Arbitrum, since it's on a different chain, we can't read it and trust the deployer to set a correct value",
        "params": {
          "_challengePeriod": "The duration of the period allowing to challenge a claim.",
          "_deposit": "The deposit amount to submit a claim in wei.",
          "_epochPeriod": "The duration of each epoch.",
          "_routerGnosisToArb": "The address of the router on Ethereum that routes from Arbitrum to Ethereum.",
          "_sequencerDelayLimit": "The maximum delay in seconds that the Arbitrum sequencer can backdate transactions.",
          "_sequencerFutureLimit": "The maximum delay in seconds that the Arbitrum sequencer can futuredate transactions.",
          "_timeoutEpochs": "The epochs before the bridge is considered shutdown."
        }
      },
      "devnetAdvanceState(uint256,bytes32)": {
        "details": "Testnet operator utility function to claim, validate and withdraw.",
        "params": {
          "_epoch": "The epoch for which the claim is made.",
          "_stateroot": "The state root to claim."
        }
      },
      "epochAt(uint256)": {
        "details": "Get the current epoch from the outbox's point of view using the Ethereum L1 clock.",
        "returns": {
          "epoch": "The hash of the claim."
        }
      },
      "epochNow()": {
        "details": "Get the current epoch from the outbox's point of view using the Ethereum L1 clock.",
        "returns": {
          "epoch": "The hash of the claim."
        }
      },
      "resolveDisputedClaim(uint256,bytes32)": {
        "details": "Resolves any challenge of the optimistic claim for '_epoch'.",
        "params": {
          "_epoch": "The epoch to verify.",
          "_stateRoot": "The true state root for the epoch."
        }
      },
      "sendMessage(bytes32[],uint64,address,bytes)": {
        "details": "Verifies and relays the message. UNTRUSTED.",
        "params": {
          "_message": "The message encoded with header from VeaInbox.",
          "_msgId": "The zero based index of the message in the inbox.",
          "_proof": "The merkle proof to prove the message.",
          "_to": "The address of the contract on Gnosis to call."
        }
      },
      "updateSequencerDelayLimit(uint256,uint256)": {
        "details": "Set the sequencerDelayLimit by reading from the Arbitrum Bridge",
        "params": {
          "_newSequencerDelayLimit": "The delaySeconds from the MaxTimeVariation struct in the Arbitrum Sequencer contract.",
          "_timestamp": "The timestamp of the message."
        }
      },
      "updateSequencerFutureLimit(uint256,uint256)": {
        "details": "Set the sequencerFutureLimit by reading from the Arbitrum Bridge",
        "params": {
          "_newSequencerFutureLimit": "The delaySeconds from the MaxTimeVariation struct in the Arbitrum Sequencer contract.",
          "_timestamp": "The timestamp of the message."
        }
      },
      "verifySnapshot(uint256)": {
        "details": "Resolves the optimistic claim for '_epoch'.",
        "params": {
          "_epoch": "The epoch of the optimistic claim."
        }
      },
      "withdrawChallengeDeposit(uint256)": {
        "details": "Sends the deposit back to the Challenger if successful. Includes a portion of the Bridger's deposit.",
        "params": {
          "_epoch": "The epoch associated with the challenge deposit to withraw."
        }
      },
      "withdrawChallengerEscapeHatch(uint256)": {
        "details": "When bridge is shutdown, no claim disputes can be resolved. This allows the challenger to withdraw their deposit.",
        "params": {
          "_epoch": "The epoch associated with the claim deposit to withraw."
        }
      },
      "withdrawClaimDeposit(uint256)": {
        "details": "Sends the deposit back to the Claimer if successful. Includes a portion of the Challenger's deposit if unsuccessfully challenged.",
        "params": {
          "_epoch": "The epoch associated with the claim deposit to withraw."
        }
      },
      "withdrawClaimerEscapeHatch(uint256)": {
        "details": "When bridge is shutdown, no claim disputes can be resolved. This allows the claimer to withdraw their deposit.",
        "params": {
          "_epoch": "The epoch associated with the claim deposit to withraw."
        }
      }
    },
    "version": 1
  },
  "userdoc": {
    "kind": "user",
    "methods": {
      "resolveDisputedClaim(uint256,bytes32)": {
        "notice": "Note: Access restricted to AMB."
      }
    },
    "version": 1
  },
  "storageLayout": {
    "storage": [
      {
        "astId": 4180,
        "contract": "src/devnets/gnosisToArbitrum/VeaOutboxGnosisToArbDevnet.sol:VeaOutboxGnosisToArbDevnet",
        "label": "sequencerDelayLimit",
        "offset": 0,
        "slot": "0",
        "type": "t_uint256"
      },
      {
        "astId": 4182,
        "contract": "src/devnets/gnosisToArbitrum/VeaOutboxGnosisToArbDevnet.sol:VeaOutboxGnosisToArbDevnet",
        "label": "sequencerFutureLimit",
        "offset": 0,
        "slot": "1",
        "type": "t_uint256"
      },
      {
        "astId": 4184,
        "contract": "src/devnets/gnosisToArbitrum/VeaOutboxGnosisToArbDevnet.sol:VeaOutboxGnosisToArbDevnet",
        "label": "timestampDelayUpdated",
        "offset": 0,
        "slot": "2",
        "type": "t_uint256"
      },
      {
        "astId": 4186,
        "contract": "src/devnets/gnosisToArbitrum/VeaOutboxGnosisToArbDevnet.sol:VeaOutboxGnosisToArbDevnet",
        "label": "timestampFutureUpdated",
        "offset": 0,
        "slot": "3",
        "type": "t_uint256"
      },
      {
        "astId": 4188,
        "contract": "src/devnets/gnosisToArbitrum/VeaOutboxGnosisToArbDevnet.sol:VeaOutboxGnosisToArbDevnet",
        "label": "stateRoot",
        "offset": 0,
        "slot": "4",
        "type": "t_bytes32"
      },
      {
        "astId": 4190,
        "contract": "src/devnets/gnosisToArbitrum/VeaOutboxGnosisToArbDevnet.sol:VeaOutboxGnosisToArbDevnet",
        "label": "latestVerifiedEpoch",
        "offset": 0,
        "slot": "5",
        "type": "t_uint256"
      },
      {
        "astId": 4195,
        "contract": "src/devnets/gnosisToArbitrum/VeaOutboxGnosisToArbDevnet.sol:VeaOutboxGnosisToArbDevnet",
        "label": "claims",
        "offset": 0,
        "slot": "6",
        "type": "t_mapping(t_uint256,t_struct(Claim)4217_storage)"
      },
      {
        "astId": 4199,
        "contract": "src/devnets/gnosisToArbitrum/VeaOutboxGnosisToArbDevnet.sol:VeaOutboxGnosisToArbDevnet",
        "label": "challengers",
        "offset": 0,
        "slot": "7",
        "type": "t_mapping(t_uint256,t_address)"
      },
      {
        "astId": 4203,
        "contract": "src/devnets/gnosisToArbitrum/VeaOutboxGnosisToArbDevnet.sol:VeaOutboxGnosisToArbDevnet",
        "label": "relayed",
        "offset": 0,
        "slot": "8",
        "type": "t_mapping(t_uint256,t_bytes32)"
      },
      {
        "astId": 3824,
        "contract": "src/devnets/gnosisToArbitrum/VeaOutboxGnosisToArbDevnet.sol:VeaOutboxGnosisToArbDevnet",
        "label": "devnetOperator",
        "offset": 0,
        "slot": "9",
        "type": "t_address"
      }
    ],
    "types": {
      "t_address": {
        "encoding": "inplace",
        "label": "address",
        "numberOfBytes": "20"
      },
      "t_bytes32": {
        "encoding": "inplace",
        "label": "bytes32",
        "numberOfBytes": "32"
      },
      "t_enum(Party)4207": {
        "encoding": "inplace",
        "label": "enum VeaOutboxGnosisToArb.Party",
        "numberOfBytes": "1"
      },
      "t_mapping(t_uint256,t_address)": {
        "encoding": "mapping",
        "key": "t_uint256",
        "label": "mapping(uint256 => address)",
        "numberOfBytes": "32",
        "value": "t_address"
      },
      "t_mapping(t_uint256,t_bytes32)": {
        "encoding": "mapping",
        "key": "t_uint256",
        "label": "mapping(uint256 => bytes32)",
        "numberOfBytes": "32",
        "value": "t_bytes32"
      },
      "t_mapping(t_uint256,t_struct(Claim)4217_storage)": {
        "encoding": "mapping",
        "key": "t_uint256",
        "label": "mapping(uint256 => struct VeaOutboxGnosisToArb.Claim)",
        "numberOfBytes": "32",
        "value": "t_struct(Claim)4217_storage"
      },
      "t_struct(Claim)4217_storage": {
        "encoding": "inplace",
        "label": "struct VeaOutboxGnosisToArb.Claim",
        "members": [
          {
            "astId": 4209,
            "contract": "src/devnets/gnosisToArbitrum/VeaOutboxGnosisToArbDevnet.sol:VeaOutboxGnosisToArbDevnet",
            "label": "stateRoot",
            "offset": 0,
            "slot": "0",
            "type": "t_bytes32"
          },
          {
            "astId": 4211,
            "contract": "src/devnets/gnosisToArbitrum/VeaOutboxGnosisToArbDevnet.sol:VeaOutboxGnosisToArbDevnet",
            "label": "claimer",
            "offset": 0,
            "slot": "1",
            "type": "t_address"
          },
          {
            "astId": 4213,
            "contract": "src/devnets/gnosisToArbitrum/VeaOutboxGnosisToArbDevnet.sol:VeaOutboxGnosisToArbDevnet",
            "label": "timestamp",
            "offset": 20,
            "slot": "1",
            "type": "t_uint32"
          },
          {
            "astId": 4216,
            "contract": "src/devnets/gnosisToArbitrum/VeaOutboxGnosisToArbDevnet.sol:VeaOutboxGnosisToArbDevnet",
            "label": "honest",
            "offset": 24,
            "slot": "1",
            "type": "t_enum(Party)4207"
          }
        ],
        "numberOfBytes": "64"
      },
      "t_uint256": {
        "encoding": "inplace",
        "label": "uint256",
        "numberOfBytes": "32"
      },
      "t_uint32": {
        "encoding": "inplace",
        "label": "uint32",
        "numberOfBytes": "4"
      }
    }
  }
}