{
  "address": "0xcC196cC90bD30109E39400817e6ef63A1b744659",
  "abi": [
    {
      "inputs": [
        {
          "internalType": "uint256",
          "name": "_deposit",
          "type": "uint256"
        },
        {
          "internalType": "uint256",
          "name": "_epochPeriod",
          "type": "uint256"
        },
        {
          "internalType": "uint256",
          "name": "_challengePeriod",
          "type": "uint256"
        },
        {
          "internalType": "uint256",
          "name": "_timeoutEpochs",
          "type": "uint256"
        },
        {
          "internalType": "address",
          "name": "_routerGnosisToArb",
          "type": "address"
        },
        {
          "internalType": "uint256",
          "name": "_sequencerDelayLimit",
          "type": "uint256"
        },
        {
          "internalType": "uint256",
          "name": "_sequencerFutureLimit",
          "type": "uint256"
        },
        {
          "internalType": "uint256",
          "name": "_maxClaimDelayEpochs",
          "type": "uint256"
        },
        {
          "internalType": "uint256",
          "name": "_maxClaimFutureEpochs",
          "type": "uint256"
        }
      ],
      "stateMutability": "nonpayable",
      "type": "constructor"
    },
    {
      "anonymous": false,
      "inputs": [
        {
          "indexed": false,
          "internalType": "uint256",
          "name": "_epoch",
          "type": "uint256"
        },
        {
          "indexed": true,
          "internalType": "address",
          "name": "_challenger",
          "type": "address"
        }
      ],
      "name": "Challenged",
      "type": "event"
    },
    {
      "anonymous": false,
      "inputs": [
        {
          "indexed": true,
          "internalType": "address",
          "name": "_claimer",
          "type": "address"
        },
        {
          "indexed": false,
          "internalType": "bytes32",
          "name": "_stateRoot",
          "type": "bytes32"
        }
      ],
      "name": "Claimed",
      "type": "event"
    },
    {
      "anonymous": false,
      "inputs": [
        {
          "indexed": false,
          "internalType": "uint64",
          "name": "_msgId",
          "type": "uint64"
        }
      ],
      "name": "MessageRelayed",
      "type": "event"
    },
    {
      "anonymous": false,
      "inputs": [
        {
          "indexed": false,
          "internalType": "uint256",
          "name": "_epoch",
          "type": "uint256"
        }
      ],
      "name": "Verified",
      "type": "event"
    },
    {
      "anonymous": false,
      "inputs": [
        {
          "indexed": false,
          "internalType": "uint256",
          "name": "_newsequencerDelayLimit",
          "type": "uint256"
        }
      ],
      "name": "sequencerDelayLimitUpdateReceived",
      "type": "event"
    },
    {
      "inputs": [
        {
          "internalType": "uint256",
          "name": "_epoch",
          "type": "uint256"
        }
      ],
      "name": "challenge",
      "outputs": [],
      "stateMutability": "payable",
      "type": "function"
    },
    {
      "inputs": [],
      "name": "challengePeriod",
      "outputs": [
        {
          "internalType": "uint256",
          "name": "",
          "type": "uint256"
        }
      ],
      "stateMutability": "view",
      "type": "function"
    },
    {
      "inputs": [
        {
          "internalType": "uint256",
          "name": "",
          "type": "uint256"
        }
      ],
      "name": "challengers",
      "outputs": [
        {
          "internalType": "address",
          "name": "",
          "type": "address"
        }
      ],
      "stateMutability": "view",
      "type": "function"
    },
    {
      "inputs": [
        {
          "internalType": "address",
          "name": "_devnetOperator",
          "type": "address"
        }
      ],
      "name": "changeDevnetOperator",
      "outputs": [],
      "stateMutability": "nonpayable",
      "type": "function"
    },
    {
      "inputs": [
        {
          "internalType": "uint256",
          "name": "_epoch",
          "type": "uint256"
        },
        {
          "internalType": "bytes32",
          "name": "_stateRoot",
          "type": "bytes32"
        }
      ],
      "name": "claim",
      "outputs": [],
      "stateMutability": "payable",
      "type": "function"
    },
    {
      "inputs": [
        {
          "internalType": "uint256",
          "name": "",
          "type": "uint256"
        }
      ],
      "name": "claims",
      "outputs": [
        {
          "internalType": "bytes32",
          "name": "stateRoot",
          "type": "bytes32"
        },
        {
          "internalType": "address",
          "name": "claimer",
          "type": "address"
        },
        {
          "internalType": "uint32",
          "name": "timestamp",
          "type": "uint32"
        },
        {
          "internalType": "enum VeaOutboxGnosisToArb.Party",
          "name": "honest",
          "type": "uint8"
        }
      ],
      "stateMutability": "view",
      "type": "function"
    },
    {
      "inputs": [],
      "name": "deposit",
      "outputs": [
        {
          "internalType": "uint256",
          "name": "",
          "type": "uint256"
        }
      ],
      "stateMutability": "view",
      "type": "function"
    },
    {
      "inputs": [
        {
          "internalType": "uint256",
          "name": "_epoch",
          "type": "uint256"
        },
        {
          "internalType": "bytes32",
          "name": "_stateroot",
          "type": "bytes32"
        }
      ],
      "name": "devnetAdvanceState",
      "outputs": [],
      "stateMutability": "payable",
      "type": "function"
    },
    {
      "inputs": [],
      "name": "devnetOperator",
      "outputs": [
        {
          "internalType": "address",
          "name": "",
          "type": "address"
        }
      ],
      "stateMutability": "view",
      "type": "function"
    },
    {
      "inputs": [
        {
          "internalType": "uint256",
          "name": "timestamp",
          "type": "uint256"
        }
      ],
      "name": "epochAt",
      "outputs": [
        {
          "internalType": "uint256",
          "name": "epoch",
          "type": "uint256"
        }
      ],
      "stateMutability": "view",
      "type": "function"
    },
    {
      "inputs": [],
      "name": "epochNow",
      "outputs": [
        {
          "internalType": "uint256",
          "name": "epoch",
          "type": "uint256"
        }
      ],
      "stateMutability": "view",
      "type": "function"
    },
    {
      "inputs": [],
      "name": "epochPeriod",
      "outputs": [
        {
          "internalType": "uint256",
          "name": "",
          "type": "uint256"
        }
      ],
      "stateMutability": "view",
      "type": "function"
    },
    {
      "inputs": [],
      "name": "latestVerifiedEpoch",
      "outputs": [
        {
          "internalType": "uint256",
          "name": "",
          "type": "uint256"
        }
      ],
      "stateMutability": "view",
      "type": "function"
    },
    {
      "inputs": [],
      "name": "maxClaimDelayEpochs",
      "outputs": [
        {
          "internalType": "uint256",
          "name": "",
          "type": "uint256"
        }
      ],
      "stateMutability": "view",
      "type": "function"
    },
    {
      "inputs": [],
      "name": "maxClaimFutureEpochs",
      "outputs": [
        {
          "internalType": "uint256",
          "name": "",
          "type": "uint256"
        }
      ],
      "stateMutability": "view",
      "type": "function"
    },
    {
      "inputs": [
        {
          "internalType": "uint256",
          "name": "",
          "type": "uint256"
        }
      ],
      "name": "relayed",
      "outputs": [
        {
          "internalType": "bytes32",
          "name": "",
          "type": "bytes32"
        }
      ],
      "stateMutability": "view",
      "type": "function"
    },
    {
      "inputs": [
        {
          "internalType": "uint256",
          "name": "_epoch",
          "type": "uint256"
        },
        {
          "internalType": "bytes32",
          "name": "_stateRoot",
          "type": "bytes32"
        }
      ],
      "name": "resolveDisputedClaim",
      "outputs": [],
      "stateMutability": "nonpayable",
      "type": "function"
    },
    {
      "inputs": [],
      "name": "routerGnosisToArb",
      "outputs": [
        {
          "internalType": "address",
          "name": "",
          "type": "address"
        }
      ],
      "stateMutability": "view",
      "type": "function"
    },
    {
      "inputs": [
        {
          "internalType": "bytes32[]",
          "name": "_proof",
          "type": "bytes32[]"
        },
        {
          "internalType": "uint64",
          "name": "_msgId",
          "type": "uint64"
        },
        {
          "internalType": "address",
          "name": "_to",
          "type": "address"
        },
        {
          "internalType": "bytes",
          "name": "_message",
          "type": "bytes"
        }
      ],
      "name": "sendMessage",
      "outputs": [],
      "stateMutability": "nonpayable",
      "type": "function"
    },
    {
      "inputs": [],
      "name": "sequencerDelayLimit",
      "outputs": [
        {
          "internalType": "uint256",
          "name": "",
          "type": "uint256"
        }
      ],
      "stateMutability": "view",
      "type": "function"
    },
    {
      "inputs": [],
      "name": "sequencerFutureLimit",
      "outputs": [
        {
          "internalType": "uint256",
          "name": "",
          "type": "uint256"
        }
      ],
      "stateMutability": "view",
      "type": "function"
    },
    {
      "inputs": [],
      "name": "stateRoot",
      "outputs": [
        {
          "internalType": "bytes32",
          "name": "",
          "type": "bytes32"
        }
      ],
      "stateMutability": "view",
      "type": "function"
    },
    {
      "inputs": [],
      "name": "timeoutEpochs",
      "outputs": [
        {
          "internalType": "uint256",
          "name": "",
          "type": "uint256"
        }
      ],
      "stateMutability": "view",
      "type": "function"
    },
    {
      "inputs": [],
      "name": "timestampDelayUpdated",
      "outputs": [
        {
          "internalType": "uint256",
          "name": "",
          "type": "uint256"
        }
      ],
      "stateMutability": "view",
      "type": "function"
    },
    {
      "inputs": [],
      "name": "timestampFutureUpdated",
      "outputs": [
        {
          "internalType": "uint256",
          "name": "",
          "type": "uint256"
        }
      ],
      "stateMutability": "view",
      "type": "function"
    },
    {
      "inputs": [
        {
          "internalType": "uint256",
          "name": "_newSequencerDelayLimit",
          "type": "uint256"
        },
        {
          "internalType": "uint256",
          "name": "_timestamp",
          "type": "uint256"
        }
      ],
      "name": "updateSequencerDelayLimit",
      "outputs": [],
      "stateMutability": "nonpayable",
      "type": "function"
    },
    {
      "inputs": [
        {
          "internalType": "uint256",
          "name": "_newSequencerFutureLimit",
          "type": "uint256"
        },
        {
          "internalType": "uint256",
          "name": "_timestamp",
          "type": "uint256"
        }
      ],
      "name": "updateSequencerFutureLimit",
      "outputs": [],
      "stateMutability": "nonpayable",
      "type": "function"
    },
    {
      "inputs": [
        {
          "internalType": "uint256",
          "name": "_epoch",
          "type": "uint256"
        }
      ],
      "name": "verifySnapshot",
      "outputs": [],
      "stateMutability": "nonpayable",
      "type": "function"
    },
    {
      "inputs": [
        {
          "internalType": "uint256",
          "name": "_epoch",
          "type": "uint256"
        }
      ],
      "name": "withdrawChallengeDeposit",
      "outputs": [],
      "stateMutability": "nonpayable",
      "type": "function"
    },
    {
      "inputs": [
        {
          "internalType": "uint256",
          "name": "_epoch",
          "type": "uint256"
        }
      ],
      "name": "withdrawChallengerEscapeHatch",
      "outputs": [],
      "stateMutability": "nonpayable",
      "type": "function"
    },
    {
      "inputs": [
        {
          "internalType": "uint256",
          "name": "_epoch",
          "type": "uint256"
        }
      ],
      "name": "withdrawClaimDeposit",
      "outputs": [],
      "stateMutability": "nonpayable",
      "type": "function"
    },
    {
      "inputs": [
        {
          "internalType": "uint256",
          "name": "_epoch",
          "type": "uint256"
        }
      ],
      "name": "withdrawClaimerEscapeHatch",
      "outputs": [],
      "stateMutability": "nonpayable",
      "type": "function"
    }
  ],
  "transactionHash": "0xdfcca2e8bbcf50649bb73e122025c56a32d908da34d230f8ccfc5804494fac78",
  "args": [
    "100000000000000000",
    1800,
    0,
    10000000000000,
    "0x21596998458c428d745d171FA0636B885ed18DaC",
    86400,
    3600,
    100,
    100
  ],
  "numDeployments": 1,
  "solcInputHash": "7c0af28198435174eb5c96e521603416",
  "bytecode": "0x6101a06040523480156200001257600080fd5b50604051620023ec380380620023ec8339810160408190526200003591620000f3565b60a08990526101008890526101208790526101408690526001600160a01b038516608052600084905560018390556101608290526101808190528888888888888888886200008560028a6200018d565b60c0819052620000978a6002620001b0565b620000a39190620001d0565b60e05261010051600190620000b990426200018d565b620000c59190620001d0565b6005555050600980546001600160a01b0319163317905550620001e69e505050505050505050505050505050565b60008060008060008060008060006101208a8c0312156200011357600080fd5b895160208b015160408c015160608d015160808e0151939c50919a50985096506001600160a01b03811681146200014957600080fd5b8095505060a08a0151935060c08a0151925060e08a015191506101008a015190509295985092959850929598565b634e487b7160e01b600052601160045260246000fd5b600082620001ab57634e487b7160e01b600052601260045260246000fd5b500490565b8082028115828204841417620001ca57620001ca62000177565b92915050565b81810381811115620001ca57620001ca62000177565b60805160a05160c05160e05161010051610120516101405161016051610180516120bc62000330600039600081816102f70152610a030152600081816101fa0152610afc01526000818161054c0152818161069f0152818161103501528181611365015261176b01526000818161065b01526114b4015260008181610580015281816106c401528181610820015281816109bb01528181610a2701528181610ab501528181610b200152818161105a015281816111b70152818161138a01526117900152600081816112e00152611c5c01526000818161129f0152611c1b0152600081816105b4015281816107e00152818161094901528181610d1701528181610d44015281816111780152818161132b015281816119f001528181611abc0152611ae90152600081816106140152818161085501528181611603015261180a01526120bc6000f3fe6080604052600436106101e35760003560e01c80638a619a7111610102578063b5b7a18411610095578063eb8dedfa11610064578063eb8dedfa14610602578063eedcf2a914610636578063f3f480d914610649578063f4cf751b1461067d57600080fd5b8063b5b7a1841461056e578063d0e30db0146105a2578063d6e01b39146105d6578063e813a755146105ec57600080fd5b80639588eca2116100d15780639588eca2146104aa578063a888c2cd146104c0578063ab82d9a014610527578063b044397e1461053a57600080fd5b80638a619a711461041d5780638ad3a8f71461043d5780638caeb7a81461045d57806390df63b71461047d57600080fd5b80633968ae001161017a578063649628491161014957806364962849146103795780636b45ebcb14610399578063710cc9a7146103e75780637ffc2a6e1461040757600080fd5b80633968ae00146102e55780634518f79f146103195780634a439cfe1461033957806350b81dbe1461035957600080fd5b806327ee6bdd116101b657806327ee6bdd1461027c5780632c1925191461029257806331d14457146102b257806331ddf743146102c557600080fd5b8063042c4aaf146101e85780630e56752e1461022f578063114095d314610245578063222ae78614610267575b600080fd5b3480156101f457600080fd5b5061021c7f000000000000000000000000000000000000000000000000000000000000000081565b6040519081526020015b60405180910390f35b34801561023b57600080fd5b5061021c60015481565b34801561025157600080fd5b50610265610260366004611c97565b61069d565b005b34801561027357600080fd5b5061021c610819565b34801561028857600080fd5b5061021c60055481565b34801561029e57600080fd5b506102656102ad366004611cb0565b61084a565b6102656102c0366004611cb0565b610930565b3480156102d157600080fd5b506102656102e0366004611dbd565b610d94565b3480156102f157600080fd5b5061021c7f000000000000000000000000000000000000000000000000000000000000000081565b34801561032557600080fd5b50610265610334366004611c97565b611033565b34801561034557600080fd5b5061021c610354366004611c97565b6111b0565b34801561036557600080fd5b50610265610374366004611c97565b6111e2565b34801561038557600080fd5b50610265610394366004611c97565b611363565b3480156103a557600080fd5b506103cf6103b4366004611c97565b6007602052600090815260409020546001600160a01b031681565b6040516001600160a01b039091168152602001610226565b3480156103f357600080fd5b50610265610402366004611cb0565b6115f8565b34801561041357600080fd5b5061021c60025481565b34801561042957600080fd5b50610265610438366004611ea9565b6116d6565b34801561044957600080fd5b506009546103cf906001600160a01b031681565b34801561046957600080fd5b50610265610478366004611cb0565b611769565b34801561048957600080fd5b5061021c610498366004611c97565b60086020526000908152604090205481565b3480156104b657600080fd5b5061021c60045481565b3480156104cc57600080fd5b506105176104db366004611c97565b600660205260009081526040902080546001909101546001600160a01b03811690600160a01b810463ffffffff1690600160c01b900460ff1684565b6040516102269493929190611ee1565b610265610535366004611c97565b61192c565b34801561054657600080fd5b5061021c7f000000000000000000000000000000000000000000000000000000000000000081565b34801561057a57600080fd5b5061021c7f000000000000000000000000000000000000000000000000000000000000000081565b3480156105ae57600080fd5b5061021c7f000000000000000000000000000000000000000000000000000000000000000081565b3480156105e257600080fd5b5061021c60035481565b3480156105f857600080fd5b5061021c60005481565b34801561060e57600080fd5b506103cf7f000000000000000000000000000000000000000000000000000000000000000081565b610265610644366004611cb0565b611b32565b34801561065557600080fd5b5061021c7f000000000000000000000000000000000000000000000000000000000000000081565b34801561068957600080fd5b50610265610698366004611c97565b611b4e565b7f0000000000000000000000000000000000000000000000000000000000000000600554017f000000000000000000000000000000000000000000000000000000000000000042816106f1576106f1611f30565b04116107365760405162461bcd60e51b815260206004820152600f60248201526e213934b233b290293ab73734b7339760891b60448201526064015b60405180910390fd5b60008082815260066020526040902060010154600160c01b900460ff16600281111561076457610764611ecb565b146107a35760405162461bcd60e51b815260206004820152600f60248201526e21b630b4b6903932b9b7b63b32b21760891b604482015260640161072d565b600081815260076020526040902080546001600160a01b031981169091556001600160a01b03168015610815576040516001600160a01b038216907f000000000000000000000000000000000000000000000000000000000000000080156108fc02916000818181858888f150505050505b5050565b60006108457f000000000000000000000000000000000000000000000000000000000000000042611f5c565b905090565b336001600160a01b037f000000000000000000000000000000000000000000000000000000000000000061111161111160901b0101161461089d5760405162461bcd60e51b815260040161072d90611f7e565b80600254106108e55760405162461bcd60e51b815260206004820152601460248201527326b2b9b9b0b3b29034b99037baba3230ba32b21760611b604482015260640161072d565b816000541461081557600082905560028190556040518281527f684f6fb71cbcb798156dcca2a95dbd142fa1f8957637833b1897ab89e05aa707906020015b60405180910390a15050565b6009546001600160a01b0316331461094757600080fd5b7f00000000000000000000000000000000000000000000000000000000000000003410156109b75760405162461bcd60e51b815260206004820152601b60248201527f496e73756666696369656e7420636c61696d206465706f7369742e0000000000604482015260640161072d565b60007f0000000000000000000000000000000000000000000000000000000000000000600054426109e89190611fb5565b6109f29190611f5c565b6109fd906001611fb5565b905060007f0000000000000000000000000000000000000000000000000000000000000000610a4c7f000000000000000000000000000000000000000000000000000000000000000042611f5c565b610a569190611fb5565b90506000818310610a675781610a69565b825b905080851115610aaf5760405162461bcd60e51b815260206004820152601160248201527022b837b1b41034b99034b73b30b634b21760791b604482015260640161072d565b600060017f000000000000000000000000000000000000000000000000000000000000000060015442610ae29190611fc8565b610aec9190611f5c565b610af69190611fc8565b905060007f0000000000000000000000000000000000000000000000000000000000000000610b457f000000000000000000000000000000000000000000000000000000000000000042611f5c565b610b4f9190611fc8565b90506000818311610b605781610b62565b815b905080881015610ba85760405162461bcd60e51b815260206004820152601160248201527022b837b1b41034b99034b73b30b634b21760791b604482015260640161072d565b86610be65760405162461bcd60e51b815260206004820152600e60248201526d24b73b30b634b21031b630b4b69760911b604482015260640161072d565b6000888152600660205260409020600101546001600160a01b031615610c445760405162461bcd60e51b815260206004820152601360248201527221b630b4b69030b63932b0b23c9036b0b2329760691b604482015260640161072d565b6040805160808101825288815233602080830191825263ffffffff4281168486019081526000606086018181528f82526006909452959095208451815592516001840180549651909216600160a01b026001600160c01b03199096166001600160a01b039091161794909417808555905192939192919060ff60c01b1916600160c01b836002811115610cd957610cd9611ecb565b0217905550506040518881523391507f91d697238e9aa9f3172d17522c9be529b94a892481554e1ea619369b5b12f39a9060200160405180910390a27f0000000000000000000000000000000000000000000000000000000000000000341115610d8a576000610d697f000000000000000000000000000000000000000000000000000000000000000034611fc8565b604051909150339082156108fc029083906000818181858888f15050505050505b5050505050505050565b6040845110610dd75760405162461bcd60e51b815260206004820152600f60248201526e283937b7b3103a37b7903637b7339760891b604482015260640161072d565b6000838383604051602001610dee9392919061200b565b604051602081830303815290604052805190602001209050806000526020600020905060005b8551811015610e70576000868281518110610e3157610e3161204d565b6020026020010151905082811115610e5757826000528060205260406000209250610e67565b8060005282602052604060002092505b50600101610e14565b508060045414610eb35760405162461bcd60e51b815260206004820152600e60248201526d24b73b30b634b210383937b7b31760911b604482015260640161072d565b600884811c66ffffffffffffff16600081815260209290925260409091205460ff86169080821c60011615610f2a5760405162461bcd60e51b815260206004820152601760248201527f4d65737361676520616c72656164792072656c61796564000000000000000000604482015260640161072d565b6000838152600860205260408082206001851b84179055516001600160a01b03881690610f58908890612063565b6000604051808303816000865af19150503d8060008114610f95576040519150601f19603f3d011682016040523d82523d6000602084013e610f9a565b606091505b5050905080610feb5760405162461bcd60e51b815260206004820152601760248201527f4661696c656420746f2063616c6c20636f6e7472616374000000000000000000604482015260640161072d565b60405167ffffffffffffffff891681527f54303fab361bc52c2f1f56ace7351189582264f74ce47a6e7c3f478d64c429439060200160405180910390a1505050505050505050565b7f0000000000000000000000000000000000000000000000000000000000000000600554017f0000000000000000000000000000000000000000000000000000000000000000428161108757611087611f30565b04116110c75760405162461bcd60e51b815260206004820152600f60248201526e213934b233b290293ab73734b7339760891b604482015260640161072d565b60008082815260066020526040902060010154600160c01b900460ff1660028111156110f5576110f5611ecb565b146111345760405162461bcd60e51b815260206004820152600f60248201526e21b630b4b6903932b9b7b63b32b21760891b604482015260640161072d565b6000818152600660205260408120600181018054929091556001600160c81b0319821690556001600160a01b03168015610815576040516001600160a01b038216907f000000000000000000000000000000000000000000000000000000000000000080156108fc02916000818181858888f150505050505050565b60006111dc7f000000000000000000000000000000000000000000000000000000000000000083611f5c565b92915050565b6001600082815260066020526040902060010154600160c01b900460ff16600281111561121157611211611ecb565b146112545760405162461bcd60e51b815260206004820152601360248201527221b630b4b6903ab739bab1b1b2b9b9b33ab61760691b604482015260640161072d565b6000818152600660209081526040808320600181018054918590556001600160c81b0319821690556007909252909120546001600160a01b0391821691161561131b576040516000907f000000000000000000000000000000000000000000000000000000000000000080156108fc029183818181858288f150506040516001600160a01b03851693507f000000000000000000000000000000000000000000000000000000000000000080156108fc02935091506000818181858888f150505050505050565b6040516001600160a01b038216907f000000000000000000000000000000000000000000000000000000000000000080156108fc02916000818181858888f150505050505050565b7f0000000000000000000000000000000000000000000000000000000000000000600554017f000000000000000000000000000000000000000000000000000000000000000042816113b7576113b7611f30565b0411156113f95760405162461bcd60e51b815260206004820152601060248201526f213934b233b29029b43aba3237bbb71760811b604482015260640161072d565b600081815260066020526040902060010154600160a01b900463ffffffff16806114565760405162461bcd60e51b815260206004820152600e60248201526d24b73b30b634b21031b630b4b69760911b604482015260640161072d565b6000828152600760205260409020546001600160a01b0316156114b25760405162461bcd60e51b815260206004820152601460248201527321b630b4b69034b99031b430b63632b733b2b21760611b604482015260640161072d565b7f000000000000000000000000000000000000000000000000000000000000000060015460005460026114e5919061206f565b6114ef9190611fb5565b6114f99190611fb5565b6115038242611fc8565b10156115775760405162461bcd60e51b815260206004820152603760248201527f436c61696d206d757374207761697420666f722073657175656e63657244656c60448201527f617920616e64206368616c6c656e6765506572696f642e000000000000000000606482015260840161072d565b6005548211156115d35760058290556000828152600660205260409081902054600455517ff786e7f77ede00a02a5464f8f0555798f42ba99a4a920ef2778db8d75e4656f7906115ca9084815260200190565b60405180910390a15b506000908152600660205260409020600101805460ff60c01b1916600160c01b179055565b336001600160a01b037f000000000000000000000000000000000000000000000000000000000000000061111161111160901b0101161461164b5760405162461bcd60e51b815260040161072d90611f7e565b80600354106116935760405162461bcd60e51b815260206004820152601460248201527326b2b9b9b0b3b29034b99037baba3230ba32b21760611b604482015260640161072d565b816001541461081557600182905560038190556040518281527f684f6fb71cbcb798156dcca2a95dbd142fa1f8957637833b1897ab89e05aa70790602001610924565b6009546001600160a01b031633146116ed57600080fd5b6009546001600160a01b031633146117475760405162461bcd60e51b815260206004820152601860248201527f496e76616c696420546573746e6574204f70657261746f720000000000000000604482015260640161072d565b600980546001600160a01b0319166001600160a01b0392909216919091179055565b7f0000000000000000000000000000000000000000000000000000000000000000600554017f000000000000000000000000000000000000000000000000000000000000000042816117bd576117bd611f30565b0411156117ff5760405162461bcd60e51b815260206004820152601060248201526f213934b233b29029b43aba3237bbb71760811b604482015260640161072d565b336001600160a01b037f000000000000000000000000000000000000000000000000000000000000000061111161111160901b010116146118525760405162461bcd60e51b815260040161072d90611f7e565b6005548211801561186257508015155b156118a557600582905560048190556040518281527ff786e7f77ede00a02a5464f8f0555798f42ba99a4a920ef2778db8d75e4656f79060200160405180910390a15b6000828152600660205260409020548015611927578181036118e75750506000908152600660205260409020600101805460ff60c01b1916600160c01b179055565b6000838152600760205260409020546001600160a01b031615611927576000838152600660205260409020600101805460ff60c01b1916600160c11b1790555b505050565b6000818152600760205260409020546001600160a01b0316156119915760405162461bcd60e51b815260206004820152601960248201527f436c61696d20616c7265616479206368616c6c656e6765642e00000000000000604482015260640161072d565b6000818152600660205260409020600101546001600160a01b03166119ee5760405162461bcd60e51b815260206004820152601360248201527227379031b630b4b6903337b91032b837b1b41760691b604482015260640161072d565b7f0000000000000000000000000000000000000000000000000000000000000000341015611a5e5760405162461bcd60e51b815260206004820152601f60248201527f496e73756666696369656e74206368616c6c656e6765206465706f7369742e00604482015260640161072d565b6000818152600760205260409081902080546001600160a01b0319163390811790915590517fcfe09ca25f55d949baba5e280f5750c9ba4b9048fca5532f916067d433afe4d790611ab29084815260200190565b60405180910390a27f0000000000000000000000000000000000000000000000000000000000000000341115611b2f576000611b0e7f000000000000000000000000000000000000000000000000000000000000000034611fc8565b604051909150339082156108fc029083906000818181858888f15050505050505b50565b611b3c8282610930565b611b4582611363565b610815826111e2565b6002600082815260066020526040902060010154600160c01b900460ff166002811115611b7d57611b7d611ecb565b14611bca5760405162461bcd60e51b815260206004820152601760248201527f4368616c6c656e676520756e7375636365737366756c2e000000000000000000604482015260640161072d565b600081815260076020818152604080842080546006845282862086815560010180546001600160c81b03191690559390925281546001600160a01b031916909155516001600160a01b0390911691907f000000000000000000000000000000000000000000000000000000000000000080156108fc029183818181858288f150506040516001600160a01b03851693507f000000000000000000000000000000000000000000000000000000000000000080156108fc02935091506000818181858888f150505050505050565b600060208284031215611ca957600080fd5b5035919050565b60008060408385031215611cc357600080fd5b50508035926020909101359150565b634e487b7160e01b600052604160045260246000fd5b604051601f8201601f1916810167ffffffffffffffff81118282101715611d1157611d11611cd2565b604052919050565b803567ffffffffffffffff81168114611d3157600080fd5b919050565b80356001600160a01b0381168114611d3157600080fd5b600082601f830112611d5e57600080fd5b813567ffffffffffffffff811115611d7857611d78611cd2565b611d8b601f8201601f1916602001611ce8565b818152846020838601011115611da057600080fd5b816020850160208301376000918101602001919091529392505050565b60008060008060808587031215611dd357600080fd5b843567ffffffffffffffff80821115611deb57600080fd5b818701915087601f830112611dff57600080fd5b8135602082821115611e1357611e13611cd2565b8160051b611e22828201611ce8565b928352848101820192828101908c851115611e3c57600080fd5b958301955b84871015611e5a57863582529583019590830190611e41565b9950611e6a915050898201611d19565b96505050611e7a60408801611d36565b93506060870135915080821115611e9057600080fd5b50611e9d87828801611d4d565b91505092959194509250565b600060208284031215611ebb57600080fd5b611ec482611d36565b9392505050565b634e487b7160e01b600052602160045260246000fd5b8481526001600160a01b038416602082015263ffffffff831660408201526080810160038310611f2157634e487b7160e01b600052602160045260246000fd5b82606083015295945050505050565b634e487b7160e01b600052601260045260246000fd5b634e487b7160e01b600052601160045260246000fd5b600082611f7957634e487b7160e01b600052601260045260246000fd5b500490565b6020808252601a908201527f4f6e6c79204c3120726f75746572476e6f736973546f4172622e000000000000604082015260600190565b808201808211156111dc576111dc611f46565b818103818111156111dc576111dc611f46565b6000815160005b81811015611ffc5760208185018101518683015201611fe2565b50600093019283525090919050565b60c084901b6001600160c01b0319168152606083901b6bffffffffffffffffffffffff191660088201526000612044601c830184611fdb565b95945050505050565b634e487b7160e01b600052603260045260246000fd5b6000611ec48284611fdb565b80820281158282048414176111dc576111dc611f4656fea2646970667358221220329cfa65bccde5a3149b4741ed975d047018671c90d85a618a650a693af231ac64736f6c63430008120033",
  "devdoc": {
    "details": "Vea Outbox From Chiado to ArbitrumGoerli. Note: This contract is deployed on ArbitrumGoerli. Note: This contract is permissioned for developer testing (devnet).",
    "events": {
      "Challenged(uint256,address)": {
        "details": "This event indicates that `sendSnapshot(epoch)` should be called in the inbox.",
        "params": {
          "_challenger": "The address of the challenger.",
          "_epoch": "The epoch associated with the challenged claim."
        }
      },
      "Claimed(address,bytes32)": {
        "details": "Watcher check this event to challenge fraud.",
        "params": {
          "_claimer": "The address of the claimer.",
          "_stateRoot": "The state root of the claim."
        }
      },
      "MessageRelayed(uint64)": {
        "details": "This event indicates that a message has been relayed.",
        "params": {
          "_msgId": "The msgId of the message that was relayed."
        }
      },
      "Verified(uint256)": {
        "details": "This events indicates that verification has succeeded. The messages are ready to be relayed.",
        "params": {
          "_epoch": "The epoch that was verified."
        }
      },
      "sequencerDelayLimitUpdateReceived(uint256)": {
        "details": "This event indicates the sequencer limit updated.",
        "params": {
          "_newsequencerDelayLimit": "The new maxL2StateSyncDelay."
        }
      }
    },
    "kind": "dev",
    "methods": {
      "challenge(uint256)": {
        "details": "Submit a challenge for the claim of the inbox state root snapshot taken at 'epoch'.",
        "params": {
          "_epoch": "The epoch of the claim to challenge."
        }
      },
      "changeDevnetOperator(address)": {
        "details": "Changes the devnet operator.",
        "params": {
          "_devnetOperator": "The new testnet operator."
        }
      },
      "claim(uint256,bytes32)": {
        "details": "Submit a claim about the _stateRoot at _epoch and submit a deposit.",
        "params": {
          "_epoch": "The epoch for which the claim is made.",
          "_stateRoot": "The state root to claim."
        }
      },
      "constructor": {
        "details": "Constructor. Note: epochPeriod must match the VeaInboxGnosisToArb contract deployment on Arbitrum, since it's on a different chain, we can't read it and trust the deployer to set a correct value",
        "params": {
          "_challengePeriod": "The duration of the period allowing to challenge a claim.",
          "_deposit": "The deposit amount to submit a claim in wei.",
          "_epochPeriod": "The duration of each epoch.",
          "_maxClaimDelayEpochs": "The maximum number of epochs that can be claimed in the past.",
          "_maxClaimFutureEpochs": "The maximum number of epochs that can be claimed in the future.",
          "_routerGnosisToArb": "The address of the router on Ethereum that routes from Arbitrum to Ethereum.",
          "_sequencerDelayLimit": "The maximum delay in seconds that the Arbitrum sequencer can backdate transactions.",
          "_sequencerFutureLimit": "The maximum delay in seconds that the Arbitrum sequencer can futuredate transactions.",
          "_timeoutEpochs": "The epochs before the bridge is considered shutdown."
        }
      },
      "devnetAdvanceState(uint256,bytes32)": {
        "details": "Testnet operator utility function to claim, validate and withdraw.",
        "params": {
          "_epoch": "The epoch for which the claim is made.",
          "_stateroot": "The state root to claim."
        }
      },
      "epochAt(uint256)": {
        "details": "Get the current epoch from the outbox's point of view using the Ethereum L1 clock.",
        "returns": {
          "epoch": "The hash of the claim."
        }
      },
      "epochNow()": {
        "details": "Get the current epoch from the outbox's point of view using the Ethereum L1 clock.",
        "returns": {
          "epoch": "The hash of the claim."
        }
      },
      "resolveDisputedClaim(uint256,bytes32)": {
        "details": "Resolves any challenge of the optimistic claim for '_epoch'.",
        "params": {
          "_epoch": "The epoch to verify.",
          "_stateRoot": "The true state root for the epoch."
        }
      },
      "sendMessage(bytes32[],uint64,address,bytes)": {
        "details": "Verifies and relays the message. UNTRUSTED.",
        "params": {
          "_message": "The message encoded with header from VeaInbox.",
          "_msgId": "The zero based index of the message in the inbox.",
          "_proof": "The merkle proof to prove the message.",
          "_to": "The address of the contract on Gnosis to call."
        }
      },
      "updateSequencerDelayLimit(uint256,uint256)": {
        "details": "Set the sequencerDelayLimit by reading from the Arbitrum Bridge",
        "params": {
          "_newSequencerDelayLimit": "The delaySeconds from the MaxTimeVariation struct in the Arbitrum Sequencer contract.",
          "_timestamp": "The timestamp of the message."
        }
      },
      "updateSequencerFutureLimit(uint256,uint256)": {
        "details": "Set the sequencerFutureLimit by reading from the Arbitrum Bridge",
        "params": {
          "_newSequencerFutureLimit": "The delaySeconds from the MaxTimeVariation struct in the Arbitrum Sequencer contract.",
          "_timestamp": "The timestamp of the message."
        }
      },
      "verifySnapshot(uint256)": {
        "details": "Resolves the optimistic claim for '_epoch'.",
        "params": {
          "_epoch": "The epoch of the optimistic claim."
        }
      },
      "withdrawChallengeDeposit(uint256)": {
        "details": "Sends the deposit back to the Challenger if successful. Includes a portion of the Bridger's deposit.",
        "params": {
          "_epoch": "The epoch associated with the challenge deposit to withraw."
        }
      },
      "withdrawChallengerEscapeHatch(uint256)": {
        "details": "When bridge is shutdown, no claim disputes can be resolved. This allows the challenger to withdraw their deposit.",
        "params": {
          "_epoch": "The epoch associated with the claim deposit to withraw."
        }
      },
      "withdrawClaimDeposit(uint256)": {
        "details": "Sends the deposit back to the Claimer if successful. Includes a portion of the Challenger's deposit if unsuccessfully challenged.",
        "params": {
          "_epoch": "The epoch associated with the claim deposit to withraw."
        }
      },
      "withdrawClaimerEscapeHatch(uint256)": {
        "details": "When bridge is shutdown, no claim disputes can be resolved. This allows the claimer to withdraw their deposit.",
        "params": {
          "_epoch": "The epoch associated with the claim deposit to withraw."
        }
      }
    },
    "version": 1
  },
  "userdoc": {
    "kind": "user",
    "methods": {
      "resolveDisputedClaim(uint256,bytes32)": {
        "notice": "Note: Access restricted to AMB."
      }
    },
    "version": 1
  },
  "storageLayout": {
    "storage": [
      {
        "astId": 499,
        "contract": "src/devnets/gnosisToArbitrum/VeaOutboxGnosisToArbDevnet.sol:VeaOutboxGnosisToArbDevnet",
        "label": "sequencerDelayLimit",
        "offset": 0,
        "slot": "0",
        "type": "t_uint256"
      },
      {
        "astId": 501,
        "contract": "src/devnets/gnosisToArbitrum/VeaOutboxGnosisToArbDevnet.sol:VeaOutboxGnosisToArbDevnet",
        "label": "sequencerFutureLimit",
        "offset": 0,
        "slot": "1",
        "type": "t_uint256"
      },
      {
        "astId": 503,
        "contract": "src/devnets/gnosisToArbitrum/VeaOutboxGnosisToArbDevnet.sol:VeaOutboxGnosisToArbDevnet",
        "label": "timestampDelayUpdated",
        "offset": 0,
        "slot": "2",
        "type": "t_uint256"
      },
      {
        "astId": 505,
        "contract": "src/devnets/gnosisToArbitrum/VeaOutboxGnosisToArbDevnet.sol:VeaOutboxGnosisToArbDevnet",
        "label": "timestampFutureUpdated",
        "offset": 0,
        "slot": "3",
        "type": "t_uint256"
      },
      {
        "astId": 507,
        "contract": "src/devnets/gnosisToArbitrum/VeaOutboxGnosisToArbDevnet.sol:VeaOutboxGnosisToArbDevnet",
        "label": "stateRoot",
        "offset": 0,
        "slot": "4",
        "type": "t_bytes32"
      },
      {
        "astId": 509,
        "contract": "src/devnets/gnosisToArbitrum/VeaOutboxGnosisToArbDevnet.sol:VeaOutboxGnosisToArbDevnet",
        "label": "latestVerifiedEpoch",
        "offset": 0,
        "slot": "5",
        "type": "t_uint256"
      },
      {
        "astId": 514,
        "contract": "src/devnets/gnosisToArbitrum/VeaOutboxGnosisToArbDevnet.sol:VeaOutboxGnosisToArbDevnet",
        "label": "claims",
        "offset": 0,
        "slot": "6",
        "type": "t_mapping(t_uint256,t_struct(Claim)536_storage)"
      },
      {
        "astId": 518,
        "contract": "src/devnets/gnosisToArbitrum/VeaOutboxGnosisToArbDevnet.sol:VeaOutboxGnosisToArbDevnet",
        "label": "challengers",
        "offset": 0,
        "slot": "7",
        "type": "t_mapping(t_uint256,t_address)"
      },
      {
        "astId": 522,
        "contract": "src/devnets/gnosisToArbitrum/VeaOutboxGnosisToArbDevnet.sol:VeaOutboxGnosisToArbDevnet",
        "label": "relayed",
        "offset": 0,
        "slot": "8",
        "type": "t_mapping(t_uint256,t_bytes32)"
      },
      {
        "astId": 60,
        "contract": "src/devnets/gnosisToArbitrum/VeaOutboxGnosisToArbDevnet.sol:VeaOutboxGnosisToArbDevnet",
        "label": "devnetOperator",
        "offset": 0,
        "slot": "9",
        "type": "t_address"
      }
    ],
    "types": {
      "t_address": {
        "encoding": "inplace",
        "label": "address",
        "numberOfBytes": "20"
      },
      "t_bytes32": {
        "encoding": "inplace",
        "label": "bytes32",
        "numberOfBytes": "32"
      },
      "t_enum(Party)526": {
        "encoding": "inplace",
        "label": "enum VeaOutboxGnosisToArb.Party",
        "numberOfBytes": "1"
      },
      "t_mapping(t_uint256,t_address)": {
        "encoding": "mapping",
        "key": "t_uint256",
        "label": "mapping(uint256 => address)",
        "numberOfBytes": "32",
        "value": "t_address"
      },
      "t_mapping(t_uint256,t_bytes32)": {
        "encoding": "mapping",
        "key": "t_uint256",
        "label": "mapping(uint256 => bytes32)",
        "numberOfBytes": "32",
        "value": "t_bytes32"
      },
      "t_mapping(t_uint256,t_struct(Claim)536_storage)": {
        "encoding": "mapping",
        "key": "t_uint256",
        "label": "mapping(uint256 => struct VeaOutboxGnosisToArb.Claim)",
        "numberOfBytes": "32",
        "value": "t_struct(Claim)536_storage"
      },
      "t_struct(Claim)536_storage": {
        "encoding": "inplace",
        "label": "struct VeaOutboxGnosisToArb.Claim",
        "members": [
          {
            "astId": 528,
            "contract": "src/devnets/gnosisToArbitrum/VeaOutboxGnosisToArbDevnet.sol:VeaOutboxGnosisToArbDevnet",
            "label": "stateRoot",
            "offset": 0,
            "slot": "0",
            "type": "t_bytes32"
          },
          {
            "astId": 530,
            "contract": "src/devnets/gnosisToArbitrum/VeaOutboxGnosisToArbDevnet.sol:VeaOutboxGnosisToArbDevnet",
            "label": "claimer",
            "offset": 0,
            "slot": "1",
            "type": "t_address"
          },
          {
            "astId": 532,
            "contract": "src/devnets/gnosisToArbitrum/VeaOutboxGnosisToArbDevnet.sol:VeaOutboxGnosisToArbDevnet",
            "label": "timestamp",
            "offset": 20,
            "slot": "1",
            "type": "t_uint32"
          },
          {
            "astId": 535,
            "contract": "src/devnets/gnosisToArbitrum/VeaOutboxGnosisToArbDevnet.sol:VeaOutboxGnosisToArbDevnet",
            "label": "honest",
            "offset": 24,
            "slot": "1",
            "type": "t_enum(Party)526"
          }
        ],
        "numberOfBytes": "64"
      },
      "t_uint256": {
        "encoding": "inplace",
        "label": "uint256",
        "numberOfBytes": "32"
      },
      "t_uint32": {
        "encoding": "inplace",
        "label": "uint32",
        "numberOfBytes": "4"
      }
    }
  }
}