{
  "address": "0x62581B897330CA4044C4db79Ebe96ca230569492",
  "abi": [
    {
      "inputs": [
        {
          "internalType": "uint256",
          "name": "_deposit",
          "type": "uint256"
        },
        {
          "internalType": "uint256",
          "name": "_epochPeriod",
          "type": "uint256"
        },
        {
          "internalType": "uint256",
          "name": "_challengePeriod",
          "type": "uint256"
        },
        {
          "internalType": "uint256",
          "name": "_timeoutEpochs",
          "type": "uint256"
        },
        {
          "internalType": "address",
          "name": "_routerGnosisToArb",
          "type": "address"
        },
        {
          "internalType": "uint256",
          "name": "_sequencerDelayLimit",
          "type": "uint256"
        },
        {
          "internalType": "uint256",
          "name": "_sequencerFutureLimit",
          "type": "uint256"
        }
      ],
      "stateMutability": "nonpayable",
      "type": "constructor"
    },
    {
      "anonymous": false,
      "inputs": [
        {
          "indexed": false,
          "internalType": "uint256",
          "name": "_epoch",
          "type": "uint256"
        },
        {
          "indexed": true,
          "internalType": "address",
          "name": "_challenger",
          "type": "address"
        }
      ],
      "name": "Challenged",
      "type": "event"
    },
    {
      "anonymous": false,
      "inputs": [
        {
          "indexed": true,
          "internalType": "address",
          "name": "_claimer",
          "type": "address"
        },
        {
          "indexed": true,
          "internalType": "uint256",
          "name": "_epoch",
          "type": "uint256"
        },
        {
          "indexed": false,
          "internalType": "bytes32",
          "name": "_stateRoot",
          "type": "bytes32"
        }
      ],
      "name": "Claimed",
      "type": "event"
    },
    {
      "anonymous": false,
      "inputs": [
        {
          "indexed": false,
          "internalType": "uint64",
          "name": "_msgId",
          "type": "uint64"
        }
      ],
      "name": "MessageRelayed",
      "type": "event"
    },
    {
      "anonymous": false,
      "inputs": [
        {
          "indexed": false,
          "internalType": "uint256",
          "name": "_epoch",
          "type": "uint256"
        }
      ],
      "name": "Verified",
      "type": "event"
    },
    {
      "anonymous": false,
      "inputs": [
        {
          "indexed": false,
          "internalType": "uint256",
          "name": "_newSequencerDelayLimit",
          "type": "uint256"
        }
      ],
      "name": "sequencerDelayLimitUpdateReceived",
      "type": "event"
    },
    {
      "anonymous": false,
      "inputs": [
        {
          "indexed": false,
          "internalType": "uint256",
          "name": "_newSequencerFutureLimit",
          "type": "uint256"
        }
      ],
      "name": "sequencerFutureLimitUpdateReceived",
      "type": "event"
    },
    {
      "inputs": [],
      "name": "BURN_ADDRESS",
      "outputs": [
        {
          "internalType": "address",
          "name": "",
          "type": "address"
        }
      ],
      "stateMutability": "view",
      "type": "function"
    },
    {
      "inputs": [],
      "name": "burn",
      "outputs": [
        {
          "internalType": "uint256",
          "name": "",
          "type": "uint256"
        }
      ],
      "stateMutability": "view",
      "type": "function"
    },
    {
      "inputs": [
        {
          "internalType": "uint256",
          "name": "_epoch",
          "type": "uint256"
        }
      ],
      "name": "challenge",
      "outputs": [],
      "stateMutability": "payable",
      "type": "function"
    },
    {
      "inputs": [],
      "name": "challengePeriod",
      "outputs": [
        {
          "internalType": "uint256",
          "name": "",
          "type": "uint256"
        }
      ],
      "stateMutability": "view",
      "type": "function"
    },
    {
      "inputs": [
        {
          "internalType": "uint256",
          "name": "",
          "type": "uint256"
        }
      ],
      "name": "challengers",
      "outputs": [
        {
          "internalType": "address",
          "name": "",
          "type": "address"
        }
      ],
      "stateMutability": "view",
      "type": "function"
    },
    {
      "inputs": [
        {
          "internalType": "uint256",
          "name": "_epoch",
          "type": "uint256"
        },
        {
          "internalType": "bytes32",
          "name": "_stateRoot",
          "type": "bytes32"
        }
      ],
      "name": "claim",
      "outputs": [],
      "stateMutability": "payable",
      "type": "function"
    },
    {
      "inputs": [
        {
          "internalType": "uint256",
          "name": "",
          "type": "uint256"
        }
      ],
      "name": "claims",
      "outputs": [
        {
          "internalType": "bytes32",
          "name": "stateRoot",
          "type": "bytes32"
        },
        {
          "internalType": "address",
          "name": "claimer",
          "type": "address"
        },
        {
          "internalType": "uint32",
          "name": "timestamp",
          "type": "uint32"
        },
        {
          "internalType": "enum VeaOutboxGnosisToArb.Party",
          "name": "honest",
          "type": "uint8"
        }
      ],
      "stateMutability": "view",
      "type": "function"
    },
    {
      "inputs": [],
      "name": "deposit",
      "outputs": [
        {
          "internalType": "uint256",
          "name": "",
          "type": "uint256"
        }
      ],
      "stateMutability": "view",
      "type": "function"
    },
    {
      "inputs": [],
      "name": "depositPlusReward",
      "outputs": [
        {
          "internalType": "uint256",
          "name": "",
          "type": "uint256"
        }
      ],
      "stateMutability": "view",
      "type": "function"
    },
    {
      "inputs": [
        {
          "internalType": "uint256",
          "name": "timestamp",
          "type": "uint256"
        }
      ],
      "name": "epochAt",
      "outputs": [
        {
          "internalType": "uint256",
          "name": "epoch",
          "type": "uint256"
        }
      ],
      "stateMutability": "view",
      "type": "function"
    },
    {
      "inputs": [],
      "name": "epochNow",
      "outputs": [
        {
          "internalType": "uint256",
          "name": "epoch",
          "type": "uint256"
        }
      ],
      "stateMutability": "view",
      "type": "function"
    },
    {
      "inputs": [],
      "name": "epochPeriod",
      "outputs": [
        {
          "internalType": "uint256",
          "name": "",
          "type": "uint256"
        }
      ],
      "stateMutability": "view",
      "type": "function"
    },
    {
      "inputs": [
        {
          "internalType": "uint256",
          "name": "_msgId",
          "type": "uint256"
        }
      ],
      "name": "isMsgRelayed",
      "outputs": [
        {
          "internalType": "bool",
          "name": "isRelayed",
          "type": "bool"
        }
      ],
      "stateMutability": "view",
      "type": "function"
    },
    {
      "inputs": [],
      "name": "latestVerifiedEpoch",
      "outputs": [
        {
          "internalType": "uint256",
          "name": "",
          "type": "uint256"
        }
      ],
      "stateMutability": "view",
      "type": "function"
    },
    {
      "inputs": [
        {
          "internalType": "uint256",
          "name": "_epoch",
          "type": "uint256"
        },
        {
          "internalType": "bytes32",
          "name": "_stateRoot",
          "type": "bytes32"
        }
      ],
      "name": "resolveDisputedClaim",
      "outputs": [],
      "stateMutability": "nonpayable",
      "type": "function"
    },
    {
      "inputs": [],
      "name": "routerGnosisToArb",
      "outputs": [
        {
          "internalType": "address",
          "name": "",
          "type": "address"
        }
      ],
      "stateMutability": "view",
      "type": "function"
    },
    {
      "inputs": [
        {
          "internalType": "bytes32[]",
          "name": "_proof",
          "type": "bytes32[]"
        },
        {
          "internalType": "uint64",
          "name": "_msgId",
          "type": "uint64"
        },
        {
          "internalType": "address",
          "name": "_to",
          "type": "address"
        },
        {
          "internalType": "bytes",
          "name": "_message",
          "type": "bytes"
        }
      ],
      "name": "sendMessage",
      "outputs": [],
      "stateMutability": "nonpayable",
      "type": "function"
    },
    {
      "inputs": [],
      "name": "sequencerDelayLimit",
      "outputs": [
        {
          "internalType": "uint256",
          "name": "",
          "type": "uint256"
        }
      ],
      "stateMutability": "view",
      "type": "function"
    },
    {
      "inputs": [],
      "name": "sequencerFutureLimit",
      "outputs": [
        {
          "internalType": "uint256",
          "name": "",
          "type": "uint256"
        }
      ],
      "stateMutability": "view",
      "type": "function"
    },
    {
      "inputs": [],
      "name": "stateRoot",
      "outputs": [
        {
          "internalType": "bytes32",
          "name": "",
          "type": "bytes32"
        }
      ],
      "stateMutability": "view",
      "type": "function"
    },
    {
      "inputs": [],
      "name": "timeoutEpochs",
      "outputs": [
        {
          "internalType": "uint256",
          "name": "",
          "type": "uint256"
        }
      ],
      "stateMutability": "view",
      "type": "function"
    },
    {
      "inputs": [],
      "name": "timestampDelayUpdated",
      "outputs": [
        {
          "internalType": "uint256",
          "name": "",
          "type": "uint256"
        }
      ],
      "stateMutability": "view",
      "type": "function"
    },
    {
      "inputs": [],
      "name": "timestampFutureUpdated",
      "outputs": [
        {
          "internalType": "uint256",
          "name": "",
          "type": "uint256"
        }
      ],
      "stateMutability": "view",
      "type": "function"
    },
    {
      "inputs": [
        {
          "internalType": "uint256",
          "name": "_newSequencerDelayLimit",
          "type": "uint256"
        },
        {
          "internalType": "uint256",
          "name": "_timestamp",
          "type": "uint256"
        }
      ],
      "name": "updateSequencerDelayLimit",
      "outputs": [],
      "stateMutability": "nonpayable",
      "type": "function"
    },
    {
      "inputs": [
        {
          "internalType": "uint256",
          "name": "_newSequencerFutureLimit",
          "type": "uint256"
        },
        {
          "internalType": "uint256",
          "name": "_timestamp",
          "type": "uint256"
        }
      ],
      "name": "updateSequencerFutureLimit",
      "outputs": [],
      "stateMutability": "nonpayable",
      "type": "function"
    },
    {
      "inputs": [
        {
          "internalType": "uint256",
          "name": "_epoch",
          "type": "uint256"
        }
      ],
      "name": "verifySnapshot",
      "outputs": [],
      "stateMutability": "nonpayable",
      "type": "function"
    },
    {
      "inputs": [
        {
          "internalType": "uint256",
          "name": "_epoch",
          "type": "uint256"
        }
      ],
      "name": "withdrawChallengeDeposit",
      "outputs": [],
      "stateMutability": "nonpayable",
      "type": "function"
    },
    {
      "inputs": [
        {
          "internalType": "uint256",
          "name": "_epoch",
          "type": "uint256"
        }
      ],
      "name": "withdrawChallengerEscapeHatch",
      "outputs": [],
      "stateMutability": "nonpayable",
      "type": "function"
    },
    {
      "inputs": [
        {
          "internalType": "uint256",
          "name": "_epoch",
          "type": "uint256"
        }
      ],
      "name": "withdrawClaimDeposit",
      "outputs": [],
      "stateMutability": "nonpayable",
      "type": "function"
    },
    {
      "inputs": [
        {
          "internalType": "uint256",
          "name": "_epoch",
          "type": "uint256"
        }
      ],
      "name": "withdrawClaimerEscapeHatch",
      "outputs": [],
      "stateMutability": "nonpayable",
      "type": "function"
    }
  ],
  "transactionHash": "0x1695e89203559d6480d0030faa38c09dd543701116e9649f23da040c9961e1a3",
  "args": [
    "4000000000000000000",
    7200,
    86400,
    168,
    "0x84de475fed07406aA3B05248f1a7b0Fca11DA012",
    86400,
    3600
  ],
  "numDeployments": 7,
  "solcInputHash": "556bdf5fc9689e29dc99949f21bc913e",
  "bytecode": "0x6101606040523480156200001257600080fd5b50604051620020e6380380620020e68339810160408190526200003591620000c1565b60a08790526101008690526101208590526101408490526001600160a01b038316608052600082905560018190556200007060028862000147565b60c0819052620000828860026200016a565b6200008e91906200018a565b60e05261010051600190620000a4904262000147565b620000b091906200018a565b60055550620001a095505050505050565b600080600080600080600060e0888a031215620000dd57600080fd5b8751602089015160408a015160608b015160808c0151939a50919850965094506001600160a01b03811681146200011357600080fd5b8093505060a0880151915060c0880151905092959891949750929550565b634e487b7160e01b600052601160045260246000fd5b6000826200016557634e487b7160e01b600052601260045260246000fd5b500490565b808202811582820484141762000184576200018462000131565b92915050565b8181038181111562000184576200018462000131565b60805160a05160c05160e051610100516101205161014051611e27620002bf600039600081816105170152818161066c01528181610e6a0152818161119a015261150d01526000818161061301526112e901526000818161054b01528181610690015281816107ed0152818161097101528181610e8e01528181610fec015281816111be01526115310152600081816104330152818161111501526119e20152600081816102fb015281816110d401526119a101526000818161057f015281816107ad015281816108ff01528181610b5301528181610b8001528181610fad01528181611160015281816117920152818161185e015261188b0152600081816105df015281816108220152818161143801526115ac0152611e276000f3fe6080604052600436106101cd5760003560e01c80637ffc2a6e116100f7578063b5b7a18411610095578063eb8dedfa11610064578063eb8dedfa146105cd578063f3f480d914610601578063f4cf751b14610635578063fccc28131461065557600080fd5b8063b5b7a18414610539578063d0e30db01461056d578063d6e01b39146105a1578063e813a755146105b757600080fd5b80639588eca2116100d15780639588eca214610475578063a888c2cd1461048b578063ab82d9a0146104f2578063b044397e1461050557600080fd5b80637ffc2a6e1461040b578063836e344b146104215780638caeb7a81461045557600080fd5b806343b066d51161016f57806350b81dbe1161013e57806350b81dbe1461035d578063649628491461037d5780636b45ebcb1461039d578063710cc9a7146103eb57600080fd5b806343b066d51461029b57806344df8e70146102e95780634518f79f1461031d5780634a439cfe1461033d57600080fd5b806327ee6bdd116101ab57806327ee6bdd146102325780632c1925191461024857806331d144571461026857806331ddf7431461027b57600080fd5b80630e56752e146101d2578063114095d3146101fb578063222ae7861461021d575b600080fd5b3480156101de57600080fd5b506101e860015481565b6040519081526020015b60405180910390f35b34801561020757600080fd5b5061021b610216366004611a1d565b61066a565b005b34801561022957600080fd5b506101e86107e6565b34801561023e57600080fd5b506101e860055481565b34801561025457600080fd5b5061021b610263366004611a36565b610817565b61021b610276366004611a36565b6108fd565b34801561028757600080fd5b5061021b610296366004611b43565b610bc9565b3480156102a757600080fd5b506102d96102b6366004611a1d565b600881811c60009081526020919091526040902054600160ff9092161c81161490565b60405190151581526020016101f2565b3480156102f557600080fd5b506101e87f000000000000000000000000000000000000000000000000000000000000000081565b34801561032957600080fd5b5061021b610338366004611a1d565b610e68565b34801561034957600080fd5b506101e8610358366004611a1d565b610fe5565b34801561036957600080fd5b5061021b610378366004611a1d565b611017565b34801561038957600080fd5b5061021b610398366004611a1d565b611198565b3480156103a957600080fd5b506103d36103b8366004611a1d565b6007602052600090815260409020546001600160a01b031681565b6040516001600160a01b0390911681526020016101f2565b3480156103f757600080fd5b5061021b610406366004611a36565b61142d565b34801561041757600080fd5b506101e860025481565b34801561042d57600080fd5b506101e87f000000000000000000000000000000000000000000000000000000000000000081565b34801561046157600080fd5b5061021b610470366004611a36565b61150b565b34801561048157600080fd5b506101e860045481565b34801561049757600080fd5b506104e26104a6366004611a1d565b600660205260009081526040902080546001909101546001600160a01b03811690600160a01b810463ffffffff1690600160c01b900460ff1684565b6040516101f29493929190611c45565b61021b610500366004611a1d565b6116ce565b34801561051157600080fd5b506101e87f000000000000000000000000000000000000000000000000000000000000000081565b34801561054557600080fd5b506101e87f000000000000000000000000000000000000000000000000000000000000000081565b34801561057957600080fd5b506101e87f000000000000000000000000000000000000000000000000000000000000000081565b3480156105ad57600080fd5b506101e860035481565b3480156105c357600080fd5b506101e860005481565b3480156105d957600080fd5b506103d37f000000000000000000000000000000000000000000000000000000000000000081565b34801561060d57600080fd5b506101e87f000000000000000000000000000000000000000000000000000000000000000081565b34801561064157600080fd5b5061021b610650366004611a1d565b6118d4565b34801561066157600080fd5b506103d3600081565b7f00000000000000000000000000000000000000000000000000000000000000006005547f000000000000000000000000000000000000000000000000000000000000000042816106bd576106bd611c94565b0403116107035760405162461bcd60e51b815260206004820152600f60248201526e213934b233b290293ab73734b7339760891b60448201526064015b60405180910390fd5b60008082815260066020526040902060010154600160c01b900460ff16600281111561073157610731611c2f565b146107705760405162461bcd60e51b815260206004820152600f60248201526e21b630b4b6903932b9b7b63b32b21760891b60448201526064016106fa565b600081815260076020526040902080546001600160a01b031981169091556001600160a01b031680156107e2576040516001600160a01b038216907f000000000000000000000000000000000000000000000000000000000000000080156108fc02916000818181858888f150505050505b5050565b60006108127f000000000000000000000000000000000000000000000000000000000000000042611cc0565b905090565b336001600160a01b037f000000000000000000000000000000000000000000000000000000000000000061111161111160901b0101161461086a5760405162461bcd60e51b81526004016106fa90611ce2565b80600254106108b25760405162461bcd60e51b815260206004820152601460248201527326b2b9b9b0b3b29034b99037baba3230ba32b21760611b60448201526064016106fa565b81600054146107e257600082905560028190556040518281527f684f6fb71cbcb798156dcca2a95dbd142fa1f8957637833b1897ab89e05aa707906020015b60405180910390a15050565b7f000000000000000000000000000000000000000000000000000000000000000034101561096d5760405162461bcd60e51b815260206004820152601b60248201527f496e73756666696369656e7420636c61696d206465706f7369742e000000000060448201526064016106fa565b60017f0000000000000000000000000000000000000000000000000000000000000000428161099e5761099e611c94565b040382146109e25760405162461bcd60e51b815260206004820152601160248201527022b837b1b41034b99034b73b30b634b21760791b60448201526064016106fa565b80610a205760405162461bcd60e51b815260206004820152600e60248201526d24b73b30b634b21031b630b4b69760911b60448201526064016106fa565b6000828152600660205260409020600101546001600160a01b031615610a7e5760405162461bcd60e51b815260206004820152601360248201527221b630b4b69030b63932b0b23c9036b0b2329760691b60448201526064016106fa565b6040805160808101825282815233602080830191825263ffffffff4281168486019081526000606086018181528982526006909452959095208451815592516001840180549651909216600160a01b026001600160c01b03199096166001600160a01b039091161794909417808555905192939192919060ff60c01b1916600160c01b836002811115610b1357610b13611c2f565b02179055505060405182815283915033907fd95107f4584744c6c893a04c43058aadd1ce8aac8ca5d64140eaf277de6c1d579060200160405180910390a37f00000000000000000000000000000000000000000000000000000000000000003411156107e2576000610ba57f000000000000000000000000000000000000000000000000000000000000000034611d19565b604051909150339082156108fc029083906000818181858888f15050505050505050565b6040845110610c0c5760405162461bcd60e51b815260206004820152600f60248201526e283937b7b3103a37b7903637b7339760891b60448201526064016106fa565b6000838383604051602001610c2393929190611d5c565b604051602081830303815290604052805190602001209050806000526020600020905060005b8551811015610ca5576000868281518110610c6657610c66611d9e565b6020026020010151905082811115610c8c57826000528060205260406000209250610c9c565b8060005282602052604060002092505b50600101610c49565b508060045414610ce85760405162461bcd60e51b815260206004820152600e60248201526d24b73b30b634b210383937b7b31760911b60448201526064016106fa565b600884811c66ffffffffffffff16600081815260209290925260409091205460ff86169080821c60011615610d5f5760405162461bcd60e51b815260206004820152601760248201527f4d65737361676520616c72656164792072656c6179656400000000000000000060448201526064016106fa565b6000838152600860205260408082206001851b84179055516001600160a01b03881690610d8d908890611db4565b6000604051808303816000865af19150503d8060008114610dca576040519150601f19603f3d011682016040523d82523d6000602084013e610dcf565b606091505b5050905080610e205760405162461bcd60e51b815260206004820152601760248201527f4661696c656420746f2063616c6c20636f6e747261637400000000000000000060448201526064016106fa565b60405167ffffffffffffffff891681527f54303fab361bc52c2f1f56ace7351189582264f74ce47a6e7c3f478d64c429439060200160405180910390a1505050505050505050565b7f00000000000000000000000000000000000000000000000000000000000000006005547f00000000000000000000000000000000000000000000000000000000000000004281610ebb57610ebb611c94565b040311610efc5760405162461bcd60e51b815260206004820152600f60248201526e213934b233b290293ab73734b7339760891b60448201526064016106fa565b60008082815260066020526040902060010154600160c01b900460ff166002811115610f2a57610f2a611c2f565b14610f695760405162461bcd60e51b815260206004820152600f60248201526e21b630b4b6903932b9b7b63b32b21760891b60448201526064016106fa565b6000818152600660205260408120600181018054929091556001600160c81b0319821690556001600160a01b031680156107e2576040516001600160a01b038216907f000000000000000000000000000000000000000000000000000000000000000080156108fc02916000818181858888f150505050505050565b60006110117f000000000000000000000000000000000000000000000000000000000000000083611cc0565b92915050565b6001600082815260066020526040902060010154600160c01b900460ff16600281111561104657611046611c2f565b146110895760405162461bcd60e51b815260206004820152601360248201527221b630b4b6903ab739bab1b1b2b9b9b33ab61760691b60448201526064016106fa565b6000818152600660209081526040808320600181018054918590556001600160c81b0319821690556007909252909120546001600160a01b03918216911615611150576040516000907f000000000000000000000000000000000000000000000000000000000000000080156108fc029183818181858288f150506040516001600160a01b03851693507f000000000000000000000000000000000000000000000000000000000000000080156108fc02935091506000818181858888f150505050505050565b6040516001600160a01b038216907f000000000000000000000000000000000000000000000000000000000000000080156108fc02916000818181858888f150505050505050565b7f00000000000000000000000000000000000000000000000000000000000000006005547f000000000000000000000000000000000000000000000000000000000000000042816111eb576111eb611c94565b0403111561122e5760405162461bcd60e51b815260206004820152601060248201526f213934b233b29029b43aba3237bbb71760811b60448201526064016106fa565b600081815260066020526040902060010154600160a01b900463ffffffff168061128b5760405162461bcd60e51b815260206004820152600e60248201526d24b73b30b634b21031b630b4b69760911b60448201526064016106fa565b6000828152600760205260409020546001600160a01b0316156112e75760405162461bcd60e51b815260206004820152601460248201527321b630b4b69034b99031b430b63632b733b2b21760611b60448201526064016106fa565b7f0000000000000000000000000000000000000000000000000000000000000000600154600054600261131a9190611dc7565b6113249190611dde565b61132e9190611dde565b6113388242611d19565b10156113ac5760405162461bcd60e51b815260206004820152603760248201527f436c61696d206d757374207761697420666f722073657175656e63657244656c60448201527f617920616e64206368616c6c656e6765506572696f642e00000000000000000060648201526084016106fa565b6005548211156114085760058290556000828152600660205260409081902054600455517ff786e7f77ede00a02a5464f8f0555798f42ba99a4a920ef2778db8d75e4656f7906113ff9084815260200190565b60405180910390a15b506000908152600660205260409020600101805460ff60c01b1916600160c01b179055565b336001600160a01b037f000000000000000000000000000000000000000000000000000000000000000061111161111160901b010116146114805760405162461bcd60e51b81526004016106fa90611ce2565b80600354106114c85760405162461bcd60e51b815260206004820152601460248201527326b2b9b9b0b3b29034b99037baba3230ba32b21760611b60448201526064016106fa565b81600154146107e257600182905560038190556040518281527f5328ca176e0092ea14be7c843a94b093c0fe88c93d9c01ab0f0281d9e62e4055906020016108f1565b7f00000000000000000000000000000000000000000000000000000000000000006005547f0000000000000000000000000000000000000000000000000000000000000000428161155e5761155e611c94565b040311156115a15760405162461bcd60e51b815260206004820152601060248201526f213934b233b29029b43aba3237bbb71760811b60448201526064016106fa565b336001600160a01b037f000000000000000000000000000000000000000000000000000000000000000061111161111160901b010116146115f45760405162461bcd60e51b81526004016106fa90611ce2565b6005548211801561160457508015155b1561164757600582905560048190556040518281527ff786e7f77ede00a02a5464f8f0555798f42ba99a4a920ef2778db8d75e4656f79060200160405180910390a15b60008281526006602052604090205480156116c9578181036116895750506000908152600660205260409020600101805460ff60c01b1916600160c01b179055565b6000838152600760205260409020546001600160a01b0316156116c9576000838152600660205260409020600101805460ff60c01b1916600160c11b1790555b505050565b6000818152600760205260409020546001600160a01b0316156117335760405162461bcd60e51b815260206004820152601960248201527f436c61696d20616c7265616479206368616c6c656e6765642e0000000000000060448201526064016106fa565b6000818152600660205260409020600101546001600160a01b03166117905760405162461bcd60e51b815260206004820152601360248201527227379031b630b4b6903337b91032b837b1b41760691b60448201526064016106fa565b7f00000000000000000000000000000000000000000000000000000000000000003410156118005760405162461bcd60e51b815260206004820152601f60248201527f496e73756666696369656e74206368616c6c656e6765206465706f7369742e0060448201526064016106fa565b6000818152600760205260409081902080546001600160a01b0319163390811790915590517fcfe09ca25f55d949baba5e280f5750c9ba4b9048fca5532f916067d433afe4d7906118549084815260200190565b60405180910390a27f00000000000000000000000000000000000000000000000000000000000000003411156118d15760006118b07f000000000000000000000000000000000000000000000000000000000000000034611d19565b604051909150339082156108fc029083906000818181858888f15050505050505b50565b6002600082815260066020526040902060010154600160c01b900460ff16600281111561190357611903611c2f565b146119505760405162461bcd60e51b815260206004820152601760248201527f4368616c6c656e676520756e7375636365737366756c2e00000000000000000060448201526064016106fa565b600081815260076020818152604080842080546006845282862086815560010180546001600160c81b03191690559390925281546001600160a01b031916909155516001600160a01b0390911691907f000000000000000000000000000000000000000000000000000000000000000080156108fc029183818181858288f150506040516001600160a01b03851693507f000000000000000000000000000000000000000000000000000000000000000080156108fc02935091506000818181858888f150505050505050565b600060208284031215611a2f57600080fd5b5035919050565b60008060408385031215611a4957600080fd5b50508035926020909101359150565b634e487b7160e01b600052604160045260246000fd5b604051601f8201601f1916810167ffffffffffffffff81118282101715611a9757611a97611a58565b604052919050565b803567ffffffffffffffff81168114611ab757600080fd5b919050565b80356001600160a01b0381168114611ab757600080fd5b600082601f830112611ae457600080fd5b813567ffffffffffffffff811115611afe57611afe611a58565b611b11601f8201601f1916602001611a6e565b818152846020838601011115611b2657600080fd5b816020850160208301376000918101602001919091529392505050565b60008060008060808587031215611b5957600080fd5b843567ffffffffffffffff80821115611b7157600080fd5b818701915087601f830112611b8557600080fd5b8135602082821115611b9957611b99611a58565b8160051b611ba8828201611a6e565b928352848101820192828101908c851115611bc257600080fd5b958301955b84871015611be057863582529583019590830190611bc7565b9950611bf0915050898201611a9f565b96505050611c0060408801611abc565b93506060870135915080821115611c1657600080fd5b50611c2387828801611ad3565b91505092959194509250565b634e487b7160e01b600052602160045260246000fd5b8481526001600160a01b038416602082015263ffffffff831660408201526080810160038310611c8557634e487b7160e01b600052602160045260246000fd5b82606083015295945050505050565b634e487b7160e01b600052601260045260246000fd5b634e487b7160e01b600052601160045260246000fd5b600082611cdd57634e487b7160e01b600052601260045260246000fd5b500490565b6020808252601a908201527f4f6e6c79204c3120726f75746572476e6f736973546f4172622e000000000000604082015260600190565b8181038181111561101157611011611caa565b6000815160005b81811015611d4d5760208185018101518683015201611d33565b50600093019283525090919050565b60c084901b6001600160c01b0319168152606083901b6bffffffffffffffffffffffff191660088201526000611d95601c830184611d2c565b95945050505050565b634e487b7160e01b600052603260045260246000fd5b6000611dc08284611d2c565b9392505050565b808202811582820484141761101157611011611caa565b8082018082111561101157611011611caa56fea264697066735822122055c1aa12c89ec044065051b8507e4df7a1c21c39aee8454e2a6e088cf08a362e64736f6c63430008120033",
  "devdoc": {
    "details": "Vea Outbox From Gnosis to Arbitrum. Note: This contract is deployed on Arbitrum.",
    "events": {
      "Challenged(uint256,address)": {
        "details": "This event indicates that `sendSnapshot(epoch)` should be called in the inbox.",
        "params": {
          "_challenger": "The address of the challenger.",
          "_epoch": "The epoch associated with the challenged claim."
        }
      },
      "Claimed(address,uint256,bytes32)": {
        "details": "Watchers check this event to challenge fraud.",
        "params": {
          "_claimer": "The address of the claimer.",
          "_epoch": "The epoch associated with the claim.",
          "_stateRoot": "The state root of the claim."
        }
      },
      "MessageRelayed(uint64)": {
        "details": "This event indicates that a message has been relayed.",
        "params": {
          "_msgId": "The msgId of the message that was relayed."
        }
      },
      "Verified(uint256)": {
        "details": "This events indicates that verification has succeeded. The messages are ready to be relayed.",
        "params": {
          "_epoch": "The epoch that was verified."
        }
      },
      "sequencerDelayLimitUpdateReceived(uint256)": {
        "details": "This event indicates the sequencer delay limit updated.",
        "params": {
          "_newSequencerDelayLimit": "The new max sequencer past timestamping power."
        }
      },
      "sequencerFutureLimitUpdateReceived(uint256)": {
        "details": "This event indicates the sequencer futue limit updated.",
        "params": {
          "_newSequencerFutureLimit": "The new max sequencer future timestamping power."
        }
      }
    },
    "kind": "dev",
    "methods": {
      "challenge(uint256)": {
        "details": "Submit a challenge for the claim of the inbox state root snapshot taken at 'epoch'.",
        "params": {
          "_epoch": "The epoch of the claim to challenge."
        }
      },
      "claim(uint256,bytes32)": {
        "details": "Submit a claim about the _stateRoot at _epoch and submit a deposit.",
        "params": {
          "_epoch": "The epoch for which the claim is made.",
          "_stateRoot": "The state root to claim."
        }
      },
      "constructor": {
        "details": "Constructor. Note: epochPeriod must match the VeaInboxGnosisToArb contract deployment on Arbitrum, since it's on a different chain, we can't read it and trust the deployer to set a correct value",
        "params": {
          "_challengePeriod": "The duration of the period allowing to challenge a claim.",
          "_deposit": "The deposit amount to submit a claim in wei.",
          "_epochPeriod": "The duration of each epoch.",
          "_routerGnosisToArb": "The address of the router on Ethereum that routes from Arbitrum to Ethereum.",
          "_sequencerDelayLimit": "The maximum delay in seconds that the Arbitrum sequencer can backdate transactions.",
          "_sequencerFutureLimit": "The maximum delay in seconds that the Arbitrum sequencer can futuredate transactions.",
          "_timeoutEpochs": "The epochs before the bridge is considered shutdown."
        }
      },
      "epochAt(uint256)": {
        "details": "Get the current epoch from the outbox's point of view using the Ethereum L1 clock.",
        "returns": {
          "epoch": "The hash of the claim."
        }
      },
      "epochNow()": {
        "details": "Get the current epoch from the outbox's point of view using the Ethereum L1 clock.",
        "returns": {
          "epoch": "The hash of the claim."
        }
      },
      "isMsgRelayed(uint256)": {
        "details": "Get the msg relayed status.",
        "params": {
          "_msgId": "The msgId to check."
        },
        "returns": {
          "isRelayed": "True if the msg was relayed."
        }
      },
      "resolveDisputedClaim(uint256,bytes32)": {
        "details": "Resolves any challenge of the optimistic claim for '_epoch'.",
        "params": {
          "_epoch": "The epoch to verify.",
          "_stateRoot": "The true state root for the epoch."
        }
      },
      "sendMessage(bytes32[],uint64,address,bytes)": {
        "details": "Verifies and relays the message. UNTRUSTED.",
        "params": {
          "_message": "The message encoded in the vea inbox as abi.encodeWithSelector(fnSelector, msg.sender, param1, param2, ...)",
          "_msgId": "The zero based index of the message in the inbox.",
          "_proof": "The merkle proof to prove the message inclusion in the inbox state root.",
          "_to": "The address of the contract on Arbitrum to call."
        }
      },
      "updateSequencerDelayLimit(uint256,uint256)": {
        "details": "Set the sequencerDelayLimit by reading from the Arbitrum Bridge",
        "params": {
          "_newSequencerDelayLimit": "The delaySeconds from the MaxTimeVariation struct in the Arbitrum Sequencer contract.",
          "_timestamp": "The timestamp of the message."
        }
      },
      "updateSequencerFutureLimit(uint256,uint256)": {
        "details": "Set the sequencerFutureLimit by reading from the Arbitrum Bridge",
        "params": {
          "_newSequencerFutureLimit": "The delaySeconds from the MaxTimeVariation struct in the Arbitrum Sequencer contract.",
          "_timestamp": "The timestamp of the message."
        }
      },
      "verifySnapshot(uint256)": {
        "details": "Resolves the optimistic claim for '_epoch'.",
        "params": {
          "_epoch": "The epoch of the optimistic claim."
        }
      },
      "withdrawChallengeDeposit(uint256)": {
        "details": "Sends the deposit back to the Challenger if successful. Includes a portion of the Bridger's deposit.",
        "params": {
          "_epoch": "The epoch associated with the challenge deposit to withraw."
        }
      },
      "withdrawChallengerEscapeHatch(uint256)": {
        "details": "When bridge is shutdown, no claim disputes can be resolved. This allows the challenger to withdraw their deposit.",
        "params": {
          "_epoch": "The epoch associated with the claim deposit to withraw."
        }
      },
      "withdrawClaimDeposit(uint256)": {
        "details": "Sends the deposit back to the Claimer if successful. Includes a portion of the Challenger's deposit if unsuccessfully challenged.",
        "params": {
          "_epoch": "The epoch associated with the claim deposit to withraw."
        }
      },
      "withdrawClaimerEscapeHatch(uint256)": {
        "details": "When bridge is shutdown, no claim disputes can be resolved. This allows the claimer to withdraw their deposit.",
        "params": {
          "_epoch": "The epoch associated with the claim deposit to withraw."
        }
      }
    },
    "version": 1
  },
  "userdoc": {
    "kind": "user",
    "methods": {
      "resolveDisputedClaim(uint256,bytes32)": {
        "notice": "Note: Access restricted to AMB."
      }
    },
    "version": 1
  },
  "storageLayout": {
    "storage": [
      {
        "astId": 5535,
        "contract": "src/gnosisToArbitrum/VeaOutboxGnosisToArb.sol:VeaOutboxGnosisToArb",
        "label": "sequencerDelayLimit",
        "offset": 0,
        "slot": "0",
        "type": "t_uint256"
      },
      {
        "astId": 5537,
        "contract": "src/gnosisToArbitrum/VeaOutboxGnosisToArb.sol:VeaOutboxGnosisToArb",
        "label": "sequencerFutureLimit",
        "offset": 0,
        "slot": "1",
        "type": "t_uint256"
      },
      {
        "astId": 5539,
        "contract": "src/gnosisToArbitrum/VeaOutboxGnosisToArb.sol:VeaOutboxGnosisToArb",
        "label": "timestampDelayUpdated",
        "offset": 0,
        "slot": "2",
        "type": "t_uint256"
      },
      {
        "astId": 5541,
        "contract": "src/gnosisToArbitrum/VeaOutboxGnosisToArb.sol:VeaOutboxGnosisToArb",
        "label": "timestampFutureUpdated",
        "offset": 0,
        "slot": "3",
        "type": "t_uint256"
      },
      {
        "astId": 5543,
        "contract": "src/gnosisToArbitrum/VeaOutboxGnosisToArb.sol:VeaOutboxGnosisToArb",
        "label": "stateRoot",
        "offset": 0,
        "slot": "4",
        "type": "t_bytes32"
      },
      {
        "astId": 5545,
        "contract": "src/gnosisToArbitrum/VeaOutboxGnosisToArb.sol:VeaOutboxGnosisToArb",
        "label": "latestVerifiedEpoch",
        "offset": 0,
        "slot": "5",
        "type": "t_uint256"
      },
      {
        "astId": 5550,
        "contract": "src/gnosisToArbitrum/VeaOutboxGnosisToArb.sol:VeaOutboxGnosisToArb",
        "label": "claims",
        "offset": 0,
        "slot": "6",
        "type": "t_mapping(t_uint256,t_struct(Claim)5572_storage)"
      },
      {
        "astId": 5554,
        "contract": "src/gnosisToArbitrum/VeaOutboxGnosisToArb.sol:VeaOutboxGnosisToArb",
        "label": "challengers",
        "offset": 0,
        "slot": "7",
        "type": "t_mapping(t_uint256,t_address)"
      },
      {
        "astId": 5558,
        "contract": "src/gnosisToArbitrum/VeaOutboxGnosisToArb.sol:VeaOutboxGnosisToArb",
        "label": "relayed",
        "offset": 0,
        "slot": "8",
        "type": "t_mapping(t_uint256,t_bytes32)"
      }
    ],
    "types": {
      "t_address": {
        "encoding": "inplace",
        "label": "address",
        "numberOfBytes": "20"
      },
      "t_bytes32": {
        "encoding": "inplace",
        "label": "bytes32",
        "numberOfBytes": "32"
      },
      "t_enum(Party)5562": {
        "encoding": "inplace",
        "label": "enum VeaOutboxGnosisToArb.Party",
        "numberOfBytes": "1"
      },
      "t_mapping(t_uint256,t_address)": {
        "encoding": "mapping",
        "key": "t_uint256",
        "label": "mapping(uint256 => address)",
        "numberOfBytes": "32",
        "value": "t_address"
      },
      "t_mapping(t_uint256,t_bytes32)": {
        "encoding": "mapping",
        "key": "t_uint256",
        "label": "mapping(uint256 => bytes32)",
        "numberOfBytes": "32",
        "value": "t_bytes32"
      },
      "t_mapping(t_uint256,t_struct(Claim)5572_storage)": {
        "encoding": "mapping",
        "key": "t_uint256",
        "label": "mapping(uint256 => struct VeaOutboxGnosisToArb.Claim)",
        "numberOfBytes": "32",
        "value": "t_struct(Claim)5572_storage"
      },
      "t_struct(Claim)5572_storage": {
        "encoding": "inplace",
        "label": "struct VeaOutboxGnosisToArb.Claim",
        "members": [
          {
            "astId": 5564,
            "contract": "src/gnosisToArbitrum/VeaOutboxGnosisToArb.sol:VeaOutboxGnosisToArb",
            "label": "stateRoot",
            "offset": 0,
            "slot": "0",
            "type": "t_bytes32"
          },
          {
            "astId": 5566,
            "contract": "src/gnosisToArbitrum/VeaOutboxGnosisToArb.sol:VeaOutboxGnosisToArb",
            "label": "claimer",
            "offset": 0,
            "slot": "1",
            "type": "t_address"
          },
          {
            "astId": 5568,
            "contract": "src/gnosisToArbitrum/VeaOutboxGnosisToArb.sol:VeaOutboxGnosisToArb",
            "label": "timestamp",
            "offset": 20,
            "slot": "1",
            "type": "t_uint32"
          },
          {
            "astId": 5571,
            "contract": "src/gnosisToArbitrum/VeaOutboxGnosisToArb.sol:VeaOutboxGnosisToArb",
            "label": "honest",
            "offset": 24,
            "slot": "1",
            "type": "t_enum(Party)5562"
          }
        ],
        "numberOfBytes": "64"
      },
      "t_uint256": {
        "encoding": "inplace",
        "label": "uint256",
        "numberOfBytes": "32"
      },
      "t_uint32": {
        "encoding": "inplace",
        "label": "uint32",
        "numberOfBytes": "4"
      }
    }
  }
}