{
  "address": "0x0B5851fE2a931F619F73E739E5435C43976f1D68",
  "abi": [
    {
      "inputs": [
        {
          "internalType": "uint256",
          "name": "_epochPeriod",
          "type": "uint256"
        },
        {
          "internalType": "address",
          "name": "_veaOutboxArbToEth",
          "type": "address"
        }
      ],
      "stateMutability": "nonpayable",
      "type": "constructor"
    },
    {
      "anonymous": false,
      "inputs": [
        {
          "indexed": false,
          "internalType": "bytes",
          "name": "_nodeData",
          "type": "bytes"
        }
      ],
      "name": "MessageSent",
      "type": "event"
    },
    {
      "anonymous": false,
      "inputs": [
        {
          "indexed": false,
          "internalType": "bytes32",
          "name": "_snapshot",
          "type": "bytes32"
        },
        {
          "indexed": false,
          "internalType": "uint256",
          "name": "_epoch",
          "type": "uint256"
        },
        {
          "indexed": false,
          "internalType": "uint64",
          "name": "_count",
          "type": "uint64"
        }
      ],
      "name": "SnapshotSaved",
      "type": "event"
    },
    {
      "anonymous": false,
      "inputs": [
        {
          "indexed": true,
          "internalType": "uint256",
          "name": "_epochSent",
          "type": "uint256"
        },
        {
          "indexed": false,
          "internalType": "bytes32",
          "name": "_ticketId",
          "type": "bytes32"
        }
      ],
      "name": "SnapshotSent",
      "type": "event"
    },
    {
      "inputs": [],
      "name": "count",
      "outputs": [
        {
          "internalType": "uint64",
          "name": "",
          "type": "uint64"
        }
      ],
      "stateMutability": "view",
      "type": "function"
    },
    {
      "inputs": [
        {
          "internalType": "uint256",
          "name": "_timestamp",
          "type": "uint256"
        }
      ],
      "name": "epochAt",
      "outputs": [
        {
          "internalType": "uint256",
          "name": "epoch",
          "type": "uint256"
        }
      ],
      "stateMutability": "view",
      "type": "function"
    },
    {
      "inputs": [],
      "name": "epochFinalized",
      "outputs": [
        {
          "internalType": "uint256",
          "name": "epoch",
          "type": "uint256"
        }
      ],
      "stateMutability": "view",
      "type": "function"
    },
    {
      "inputs": [],
      "name": "epochNow",
      "outputs": [
        {
          "internalType": "uint256",
          "name": "epoch",
          "type": "uint256"
        }
      ],
      "stateMutability": "view",
      "type": "function"
    },
    {
      "inputs": [],
      "name": "epochPeriod",
      "outputs": [
        {
          "internalType": "uint256",
          "name": "",
          "type": "uint256"
        }
      ],
      "stateMutability": "view",
      "type": "function"
    },
    {
      "inputs": [],
      "name": "saveSnapshot",
      "outputs": [],
      "stateMutability": "nonpayable",
      "type": "function"
    },
    {
      "inputs": [
        {
          "internalType": "address",
          "name": "_to",
          "type": "address"
        },
        {
          "internalType": "bytes4",
          "name": "_fnSelector",
          "type": "bytes4"
        },
        {
          "internalType": "bytes",
          "name": "_data",
          "type": "bytes"
        }
      ],
      "name": "sendMessage",
      "outputs": [
        {
          "internalType": "uint64",
          "name": "",
          "type": "uint64"
        }
      ],
      "stateMutability": "nonpayable",
      "type": "function"
    },
    {
      "inputs": [
        {
          "internalType": "uint256",
          "name": "_epoch",
          "type": "uint256"
        },
        {
          "components": [
            {
              "internalType": "bytes32",
              "name": "stateRoot",
              "type": "bytes32"
            },
            {
              "internalType": "address",
              "name": "claimer",
              "type": "address"
            },
            {
              "internalType": "uint32",
              "name": "timestampClaimed",
              "type": "uint32"
            },
            {
              "internalType": "uint32",
              "name": "timestampVerification",
              "type": "uint32"
            },
            {
              "internalType": "uint32",
              "name": "blocknumberVerification",
              "type": "uint32"
            },
            {
              "internalType": "enum Party",
              "name": "honest",
              "type": "uint8"
            },
            {
              "internalType": "address",
              "name": "challenger",
              "type": "address"
            }
          ],
          "internalType": "struct Claim",
          "name": "_claim",
          "type": "tuple"
        }
      ],
      "name": "sendSnapshot",
      "outputs": [],
      "stateMutability": "nonpayable",
      "type": "function"
    },
    {
      "inputs": [
        {
          "internalType": "uint256",
          "name": "epoch",
          "type": "uint256"
        }
      ],
      "name": "snapshots",
      "outputs": [
        {
          "internalType": "bytes32",
          "name": "",
          "type": "bytes32"
        }
      ],
      "stateMutability": "view",
      "type": "function"
    },
    {
      "inputs": [],
      "name": "veaOutboxArbToEth",
      "outputs": [
        {
          "internalType": "address",
          "name": "",
          "type": "address"
        }
      ],
      "stateMutability": "view",
      "type": "function"
    }
  ],
  "transactionHash": "0x7674d99ee55a96489ff207c6218b54bdff86c7e8cedd9090dbcd5a2299946b3d",
  "args": [
    1800,
    "0xb8BF3B6bd3E1a0Cc9E2dB77dd492503310514674"
  ],
  "numDeployments": 3,
  "solcInputHash": "0d66bd5cfdf493ed8e081e9f7e1bf4fa",
  "bytecode": "0x60c060405234801561000f575f80fd5b50604051610bed380380610bed83398101604081905261002e91610045565b6080919091526001600160a01b031660a05261007f565b5f8060408385031215610056575f80fd5b825160208401519092506001600160a01b0381168114610074575f80fd5b809150509250929050565b60805160a051610b236100ca5f395f818161012401526105d001525f8181610163015281816101bd015281816101ef015281816102240152818161025301526104df0152610b235ff3fe608060405234801561000f575f80fd5b506004361061009b575f3560e01c80635f85896c116100635780635f85896c1461010c578063744b49bf1461011f578063b5b7a1841461015e578063c705e41214610185578063d6565a2d14610198575f80fd5b806306661abd1461009f578063222ae786146100d15780633ac3b6b6146100e75780634a439cfe146100ef5780635192053514610102575b5f80fd5b6041546100b39067ffffffffffffffff1681565b60405167ffffffffffffffff90911681526020015b60405180910390f35b6100d96101b7565b6040519081526020016100c8565b6100d96101e7565b6100d96100fd3660046106a5565b61021e565b61010a61024f565b005b6100b361011a366004610745565b610370565b6101467f000000000000000000000000000000000000000000000000000000000000000081565b6040516001600160a01b0390911681526020016100c8565b6100d97f000000000000000000000000000000000000000000000000000000000000000081565b61010a610193366004610815565b6104dd565b6100d96101a63660046106a5565b5f6020819052908152604090205481565b5f6101e27f0000000000000000000000000000000000000000000000000000000000000000426108d7565b905090565b5f60016102147f0000000000000000000000000000000000000000000000000000000000000000426108d7565b6101e291906108f6565b5f6102497f0000000000000000000000000000000000000000000000000000000000000000836108d7565b92915050565b5f807f00000000000000000000000000000000000000000000000000000000000000004281610280576102806108c3565b60415491900492505f9067ffffffffffffffff165b80156102ce57806001166001036102c257600182604081106102b9576102b9610915565b015492506102ce565b6001918201911c610295565b60011c5b801561031057600191820191818116900361030857610305600183604081106102fd576102fd610915565b015484610678565b92505b60011c6102d2565b50505f8281526020818152604091829020839055604154825184815291820185905267ffffffffffffffff168183015290517f592424eb1d6135501bd20833f15fd127c29d08eed4f03872f6f75182126b1e489181900360600190a15050565b6041545f9067ffffffffffffffff9081169081106103c65760405162461bcd60e51b815260206004820152600e60248201526d24b73137bc1034b990333ab6361760911b60448201526064015b60405180910390fd5b6040515f90829087906103e19088903390899060200161094b565b60408051601f1981840301815290829052610400939291602001610980565b60408051601f1981840301815291905280516020808301919091205f908152908120919250600184015b600181165f036104625761044a600183604081106102fd576102fd610915565b92506001918201911c677fffffffffffffff1661042a565b50816001826040811061047757610477610915565b0155506041805467ffffffffffffffff19166001850167ffffffffffffffff161790556040517f8c5261668696ce22758910d05bab8f186d6eb247ceac2af2e82c7dc17669b036906104ca9084906109f9565b60405180910390a1509095945050505050565b7f0000000000000000000000000000000000000000000000000000000000000000428161050c5761050c6108c3565b0482106105665760405162461bcd60e51b815260206004820152602260248201527f43616e206f6e6c792073656e6420706173742065706f636820736e617073686f6044820152613a1760f11b60648201526084016103bd565b5f828152602081905260408082205490516105879185918590602401610a12565b60408051601f198184030181529181526020820180516001600160e01b0316630f0adca560e01b179052516349460b4d60e11b81529091505f9060649063928c169a906105fa907f0000000000000000000000000000000000000000000000000000000000000000908690600401610aab565b6020604051808303815f875af1158015610616573d5f803e3d5ffd5b505050506040513d601f19601f8201168201806040525081019061063a9190610ad6565b60405181815290915084907f6fdd49f435101fc7b6ebdec7c8972932a926d18f6cb78a8891dfe950743b6b829060200160405180910390a250505050565b5f8183101561069357825f528160205260405f209050610249565b505f9081526020919091526040902090565b5f602082840312156106b5575f80fd5b5035919050565b80356001600160a01b03811681146106d2575f80fd5b919050565b634e487b7160e01b5f52604160045260245ffd5b60405160e0810167ffffffffffffffff8111828210171561070e5761070e6106d7565b60405290565b604051601f8201601f1916810167ffffffffffffffff8111828210171561073d5761073d6106d7565b604052919050565b5f805f60608486031215610757575f80fd5b610760846106bc565b92506020848101356001600160e01b03198116811461077d575f80fd5b9250604085013567ffffffffffffffff80821115610799575f80fd5b818701915087601f8301126107ac575f80fd5b8135818111156107be576107be6106d7565b6107d0601f8201601f19168501610714565b915080825288848285010111156107e5575f80fd5b80848401858401375f848284010152508093505050509250925092565b803563ffffffff811681146106d2575f80fd5b5f80828403610100811215610828575f80fd5b8335925060e0601f198201121561083d575f80fd5b506108466106eb565b60208401358152610859604085016106bc565b602082015261086a60608501610802565b604082015261087b60808501610802565b606082015261088c60a08501610802565b608082015260c0840135600381106108a2575f80fd5b60a08201526108b360e085016106bc565b60c0820152809150509250929050565b634e487b7160e01b5f52601260045260245ffd5b5f826108f157634e487b7160e01b5f52601260045260245ffd5b500490565b8181038181111561024957634e487b7160e01b5f52601160045260245ffd5b634e487b7160e01b5f52603260045260245ffd5b5f5b8381101561094357818101518382015260200161092b565b50505f910152565b63ffffffff60e01b841681528260048201525f8251610971816024850160208701610929565b91909101602401949350505050565b67ffffffffffffffff60c01b8460c01b1681526bffffffffffffffffffffffff198360601b1660088201525f82516109bf81601c850160208701610929565b91909101601c01949350505050565b5f81518084526109e5816020860160208601610929565b601f01601f19169290920160200192915050565b602081525f610a0b60208301846109ce565b9392505050565b5f610120820190508482528360208301528251604083015260018060a01b036020840151166060830152604083015163ffffffff80821660808501528060608601511660a08501528060808601511660c0850152505060a083015160038110610a8957634e487b7160e01b5f52602160045260245ffd5b60e083015260c092909201516001600160a01b03166101009091015292915050565b6001600160a01b03831681526040602082018190525f90610ace908301846109ce565b949350505050565b5f60208284031215610ae6575f80fd5b505191905056fea2646970667358221220e0d777b7e1a2c210f6fdf79122d58020ed70e6c9bd569102148c7b15915e21a764736f6c63430008180033",
  "devdoc": {
    "details": "Vea Inbox From Arbitrum to Ethereum. Note: This contract is deployed on Arbitrum.",
    "events": {
      "MessageSent(bytes)": {
        "details": "Relayers watch for these events to construct merkle proofs to execute transactions on Ethereum.",
        "params": {
          "_nodeData": "The data to create leaves in the merkle tree. abi.encodePacked(msgId, to, message), outbox relays to.call(message)."
        }
      },
      "SnapshotSaved(bytes32,uint256,uint64)": {
        "params": {
          "_count": "The count of messages in the merkle tree.",
          "_epoch": "The epoch of the snapshot.",
          "_snapshot": "The snapshot of the merkle tree state root."
        }
      },
      "SnapshotSent(uint256,bytes32)": {
        "details": "The event is emitted when a snapshot is sent through the canonical arbitrum bridge.",
        "params": {
          "_epochSent": "The epoch of the snapshot.",
          "_ticketId": "The ticketId of the L2->L1 message."
        }
      }
    },
    "kind": "dev",
    "methods": {
      "constructor": {
        "details": "Constructor. Note: epochPeriod must match the VeaOutboxArbToEth contract deployment on Ethereum, since it's on a different chain, we can't read it and trust the deployer to set a correct value",
        "params": {
          "_epochPeriod": "The duration in seconds between epochs.",
          "_veaOutboxArbToEth": "The veaOutbox on ethereum."
        }
      },
      "epochAt(uint256)": {
        "details": "Get the epoch from the inbox's point of view using timestamp.",
        "params": {
          "_timestamp": "The timestamp to calculate the epoch from."
        },
        "returns": {
          "epoch": "The calculated epoch."
        }
      },
      "epochFinalized()": {
        "details": "Get the most recent epoch for which snapshots are finalized.",
        "returns": {
          "epoch": "The epoch associated with the current inbox block.timestamp"
        }
      },
      "epochNow()": {
        "details": "Get the current epoch from the inbox's point of view using the Arbitrum L2 clock.",
        "returns": {
          "epoch": "The epoch associated with the current inbox block.timestamp"
        }
      },
      "saveSnapshot()": {
        "details": "Saves snapshot of state root. Snapshots can be saved a maximum of once per epoch.      `O(log(count))` where count number of messages in the inbox. Note: See merkle tree docs for details how inbox manages state."
      },
      "sendMessage(address,bytes4,bytes)": {
        "details": "Sends an arbitrary message to Ethereum.      `O(log(count))` where count is the number of messages already sent.      Amortized cost is constant. Note: See docs for details how inbox manages merkle tree state.",
        "params": {
          "_data": "The message calldata, abi.encode(param1, param2, ...)",
          "_fnSelector": "The function selector of the receiving contract.",
          "_to": "The address of the contract on the receiving chain which receives the calldata."
        },
        "returns": {
          "_0": "msgId The zero based index of the message in the inbox."
        }
      },
      "sendSnapshot(uint256,(bytes32,address,uint32,uint32,uint32,uint8,address))": {
        "details": "Sends the state root snapshot using Arbitrum's canonical bridge.",
        "params": {
          "_claim": "The claim associated with the epoch.",
          "_epoch": "The epoch of the snapshot requested to send."
        }
      }
    },
    "version": 1
  },
  "userdoc": {
    "events": {
      "SnapshotSaved(bytes32,uint256,uint64)": {
        "notice": "The bridgers can watch this event to claim the stateRoot on the veaOutbox."
      }
    },
    "kind": "user",
    "methods": {},
    "version": 1
  },
  "storageLayout": {
    "storage": [
      {
        "astId": 24,
        "contract": "src/arbitrumToEth/VeaInboxArbToEth.sol:VeaInboxArbToEth",
        "label": "snapshots",
        "offset": 0,
        "slot": "0",
        "type": "t_mapping(t_uint256,t_bytes32)"
      },
      {
        "astId": 28,
        "contract": "src/arbitrumToEth/VeaInboxArbToEth.sol:VeaInboxArbToEth",
        "label": "inbox",
        "offset": 0,
        "slot": "1",
        "type": "t_array(t_bytes32)64_storage"
      },
      {
        "astId": 30,
        "contract": "src/arbitrumToEth/VeaInboxArbToEth.sol:VeaInboxArbToEth",
        "label": "count",
        "offset": 0,
        "slot": "65",
        "type": "t_uint64"
      }
    ],
    "types": {
      "t_array(t_bytes32)64_storage": {
        "base": "t_bytes32",
        "encoding": "inplace",
        "label": "bytes32[64]",
        "numberOfBytes": "2048"
      },
      "t_bytes32": {
        "encoding": "inplace",
        "label": "bytes32",
        "numberOfBytes": "32"
      },
      "t_mapping(t_uint256,t_bytes32)": {
        "encoding": "mapping",
        "key": "t_uint256",
        "label": "mapping(uint256 => bytes32)",
        "numberOfBytes": "32",
        "value": "t_bytes32"
      },
      "t_uint256": {
        "encoding": "inplace",
        "label": "uint256",
        "numberOfBytes": "32"
      },
      "t_uint64": {
        "encoding": "inplace",
        "label": "uint64",
        "numberOfBytes": "8"
      }
    }
  }
}