{
  "address": "0xa1711e979d7F9ae5f4c5Fe57D5fF7d6F5Ae3d418",
  "abi": [
    {
      "inputs": [
        {
          "internalType": "uint256",
          "name": "_deposit",
          "type": "uint256"
        },
        {
          "internalType": "uint256",
          "name": "_epochPeriod",
          "type": "uint256"
        },
        {
          "internalType": "uint256",
          "name": "_challengePeriod",
          "type": "uint256"
        },
        {
          "internalType": "address",
          "name": "_safeBridgeSender",
          "type": "address"
        },
        {
          "internalType": "address",
          "name": "_inbox",
          "type": "address"
        }
      ],
      "stateMutability": "nonpayable",
      "type": "constructor"
    },
    {
      "anonymous": false,
      "inputs": [
        {
          "indexed": true,
          "internalType": "uint256",
          "name": "_epoch",
          "type": "uint256"
        },
        {
          "indexed": false,
          "internalType": "bool",
          "name": "_isBridgerHonest",
          "type": "bool"
        },
        {
          "indexed": false,
          "internalType": "bool",
          "name": "_isChallengerHonest",
          "type": "bool"
        }
      ],
      "name": "BatchSafeVerified",
      "type": "event"
    },
    {
      "anonymous": false,
      "inputs": [
        {
          "indexed": true,
          "internalType": "uint256",
          "name": "_epoch",
          "type": "uint256"
        },
        {
          "indexed": false,
          "internalType": "bool",
          "name": "_success",
          "type": "bool"
        }
      ],
      "name": "BatchVerified",
      "type": "event"
    },
    {
      "anonymous": false,
      "inputs": [
        {
          "indexed": true,
          "internalType": "uint256",
          "name": "_epoch",
          "type": "uint256"
        },
        {
          "indexed": true,
          "internalType": "address",
          "name": "_challenger",
          "type": "address"
        }
      ],
      "name": "ChallengeDepositWithdrawn",
      "type": "event"
    },
    {
      "anonymous": false,
      "inputs": [
        {
          "indexed": true,
          "internalType": "uint256",
          "name": "_epoch",
          "type": "uint256"
        }
      ],
      "name": "ClaimChallenged",
      "type": "event"
    },
    {
      "anonymous": false,
      "inputs": [
        {
          "indexed": true,
          "internalType": "uint256",
          "name": "_epoch",
          "type": "uint256"
        },
        {
          "indexed": true,
          "internalType": "address",
          "name": "_bridger",
          "type": "address"
        }
      ],
      "name": "ClaimDepositWithdrawn",
      "type": "event"
    },
    {
      "anonymous": false,
      "inputs": [
        {
          "indexed": true,
          "internalType": "uint256",
          "name": "_epoch",
          "type": "uint256"
        },
        {
          "indexed": true,
          "internalType": "bytes32",
          "name": "_batchMerkleRoot",
          "type": "bytes32"
        }
      ],
      "name": "ClaimReceived",
      "type": "event"
    },
    {
      "anonymous": false,
      "inputs": [
        {
          "indexed": true,
          "internalType": "uint256",
          "name": "_epoch",
          "type": "uint256"
        },
        {
          "indexed": true,
          "internalType": "uint256",
          "name": "_nonce",
          "type": "uint256"
        }
      ],
      "name": "MessageRelayed",
      "type": "event"
    },
    {
      "inputs": [
        {
          "internalType": "uint256",
          "name": "_epoch",
          "type": "uint256"
        }
      ],
      "name": "challenge",
      "outputs": [],
      "stateMutability": "payable",
      "type": "function"
    },
    {
      "inputs": [],
      "name": "challengePeriod",
      "outputs": [
        {
          "internalType": "uint256",
          "name": "",
          "type": "uint256"
        }
      ],
      "stateMutability": "view",
      "type": "function"
    },
    {
      "inputs": [
        {
          "internalType": "uint256",
          "name": "",
          "type": "uint256"
        }
      ],
      "name": "challenges",
      "outputs": [
        {
          "internalType": "address",
          "name": "challenger",
          "type": "address"
        },
        {
          "internalType": "bool",
          "name": "honest",
          "type": "bool"
        },
        {
          "internalType": "bool",
          "name": "depositAndRewardWithdrawn",
          "type": "bool"
        }
      ],
      "stateMutability": "view",
      "type": "function"
    },
    {
      "inputs": [
        {
          "internalType": "uint256",
          "name": "_epoch",
          "type": "uint256"
        },
        {
          "internalType": "bytes32",
          "name": "_batchMerkleRoot",
          "type": "bytes32"
        }
      ],
      "name": "claim",
      "outputs": [],
      "stateMutability": "payable",
      "type": "function"
    },
    {
      "inputs": [
        {
          "internalType": "uint256",
          "name": "_epoch",
          "type": "uint256"
        }
      ],
      "name": "claimChallengePeriod",
      "outputs": [
        {
          "internalType": "uint256",
          "name": "start",
          "type": "uint256"
        },
        {
          "internalType": "uint256",
          "name": "end",
          "type": "uint256"
        }
      ],
      "stateMutability": "view",
      "type": "function"
    },
    {
      "inputs": [
        {
          "internalType": "uint256",
          "name": "",
          "type": "uint256"
        }
      ],
      "name": "claims",
      "outputs": [
        {
          "internalType": "bytes32",
          "name": "batchMerkleRoot",
          "type": "bytes32"
        },
        {
          "internalType": "address",
          "name": "bridger",
          "type": "address"
        },
        {
          "internalType": "uint32",
          "name": "timestamp",
          "type": "uint32"
        },
        {
          "internalType": "bool",
          "name": "honest",
          "type": "bool"
        },
        {
          "internalType": "bool",
          "name": "verificationAttempted",
          "type": "bool"
        },
        {
          "internalType": "bool",
          "name": "depositAndRewardWithdrawn",
          "type": "bool"
        }
      ],
      "stateMutability": "view",
      "type": "function"
    },
    {
      "inputs": [],
      "name": "deposit",
      "outputs": [
        {
          "internalType": "uint256",
          "name": "",
          "type": "uint256"
        }
      ],
      "stateMutability": "view",
      "type": "function"
    },
    {
      "inputs": [],
      "name": "epochPeriod",
      "outputs": [
        {
          "internalType": "uint256",
          "name": "",
          "type": "uint256"
        }
      ],
      "stateMutability": "view",
      "type": "function"
    },
    {
      "inputs": [
        {
          "internalType": "uint256",
          "name": "",
          "type": "uint256"
        }
      ],
      "name": "fastInbox",
      "outputs": [
        {
          "internalType": "bytes32",
          "name": "",
          "type": "bytes32"
        }
      ],
      "stateMutability": "view",
      "type": "function"
    },
    {
      "inputs": [],
      "name": "inbox",
      "outputs": [
        {
          "internalType": "contract IInbox",
          "name": "",
          "type": "address"
        }
      ],
      "stateMutability": "view",
      "type": "function"
    },
    {
      "inputs": [
        {
          "internalType": "uint256",
          "name": "",
          "type": "uint256"
        },
        {
          "internalType": "uint256",
          "name": "",
          "type": "uint256"
        }
      ],
      "name": "relayed",
      "outputs": [
        {
          "internalType": "bytes32",
          "name": "",
          "type": "bytes32"
        }
      ],
      "stateMutability": "view",
      "type": "function"
    },
    {
      "inputs": [],
      "name": "safeBridgeSender",
      "outputs": [
        {
          "internalType": "address",
          "name": "",
          "type": "address"
        }
      ],
      "stateMutability": "view",
      "type": "function"
    },
    {
      "inputs": [
        {
          "internalType": "uint256",
          "name": "_epoch",
          "type": "uint256"
        },
        {
          "internalType": "bytes32[]",
          "name": "_proof",
          "type": "bytes32[]"
        },
        {
          "internalType": "bytes",
          "name": "_message",
          "type": "bytes"
        }
      ],
      "name": "verifyAndRelayMessage",
      "outputs": [],
      "stateMutability": "nonpayable",
      "type": "function"
    },
    {
      "inputs": [
        {
          "internalType": "uint256",
          "name": "_epoch",
          "type": "uint256"
        }
      ],
      "name": "verifyBatch",
      "outputs": [],
      "stateMutability": "nonpayable",
      "type": "function"
    },
    {
      "inputs": [
        {
          "internalType": "uint256",
          "name": "_epoch",
          "type": "uint256"
        },
        {
          "internalType": "bytes32",
          "name": "_batchMerkleRoot",
          "type": "bytes32"
        }
      ],
      "name": "verifySafeBatch",
      "outputs": [],
      "stateMutability": "nonpayable",
      "type": "function"
    },
    {
      "inputs": [
        {
          "internalType": "uint256",
          "name": "_epoch",
          "type": "uint256"
        }
      ],
      "name": "withdrawChallengeDeposit",
      "outputs": [],
      "stateMutability": "nonpayable",
      "type": "function"
    },
    {
      "inputs": [
        {
          "internalType": "uint256",
          "name": "_epoch",
          "type": "uint256"
        }
      ],
      "name": "withdrawClaimDeposit",
      "outputs": [],
      "stateMutability": "nonpayable",
      "type": "function"
    }
  ],
  "transactionHash": "0x6e77a9baaac2b763e7af105a991e995fd21c9fd140123b48afd6d2508bb32418",
  "args": [
    "100000000000000",
    3600,
    1800,
    "0xa1711e979d7F9ae5f4c5Fe57D5fF7d6F5Ae3d418",
    "0x6BEbC4925716945D46F0Ec336D5C2564F419682C"
  ],
  "numDeployments": 1,
  "solcInputHash": "0dcb9593742328b229683a82c39a89fd",
  "bytecode": "0x6101206040523480156200001257600080fd5b5060405162001ce738038062001ce783398101604081905262000035916200007a565b60a09490945260c09290925260e0526001600160a01b039081166101005216608052620000cf565b80516001600160a01b03811681146200007557600080fd5b919050565b600080600080600060a086880312156200009357600080fd5b855194506020860151935060408601519250620000b3606087016200005d565b9150620000c3608087016200005d565b90509295509295909350565b60805160a05160c05160e05161010051611b786200016f600039600081816103a101528181610a6b01526115090152600081816104410152818161078f01528181610cd3015261106601526000818161034d01526105710152600081816103ed015281816104b9015281816108f10152818161094a01528181610beb015281816112fd015261135a01526000818161049501526114060152611b786000f3fe6080604052600436106100fe5760003560e01c8063b141770311610095578063d0e30db011610064578063d0e30db0146103db578063dfe3a3ae1461040f578063f3f480d91461042f578063f4cf751b14610463578063fb0e722b1461048357600080fd5b8063b141770314610303578063b5b7a1841461033b578063ba7f4d761461036f578063c2ef14871461038f57600080fd5b80635bfe5f1a116100d15780635bfe5f1a146101ad5780638f1d3776146101cd578063a888c2cd14610240578063ab82d9a0146102f057600080fd5b80632a9700a11461010357806331d1445714610143578063383b90f91461015857806350b81dbe1461018d575b600080fd5b34801561010f57600080fd5b5061013061011e3660046117dc565b60006020819052908152604090205481565b6040519081526020015b60405180910390f35b6101566101513660046117f5565b6104b7565b005b34801561016457600080fd5b506101786101733660046117dc565b61076a565b6040805192835260208301919091520161013a565b34801561019957600080fd5b506101566101a83660046117dc565b6107bb565b3480156101b957600080fd5b506101566101c83660046117f5565b6109f9565b3480156101d957600080fd5b506102196101e83660046117dc565b6002602052600090815260409020546001600160a01b0381169060ff600160a01b8204811691600160a81b90041683565b604080516001600160a01b039094168452911515602084015215159082015260600161013a565b34801561024c57600080fd5b506102ac61025b3660046117dc565b600160208190526000918252604090912080549101546001600160a01b0381169063ffffffff600160a01b8204169060ff600160c01b8204811691600160c81b8104821691600160d01b9091041686565b604080519687526001600160a01b03909516602087015263ffffffff90931693850193909352151560608401529015156080830152151560a082015260c00161013a565b6101566102fe3660046117dc565b610be9565b34801561030f57600080fd5b5061013061031e3660046117f5565b600360209081526000928352604080842090915290825290205481565b34801561034757600080fd5b506101307f000000000000000000000000000000000000000000000000000000000000000081565b34801561037b57600080fd5b5061015661038a366004611860565b610dec565b34801561039b57600080fd5b506103c37f000000000000000000000000000000000000000000000000000000000000000081565b6040516001600160a01b03909116815260200161013a565b3480156103e757600080fd5b506101307f000000000000000000000000000000000000000000000000000000000000000081565b34801561041b57600080fd5b5061015661042a3660046117dc565b610f69565b34801561043b57600080fd5b506101307f000000000000000000000000000000000000000000000000000000000000000081565b34801561046f57600080fd5b5061015661047e3660046117dc565b6111c0565b34801561048f57600080fd5b506103c37f000000000000000000000000000000000000000000000000000000000000000081565b7f000000000000000000000000000000000000000000000000000000000000000034101561052c5760405162461bcd60e51b815260206004820152601b60248201527f496e73756666696369656e7420636c61696d206465706f7369742e000000000060448201526064015b60405180910390fd5b8061056a5760405162461bcd60e51b815260206004820152600e60248201526d24b73b30b634b21031b630b4b69760911b6044820152606401610523565b60006105967f000000000000000000000000000000000000000000000000000000000000000042611937565b9050808314806105af57506105ac60018261194b565b83145b6105ec5760405162461bcd60e51b815260206004820152600e60248201526d24b73b30b634b21032b837b1b41760911b6044820152606401610523565b600083815260016020819052604090912001546001600160a01b0316156106715760405162461bcd60e51b815260206004820152603360248201527f436c61696d20616c7265616479206d61646520666f72206d6f73742072656365604482015272373a103334b730b634bd32b21032b837b1b41760691b6064820152608401610523565b6040805160c08101825283815233602080830191825263ffffffff4281168486019081526000606086018181526080870182815260a088018381528c845260019687905289842098518955965197909501805493519151955196511515600160d01b0260ff60d01b19971515600160c81b0260ff60c81b19971515600160c01b029790971661ffff60c01b1993909616600160a01b026001600160c01b03199095166001600160a01b0399909916989098179390931716929092179290921792909216929092179091559051839185917f7eb220572187462098b6d5192bbe907549f0614d7c3580735a7e5c357a6157999190a3505050565b600081815260016020819052604082200154600160a01b900463ffffffff16906107b47f000000000000000000000000000000000000000000000000000000000000000083611962565b9050915091565b6000818152600160208190526040909120908101546001600160a01b031661081c5760405162461bcd60e51b815260206004820152601460248201527310db185a5b48191bd95cc81b9bdd08195e1a5cdd60621b6044820152606401610523565b600181810154600160c01b900460ff1615151461086b5760405162461bcd60e51b815260206004820152600d60248201526c21b630b4b6903330b4b632b21760991b6044820152606401610523565b6001810154600160d01b900460ff16156108e05760405162461bcd60e51b815260206004820152603060248201527f436c61696d206465706f73697420616e6420616e79207265776172647320616c60448201526f3932b0b23c903bb4ba34323930bbb71760811b6064820152608401610523565b6000828152600260205260409020547f0000000000000000000000000000000000000000000000000000000000000000906001600160a01b03161580159061093e5750600083815260026020526040902054600160a01b900460ff16155b1561097b5761096e60027f0000000000000000000000000000000000000000000000000000000000000000611937565b6109789082611962565b90505b60018201805460ff60d01b198116600160d01b179091556040516001600160a01b039091169084907f3d8490b2b1cee24079fde68fd6a415c1f12e9a76e8090ac027dad29b6660261990600090a360018201546040516001600160a01b039091169082156108fc029083906000818181858888f15050505050505050565b610a01611401565b610a605760405162461bcd60e51b815260206004820152602a60248201527f416363657373206e6f7420616c6c6f7765643a20536166654272696467655365604482015269373232b91037b7363c9760b11b6064820152608401610523565b336001600160a01b037f00000000000000000000000000000000000000000000000000000000000000001614610ad85760405162461bcd60e51b815260206004820152601b60248201527f43616c6c6572206e6f74205361666542726964676553656e64657200000000006044820152606401610523565b60008281526020818152604080832084905560019182905290912001546001600160a01b031615610b7857600082815260016020526040902054811415610b4157600082815260016020819052604090912001805460ff60c01b1916600160c01b179055610b78565b6000828152600160208181526040808420909201805460ff60c01b19169055600290529020805460ff60a01b1916600160a01b1790555b6000828152600160208181526040808420909201546002825292829020548251600160c01b90940460ff90811615158552600160a01b9091041615159083015283917f7451cfa583de6b2abaad934288f349736a4883acb348844352a320a1e1d38080910160405180910390a25050565b7f0000000000000000000000000000000000000000000000000000000000000000341015610c595760405162461bcd60e51b815260206004820152601860248201527f4e6f7420656e6f75676820636c61696d206465706f73697400000000000000006044820152606401610523565b600081815260016020819052604090912001546001600160a01b0316610cba5760405162461bcd60e51b815260206004820152601660248201527527379031b630b4b6903a379031b430b63632b733b29760511b6044820152606401610523565b60008181526001602081905260409091200154610d05907f000000000000000000000000000000000000000000000000000000000000000090600160a01b900463ffffffff16611962565b4210610d535760405162461bcd60e51b815260206004820152601960248201527f4368616c6c656e676520706572696f6420656c61707365642e000000000000006044820152606401610523565b6040805160608101825233815260006020808301828152838501838152868452600290925284832093518454915192511515600160a81b0260ff60a81b19931515600160a01b026001600160a81b03199093166001600160a01b039290921691909117919091179190911617909155905182917fe7230bb507d3a19678a0138ccb36eec02510dd27f11e37e2c9644d597dbc693891a250565b60008581526020819052604090205480610e395760405162461bcd60e51b815260206004820152600e60248201526d24b73b30b634b21032b837b1b41760911b6044820152606401610523565b610ec88585808060200260200160405190810160405280939291908181526020018383602002808284376000920191909152505060405160029250610e8291508790879061197a565b602060405180830381855afa158015610e9f573d6000803e3d6000fd5b5050506040513d601f19601f82011682018060405250810190610ec2919061198a565b836115b2565b1515600114610f0a5760405162461bcd60e51b815260206004820152600e60248201526d24b73b30b634b210383937b7b31760911b6044820152606401610523565b610f158684846115c8565b610f615760405162461bcd60e51b815260206004820152601760248201527f4661696c656420746f2063616c6c20636f6e74726163740000000000000000006044820152606401610523565b505050505050565b6000818152600160208190526040909120908101546001600160a01b0316610fde5760405162461bcd60e51b815260206004820152602260248201527f496e76616c69642065706f63682c206e6f20636c61696d20746f2076657269666044820152613c9760f11b6064820152608401610523565b6001810154600160c81b900460ff161561104d5760405162461bcd60e51b815260206004820152602a60248201527f4f7074696d697374696320766572696669636174696f6e20616c72656164792060448201526930ba3a32b6b83a32b21760b11b6064820152608401610523565b60008281526001602081905260409091200154611098907f000000000000000000000000000000000000000000000000000000000000000090600160a01b900463ffffffff16611962565b42116110f45760405162461bcd60e51b815260206004820152602560248201527f4368616c6c656e676520706572696f6420686173206e6f742079657420656c616044820152643839b2b21760d91b6064820152608401610523565b6000828152600260205260409020546001600160a01b0316611172576001818101805460ff60c01b1916600160c01b179055815460008481526020818152604091829020929092555191825283917f8fa19318c4280299918d1220c80ba5db06b26b8947b75384ce2d74ba043c0265910160405180910390a26111a9565b6040516000815282907f8fa19318c4280299918d1220c80ba5db06b26b8947b75384ce2d74ba043c02659060200160405180910390a25b600101805460ff60c81b1916600160c81b17905550565b600081815260026020526040902080546001600160a01b03166112255760405162461bcd60e51b815260206004820152601860248201527f4368616c6c656e676520646f6573206e6f7420657869737400000000000000006044820152606401610523565b8054600160a01b900460ff1615156001146112765760405162461bcd60e51b815260206004820152601160248201527021b430b63632b733b2903330b4b632b21760791b6044820152606401610523565b8054600160a81b900460ff16156112e85760405162461bcd60e51b815260206004820152603060248201527f4368616c6c656e6765206465706f73697420616e64207265776172647320616c60448201526f3932b0b23c903bb4ba34323930bbb71760811b6064820152608401610523565b600082815260016020819052604090912001547f0000000000000000000000000000000000000000000000000000000000000000906001600160a01b03161580159061134e575060008381526001602081905260409091200154600160c01b900460ff16155b1561138b5761137e60027f0000000000000000000000000000000000000000000000000000000000000000611937565b6113889082611962565b90505b815460ff60a81b198116600160a81b1783556040516001600160a01b039091169084907f9e0ea87919796fe5ad8e4362a6a3ff07f6a73e0731b94f451d7184e4928f313b90600090a381546040516001600160a01b039091169082156108fc029083906000818181858888f15050505050505050565b6000807f00000000000000000000000000000000000000000000000000000000000000006001600160a01b031663e78cea926040518163ffffffff1660e01b815260040160206040518083038186803b15801561145d57600080fd5b505afa158015611471573d6000803e3d6000fd5b505050506040513d601f19601f8201168201806040525081019061149591906119bb565b6001600160a01b031663ab5d89436040518163ffffffff1660e01b815260040160206040518083038186803b1580156114cd57600080fd5b505afa1580156114e1573d6000803e3d6000fd5b505050506040513d601f19601f8201168201806040525081019061150591906119bb565b90507f00000000000000000000000000000000000000000000000000000000000000006001600160a01b0316816001600160a01b03166380648b026040518163ffffffff1660e01b815260040160206040518083038186803b15801561156a57600080fd5b505afa15801561157e573d6000803e3d6000fd5b505050506040513d601f19601f820116820180604052508101906115a291906119bb565b6001600160a01b03161491505090565b60006115be8484611724565b9091149392505050565b60008080806115d9858701876119f5565b9194509250905060006115ee61010085611937565b905060006115fe61010086611ac2565b60008a815260036020908152604080832086845290915290205490915080821c6001161561166e5760405162461bcd60e51b815260206004820152601760248201527f4d65737361676520616c72656164792072656c617965640000000000000000006044820152606401610523565b60008a81526003602090815260408083208684529091528082206001851b841790555187918c917f7f2ae957b8ae493c532b836f8a7e17178d402b24829677739558336424ae335f9190a3846001600160a01b0316846040516116d19190611ad6565b6000604051808303816000865af19150503d806000811461170e576040519150601f19603f3d011682016040523d82523d6000602084013e611713565b606091505b50909b9a5050505050505050505050565b8151600090602081111561176a5760405162461bcd60e51b815260206004820152600d60248201526c24b73b30b634b210283937b7b360991b6044820152606401610523565b8260005b828110156117d357600086828151811061178a5761178a611b11565b60200260200101519050828111156117b0578260005280602052604060002092506117c0565b8060005282602052604060002092505b50806117cb81611b27565b91505061176e565b50949350505050565b6000602082840312156117ee57600080fd5b5035919050565b6000806040838503121561180857600080fd5b50508035926020909101359150565b60008083601f84011261182957600080fd5b50813567ffffffffffffffff81111561184157600080fd5b60208301915083602082850101111561185957600080fd5b9250929050565b60008060008060006060868803121561187857600080fd5b85359450602086013567ffffffffffffffff8082111561189757600080fd5b818801915088601f8301126118ab57600080fd5b8135818111156118ba57600080fd5b8960208260051b85010111156118cf57600080fd5b6020830196508095505060408801359150808211156118ed57600080fd5b506118fa88828901611817565b969995985093965092949392505050565b634e487b7160e01b600052601260045260246000fd5b634e487b7160e01b600052601160045260246000fd5b6000826119465761194661190b565b500490565b60008282101561195d5761195d611921565b500390565b6000821982111561197557611975611921565b500190565b8183823760009101908152919050565b60006020828403121561199c57600080fd5b5051919050565b6001600160a01b03811681146119b857600080fd5b50565b6000602082840312156119cd57600080fd5b81516119d8816119a3565b9392505050565b634e487b7160e01b600052604160045260246000fd5b600080600060608486031215611a0a57600080fd5b833592506020840135611a1c816119a3565b9150604084013567ffffffffffffffff80821115611a3957600080fd5b818601915086601f830112611a4d57600080fd5b813581811115611a5f57611a5f6119df565b604051601f8201601f19908116603f01168101908382118183101715611a8757611a876119df565b81604052828152896020848701011115611aa057600080fd5b8260208601602083013760006020848301015280955050505050509250925092565b600082611ad157611ad161190b565b500690565b6000825160005b81811015611af75760208186018101518583015201611add565b81811115611b06576000828501525b509190910192915050565b634e487b7160e01b600052603260045260246000fd5b6000600019821415611b3b57611b3b611921565b506001019056fea2646970667358221220711372ef9b3a47cb95db43e97943b670a09fd19f31192e7e9bf9107e86dd3ca164736f6c63430008090033",
  "devdoc": {
    "kind": "dev",
    "methods": {
      "challenge(uint256)": {
        "details": "Submit a challenge for the claim of the current epoch's Fast Bridge batch merkleroot state and submit a deposit. The `batchMerkleRoot` in the claim already made for the last finalized epoch should be different from the one on the sending side, otherwise the sender will lose his deposit.",
        "params": {
          "_epoch": "The epoch of the claim to challenge."
        }
      },
      "claim(uint256,bytes32)": {
        "details": "Submit a claim about the `_batchMerkleRoot` for the last completed epoch from the Fast Bridge  and submit a deposit. The `_batchMerkleRoot` should match the one on the sending side otherwise the sender will lose his deposit.",
        "params": {
          "_batchMerkleRoot": "The batch merkle root claimed for the last completed epoch.",
          "_epoch": "The epoch in which the batch to claim."
        }
      },
      "claimChallengePeriod(uint256)": {
        "details": "Returns the `start` and `end` time of challenge period for this `epoch`.",
        "params": {
          "_epoch": "The epoch of the claim to request the challenge period."
        },
        "returns": {
          "end": "The end time of the challenge period.",
          "start": "The start time of the challenge period."
        }
      },
      "constructor": {
        "details": "Constructor.",
        "params": {
          "_challengePeriod": "The duration of the period allowing to challenge a claim.",
          "_deposit": "The deposit amount to submit a claim in wei.",
          "_epochPeriod": "The duration of each epoch.",
          "_inbox": "Ethereum receiver specific: The address of the inbox contract on Ethereum.",
          "_safeBridgeSender": "The address of the Safe Bridge Sender on the connecting chain."
        }
      },
      "verifyAndRelayMessage(uint256,bytes32[],bytes)": {
        "details": "Verifies merkle proof for the given message and associated nonce for the epoch and relays the message.",
        "params": {
          "_epoch": "The epoch in which the message was batched by the bridge.",
          "_message": "The data on the cross-domain chain for the message.",
          "_proof": "The merkle proof to prove the membership of the message and nonce in the merkle tree for the epoch."
        }
      },
      "verifyBatch(uint256)": {
        "details": "Resolves the optimistic claim for '_epoch'.",
        "params": {
          "_epoch": "The epoch of the optimistic claim."
        }
      },
      "verifySafeBatch(uint256,bytes32)": {
        "details": "Resolves any challenge of the optimistic claim for '_epoch'.",
        "params": {
          "_batchMerkleRoot": "The true batch merkle root for the epoch.",
          "_epoch": "The epoch to verify."
        }
      },
      "withdrawChallengeDeposit(uint256)": {
        "details": "Sends the deposit back to the Challenger if their challenge is successful. Includes a portion of the Bridger's deposit.",
        "params": {
          "_epoch": "The epoch associated with the challenge deposit to withraw."
        }
      },
      "withdrawClaimDeposit(uint256)": {
        "details": "Sends the deposit back to the Bridger if their claim is not successfully challenged. Includes a portion of the Challenger's deposit if unsuccessfully challenged.",
        "params": {
          "_epoch": "The epoch associated with the claim deposit to withraw."
        }
      }
    },
    "stateVariables": {
      "challengePeriod": {
        "details": "Returns the challenge period."
      },
      "epochPeriod": {
        "details": "Returns the epoch period."
      }
    },
    "version": 1
  },
  "userdoc": {
    "kind": "user",
    "methods": {
      "verifySafeBatch(uint256,bytes32)": {
        "notice": "Note: Access restricted to the Safe Bridge."
      }
    },
    "notice": "Fast Receiver On Ethereum Counterpart of `FastSenderFromArbitrum`",
    "version": 1
  },
  "storageLayout": {
    "storage": [
      {
        "astId": 108,
        "contract": "src/FastBridgeReceiverOnEthereum.sol:FastBridgeReceiverOnEthereum",
        "label": "fastInbox",
        "offset": 0,
        "slot": "0",
        "type": "t_mapping(t_uint256,t_bytes32)"
      },
      {
        "astId": 113,
        "contract": "src/FastBridgeReceiverOnEthereum.sol:FastBridgeReceiverOnEthereum",
        "label": "claims",
        "offset": 0,
        "slot": "1",
        "type": "t_mapping(t_uint256,t_struct(Claim)87_storage)"
      },
      {
        "astId": 118,
        "contract": "src/FastBridgeReceiverOnEthereum.sol:FastBridgeReceiverOnEthereum",
        "label": "challenges",
        "offset": 0,
        "slot": "2",
        "type": "t_mapping(t_uint256,t_struct(Challenge)94_storage)"
      },
      {
        "astId": 124,
        "contract": "src/FastBridgeReceiverOnEthereum.sol:FastBridgeReceiverOnEthereum",
        "label": "relayed",
        "offset": 0,
        "slot": "3",
        "type": "t_mapping(t_uint256,t_mapping(t_uint256,t_bytes32))"
      }
    ],
    "types": {
      "t_address": {
        "encoding": "inplace",
        "label": "address",
        "numberOfBytes": "20"
      },
      "t_bool": {
        "encoding": "inplace",
        "label": "bool",
        "numberOfBytes": "1"
      },
      "t_bytes32": {
        "encoding": "inplace",
        "label": "bytes32",
        "numberOfBytes": "32"
      },
      "t_mapping(t_uint256,t_bytes32)": {
        "encoding": "mapping",
        "key": "t_uint256",
        "label": "mapping(uint256 => bytes32)",
        "numberOfBytes": "32",
        "value": "t_bytes32"
      },
      "t_mapping(t_uint256,t_mapping(t_uint256,t_bytes32))": {
        "encoding": "mapping",
        "key": "t_uint256",
        "label": "mapping(uint256 => mapping(uint256 => bytes32))",
        "numberOfBytes": "32",
        "value": "t_mapping(t_uint256,t_bytes32)"
      },
      "t_mapping(t_uint256,t_struct(Challenge)94_storage)": {
        "encoding": "mapping",
        "key": "t_uint256",
        "label": "mapping(uint256 => struct FastBridgeReceiverOnEthereum.Challenge)",
        "numberOfBytes": "32",
        "value": "t_struct(Challenge)94_storage"
      },
      "t_mapping(t_uint256,t_struct(Claim)87_storage)": {
        "encoding": "mapping",
        "key": "t_uint256",
        "label": "mapping(uint256 => struct FastBridgeReceiverOnEthereum.Claim)",
        "numberOfBytes": "32",
        "value": "t_struct(Claim)87_storage"
      },
      "t_struct(Challenge)94_storage": {
        "encoding": "inplace",
        "label": "struct FastBridgeReceiverOnEthereum.Challenge",
        "members": [
          {
            "astId": 89,
            "contract": "src/FastBridgeReceiverOnEthereum.sol:FastBridgeReceiverOnEthereum",
            "label": "challenger",
            "offset": 0,
            "slot": "0",
            "type": "t_address"
          },
          {
            "astId": 91,
            "contract": "src/FastBridgeReceiverOnEthereum.sol:FastBridgeReceiverOnEthereum",
            "label": "honest",
            "offset": 20,
            "slot": "0",
            "type": "t_bool"
          },
          {
            "astId": 93,
            "contract": "src/FastBridgeReceiverOnEthereum.sol:FastBridgeReceiverOnEthereum",
            "label": "depositAndRewardWithdrawn",
            "offset": 21,
            "slot": "0",
            "type": "t_bool"
          }
        ],
        "numberOfBytes": "32"
      },
      "t_struct(Claim)87_storage": {
        "encoding": "inplace",
        "label": "struct FastBridgeReceiverOnEthereum.Claim",
        "members": [
          {
            "astId": 76,
            "contract": "src/FastBridgeReceiverOnEthereum.sol:FastBridgeReceiverOnEthereum",
            "label": "batchMerkleRoot",
            "offset": 0,
            "slot": "0",
            "type": "t_bytes32"
          },
          {
            "astId": 78,
            "contract": "src/FastBridgeReceiverOnEthereum.sol:FastBridgeReceiverOnEthereum",
            "label": "bridger",
            "offset": 0,
            "slot": "1",
            "type": "t_address"
          },
          {
            "astId": 80,
            "contract": "src/FastBridgeReceiverOnEthereum.sol:FastBridgeReceiverOnEthereum",
            "label": "timestamp",
            "offset": 20,
            "slot": "1",
            "type": "t_uint32"
          },
          {
            "astId": 82,
            "contract": "src/FastBridgeReceiverOnEthereum.sol:FastBridgeReceiverOnEthereum",
            "label": "honest",
            "offset": 24,
            "slot": "1",
            "type": "t_bool"
          },
          {
            "astId": 84,
            "contract": "src/FastBridgeReceiverOnEthereum.sol:FastBridgeReceiverOnEthereum",
            "label": "verificationAttempted",
            "offset": 25,
            "slot": "1",
            "type": "t_bool"
          },
          {
            "astId": 86,
            "contract": "src/FastBridgeReceiverOnEthereum.sol:FastBridgeReceiverOnEthereum",
            "label": "depositAndRewardWithdrawn",
            "offset": 26,
            "slot": "1",
            "type": "t_bool"
          }
        ],
        "numberOfBytes": "64"
      },
      "t_uint256": {
        "encoding": "inplace",
        "label": "uint256",
        "numberOfBytes": "32"
      },
      "t_uint32": {
        "encoding": "inplace",
        "label": "uint32",
        "numberOfBytes": "4"
      }
    }
  }
}