{
  "address": "0xD986380c607350762D802646AAad4eea809219Df",
  "abi": [
    {
      "inputs": [
        {
          "internalType": "contract IFastBridgeReceiver",
          "name": "_fastBridgeReceiver",
          "type": "address"
        },
        {
          "internalType": "address",
          "name": "_senderGateway",
          "type": "address"
        },
        {
          "internalType": "uint256",
          "name": "_senderChainID",
          "type": "uint256"
        }
      ],
      "stateMutability": "nonpayable",
      "type": "constructor"
    },
    {
      "inputs": [],
      "name": "data",
      "outputs": [
        {
          "internalType": "uint256",
          "name": "",
          "type": "uint256"
        }
      ],
      "stateMutability": "view",
      "type": "function"
    },
    {
      "inputs": [],
      "name": "fastBridgeReceiver",
      "outputs": [
        {
          "internalType": "contract IFastBridgeReceiver",
          "name": "",
          "type": "address"
        }
      ],
      "stateMutability": "view",
      "type": "function"
    },
    {
      "inputs": [],
      "name": "messageCount",
      "outputs": [
        {
          "internalType": "uint256",
          "name": "",
          "type": "uint256"
        }
      ],
      "stateMutability": "view",
      "type": "function"
    },
    {
      "inputs": [
        {
          "internalType": "uint256",
          "name": "_data",
          "type": "uint256"
        }
      ],
      "name": "receiveMessage",
      "outputs": [],
      "stateMutability": "nonpayable",
      "type": "function"
    },
    {
      "inputs": [
        {
          "internalType": "address",
          "name": "_messageSender",
          "type": "address"
        }
      ],
      "name": "receiveMessage",
      "outputs": [],
      "stateMutability": "nonpayable",
      "type": "function"
    },
    {
      "inputs": [
        {
          "internalType": "address",
          "name": "_messageSender",
          "type": "address"
        },
        {
          "internalType": "uint256",
          "name": "_data",
          "type": "uint256"
        }
      ],
      "name": "receiveMessage",
      "outputs": [],
      "stateMutability": "nonpayable",
      "type": "function"
    },
    {
      "inputs": [],
      "name": "senderChainID",
      "outputs": [
        {
          "internalType": "uint256",
          "name": "",
          "type": "uint256"
        }
      ],
      "stateMutability": "view",
      "type": "function"
    },
    {
      "inputs": [],
      "name": "senderGateway",
      "outputs": [
        {
          "internalType": "address",
          "name": "",
          "type": "address"
        }
      ],
      "stateMutability": "view",
      "type": "function"
    }
  ],
  "transactionHash": "0xc12b3d857b4e44caadb5b7e43130adf993b924eabd221ba70daa9c0a4eb5a083",
  "args": [
    "0xa1711e979d7F9ae5f4c5Fe57D5fF7d6F5Ae3d418",
    "0xD986380c607350762D802646AAad4eea809219Df",
    421613
  ],
  "numDeployments": 1,
  "solcInputHash": "d2b0f710adf6e1b001d6a1a8ff47f69c",
  "bytecode": "0x60e060405234801561001057600080fd5b5060405161059138038061059183398101604081905261002f91610062565b6001600160a01b03928316608052911660a05260c0526100a5565b6001600160a01b038116811461005f57600080fd5b50565b60008060006060848603121561007757600080fd5b83516100828161004a565b60208501519093506100938161004a565b80925050604084015190509250925092565b60805160a05160c05161049b6100f6600039600060c30152600081816101190152818161022101526102c20152600081816101580152818161017c015281816101d9015261027a015261049b6000f3fe608060405234801561001057600080fd5b50600436106100885760003560e01c80637596c3dd1161005b5780637596c3dd146100ee5780639e28b67414610101578063ce0aaf9514610114578063d96a36ca1461015357600080fd5b8063072ac8be1461008d5780633dbcc8d1146100a25780634def5455146100be57806373d4a13a146100e5575b600080fd5b6100a061009b36600461034d565b61017a565b005b6100ab60005481565b6040519081526020015b60405180910390f35b6100ab7f000000000000000000000000000000000000000000000000000000000000000081565b6100ab60015481565b6100a06100fc366004610382565b6101d7565b6100a061010f3660046103a4565b610278565b61013b7f000000000000000000000000000000000000000000000000000000000000000081565b6040516001600160a01b0390911681526020016100b5565b61013b7f000000000000000000000000000000000000000000000000000000000000000081565b7f00000000000000000000000000000000000000000000000000000000000000006001600160a01b031633146101cb5760405162461bcd60e51b81526004016101c2906103ce565b60405180910390fd5b6101d48161031e565b50565b7f00000000000000000000000000000000000000000000000000000000000000006001600160a01b0316331461021f5760405162461bcd60e51b81526004016101c2906103ce565b7f00000000000000000000000000000000000000000000000000000000000000006001600160a01b0316816001600160a01b0316146102705760405162461bcd60e51b81526004016101c2906103f9565b6101d4610337565b7f00000000000000000000000000000000000000000000000000000000000000006001600160a01b031633146102c05760405162461bcd60e51b81526004016101c2906103ce565b7f00000000000000000000000000000000000000000000000000000000000000006001600160a01b0316826001600160a01b0316146103115760405162461bcd60e51b81526004016101c2906103f9565b61031a8161031e565b5050565b60008054908061032d8361043c565b9091555050600155565b6000805490806103468361043c565b9190505550565b60006020828403121561035f57600080fd5b5035919050565b80356001600160a01b038116811461037d57600080fd5b919050565b60006020828403121561039457600080fd5b61039d82610366565b9392505050565b600080604083850312156103b757600080fd5b6103c083610366565b946020939093013593505050565b6020808252601190820152702330b9ba10213934b233b29037b7363c9760791b604082015260600190565b60208082526023908201527f4f6e6c79207468652073656e646572206761746577617920697320616c6c6f7760408201526232b21760e91b606082015260800190565b600060001982141561045e57634e487b7160e01b600052601160045260246000fd5b506001019056fea2646970667358221220e1312824e0fa3552f295df8d53b4341108bcb2cd109ca2367174754921449b6c64736f6c63430008090033",
  "devdoc": {
    "kind": "dev",
    "methods": {},
    "version": 1
  },
  "userdoc": {
    "kind": "user",
    "methods": {
      "receiveMessage(address)": {
        "notice": "Receive the message from the sender gateway."
      },
      "receiveMessage(address,uint256)": {
        "notice": "Receive the message from the sender gateway."
      },
      "receiveMessage(uint256)": {
        "notice": "Receive the message from the sender gateway."
      }
    },
    "notice": "Receiver Gateway Mock Counterpart of `SenderGatewayMock`",
    "version": 1
  },
  "storageLayout": {
    "storage": [
      {
        "astId": 165,
        "contract": "src/test/gateways/ReceiverGatewayMock.sol:ReceiverGatewayMock",
        "label": "messageCount",
        "offset": 0,
        "slot": "0",
        "type": "t_uint256"
      },
      {
        "astId": 167,
        "contract": "src/test/gateways/ReceiverGatewayMock.sol:ReceiverGatewayMock",
        "label": "data",
        "offset": 0,
        "slot": "1",
        "type": "t_uint256"
      }
    ],
    "types": {
      "t_uint256": {
        "encoding": "inplace",
        "label": "uint256",
        "numberOfBytes": "32"
      }
    }
  }
}