{
  "address": "0x32b55e5E51f6F4cbd661a4cA1cC6142f6380777b",
  "abi": [
    {
      "inputs": [
        {
          "internalType": "uint256",
          "name": "_deposit",
          "type": "uint256"
        },
        {
          "internalType": "uint256",
          "name": "_epochPeriod",
          "type": "uint256"
        },
        {
          "internalType": "uint256",
          "name": "_challengePeriod",
          "type": "uint256"
        },
        {
          "internalType": "uint256",
          "name": "_timeoutEpochs",
          "type": "uint256"
        },
        {
          "internalType": "contract IAMB",
          "name": "_amb",
          "type": "address"
        },
        {
          "internalType": "address",
          "name": "_routerArbToGnosisDevnet",
          "type": "address"
        },
        {
          "internalType": "uint256",
          "name": "_maxMissingBlocks",
          "type": "uint256"
        },
        {
          "internalType": "uint256",
          "name": "_sequencerLimit",
          "type": "uint256"
        },
        {
          "internalType": "uint256",
          "name": "_routerChainId",
          "type": "uint256"
        }
      ],
      "stateMutability": "nonpayable",
      "type": "constructor"
    },
    {
      "anonymous": false,
      "inputs": [
        {
          "indexed": false,
          "internalType": "uint256",
          "name": "_epoch",
          "type": "uint256"
        },
        {
          "indexed": true,
          "internalType": "address",
          "name": "_challenger",
          "type": "address"
        }
      ],
      "name": "Challenged",
      "type": "event"
    },
    {
      "anonymous": false,
      "inputs": [
        {
          "indexed": true,
          "internalType": "address",
          "name": "_claimer",
          "type": "address"
        },
        {
          "indexed": false,
          "internalType": "bytes32",
          "name": "_stateRoot",
          "type": "bytes32"
        }
      ],
      "name": "Claimed",
      "type": "event"
    },
    {
      "anonymous": false,
      "inputs": [
        {
          "indexed": false,
          "internalType": "uint64",
          "name": "_msgId",
          "type": "uint64"
        }
      ],
      "name": "MessageRelayed",
      "type": "event"
    },
    {
      "anonymous": false,
      "inputs": [
        {
          "indexed": false,
          "internalType": "uint256",
          "name": "_newSequencerLimit",
          "type": "uint256"
        }
      ],
      "name": "SequencerLimitUpdateReceived",
      "type": "event"
    },
    {
      "anonymous": false,
      "inputs": [
        {
          "indexed": false,
          "internalType": "uint256",
          "name": "_epoch",
          "type": "uint256"
        }
      ],
      "name": "VerificationStarted",
      "type": "event"
    },
    {
      "anonymous": false,
      "inputs": [
        {
          "indexed": false,
          "internalType": "uint256",
          "name": "_epoch",
          "type": "uint256"
        }
      ],
      "name": "Verified",
      "type": "event"
    },
    {
      "inputs": [],
      "name": "amb",
      "outputs": [
        {
          "internalType": "contract IAMB",
          "name": "",
          "type": "address"
        }
      ],
      "stateMutability": "view",
      "type": "function"
    },
    {
      "inputs": [
        {
          "components": [
            {
              "internalType": "bytes32",
              "name": "stateRoot",
              "type": "bytes32"
            },
            {
              "internalType": "address",
              "name": "claimer",
              "type": "address"
            },
            {
              "internalType": "uint32",
              "name": "timestampClaimed",
              "type": "uint32"
            },
            {
              "internalType": "uint32",
              "name": "timestampVerification",
              "type": "uint32"
            },
            {
              "internalType": "uint32",
              "name": "blocknumberVerification",
              "type": "uint32"
            },
            {
              "internalType": "enum Party",
              "name": "honest",
              "type": "uint8"
            },
            {
              "internalType": "address",
              "name": "challenger",
              "type": "address"
            }
          ],
          "internalType": "struct Claim",
          "name": "_claim",
          "type": "tuple"
        }
      ],
      "name": "censorshipTestStatus",
      "outputs": [
        {
          "internalType": "enum VeaOutboxArbToGnosis.CensorshipTestStatus",
          "name": "status",
          "type": "uint8"
        }
      ],
      "stateMutability": "view",
      "type": "function"
    },
    {
      "inputs": [
        {
          "internalType": "uint256",
          "name": "_epoch",
          "type": "uint256"
        },
        {
          "components": [
            {
              "internalType": "bytes32",
              "name": "stateRoot",
              "type": "bytes32"
            },
            {
              "internalType": "address",
              "name": "claimer",
              "type": "address"
            },
            {
              "internalType": "uint32",
              "name": "timestampClaimed",
              "type": "uint32"
            },
            {
              "internalType": "uint32",
              "name": "timestampVerification",
              "type": "uint32"
            },
            {
              "internalType": "uint32",
              "name": "blocknumberVerification",
              "type": "uint32"
            },
            {
              "internalType": "enum Party",
              "name": "honest",
              "type": "uint8"
            },
            {
              "internalType": "address",
              "name": "challenger",
              "type": "address"
            }
          ],
          "internalType": "struct Claim",
          "name": "_claim",
          "type": "tuple"
        }
      ],
      "name": "challenge",
      "outputs": [],
      "stateMutability": "payable",
      "type": "function"
    },
    {
      "inputs": [
        {
          "internalType": "address",
          "name": "_devnetOperator",
          "type": "address"
        }
      ],
      "name": "changeDevnetOperator",
      "outputs": [],
      "stateMutability": "nonpayable",
      "type": "function"
    },
    {
      "inputs": [
        {
          "internalType": "uint256",
          "name": "_epoch",
          "type": "uint256"
        },
        {
          "internalType": "bytes32",
          "name": "_stateRoot",
          "type": "bytes32"
        }
      ],
      "name": "claim",
      "outputs": [],
      "stateMutability": "payable",
      "type": "function"
    },
    {
      "inputs": [
        {
          "internalType": "uint256",
          "name": "",
          "type": "uint256"
        }
      ],
      "name": "claimHashes",
      "outputs": [
        {
          "internalType": "bytes32",
          "name": "",
          "type": "bytes32"
        }
      ],
      "stateMutability": "view",
      "type": "function"
    },
    {
      "inputs": [],
      "name": "deposit",
      "outputs": [
        {
          "internalType": "uint256",
          "name": "",
          "type": "uint256"
        }
      ],
      "stateMutability": "view",
      "type": "function"
    },
    {
      "inputs": [
        {
          "internalType": "uint256",
          "name": "_epoch",
          "type": "uint256"
        },
        {
          "internalType": "bytes32",
          "name": "_stateroot",
          "type": "bytes32"
        }
      ],
      "name": "devnetAdvanceState",
      "outputs": [],
      "stateMutability": "payable",
      "type": "function"
    },
    {
      "inputs": [],
      "name": "devnetOperator",
      "outputs": [
        {
          "internalType": "address",
          "name": "",
          "type": "address"
        }
      ],
      "stateMutability": "view",
      "type": "function"
    },
    {
      "inputs": [
        {
          "internalType": "uint256",
          "name": "timestamp",
          "type": "uint256"
        }
      ],
      "name": "epochAt",
      "outputs": [
        {
          "internalType": "uint256",
          "name": "epoch",
          "type": "uint256"
        }
      ],
      "stateMutability": "view",
      "type": "function"
    },
    {
      "inputs": [],
      "name": "epochNow",
      "outputs": [
        {
          "internalType": "uint256",
          "name": "epoch",
          "type": "uint256"
        }
      ],
      "stateMutability": "view",
      "type": "function"
    },
    {
      "inputs": [],
      "name": "epochPeriod",
      "outputs": [
        {
          "internalType": "uint256",
          "name": "",
          "type": "uint256"
        }
      ],
      "stateMutability": "view",
      "type": "function"
    },
    {
      "inputs": [
        {
          "components": [
            {
              "internalType": "bytes32",
              "name": "stateRoot",
              "type": "bytes32"
            },
            {
              "internalType": "address",
              "name": "claimer",
              "type": "address"
            },
            {
              "internalType": "uint32",
              "name": "timestampClaimed",
              "type": "uint32"
            },
            {
              "internalType": "uint32",
              "name": "timestampVerification",
              "type": "uint32"
            },
            {
              "internalType": "uint32",
              "name": "blocknumberVerification",
              "type": "uint32"
            },
            {
              "internalType": "enum Party",
              "name": "honest",
              "type": "uint8"
            },
            {
              "internalType": "address",
              "name": "challenger",
              "type": "address"
            }
          ],
          "internalType": "struct Claim",
          "name": "_claim",
          "type": "tuple"
        }
      ],
      "name": "hashClaim",
      "outputs": [
        {
          "internalType": "bytes32",
          "name": "hashedClaim",
          "type": "bytes32"
        }
      ],
      "stateMutability": "pure",
      "type": "function"
    },
    {
      "inputs": [],
      "name": "latestVerifiedEpoch",
      "outputs": [
        {
          "internalType": "uint256",
          "name": "",
          "type": "uint256"
        }
      ],
      "stateMutability": "view",
      "type": "function"
    },
    {
      "inputs": [],
      "name": "maxMissingBlocks",
      "outputs": [
        {
          "internalType": "uint256",
          "name": "",
          "type": "uint256"
        }
      ],
      "stateMutability": "view",
      "type": "function"
    },
    {
      "inputs": [],
      "name": "minChallengePeriod",
      "outputs": [
        {
          "internalType": "uint256",
          "name": "",
          "type": "uint256"
        }
      ],
      "stateMutability": "view",
      "type": "function"
    },
    {
      "inputs": [
        {
          "internalType": "uint256",
          "name": "",
          "type": "uint256"
        }
      ],
      "name": "relayed",
      "outputs": [
        {
          "internalType": "bytes32",
          "name": "",
          "type": "bytes32"
        }
      ],
      "stateMutability": "view",
      "type": "function"
    },
    {
      "inputs": [
        {
          "internalType": "uint256",
          "name": "_epoch",
          "type": "uint256"
        },
        {
          "internalType": "bytes32",
          "name": "_stateRoot",
          "type": "bytes32"
        },
        {
          "components": [
            {
              "internalType": "bytes32",
              "name": "stateRoot",
              "type": "bytes32"
            },
            {
              "internalType": "address",
              "name": "claimer",
              "type": "address"
            },
            {
              "internalType": "uint32",
              "name": "timestampClaimed",
              "type": "uint32"
            },
            {
              "internalType": "uint32",
              "name": "timestampVerification",
              "type": "uint32"
            },
            {
              "internalType": "uint32",
              "name": "blocknumberVerification",
              "type": "uint32"
            },
            {
              "internalType": "enum Party",
              "name": "honest",
              "type": "uint8"
            },
            {
              "internalType": "address",
              "name": "challenger",
              "type": "address"
            }
          ],
          "internalType": "struct Claim",
          "name": "_claim",
          "type": "tuple"
        }
      ],
      "name": "resolveDisputedClaim",
      "outputs": [],
      "stateMutability": "nonpayable",
      "type": "function"
    },
    {
      "inputs": [],
      "name": "routerArbToGnosis",
      "outputs": [
        {
          "internalType": "address",
          "name": "",
          "type": "address"
        }
      ],
      "stateMutability": "view",
      "type": "function"
    },
    {
      "inputs": [],
      "name": "routerChainId",
      "outputs": [
        {
          "internalType": "uint256",
          "name": "",
          "type": "uint256"
        }
      ],
      "stateMutability": "view",
      "type": "function"
    },
    {
      "inputs": [
        {
          "internalType": "bytes32[]",
          "name": "_proof",
          "type": "bytes32[]"
        },
        {
          "internalType": "uint64",
          "name": "_msgId",
          "type": "uint64"
        },
        {
          "internalType": "address",
          "name": "_to",
          "type": "address"
        },
        {
          "internalType": "bytes",
          "name": "_message",
          "type": "bytes"
        }
      ],
      "name": "sendMessage",
      "outputs": [],
      "stateMutability": "nonpayable",
      "type": "function"
    },
    {
      "inputs": [],
      "name": "sequencerLimit",
      "outputs": [
        {
          "internalType": "uint256",
          "name": "",
          "type": "uint256"
        }
      ],
      "stateMutability": "view",
      "type": "function"
    },
    {
      "inputs": [
        {
          "internalType": "uint256",
          "name": "_epoch",
          "type": "uint256"
        },
        {
          "components": [
            {
              "internalType": "bytes32",
              "name": "stateRoot",
              "type": "bytes32"
            },
            {
              "internalType": "address",
              "name": "claimer",
              "type": "address"
            },
            {
              "internalType": "uint32",
              "name": "timestampClaimed",
              "type": "uint32"
            },
            {
              "internalType": "uint32",
              "name": "timestampVerification",
              "type": "uint32"
            },
            {
              "internalType": "uint32",
              "name": "blocknumberVerification",
              "type": "uint32"
            },
            {
              "internalType": "enum Party",
              "name": "honest",
              "type": "uint8"
            },
            {
              "internalType": "address",
              "name": "challenger",
              "type": "address"
            }
          ],
          "internalType": "struct Claim",
          "name": "_claim",
          "type": "tuple"
        }
      ],
      "name": "startVerification",
      "outputs": [],
      "stateMutability": "nonpayable",
      "type": "function"
    },
    {
      "inputs": [],
      "name": "stateRoot",
      "outputs": [
        {
          "internalType": "bytes32",
          "name": "",
          "type": "bytes32"
        }
      ],
      "stateMutability": "view",
      "type": "function"
    },
    {
      "inputs": [],
      "name": "timeoutEpochs",
      "outputs": [
        {
          "internalType": "uint256",
          "name": "",
          "type": "uint256"
        }
      ],
      "stateMutability": "view",
      "type": "function"
    },
    {
      "inputs": [
        {
          "internalType": "uint256",
          "name": "_newSequencerLimit",
          "type": "uint256"
        }
      ],
      "name": "updateSequencerLimit",
      "outputs": [],
      "stateMutability": "nonpayable",
      "type": "function"
    },
    {
      "inputs": [
        {
          "internalType": "uint256",
          "name": "_epoch",
          "type": "uint256"
        },
        {
          "components": [
            {
              "internalType": "bytes32",
              "name": "stateRoot",
              "type": "bytes32"
            },
            {
              "internalType": "address",
              "name": "claimer",
              "type": "address"
            },
            {
              "internalType": "uint32",
              "name": "timestampClaimed",
              "type": "uint32"
            },
            {
              "internalType": "uint32",
              "name": "timestampVerification",
              "type": "uint32"
            },
            {
              "internalType": "uint32",
              "name": "blocknumberVerification",
              "type": "uint32"
            },
            {
              "internalType": "enum Party",
              "name": "honest",
              "type": "uint8"
            },
            {
              "internalType": "address",
              "name": "challenger",
              "type": "address"
            }
          ],
          "internalType": "struct Claim",
          "name": "_claim",
          "type": "tuple"
        }
      ],
      "name": "verifySnapshot",
      "outputs": [],
      "stateMutability": "nonpayable",
      "type": "function"
    },
    {
      "inputs": [
        {
          "internalType": "uint256",
          "name": "_epoch",
          "type": "uint256"
        },
        {
          "components": [
            {
              "internalType": "bytes32",
              "name": "stateRoot",
              "type": "bytes32"
            },
            {
              "internalType": "address",
              "name": "claimer",
              "type": "address"
            },
            {
              "internalType": "uint32",
              "name": "timestampClaimed",
              "type": "uint32"
            },
            {
              "internalType": "uint32",
              "name": "timestampVerification",
              "type": "uint32"
            },
            {
              "internalType": "uint32",
              "name": "blocknumberVerification",
              "type": "uint32"
            },
            {
              "internalType": "enum Party",
              "name": "honest",
              "type": "uint8"
            },
            {
              "internalType": "address",
              "name": "challenger",
              "type": "address"
            }
          ],
          "internalType": "struct Claim",
          "name": "_claim",
          "type": "tuple"
        }
      ],
      "name": "withdrawChallengeDeposit",
      "outputs": [],
      "stateMutability": "nonpayable",
      "type": "function"
    },
    {
      "inputs": [
        {
          "internalType": "uint256",
          "name": "_epoch",
          "type": "uint256"
        },
        {
          "components": [
            {
              "internalType": "bytes32",
              "name": "stateRoot",
              "type": "bytes32"
            },
            {
              "internalType": "address",
              "name": "claimer",
              "type": "address"
            },
            {
              "internalType": "uint32",
              "name": "timestampClaimed",
              "type": "uint32"
            },
            {
              "internalType": "uint32",
              "name": "timestampVerification",
              "type": "uint32"
            },
            {
              "internalType": "uint32",
              "name": "blocknumberVerification",
              "type": "uint32"
            },
            {
              "internalType": "enum Party",
              "name": "honest",
              "type": "uint8"
            },
            {
              "internalType": "address",
              "name": "challenger",
              "type": "address"
            }
          ],
          "internalType": "struct Claim",
          "name": "_claim",
          "type": "tuple"
        }
      ],
      "name": "withdrawChallengerEscapeHatch",
      "outputs": [],
      "stateMutability": "nonpayable",
      "type": "function"
    },
    {
      "inputs": [
        {
          "internalType": "uint256",
          "name": "_epoch",
          "type": "uint256"
        },
        {
          "components": [
            {
              "internalType": "bytes32",
              "name": "stateRoot",
              "type": "bytes32"
            },
            {
              "internalType": "address",
              "name": "claimer",
              "type": "address"
            },
            {
              "internalType": "uint32",
              "name": "timestampClaimed",
              "type": "uint32"
            },
            {
              "internalType": "uint32",
              "name": "timestampVerification",
              "type": "uint32"
            },
            {
              "internalType": "uint32",
              "name": "blocknumberVerification",
              "type": "uint32"
            },
            {
              "internalType": "enum Party",
              "name": "honest",
              "type": "uint8"
            },
            {
              "internalType": "address",
              "name": "challenger",
              "type": "address"
            }
          ],
          "internalType": "struct Claim",
          "name": "_claim",
          "type": "tuple"
        }
      ],
      "name": "withdrawClaimDeposit",
      "outputs": [],
      "stateMutability": "nonpayable",
      "type": "function"
    },
    {
      "inputs": [
        {
          "internalType": "uint256",
          "name": "_epoch",
          "type": "uint256"
        },
        {
          "components": [
            {
              "internalType": "bytes32",
              "name": "stateRoot",
              "type": "bytes32"
            },
            {
              "internalType": "address",
              "name": "claimer",
              "type": "address"
            },
            {
              "internalType": "uint32",
              "name": "timestampClaimed",
              "type": "uint32"
            },
            {
              "internalType": "uint32",
              "name": "timestampVerification",
              "type": "uint32"
            },
            {
              "internalType": "uint32",
              "name": "blocknumberVerification",
              "type": "uint32"
            },
            {
              "internalType": "enum Party",
              "name": "honest",
              "type": "uint8"
            },
            {
              "internalType": "address",
              "name": "challenger",
              "type": "address"
            }
          ],
          "internalType": "struct Claim",
          "name": "_claim",
          "type": "tuple"
        }
      ],
      "name": "withdrawClaimerEscapeHatch",
      "outputs": [],
      "stateMutability": "nonpayable",
      "type": "function"
    }
  ],
  "transactionHash": "0x6dd0e4d968d7e0d520d64b49c2b8c62a2718c33e4f58f0e6819dcc84a1ac4075",
  "args": [
    "1000000000000000",
    1800,
    0,
    10000000000000,
    "0x99Ca51a3534785ED619f46A79C7Ad65Fa8d85e7a",
    "0x660daB9A6436A814a6ae3a6f27b309356a4bE78c",
    86400,
    10000000000000,
    5
  ],
  "numDeployments": 11,
  "solcInputHash": "c9836c6cb024801f3104e49f87086294",
  "bytecode": "0x6101c06040523480156200001257600080fd5b506040516200271638038062002716833981016040819052620000359162000117565b6004805460c08b90526101408a90526101808890526101608990526001600160a01b03808816608052861660a0526101a0819052610120839052908490558990899089908990899089908990886200008f60028a620001b0565b60e0819052620000a18a6002620001d3565b620000ad9190620001f3565b6101005261014051600190620000c49042620001b0565b620000d09190620001f3565b6001555050600580546001600160a01b0319163317905550620002099e505050505050505050505050505050565b6001600160a01b03811681146200011457600080fd5b50565b60008060008060008060008060006101208a8c0312156200013757600080fd5b8951985060208a0151975060408a0151965060608a0151955060808a01516200016081620000fe565b60a08b01519095506200017381620000fe565b8094505060c08a0151925060e08a015191506101008a015190509295985092959850929598565b634e487b7160e01b600052601160045260246000fd5b600082620001ce57634e487b7160e01b600052601260045260246000fd5b500490565b8082028115828204841417620001ed57620001ed6200019a565b92915050565b81810381811115620001ed57620001ed6200019a565b60805160a05160c05160e05161010051610120516101405161016051610180516101a0516123b1620003656000396000818161049b0152611d9d0152600081816104cf015281816108a00152818161153c015281816116c70152611b5c0152600081816105570152611d31015260008181610503015281816108c401528181610c550152818161142a01528181611560015281816116eb0152611b800152600081816103ee01528181610a3b01526119c00152600081816111b001526112e901526000818161115d01526112a10152600081816105ab015281816106a1015281816108270152818161085401528181610c980152818161133901528181611831015281816118980152611cc70152600081816105df01528181610b280152611aad0152600081816102240152818161093f015281816109b901528181610a9d015281816118dc0152818161193e0152611a2201526123b16000f3fe6080604052600436106101d85760003560e01c80638d96fdea11610102578063b633b94411610095578063d5e6a9df11610064578063d5e6a9df146105cd578063da2b7bc414610601578063df19e6ff14610621578063eedcf2a91461064e57600080fd5b8063b633b94414610525578063c2114a1614610545578063c299acc414610579578063d0e30db01461059957600080fd5b80639c13b6b5116100d15780639c13b6b514610473578063aa22a1c614610489578063b044397e146104bd578063b5b7a184146104f157600080fd5b80638d96fdea146103dc57806390df63b714610410578063930f28af1461043d5780639588eca21461045d57600080fd5b806331ddf7431161017a5780634a439cfe116101495780634a439cfe1461035c578063541adcca1461037c5780638a619a711461039c5780638ad3a8f7146103bc57600080fd5b806331ddf743146102dc5780633ce43cfd146102fc5780634788cb381461031c57806349b4299e1461033c57600080fd5b8063222ae786116101b6578063222ae786146102635780632639c0601461028657806327ee6bdd146102b357806331d14457146102c957600080fd5b806301139b68146101dd5780630f0adca5146101f25780631062b39a14610212575b600080fd5b6101f06101eb366004611f57565b610661565b005b3480156101fe57600080fd5b506101f061020d366004611f85565b61089e565b34801561021e57600080fd5b506102467f000000000000000000000000000000000000000000000000000000000000000081565b6040516001600160a01b0390911681526020015b60405180910390f35b34801561026f57600080fd5b50610278610c4e565b60405190815260200161025a565b34801561029257600080fd5b506102786102a1366004611fbc565b60026020526000908152604090205481565b3480156102bf57600080fd5b5061027860015481565b6101f06102d7366004611fd5565b610c7f565b3480156102e857600080fd5b506101f06102f7366004612058565b610e06565b34801561030857600080fd5b506101f061031736600461211a565b6110a6565b34801561032857600080fd5b506101f0610337366004611f57565b6111ed565b34801561034857600080fd5b506101f0610357366004611f57565b611371565b34801561036857600080fd5b50610278610377366004611fbc565b611423565b34801561038857600080fd5b50610278610397366004612153565b611455565b3480156103a857600080fd5b506101f06103b7366004612176565b6114a7565b3480156103c857600080fd5b50600554610246906001600160a01b031681565b3480156103e857600080fd5b506102787f000000000000000000000000000000000000000000000000000000000000000081565b34801561041c57600080fd5b5061027861042b366004611fbc565b60036020526000908152604090205481565b34801561044957600080fd5b506101f0610458366004611f57565b61153a565b34801561046957600080fd5b5061027860005481565b34801561047f57600080fd5b5061027860045481565b34801561049557600080fd5b506102787f000000000000000000000000000000000000000000000000000000000000000081565b3480156104c957600080fd5b506102787f000000000000000000000000000000000000000000000000000000000000000081565b3480156104fd57600080fd5b506102787f000000000000000000000000000000000000000000000000000000000000000081565b34801561053157600080fd5b506101f0610540366004611f57565b6116c5565b34801561055157600080fd5b506102787f000000000000000000000000000000000000000000000000000000000000000081565b34801561058557600080fd5b506101f0610594366004611fbc565b6118d1565b3480156105a557600080fd5b506102787f000000000000000000000000000000000000000000000000000000000000000081565b3480156105d957600080fd5b506102467f000000000000000000000000000000000000000000000000000000000000000081565b34801561060d57600080fd5b506101f061061c366004611f57565b611b5a565b34801561062d57600080fd5b5061064161063c366004612153565b611d13565b60405161025a91906121a9565b6101f061065c366004611fd5565b611dda565b61066a81611455565b6000838152600260205260409020541461069f5760405162461bcd60e51b8152600401610696906121c3565b60405180910390fd5b7f000000000000000000000000000000000000000000000000000000000000000034101561070f5760405162461bcd60e51b815260206004820152601f60248201527f496e73756666696369656e74206368616c6c656e6765206465706f7369742e006044820152606401610696565b60c08101516001600160a01b03161561076a5760405162461bcd60e51b815260206004820152601960248201527f436c61696d20616c7265616479206368616c6c656e6765642e000000000000006044820152606401610696565b60008160a00151600281111561078257610782612193565b146107cf5760405162461bcd60e51b815260206004820152601760248201527f436c61696d20616c72656164792076657269666965642e0000000000000000006044820152606401610696565b3360c08201526107de81611455565b600083815260026020908152604091829020929092555183815233917fcfe09ca25f55d949baba5e280f5750c9ba4b9048fca5532f916067d433afe4d7910160405180910390a27f000000000000000000000000000000000000000000000000000000000000000034111561089a5760006108797f0000000000000000000000000000000000000000000000000000000000000000346121eb565b604051909150339082156108fc029083906000818181858888f15050505050505b5050565b7f00000000000000000000000000000000000000000000000000000000000000006001547f000000000000000000000000000000000000000000000000000000000000000042816108f1576108f161220c565b040311156109345760405162461bcd60e51b815260206004820152601060248201526f213934b233b29029b43aba3237bbb71760811b6044820152606401610696565b336001600160a01b037f000000000000000000000000000000000000000000000000000000000000000016146109b75760405162461bcd60e51b815260206004820152602260248201527f4e6f742066726f6d206e617469766520476e6f73697320414d42206272696467604482015261329760f11b6064820152608401610696565b7f00000000000000000000000000000000000000000000000000000000000000006001600160a01b0316639e307dff6040518163ffffffff1660e01b8152600401602060405180830381865afa158015610a15573d6000803e3d6000fd5b505050506040513d601f19601f82011682018060405250810190610a399190612222565b7f000000000000000000000000000000000000000000000000000000000000000014610a9b5760405162461bcd60e51b815260206004820152601160248201527024b73b30b634b21031b430b4b71034b21760791b6044820152606401610696565b7f00000000000000000000000000000000000000000000000000000000000000006001600160a01b031663d67bdd256040518163ffffffff1660e01b8152600401602060405180830381865afa158015610af9573d6000803e3d6000fd5b505050506040513d601f19601f82011682018060405250810190610b1d919061223b565b6001600160a01b03167f00000000000000000000000000000000000000000000000000000000000000006001600160a01b031614610b905760405162461bcd60e51b815260206004820152601060248201526f2737ba10333937b6903937baba32b91760811b6044820152606401610696565b60015483118015610ba057508115155b15610be357600183905560008290556040518381527ff786e7f77ede00a02a5464f8f0555798f42ba99a4a920ef2778db8d75e4656f79060200160405180910390a15b610bec81611455565b60008481526002602052604090205403610c49578051829003610c1557600160a0820152610c30565b60c08101516001600160a01b031615610c3057600260a08201525b610c3981611455565b6000848152600260205260409020555b505050565b6000610c7a7f000000000000000000000000000000000000000000000000000000000000000042612258565b905090565b6005546001600160a01b03163314610c9657600080fd5b7f0000000000000000000000000000000000000000000000000000000000000000341015610d065760405162461bcd60e51b815260206004820152601b60248201527f496e73756666696369656e7420636c61696d206465706f7369742e00000000006044820152606401610696565b80610d235760405162461bcd60e51b8152600401610696906121c3565b60008281526002602052604090205415610d755760405162461bcd60e51b815260206004820152601360248201527221b630b4b69030b63932b0b23c9036b0b2329760691b6044820152606401610696565b6040805160e0810182528281523360208201524263ffffffff16918101919091526000606082018190526080820181905260a0820181905260c0820152610dbb90611455565b600083815260026020908152604091829020929092555182815233917f91d697238e9aa9f3172d17522c9be529b94a892481554e1ea619369b5b12f39a910160405180910390a25050565b60408510610e485760405162461bcd60e51b815260206004820152600f60248201526e283937b7b3103a37b7903637b7339760891b6044820152606401610696565b600084848484604051602001610e61949392919061227a565b604051602081830303815290604052805190602001209050806000526020600020905060005b86811015610ee1576000888883818110610ea357610ea36122bc565b90506020020135905082811115610ec857826000528060205260406000209250610ed8565b8060005282602052604060002092505b50600101610e87565b508060005414610f245760405162461bcd60e51b815260206004820152600e60248201526d24b73b30b634b210383937b7b31760911b6044820152606401610696565b600885901c66ffffffffffffff1660008181526003602052604090205460ff87169080821c60011615610f995760405162461bcd60e51b815260206004820152601760248201527f4d65737361676520616c72656164792072656c617965640000000000000000006044820152606401610696565b6000838152600360205260408082206001851b84179055516001600160a01b03891690610fc990899089906122d2565b6000604051808303816000865af19150503d8060008114611006576040519150601f19603f3d011682016040523d82523d6000602084013e61100b565b606091505b505090508061105c5760405162461bcd60e51b815260206004820152601760248201527f4661696c656420746f2063616c6c20636f6e74726163740000000000000000006044820152606401610696565b60405167ffffffffffffffff8a1681527f54303fab361bc52c2f1f56ace7351189582264f74ce47a6e7c3f478d64c429439060200160405180910390a15050505050505050505050565b6110b861039736839003830183612153565b600083815260026020526040902054146110e45760405162461bcd60e51b8152600401610696906121c3565b60026110f660c0830160a084016122e2565b600281111561110757611107612193565b146111485760405162461bcd60e51b815260206004820152601160248201527021b430b63632b733b2903330b4b632b21760791b6044820152606401610696565b600082815260026020526040808220829055517f000000000000000000000000000000000000000000000000000000000000000080156108fc029183818181858288f1506111a293505060e0840191505060c08301612176565b6001600160a01b03166108fc7f00000000000000000000000000000000000000000000000000000000000000009081150290604051600060405180830381858888f150505050505050565b6111f681611455565b600083815260026020526040902054146112225760405162461bcd60e51b8152600401610696906121c3565b60018160a00151600281111561123a5761123a612193565b146112775760405162461bcd60e51b815260206004820152600d60248201526c21b630b4b6903330b4b632b21760991b6044820152606401610696565b60008281526002602052604081205560c08101516001600160a01b031615611323576040516000907f000000000000000000000000000000000000000000000000000000000000000080156108fc029183818181858288f150505060208301516040516001600160a01b0390911692507f000000000000000000000000000000000000000000000000000000000000000080156108fc029250906000818181858888f150505050505050565b60208101516040516001600160a01b03909116907f000000000000000000000000000000000000000000000000000000000000000080156108fc02916000818181858888f150505050505050565b6005546001600160a01b0316331461138857600080fd5b61139181611455565b600083815260026020526040902054146113bd5760405162461bcd60e51b8152600401610696906121c3565b63ffffffff4281166060830152431660808201526113da81611455565b60008381526002602090815260409182902092909255518381527f37b700b61b9b4710dddb0c3316b2be7ef6088ed4b1d7bfe0fb98be8f9a163e16910160405180910390a15050565b600061144f7f000000000000000000000000000000000000000000000000000000000000000083612258565b92915050565b80516020808301516040808501516060860151608087015160a088015160c0890151945160009861148a9890979691016122fd565b604051602081830303815290604052805190602001209050919050565b6005546001600160a01b031633146114be57600080fd5b6005546001600160a01b031633146115185760405162461bcd60e51b815260206004820152601860248201527f496e76616c696420546573746e6574204f70657261746f7200000000000000006044820152606401610696565b600580546001600160a01b0319166001600160a01b0392909216919091179055565b7f00000000000000000000000000000000000000000000000000000000000000006001547f0000000000000000000000000000000000000000000000000000000000000000428161158d5761158d61220c565b040311156115d05760405162461bcd60e51b815260206004820152601060248201526f213934b233b29029b43aba3237bbb71760811b6044820152606401610696565b6115d981611455565b600083815260026020526040902054146116055760405162461bcd60e51b8152600401610696906121c3565b60c08101516001600160a01b0316156116575760405162461bcd60e51b815260206004820152601460248201527321b630b4b69034b99031b430b63632b733b2b21760611b6044820152606401610696565b60015482111561169f57600182905580516000556040518281527ff786e7f77ede00a02a5464f8f0555798f42ba99a4a920ef2778db8d75e4656f79060200160405180910390a15b600160a08201526116af81611455565b6000928352600260205260409092209190915550565b7f00000000000000000000000000000000000000000000000000000000000000006001547f000000000000000000000000000000000000000000000000000000000000000042816117185761171861220c565b0403116117595760405162461bcd60e51b815260206004820152600f60248201526e213934b233b290293ab73734b7339760891b6044820152606401610696565b61176281611455565b6000838152600260205260409020541461178e5760405162461bcd60e51b8152600401610696906121c3565b60008160a0015160028111156117a6576117a6612193565b146117e55760405162461bcd60e51b815260206004820152600f60248201526e21b630b4b6903932b9b7b63b32b21760891b6044820152606401610696565b60c08101516001600160a01b03161561089a5760208101516001600160a01b03166118695760008281526002602052604080822082905560c083015190516001600160a01b03909116917f000000000000000000000000000000000000000000000000000000000000000080156108fc02929091818181858888f150505050505050565b60c081018051600090915261187d82611455565b50600083815260026020526040516001600160a01b038316917f000000000000000000000000000000000000000000000000000000000000000080156108fc02929091818181858888f15050505050505050565b336001600160a01b037f0000000000000000000000000000000000000000000000000000000000000000161461193c5760405162461bcd60e51b815260206004820152601060248201526f2737ba10333937b690313934b233b29760811b6044820152606401610696565b7f00000000000000000000000000000000000000000000000000000000000000006001600160a01b0316639e307dff6040518163ffffffff1660e01b8152600401602060405180830381865afa15801561199a573d6000803e3d6000fd5b505050506040513d601f19601f820116820180604052508101906119be9190612222565b7f000000000000000000000000000000000000000000000000000000000000000014611a205760405162461bcd60e51b815260206004820152601160248201527024b73b30b634b21031b430b4b71034b21760791b6044820152606401610696565b7f00000000000000000000000000000000000000000000000000000000000000006001600160a01b031663d67bdd256040518163ffffffff1660e01b8152600401602060405180830381865afa158015611a7e573d6000803e3d6000fd5b505050506040513d601f19601f82011682018060405250810190611aa2919061223b565b6001600160a01b03167f00000000000000000000000000000000000000000000000000000000000000006001600160a01b031614611b155760405162461bcd60e51b815260206004820152601060248201526f2737ba10333937b6903937baba32b91760811b6044820152606401610696565b8060045414611b575760048190556040518181527fe5c620413c3d944fbd314ecc2375b9bdcc721589711a4348d9ecaf966160fa389060200160405180910390a15b50565b7f00000000000000000000000000000000000000000000000000000000000000006001547f00000000000000000000000000000000000000000000000000000000000000004281611bad57611bad61220c565b040311611bee5760405162461bcd60e51b815260206004820152600f60248201526e213934b233b290293ab73734b7339760891b6044820152606401610696565b611bf781611455565b60008381526002602052604090205414611c235760405162461bcd60e51b8152600401610696906121c3565b60008160a001516002811115611c3b57611c3b612193565b14611c7a5760405162461bcd60e51b815260206004820152600f60248201526e21b630b4b6903932b9b7b63b32b21760891b6044820152606401610696565b60208101516001600160a01b03161561089a5760c08101516001600160a01b0316611cff5760008281526002602090815260408083208390559083015190516001600160a01b03909116917f000000000000000000000000000000000000000000000000000000000000000080156108fc02929091818181858888f150505050505050565b602081018051600090915261187d82611455565b6000816060015163ffffffff16600003611d2f57506002919050565b7f0000000000000000000000000000000000000000000000000000000000000000826060015163ffffffff1642031015611d6b57506003919050565b60006005836060015163ffffffff16420381611d8957611d8961220c565b608085015163ffffffff16919004019050437f000000000000000000000000000000000000000000000000000000000000000081830311611dcd5760019250611dd2565b600092505b50505b919050565b611de48282610c7f565b6040805160e0810182528281523360208201524263ffffffff16918101919091526000606082018190526080820181905260a0820181905260c0820152611e2b8382611371565b63ffffffff428116606083015243166080820152611e49838261153a565b600160a0820152610c4983826111ed565b6001600160a01b0381168114611b5757600080fd5b8035611dd581611e5a565b803563ffffffff81168114611dd557600080fd5b803560038110611dd557600080fd5b600060e08284031215611eaf57600080fd5b60405160e0810181811067ffffffffffffffff82111715611ee057634e487b7160e01b600052604160045260246000fd5b60405282358152905080611ef660208401611e6f565b6020820152611f0760408401611e7a565b6040820152611f1860608401611e7a565b6060820152611f2960808401611e7a565b6080820152611f3a60a08401611e8e565b60a0820152611f4b60c08401611e6f565b60c08201525092915050565b6000806101008385031215611f6b57600080fd5b82359150611f7c8460208501611e9d565b90509250929050565b60008060006101208486031215611f9b57600080fd5b8335925060208401359150611fb38560408601611e9d565b90509250925092565b600060208284031215611fce57600080fd5b5035919050565b60008060408385031215611fe857600080fd5b50508035926020909101359150565b803567ffffffffffffffff81168114611dd557600080fd5b60008083601f84011261202157600080fd5b50813567ffffffffffffffff81111561203957600080fd5b60208301915083602082850101111561205157600080fd5b9250929050565b6000806000806000806080878903121561207157600080fd5b863567ffffffffffffffff8082111561208957600080fd5b818901915089601f83011261209d57600080fd5b8135818111156120ac57600080fd5b8a60208260051b85010111156120c157600080fd5b602083019850809750506120d760208a01611ff7565b95506120e560408a01611e6f565b945060608901359150808211156120fb57600080fd5b5061210889828a0161200f565b979a9699509497509295939492505050565b60008082840361010081121561212f57600080fd5b8335925060e0601f198201121561214557600080fd5b506020830190509250929050565b600060e0828403121561216557600080fd5b61216f8383611e9d565b9392505050565b60006020828403121561218857600080fd5b813561216f81611e5a565b634e487b7160e01b600052602160045260246000fd5b60208101600483106121bd576121bd612193565b91905290565b6020808252600e908201526d24b73b30b634b21031b630b4b69760911b604082015260600190565b8181038181111561144f57634e487b7160e01b600052601160045260246000fd5b634e487b7160e01b600052601260045260246000fd5b60006020828403121561223457600080fd5b5051919050565b60006020828403121561224d57600080fd5b815161216f81611e5a565b60008261227557634e487b7160e01b600052601260045260246000fd5b500490565b60c085901b6001600160c01b0319168152606084901b6bffffffffffffffffffffffff191660088201528183601c83013760009101601c019081529392505050565b634e487b7160e01b600052603260045260246000fd5b8183823760009101908152919050565b6000602082840312156122f457600080fd5b61216f82611e8e565b87815260006bffffffffffffffffffffffff19808960601b16602084015263ffffffff60e01b808960e01b166034850152808860e01b166038850152808760e01b16603c850152506003851061235557612355612193565b60f89490941b60408301525060609190911b90911660418201526055019594505050505056fea26469706673582212205d5e24960772c5c18cf100203c59608aa6d0ec9dc0ae35a14fdaa806ed13c60364736f6c63430008120033",
  "devdoc": {
    "details": "Vea Outbox From ArbitrumGoerli to Chiado. Note: This contract is deployed on Chiado. Note: This contract is permissioned for developer testing (devnet).",
    "events": {
      "Challenged(uint256,address)": {
        "details": "This event indicates that `sendSnapshot(epoch)` should be called in the inbox.",
        "params": {
          "_challenger": "The address of the challenger.",
          "_epoch": "The epoch associated with the challenged claim."
        }
      },
      "Claimed(address,bytes32)": {
        "details": "Watchers check this event to challenge fraud.",
        "params": {
          "_claimer": "The address of the claimer.",
          "_stateRoot": "The state root of the claim."
        }
      },
      "MessageRelayed(uint64)": {
        "details": "This event indicates that a message has been relayed.",
        "params": {
          "_msgId": "The msgId of the message that was relayed."
        }
      },
      "SequencerLimitUpdateReceived(uint256)": {
        "details": "This event indicates the sequencer limit updated.",
        "params": {
          "_newSequencerLimit": "The new maxL2StateSyncDelay."
        }
      },
      "VerificationStarted(uint256)": {
        "details": "This event indicates that the censorship test started and all challengers are ready even in the worst case scenario of a malicious sequencer.",
        "params": {
          "_epoch": "The epoch that started verification."
        }
      },
      "Verified(uint256)": {
        "details": "This events indicates that verification has succeeded. The messages are ready to be relayed.",
        "params": {
          "_epoch": "The epoch that was verified."
        }
      }
    },
    "kind": "dev",
    "methods": {
      "censorshipTestStatus((bytes32,address,uint32,uint32,uint32,uint8,address))": {
        "details": "Gets the status of the censorship test for claim.",
        "params": {
          "_claim": "The claim to test."
        },
        "returns": {
          "status": "True if the claim passed the censorship test."
        }
      },
      "challenge(uint256,(bytes32,address,uint32,uint32,uint32,uint8,address))": {
        "details": "Submit a challenge for the claim of the inbox state root snapshot taken at 'epoch'.",
        "params": {
          "_claim": "The claim associated with the epoch.",
          "_epoch": "The epoch of the claim to challenge."
        }
      },
      "changeDevnetOperator(address)": {
        "details": "Changes the devnet operator.",
        "params": {
          "_devnetOperator": "The new testnet operator."
        }
      },
      "claim(uint256,bytes32)": {
        "details": "Submit a claim about the _stateRoot at _epoch and submit a deposit.",
        "params": {
          "_epoch": "The epoch for which the claim is made.",
          "_stateRoot": "The state root to claim."
        }
      },
      "constructor": {
        "details": "Constructor.",
        "params": {
          "_amb": "The address of the AMB contract on Gnosis.",
          "_challengePeriod": "The duration of the period allowing to challenge a claim.",
          "_deposit": "The deposit amount to submit a claim in wei.",
          "_epochPeriod": "The duration of each epoch.",
          "_maxMissingBlocks": "The maximum number of blocks that can be missing in a challenge period.",
          "_routerArbToGnosisDevnet": "The address of the router contract on Goerli routing from ArbitrumGoerli to Chiado.",
          "_routerChainId": "The chain id of the router contract.",
          "_sequencerLimit": "The maximum number of sequencer messages that can be submitted in a challenge period.",
          "_timeoutEpochs": "The epochs before the bridge is considered shutdown."
        }
      },
      "devnetAdvanceState(uint256,bytes32)": {
        "details": "Testnet operator utility function to claim, validate and withdraw.",
        "params": {
          "_epoch": "The epoch for which the claim is made.",
          "_stateroot": "The state root to claim."
        }
      },
      "epochAt(uint256)": {
        "details": "Get the current epoch from the outbox's point of view using the Ethereum L1 clock.",
        "returns": {
          "epoch": "The hash of the claim."
        }
      },
      "epochNow()": {
        "details": "Get the current epoch from the outbox's point of view using the Ethereum L1 clock.",
        "returns": {
          "epoch": "The hash of the claim."
        }
      },
      "hashClaim((bytes32,address,uint32,uint32,uint32,uint8,address))": {
        "details": "Hashes the claim.",
        "params": {
          "_claim": "The claim to hash."
        },
        "returns": {
          "hashedClaim": "The hash of the claim."
        }
      },
      "resolveDisputedClaim(uint256,bytes32,(bytes32,address,uint32,uint32,uint32,uint8,address))": {
        "details": "Resolves any challenge of the optimistic claim for '_epoch'.",
        "params": {
          "_claim": "The claim associated with the epoch.",
          "_epoch": "The epoch to verify.",
          "_stateRoot": "The true state root for the epoch."
        }
      },
      "sendMessage(bytes32[],uint64,address,bytes)": {
        "details": "Verifies and relays the message. UNTRUSTED.",
        "params": {
          "_message": "The message encoded in the vea inbox as abi.encodeWithSelector(fnSelector, msg.sender, param1, param2, ...)",
          "_msgId": "The zero based index of the message in the inbox.",
          "_proof": "The merkle proof to prove the message inclusion in the inbox state root.",
          "_to": "The address of the contract on Gnosis to call."
        }
      },
      "startVerification(uint256,(bytes32,address,uint32,uint32,uint32,uint8,address))": {
        "details": "Start verification for claim for 'epoch'.",
        "params": {
          "_claim": "The claim associated with the epoch.",
          "_epoch": "The epoch of the claim to challenge."
        }
      },
      "updateSequencerLimit(uint256)": {
        "details": "Set the maxL2StateSyncDelay by reading from the Arbitrum Bridge",
        "params": {
          "_newSequencerLimit": "The delaySeconds from the MaxTimeVariation struct in the Arbitrum Sequencer contract."
        }
      },
      "verifySnapshot(uint256,(bytes32,address,uint32,uint32,uint32,uint8,address))": {
        "details": "Resolves the optimistic claim for '_epoch'.",
        "params": {
          "_claim": "The claim associated with the epoch.",
          "_epoch": "The epoch of the optimistic claim."
        }
      },
      "withdrawChallengeDeposit(uint256,(bytes32,address,uint32,uint32,uint32,uint8,address))": {
        "details": "Sends the deposit back to the Challenger if successful. Includes a portion of the Bridger's deposit.",
        "params": {
          "_claim": "The claim associated with the epoch.",
          "_epoch": "The epoch associated with the challenge deposit to withraw."
        }
      },
      "withdrawChallengerEscapeHatch(uint256,(bytes32,address,uint32,uint32,uint32,uint8,address))": {
        "details": "When bridge is shutdown, no claim disputes can be resolved. This allows the challenger to withdraw their deposit.",
        "params": {
          "_claim": "The claim associated with the epoch.",
          "_epoch": "The epoch associated with the claim deposit to withraw."
        }
      },
      "withdrawClaimDeposit(uint256,(bytes32,address,uint32,uint32,uint32,uint8,address))": {
        "details": "Sends the deposit back to the Bridger if their claim is not successfully challenged. Includes a portion of the Challenger's deposit if unsuccessfully challenged.",
        "params": {
          "_claim": "The claim associated with the epoch.",
          "_epoch": "The epoch associated with the claim deposit to withraw."
        }
      },
      "withdrawClaimerEscapeHatch(uint256,(bytes32,address,uint32,uint32,uint32,uint8,address))": {
        "details": "When bridge is shutdown, no claim disputes can be resolved. This allows the claimer to withdraw their deposit.",
        "params": {
          "_claim": "The claim associated with the epoch.",
          "_epoch": "The epoch associated with the claim deposit to withraw."
        }
      }
    },
    "version": 1
  },
  "userdoc": {
    "kind": "user",
    "methods": {
      "resolveDisputedClaim(uint256,bytes32,(bytes32,address,uint32,uint32,uint32,uint8,address))": {
        "notice": "Note: Access restricted to AMB."
      }
    },
    "version": 1
  },
  "storageLayout": {
    "storage": [
      {
        "astId": 2556,
        "contract": "src/devnets/arbitrumToGnosis/VeaOutboxArbToGnosisDevnet.sol:VeaOutboxArbToGnosisDevnet",
        "label": "stateRoot",
        "offset": 0,
        "slot": "0",
        "type": "t_bytes32"
      },
      {
        "astId": 2558,
        "contract": "src/devnets/arbitrumToGnosis/VeaOutboxArbToGnosisDevnet.sol:VeaOutboxArbToGnosisDevnet",
        "label": "latestVerifiedEpoch",
        "offset": 0,
        "slot": "1",
        "type": "t_uint256"
      },
      {
        "astId": 2562,
        "contract": "src/devnets/arbitrumToGnosis/VeaOutboxArbToGnosisDevnet.sol:VeaOutboxArbToGnosisDevnet",
        "label": "claimHashes",
        "offset": 0,
        "slot": "2",
        "type": "t_mapping(t_uint256,t_bytes32)"
      },
      {
        "astId": 2566,
        "contract": "src/devnets/arbitrumToGnosis/VeaOutboxArbToGnosisDevnet.sol:VeaOutboxArbToGnosisDevnet",
        "label": "relayed",
        "offset": 0,
        "slot": "3",
        "type": "t_mapping(t_uint256,t_bytes32)"
      },
      {
        "astId": 2568,
        "contract": "src/devnets/arbitrumToGnosis/VeaOutboxArbToGnosisDevnet.sol:VeaOutboxArbToGnosisDevnet",
        "label": "sequencerLimit",
        "offset": 0,
        "slot": "4",
        "type": "t_uint256"
      },
      {
        "astId": 4440,
        "contract": "src/devnets/arbitrumToGnosis/VeaOutboxArbToGnosisDevnet.sol:VeaOutboxArbToGnosisDevnet",
        "label": "devnetOperator",
        "offset": 0,
        "slot": "5",
        "type": "t_address"
      }
    ],
    "types": {
      "t_address": {
        "encoding": "inplace",
        "label": "address",
        "numberOfBytes": "20"
      },
      "t_bytes32": {
        "encoding": "inplace",
        "label": "bytes32",
        "numberOfBytes": "32"
      },
      "t_mapping(t_uint256,t_bytes32)": {
        "encoding": "mapping",
        "key": "t_uint256",
        "label": "mapping(uint256 => bytes32)",
        "numberOfBytes": "32",
        "value": "t_bytes32"
      },
      "t_uint256": {
        "encoding": "inplace",
        "label": "uint256",
        "numberOfBytes": "32"
      }
    }
  }
}