{
  "address": "0xb0263478A46d885D715B01fbac745500B9576634",
  "abi": [
    {
      "inputs": [
        {
          "internalType": "uint256",
          "name": "_deposit",
          "type": "uint256"
        },
        {
          "internalType": "uint256",
          "name": "_epochPeriod",
          "type": "uint256"
        },
        {
          "internalType": "uint256",
          "name": "_minChallengePeriod",
          "type": "uint256"
        },
        {
          "internalType": "uint256",
          "name": "_timeoutEpochs",
          "type": "uint256"
        },
        {
          "internalType": "contract IAMB",
          "name": "_amb",
          "type": "address"
        },
        {
          "internalType": "address",
          "name": "_routerArbToGnosis",
          "type": "address"
        },
        {
          "internalType": "uint256",
          "name": "_sequencerDelayLimit",
          "type": "uint256"
        },
        {
          "internalType": "uint256",
          "name": "_maxMissingBlocks",
          "type": "uint256"
        },
        {
          "internalType": "uint256",
          "name": "_routerChainId",
          "type": "uint256"
        },
        {
          "internalType": "contract IWETH",
          "name": "_weth",
          "type": "address"
        }
      ],
      "stateMutability": "nonpayable",
      "type": "constructor"
    },
    {
      "anonymous": false,
      "inputs": [
        {
          "indexed": false,
          "internalType": "uint256",
          "name": "_epoch",
          "type": "uint256"
        },
        {
          "indexed": true,
          "internalType": "address",
          "name": "_challenger",
          "type": "address"
        }
      ],
      "name": "Challenged",
      "type": "event"
    },
    {
      "anonymous": false,
      "inputs": [
        {
          "indexed": true,
          "internalType": "address",
          "name": "_claimer",
          "type": "address"
        },
        {
          "indexed": true,
          "internalType": "uint256",
          "name": "_epoch",
          "type": "uint256"
        },
        {
          "indexed": false,
          "internalType": "bytes32",
          "name": "_stateRoot",
          "type": "bytes32"
        }
      ],
      "name": "Claimed",
      "type": "event"
    },
    {
      "anonymous": false,
      "inputs": [
        {
          "indexed": false,
          "internalType": "uint64",
          "name": "_msgId",
          "type": "uint64"
        }
      ],
      "name": "MessageRelayed",
      "type": "event"
    },
    {
      "anonymous": false,
      "inputs": [
        {
          "indexed": false,
          "internalType": "uint256",
          "name": "_epoch",
          "type": "uint256"
        }
      ],
      "name": "VerificationStarted",
      "type": "event"
    },
    {
      "anonymous": false,
      "inputs": [
        {
          "indexed": false,
          "internalType": "uint256",
          "name": "_epoch",
          "type": "uint256"
        }
      ],
      "name": "Verified",
      "type": "event"
    },
    {
      "anonymous": false,
      "inputs": [
        {
          "indexed": false,
          "internalType": "uint256",
          "name": "_newSequencerDelayLimit",
          "type": "uint256"
        }
      ],
      "name": "sequencerDelayLimitUpdateReceived",
      "type": "event"
    },
    {
      "inputs": [],
      "name": "amb",
      "outputs": [
        {
          "internalType": "contract IAMB",
          "name": "",
          "type": "address"
        }
      ],
      "stateMutability": "view",
      "type": "function"
    },
    {
      "inputs": [],
      "name": "burn",
      "outputs": [
        {
          "internalType": "uint256",
          "name": "",
          "type": "uint256"
        }
      ],
      "stateMutability": "view",
      "type": "function"
    },
    {
      "inputs": [
        {
          "components": [
            {
              "internalType": "bytes32",
              "name": "stateRoot",
              "type": "bytes32"
            },
            {
              "internalType": "address",
              "name": "claimer",
              "type": "address"
            },
            {
              "internalType": "uint32",
              "name": "timestampClaimed",
              "type": "uint32"
            },
            {
              "internalType": "uint32",
              "name": "timestampVerification",
              "type": "uint32"
            },
            {
              "internalType": "uint32",
              "name": "blocknumberVerification",
              "type": "uint32"
            },
            {
              "internalType": "enum Party",
              "name": "honest",
              "type": "uint8"
            },
            {
              "internalType": "address",
              "name": "challenger",
              "type": "address"
            }
          ],
          "internalType": "struct Claim",
          "name": "_claim",
          "type": "tuple"
        }
      ],
      "name": "censorshipTestStatus",
      "outputs": [
        {
          "internalType": "enum VeaOutboxArbToGnosis.CensorshipTestStatus",
          "name": "status",
          "type": "uint8"
        }
      ],
      "stateMutability": "view",
      "type": "function"
    },
    {
      "inputs": [
        {
          "internalType": "uint256",
          "name": "_epoch",
          "type": "uint256"
        },
        {
          "components": [
            {
              "internalType": "bytes32",
              "name": "stateRoot",
              "type": "bytes32"
            },
            {
              "internalType": "address",
              "name": "claimer",
              "type": "address"
            },
            {
              "internalType": "uint32",
              "name": "timestampClaimed",
              "type": "uint32"
            },
            {
              "internalType": "uint32",
              "name": "timestampVerification",
              "type": "uint32"
            },
            {
              "internalType": "uint32",
              "name": "blocknumberVerification",
              "type": "uint32"
            },
            {
              "internalType": "enum Party",
              "name": "honest",
              "type": "uint8"
            },
            {
              "internalType": "address",
              "name": "challenger",
              "type": "address"
            }
          ],
          "internalType": "struct Claim",
          "name": "_claim",
          "type": "tuple"
        }
      ],
      "name": "challenge",
      "outputs": [],
      "stateMutability": "payable",
      "type": "function"
    },
    {
      "inputs": [
        {
          "internalType": "address",
          "name": "_devnetOperator",
          "type": "address"
        }
      ],
      "name": "changeDevnetOperator",
      "outputs": [],
      "stateMutability": "nonpayable",
      "type": "function"
    },
    {
      "inputs": [
        {
          "internalType": "uint256",
          "name": "_epoch",
          "type": "uint256"
        },
        {
          "internalType": "bytes32",
          "name": "_stateRoot",
          "type": "bytes32"
        }
      ],
      "name": "claim",
      "outputs": [],
      "stateMutability": "nonpayable",
      "type": "function"
    },
    {
      "inputs": [
        {
          "internalType": "uint256",
          "name": "",
          "type": "uint256"
        }
      ],
      "name": "claimHashes",
      "outputs": [
        {
          "internalType": "bytes32",
          "name": "",
          "type": "bytes32"
        }
      ],
      "stateMutability": "view",
      "type": "function"
    },
    {
      "inputs": [],
      "name": "deposit",
      "outputs": [
        {
          "internalType": "uint256",
          "name": "",
          "type": "uint256"
        }
      ],
      "stateMutability": "view",
      "type": "function"
    },
    {
      "inputs": [],
      "name": "depositPlusReward",
      "outputs": [
        {
          "internalType": "uint256",
          "name": "",
          "type": "uint256"
        }
      ],
      "stateMutability": "view",
      "type": "function"
    },
    {
      "inputs": [
        {
          "internalType": "uint256",
          "name": "_epoch",
          "type": "uint256"
        },
        {
          "internalType": "bytes32",
          "name": "_stateroot",
          "type": "bytes32"
        }
      ],
      "name": "devnetAdvanceState",
      "outputs": [],
      "stateMutability": "payable",
      "type": "function"
    },
    {
      "inputs": [],
      "name": "devnetOperator",
      "outputs": [
        {
          "internalType": "address",
          "name": "",
          "type": "address"
        }
      ],
      "stateMutability": "view",
      "type": "function"
    },
    {
      "inputs": [
        {
          "internalType": "uint256",
          "name": "timestamp",
          "type": "uint256"
        }
      ],
      "name": "epochAt",
      "outputs": [
        {
          "internalType": "uint256",
          "name": "epoch",
          "type": "uint256"
        }
      ],
      "stateMutability": "view",
      "type": "function"
    },
    {
      "inputs": [],
      "name": "epochNow",
      "outputs": [
        {
          "internalType": "uint256",
          "name": "epoch",
          "type": "uint256"
        }
      ],
      "stateMutability": "view",
      "type": "function"
    },
    {
      "inputs": [],
      "name": "epochPeriod",
      "outputs": [
        {
          "internalType": "uint256",
          "name": "",
          "type": "uint256"
        }
      ],
      "stateMutability": "view",
      "type": "function"
    },
    {
      "inputs": [
        {
          "components": [
            {
              "internalType": "bytes32",
              "name": "stateRoot",
              "type": "bytes32"
            },
            {
              "internalType": "address",
              "name": "claimer",
              "type": "address"
            },
            {
              "internalType": "uint32",
              "name": "timestampClaimed",
              "type": "uint32"
            },
            {
              "internalType": "uint32",
              "name": "timestampVerification",
              "type": "uint32"
            },
            {
              "internalType": "uint32",
              "name": "blocknumberVerification",
              "type": "uint32"
            },
            {
              "internalType": "enum Party",
              "name": "honest",
              "type": "uint8"
            },
            {
              "internalType": "address",
              "name": "challenger",
              "type": "address"
            }
          ],
          "internalType": "struct Claim",
          "name": "_claim",
          "type": "tuple"
        }
      ],
      "name": "hashClaim",
      "outputs": [
        {
          "internalType": "bytes32",
          "name": "hashedClaim",
          "type": "bytes32"
        }
      ],
      "stateMutability": "pure",
      "type": "function"
    },
    {
      "inputs": [
        {
          "internalType": "uint256",
          "name": "_msgId",
          "type": "uint256"
        }
      ],
      "name": "isMsgRelayed",
      "outputs": [
        {
          "internalType": "bool",
          "name": "isRelayed",
          "type": "bool"
        }
      ],
      "stateMutability": "view",
      "type": "function"
    },
    {
      "inputs": [],
      "name": "latestVerifiedEpoch",
      "outputs": [
        {
          "internalType": "uint256",
          "name": "",
          "type": "uint256"
        }
      ],
      "stateMutability": "view",
      "type": "function"
    },
    {
      "inputs": [],
      "name": "maxMissingBlocks",
      "outputs": [
        {
          "internalType": "uint256",
          "name": "",
          "type": "uint256"
        }
      ],
      "stateMutability": "view",
      "type": "function"
    },
    {
      "inputs": [],
      "name": "minChallengePeriod",
      "outputs": [
        {
          "internalType": "uint256",
          "name": "",
          "type": "uint256"
        }
      ],
      "stateMutability": "view",
      "type": "function"
    },
    {
      "inputs": [
        {
          "internalType": "uint256",
          "name": "_epoch",
          "type": "uint256"
        },
        {
          "internalType": "bytes32",
          "name": "_stateRoot",
          "type": "bytes32"
        },
        {
          "components": [
            {
              "internalType": "bytes32",
              "name": "stateRoot",
              "type": "bytes32"
            },
            {
              "internalType": "address",
              "name": "claimer",
              "type": "address"
            },
            {
              "internalType": "uint32",
              "name": "timestampClaimed",
              "type": "uint32"
            },
            {
              "internalType": "uint32",
              "name": "timestampVerification",
              "type": "uint32"
            },
            {
              "internalType": "uint32",
              "name": "blocknumberVerification",
              "type": "uint32"
            },
            {
              "internalType": "enum Party",
              "name": "honest",
              "type": "uint8"
            },
            {
              "internalType": "address",
              "name": "challenger",
              "type": "address"
            }
          ],
          "internalType": "struct Claim",
          "name": "_claim",
          "type": "tuple"
        }
      ],
      "name": "resolveDisputedClaim",
      "outputs": [],
      "stateMutability": "nonpayable",
      "type": "function"
    },
    {
      "inputs": [],
      "name": "routerArbToGnosis",
      "outputs": [
        {
          "internalType": "address",
          "name": "",
          "type": "address"
        }
      ],
      "stateMutability": "view",
      "type": "function"
    },
    {
      "inputs": [],
      "name": "routerChainId",
      "outputs": [
        {
          "internalType": "uint256",
          "name": "",
          "type": "uint256"
        }
      ],
      "stateMutability": "view",
      "type": "function"
    },
    {
      "inputs": [
        {
          "internalType": "bytes32[]",
          "name": "_proof",
          "type": "bytes32[]"
        },
        {
          "internalType": "uint64",
          "name": "_msgId",
          "type": "uint64"
        },
        {
          "internalType": "address",
          "name": "_to",
          "type": "address"
        },
        {
          "internalType": "bytes",
          "name": "_message",
          "type": "bytes"
        }
      ],
      "name": "sendMessage",
      "outputs": [],
      "stateMutability": "nonpayable",
      "type": "function"
    },
    {
      "inputs": [],
      "name": "sequencerDelayLimit",
      "outputs": [
        {
          "internalType": "uint256",
          "name": "",
          "type": "uint256"
        }
      ],
      "stateMutability": "view",
      "type": "function"
    },
    {
      "inputs": [
        {
          "internalType": "uint256",
          "name": "_epoch",
          "type": "uint256"
        },
        {
          "components": [
            {
              "internalType": "bytes32",
              "name": "stateRoot",
              "type": "bytes32"
            },
            {
              "internalType": "address",
              "name": "claimer",
              "type": "address"
            },
            {
              "internalType": "uint32",
              "name": "timestampClaimed",
              "type": "uint32"
            },
            {
              "internalType": "uint32",
              "name": "timestampVerification",
              "type": "uint32"
            },
            {
              "internalType": "uint32",
              "name": "blocknumberVerification",
              "type": "uint32"
            },
            {
              "internalType": "enum Party",
              "name": "honest",
              "type": "uint8"
            },
            {
              "internalType": "address",
              "name": "challenger",
              "type": "address"
            }
          ],
          "internalType": "struct Claim",
          "name": "_claim",
          "type": "tuple"
        }
      ],
      "name": "startVerification",
      "outputs": [],
      "stateMutability": "nonpayable",
      "type": "function"
    },
    {
      "inputs": [],
      "name": "stateRoot",
      "outputs": [
        {
          "internalType": "bytes32",
          "name": "",
          "type": "bytes32"
        }
      ],
      "stateMutability": "view",
      "type": "function"
    },
    {
      "inputs": [],
      "name": "timeoutEpochs",
      "outputs": [
        {
          "internalType": "uint256",
          "name": "",
          "type": "uint256"
        }
      ],
      "stateMutability": "view",
      "type": "function"
    },
    {
      "inputs": [],
      "name": "timestampDelayUpdated",
      "outputs": [
        {
          "internalType": "uint256",
          "name": "",
          "type": "uint256"
        }
      ],
      "stateMutability": "view",
      "type": "function"
    },
    {
      "inputs": [
        {
          "internalType": "uint256",
          "name": "_newSequencerDelayLimit",
          "type": "uint256"
        },
        {
          "internalType": "uint256",
          "name": "_timestamp",
          "type": "uint256"
        }
      ],
      "name": "updateSequencerDelayLimit",
      "outputs": [],
      "stateMutability": "nonpayable",
      "type": "function"
    },
    {
      "inputs": [
        {
          "internalType": "uint256",
          "name": "_epoch",
          "type": "uint256"
        },
        {
          "components": [
            {
              "internalType": "bytes32",
              "name": "stateRoot",
              "type": "bytes32"
            },
            {
              "internalType": "address",
              "name": "claimer",
              "type": "address"
            },
            {
              "internalType": "uint32",
              "name": "timestampClaimed",
              "type": "uint32"
            },
            {
              "internalType": "uint32",
              "name": "timestampVerification",
              "type": "uint32"
            },
            {
              "internalType": "uint32",
              "name": "blocknumberVerification",
              "type": "uint32"
            },
            {
              "internalType": "enum Party",
              "name": "honest",
              "type": "uint8"
            },
            {
              "internalType": "address",
              "name": "challenger",
              "type": "address"
            }
          ],
          "internalType": "struct Claim",
          "name": "_claim",
          "type": "tuple"
        }
      ],
      "name": "verifySnapshot",
      "outputs": [],
      "stateMutability": "nonpayable",
      "type": "function"
    },
    {
      "inputs": [],
      "name": "weth",
      "outputs": [
        {
          "internalType": "contract IWETH",
          "name": "",
          "type": "address"
        }
      ],
      "stateMutability": "view",
      "type": "function"
    },
    {
      "inputs": [
        {
          "internalType": "uint256",
          "name": "_epoch",
          "type": "uint256"
        },
        {
          "components": [
            {
              "internalType": "bytes32",
              "name": "stateRoot",
              "type": "bytes32"
            },
            {
              "internalType": "address",
              "name": "claimer",
              "type": "address"
            },
            {
              "internalType": "uint32",
              "name": "timestampClaimed",
              "type": "uint32"
            },
            {
              "internalType": "uint32",
              "name": "timestampVerification",
              "type": "uint32"
            },
            {
              "internalType": "uint32",
              "name": "blocknumberVerification",
              "type": "uint32"
            },
            {
              "internalType": "enum Party",
              "name": "honest",
              "type": "uint8"
            },
            {
              "internalType": "address",
              "name": "challenger",
              "type": "address"
            }
          ],
          "internalType": "struct Claim",
          "name": "_claim",
          "type": "tuple"
        }
      ],
      "name": "withdrawChallengeDeposit",
      "outputs": [],
      "stateMutability": "nonpayable",
      "type": "function"
    },
    {
      "inputs": [
        {
          "internalType": "uint256",
          "name": "_epoch",
          "type": "uint256"
        },
        {
          "components": [
            {
              "internalType": "bytes32",
              "name": "stateRoot",
              "type": "bytes32"
            },
            {
              "internalType": "address",
              "name": "claimer",
              "type": "address"
            },
            {
              "internalType": "uint32",
              "name": "timestampClaimed",
              "type": "uint32"
            },
            {
              "internalType": "uint32",
              "name": "timestampVerification",
              "type": "uint32"
            },
            {
              "internalType": "uint32",
              "name": "blocknumberVerification",
              "type": "uint32"
            },
            {
              "internalType": "enum Party",
              "name": "honest",
              "type": "uint8"
            },
            {
              "internalType": "address",
              "name": "challenger",
              "type": "address"
            }
          ],
          "internalType": "struct Claim",
          "name": "_claim",
          "type": "tuple"
        }
      ],
      "name": "withdrawChallengerEscapeHatch",
      "outputs": [],
      "stateMutability": "nonpayable",
      "type": "function"
    },
    {
      "inputs": [
        {
          "internalType": "uint256",
          "name": "_epoch",
          "type": "uint256"
        },
        {
          "components": [
            {
              "internalType": "bytes32",
              "name": "stateRoot",
              "type": "bytes32"
            },
            {
              "internalType": "address",
              "name": "claimer",
              "type": "address"
            },
            {
              "internalType": "uint32",
              "name": "timestampClaimed",
              "type": "uint32"
            },
            {
              "internalType": "uint32",
              "name": "timestampVerification",
              "type": "uint32"
            },
            {
              "internalType": "uint32",
              "name": "blocknumberVerification",
              "type": "uint32"
            },
            {
              "internalType": "enum Party",
              "name": "honest",
              "type": "uint8"
            },
            {
              "internalType": "address",
              "name": "challenger",
              "type": "address"
            }
          ],
          "internalType": "struct Claim",
          "name": "_claim",
          "type": "tuple"
        }
      ],
      "name": "withdrawClaimDeposit",
      "outputs": [],
      "stateMutability": "nonpayable",
      "type": "function"
    },
    {
      "inputs": [
        {
          "internalType": "uint256",
          "name": "_epoch",
          "type": "uint256"
        },
        {
          "components": [
            {
              "internalType": "bytes32",
              "name": "stateRoot",
              "type": "bytes32"
            },
            {
              "internalType": "address",
              "name": "claimer",
              "type": "address"
            },
            {
              "internalType": "uint32",
              "name": "timestampClaimed",
              "type": "uint32"
            },
            {
              "internalType": "uint32",
              "name": "timestampVerification",
              "type": "uint32"
            },
            {
              "internalType": "uint32",
              "name": "blocknumberVerification",
              "type": "uint32"
            },
            {
              "internalType": "enum Party",
              "name": "honest",
              "type": "uint8"
            },
            {
              "internalType": "address",
              "name": "challenger",
              "type": "address"
            }
          ],
          "internalType": "struct Claim",
          "name": "_claim",
          "type": "tuple"
        }
      ],
      "name": "withdrawClaimerEscapeHatch",
      "outputs": [],
      "stateMutability": "nonpayable",
      "type": "function"
    }
  ],
  "transactionHash": "0xa7c8c5e98a40522136eca8d57c0fddf408d045b28b64caf9c5fc150874062ab4",
  "args": [
    "100000000000000000",
    1800,
    0,
    10000000000000,
    "0x99Ca51a3534785ED619f46A79C7Ad65Fa8d85e7a",
    "0xEC337Fb9977848D0784dC4F01A69c237691755E0",
    86400,
    10000000000000,
    5,
    "0x8d74e5e4DA11629537C4575cB0f33b4F0Dfa42EB"
  ],
  "numDeployments": 8,
  "solcInputHash": "74af439f219888d42665a3312cefc0fc",
  "bytecode": "0x6101e06040523480156200001257600080fd5b5060405162002bf838038062002bf883398101604081905262000035916200012f565b60e08a90526101608990526101a08790526101808890526001600160a01b0380871660805280861660a05260048590556101c0849052610140839052811660c052898989898989898989896200008d60028b620001e0565b610100819052620000a08b600262000203565b620000ac919062000223565b6101205261016051600190620000c39042620001e0565b620000cf919062000223565b6001819055505050505050505050505033600660006101000a8154816001600160a01b0302191690836001600160a01b031602179055505050505050505050505062000239565b6001600160a01b03811681146200012c57600080fd5b50565b6000806000806000806000806000806101408b8d0312156200015057600080fd5b8a51995060208b0151985060408b0151975060608b0151965060808b0151620001798162000116565b60a08c01519096506200018c8162000116565b8095505060c08b0151935060e08b015192506101008b015191506101208b0151620001b78162000116565b809150509295989b9194979a5092959850565b634e487b7160e01b600052601160045260246000fd5b600082620001fe57634e487b7160e01b600052601260045260246000fd5b500490565b80820281158282048414176200021d576200021d620001ca565b92915050565b818103818111156200021d576200021d620001ca565b60805160a05160c05160e05161010051610120516101405161016051610180516101a0516101c051612812620003e6600039600081816105b001526121cb0152600081816105e40152818161099801528181611b1301528181611c9e0152611f5d01526000818161066c015261215f015260008181610618015281816109bc01528181610d4d01528181611a0101528181611b3701528181611cc20152611f8101526000818161054601528181610b330152610e660152600081816104d20152818161168d015261187d0152600081816104080152818161159c01526117cf0152600081816106a00152818161078701528181611081015281816118f801528181611e1701528181611eac01526120d6015260008181610387015281816107ad015281816110a7015281816115c20152818161162e015281816117f5015281816118a30152818161191e01528181611e3d01528181611ed201526120fc0152600081816106d401528181610c200152610f5301526000818161025001528181610a3701528181610ab101528181610b9501528181610d8201528181610de40152610ec801526128126000f3fe6080604052600436106102045760003560e01c80637ffc2a6e11610118578063b5b7a184116100a0578063d5e6a9df1161006f578063d5e6a9df146106c2578063da2b7bc4146106f6578063df19e6ff14610716578063e813a75514610743578063eedcf2a91461075957600080fd5b8063b5b7a18414610606578063b633b9441461063a578063c2114a161461065a578063d0e30db01461068e57600080fd5b80638d96fdea116100e75780638d96fdea14610534578063930f28af146105685780639588eca214610588578063aa22a1c61461059e578063b044397e146105d257600080fd5b80637ffc2a6e146104aa578063836e344b146104c05780638a619a71146104f45780638ad3a8f71461051457600080fd5b806331ddf7431161019b57806344df8e701161016a57806344df8e70146103f65780634788cb381461042a57806349b4299e1461044a5780634a439cfe1461046a578063541adcca1461048a57600080fd5b806331ddf743146103355780633ce43cfd146103555780633fc8cef31461037557806343b066d5146103a957600080fd5b80632639c060116101d75780632639c060146102b257806327ee6bdd146102df5780632c192519146102f557806331d144571461031557600080fd5b806301139b68146102095780630f0adca51461021e5780631062b39a1461023e578063222ae7861461028f575b600080fd5b61021c610217366004612388565b61076c565b005b34801561022a57600080fd5b5061021c6102393660046123b6565b610996565b34801561024a57600080fd5b506102727f000000000000000000000000000000000000000000000000000000000000000081565b6040516001600160a01b0390911681526020015b60405180910390f35b34801561029b57600080fd5b506102a4610d46565b604051908152602001610286565b3480156102be57600080fd5b506102a46102cd3660046123ed565b60026020526000908152604090205481565b3480156102eb57600080fd5b506102a460015481565b34801561030157600080fd5b5061021c610310366004612406565b610d77565b34801561032157600080fd5b5061021c610330366004612406565b61104f565b34801561034157600080fd5b5061021c610350366004612489565b61123a565b34801561036157600080fd5b5061021c61037036600461254b565b6114da565b34801561038157600080fd5b506102727f000000000000000000000000000000000000000000000000000000000000000081565b3480156103b557600080fd5b506103e66103c43660046123ed565b600881901c600090815260036020526040902054600160ff9092161c81161490565b6040519015158152602001610286565b34801561040257600080fd5b506102a47f000000000000000000000000000000000000000000000000000000000000000081565b34801561043657600080fd5b5061021c610445366004612388565b611714565b34801561045657600080fd5b5061021c610465366004612388565b61194f565b34801561047657600080fd5b506102a46104853660046123ed565b6119fa565b34801561049657600080fd5b506102a46104a5366004612584565b611a2c565b3480156104b657600080fd5b506102a460055481565b3480156104cc57600080fd5b506102a47f000000000000000000000000000000000000000000000000000000000000000081565b34801561050057600080fd5b5061021c61050f3660046125a7565b611a7e565b34801561052057600080fd5b50600654610272906001600160a01b031681565b34801561054057600080fd5b506102a47f000000000000000000000000000000000000000000000000000000000000000081565b34801561057457600080fd5b5061021c610583366004612388565b611b11565b34801561059457600080fd5b506102a460005481565b3480156105aa57600080fd5b506102a47f000000000000000000000000000000000000000000000000000000000000000081565b3480156105de57600080fd5b506102a47f000000000000000000000000000000000000000000000000000000000000000081565b34801561061257600080fd5b506102a47f000000000000000000000000000000000000000000000000000000000000000081565b34801561064657600080fd5b5061021c610655366004612388565b611c9c565b34801561066657600080fd5b506102a47f000000000000000000000000000000000000000000000000000000000000000081565b34801561069a57600080fd5b506102a47f000000000000000000000000000000000000000000000000000000000000000081565b3480156106ce57600080fd5b506102727f000000000000000000000000000000000000000000000000000000000000000081565b34801561070257600080fd5b5061021c610711366004612388565b611f5b565b34801561072257600080fd5b50610736610731366004612584565b612141565b60405161028691906125da565b34801561074f57600080fd5b506102a460045481565b61021c610767366004612406565b612208565b6040516323b872dd60e01b81523360048201523060248201527f000000000000000000000000000000000000000000000000000000000000000060448201527f00000000000000000000000000000000000000000000000000000000000000006001600160a01b0316906323b872dd906064016020604051808303816000875af11580156107fe573d6000803e3d6000fd5b505050506040513d601f19601f8201168201806040525081019061082291906125f4565b6108475760405162461bcd60e51b815260040161083e90612616565b60405180910390fd5b61085081611a2c565b6000838152600260205260409020541461087c5760405162461bcd60e51b815260040161083e90612645565b60c08101516001600160a01b0316156108d75760405162461bcd60e51b815260206004820152601960248201527f436c61696d20616c7265616479206368616c6c656e6765642e00000000000000604482015260640161083e565b60008160a0015160028111156108ef576108ef6125c4565b1461093c5760405162461bcd60e51b815260206004820152601760248201527f436c61696d20616c72656164792076657269666965642e000000000000000000604482015260640161083e565b3360c082015261094b81611a2c565b600083815260026020908152604091829020929092555183815233917fcfe09ca25f55d949baba5e280f5750c9ba4b9048fca5532f916067d433afe4d7910160405180910390a25050565b7f00000000000000000000000000000000000000000000000000000000000000006001547f000000000000000000000000000000000000000000000000000000000000000042816109e9576109e961266d565b04031115610a2c5760405162461bcd60e51b815260206004820152601060248201526f213934b233b29029b43aba3237bbb71760811b604482015260640161083e565b336001600160a01b037f00000000000000000000000000000000000000000000000000000000000000001614610aaf5760405162461bcd60e51b815260206004820152602260248201527f4e6f742066726f6d206e617469766520476e6f73697320414d42206272696467604482015261329760f11b606482015260840161083e565b7f00000000000000000000000000000000000000000000000000000000000000006001600160a01b0316639e307dff6040518163ffffffff1660e01b8152600401602060405180830381865afa158015610b0d573d6000803e3d6000fd5b505050506040513d601f19601f82011682018060405250810190610b319190612683565b7f000000000000000000000000000000000000000000000000000000000000000014610b935760405162461bcd60e51b815260206004820152601160248201527024b73b30b634b21031b430b4b71034b21760791b604482015260640161083e565b7f00000000000000000000000000000000000000000000000000000000000000006001600160a01b031663d67bdd256040518163ffffffff1660e01b8152600401602060405180830381865afa158015610bf1573d6000803e3d6000fd5b505050506040513d601f19601f82011682018060405250810190610c15919061269c565b6001600160a01b03167f00000000000000000000000000000000000000000000000000000000000000006001600160a01b031614610c885760405162461bcd60e51b815260206004820152601060248201526f2737ba10333937b6903937baba32b91760811b604482015260640161083e565b60015483118015610c9857508115155b15610cdb57600183905560008290556040518381527ff786e7f77ede00a02a5464f8f0555798f42ba99a4a920ef2778db8d75e4656f79060200160405180910390a15b610ce481611a2c565b60008481526002602052604090205403610d41578051829003610d0d57600160a0820152610d28565b60c08101516001600160a01b031615610d2857600260a08201525b610d3181611a2c565b6000848152600260205260409020555b505050565b6000610d727f0000000000000000000000000000000000000000000000000000000000000000426126b9565b905090565b336001600160a01b037f00000000000000000000000000000000000000000000000000000000000000001614610de25760405162461bcd60e51b815260206004820152601060248201526f2737ba10333937b690313934b233b29760811b604482015260640161083e565b7f00000000000000000000000000000000000000000000000000000000000000006001600160a01b0316639e307dff6040518163ffffffff1660e01b8152600401602060405180830381865afa158015610e40573d6000803e3d6000fd5b505050506040513d601f19601f82011682018060405250810190610e649190612683565b7f000000000000000000000000000000000000000000000000000000000000000014610ec65760405162461bcd60e51b815260206004820152601160248201527024b73b30b634b21031b430b4b71034b21760791b604482015260640161083e565b7f00000000000000000000000000000000000000000000000000000000000000006001600160a01b031663d67bdd256040518163ffffffff1660e01b8152600401602060405180830381865afa158015610f24573d6000803e3d6000fd5b505050506040513d601f19601f82011682018060405250810190610f48919061269c565b6001600160a01b03167f00000000000000000000000000000000000000000000000000000000000000006001600160a01b031614610fbb5760405162461bcd60e51b815260206004820152601060248201526f2737ba10333937b6903937baba32b91760811b604482015260640161083e565b80600554106110035760405162461bcd60e51b815260206004820152601460248201527326b2b9b9b0b3b29034b99037baba3230ba32b21760611b604482015260640161083e565b816004541461104b57600482905560058190556040518281527f684f6fb71cbcb798156dcca2a95dbd142fa1f8957637833b1897ab89e05aa707906020015b60405180910390a15b5050565b6006546001600160a01b0316331461106657600080fd5b6040516323b872dd60e01b81523360048201523060248201527f000000000000000000000000000000000000000000000000000000000000000060448201527f00000000000000000000000000000000000000000000000000000000000000006001600160a01b0316906323b872dd906064016020604051808303816000875af11580156110f8573d6000803e3d6000fd5b505050506040513d601f19601f8201168201806040525081019061111c91906125f4565b6111385760405162461bcd60e51b815260040161083e90612616565b806111555760405162461bcd60e51b815260040161083e90612645565b600082815260026020526040902054156111a75760405162461bcd60e51b815260206004820152601360248201527221b630b4b69030b63932b0b23c9036b0b2329760691b604482015260640161083e565b6040805160e0810182528281523360208201524263ffffffff16918101919091526000606082018190526080820181905260a0820181905260c08201526111ed90611a2c565b6000838152600260209081526040918290209290925551828152839133917fd95107f4584744c6c893a04c43058aadd1ce8aac8ca5d64140eaf277de6c1d57910160405180910390a35050565b6040851061127c5760405162461bcd60e51b815260206004820152600f60248201526e283937b7b3103a37b7903637b7339760891b604482015260640161083e565b60008484848460405160200161129594939291906126db565b604051602081830303815290604052805190602001209050806000526020600020905060005b868110156113155760008888838181106112d7576112d761271d565b905060200201359050828111156112fc5782600052806020526040600020925061130c565b8060005282602052604060002092505b506001016112bb565b5080600054146113585760405162461bcd60e51b815260206004820152600e60248201526d24b73b30b634b210383937b7b31760911b604482015260640161083e565b600885901c66ffffffffffffff1660008181526003602052604090205460ff87169080821c600116156113cd5760405162461bcd60e51b815260206004820152601760248201527f4d65737361676520616c72656164792072656c61796564000000000000000000604482015260640161083e565b6000838152600360205260408082206001851b84179055516001600160a01b038916906113fd9089908990612733565b6000604051808303816000865af19150503d806000811461143a576040519150601f19603f3d011682016040523d82523d6000602084013e61143f565b606091505b50509050806114905760405162461bcd60e51b815260206004820152601760248201527f4661696c656420746f2063616c6c20636f6e7472616374000000000000000000604482015260640161083e565b60405167ffffffffffffffff8a1681527f54303fab361bc52c2f1f56ace7351189582264f74ce47a6e7c3f478d64c429439060200160405180910390a15050505050505050505050565b6114ec6104a536839003830183612584565b600083815260026020526040902054146115185760405162461bcd60e51b815260040161083e90612645565b600261152a60c0830160a08401612743565b600281111561153b5761153b6125c4565b1461157c5760405162461bcd60e51b815260206004820152601160248201527021b430b63632b733b2903330b4b632b21760791b604482015260640161083e565b6000828152600260205260408082209190915551630852cd8d60e31b81527f000000000000000000000000000000000000000000000000000000000000000060048201527f00000000000000000000000000000000000000000000000000000000000000006001600160a01b0316906342966c6890602401600060405180830381600087803b15801561160e57600080fd5b505af1158015611622573d6000803e3d6000fd5b50506001600160a01b037f000000000000000000000000000000000000000000000000000000000000000016915063a9059cbb905061166760e0840160c085016125a7565b6040516001600160e01b031960e084901b1681526001600160a01b0390911660048201527f000000000000000000000000000000000000000000000000000000000000000060248201526044015b6020604051808303816000875af11580156116d4573d6000803e3d6000fd5b505050506040513d601f19601f820116820180604052508101906116f891906125f4565b61104b5760405162461bcd60e51b815260040161083e90612616565b61171d81611a2c565b600083815260026020526040902054146117495760405162461bcd60e51b815260040161083e90612645565b60018160a001516002811115611761576117616125c4565b1461179e5760405162461bcd60e51b815260206004820152600d60248201526c21b630b4b6903330b4b632b21760991b604482015260640161083e565b60008281526002602052604081205560c08101516001600160a01b0316156118d457604051630852cd8d60e31b81527f000000000000000000000000000000000000000000000000000000000000000060048201527f00000000000000000000000000000000000000000000000000000000000000006001600160a01b0316906342966c6890602401600060405180830381600087803b15801561184157600080fd5b505af1158015611855573d6000803e3d6000fd5b50505050602081015160405163a9059cbb60e01b81526001600160a01b0391821660048201527f000000000000000000000000000000000000000000000000000000000000000060248201527f00000000000000000000000000000000000000000000000000000000000000009091169063a9059cbb906044016116b5565b602081015160405163a9059cbb60e01b81526001600160a01b0391821660048201527f000000000000000000000000000000000000000000000000000000000000000060248201527f00000000000000000000000000000000000000000000000000000000000000009091169063a9059cbb906044016116b5565b6006546001600160a01b0316331461196657600080fd5b61196f81611a2c565b6000838152600260205260409020541461199b5760405162461bcd60e51b815260040161083e90612645565b63ffffffff4281166060830152431660808201526119b881611a2c565b60008381526002602090815260409182902092909255518381527f37b700b61b9b4710dddb0c3316b2be7ef6088ed4b1d7bfe0fb98be8f9a163e169101611042565b6000611a267f0000000000000000000000000000000000000000000000000000000000000000836126b9565b92915050565b80516020808301516040808501516060860151608087015160a088015160c08901519451600098611a6198909796910161275e565b604051602081830303815290604052805190602001209050919050565b6006546001600160a01b03163314611a9557600080fd5b6006546001600160a01b03163314611aef5760405162461bcd60e51b815260206004820152601860248201527f496e76616c696420546573746e6574204f70657261746f720000000000000000604482015260640161083e565b600680546001600160a01b0319166001600160a01b0392909216919091179055565b7f00000000000000000000000000000000000000000000000000000000000000006001547f00000000000000000000000000000000000000000000000000000000000000004281611b6457611b6461266d565b04031115611ba75760405162461bcd60e51b815260206004820152601060248201526f213934b233b29029b43aba3237bbb71760811b604482015260640161083e565b611bb081611a2c565b60008381526002602052604090205414611bdc5760405162461bcd60e51b815260040161083e90612645565b60c08101516001600160a01b031615611c2e5760405162461bcd60e51b815260206004820152601460248201527321b630b4b69034b99031b430b63632b733b2b21760611b604482015260640161083e565b600154821115611c7657600182905580516000556040518281527ff786e7f77ede00a02a5464f8f0555798f42ba99a4a920ef2778db8d75e4656f79060200160405180910390a15b600160a0820152611c8681611a2c565b6000928352600260205260409092209190915550565b7f00000000000000000000000000000000000000000000000000000000000000006001547f00000000000000000000000000000000000000000000000000000000000000004281611cef57611cef61266d565b040311611d305760405162461bcd60e51b815260206004820152600f60248201526e213934b233b290293ab73734b7339760891b604482015260640161083e565b611d3981611a2c565b60008381526002602052604090205414611d655760405162461bcd60e51b815260040161083e90612645565b60008160a001516002811115611d7d57611d7d6125c4565b14611dbc5760405162461bcd60e51b815260206004820152600f60248201526e21b630b4b6903932b9b7b63b32b21760891b604482015260640161083e565b60c08101516001600160a01b03161561104b5760208101516001600160a01b0316611e6e576000828152600260205260408082209190915560c0820151905163a9059cbb60e01b81526001600160a01b0391821660048201527f000000000000000000000000000000000000000000000000000000000000000060248201527f00000000000000000000000000000000000000000000000000000000000000009091169063a9059cbb906044016116b5565b60c0810180516000909152611e8282611a2c565b506000839052600260205260405163a9059cbb60e01b81526001600160a01b0382811660048301527f000000000000000000000000000000000000000000000000000000000000000060248301527f0000000000000000000000000000000000000000000000000000000000000000169063a9059cbb906044016020604051808303816000875af1158015611f1b573d6000803e3d6000fd5b505050506040513d601f19601f82011682018060405250810190611f3f91906125f4565b610d415760405162461bcd60e51b815260040161083e90612616565b7f00000000000000000000000000000000000000000000000000000000000000006001547f00000000000000000000000000000000000000000000000000000000000000004281611fae57611fae61266d565b040311611fef5760405162461bcd60e51b815260206004820152600f60248201526e213934b233b290293ab73734b7339760891b604482015260640161083e565b611ff881611a2c565b600083815260026020526040902054146120245760405162461bcd60e51b815260040161083e90612645565b60008160a00151600281111561203c5761203c6125c4565b1461207b5760405162461bcd60e51b815260206004820152600f60248201526e21b630b4b6903932b9b7b63b32b21760891b604482015260640161083e565b60208101516001600160a01b03161561104b5760c08101516001600160a01b031661212d57600082815260026020908152604080832092909255820151905163a9059cbb60e01b81526001600160a01b0391821660048201527f000000000000000000000000000000000000000000000000000000000000000060248201527f00000000000000000000000000000000000000000000000000000000000000009091169063a9059cbb906044016116b5565b6020810180516000909152611e8282611a2c565b6000816060015163ffffffff1660000361215d57506002919050565b7f0000000000000000000000000000000000000000000000000000000000000000826060015163ffffffff164203101561219957506003919050565b60006005836060015163ffffffff164203816121b7576121b761266d565b608085015163ffffffff16919004019050437f0000000000000000000000000000000000000000000000000000000000000000818303116121fb5760019250612200565b600092505b50505b919050565b612212828261104f565b6040805160e0810182528281523360208201524263ffffffff16918101919091526000606082018190526080820181905260a0820181905260c0820152612259838261194f565b63ffffffff4281166060830152431660808201526122778382611b11565b600160a0820152610d418382611714565b6001600160a01b038116811461229d57600080fd5b50565b803561220381612288565b803563ffffffff8116811461220357600080fd5b80356003811061220357600080fd5b600060e082840312156122e057600080fd5b60405160e0810181811067ffffffffffffffff8211171561231157634e487b7160e01b600052604160045260246000fd5b60405282358152905080612327602084016122a0565b6020820152612338604084016122ab565b6040820152612349606084016122ab565b606082015261235a608084016122ab565b608082015261236b60a084016122bf565b60a082015261237c60c084016122a0565b60c08201525092915050565b600080610100838503121561239c57600080fd5b823591506123ad84602085016122ce565b90509250929050565b600080600061012084860312156123cc57600080fd5b83359250602084013591506123e485604086016122ce565b90509250925092565b6000602082840312156123ff57600080fd5b5035919050565b6000806040838503121561241957600080fd5b50508035926020909101359150565b803567ffffffffffffffff8116811461220357600080fd5b60008083601f84011261245257600080fd5b50813567ffffffffffffffff81111561246a57600080fd5b60208301915083602082850101111561248257600080fd5b9250929050565b600080600080600080608087890312156124a257600080fd5b863567ffffffffffffffff808211156124ba57600080fd5b818901915089601f8301126124ce57600080fd5b8135818111156124dd57600080fd5b8a60208260051b85010111156124f257600080fd5b6020830198508097505061250860208a01612428565b955061251660408a016122a0565b9450606089013591508082111561252c57600080fd5b5061253989828a01612440565b979a9699509497509295939492505050565b60008082840361010081121561256057600080fd5b8335925060e0601f198201121561257657600080fd5b506020830190509250929050565b600060e0828403121561259657600080fd5b6125a083836122ce565b9392505050565b6000602082840312156125b957600080fd5b81356125a081612288565b634e487b7160e01b600052602160045260246000fd5b60208101600483106125ee576125ee6125c4565b91905290565b60006020828403121561260657600080fd5b815180151581146125a057600080fd5b6020808252601590820152742330b4b632b2102ba2aa24103a3930b739b332b91760591b604082015260600190565b6020808252600e908201526d24b73b30b634b21031b630b4b69760911b604082015260600190565b634e487b7160e01b600052601260045260246000fd5b60006020828403121561269557600080fd5b5051919050565b6000602082840312156126ae57600080fd5b81516125a081612288565b6000826126d657634e487b7160e01b600052601260045260246000fd5b500490565b60c085901b6001600160c01b0319168152606084901b6bffffffffffffffffffffffff191660088201528183601c83013760009101601c019081529392505050565b634e487b7160e01b600052603260045260246000fd5b8183823760009101908152919050565b60006020828403121561275557600080fd5b6125a0826122bf565b87815260006bffffffffffffffffffffffff19808960601b16602084015263ffffffff60e01b808960e01b166034850152808860e01b166038850152808760e01b16603c85015250600385106127b6576127b66125c4565b60f89490941b60408301525060609190911b90911660418201526055019594505050505056fea26469706673582212205c1c17d4aaa68df59bee711a4c79352292853d491afe014364ffe5d6b86fb99a64736f6c63430008120033",
  "devdoc": {
    "details": "Vea Outbox From ArbitrumGoerli to Chiado. Note: This contract is deployed on Chiado. Note: This contract is permissioned for developer testing (devnet).",
    "events": {
      "Challenged(uint256,address)": {
        "details": "This event indicates that `sendSnapshot(epoch)` should be called in the inbox.",
        "params": {
          "_challenger": "The address of the challenger.",
          "_epoch": "The epoch associated with the challenged claim."
        }
      },
      "Claimed(address,uint256,bytes32)": {
        "details": "Watchers check this event to challenge fraud.",
        "params": {
          "_claimer": "The address of the claimer.",
          "_epoch": "The epoch associated with the claim.",
          "_stateRoot": "The state root of the claim."
        }
      },
      "MessageRelayed(uint64)": {
        "details": "This event indicates that a message has been relayed.",
        "params": {
          "_msgId": "The msgId of the message that was relayed."
        }
      },
      "VerificationStarted(uint256)": {
        "details": "This event indicates that the censorship test started and all challengers are ready even in the worst case scenario of a malicious sequencer.",
        "params": {
          "_epoch": "The epoch that started verification."
        }
      },
      "Verified(uint256)": {
        "details": "This events indicates that verification has succeeded. The messages are ready to be relayed.",
        "params": {
          "_epoch": "The epoch that was verified."
        }
      },
      "sequencerDelayLimitUpdateReceived(uint256)": {
        "details": "This event indicates the sequencer limit updated.",
        "params": {
          "_newSequencerDelayLimit": "The new sequencer delay limit."
        }
      }
    },
    "kind": "dev",
    "methods": {
      "censorshipTestStatus((bytes32,address,uint32,uint32,uint32,uint8,address))": {
        "details": "Gets the status of the censorship test for claim.",
        "params": {
          "_claim": "The claim to test."
        },
        "returns": {
          "status": "True if the claim passed the censorship test."
        }
      },
      "challenge(uint256,(bytes32,address,uint32,uint32,uint32,uint8,address))": {
        "details": "Submit a challenge for the claim of the inbox state root snapshot taken at 'epoch'.",
        "params": {
          "_claim": "The claim associated with the epoch.",
          "_epoch": "The epoch of the claim to challenge."
        }
      },
      "changeDevnetOperator(address)": {
        "details": "Changes the devnet operator.",
        "params": {
          "_devnetOperator": "The new testnet operator."
        }
      },
      "claim(uint256,bytes32)": {
        "details": "Submit a claim about the _stateRoot at _epoch and submit a deposit.",
        "params": {
          "_epoch": "The epoch for which the claim is made.",
          "_stateRoot": "The state root to claim."
        }
      },
      "constructor": {
        "details": "Constructor. Note: epochPeriod must match the VeaInboxArbToGnosis contract deployment on Arbitrum, since it's on a different chain, we can't read it and trust the deployer to set a correct value",
        "params": {
          "_amb": "The address of the AMB contract on Gnosis.",
          "_deposit": "The deposit amount to submit a claim in wei.",
          "_epochPeriod": "The duration of each epoch.",
          "_maxMissingBlocks": "The maximum number of blocks that can be missing in a challenge period.",
          "_minChallengePeriod": "The minimum time window to challenge a claim.",
          "_routerArbToGnosis": "The address of the router on Ethereum that routes from Arbitrum to Gnosis.",
          "_routerChainId": "The chain id of the routerArbToGnosis.",
          "_sequencerDelayLimit": "The maximum delay in seconds that the Arbitrum sequencer can backdate transactions.",
          "_timeoutEpochs": "The epochs before the bridge is considered shutdown.",
          "_weth": "The address of the WETH contract on Gnosis."
        }
      },
      "devnetAdvanceState(uint256,bytes32)": {
        "details": "Testnet operator utility function to claim, validate and withdraw.",
        "params": {
          "_epoch": "The epoch for which the claim is made.",
          "_stateroot": "The state root to claim."
        }
      },
      "epochAt(uint256)": {
        "details": "Get the current epoch from the outbox's point of view using the Ethereum L1 clock.",
        "returns": {
          "epoch": "The hash of the claim."
        }
      },
      "epochNow()": {
        "details": "Get the current epoch from the outbox's point of view using the Ethereum L1 clock.",
        "returns": {
          "epoch": "The hash of the claim."
        }
      },
      "hashClaim((bytes32,address,uint32,uint32,uint32,uint8,address))": {
        "details": "Hashes the claim.",
        "params": {
          "_claim": "The claim to hash."
        },
        "returns": {
          "hashedClaim": "The hash of the claim."
        }
      },
      "isMsgRelayed(uint256)": {
        "details": "Get the msg relayed status.",
        "params": {
          "_msgId": "The msgId to check."
        },
        "returns": {
          "isRelayed": "True if the msg was relayed."
        }
      },
      "resolveDisputedClaim(uint256,bytes32,(bytes32,address,uint32,uint32,uint32,uint8,address))": {
        "details": "Resolves any challenge of the optimistic claim for '_epoch'.",
        "params": {
          "_claim": "The claim associated with the epoch.",
          "_epoch": "The epoch to verify.",
          "_stateRoot": "The true state root for the epoch."
        }
      },
      "sendMessage(bytes32[],uint64,address,bytes)": {
        "details": "Verifies and relays the message. UNTRUSTED.",
        "params": {
          "_message": "The message encoded in the vea inbox as abi.encodeWithSelector(fnSelector, msg.sender, param1, param2, ...)",
          "_msgId": "The zero based index of the message in the inbox.",
          "_proof": "The merkle proof to prove the message inclusion in the inbox state root.",
          "_to": "The address of the contract on Gnosis to call."
        }
      },
      "startVerification(uint256,(bytes32,address,uint32,uint32,uint32,uint8,address))": {
        "details": "Start verification for claim for 'epoch'.",
        "params": {
          "_claim": "The claim associated with the epoch.",
          "_epoch": "The epoch of the claim to challenge."
        }
      },
      "updateSequencerDelayLimit(uint256,uint256)": {
        "details": "Set the sequencerDelayLimit by receiving a message from the AMB.",
        "params": {
          "_newSequencerDelayLimit": "The delaySeconds from the MaxTimeVariation struct in the Arbitrum Sequencer contract.",
          "_timestamp": "The timestamp of the message."
        }
      },
      "verifySnapshot(uint256,(bytes32,address,uint32,uint32,uint32,uint8,address))": {
        "details": "Resolves the optimistic claim for '_epoch'.",
        "params": {
          "_claim": "The claim associated with the epoch.",
          "_epoch": "The epoch of the optimistic claim."
        }
      },
      "withdrawChallengeDeposit(uint256,(bytes32,address,uint32,uint32,uint32,uint8,address))": {
        "details": "Sends the deposit back to the Challenger if successful. Includes a portion of the Bridger's deposit.",
        "params": {
          "_claim": "The claim associated with the epoch.",
          "_epoch": "The epoch associated with the challenge deposit to withraw."
        }
      },
      "withdrawChallengerEscapeHatch(uint256,(bytes32,address,uint32,uint32,uint32,uint8,address))": {
        "details": "When bridge is shutdown, no claim disputes can be resolved. This allows the challenger to withdraw their deposit.",
        "params": {
          "_claim": "The claim associated with the epoch.",
          "_epoch": "The epoch associated with the claim deposit to withraw."
        }
      },
      "withdrawClaimDeposit(uint256,(bytes32,address,uint32,uint32,uint32,uint8,address))": {
        "details": "Sends the deposit back to the Claimer if successful. Includes a portion of the Challenger's deposit if unsuccessfully challenged.",
        "params": {
          "_claim": "The claim associated with the epoch.",
          "_epoch": "The epoch associated with the claim deposit to withraw."
        }
      },
      "withdrawClaimerEscapeHatch(uint256,(bytes32,address,uint32,uint32,uint32,uint8,address))": {
        "details": "When bridge is shutdown, no claim disputes can be resolved. This allows the claimer to withdraw their deposit.",
        "params": {
          "_claim": "The claim associated with the epoch.",
          "_epoch": "The epoch associated with the claim deposit to withraw."
        }
      }
    },
    "version": 1
  },
  "userdoc": {
    "kind": "user",
    "methods": {
      "resolveDisputedClaim(uint256,bytes32,(bytes32,address,uint32,uint32,uint32,uint8,address))": {
        "notice": "Note: Access restricted to AMB."
      }
    },
    "version": 1
  },
  "storageLayout": {
    "storage": [
      {
        "astId": 2314,
        "contract": "src/devnets/arbitrumToGnosis/VeaOutboxArbToGnosisDevnet.sol:VeaOutboxArbToGnosisDevnet",
        "label": "stateRoot",
        "offset": 0,
        "slot": "0",
        "type": "t_bytes32"
      },
      {
        "astId": 2316,
        "contract": "src/devnets/arbitrumToGnosis/VeaOutboxArbToGnosisDevnet.sol:VeaOutboxArbToGnosisDevnet",
        "label": "latestVerifiedEpoch",
        "offset": 0,
        "slot": "1",
        "type": "t_uint256"
      },
      {
        "astId": 2320,
        "contract": "src/devnets/arbitrumToGnosis/VeaOutboxArbToGnosisDevnet.sol:VeaOutboxArbToGnosisDevnet",
        "label": "claimHashes",
        "offset": 0,
        "slot": "2",
        "type": "t_mapping(t_uint256,t_bytes32)"
      },
      {
        "astId": 2324,
        "contract": "src/devnets/arbitrumToGnosis/VeaOutboxArbToGnosisDevnet.sol:VeaOutboxArbToGnosisDevnet",
        "label": "relayed",
        "offset": 0,
        "slot": "3",
        "type": "t_mapping(t_uint256,t_bytes32)"
      },
      {
        "astId": 2326,
        "contract": "src/devnets/arbitrumToGnosis/VeaOutboxArbToGnosisDevnet.sol:VeaOutboxArbToGnosisDevnet",
        "label": "sequencerDelayLimit",
        "offset": 0,
        "slot": "4",
        "type": "t_uint256"
      },
      {
        "astId": 2328,
        "contract": "src/devnets/arbitrumToGnosis/VeaOutboxArbToGnosisDevnet.sol:VeaOutboxArbToGnosisDevnet",
        "label": "timestampDelayUpdated",
        "offset": 0,
        "slot": "5",
        "type": "t_uint256"
      },
      {
        "astId": 4242,
        "contract": "src/devnets/arbitrumToGnosis/VeaOutboxArbToGnosisDevnet.sol:VeaOutboxArbToGnosisDevnet",
        "label": "devnetOperator",
        "offset": 0,
        "slot": "6",
        "type": "t_address"
      }
    ],
    "types": {
      "t_address": {
        "encoding": "inplace",
        "label": "address",
        "numberOfBytes": "20"
      },
      "t_bytes32": {
        "encoding": "inplace",
        "label": "bytes32",
        "numberOfBytes": "32"
      },
      "t_mapping(t_uint256,t_bytes32)": {
        "encoding": "mapping",
        "key": "t_uint256",
        "label": "mapping(uint256 => bytes32)",
        "numberOfBytes": "32",
        "value": "t_bytes32"
      },
      "t_uint256": {
        "encoding": "inplace",
        "label": "uint256",
        "numberOfBytes": "32"
      }
    }
  }
}