{
  "address": "0xa3C6608539693C13434e4E29c9aB53Dd029178BE",
  "abi": [
    {
      "inputs": [
        {
          "internalType": "uint256",
          "name": "_deposit",
          "type": "uint256"
        },
        {
          "internalType": "uint256",
          "name": "_epochPeriod",
          "type": "uint256"
        },
        {
          "internalType": "uint256",
          "name": "_minChallengePeriod",
          "type": "uint256"
        },
        {
          "internalType": "uint256",
          "name": "_timeoutEpochs",
          "type": "uint256"
        },
        {
          "internalType": "contract IAMB",
          "name": "_amb",
          "type": "address"
        },
        {
          "internalType": "address",
          "name": "_routerArbToGnosis",
          "type": "address"
        },
        {
          "internalType": "uint256",
          "name": "_sequencerDelayLimit",
          "type": "uint256"
        },
        {
          "internalType": "uint256",
          "name": "_maxMissingBlocks",
          "type": "uint256"
        },
        {
          "internalType": "uint256",
          "name": "_routerChainId",
          "type": "uint256"
        },
        {
          "internalType": "contract IWETH",
          "name": "_weth",
          "type": "address"
        }
      ],
      "stateMutability": "nonpayable",
      "type": "constructor"
    },
    {
      "anonymous": false,
      "inputs": [
        {
          "indexed": true,
          "internalType": "uint256",
          "name": "_epoch",
          "type": "uint256"
        },
        {
          "indexed": true,
          "internalType": "address",
          "name": "_challenger",
          "type": "address"
        }
      ],
      "name": "Challenged",
      "type": "event"
    },
    {
      "anonymous": false,
      "inputs": [
        {
          "indexed": true,
          "internalType": "address",
          "name": "_claimer",
          "type": "address"
        },
        {
          "indexed": true,
          "internalType": "uint256",
          "name": "_epoch",
          "type": "uint256"
        },
        {
          "indexed": false,
          "internalType": "bytes32",
          "name": "_stateRoot",
          "type": "bytes32"
        }
      ],
      "name": "Claimed",
      "type": "event"
    },
    {
      "anonymous": false,
      "inputs": [
        {
          "indexed": false,
          "internalType": "uint64",
          "name": "_msgId",
          "type": "uint64"
        }
      ],
      "name": "MessageRelayed",
      "type": "event"
    },
    {
      "anonymous": false,
      "inputs": [
        {
          "indexed": true,
          "internalType": "uint256",
          "name": "_epoch",
          "type": "uint256"
        }
      ],
      "name": "VerificationStarted",
      "type": "event"
    },
    {
      "anonymous": false,
      "inputs": [
        {
          "indexed": false,
          "internalType": "uint256",
          "name": "_epoch",
          "type": "uint256"
        }
      ],
      "name": "Verified",
      "type": "event"
    },
    {
      "anonymous": false,
      "inputs": [
        {
          "indexed": false,
          "internalType": "uint256",
          "name": "_newSequencerDelayLimit",
          "type": "uint256"
        }
      ],
      "name": "sequencerDelayLimitUpdateReceived",
      "type": "event"
    },
    {
      "inputs": [],
      "name": "amb",
      "outputs": [
        {
          "internalType": "contract IAMB",
          "name": "",
          "type": "address"
        }
      ],
      "stateMutability": "view",
      "type": "function"
    },
    {
      "inputs": [],
      "name": "burn",
      "outputs": [
        {
          "internalType": "uint256",
          "name": "",
          "type": "uint256"
        }
      ],
      "stateMutability": "view",
      "type": "function"
    },
    {
      "inputs": [
        {
          "components": [
            {
              "internalType": "bytes32",
              "name": "stateRoot",
              "type": "bytes32"
            },
            {
              "internalType": "address",
              "name": "claimer",
              "type": "address"
            },
            {
              "internalType": "uint32",
              "name": "timestampClaimed",
              "type": "uint32"
            },
            {
              "internalType": "uint32",
              "name": "timestampVerification",
              "type": "uint32"
            },
            {
              "internalType": "uint32",
              "name": "blocknumberVerification",
              "type": "uint32"
            },
            {
              "internalType": "enum Party",
              "name": "honest",
              "type": "uint8"
            },
            {
              "internalType": "address",
              "name": "challenger",
              "type": "address"
            }
          ],
          "internalType": "struct Claim",
          "name": "_claim",
          "type": "tuple"
        }
      ],
      "name": "censorshipTestStatus",
      "outputs": [
        {
          "internalType": "enum VeaOutboxArbToGnosis.CensorshipTestStatus",
          "name": "status",
          "type": "uint8"
        }
      ],
      "stateMutability": "view",
      "type": "function"
    },
    {
      "inputs": [
        {
          "internalType": "uint256",
          "name": "_epoch",
          "type": "uint256"
        },
        {
          "components": [
            {
              "internalType": "bytes32",
              "name": "stateRoot",
              "type": "bytes32"
            },
            {
              "internalType": "address",
              "name": "claimer",
              "type": "address"
            },
            {
              "internalType": "uint32",
              "name": "timestampClaimed",
              "type": "uint32"
            },
            {
              "internalType": "uint32",
              "name": "timestampVerification",
              "type": "uint32"
            },
            {
              "internalType": "uint32",
              "name": "blocknumberVerification",
              "type": "uint32"
            },
            {
              "internalType": "enum Party",
              "name": "honest",
              "type": "uint8"
            },
            {
              "internalType": "address",
              "name": "challenger",
              "type": "address"
            }
          ],
          "internalType": "struct Claim",
          "name": "_claim",
          "type": "tuple"
        }
      ],
      "name": "challenge",
      "outputs": [],
      "stateMutability": "nonpayable",
      "type": "function"
    },
    {
      "inputs": [
        {
          "internalType": "uint256",
          "name": "_epoch",
          "type": "uint256"
        },
        {
          "internalType": "bytes32",
          "name": "_stateRoot",
          "type": "bytes32"
        }
      ],
      "name": "claim",
      "outputs": [],
      "stateMutability": "nonpayable",
      "type": "function"
    },
    {
      "inputs": [
        {
          "internalType": "uint256",
          "name": "epoch",
          "type": "uint256"
        }
      ],
      "name": "claimHashes",
      "outputs": [
        {
          "internalType": "bytes32",
          "name": "",
          "type": "bytes32"
        }
      ],
      "stateMutability": "view",
      "type": "function"
    },
    {
      "inputs": [],
      "name": "deposit",
      "outputs": [
        {
          "internalType": "uint256",
          "name": "",
          "type": "uint256"
        }
      ],
      "stateMutability": "view",
      "type": "function"
    },
    {
      "inputs": [],
      "name": "depositPlusReward",
      "outputs": [
        {
          "internalType": "uint256",
          "name": "",
          "type": "uint256"
        }
      ],
      "stateMutability": "view",
      "type": "function"
    },
    {
      "inputs": [
        {
          "internalType": "uint256",
          "name": "timestamp",
          "type": "uint256"
        }
      ],
      "name": "epochAt",
      "outputs": [
        {
          "internalType": "uint256",
          "name": "epoch",
          "type": "uint256"
        }
      ],
      "stateMutability": "view",
      "type": "function"
    },
    {
      "inputs": [],
      "name": "epochNow",
      "outputs": [
        {
          "internalType": "uint256",
          "name": "epoch",
          "type": "uint256"
        }
      ],
      "stateMutability": "view",
      "type": "function"
    },
    {
      "inputs": [],
      "name": "epochPeriod",
      "outputs": [
        {
          "internalType": "uint256",
          "name": "",
          "type": "uint256"
        }
      ],
      "stateMutability": "view",
      "type": "function"
    },
    {
      "inputs": [
        {
          "components": [
            {
              "internalType": "bytes32",
              "name": "stateRoot",
              "type": "bytes32"
            },
            {
              "internalType": "address",
              "name": "claimer",
              "type": "address"
            },
            {
              "internalType": "uint32",
              "name": "timestampClaimed",
              "type": "uint32"
            },
            {
              "internalType": "uint32",
              "name": "timestampVerification",
              "type": "uint32"
            },
            {
              "internalType": "uint32",
              "name": "blocknumberVerification",
              "type": "uint32"
            },
            {
              "internalType": "enum Party",
              "name": "honest",
              "type": "uint8"
            },
            {
              "internalType": "address",
              "name": "challenger",
              "type": "address"
            }
          ],
          "internalType": "struct Claim",
          "name": "_claim",
          "type": "tuple"
        }
      ],
      "name": "hashClaim",
      "outputs": [
        {
          "internalType": "bytes32",
          "name": "hashedClaim",
          "type": "bytes32"
        }
      ],
      "stateMutability": "pure",
      "type": "function"
    },
    {
      "inputs": [
        {
          "internalType": "uint256",
          "name": "_msgId",
          "type": "uint256"
        }
      ],
      "name": "isMsgRelayed",
      "outputs": [
        {
          "internalType": "bool",
          "name": "isRelayed",
          "type": "bool"
        }
      ],
      "stateMutability": "view",
      "type": "function"
    },
    {
      "inputs": [],
      "name": "latestVerifiedEpoch",
      "outputs": [
        {
          "internalType": "uint256",
          "name": "",
          "type": "uint256"
        }
      ],
      "stateMutability": "view",
      "type": "function"
    },
    {
      "inputs": [],
      "name": "maxMissingBlocks",
      "outputs": [
        {
          "internalType": "uint256",
          "name": "",
          "type": "uint256"
        }
      ],
      "stateMutability": "view",
      "type": "function"
    },
    {
      "inputs": [],
      "name": "minChallengePeriod",
      "outputs": [
        {
          "internalType": "uint256",
          "name": "",
          "type": "uint256"
        }
      ],
      "stateMutability": "view",
      "type": "function"
    },
    {
      "inputs": [
        {
          "internalType": "uint256",
          "name": "_epoch",
          "type": "uint256"
        },
        {
          "internalType": "bytes32",
          "name": "_stateRoot",
          "type": "bytes32"
        },
        {
          "components": [
            {
              "internalType": "bytes32",
              "name": "stateRoot",
              "type": "bytes32"
            },
            {
              "internalType": "address",
              "name": "claimer",
              "type": "address"
            },
            {
              "internalType": "uint32",
              "name": "timestampClaimed",
              "type": "uint32"
            },
            {
              "internalType": "uint32",
              "name": "timestampVerification",
              "type": "uint32"
            },
            {
              "internalType": "uint32",
              "name": "blocknumberVerification",
              "type": "uint32"
            },
            {
              "internalType": "enum Party",
              "name": "honest",
              "type": "uint8"
            },
            {
              "internalType": "address",
              "name": "challenger",
              "type": "address"
            }
          ],
          "internalType": "struct Claim",
          "name": "_claim",
          "type": "tuple"
        }
      ],
      "name": "resolveDisputedClaim",
      "outputs": [],
      "stateMutability": "nonpayable",
      "type": "function"
    },
    {
      "inputs": [],
      "name": "routerArbToGnosis",
      "outputs": [
        {
          "internalType": "address",
          "name": "",
          "type": "address"
        }
      ],
      "stateMutability": "view",
      "type": "function"
    },
    {
      "inputs": [],
      "name": "routerChainId",
      "outputs": [
        {
          "internalType": "uint256",
          "name": "",
          "type": "uint256"
        }
      ],
      "stateMutability": "view",
      "type": "function"
    },
    {
      "inputs": [
        {
          "internalType": "bytes32[]",
          "name": "_proof",
          "type": "bytes32[]"
        },
        {
          "internalType": "uint64",
          "name": "_msgId",
          "type": "uint64"
        },
        {
          "internalType": "address",
          "name": "_to",
          "type": "address"
        },
        {
          "internalType": "bytes",
          "name": "_message",
          "type": "bytes"
        }
      ],
      "name": "sendMessage",
      "outputs": [],
      "stateMutability": "nonpayable",
      "type": "function"
    },
    {
      "inputs": [],
      "name": "sequencerDelayLimit",
      "outputs": [
        {
          "internalType": "uint256",
          "name": "",
          "type": "uint256"
        }
      ],
      "stateMutability": "view",
      "type": "function"
    },
    {
      "inputs": [
        {
          "internalType": "uint256",
          "name": "_epoch",
          "type": "uint256"
        },
        {
          "components": [
            {
              "internalType": "bytes32",
              "name": "stateRoot",
              "type": "bytes32"
            },
            {
              "internalType": "address",
              "name": "claimer",
              "type": "address"
            },
            {
              "internalType": "uint32",
              "name": "timestampClaimed",
              "type": "uint32"
            },
            {
              "internalType": "uint32",
              "name": "timestampVerification",
              "type": "uint32"
            },
            {
              "internalType": "uint32",
              "name": "blocknumberVerification",
              "type": "uint32"
            },
            {
              "internalType": "enum Party",
              "name": "honest",
              "type": "uint8"
            },
            {
              "internalType": "address",
              "name": "challenger",
              "type": "address"
            }
          ],
          "internalType": "struct Claim",
          "name": "_claim",
          "type": "tuple"
        }
      ],
      "name": "startVerification",
      "outputs": [],
      "stateMutability": "nonpayable",
      "type": "function"
    },
    {
      "inputs": [],
      "name": "stateRoot",
      "outputs": [
        {
          "internalType": "bytes32",
          "name": "",
          "type": "bytes32"
        }
      ],
      "stateMutability": "view",
      "type": "function"
    },
    {
      "inputs": [],
      "name": "timeoutEpochs",
      "outputs": [
        {
          "internalType": "uint256",
          "name": "",
          "type": "uint256"
        }
      ],
      "stateMutability": "view",
      "type": "function"
    },
    {
      "inputs": [],
      "name": "timestampDelayUpdated",
      "outputs": [
        {
          "internalType": "uint256",
          "name": "",
          "type": "uint256"
        }
      ],
      "stateMutability": "view",
      "type": "function"
    },
    {
      "inputs": [
        {
          "internalType": "uint256",
          "name": "_newSequencerDelayLimit",
          "type": "uint256"
        },
        {
          "internalType": "uint256",
          "name": "_timestamp",
          "type": "uint256"
        }
      ],
      "name": "updateSequencerDelayLimit",
      "outputs": [],
      "stateMutability": "nonpayable",
      "type": "function"
    },
    {
      "inputs": [
        {
          "internalType": "uint256",
          "name": "_epoch",
          "type": "uint256"
        },
        {
          "components": [
            {
              "internalType": "bytes32",
              "name": "stateRoot",
              "type": "bytes32"
            },
            {
              "internalType": "address",
              "name": "claimer",
              "type": "address"
            },
            {
              "internalType": "uint32",
              "name": "timestampClaimed",
              "type": "uint32"
            },
            {
              "internalType": "uint32",
              "name": "timestampVerification",
              "type": "uint32"
            },
            {
              "internalType": "uint32",
              "name": "blocknumberVerification",
              "type": "uint32"
            },
            {
              "internalType": "enum Party",
              "name": "honest",
              "type": "uint8"
            },
            {
              "internalType": "address",
              "name": "challenger",
              "type": "address"
            }
          ],
          "internalType": "struct Claim",
          "name": "_claim",
          "type": "tuple"
        }
      ],
      "name": "verifySnapshot",
      "outputs": [],
      "stateMutability": "nonpayable",
      "type": "function"
    },
    {
      "inputs": [],
      "name": "weth",
      "outputs": [
        {
          "internalType": "contract IWETH",
          "name": "",
          "type": "address"
        }
      ],
      "stateMutability": "view",
      "type": "function"
    },
    {
      "inputs": [
        {
          "internalType": "uint256",
          "name": "_epoch",
          "type": "uint256"
        },
        {
          "components": [
            {
              "internalType": "bytes32",
              "name": "stateRoot",
              "type": "bytes32"
            },
            {
              "internalType": "address",
              "name": "claimer",
              "type": "address"
            },
            {
              "internalType": "uint32",
              "name": "timestampClaimed",
              "type": "uint32"
            },
            {
              "internalType": "uint32",
              "name": "timestampVerification",
              "type": "uint32"
            },
            {
              "internalType": "uint32",
              "name": "blocknumberVerification",
              "type": "uint32"
            },
            {
              "internalType": "enum Party",
              "name": "honest",
              "type": "uint8"
            },
            {
              "internalType": "address",
              "name": "challenger",
              "type": "address"
            }
          ],
          "internalType": "struct Claim",
          "name": "_claim",
          "type": "tuple"
        }
      ],
      "name": "withdrawChallengeDeposit",
      "outputs": [],
      "stateMutability": "nonpayable",
      "type": "function"
    },
    {
      "inputs": [
        {
          "internalType": "uint256",
          "name": "_epoch",
          "type": "uint256"
        },
        {
          "components": [
            {
              "internalType": "bytes32",
              "name": "stateRoot",
              "type": "bytes32"
            },
            {
              "internalType": "address",
              "name": "claimer",
              "type": "address"
            },
            {
              "internalType": "uint32",
              "name": "timestampClaimed",
              "type": "uint32"
            },
            {
              "internalType": "uint32",
              "name": "timestampVerification",
              "type": "uint32"
            },
            {
              "internalType": "uint32",
              "name": "blocknumberVerification",
              "type": "uint32"
            },
            {
              "internalType": "enum Party",
              "name": "honest",
              "type": "uint8"
            },
            {
              "internalType": "address",
              "name": "challenger",
              "type": "address"
            }
          ],
          "internalType": "struct Claim",
          "name": "_claim",
          "type": "tuple"
        }
      ],
      "name": "withdrawChallengerEscapeHatch",
      "outputs": [],
      "stateMutability": "nonpayable",
      "type": "function"
    },
    {
      "inputs": [
        {
          "internalType": "uint256",
          "name": "_epoch",
          "type": "uint256"
        },
        {
          "components": [
            {
              "internalType": "bytes32",
              "name": "stateRoot",
              "type": "bytes32"
            },
            {
              "internalType": "address",
              "name": "claimer",
              "type": "address"
            },
            {
              "internalType": "uint32",
              "name": "timestampClaimed",
              "type": "uint32"
            },
            {
              "internalType": "uint32",
              "name": "timestampVerification",
              "type": "uint32"
            },
            {
              "internalType": "uint32",
              "name": "blocknumberVerification",
              "type": "uint32"
            },
            {
              "internalType": "enum Party",
              "name": "honest",
              "type": "uint8"
            },
            {
              "internalType": "address",
              "name": "challenger",
              "type": "address"
            }
          ],
          "internalType": "struct Claim",
          "name": "_claim",
          "type": "tuple"
        }
      ],
      "name": "withdrawClaimDeposit",
      "outputs": [],
      "stateMutability": "nonpayable",
      "type": "function"
    },
    {
      "inputs": [
        {
          "internalType": "uint256",
          "name": "_epoch",
          "type": "uint256"
        },
        {
          "components": [
            {
              "internalType": "bytes32",
              "name": "stateRoot",
              "type": "bytes32"
            },
            {
              "internalType": "address",
              "name": "claimer",
              "type": "address"
            },
            {
              "internalType": "uint32",
              "name": "timestampClaimed",
              "type": "uint32"
            },
            {
              "internalType": "uint32",
              "name": "timestampVerification",
              "type": "uint32"
            },
            {
              "internalType": "uint32",
              "name": "blocknumberVerification",
              "type": "uint32"
            },
            {
              "internalType": "enum Party",
              "name": "honest",
              "type": "uint8"
            },
            {
              "internalType": "address",
              "name": "challenger",
              "type": "address"
            }
          ],
          "internalType": "struct Claim",
          "name": "_claim",
          "type": "tuple"
        }
      ],
      "name": "withdrawClaimerEscapeHatch",
      "outputs": [],
      "stateMutability": "nonpayable",
      "type": "function"
    }
  ],
  "transactionHash": "0xf81ccb617c06afcdf64f3d4f2f398561a9202330e2e788c0028edd340fca4131",
  "args": [
    "200000000000000000",
    3600,
    10800,
    1000000,
    "0x99Ca51a3534785ED619f46A79C7Ad65Fa8d85e7a",
    "0x22d70804d4Ef5BB206C6B39e3267DFe8a0f97d27",
    86400,
    1000000,
    11155111,
    "0x8d74e5e4DA11629537C4575cB0f33b4F0Dfa42EB"
  ],
  "numDeployments": 1,
  "solcInputHash": "1149cad1075bcb2114060ce12accca6a",
  "bytecode": "0x6101e060405234801562000011575f80fd5b5060405162002ac838038062002ac88339810160408190526200003491620000f0565b60e08a90526101608990526101a08790526101808890526001600160a01b0380871660805285811660a05260048590556101c0849052610140839052811660c0526200008260028b62000199565b610100819052620000958b6002620001b9565b620000a19190620001d9565b6101205261016051600190620000b8904262000199565b620000c49190620001d9565b60015550620001ef98505050505050505050565b6001600160a01b0381168114620000ed575f80fd5b50565b5f805f805f805f805f806101408b8d0312156200010b575f80fd5b8a51995060208b0151985060408b0151975060608b0151965060808b01516200013481620000d8565b60a08c01519096506200014781620000d8565b8095505060c08b0151935060e08b015192506101008b015191506101208b01516200017281620000d8565b809150509295989b9194979a5092959850565b634e487b7160e01b5f52601160045260245ffd5b5f82620001b457634e487b7160e01b5f52601260045260245ffd5b500490565b8082028115828204841417620001d357620001d362000185565b92915050565b81810381811115620001d357620001d362000185565b60805160a05160c05160e05161010051610120516101405161016051610180516101a0516101c051612724620003a45f395f8181610431015261215e01525f818161045801528181610781015281816119c901528181611bba0152611e7201525f81816104b901526120f301525f818161047f015281816107a501528181610b2e01528181610efe015281816117a10152818161194b015281816119ed01528181611bde0152611e9601525f81816103ef0152818161091a0152610c4501525f81816103c801526114b601525f818161034c015281816113ca015261161401525f81816104e00152818161058001528181610e460152818161173f01528181611d3001528181611dc301528181611fe8015261208201525f81816102e6015281816105a601528181610e6c015281816113f0015281816114570152818161163a015281816116a1015281816116e401528181611d5601528181611de90152818161200e01526120a801525f818161050701528181610a050152610d3001525f8181610218015281816108200152818161089a0152818161097c01528181610b6301528181610bc50152610ca701526127245ff3fe608060405234801561000f575f80fd5b50600436106101e7575f3560e01c8063541adcca11610109578063b5b7a1841161009e578063d5e6a9df1161006e578063d5e6a9df14610502578063da2b7bc414610529578063df19e6ff1461053c578063e813a7551461055c575f80fd5b8063b5b7a1841461047a578063b633b944146104a1578063c2114a16146104b4578063d0e30db0146104db575f80fd5b8063930f28af116100d9578063930f28af146104115780639588eca214610424578063aa22a1c61461042c578063b044397e14610453575f80fd5b8063541adcca146103a75780637ffc2a6e146103ba578063836e344b146103c35780638d96fdea146103ea575f80fd5b806331ddf7431161017f57806344df8e701161014f57806344df8e70146103475780634788cb381461036e57806349b4299e146103815780634a439cfe14610394575f80fd5b806331ddf743146102bb5780633ce43cfd146102ce5780633fc8cef3146102e157806343b066d514610308575f80fd5b80632639c060116101ba5780632639c0601461026d57806327ee6bdd1461028c5780632c1925191461029557806331d14457146102a8575f80fd5b806301139b68146101eb5780630f0adca5146102005780631062b39a14610213578063222ae78614610257575b5f80fd5b6101fe6101f9366004612293565b610565565b005b6101fe61020e3660046122bf565b61077f565b61023a7f000000000000000000000000000000000000000000000000000000000000000081565b6040516001600160a01b0390911681526020015b60405180910390f35b61025f610b28565b60405190815260200161024e565b61025f61027b3660046122f3565b60026020525f908152604090205481565b61025f60015481565b6101fe6102a336600461230a565b610b58565b6101fe6102b636600461230a565b610e2b565b6101fe6102c9366004612386565b61107a565b6101fe6102dc36600461243f565b61130a565b61023a7f000000000000000000000000000000000000000000000000000000000000000081565b6103376103163660046122f3565b600881901c5f90815260036020526040902054600160ff9092161c81161490565b604051901515815260200161024e565b61025f7f000000000000000000000000000000000000000000000000000000000000000081565b6101fe61037c36600461243f565b61153a565b6101fe61038f366004612293565b61176b565b61025f6103a23660046122f3565b611945565b61025f6103b5366004612475565b611976565b61025f60055481565b61025f7f000000000000000000000000000000000000000000000000000000000000000081565b61025f7f000000000000000000000000000000000000000000000000000000000000000081565b6101fe61041f366004612293565b6119c7565b61025f5f5481565b61025f7f000000000000000000000000000000000000000000000000000000000000000081565b61025f7f000000000000000000000000000000000000000000000000000000000000000081565b61025f7f000000000000000000000000000000000000000000000000000000000000000081565b6101fe6104af366004612293565b611bb8565b61025f7f000000000000000000000000000000000000000000000000000000000000000081565b61025f7f000000000000000000000000000000000000000000000000000000000000000081565b61023a7f000000000000000000000000000000000000000000000000000000000000000081565b6101fe610537366004612293565b611e70565b61054f61054a366004612475565b6120d7565b60405161024e91906124aa565b61025f60045481565b6040516323b872dd60e01b81523360048201523060248201527f000000000000000000000000000000000000000000000000000000000000000060448201527f00000000000000000000000000000000000000000000000000000000000000006001600160a01b0316906323b872dd906064016020604051808303815f875af11580156105f4573d5f803e3d5ffd5b505050506040513d601f19601f8201168201806040525081019061061891906124c4565b61063d5760405162461bcd60e51b8152600401610634906124e3565b60405180910390fd5b61064681611976565b5f83815260026020526040902054146106715760405162461bcd60e51b815260040161063490612512565b60c08101516001600160a01b0316156106cc5760405162461bcd60e51b815260206004820152601960248201527f436c61696d20616c7265616479206368616c6c656e6765642e000000000000006044820152606401610634565b5f8160a0015160028111156106e3576106e3612496565b146107305760405162461bcd60e51b815260206004820152601760248201527f436c61696d20616c72656164792076657269666965642e0000000000000000006044820152606401610634565b3360c082015261073f81611976565b5f83815260026020526040808220929092559051339184917fcfe09ca25f55d949baba5e280f5750c9ba4b9048fca5532f916067d433afe4d79190a35050565b7f00000000000000000000000000000000000000000000000000000000000000006001547f000000000000000000000000000000000000000000000000000000000000000042816107d2576107d261253a565b040311156108155760405162461bcd60e51b815260206004820152601060248201526f213934b233b29029b43aba3237bbb71760811b6044820152606401610634565b336001600160a01b037f000000000000000000000000000000000000000000000000000000000000000016146108985760405162461bcd60e51b815260206004820152602260248201527f4e6f742066726f6d206e617469766520476e6f73697320414d42206272696467604482015261329760f11b6064820152608401610634565b7f00000000000000000000000000000000000000000000000000000000000000006001600160a01b0316639e307dff6040518163ffffffff1660e01b8152600401602060405180830381865afa1580156108f4573d5f803e3d5ffd5b505050506040513d601f19601f82011682018060405250810190610918919061254e565b7f00000000000000000000000000000000000000000000000000000000000000001461097a5760405162461bcd60e51b815260206004820152601160248201527024b73b30b634b21031b430b4b71034b21760791b6044820152606401610634565b7f00000000000000000000000000000000000000000000000000000000000000006001600160a01b031663d67bdd256040518163ffffffff1660e01b8152600401602060405180830381865afa1580156109d6573d5f803e3d5ffd5b505050506040513d601f19601f820116820180604052508101906109fa9190612565565b6001600160a01b03167f00000000000000000000000000000000000000000000000000000000000000006001600160a01b031614610a6d5760405162461bcd60e51b815260206004820152601060248201526f2737ba10333937b6903937baba32b91760811b6044820152606401610634565b60015483118015610a7d57508115155b15610abf5760018390555f8290556040518381527ff786e7f77ede00a02a5464f8f0555798f42ba99a4a920ef2778db8d75e4656f79060200160405180910390a15b610ac881611976565b5f8481526002602052604090205403610b23578051829003610af057600160a0820152610b0b565b60c08101516001600160a01b031615610b0b57600260a08201525b610b1481611976565b5f848152600260205260409020555b505050565b5f610b537f000000000000000000000000000000000000000000000000000000000000000042612594565b905090565b336001600160a01b037f00000000000000000000000000000000000000000000000000000000000000001614610bc35760405162461bcd60e51b815260206004820152601060248201526f2737ba10333937b690313934b233b29760811b6044820152606401610634565b7f00000000000000000000000000000000000000000000000000000000000000006001600160a01b0316639e307dff6040518163ffffffff1660e01b8152600401602060405180830381865afa158015610c1f573d5f803e3d5ffd5b505050506040513d601f19601f82011682018060405250810190610c43919061254e565b7f000000000000000000000000000000000000000000000000000000000000000014610ca55760405162461bcd60e51b815260206004820152601160248201527024b73b30b634b21031b430b4b71034b21760791b6044820152606401610634565b7f00000000000000000000000000000000000000000000000000000000000000006001600160a01b031663d67bdd256040518163ffffffff1660e01b8152600401602060405180830381865afa158015610d01573d5f803e3d5ffd5b505050506040513d601f19601f82011682018060405250810190610d259190612565565b6001600160a01b03167f00000000000000000000000000000000000000000000000000000000000000006001600160a01b031614610d985760405162461bcd60e51b815260206004820152601060248201526f2737ba10333937b6903937baba32b91760811b6044820152606401610634565b8060055410610de05760405162461bcd60e51b815260206004820152601460248201527326b2b9b9b0b3b29034b99037baba3230ba32b21760611b6044820152606401610634565b8160045414610e2757600482905560058190556040518281527f684f6fb71cbcb798156dcca2a95dbd142fa1f8957637833b1897ab89e05aa7079060200160405180910390a15b5050565b6040516323b872dd60e01b81523360048201523060248201527f000000000000000000000000000000000000000000000000000000000000000060448201527f00000000000000000000000000000000000000000000000000000000000000006001600160a01b0316906323b872dd906064016020604051808303815f875af1158015610eba573d5f803e3d5ffd5b505050506040513d601f19601f82011682018060405250810190610ede91906124c4565b610efa5760405162461bcd60e51b8152600401610634906124e3565b60017f00000000000000000000000000000000000000000000000000000000000000004281610f2b57610f2b61253a565b04038214610f7b5760405162461bcd60e51b815260206004820152601960248201527f45706f636820686173206e6f7420796574207061737365642e000000000000006044820152606401610634565b80610f985760405162461bcd60e51b815260040161063490612512565b5f8281526002602052604090205415610fe95760405162461bcd60e51b815260206004820152601360248201527221b630b4b69030b63932b0b23c9036b0b2329760691b6044820152606401610634565b6040805160e0810182528281523360208201524263ffffffff16918101919091525f606082018190526080820181905260a0820181905260c082015261102e90611976565b5f838152600260209081526040918290209290925551828152839133917fd95107f4584744c6c893a04c43058aadd1ce8aac8ca5d64140eaf277de6c1d57910160405180910390a35050565b604085106110bc5760405162461bcd60e51b815260206004820152600f60248201526e283937b7b3103a37b7903637b7339760891b6044820152606401610634565b5f848484846040516020016110d494939291906125b3565b604051602081830303815290604052805190602001209050805f5260205f2090505f5b8681101561114c575f888883818110611112576111126125f4565b9050602002013590508281111561113557825f528060205260405f209250611143565b805f528260205260405f2092505b506001016110f7565b50805f541461118e5760405162461bcd60e51b815260206004820152600e60248201526d24b73b30b634b210383937b7b31760911b6044820152606401610634565b600885901c66ffffffffffffff165f8181526003602052604090205460ff87169080821c600116156112025760405162461bcd60e51b815260206004820152601760248201527f4d65737361676520616c72656164792072656c617965640000000000000000006044820152606401610634565b5f838152600360205260408082206001851b84179055516001600160a01b038916906112319089908990612608565b5f604051808303815f865af19150503d805f811461126a576040519150601f19603f3d011682016040523d82523d5f602084013e61126f565b606091505b50509050806112c05760405162461bcd60e51b815260206004820152601760248201527f4661696c656420746f2063616c6c20636f6e74726163740000000000000000006044820152606401610634565b60405167ffffffffffffffff8a1681527f54303fab361bc52c2f1f56ace7351189582264f74ce47a6e7c3f478d64c429439060200160405180910390a15050505050505050505050565b61131c6103b536839003830183612475565b5f83815260026020526040902054146113475760405162461bcd60e51b815260040161063490612512565b600261135960c0830160a08401612617565b600281111561136a5761136a612496565b146113ab5760405162461bcd60e51b815260206004820152601160248201527021b430b63632b733b2903330b4b632b21760791b6044820152606401610634565b5f828152600260205260408082209190915551630852cd8d60e31b81527f000000000000000000000000000000000000000000000000000000000000000060048201527f00000000000000000000000000000000000000000000000000000000000000006001600160a01b0316906342966c68906024015f604051808303815f87803b158015611439575f80fd5b505af115801561144b573d5f803e3d5ffd5b50506001600160a01b037f000000000000000000000000000000000000000000000000000000000000000016915063a9059cbb905061149060e0840160c08501612630565b6040516001600160e01b031960e084901b1681526001600160a01b0390911660048201527f000000000000000000000000000000000000000000000000000000000000000060248201526044015b6020604051808303815f875af11580156114fa573d5f803e3d5ffd5b505050506040513d601f19601f8201168201806040525081019061151e91906124c4565b610e275760405162461bcd60e51b8152600401610634906124e3565b61154c6103b536839003830183612475565b5f83815260026020526040902054146115775760405162461bcd60e51b815260040161063490612512565b600161158960c0830160a08401612617565b600281111561159a5761159a612496565b146115d75760405162461bcd60e51b815260206004820152600d60248201526c21b630b4b6903330b4b632b21760991b6044820152606401610634565b5f8281526002602052604081208190556115f760e0830160c08401612630565b6001600160a01b0316146116da57604051630852cd8d60e31b81527f000000000000000000000000000000000000000000000000000000000000000060048201527f00000000000000000000000000000000000000000000000000000000000000006001600160a01b0316906342966c68906024015f604051808303815f87803b158015611683575f80fd5b505af1158015611695573d5f803e3d5ffd5b50506001600160a01b037f000000000000000000000000000000000000000000000000000000000000000016915063a9059cbb90506114906040840160208501612630565b6001600160a01b037f00000000000000000000000000000000000000000000000000000000000000001663a9059cbb6117196040840160208501612630565b6040516001600160e01b031960e084901b1681526001600160a01b0390911660048201527f000000000000000000000000000000000000000000000000000000000000000060248201526044016114de565b61177481611976565b5f838152600260205260409020541461179f5760405162461bcd60e51b815260040161063490612512565b7f00000000000000000000000000000000000000000000000000000000000000006004546117cd919061264b565b60408201516117e29063ffffffff164261265e565b10156118455760405162461bcd60e51b815260206004820152602c60248201527f436c61696d206d75737420776169742061746c65617374206d61784c3253746160448201526b3a32a9bcb731a232b630bc9760a11b6064820152608401610634565b5f61184f826120d7565b9050600281600381111561186557611865612496565b148061188157505f81600381111561187f5761187f612496565b145b6118ea5760405162461bcd60e51b815260206004820152603460248201527f436c61696d20766572696669636174696f6e20696e2070726f6772657373206f604482015273391030b63932b0b23c9031b7b6b83632ba32b21760611b6064820152608401610634565b63ffffffff42811660608401524316608083015261190782611976565b5f8481526002602052604080822092909255905184917f37b700b61b9b4710dddb0c3316b2be7ef6088ed4b1d7bfe0fb98be8f9a163e1691a2505050565b5f6119707f000000000000000000000000000000000000000000000000000000000000000083612594565b92915050565b80516020808301516040808501516060860151608087015160a088015160c089015194515f986119aa989097969101612671565b604051602081830303815290604052805190602001209050919050565b7f00000000000000000000000000000000000000000000000000000000000000006001547f00000000000000000000000000000000000000000000000000000000000000004281611a1a57611a1a61253a565b04031115611a5d5760405162461bcd60e51b815260206004820152601060248201526f213934b233b29029b43aba3237bbb71760811b6044820152606401610634565b611a6681611976565b5f8381526002602052604090205414611a915760405162461bcd60e51b815260040161063490612512565b60c08101516001600160a01b031615611ae35760405162461bcd60e51b815260206004820152601460248201527321b630b4b69034b99031b430b63632b733b2b21760611b6044820152606401610634565b6001611aee826120d7565b6003811115611aff57611aff612496565b14611b4c5760405162461bcd60e51b815260206004820152601b60248201527f43656e736f72736869702074657374206e6f74207061737365642e00000000006044820152606401610634565b600154821115611b9357600182905580515f556040518281527ff786e7f77ede00a02a5464f8f0555798f42ba99a4a920ef2778db8d75e4656f79060200160405180910390a15b600160a0820152611ba381611976565b5f928352600260205260409092209190915550565b7f00000000000000000000000000000000000000000000000000000000000000006001547f00000000000000000000000000000000000000000000000000000000000000004281611c0b57611c0b61253a565b040311611c4c5760405162461bcd60e51b815260206004820152600f60248201526e213934b233b290293ab73734b7339760891b6044820152606401610634565b611c5581611976565b5f8381526002602052604090205414611c805760405162461bcd60e51b815260040161063490612512565b5f8160a001516002811115611c9757611c97612496565b14611cd65760405162461bcd60e51b815260206004820152600f60248201526e21b630b4b6903932b9b7b63b32b21760891b6044820152606401610634565b60c08101516001600160a01b031615610e275760208101516001600160a01b0316611d87575f828152600260205260408082209190915560c0820151905163a9059cbb60e01b81526001600160a01b0391821660048201527f000000000000000000000000000000000000000000000000000000000000000060248201527f00000000000000000000000000000000000000000000000000000000000000009091169063a9059cbb906044016114de565b60c0810180515f909152611d9a82611976565b505f839052600260205260405163a9059cbb60e01b81526001600160a01b0382811660048301527f000000000000000000000000000000000000000000000000000000000000000060248301527f0000000000000000000000000000000000000000000000000000000000000000169063a9059cbb906044015b6020604051808303815f875af1158015611e30573d5f803e3d5ffd5b505050506040513d601f19601f82011682018060405250810190611e5491906124c4565b610b235760405162461bcd60e51b8152600401610634906124e3565b7f00000000000000000000000000000000000000000000000000000000000000006001547f00000000000000000000000000000000000000000000000000000000000000004281611ec357611ec361253a565b040311611f045760405162461bcd60e51b815260206004820152600f60248201526e213934b233b290293ab73734b7339760891b6044820152606401610634565b611f0d81611976565b5f8381526002602052604090205414611f385760405162461bcd60e51b815260040161063490612512565b5f8160a001516002811115611f4f57611f4f612496565b14611f8e5760405162461bcd60e51b815260206004820152600f60248201526e21b630b4b6903932b9b7b63b32b21760891b6044820152606401610634565b60208101516001600160a01b031615610e275760c08101516001600160a01b031661203f575f82815260026020908152604080832092909255820151905163a9059cbb60e01b81526001600160a01b0391821660048201527f000000000000000000000000000000000000000000000000000000000000000060248201527f00000000000000000000000000000000000000000000000000000000000000009091169063a9059cbb906044016114de565b6020810180515f90915261205282611976565b5f8481526002602052604090819020919091555163a9059cbb60e01b81526001600160a01b0382811660048301527f000000000000000000000000000000000000000000000000000000000000000060248301527f0000000000000000000000000000000000000000000000000000000000000000169063a9059cbb90604401611e14565b5f816060015163ffffffff165f036120f157506002919050565b7f0000000000000000000000000000000000000000000000000000000000000000826060015163ffffffff164203101561212d57506003919050565b5f6005836060015163ffffffff1642038161214a5761214a61253a565b608085015163ffffffff16919004019050437f00000000000000000000000000000000000000000000000000000000000000008183031161218e5760019250612192565b5f92505b50505b919050565b6001600160a01b03811681146121ae575f80fd5b50565b80356121958161219a565b803563ffffffff81168114612195575f80fd5b803560038110612195575f80fd5b5f60e082840312156121ed575f80fd5b60405160e0810181811067ffffffffffffffff8211171561221c57634e487b7160e01b5f52604160045260245ffd5b60405282358152905080612232602084016121b1565b6020820152612243604084016121bc565b6040820152612254606084016121bc565b6060820152612265608084016121bc565b608082015261227660a084016121cf565b60a082015261228760c084016121b1565b60c08201525092915050565b5f8061010083850312156122a5575f80fd5b823591506122b684602085016121dd565b90509250929050565b5f805f61012084860312156122d2575f80fd5b83359250602084013591506122ea85604086016121dd565b90509250925092565b5f60208284031215612303575f80fd5b5035919050565b5f806040838503121561231b575f80fd5b50508035926020909101359150565b803567ffffffffffffffff81168114612195575f80fd5b5f8083601f840112612351575f80fd5b50813567ffffffffffffffff811115612368575f80fd5b60208301915083602082850101111561237f575f80fd5b9250929050565b5f805f805f806080878903121561239b575f80fd5b863567ffffffffffffffff808211156123b2575f80fd5b818901915089601f8301126123c5575f80fd5b8135818111156123d3575f80fd5b8a60208260051b85010111156123e7575f80fd5b602083019850809750506123fd60208a0161232a565b955061240b60408a016121b1565b94506060890135915080821115612420575f80fd5b5061242d89828a01612341565b979a9699509497509295939492505050565b5f80828403610100811215612452575f80fd5b8335925060e0601f1982011215612467575f80fd5b506020830190509250929050565b5f60e08284031215612485575f80fd5b61248f83836121dd565b9392505050565b634e487b7160e01b5f52602160045260245ffd5b60208101600483106124be576124be612496565b91905290565b5f602082840312156124d4575f80fd5b8151801515811461248f575f80fd5b6020808252601590820152742330b4b632b2102ba2aa24103a3930b739b332b91760591b604082015260600190565b6020808252600e908201526d24b73b30b634b21031b630b4b69760911b604082015260600190565b634e487b7160e01b5f52601260045260245ffd5b5f6020828403121561255e575f80fd5b5051919050565b5f60208284031215612575575f80fd5b815161248f8161219a565b634e487b7160e01b5f52601160045260245ffd5b5f826125ae57634e487b7160e01b5f52601260045260245ffd5b500490565b60c085901b6001600160c01b0319168152606084901b6bffffffffffffffffffffffff191660088201528183601c8301375f9101601c019081529392505050565b634e487b7160e01b5f52603260045260245ffd5b818382375f9101908152919050565b5f60208284031215612627575f80fd5b61248f826121cf565b5f60208284031215612640575f80fd5b813561248f8161219a565b8082018082111561197057611970612580565b8181038181111561197057611970612580565b8781525f6bffffffffffffffffffffffff19808960601b16602084015263ffffffff60e01b808960e01b166034850152808860e01b166038850152808760e01b16603c85015250600385106126c8576126c8612496565b60f89490941b60408301525060609190911b90911660418201526055019594505050505056fea2646970667358221220085a7f7ce89fabfee13037425388b7d529faac1107a11bebfa1730d16cdf9fb264736f6c63430008180033",
  "devdoc": {
    "details": "Vea Outbox From Arbitrum to Gnosis. Note: This contract is deployed on Gnosis.",
    "events": {
      "Challenged(uint256,address)": {
        "details": "This event indicates that `sendSnapshot(epoch)` should be called in the inbox.",
        "params": {
          "_challenger": "The address of the challenger.",
          "_epoch": "The epoch associated with the challenged claim."
        }
      },
      "Claimed(address,uint256,bytes32)": {
        "details": "Watchers check this event to challenge fraud.",
        "params": {
          "_claimer": "The address of the claimer.",
          "_epoch": "The epoch associated with the claim.",
          "_stateRoot": "The state root of the claim."
        }
      },
      "MessageRelayed(uint64)": {
        "details": "This event indicates that a message has been relayed.",
        "params": {
          "_msgId": "The msgId of the message that was relayed."
        }
      },
      "VerificationStarted(uint256)": {
        "details": "This event indicates that the censorship test started and all challengers are ready even in the worst case scenario of a malicious sequencer.",
        "params": {
          "_epoch": "The epoch that started verification."
        }
      },
      "Verified(uint256)": {
        "details": "This events indicates that verification has succeeded. The messages are ready to be relayed.",
        "params": {
          "_epoch": "The epoch that was verified."
        }
      },
      "sequencerDelayLimitUpdateReceived(uint256)": {
        "details": "This event indicates the sequencer limit updated.",
        "params": {
          "_newSequencerDelayLimit": "The new sequencer delay limit."
        }
      }
    },
    "kind": "dev",
    "methods": {
      "censorshipTestStatus((bytes32,address,uint32,uint32,uint32,uint8,address))": {
        "details": "Gets the status of the censorship test for claim.",
        "params": {
          "_claim": "The claim to test."
        },
        "returns": {
          "status": "True if the claim passed the censorship test."
        }
      },
      "challenge(uint256,(bytes32,address,uint32,uint32,uint32,uint8,address))": {
        "details": "Submit a challenge for the claim of the inbox state root snapshot taken at 'epoch'.",
        "params": {
          "_claim": "The claim associated with the epoch.",
          "_epoch": "The epoch of the claim to challenge."
        }
      },
      "claim(uint256,bytes32)": {
        "details": "Submit a claim about the _stateRoot at _epoch and submit a deposit.",
        "params": {
          "_epoch": "The epoch for which the claim is made.",
          "_stateRoot": "The state root to claim."
        }
      },
      "constructor": {
        "details": "Constructor. Note: epochPeriod must match the VeaInboxArbToGnosis contract deployment on Arbitrum, since it's on a different chain, we can't read it and trust the deployer to set a correct value",
        "params": {
          "_amb": "The address of the AMB contract on Gnosis.",
          "_deposit": "The deposit amount to submit a claim in wei.",
          "_epochPeriod": "The duration of each epoch.",
          "_maxMissingBlocks": "The maximum number of blocks that can be missing in a challenge period.",
          "_minChallengePeriod": "The minimum time window to challenge a claim.",
          "_routerArbToGnosis": "The address of the router on Ethereum that routes from Arbitrum to Gnosis.",
          "_routerChainId": "The chain id of the routerArbToGnosis.",
          "_sequencerDelayLimit": "The maximum delay in seconds that the Arbitrum sequencer can backdate transactions.",
          "_timeoutEpochs": "The epochs before the bridge is considered shutdown.",
          "_weth": "The address of the WETH contract on Gnosis."
        }
      },
      "epochAt(uint256)": {
        "details": "Get the current epoch from the outbox's point of view using the Ethereum L1 clock.",
        "returns": {
          "epoch": "The hash of the claim."
        }
      },
      "epochNow()": {
        "details": "Get the current epoch from the outbox's point of view using the Ethereum L1 clock.",
        "returns": {
          "epoch": "The hash of the claim."
        }
      },
      "hashClaim((bytes32,address,uint32,uint32,uint32,uint8,address))": {
        "details": "Hashes the claim.",
        "params": {
          "_claim": "The claim to hash."
        },
        "returns": {
          "hashedClaim": "The hash of the claim."
        }
      },
      "isMsgRelayed(uint256)": {
        "details": "Get the msg relayed status.",
        "params": {
          "_msgId": "The msgId to check."
        },
        "returns": {
          "isRelayed": "True if the msg was relayed."
        }
      },
      "resolveDisputedClaim(uint256,bytes32,(bytes32,address,uint32,uint32,uint32,uint8,address))": {
        "details": "Resolves any challenge of the optimistic claim for '_epoch'.",
        "params": {
          "_claim": "The claim associated with the epoch.",
          "_epoch": "The epoch to verify.",
          "_stateRoot": "The true state root for the epoch."
        }
      },
      "sendMessage(bytes32[],uint64,address,bytes)": {
        "details": "Verifies and relays the message. UNTRUSTED.",
        "params": {
          "_message": "The message encoded in the vea inbox as abi.encodeWithSelector(fnSelector, msg.sender, param1, param2, ...)",
          "_msgId": "The zero based index of the message in the inbox.",
          "_proof": "The merkle proof to prove the message inclusion in the inbox state root.",
          "_to": "The address of the contract on Gnosis to call."
        }
      },
      "startVerification(uint256,(bytes32,address,uint32,uint32,uint32,uint8,address))": {
        "details": "Start verification for claim for 'epoch'.",
        "params": {
          "_claim": "The claim associated with the epoch.",
          "_epoch": "The epoch of the claim to challenge."
        }
      },
      "updateSequencerDelayLimit(uint256,uint256)": {
        "details": "Set the sequencerDelayLimit by receiving a message from the AMB.",
        "params": {
          "_newSequencerDelayLimit": "The delaySeconds from the MaxTimeVariation struct in the Arbitrum Sequencer contract.",
          "_timestamp": "The timestamp of the message."
        }
      },
      "verifySnapshot(uint256,(bytes32,address,uint32,uint32,uint32,uint8,address))": {
        "details": "Resolves the optimistic claim for '_epoch'.",
        "params": {
          "_claim": "The claim associated with the epoch.",
          "_epoch": "The epoch of the optimistic claim."
        }
      },
      "withdrawChallengeDeposit(uint256,(bytes32,address,uint32,uint32,uint32,uint8,address))": {
        "details": "Sends the deposit back to the Challenger if successful. Includes a portion of the Bridger's deposit.",
        "params": {
          "_claim": "The claim associated with the epoch.",
          "_epoch": "The epoch associated with the challenge deposit to withraw."
        }
      },
      "withdrawChallengerEscapeHatch(uint256,(bytes32,address,uint32,uint32,uint32,uint8,address))": {
        "details": "When bridge is shutdown, no claim disputes can be resolved. This allows the challenger to withdraw their deposit.",
        "params": {
          "_claim": "The claim associated with the epoch.",
          "_epoch": "The epoch associated with the claim deposit to withraw."
        }
      },
      "withdrawClaimDeposit(uint256,(bytes32,address,uint32,uint32,uint32,uint8,address))": {
        "details": "Sends the deposit back to the Claimer if successful. Includes a portion of the Challenger's deposit if unsuccessfully challenged.",
        "params": {
          "_claim": "The claim associated with the epoch.",
          "_epoch": "The epoch associated with the claim deposit to withraw."
        }
      },
      "withdrawClaimerEscapeHatch(uint256,(bytes32,address,uint32,uint32,uint32,uint8,address))": {
        "details": "When bridge is shutdown, no claim disputes can be resolved. This allows the claimer to withdraw their deposit.",
        "params": {
          "_claim": "The claim associated with the epoch.",
          "_epoch": "The epoch associated with the claim deposit to withraw."
        }
      }
    },
    "version": 1
  },
  "userdoc": {
    "kind": "user",
    "methods": {
      "resolveDisputedClaim(uint256,bytes32,(bytes32,address,uint32,uint32,uint32,uint8,address))": {
        "notice": "Note: Access restricted to AMB."
      }
    },
    "version": 1
  },
  "storageLayout": {
    "storage": [
      {
        "astId": 450,
        "contract": "src/arbitrumToGnosis/VeaOutboxArbToGnosis.sol:VeaOutboxArbToGnosis",
        "label": "stateRoot",
        "offset": 0,
        "slot": "0",
        "type": "t_bytes32"
      },
      {
        "astId": 452,
        "contract": "src/arbitrumToGnosis/VeaOutboxArbToGnosis.sol:VeaOutboxArbToGnosis",
        "label": "latestVerifiedEpoch",
        "offset": 0,
        "slot": "1",
        "type": "t_uint256"
      },
      {
        "astId": 456,
        "contract": "src/arbitrumToGnosis/VeaOutboxArbToGnosis.sol:VeaOutboxArbToGnosis",
        "label": "claimHashes",
        "offset": 0,
        "slot": "2",
        "type": "t_mapping(t_uint256,t_bytes32)"
      },
      {
        "astId": 460,
        "contract": "src/arbitrumToGnosis/VeaOutboxArbToGnosis.sol:VeaOutboxArbToGnosis",
        "label": "relayed",
        "offset": 0,
        "slot": "3",
        "type": "t_mapping(t_uint256,t_bytes32)"
      },
      {
        "astId": 462,
        "contract": "src/arbitrumToGnosis/VeaOutboxArbToGnosis.sol:VeaOutboxArbToGnosis",
        "label": "sequencerDelayLimit",
        "offset": 0,
        "slot": "4",
        "type": "t_uint256"
      },
      {
        "astId": 464,
        "contract": "src/arbitrumToGnosis/VeaOutboxArbToGnosis.sol:VeaOutboxArbToGnosis",
        "label": "timestampDelayUpdated",
        "offset": 0,
        "slot": "5",
        "type": "t_uint256"
      }
    ],
    "types": {
      "t_bytes32": {
        "encoding": "inplace",
        "label": "bytes32",
        "numberOfBytes": "32"
      },
      "t_mapping(t_uint256,t_bytes32)": {
        "encoding": "mapping",
        "key": "t_uint256",
        "label": "mapping(uint256 => bytes32)",
        "numberOfBytes": "32",
        "value": "t_bytes32"
      },
      "t_uint256": {
        "encoding": "inplace",
        "label": "uint256",
        "numberOfBytes": "32"
      }
    }
  }
}