{
  "address": "0xDBa4fb8C75816CF9DcDbC66eDA361AD198314577",
  "abi": [
    {
      "inputs": [
        {
          "internalType": "uint256",
          "name": "_deposit",
          "type": "uint256"
        },
        {
          "internalType": "uint256",
          "name": "_epochPeriod",
          "type": "uint256"
        },
        {
          "internalType": "uint256",
          "name": "_challengePeriod",
          "type": "uint256"
        },
        {
          "internalType": "uint256",
          "name": "_timeoutEpochs",
          "type": "uint256"
        },
        {
          "internalType": "contract IAMB",
          "name": "_amb",
          "type": "address"
        },
        {
          "internalType": "address",
          "name": "_routerArbToGnosisDevnet",
          "type": "address"
        },
        {
          "internalType": "uint256",
          "name": "_maxMissingBlocks",
          "type": "uint256"
        },
        {
          "internalType": "uint256",
          "name": "_sequencerDelayLimit",
          "type": "uint256"
        },
        {
          "internalType": "uint256",
          "name": "_routerChainId",
          "type": "uint256"
        }
      ],
      "stateMutability": "nonpayable",
      "type": "constructor"
    },
    {
      "anonymous": false,
      "inputs": [
        {
          "indexed": false,
          "internalType": "uint256",
          "name": "_epoch",
          "type": "uint256"
        },
        {
          "indexed": true,
          "internalType": "address",
          "name": "_challenger",
          "type": "address"
        }
      ],
      "name": "Challenged",
      "type": "event"
    },
    {
      "anonymous": false,
      "inputs": [
        {
          "indexed": true,
          "internalType": "address",
          "name": "_claimer",
          "type": "address"
        },
        {
          "indexed": false,
          "internalType": "bytes32",
          "name": "_stateRoot",
          "type": "bytes32"
        }
      ],
      "name": "Claimed",
      "type": "event"
    },
    {
      "anonymous": false,
      "inputs": [
        {
          "indexed": false,
          "internalType": "uint64",
          "name": "_msgId",
          "type": "uint64"
        }
      ],
      "name": "MessageRelayed",
      "type": "event"
    },
    {
      "anonymous": false,
      "inputs": [
        {
          "indexed": false,
          "internalType": "uint256",
          "name": "_epoch",
          "type": "uint256"
        }
      ],
      "name": "VerificationStarted",
      "type": "event"
    },
    {
      "anonymous": false,
      "inputs": [
        {
          "indexed": false,
          "internalType": "uint256",
          "name": "_epoch",
          "type": "uint256"
        }
      ],
      "name": "Verified",
      "type": "event"
    },
    {
      "anonymous": false,
      "inputs": [
        {
          "indexed": false,
          "internalType": "uint256",
          "name": "_newsequencerDelayLimit",
          "type": "uint256"
        }
      ],
      "name": "sequencerDelayLimitUpdateReceived",
      "type": "event"
    },
    {
      "inputs": [],
      "name": "amb",
      "outputs": [
        {
          "internalType": "contract IAMB",
          "name": "",
          "type": "address"
        }
      ],
      "stateMutability": "view",
      "type": "function"
    },
    {
      "inputs": [
        {
          "components": [
            {
              "internalType": "bytes32",
              "name": "stateRoot",
              "type": "bytes32"
            },
            {
              "internalType": "address",
              "name": "claimer",
              "type": "address"
            },
            {
              "internalType": "uint32",
              "name": "timestampClaimed",
              "type": "uint32"
            },
            {
              "internalType": "uint32",
              "name": "timestampVerification",
              "type": "uint32"
            },
            {
              "internalType": "uint32",
              "name": "blocknumberVerification",
              "type": "uint32"
            },
            {
              "internalType": "enum Party",
              "name": "honest",
              "type": "uint8"
            },
            {
              "internalType": "address",
              "name": "challenger",
              "type": "address"
            }
          ],
          "internalType": "struct Claim",
          "name": "_claim",
          "type": "tuple"
        }
      ],
      "name": "censorshipTestStatus",
      "outputs": [
        {
          "internalType": "enum VeaOutboxArbToGnosis.CensorshipTestStatus",
          "name": "status",
          "type": "uint8"
        }
      ],
      "stateMutability": "view",
      "type": "function"
    },
    {
      "inputs": [
        {
          "internalType": "uint256",
          "name": "_epoch",
          "type": "uint256"
        },
        {
          "components": [
            {
              "internalType": "bytes32",
              "name": "stateRoot",
              "type": "bytes32"
            },
            {
              "internalType": "address",
              "name": "claimer",
              "type": "address"
            },
            {
              "internalType": "uint32",
              "name": "timestampClaimed",
              "type": "uint32"
            },
            {
              "internalType": "uint32",
              "name": "timestampVerification",
              "type": "uint32"
            },
            {
              "internalType": "uint32",
              "name": "blocknumberVerification",
              "type": "uint32"
            },
            {
              "internalType": "enum Party",
              "name": "honest",
              "type": "uint8"
            },
            {
              "internalType": "address",
              "name": "challenger",
              "type": "address"
            }
          ],
          "internalType": "struct Claim",
          "name": "_claim",
          "type": "tuple"
        }
      ],
      "name": "challenge",
      "outputs": [],
      "stateMutability": "payable",
      "type": "function"
    },
    {
      "inputs": [
        {
          "internalType": "address",
          "name": "_devnetOperator",
          "type": "address"
        }
      ],
      "name": "changeDevnetOperator",
      "outputs": [],
      "stateMutability": "nonpayable",
      "type": "function"
    },
    {
      "inputs": [
        {
          "internalType": "uint256",
          "name": "_epoch",
          "type": "uint256"
        },
        {
          "internalType": "bytes32",
          "name": "_stateRoot",
          "type": "bytes32"
        }
      ],
      "name": "claim",
      "outputs": [],
      "stateMutability": "payable",
      "type": "function"
    },
    {
      "inputs": [
        {
          "internalType": "uint256",
          "name": "",
          "type": "uint256"
        }
      ],
      "name": "claimHashes",
      "outputs": [
        {
          "internalType": "bytes32",
          "name": "",
          "type": "bytes32"
        }
      ],
      "stateMutability": "view",
      "type": "function"
    },
    {
      "inputs": [],
      "name": "deposit",
      "outputs": [
        {
          "internalType": "uint256",
          "name": "",
          "type": "uint256"
        }
      ],
      "stateMutability": "view",
      "type": "function"
    },
    {
      "inputs": [
        {
          "internalType": "uint256",
          "name": "_epoch",
          "type": "uint256"
        },
        {
          "internalType": "bytes32",
          "name": "_stateroot",
          "type": "bytes32"
        }
      ],
      "name": "devnetAdvanceState",
      "outputs": [],
      "stateMutability": "payable",
      "type": "function"
    },
    {
      "inputs": [],
      "name": "devnetOperator",
      "outputs": [
        {
          "internalType": "address",
          "name": "",
          "type": "address"
        }
      ],
      "stateMutability": "view",
      "type": "function"
    },
    {
      "inputs": [
        {
          "internalType": "uint256",
          "name": "timestamp",
          "type": "uint256"
        }
      ],
      "name": "epochAt",
      "outputs": [
        {
          "internalType": "uint256",
          "name": "epoch",
          "type": "uint256"
        }
      ],
      "stateMutability": "view",
      "type": "function"
    },
    {
      "inputs": [],
      "name": "epochNow",
      "outputs": [
        {
          "internalType": "uint256",
          "name": "epoch",
          "type": "uint256"
        }
      ],
      "stateMutability": "view",
      "type": "function"
    },
    {
      "inputs": [],
      "name": "epochPeriod",
      "outputs": [
        {
          "internalType": "uint256",
          "name": "",
          "type": "uint256"
        }
      ],
      "stateMutability": "view",
      "type": "function"
    },
    {
      "inputs": [
        {
          "components": [
            {
              "internalType": "bytes32",
              "name": "stateRoot",
              "type": "bytes32"
            },
            {
              "internalType": "address",
              "name": "claimer",
              "type": "address"
            },
            {
              "internalType": "uint32",
              "name": "timestampClaimed",
              "type": "uint32"
            },
            {
              "internalType": "uint32",
              "name": "timestampVerification",
              "type": "uint32"
            },
            {
              "internalType": "uint32",
              "name": "blocknumberVerification",
              "type": "uint32"
            },
            {
              "internalType": "enum Party",
              "name": "honest",
              "type": "uint8"
            },
            {
              "internalType": "address",
              "name": "challenger",
              "type": "address"
            }
          ],
          "internalType": "struct Claim",
          "name": "_claim",
          "type": "tuple"
        }
      ],
      "name": "hashClaim",
      "outputs": [
        {
          "internalType": "bytes32",
          "name": "hashedClaim",
          "type": "bytes32"
        }
      ],
      "stateMutability": "pure",
      "type": "function"
    },
    {
      "inputs": [],
      "name": "latestVerifiedEpoch",
      "outputs": [
        {
          "internalType": "uint256",
          "name": "",
          "type": "uint256"
        }
      ],
      "stateMutability": "view",
      "type": "function"
    },
    {
      "inputs": [],
      "name": "maxMissingBlocks",
      "outputs": [
        {
          "internalType": "uint256",
          "name": "",
          "type": "uint256"
        }
      ],
      "stateMutability": "view",
      "type": "function"
    },
    {
      "inputs": [],
      "name": "minChallengePeriod",
      "outputs": [
        {
          "internalType": "uint256",
          "name": "",
          "type": "uint256"
        }
      ],
      "stateMutability": "view",
      "type": "function"
    },
    {
      "inputs": [
        {
          "internalType": "uint256",
          "name": "",
          "type": "uint256"
        }
      ],
      "name": "relayed",
      "outputs": [
        {
          "internalType": "bytes32",
          "name": "",
          "type": "bytes32"
        }
      ],
      "stateMutability": "view",
      "type": "function"
    },
    {
      "inputs": [
        {
          "internalType": "uint256",
          "name": "_epoch",
          "type": "uint256"
        },
        {
          "internalType": "bytes32",
          "name": "_stateRoot",
          "type": "bytes32"
        },
        {
          "components": [
            {
              "internalType": "bytes32",
              "name": "stateRoot",
              "type": "bytes32"
            },
            {
              "internalType": "address",
              "name": "claimer",
              "type": "address"
            },
            {
              "internalType": "uint32",
              "name": "timestampClaimed",
              "type": "uint32"
            },
            {
              "internalType": "uint32",
              "name": "timestampVerification",
              "type": "uint32"
            },
            {
              "internalType": "uint32",
              "name": "blocknumberVerification",
              "type": "uint32"
            },
            {
              "internalType": "enum Party",
              "name": "honest",
              "type": "uint8"
            },
            {
              "internalType": "address",
              "name": "challenger",
              "type": "address"
            }
          ],
          "internalType": "struct Claim",
          "name": "_claim",
          "type": "tuple"
        }
      ],
      "name": "resolveDisputedClaim",
      "outputs": [],
      "stateMutability": "nonpayable",
      "type": "function"
    },
    {
      "inputs": [],
      "name": "routerArbToGnosis",
      "outputs": [
        {
          "internalType": "address",
          "name": "",
          "type": "address"
        }
      ],
      "stateMutability": "view",
      "type": "function"
    },
    {
      "inputs": [],
      "name": "routerChainId",
      "outputs": [
        {
          "internalType": "uint256",
          "name": "",
          "type": "uint256"
        }
      ],
      "stateMutability": "view",
      "type": "function"
    },
    {
      "inputs": [
        {
          "internalType": "bytes32[]",
          "name": "_proof",
          "type": "bytes32[]"
        },
        {
          "internalType": "uint64",
          "name": "_msgId",
          "type": "uint64"
        },
        {
          "internalType": "address",
          "name": "_to",
          "type": "address"
        },
        {
          "internalType": "bytes",
          "name": "_message",
          "type": "bytes"
        }
      ],
      "name": "sendMessage",
      "outputs": [],
      "stateMutability": "nonpayable",
      "type": "function"
    },
    {
      "inputs": [],
      "name": "sequencerDelayLimit",
      "outputs": [
        {
          "internalType": "uint256",
          "name": "",
          "type": "uint256"
        }
      ],
      "stateMutability": "view",
      "type": "function"
    },
    {
      "inputs": [
        {
          "internalType": "uint256",
          "name": "_epoch",
          "type": "uint256"
        },
        {
          "components": [
            {
              "internalType": "bytes32",
              "name": "stateRoot",
              "type": "bytes32"
            },
            {
              "internalType": "address",
              "name": "claimer",
              "type": "address"
            },
            {
              "internalType": "uint32",
              "name": "timestampClaimed",
              "type": "uint32"
            },
            {
              "internalType": "uint32",
              "name": "timestampVerification",
              "type": "uint32"
            },
            {
              "internalType": "uint32",
              "name": "blocknumberVerification",
              "type": "uint32"
            },
            {
              "internalType": "enum Party",
              "name": "honest",
              "type": "uint8"
            },
            {
              "internalType": "address",
              "name": "challenger",
              "type": "address"
            }
          ],
          "internalType": "struct Claim",
          "name": "_claim",
          "type": "tuple"
        }
      ],
      "name": "startVerification",
      "outputs": [],
      "stateMutability": "nonpayable",
      "type": "function"
    },
    {
      "inputs": [],
      "name": "stateRoot",
      "outputs": [
        {
          "internalType": "bytes32",
          "name": "",
          "type": "bytes32"
        }
      ],
      "stateMutability": "view",
      "type": "function"
    },
    {
      "inputs": [],
      "name": "timeoutEpochs",
      "outputs": [
        {
          "internalType": "uint256",
          "name": "",
          "type": "uint256"
        }
      ],
      "stateMutability": "view",
      "type": "function"
    },
    {
      "inputs": [],
      "name": "timestampDelayUpdated",
      "outputs": [
        {
          "internalType": "uint256",
          "name": "",
          "type": "uint256"
        }
      ],
      "stateMutability": "view",
      "type": "function"
    },
    {
      "inputs": [
        {
          "internalType": "uint256",
          "name": "_newSequencerDelayLimit",
          "type": "uint256"
        },
        {
          "internalType": "uint256",
          "name": "_timestamp",
          "type": "uint256"
        }
      ],
      "name": "updateSequencerDelayLimit",
      "outputs": [],
      "stateMutability": "nonpayable",
      "type": "function"
    },
    {
      "inputs": [
        {
          "internalType": "uint256",
          "name": "_epoch",
          "type": "uint256"
        },
        {
          "components": [
            {
              "internalType": "bytes32",
              "name": "stateRoot",
              "type": "bytes32"
            },
            {
              "internalType": "address",
              "name": "claimer",
              "type": "address"
            },
            {
              "internalType": "uint32",
              "name": "timestampClaimed",
              "type": "uint32"
            },
            {
              "internalType": "uint32",
              "name": "timestampVerification",
              "type": "uint32"
            },
            {
              "internalType": "uint32",
              "name": "blocknumberVerification",
              "type": "uint32"
            },
            {
              "internalType": "enum Party",
              "name": "honest",
              "type": "uint8"
            },
            {
              "internalType": "address",
              "name": "challenger",
              "type": "address"
            }
          ],
          "internalType": "struct Claim",
          "name": "_claim",
          "type": "tuple"
        }
      ],
      "name": "verifySnapshot",
      "outputs": [],
      "stateMutability": "nonpayable",
      "type": "function"
    },
    {
      "inputs": [
        {
          "internalType": "uint256",
          "name": "_epoch",
          "type": "uint256"
        },
        {
          "components": [
            {
              "internalType": "bytes32",
              "name": "stateRoot",
              "type": "bytes32"
            },
            {
              "internalType": "address",
              "name": "claimer",
              "type": "address"
            },
            {
              "internalType": "uint32",
              "name": "timestampClaimed",
              "type": "uint32"
            },
            {
              "internalType": "uint32",
              "name": "timestampVerification",
              "type": "uint32"
            },
            {
              "internalType": "uint32",
              "name": "blocknumberVerification",
              "type": "uint32"
            },
            {
              "internalType": "enum Party",
              "name": "honest",
              "type": "uint8"
            },
            {
              "internalType": "address",
              "name": "challenger",
              "type": "address"
            }
          ],
          "internalType": "struct Claim",
          "name": "_claim",
          "type": "tuple"
        }
      ],
      "name": "withdrawChallengeDeposit",
      "outputs": [],
      "stateMutability": "nonpayable",
      "type": "function"
    },
    {
      "inputs": [
        {
          "internalType": "uint256",
          "name": "_epoch",
          "type": "uint256"
        },
        {
          "components": [
            {
              "internalType": "bytes32",
              "name": "stateRoot",
              "type": "bytes32"
            },
            {
              "internalType": "address",
              "name": "claimer",
              "type": "address"
            },
            {
              "internalType": "uint32",
              "name": "timestampClaimed",
              "type": "uint32"
            },
            {
              "internalType": "uint32",
              "name": "timestampVerification",
              "type": "uint32"
            },
            {
              "internalType": "uint32",
              "name": "blocknumberVerification",
              "type": "uint32"
            },
            {
              "internalType": "enum Party",
              "name": "honest",
              "type": "uint8"
            },
            {
              "internalType": "address",
              "name": "challenger",
              "type": "address"
            }
          ],
          "internalType": "struct Claim",
          "name": "_claim",
          "type": "tuple"
        }
      ],
      "name": "withdrawChallengerEscapeHatch",
      "outputs": [],
      "stateMutability": "nonpayable",
      "type": "function"
    },
    {
      "inputs": [
        {
          "internalType": "uint256",
          "name": "_epoch",
          "type": "uint256"
        },
        {
          "components": [
            {
              "internalType": "bytes32",
              "name": "stateRoot",
              "type": "bytes32"
            },
            {
              "internalType": "address",
              "name": "claimer",
              "type": "address"
            },
            {
              "internalType": "uint32",
              "name": "timestampClaimed",
              "type": "uint32"
            },
            {
              "internalType": "uint32",
              "name": "timestampVerification",
              "type": "uint32"
            },
            {
              "internalType": "uint32",
              "name": "blocknumberVerification",
              "type": "uint32"
            },
            {
              "internalType": "enum Party",
              "name": "honest",
              "type": "uint8"
            },
            {
              "internalType": "address",
              "name": "challenger",
              "type": "address"
            }
          ],
          "internalType": "struct Claim",
          "name": "_claim",
          "type": "tuple"
        }
      ],
      "name": "withdrawClaimDeposit",
      "outputs": [],
      "stateMutability": "nonpayable",
      "type": "function"
    },
    {
      "inputs": [
        {
          "internalType": "uint256",
          "name": "_epoch",
          "type": "uint256"
        },
        {
          "components": [
            {
              "internalType": "bytes32",
              "name": "stateRoot",
              "type": "bytes32"
            },
            {
              "internalType": "address",
              "name": "claimer",
              "type": "address"
            },
            {
              "internalType": "uint32",
              "name": "timestampClaimed",
              "type": "uint32"
            },
            {
              "internalType": "uint32",
              "name": "timestampVerification",
              "type": "uint32"
            },
            {
              "internalType": "uint32",
              "name": "blocknumberVerification",
              "type": "uint32"
            },
            {
              "internalType": "enum Party",
              "name": "honest",
              "type": "uint8"
            },
            {
              "internalType": "address",
              "name": "challenger",
              "type": "address"
            }
          ],
          "internalType": "struct Claim",
          "name": "_claim",
          "type": "tuple"
        }
      ],
      "name": "withdrawClaimerEscapeHatch",
      "outputs": [],
      "stateMutability": "nonpayable",
      "type": "function"
    }
  ],
  "transactionHash": "0x57bd6b3abc10d2a23ccde315267b7d1bbcda5fcb0c1dc1793b3b614dad803c9f",
  "args": [
    "1000000000000000",
    1800,
    0,
    10000000000000,
    "0x99Ca51a3534785ED619f46A79C7Ad65Fa8d85e7a",
    "0x9F4407785DFf95c08Bf9a0d9d4A5a164C48eC5CB",
    86400,
    10000000000000,
    5
  ],
  "numDeployments": 15,
  "solcInputHash": "26a65a18c178d77477789f8130b0944b",
  "bytecode": "0x6101c06040523480156200001257600080fd5b50604051620027783803806200277883398101604081905262000035916200010e565b60c08990526101408890526101808690526101608790526001600160a01b03808616608052841660a0526101a082905261012081905260048390558888888888888888886200008660028a620001a7565b60e0819052620000988a6002620001ca565b620000a49190620001ea565b6101005261014051600190620000bb9042620001a7565b620000c79190620001ea565b6001555050600680546001600160a01b0319163317905550620002009e505050505050505050505050505050565b6001600160a01b03811681146200010b57600080fd5b50565b60008060008060008060008060006101208a8c0312156200012e57600080fd5b8951985060208a0151975060408a0151965060608a0151955060808a01516200015781620000f5565b60a08b01519095506200016a81620000f5565b8094505060c08a0151925060e08a015191506101008a015190509295985092959850929598565b634e487b7160e01b600052601160045260246000fd5b600082620001c557634e487b7160e01b600052601260045260246000fd5b500490565b8082028115828204841417620001e457620001e462000191565b92915050565b81810381811115620001e457620001e462000191565b60805160a05160c05160e05161010051610120516101405161016051610180516101a05161241c6200035c600039600081816104c60152611e050152600081816104fa015281816108c10152818161182d015281816119b80152611bc40152600081816105820152611d9901526000818161052e015281816108e501528181610c760152818161171b01528181611851015281816119dc0152611be801526000818161042f01528181610a5c0152610d8f0152600081816114a801526115e101526000818161145501526115990152600081816105b6015281816106c2015281816108480152818161087501528181610f900152818161163101528181611b2201528181611b890152611d2f0152600081816105ea01528181610b490152610e7c01526000818161022f01528181610960015281816109da01528181610abe01528181610cab01528181610d0d0152610df1015261241c6000f3fe6080604052600436106101e35760003560e01c80638ad3a8f711610102578063b633b94411610095578063da2b7bc411610064578063da2b7bc41461060c578063df19e6ff1461062c578063e813a75514610659578063eedcf2a91461066f57600080fd5b8063b633b94414610550578063c2114a1614610570578063d0e30db0146105a4578063d5e6a9df146105d857600080fd5b80639588eca2116100d15780639588eca21461049e578063aa22a1c6146104b4578063b044397e146104e8578063b5b7a1841461051c57600080fd5b80638ad3a8f7146103fd5780638d96fdea1461041d57806390df63b714610451578063930f28af1461047e57600080fd5b806331ddf7431161017a5780634a439cfe116101495780634a439cfe14610387578063541adcca146103a75780637ffc2a6e146103c75780638a619a71146103dd57600080fd5b806331ddf743146103075780633ce43cfd146103275780634788cb381461034757806349b4299e1461036757600080fd5b80632639c060116101b65780632639c0601461029157806327ee6bdd146102be5780632c192519146102d457806331d14457146102f457600080fd5b806301139b68146101e85780630f0adca5146101fd5780631062b39a1461021d578063222ae7861461026e575b600080fd5b6101fb6101f6366004611fc2565b610682565b005b34801561020957600080fd5b506101fb610218366004611ff0565b6108bf565b34801561022957600080fd5b506102517f000000000000000000000000000000000000000000000000000000000000000081565b6040516001600160a01b0390911681526020015b60405180910390f35b34801561027a57600080fd5b50610283610c6f565b604051908152602001610265565b34801561029d57600080fd5b506102836102ac366004612027565b60026020526000908152604090205481565b3480156102ca57600080fd5b5061028360015481565b3480156102e057600080fd5b506101fb6102ef366004612040565b610ca0565b6101fb610302366004612040565b610f77565b34801561031357600080fd5b506101fb6103223660046120c3565b6110fe565b34801561033357600080fd5b506101fb610342366004612185565b61139e565b34801561035357600080fd5b506101fb610362366004611fc2565b6114e5565b34801561037357600080fd5b506101fb610382366004611fc2565b611669565b34801561039357600080fd5b506102836103a2366004612027565b611714565b3480156103b357600080fd5b506102836103c23660046121be565b611746565b3480156103d357600080fd5b5061028360055481565b3480156103e957600080fd5b506101fb6103f83660046121e1565b611798565b34801561040957600080fd5b50600654610251906001600160a01b031681565b34801561042957600080fd5b506102837f000000000000000000000000000000000000000000000000000000000000000081565b34801561045d57600080fd5b5061028361046c366004612027565b60036020526000908152604090205481565b34801561048a57600080fd5b506101fb610499366004611fc2565b61182b565b3480156104aa57600080fd5b5061028360005481565b3480156104c057600080fd5b506102837f000000000000000000000000000000000000000000000000000000000000000081565b3480156104f457600080fd5b506102837f000000000000000000000000000000000000000000000000000000000000000081565b34801561052857600080fd5b506102837f000000000000000000000000000000000000000000000000000000000000000081565b34801561055c57600080fd5b506101fb61056b366004611fc2565b6119b6565b34801561057c57600080fd5b506102837f000000000000000000000000000000000000000000000000000000000000000081565b3480156105b057600080fd5b506102837f000000000000000000000000000000000000000000000000000000000000000081565b3480156105e457600080fd5b506102517f000000000000000000000000000000000000000000000000000000000000000081565b34801561061857600080fd5b506101fb610627366004611fc2565b611bc2565b34801561063857600080fd5b5061064c6106473660046121be565b611d7b565b6040516102659190612214565b34801561066557600080fd5b5061028360045481565b6101fb61067d366004612040565b611e42565b61068b81611746565b600083815260026020526040902054146106c05760405162461bcd60e51b81526004016106b79061222e565b60405180910390fd5b7f00000000000000000000000000000000000000000000000000000000000000003410156107305760405162461bcd60e51b815260206004820152601f60248201527f496e73756666696369656e74206368616c6c656e6765206465706f7369742e0060448201526064016106b7565b60c08101516001600160a01b03161561078b5760405162461bcd60e51b815260206004820152601960248201527f436c61696d20616c7265616479206368616c6c656e6765642e0000000000000060448201526064016106b7565b60008160a0015160028111156107a3576107a36121fe565b146107f05760405162461bcd60e51b815260206004820152601760248201527f436c61696d20616c72656164792076657269666965642e00000000000000000060448201526064016106b7565b3360c08201526107ff81611746565b600083815260026020908152604091829020929092555183815233917fcfe09ca25f55d949baba5e280f5750c9ba4b9048fca5532f916067d433afe4d7910160405180910390a27f00000000000000000000000000000000000000000000000000000000000000003411156108bb57600061089a7f000000000000000000000000000000000000000000000000000000000000000034612256565b604051909150339082156108fc029083906000818181858888f15050505050505b5050565b7f00000000000000000000000000000000000000000000000000000000000000006001547f0000000000000000000000000000000000000000000000000000000000000000428161091257610912612277565b040311156109555760405162461bcd60e51b815260206004820152601060248201526f213934b233b29029b43aba3237bbb71760811b60448201526064016106b7565b336001600160a01b037f000000000000000000000000000000000000000000000000000000000000000016146109d85760405162461bcd60e51b815260206004820152602260248201527f4e6f742066726f6d206e617469766520476e6f73697320414d42206272696467604482015261329760f11b60648201526084016106b7565b7f00000000000000000000000000000000000000000000000000000000000000006001600160a01b0316639e307dff6040518163ffffffff1660e01b8152600401602060405180830381865afa158015610a36573d6000803e3d6000fd5b505050506040513d601f19601f82011682018060405250810190610a5a919061228d565b7f000000000000000000000000000000000000000000000000000000000000000014610abc5760405162461bcd60e51b815260206004820152601160248201527024b73b30b634b21031b430b4b71034b21760791b60448201526064016106b7565b7f00000000000000000000000000000000000000000000000000000000000000006001600160a01b031663d67bdd256040518163ffffffff1660e01b8152600401602060405180830381865afa158015610b1a573d6000803e3d6000fd5b505050506040513d601f19601f82011682018060405250810190610b3e91906122a6565b6001600160a01b03167f00000000000000000000000000000000000000000000000000000000000000006001600160a01b031614610bb15760405162461bcd60e51b815260206004820152601060248201526f2737ba10333937b6903937baba32b91760811b60448201526064016106b7565b60015483118015610bc157508115155b15610c0457600183905560008290556040518381527ff786e7f77ede00a02a5464f8f0555798f42ba99a4a920ef2778db8d75e4656f79060200160405180910390a15b610c0d81611746565b60008481526002602052604090205403610c6a578051829003610c3657600160a0820152610c51565b60c08101516001600160a01b031615610c5157600260a08201525b610c5a81611746565b6000848152600260205260409020555b505050565b6000610c9b7f0000000000000000000000000000000000000000000000000000000000000000426122c3565b905090565b336001600160a01b037f00000000000000000000000000000000000000000000000000000000000000001614610d0b5760405162461bcd60e51b815260206004820152601060248201526f2737ba10333937b690313934b233b29760811b60448201526064016106b7565b7f00000000000000000000000000000000000000000000000000000000000000006001600160a01b0316639e307dff6040518163ffffffff1660e01b8152600401602060405180830381865afa158015610d69573d6000803e3d6000fd5b505050506040513d601f19601f82011682018060405250810190610d8d919061228d565b7f000000000000000000000000000000000000000000000000000000000000000014610def5760405162461bcd60e51b815260206004820152601160248201527024b73b30b634b21031b430b4b71034b21760791b60448201526064016106b7565b7f00000000000000000000000000000000000000000000000000000000000000006001600160a01b031663d67bdd256040518163ffffffff1660e01b8152600401602060405180830381865afa158015610e4d573d6000803e3d6000fd5b505050506040513d601f19601f82011682018060405250810190610e7191906122a6565b6001600160a01b03167f00000000000000000000000000000000000000000000000000000000000000006001600160a01b031614610ee45760405162461bcd60e51b815260206004820152601060248201526f2737ba10333937b6903937baba32b91760811b60448201526064016106b7565b8060055410610f2c5760405162461bcd60e51b815260206004820152601460248201527326b2b9b9b0b3b29034b99037baba3230ba32b21760611b60448201526064016106b7565b81600454146108bb57600482905560058190556040518281527f684f6fb71cbcb798156dcca2a95dbd142fa1f8957637833b1897ab89e05aa707906020015b60405180910390a15050565b6006546001600160a01b03163314610f8e57600080fd5b7f0000000000000000000000000000000000000000000000000000000000000000341015610ffe5760405162461bcd60e51b815260206004820152601b60248201527f496e73756666696369656e7420636c61696d206465706f7369742e000000000060448201526064016106b7565b8061101b5760405162461bcd60e51b81526004016106b79061222e565b6000828152600260205260409020541561106d5760405162461bcd60e51b815260206004820152601360248201527221b630b4b69030b63932b0b23c9036b0b2329760691b60448201526064016106b7565b6040805160e0810182528281523360208201524263ffffffff16918101919091526000606082018190526080820181905260a0820181905260c08201526110b390611746565b600083815260026020908152604091829020929092555182815233917f91d697238e9aa9f3172d17522c9be529b94a892481554e1ea619369b5b12f39a910160405180910390a25050565b604085106111405760405162461bcd60e51b815260206004820152600f60248201526e283937b7b3103a37b7903637b7339760891b60448201526064016106b7565b60008484848460405160200161115994939291906122e5565b604051602081830303815290604052805190602001209050806000526020600020905060005b868110156111d957600088888381811061119b5761119b612327565b905060200201359050828111156111c0578260005280602052604060002092506111d0565b8060005282602052604060002092505b5060010161117f565b50806000541461121c5760405162461bcd60e51b815260206004820152600e60248201526d24b73b30b634b210383937b7b31760911b60448201526064016106b7565b600885901c66ffffffffffffff1660008181526003602052604090205460ff87169080821c600116156112915760405162461bcd60e51b815260206004820152601760248201527f4d65737361676520616c72656164792072656c6179656400000000000000000060448201526064016106b7565b6000838152600360205260408082206001851b84179055516001600160a01b038916906112c1908990899061233d565b6000604051808303816000865af19150503d80600081146112fe576040519150601f19603f3d011682016040523d82523d6000602084013e611303565b606091505b50509050806113545760405162461bcd60e51b815260206004820152601760248201527f4661696c656420746f2063616c6c20636f6e747261637400000000000000000060448201526064016106b7565b60405167ffffffffffffffff8a1681527f54303fab361bc52c2f1f56ace7351189582264f74ce47a6e7c3f478d64c429439060200160405180910390a15050505050505050505050565b6113b06103c2368390038301836121be565b600083815260026020526040902054146113dc5760405162461bcd60e51b81526004016106b79061222e565b60026113ee60c0830160a0840161234d565b60028111156113ff576113ff6121fe565b146114405760405162461bcd60e51b815260206004820152601160248201527021b430b63632b733b2903330b4b632b21760791b60448201526064016106b7565b600082815260026020526040808220829055517f000000000000000000000000000000000000000000000000000000000000000080156108fc029183818181858288f15061149a93505060e0840191505060c083016121e1565b6001600160a01b03166108fc7f00000000000000000000000000000000000000000000000000000000000000009081150290604051600060405180830381858888f150505050505050565b6114ee81611746565b6000838152600260205260409020541461151a5760405162461bcd60e51b81526004016106b79061222e565b60018160a001516002811115611532576115326121fe565b1461156f5760405162461bcd60e51b815260206004820152600d60248201526c21b630b4b6903330b4b632b21760991b60448201526064016106b7565b60008281526002602052604081205560c08101516001600160a01b03161561161b576040516000907f000000000000000000000000000000000000000000000000000000000000000080156108fc029183818181858288f150505060208301516040516001600160a01b0390911692507f000000000000000000000000000000000000000000000000000000000000000080156108fc029250906000818181858888f150505050505050565b60208101516040516001600160a01b03909116907f000000000000000000000000000000000000000000000000000000000000000080156108fc02916000818181858888f150505050505050565b6006546001600160a01b0316331461168057600080fd5b61168981611746565b600083815260026020526040902054146116b55760405162461bcd60e51b81526004016106b79061222e565b63ffffffff4281166060830152431660808201526116d281611746565b60008381526002602090815260409182902092909255518381527f37b700b61b9b4710dddb0c3316b2be7ef6088ed4b1d7bfe0fb98be8f9a163e169101610f6b565b60006117407f0000000000000000000000000000000000000000000000000000000000000000836122c3565b92915050565b80516020808301516040808501516060860151608087015160a088015160c0890151945160009861177b989097969101612368565b604051602081830303815290604052805190602001209050919050565b6006546001600160a01b031633146117af57600080fd5b6006546001600160a01b031633146118095760405162461bcd60e51b815260206004820152601860248201527f496e76616c696420546573746e6574204f70657261746f72000000000000000060448201526064016106b7565b600680546001600160a01b0319166001600160a01b0392909216919091179055565b7f00000000000000000000000000000000000000000000000000000000000000006001547f0000000000000000000000000000000000000000000000000000000000000000428161187e5761187e612277565b040311156118c15760405162461bcd60e51b815260206004820152601060248201526f213934b233b29029b43aba3237bbb71760811b60448201526064016106b7565b6118ca81611746565b600083815260026020526040902054146118f65760405162461bcd60e51b81526004016106b79061222e565b60c08101516001600160a01b0316156119485760405162461bcd60e51b815260206004820152601460248201527321b630b4b69034b99031b430b63632b733b2b21760611b60448201526064016106b7565b60015482111561199057600182905580516000556040518281527ff786e7f77ede00a02a5464f8f0555798f42ba99a4a920ef2778db8d75e4656f79060200160405180910390a15b600160a08201526119a081611746565b6000928352600260205260409092209190915550565b7f00000000000000000000000000000000000000000000000000000000000000006001547f00000000000000000000000000000000000000000000000000000000000000004281611a0957611a09612277565b040311611a4a5760405162461bcd60e51b815260206004820152600f60248201526e213934b233b290293ab73734b7339760891b60448201526064016106b7565b611a5381611746565b60008381526002602052604090205414611a7f5760405162461bcd60e51b81526004016106b79061222e565b60008160a001516002811115611a9757611a976121fe565b14611ad65760405162461bcd60e51b815260206004820152600f60248201526e21b630b4b6903932b9b7b63b32b21760891b60448201526064016106b7565b60c08101516001600160a01b0316156108bb5760208101516001600160a01b0316611b5a5760008281526002602052604080822082905560c083015190516001600160a01b03909116917f000000000000000000000000000000000000000000000000000000000000000080156108fc02929091818181858888f150505050505050565b60c0810180516000909152611b6e82611746565b50600083815260026020526040516001600160a01b038316917f000000000000000000000000000000000000000000000000000000000000000080156108fc02929091818181858888f15050505050505050565b7f00000000000000000000000000000000000000000000000000000000000000006001547f00000000000000000000000000000000000000000000000000000000000000004281611c1557611c15612277565b040311611c565760405162461bcd60e51b815260206004820152600f60248201526e213934b233b290293ab73734b7339760891b60448201526064016106b7565b611c5f81611746565b60008381526002602052604090205414611c8b5760405162461bcd60e51b81526004016106b79061222e565b60008160a001516002811115611ca357611ca36121fe565b14611ce25760405162461bcd60e51b815260206004820152600f60248201526e21b630b4b6903932b9b7b63b32b21760891b60448201526064016106b7565b60208101516001600160a01b0316156108bb5760c08101516001600160a01b0316611d675760008281526002602090815260408083208390559083015190516001600160a01b03909116917f000000000000000000000000000000000000000000000000000000000000000080156108fc02929091818181858888f150505050505050565b6020810180516000909152611b6e82611746565b6000816060015163ffffffff16600003611d9757506002919050565b7f0000000000000000000000000000000000000000000000000000000000000000826060015163ffffffff1642031015611dd357506003919050565b60006005836060015163ffffffff16420381611df157611df1612277565b608085015163ffffffff16919004019050437f000000000000000000000000000000000000000000000000000000000000000081830311611e355760019250611e3a565b600092505b50505b919050565b611e4c8282610f77565b6040805160e0810182528281523360208201524263ffffffff16918101919091526000606082018190526080820181905260a0820181905260c0820152611e938382611669565b63ffffffff428116606083015243166080820152611eb1838261182b565b600160a0820152610c6a83826114e5565b6001600160a01b0381168114611ed757600080fd5b50565b8035611e3d81611ec2565b803563ffffffff81168114611e3d57600080fd5b803560038110611e3d57600080fd5b600060e08284031215611f1a57600080fd5b60405160e0810181811067ffffffffffffffff82111715611f4b57634e487b7160e01b600052604160045260246000fd5b60405282358152905080611f6160208401611eda565b6020820152611f7260408401611ee5565b6040820152611f8360608401611ee5565b6060820152611f9460808401611ee5565b6080820152611fa560a08401611ef9565b60a0820152611fb660c08401611eda565b60c08201525092915050565b6000806101008385031215611fd657600080fd5b82359150611fe78460208501611f08565b90509250929050565b6000806000610120848603121561200657600080fd5b833592506020840135915061201e8560408601611f08565b90509250925092565b60006020828403121561203957600080fd5b5035919050565b6000806040838503121561205357600080fd5b50508035926020909101359150565b803567ffffffffffffffff81168114611e3d57600080fd5b60008083601f84011261208c57600080fd5b50813567ffffffffffffffff8111156120a457600080fd5b6020830191508360208285010111156120bc57600080fd5b9250929050565b600080600080600080608087890312156120dc57600080fd5b863567ffffffffffffffff808211156120f457600080fd5b818901915089601f83011261210857600080fd5b81358181111561211757600080fd5b8a60208260051b850101111561212c57600080fd5b6020830198508097505061214260208a01612062565b955061215060408a01611eda565b9450606089013591508082111561216657600080fd5b5061217389828a0161207a565b979a9699509497509295939492505050565b60008082840361010081121561219a57600080fd5b8335925060e0601f19820112156121b057600080fd5b506020830190509250929050565b600060e082840312156121d057600080fd5b6121da8383611f08565b9392505050565b6000602082840312156121f357600080fd5b81356121da81611ec2565b634e487b7160e01b600052602160045260246000fd5b6020810160048310612228576122286121fe565b91905290565b6020808252600e908201526d24b73b30b634b21031b630b4b69760911b604082015260600190565b8181038181111561174057634e487b7160e01b600052601160045260246000fd5b634e487b7160e01b600052601260045260246000fd5b60006020828403121561229f57600080fd5b5051919050565b6000602082840312156122b857600080fd5b81516121da81611ec2565b6000826122e057634e487b7160e01b600052601260045260246000fd5b500490565b60c085901b6001600160c01b0319168152606084901b6bffffffffffffffffffffffff191660088201528183601c83013760009101601c019081529392505050565b634e487b7160e01b600052603260045260246000fd5b8183823760009101908152919050565b60006020828403121561235f57600080fd5b6121da82611ef9565b87815260006bffffffffffffffffffffffff19808960601b16602084015263ffffffff60e01b808960e01b166034850152808860e01b166038850152808760e01b16603c85015250600385106123c0576123c06121fe565b60f89490941b60408301525060609190911b90911660418201526055019594505050505056fea26469706673582212200454cdd50c4f8ef4c5777954d7020a06e3c68dbbe80e8a98085a22451950e63f64736f6c63430008120033",
  "devdoc": {
    "details": "Vea Outbox From ArbitrumGoerli to Chiado. Note: This contract is deployed on Chiado. Note: This contract is permissioned for developer testing (devnet).",
    "events": {
      "Challenged(uint256,address)": {
        "details": "This event indicates that `sendSnapshot(epoch)` should be called in the inbox.",
        "params": {
          "_challenger": "The address of the challenger.",
          "_epoch": "The epoch associated with the challenged claim."
        }
      },
      "Claimed(address,bytes32)": {
        "details": "Watchers check this event to challenge fraud.",
        "params": {
          "_claimer": "The address of the claimer.",
          "_stateRoot": "The state root of the claim."
        }
      },
      "MessageRelayed(uint64)": {
        "details": "This event indicates that a message has been relayed.",
        "params": {
          "_msgId": "The msgId of the message that was relayed."
        }
      },
      "VerificationStarted(uint256)": {
        "details": "This event indicates that the censorship test started and all challengers are ready even in the worst case scenario of a malicious sequencer.",
        "params": {
          "_epoch": "The epoch that started verification."
        }
      },
      "Verified(uint256)": {
        "details": "This events indicates that verification has succeeded. The messages are ready to be relayed.",
        "params": {
          "_epoch": "The epoch that was verified."
        }
      },
      "sequencerDelayLimitUpdateReceived(uint256)": {
        "details": "This event indicates the sequencer limit updated.",
        "params": {
          "_newsequencerDelayLimit": "The new maxL2StateSyncDelay."
        }
      }
    },
    "kind": "dev",
    "methods": {
      "censorshipTestStatus((bytes32,address,uint32,uint32,uint32,uint8,address))": {
        "details": "Gets the status of the censorship test for claim.",
        "params": {
          "_claim": "The claim to test."
        },
        "returns": {
          "status": "True if the claim passed the censorship test."
        }
      },
      "challenge(uint256,(bytes32,address,uint32,uint32,uint32,uint8,address))": {
        "details": "Submit a challenge for the claim of the inbox state root snapshot taken at 'epoch'.",
        "params": {
          "_claim": "The claim associated with the epoch.",
          "_epoch": "The epoch of the claim to challenge."
        }
      },
      "changeDevnetOperator(address)": {
        "details": "Changes the devnet operator.",
        "params": {
          "_devnetOperator": "The new testnet operator."
        }
      },
      "claim(uint256,bytes32)": {
        "details": "Submit a claim about the _stateRoot at _epoch and submit a deposit.",
        "params": {
          "_epoch": "The epoch for which the claim is made.",
          "_stateRoot": "The state root to claim."
        }
      },
      "constructor": {
        "details": "Constructor.",
        "params": {
          "_amb": "The address of the AMB contract on Gnosis.",
          "_challengePeriod": "The duration of the period allowing to challenge a claim.",
          "_deposit": "The deposit amount to submit a claim in wei.",
          "_epochPeriod": "The duration of each epoch.",
          "_maxMissingBlocks": "The maximum number of blocks that can be missing in a challenge period.",
          "_routerArbToGnosisDevnet": "The address of the router contract on Goerli routing from ArbitrumGoerli to Chiado.",
          "_routerChainId": "The chain id of the router contract.",
          "_sequencerDelayLimit": "The maximum number of sequencer messages that can be submitted in a challenge period.",
          "_timeoutEpochs": "The epochs before the bridge is considered shutdown."
        }
      },
      "devnetAdvanceState(uint256,bytes32)": {
        "details": "Testnet operator utility function to claim, validate and withdraw.",
        "params": {
          "_epoch": "The epoch for which the claim is made.",
          "_stateroot": "The state root to claim."
        }
      },
      "epochAt(uint256)": {
        "details": "Get the current epoch from the outbox's point of view using the Ethereum L1 clock.",
        "returns": {
          "epoch": "The hash of the claim."
        }
      },
      "epochNow()": {
        "details": "Get the current epoch from the outbox's point of view using the Ethereum L1 clock.",
        "returns": {
          "epoch": "The hash of the claim."
        }
      },
      "hashClaim((bytes32,address,uint32,uint32,uint32,uint8,address))": {
        "details": "Hashes the claim.",
        "params": {
          "_claim": "The claim to hash."
        },
        "returns": {
          "hashedClaim": "The hash of the claim."
        }
      },
      "resolveDisputedClaim(uint256,bytes32,(bytes32,address,uint32,uint32,uint32,uint8,address))": {
        "details": "Resolves any challenge of the optimistic claim for '_epoch'.",
        "params": {
          "_claim": "The claim associated with the epoch.",
          "_epoch": "The epoch to verify.",
          "_stateRoot": "The true state root for the epoch."
        }
      },
      "sendMessage(bytes32[],uint64,address,bytes)": {
        "details": "Verifies and relays the message. UNTRUSTED.",
        "params": {
          "_message": "The message encoded in the vea inbox as abi.encodeWithSelector(fnSelector, msg.sender, param1, param2, ...)",
          "_msgId": "The zero based index of the message in the inbox.",
          "_proof": "The merkle proof to prove the message inclusion in the inbox state root.",
          "_to": "The address of the contract on Gnosis to call."
        }
      },
      "startVerification(uint256,(bytes32,address,uint32,uint32,uint32,uint8,address))": {
        "details": "Start verification for claim for 'epoch'.",
        "params": {
          "_claim": "The claim associated with the epoch.",
          "_epoch": "The epoch of the claim to challenge."
        }
      },
      "updateSequencerDelayLimit(uint256,uint256)": {
        "details": "Set the maxL2StateSyncDelay by reading from the Arbitrum Bridge",
        "params": {
          "_newSequencerDelayLimit": "The delaySeconds from the MaxTimeVariation struct in the Arbitrum Sequencer contract.",
          "_timestamp": "The timestamp of the message."
        }
      },
      "verifySnapshot(uint256,(bytes32,address,uint32,uint32,uint32,uint8,address))": {
        "details": "Resolves the optimistic claim for '_epoch'.",
        "params": {
          "_claim": "The claim associated with the epoch.",
          "_epoch": "The epoch of the optimistic claim."
        }
      },
      "withdrawChallengeDeposit(uint256,(bytes32,address,uint32,uint32,uint32,uint8,address))": {
        "details": "Sends the deposit back to the Challenger if successful. Includes a portion of the Bridger's deposit.",
        "params": {
          "_claim": "The claim associated with the epoch.",
          "_epoch": "The epoch associated with the challenge deposit to withraw."
        }
      },
      "withdrawChallengerEscapeHatch(uint256,(bytes32,address,uint32,uint32,uint32,uint8,address))": {
        "details": "When bridge is shutdown, no claim disputes can be resolved. This allows the challenger to withdraw their deposit.",
        "params": {
          "_claim": "The claim associated with the epoch.",
          "_epoch": "The epoch associated with the claim deposit to withraw."
        }
      },
      "withdrawClaimDeposit(uint256,(bytes32,address,uint32,uint32,uint32,uint8,address))": {
        "details": "Sends the deposit back to the Bridger if their claim is not successfully challenged. Includes a portion of the Challenger's deposit if unsuccessfully challenged.",
        "params": {
          "_claim": "The claim associated with the epoch.",
          "_epoch": "The epoch associated with the claim deposit to withraw."
        }
      },
      "withdrawClaimerEscapeHatch(uint256,(bytes32,address,uint32,uint32,uint32,uint8,address))": {
        "details": "When bridge is shutdown, no claim disputes can be resolved. This allows the claimer to withdraw their deposit.",
        "params": {
          "_claim": "The claim associated with the epoch.",
          "_epoch": "The epoch associated with the claim deposit to withraw."
        }
      }
    },
    "version": 1
  },
  "userdoc": {
    "kind": "user",
    "methods": {
      "resolveDisputedClaim(uint256,bytes32,(bytes32,address,uint32,uint32,uint32,uint8,address))": {
        "notice": "Note: Access restricted to AMB."
      }
    },
    "version": 1
  },
  "storageLayout": {
    "storage": [
      {
        "astId": 401,
        "contract": "src/devnets/arbitrumToGnosis/VeaOutboxArbToGnosisDevnet.sol:VeaOutboxArbToGnosisDevnet",
        "label": "stateRoot",
        "offset": 0,
        "slot": "0",
        "type": "t_bytes32"
      },
      {
        "astId": 403,
        "contract": "src/devnets/arbitrumToGnosis/VeaOutboxArbToGnosisDevnet.sol:VeaOutboxArbToGnosisDevnet",
        "label": "latestVerifiedEpoch",
        "offset": 0,
        "slot": "1",
        "type": "t_uint256"
      },
      {
        "astId": 407,
        "contract": "src/devnets/arbitrumToGnosis/VeaOutboxArbToGnosisDevnet.sol:VeaOutboxArbToGnosisDevnet",
        "label": "claimHashes",
        "offset": 0,
        "slot": "2",
        "type": "t_mapping(t_uint256,t_bytes32)"
      },
      {
        "astId": 411,
        "contract": "src/devnets/arbitrumToGnosis/VeaOutboxArbToGnosisDevnet.sol:VeaOutboxArbToGnosisDevnet",
        "label": "relayed",
        "offset": 0,
        "slot": "3",
        "type": "t_mapping(t_uint256,t_bytes32)"
      },
      {
        "astId": 413,
        "contract": "src/devnets/arbitrumToGnosis/VeaOutboxArbToGnosisDevnet.sol:VeaOutboxArbToGnosisDevnet",
        "label": "sequencerDelayLimit",
        "offset": 0,
        "slot": "4",
        "type": "t_uint256"
      },
      {
        "astId": 415,
        "contract": "src/devnets/arbitrumToGnosis/VeaOutboxArbToGnosisDevnet.sol:VeaOutboxArbToGnosisDevnet",
        "label": "timestampDelayUpdated",
        "offset": 0,
        "slot": "5",
        "type": "t_uint256"
      },
      {
        "astId": 1834,
        "contract": "src/devnets/arbitrumToGnosis/VeaOutboxArbToGnosisDevnet.sol:VeaOutboxArbToGnosisDevnet",
        "label": "devnetOperator",
        "offset": 0,
        "slot": "6",
        "type": "t_address"
      }
    ],
    "types": {
      "t_address": {
        "encoding": "inplace",
        "label": "address",
        "numberOfBytes": "20"
      },
      "t_bytes32": {
        "encoding": "inplace",
        "label": "bytes32",
        "numberOfBytes": "32"
      },
      "t_mapping(t_uint256,t_bytes32)": {
        "encoding": "mapping",
        "key": "t_uint256",
        "label": "mapping(uint256 => bytes32)",
        "numberOfBytes": "32",
        "value": "t_bytes32"
      },
      "t_uint256": {
        "encoding": "inplace",
        "label": "uint256",
        "numberOfBytes": "32"
      }
    }
  }
}