{
  "address": "0xAebcedf346f168E5CEaB7Cd367118d2176486ad7",
  "abi": [
    {
      "inputs": [
        {
          "internalType": "uint256",
          "name": "_deposit",
          "type": "uint256"
        },
        {
          "internalType": "uint256",
          "name": "_epochPeriod",
          "type": "uint256"
        },
        {
          "internalType": "uint256",
          "name": "_minChallengePeriod",
          "type": "uint256"
        },
        {
          "internalType": "uint256",
          "name": "_timeoutEpochs",
          "type": "uint256"
        },
        {
          "internalType": "contract IAMB",
          "name": "_amb",
          "type": "address"
        },
        {
          "internalType": "address",
          "name": "_routerArbToGnosis",
          "type": "address"
        },
        {
          "internalType": "uint256",
          "name": "_sequencerDelayLimit",
          "type": "uint256"
        },
        {
          "internalType": "uint256",
          "name": "_maxMissingBlocks",
          "type": "uint256"
        },
        {
          "internalType": "uint256",
          "name": "_routerChainId",
          "type": "uint256"
        },
        {
          "internalType": "contract IWETH",
          "name": "_weth",
          "type": "address"
        }
      ],
      "stateMutability": "nonpayable",
      "type": "constructor"
    },
    {
      "anonymous": false,
      "inputs": [
        {
          "indexed": true,
          "internalType": "uint256",
          "name": "_epoch",
          "type": "uint256"
        },
        {
          "indexed": true,
          "internalType": "address",
          "name": "_challenger",
          "type": "address"
        }
      ],
      "name": "Challenged",
      "type": "event"
    },
    {
      "anonymous": false,
      "inputs": [
        {
          "indexed": true,
          "internalType": "address",
          "name": "_claimer",
          "type": "address"
        },
        {
          "indexed": true,
          "internalType": "uint256",
          "name": "_epoch",
          "type": "uint256"
        },
        {
          "indexed": false,
          "internalType": "bytes32",
          "name": "_stateRoot",
          "type": "bytes32"
        }
      ],
      "name": "Claimed",
      "type": "event"
    },
    {
      "anonymous": false,
      "inputs": [
        {
          "indexed": false,
          "internalType": "uint64",
          "name": "_msgId",
          "type": "uint64"
        }
      ],
      "name": "MessageRelayed",
      "type": "event"
    },
    {
      "anonymous": false,
      "inputs": [
        {
          "indexed": true,
          "internalType": "uint256",
          "name": "_epoch",
          "type": "uint256"
        }
      ],
      "name": "VerificationStarted",
      "type": "event"
    },
    {
      "anonymous": false,
      "inputs": [
        {
          "indexed": false,
          "internalType": "uint256",
          "name": "_epoch",
          "type": "uint256"
        }
      ],
      "name": "Verified",
      "type": "event"
    },
    {
      "anonymous": false,
      "inputs": [
        {
          "indexed": false,
          "internalType": "uint256",
          "name": "_newSequencerDelayLimit",
          "type": "uint256"
        }
      ],
      "name": "sequencerDelayLimitUpdateReceived",
      "type": "event"
    },
    {
      "inputs": [],
      "name": "amb",
      "outputs": [
        {
          "internalType": "contract IAMB",
          "name": "",
          "type": "address"
        }
      ],
      "stateMutability": "view",
      "type": "function"
    },
    {
      "inputs": [],
      "name": "burn",
      "outputs": [
        {
          "internalType": "uint256",
          "name": "",
          "type": "uint256"
        }
      ],
      "stateMutability": "view",
      "type": "function"
    },
    {
      "inputs": [
        {
          "components": [
            {
              "internalType": "bytes32",
              "name": "stateRoot",
              "type": "bytes32"
            },
            {
              "internalType": "address",
              "name": "claimer",
              "type": "address"
            },
            {
              "internalType": "uint32",
              "name": "timestampClaimed",
              "type": "uint32"
            },
            {
              "internalType": "uint32",
              "name": "timestampVerification",
              "type": "uint32"
            },
            {
              "internalType": "uint32",
              "name": "blocknumberVerification",
              "type": "uint32"
            },
            {
              "internalType": "enum Party",
              "name": "honest",
              "type": "uint8"
            },
            {
              "internalType": "address",
              "name": "challenger",
              "type": "address"
            }
          ],
          "internalType": "struct Claim",
          "name": "_claim",
          "type": "tuple"
        }
      ],
      "name": "censorshipTestStatus",
      "outputs": [
        {
          "internalType": "enum VeaOutboxArbToGnosis.CensorshipTestStatus",
          "name": "status",
          "type": "uint8"
        }
      ],
      "stateMutability": "view",
      "type": "function"
    },
    {
      "inputs": [
        {
          "internalType": "uint256",
          "name": "_epoch",
          "type": "uint256"
        },
        {
          "components": [
            {
              "internalType": "bytes32",
              "name": "stateRoot",
              "type": "bytes32"
            },
            {
              "internalType": "address",
              "name": "claimer",
              "type": "address"
            },
            {
              "internalType": "uint32",
              "name": "timestampClaimed",
              "type": "uint32"
            },
            {
              "internalType": "uint32",
              "name": "timestampVerification",
              "type": "uint32"
            },
            {
              "internalType": "uint32",
              "name": "blocknumberVerification",
              "type": "uint32"
            },
            {
              "internalType": "enum Party",
              "name": "honest",
              "type": "uint8"
            },
            {
              "internalType": "address",
              "name": "challenger",
              "type": "address"
            }
          ],
          "internalType": "struct Claim",
          "name": "_claim",
          "type": "tuple"
        }
      ],
      "name": "challenge",
      "outputs": [],
      "stateMutability": "nonpayable",
      "type": "function"
    },
    {
      "inputs": [
        {
          "internalType": "address",
          "name": "_devnetOperator",
          "type": "address"
        }
      ],
      "name": "changeDevnetOperator",
      "outputs": [],
      "stateMutability": "nonpayable",
      "type": "function"
    },
    {
      "inputs": [
        {
          "internalType": "uint256",
          "name": "_epoch",
          "type": "uint256"
        },
        {
          "internalType": "bytes32",
          "name": "_stateRoot",
          "type": "bytes32"
        }
      ],
      "name": "claim",
      "outputs": [],
      "stateMutability": "nonpayable",
      "type": "function"
    },
    {
      "inputs": [
        {
          "internalType": "uint256",
          "name": "epoch",
          "type": "uint256"
        }
      ],
      "name": "claimHashes",
      "outputs": [
        {
          "internalType": "bytes32",
          "name": "",
          "type": "bytes32"
        }
      ],
      "stateMutability": "view",
      "type": "function"
    },
    {
      "inputs": [],
      "name": "deposit",
      "outputs": [
        {
          "internalType": "uint256",
          "name": "",
          "type": "uint256"
        }
      ],
      "stateMutability": "view",
      "type": "function"
    },
    {
      "inputs": [],
      "name": "depositPlusReward",
      "outputs": [
        {
          "internalType": "uint256",
          "name": "",
          "type": "uint256"
        }
      ],
      "stateMutability": "view",
      "type": "function"
    },
    {
      "inputs": [
        {
          "internalType": "uint256",
          "name": "_epoch",
          "type": "uint256"
        },
        {
          "internalType": "bytes32",
          "name": "_stateroot",
          "type": "bytes32"
        }
      ],
      "name": "devnetAdvanceState",
      "outputs": [],
      "stateMutability": "payable",
      "type": "function"
    },
    {
      "inputs": [],
      "name": "devnetOperator",
      "outputs": [
        {
          "internalType": "address",
          "name": "",
          "type": "address"
        }
      ],
      "stateMutability": "view",
      "type": "function"
    },
    {
      "inputs": [
        {
          "internalType": "uint256",
          "name": "timestamp",
          "type": "uint256"
        }
      ],
      "name": "epochAt",
      "outputs": [
        {
          "internalType": "uint256",
          "name": "epoch",
          "type": "uint256"
        }
      ],
      "stateMutability": "view",
      "type": "function"
    },
    {
      "inputs": [],
      "name": "epochNow",
      "outputs": [
        {
          "internalType": "uint256",
          "name": "epoch",
          "type": "uint256"
        }
      ],
      "stateMutability": "view",
      "type": "function"
    },
    {
      "inputs": [],
      "name": "epochPeriod",
      "outputs": [
        {
          "internalType": "uint256",
          "name": "",
          "type": "uint256"
        }
      ],
      "stateMutability": "view",
      "type": "function"
    },
    {
      "inputs": [
        {
          "components": [
            {
              "internalType": "bytes32",
              "name": "stateRoot",
              "type": "bytes32"
            },
            {
              "internalType": "address",
              "name": "claimer",
              "type": "address"
            },
            {
              "internalType": "uint32",
              "name": "timestampClaimed",
              "type": "uint32"
            },
            {
              "internalType": "uint32",
              "name": "timestampVerification",
              "type": "uint32"
            },
            {
              "internalType": "uint32",
              "name": "blocknumberVerification",
              "type": "uint32"
            },
            {
              "internalType": "enum Party",
              "name": "honest",
              "type": "uint8"
            },
            {
              "internalType": "address",
              "name": "challenger",
              "type": "address"
            }
          ],
          "internalType": "struct Claim",
          "name": "_claim",
          "type": "tuple"
        }
      ],
      "name": "hashClaim",
      "outputs": [
        {
          "internalType": "bytes32",
          "name": "hashedClaim",
          "type": "bytes32"
        }
      ],
      "stateMutability": "pure",
      "type": "function"
    },
    {
      "inputs": [
        {
          "internalType": "uint256",
          "name": "_msgId",
          "type": "uint256"
        }
      ],
      "name": "isMsgRelayed",
      "outputs": [
        {
          "internalType": "bool",
          "name": "isRelayed",
          "type": "bool"
        }
      ],
      "stateMutability": "view",
      "type": "function"
    },
    {
      "inputs": [],
      "name": "latestVerifiedEpoch",
      "outputs": [
        {
          "internalType": "uint256",
          "name": "",
          "type": "uint256"
        }
      ],
      "stateMutability": "view",
      "type": "function"
    },
    {
      "inputs": [],
      "name": "maxMissingBlocks",
      "outputs": [
        {
          "internalType": "uint256",
          "name": "",
          "type": "uint256"
        }
      ],
      "stateMutability": "view",
      "type": "function"
    },
    {
      "inputs": [],
      "name": "minChallengePeriod",
      "outputs": [
        {
          "internalType": "uint256",
          "name": "",
          "type": "uint256"
        }
      ],
      "stateMutability": "view",
      "type": "function"
    },
    {
      "inputs": [
        {
          "internalType": "uint256",
          "name": "_epoch",
          "type": "uint256"
        },
        {
          "internalType": "bytes32",
          "name": "_stateRoot",
          "type": "bytes32"
        },
        {
          "components": [
            {
              "internalType": "bytes32",
              "name": "stateRoot",
              "type": "bytes32"
            },
            {
              "internalType": "address",
              "name": "claimer",
              "type": "address"
            },
            {
              "internalType": "uint32",
              "name": "timestampClaimed",
              "type": "uint32"
            },
            {
              "internalType": "uint32",
              "name": "timestampVerification",
              "type": "uint32"
            },
            {
              "internalType": "uint32",
              "name": "blocknumberVerification",
              "type": "uint32"
            },
            {
              "internalType": "enum Party",
              "name": "honest",
              "type": "uint8"
            },
            {
              "internalType": "address",
              "name": "challenger",
              "type": "address"
            }
          ],
          "internalType": "struct Claim",
          "name": "_claim",
          "type": "tuple"
        }
      ],
      "name": "resolveDisputedClaim",
      "outputs": [],
      "stateMutability": "nonpayable",
      "type": "function"
    },
    {
      "inputs": [],
      "name": "routerArbToGnosis",
      "outputs": [
        {
          "internalType": "address",
          "name": "",
          "type": "address"
        }
      ],
      "stateMutability": "view",
      "type": "function"
    },
    {
      "inputs": [],
      "name": "routerChainId",
      "outputs": [
        {
          "internalType": "uint256",
          "name": "",
          "type": "uint256"
        }
      ],
      "stateMutability": "view",
      "type": "function"
    },
    {
      "inputs": [
        {
          "internalType": "bytes32[]",
          "name": "_proof",
          "type": "bytes32[]"
        },
        {
          "internalType": "uint64",
          "name": "_msgId",
          "type": "uint64"
        },
        {
          "internalType": "address",
          "name": "_to",
          "type": "address"
        },
        {
          "internalType": "bytes",
          "name": "_message",
          "type": "bytes"
        }
      ],
      "name": "sendMessage",
      "outputs": [],
      "stateMutability": "nonpayable",
      "type": "function"
    },
    {
      "inputs": [],
      "name": "sequencerDelayLimit",
      "outputs": [
        {
          "internalType": "uint256",
          "name": "",
          "type": "uint256"
        }
      ],
      "stateMutability": "view",
      "type": "function"
    },
    {
      "inputs": [
        {
          "internalType": "uint256",
          "name": "_epoch",
          "type": "uint256"
        },
        {
          "components": [
            {
              "internalType": "bytes32",
              "name": "stateRoot",
              "type": "bytes32"
            },
            {
              "internalType": "address",
              "name": "claimer",
              "type": "address"
            },
            {
              "internalType": "uint32",
              "name": "timestampClaimed",
              "type": "uint32"
            },
            {
              "internalType": "uint32",
              "name": "timestampVerification",
              "type": "uint32"
            },
            {
              "internalType": "uint32",
              "name": "blocknumberVerification",
              "type": "uint32"
            },
            {
              "internalType": "enum Party",
              "name": "honest",
              "type": "uint8"
            },
            {
              "internalType": "address",
              "name": "challenger",
              "type": "address"
            }
          ],
          "internalType": "struct Claim",
          "name": "_claim",
          "type": "tuple"
        }
      ],
      "name": "startVerification",
      "outputs": [],
      "stateMutability": "nonpayable",
      "type": "function"
    },
    {
      "inputs": [],
      "name": "stateRoot",
      "outputs": [
        {
          "internalType": "bytes32",
          "name": "",
          "type": "bytes32"
        }
      ],
      "stateMutability": "view",
      "type": "function"
    },
    {
      "inputs": [],
      "name": "timeoutEpochs",
      "outputs": [
        {
          "internalType": "uint256",
          "name": "",
          "type": "uint256"
        }
      ],
      "stateMutability": "view",
      "type": "function"
    },
    {
      "inputs": [],
      "name": "timestampDelayUpdated",
      "outputs": [
        {
          "internalType": "uint256",
          "name": "",
          "type": "uint256"
        }
      ],
      "stateMutability": "view",
      "type": "function"
    },
    {
      "inputs": [
        {
          "internalType": "uint256",
          "name": "_newSequencerDelayLimit",
          "type": "uint256"
        },
        {
          "internalType": "uint256",
          "name": "_timestamp",
          "type": "uint256"
        }
      ],
      "name": "updateSequencerDelayLimit",
      "outputs": [],
      "stateMutability": "nonpayable",
      "type": "function"
    },
    {
      "inputs": [
        {
          "internalType": "uint256",
          "name": "_epoch",
          "type": "uint256"
        },
        {
          "components": [
            {
              "internalType": "bytes32",
              "name": "stateRoot",
              "type": "bytes32"
            },
            {
              "internalType": "address",
              "name": "claimer",
              "type": "address"
            },
            {
              "internalType": "uint32",
              "name": "timestampClaimed",
              "type": "uint32"
            },
            {
              "internalType": "uint32",
              "name": "timestampVerification",
              "type": "uint32"
            },
            {
              "internalType": "uint32",
              "name": "blocknumberVerification",
              "type": "uint32"
            },
            {
              "internalType": "enum Party",
              "name": "honest",
              "type": "uint8"
            },
            {
              "internalType": "address",
              "name": "challenger",
              "type": "address"
            }
          ],
          "internalType": "struct Claim",
          "name": "_claim",
          "type": "tuple"
        }
      ],
      "name": "verifySnapshot",
      "outputs": [],
      "stateMutability": "nonpayable",
      "type": "function"
    },
    {
      "inputs": [],
      "name": "weth",
      "outputs": [
        {
          "internalType": "contract IWETH",
          "name": "",
          "type": "address"
        }
      ],
      "stateMutability": "view",
      "type": "function"
    },
    {
      "inputs": [
        {
          "internalType": "uint256",
          "name": "_epoch",
          "type": "uint256"
        },
        {
          "components": [
            {
              "internalType": "bytes32",
              "name": "stateRoot",
              "type": "bytes32"
            },
            {
              "internalType": "address",
              "name": "claimer",
              "type": "address"
            },
            {
              "internalType": "uint32",
              "name": "timestampClaimed",
              "type": "uint32"
            },
            {
              "internalType": "uint32",
              "name": "timestampVerification",
              "type": "uint32"
            },
            {
              "internalType": "uint32",
              "name": "blocknumberVerification",
              "type": "uint32"
            },
            {
              "internalType": "enum Party",
              "name": "honest",
              "type": "uint8"
            },
            {
              "internalType": "address",
              "name": "challenger",
              "type": "address"
            }
          ],
          "internalType": "struct Claim",
          "name": "_claim",
          "type": "tuple"
        }
      ],
      "name": "withdrawChallengeDeposit",
      "outputs": [],
      "stateMutability": "nonpayable",
      "type": "function"
    },
    {
      "inputs": [
        {
          "internalType": "uint256",
          "name": "_epoch",
          "type": "uint256"
        },
        {
          "components": [
            {
              "internalType": "bytes32",
              "name": "stateRoot",
              "type": "bytes32"
            },
            {
              "internalType": "address",
              "name": "claimer",
              "type": "address"
            },
            {
              "internalType": "uint32",
              "name": "timestampClaimed",
              "type": "uint32"
            },
            {
              "internalType": "uint32",
              "name": "timestampVerification",
              "type": "uint32"
            },
            {
              "internalType": "uint32",
              "name": "blocknumberVerification",
              "type": "uint32"
            },
            {
              "internalType": "enum Party",
              "name": "honest",
              "type": "uint8"
            },
            {
              "internalType": "address",
              "name": "challenger",
              "type": "address"
            }
          ],
          "internalType": "struct Claim",
          "name": "_claim",
          "type": "tuple"
        }
      ],
      "name": "withdrawChallengerEscapeHatch",
      "outputs": [],
      "stateMutability": "nonpayable",
      "type": "function"
    },
    {
      "inputs": [
        {
          "internalType": "uint256",
          "name": "_epoch",
          "type": "uint256"
        },
        {
          "components": [
            {
              "internalType": "bytes32",
              "name": "stateRoot",
              "type": "bytes32"
            },
            {
              "internalType": "address",
              "name": "claimer",
              "type": "address"
            },
            {
              "internalType": "uint32",
              "name": "timestampClaimed",
              "type": "uint32"
            },
            {
              "internalType": "uint32",
              "name": "timestampVerification",
              "type": "uint32"
            },
            {
              "internalType": "uint32",
              "name": "blocknumberVerification",
              "type": "uint32"
            },
            {
              "internalType": "enum Party",
              "name": "honest",
              "type": "uint8"
            },
            {
              "internalType": "address",
              "name": "challenger",
              "type": "address"
            }
          ],
          "internalType": "struct Claim",
          "name": "_claim",
          "type": "tuple"
        }
      ],
      "name": "withdrawClaimDeposit",
      "outputs": [],
      "stateMutability": "nonpayable",
      "type": "function"
    },
    {
      "inputs": [
        {
          "internalType": "uint256",
          "name": "_epoch",
          "type": "uint256"
        },
        {
          "components": [
            {
              "internalType": "bytes32",
              "name": "stateRoot",
              "type": "bytes32"
            },
            {
              "internalType": "address",
              "name": "claimer",
              "type": "address"
            },
            {
              "internalType": "uint32",
              "name": "timestampClaimed",
              "type": "uint32"
            },
            {
              "internalType": "uint32",
              "name": "timestampVerification",
              "type": "uint32"
            },
            {
              "internalType": "uint32",
              "name": "blocknumberVerification",
              "type": "uint32"
            },
            {
              "internalType": "enum Party",
              "name": "honest",
              "type": "uint8"
            },
            {
              "internalType": "address",
              "name": "challenger",
              "type": "address"
            }
          ],
          "internalType": "struct Claim",
          "name": "_claim",
          "type": "tuple"
        }
      ],
      "name": "withdrawClaimerEscapeHatch",
      "outputs": [],
      "stateMutability": "nonpayable",
      "type": "function"
    }
  ],
  "transactionHash": "0x56d6a1e200179828a6dd31960653df379e47c6cdb5b870140e4d799ce0d5588c",
  "args": [
    "100000000000000000",
    1800,
    0,
    10000000000000,
    "0x99Ca51a3534785ED619f46A79C7Ad65Fa8d85e7a",
    "0xA699e7246D7AF936752789408A071805CC8c99c3",
    86400,
    10000000000000,
    11155111,
    "0x8d74e5e4DA11629537C4575cB0f33b4F0Dfa42EB"
  ],
  "numDeployments": 10,
  "solcInputHash": "0d66bd5cfdf493ed8e081e9f7e1bf4fa",
  "bytecode": "0x6101e060405234801562000011575f80fd5b5060405162002bb338038062002bb383398101604081905262000034916200012c565b60e08a90526101608990526101a08790526101808890526001600160a01b0380871660805280861660a05260048590556101c0849052610140839052811660c052898989898989898989896200008c60028b620001d5565b6101008190526200009f8b6002620001f5565b620000ab919062000215565b6101205261016051600190620000c29042620001d5565b620000ce919062000215565b600181905550505050505050505050503360065f6101000a8154816001600160a01b0302191690836001600160a01b03160217905550505050505050505050506200022b565b6001600160a01b038116811462000129575f80fd5b50565b5f805f805f805f805f806101408b8d03121562000147575f80fd5b8a51995060208b0151985060408b0151975060608b0151965060808b0151620001708162000114565b60a08c0151909650620001838162000114565b8095505060c08b0151935060e08b015192506101008b015191506101208b0151620001ae8162000114565b809150509295989b9194979a5092959850565b634e487b7160e01b5f52601160045260245ffd5b5f82620001f057634e487b7160e01b5f52601260045260245ffd5b500490565b80820281158282048414176200020f576200020f620001c1565b92915050565b818103818111156200020f576200020f620001c1565b60805160a05160c05160e05161010051610120516101405161016051610180516101a0516101c0516127da620003d95f395f818161059801526121cf01525f81816105cb0152818161096701528181611aa301528181611c2b0152611ee301525f8181610650015261216401525f81816105fe0152818161098b01528181610d140152818161199301528181611ac701528181611c4f0152611f0701525f818161053201528181610b000152610e2b01525f81816104c101528181611631015261181701525f81816103fd01528181611545015261176e01525f818161068301528181610766015281816110420152818161189201528181611da101528181611e340152818161205901526120f301525f818161037f0152818161078c015281816110680152818161156b015281816115d2015281816117940152818161183d015281816118b801528181611dc701528181611e5a0152818161207f015261211901525f81816106b601528181610beb0152610f1601525f818161025101528181610a0601528181610a8001528181610b6201528181610d4901528181610dab0152610e8d01526127da5ff3fe6080604052600436106101fc575f3560e01c80637ffc2a6e11610113578063b5b7a1841161009d578063d5e6a9df1161006d578063d5e6a9df146106a5578063da2b7bc4146106d8578063df19e6ff146106f7578063e813a75514610723578063eedcf2a914610738575f80fd5b8063b5b7a184146105ed578063b633b94414610620578063c2114a161461063f578063d0e30db014610672575f80fd5b80638d96fdea116100e35780638d96fdea14610521578063930f28af146105545780639588eca214610573578063aa22a1c614610587578063b044397e146105ba575f80fd5b80637ffc2a6e1461049b578063836e344b146104b05780638a619a71146104e35780638ad3a8f714610502575f80fd5b806331ddf7431161019457806344df8e701161016457806344df8e70146103ec5780634788cb381461041f57806349b4299e1461043e5780634a439cfe1461045d578063541adcca1461047c575f80fd5b806331ddf743146103305780633ce43cfd1461034f5780633fc8cef31461036e57806343b066d5146103a1575f80fd5b80632639c060116101cf5780632639c060146102b257806327ee6bdd146102dd5780632c192519146102f257806331d1445714610311575f80fd5b806301139b68146102005780630f0adca5146102215780631062b39a14610240578063222ae78614610290575b5f80fd5b34801561020b575f80fd5b5061021f61021a366004612383565b61074b565b005b34801561022c575f80fd5b5061021f61023b3660046123af565b610965565b34801561024b575f80fd5b506102737f000000000000000000000000000000000000000000000000000000000000000081565b6040516001600160a01b0390911681526020015b60405180910390f35b34801561029b575f80fd5b506102a4610d0e565b604051908152602001610287565b3480156102bd575f80fd5b506102a46102cc3660046123e3565b60026020525f908152604090205481565b3480156102e8575f80fd5b506102a460015481565b3480156102fd575f80fd5b5061021f61030c3660046123fa565b610d3e565b34801561031c575f80fd5b5061021f61032b3660046123fa565b611011565b34801561033b575f80fd5b5061021f61034a366004612476565b6111f5565b34801561035a575f80fd5b5061021f61036936600461252f565b611485565b348015610379575f80fd5b506102737f000000000000000000000000000000000000000000000000000000000000000081565b3480156103ac575f80fd5b506103dc6103bb3660046123e3565b600881901c5f90815260036020526040902054600160ff9092161c81161490565b6040519015158152602001610287565b3480156103f7575f80fd5b506102a47f000000000000000000000000000000000000000000000000000000000000000081565b34801561042a575f80fd5b5061021f610439366004612383565b6116b5565b348015610449575f80fd5b5061021f610458366004612383565b6118e9565b348015610468575f80fd5b506102a46104773660046123e3565b61198d565b348015610487575f80fd5b506102a4610496366004612565565b6119be565b3480156104a6575f80fd5b506102a460055481565b3480156104bb575f80fd5b506102a47f000000000000000000000000000000000000000000000000000000000000000081565b3480156104ee575f80fd5b5061021f6104fd366004612586565b611a0f565b34801561050d575f80fd5b50600654610273906001600160a01b031681565b34801561052c575f80fd5b506102a47f000000000000000000000000000000000000000000000000000000000000000081565b34801561055f575f80fd5b5061021f61056e366004612383565b611aa1565b34801561057e575f80fd5b506102a45f5481565b348015610592575f80fd5b506102a47f000000000000000000000000000000000000000000000000000000000000000081565b3480156105c5575f80fd5b506102a47f000000000000000000000000000000000000000000000000000000000000000081565b3480156105f8575f80fd5b506102a47f000000000000000000000000000000000000000000000000000000000000000081565b34801561062b575f80fd5b5061021f61063a366004612383565b611c29565b34801561064a575f80fd5b506102a47f000000000000000000000000000000000000000000000000000000000000000081565b34801561067d575f80fd5b506102a47f000000000000000000000000000000000000000000000000000000000000000081565b3480156106b0575f80fd5b506102737f000000000000000000000000000000000000000000000000000000000000000081565b3480156106e3575f80fd5b5061021f6106f2366004612383565b611ee1565b348015610702575f80fd5b50610716610711366004612565565b612148565b60405161028791906125b5565b34801561072e575f80fd5b506102a460045481565b61021f6107463660046123fa565b61220b565b6040516323b872dd60e01b81523360048201523060248201527f000000000000000000000000000000000000000000000000000000000000000060448201527f00000000000000000000000000000000000000000000000000000000000000006001600160a01b0316906323b872dd906064016020604051808303815f875af11580156107da573d5f803e3d5ffd5b505050506040513d601f19601f820116820180604052508101906107fe91906125cf565b6108235760405162461bcd60e51b815260040161081a906125ee565b60405180910390fd5b61082c816119be565b5f83815260026020526040902054146108575760405162461bcd60e51b815260040161081a9061261d565b60c08101516001600160a01b0316156108b25760405162461bcd60e51b815260206004820152601960248201527f436c61696d20616c7265616479206368616c6c656e6765642e00000000000000604482015260640161081a565b5f8160a0015160028111156108c9576108c96125a1565b146109165760405162461bcd60e51b815260206004820152601760248201527f436c61696d20616c72656164792076657269666965642e000000000000000000604482015260640161081a565b3360c0820152610925816119be565b5f83815260026020526040808220929092559051339184917fcfe09ca25f55d949baba5e280f5750c9ba4b9048fca5532f916067d433afe4d79190a35050565b7f00000000000000000000000000000000000000000000000000000000000000006001547f000000000000000000000000000000000000000000000000000000000000000042816109b8576109b8612645565b040311156109fb5760405162461bcd60e51b815260206004820152601060248201526f213934b233b29029b43aba3237bbb71760811b604482015260640161081a565b336001600160a01b037f00000000000000000000000000000000000000000000000000000000000000001614610a7e5760405162461bcd60e51b815260206004820152602260248201527f4e6f742066726f6d206e617469766520476e6f73697320414d42206272696467604482015261329760f11b606482015260840161081a565b7f00000000000000000000000000000000000000000000000000000000000000006001600160a01b0316639e307dff6040518163ffffffff1660e01b8152600401602060405180830381865afa158015610ada573d5f803e3d5ffd5b505050506040513d601f19601f82011682018060405250810190610afe9190612659565b7f000000000000000000000000000000000000000000000000000000000000000014610b605760405162461bcd60e51b815260206004820152601160248201527024b73b30b634b21031b430b4b71034b21760791b604482015260640161081a565b7f00000000000000000000000000000000000000000000000000000000000000006001600160a01b031663d67bdd256040518163ffffffff1660e01b8152600401602060405180830381865afa158015610bbc573d5f803e3d5ffd5b505050506040513d601f19601f82011682018060405250810190610be09190612670565b6001600160a01b03167f00000000000000000000000000000000000000000000000000000000000000006001600160a01b031614610c535760405162461bcd60e51b815260206004820152601060248201526f2737ba10333937b6903937baba32b91760811b604482015260640161081a565b60015483118015610c6357508115155b15610ca55760018390555f8290556040518381527ff786e7f77ede00a02a5464f8f0555798f42ba99a4a920ef2778db8d75e4656f79060200160405180910390a15b610cae816119be565b5f8481526002602052604090205403610d09578051829003610cd657600160a0820152610cf1565b60c08101516001600160a01b031615610cf157600260a08201525b610cfa816119be565b5f848152600260205260409020555b505050565b5f610d397f00000000000000000000000000000000000000000000000000000000000000004261268b565b905090565b336001600160a01b037f00000000000000000000000000000000000000000000000000000000000000001614610da95760405162461bcd60e51b815260206004820152601060248201526f2737ba10333937b690313934b233b29760811b604482015260640161081a565b7f00000000000000000000000000000000000000000000000000000000000000006001600160a01b0316639e307dff6040518163ffffffff1660e01b8152600401602060405180830381865afa158015610e05573d5f803e3d5ffd5b505050506040513d601f19601f82011682018060405250810190610e299190612659565b7f000000000000000000000000000000000000000000000000000000000000000014610e8b5760405162461bcd60e51b815260206004820152601160248201527024b73b30b634b21031b430b4b71034b21760791b604482015260640161081a565b7f00000000000000000000000000000000000000000000000000000000000000006001600160a01b031663d67bdd256040518163ffffffff1660e01b8152600401602060405180830381865afa158015610ee7573d5f803e3d5ffd5b505050506040513d601f19601f82011682018060405250810190610f0b9190612670565b6001600160a01b03167f00000000000000000000000000000000000000000000000000000000000000006001600160a01b031614610f7e5760405162461bcd60e51b815260206004820152601060248201526f2737ba10333937b6903937baba32b91760811b604482015260640161081a565b8060055410610fc65760405162461bcd60e51b815260206004820152601460248201527326b2b9b9b0b3b29034b99037baba3230ba32b21760611b604482015260640161081a565b816004541461100d57600482905560058190556040518281527f684f6fb71cbcb798156dcca2a95dbd142fa1f8957637833b1897ab89e05aa7079060200160405180910390a15b5050565b6006546001600160a01b03163314611027575f80fd5b6040516323b872dd60e01b81523360048201523060248201527f000000000000000000000000000000000000000000000000000000000000000060448201527f00000000000000000000000000000000000000000000000000000000000000006001600160a01b0316906323b872dd906064016020604051808303815f875af11580156110b6573d5f803e3d5ffd5b505050506040513d601f19601f820116820180604052508101906110da91906125cf565b6110f65760405162461bcd60e51b815260040161081a906125ee565b806111135760405162461bcd60e51b815260040161081a9061261d565b5f82815260026020526040902054156111645760405162461bcd60e51b815260206004820152601360248201527221b630b4b69030b63932b0b23c9036b0b2329760691b604482015260640161081a565b6040805160e0810182528281523360208201524263ffffffff16918101919091525f606082018190526080820181905260a0820181905260c08201526111a9906119be565b5f838152600260209081526040918290209290925551828152839133917fd95107f4584744c6c893a04c43058aadd1ce8aac8ca5d64140eaf277de6c1d57910160405180910390a35050565b604085106112375760405162461bcd60e51b815260206004820152600f60248201526e283937b7b3103a37b7903637b7339760891b604482015260640161081a565b5f8484848460405160200161124f94939291906126aa565b604051602081830303815290604052805190602001209050805f5260205f2090505f5b868110156112c7575f88888381811061128d5761128d6126eb565b905060200201359050828111156112b057825f528060205260405f2092506112be565b805f528260205260405f2092505b50600101611272565b50805f54146113095760405162461bcd60e51b815260206004820152600e60248201526d24b73b30b634b210383937b7b31760911b604482015260640161081a565b600885901c66ffffffffffffff165f8181526003602052604090205460ff87169080821c6001161561137d5760405162461bcd60e51b815260206004820152601760248201527f4d65737361676520616c72656164792072656c61796564000000000000000000604482015260640161081a565b5f838152600360205260408082206001851b84179055516001600160a01b038916906113ac90899089906126ff565b5f604051808303815f865af19150503d805f81146113e5576040519150601f19603f3d011682016040523d82523d5f602084013e6113ea565b606091505b505090508061143b5760405162461bcd60e51b815260206004820152601760248201527f4661696c656420746f2063616c6c20636f6e7472616374000000000000000000604482015260640161081a565b60405167ffffffffffffffff8a1681527f54303fab361bc52c2f1f56ace7351189582264f74ce47a6e7c3f478d64c429439060200160405180910390a15050505050505050505050565b61149761049636839003830183612565565b5f83815260026020526040902054146114c25760405162461bcd60e51b815260040161081a9061261d565b60026114d460c0830160a0840161270e565b60028111156114e5576114e56125a1565b146115265760405162461bcd60e51b815260206004820152601160248201527021b430b63632b733b2903330b4b632b21760791b604482015260640161081a565b5f828152600260205260408082209190915551630852cd8d60e31b81527f000000000000000000000000000000000000000000000000000000000000000060048201527f00000000000000000000000000000000000000000000000000000000000000006001600160a01b0316906342966c68906024015f604051808303815f87803b1580156115b4575f80fd5b505af11580156115c6573d5f803e3d5ffd5b50506001600160a01b037f000000000000000000000000000000000000000000000000000000000000000016915063a9059cbb905061160b60e0840160c08501612586565b6040516001600160e01b031960e084901b1681526001600160a01b0390911660048201527f000000000000000000000000000000000000000000000000000000000000000060248201526044015b6020604051808303815f875af1158015611675573d5f803e3d5ffd5b505050506040513d601f19601f8201168201806040525081019061169991906125cf565b61100d5760405162461bcd60e51b815260040161081a906125ee565b6116be816119be565b5f83815260026020526040902054146116e95760405162461bcd60e51b815260040161081a9061261d565b60018160a001516002811115611701576117016125a1565b1461173e5760405162461bcd60e51b815260206004820152600d60248201526c21b630b4b6903330b4b632b21760991b604482015260640161081a565b5f8281526002602052604081205560c08101516001600160a01b03161561186e57604051630852cd8d60e31b81527f000000000000000000000000000000000000000000000000000000000000000060048201527f00000000000000000000000000000000000000000000000000000000000000006001600160a01b0316906342966c68906024015f604051808303815f87803b1580156117dd575f80fd5b505af11580156117ef573d5f803e3d5ffd5b50505050602081015160405163a9059cbb60e01b81526001600160a01b0391821660048201527f000000000000000000000000000000000000000000000000000000000000000060248201527f00000000000000000000000000000000000000000000000000000000000000009091169063a9059cbb90604401611659565b602081015160405163a9059cbb60e01b81526001600160a01b0391821660048201527f000000000000000000000000000000000000000000000000000000000000000060248201527f00000000000000000000000000000000000000000000000000000000000000009091169063a9059cbb90604401611659565b6006546001600160a01b031633146118ff575f80fd5b611908816119be565b5f83815260026020526040902054146119335760405162461bcd60e51b815260040161081a9061261d565b63ffffffff428116606083015243166080820152611950816119be565b5f8381526002602052604080822092909255905183917f37b700b61b9b4710dddb0c3316b2be7ef6088ed4b1d7bfe0fb98be8f9a163e1691a25050565b5f6119b87f00000000000000000000000000000000000000000000000000000000000000008361268b565b92915050565b80516020808301516040808501516060860151608087015160a088015160c089015194515f986119f2989097969101612727565b604051602081830303815290604052805190602001209050919050565b6006546001600160a01b03163314611a25575f80fd5b6006546001600160a01b03163314611a7f5760405162461bcd60e51b815260206004820152601860248201527f496e76616c696420546573746e6574204f70657261746f720000000000000000604482015260640161081a565b600680546001600160a01b0319166001600160a01b0392909216919091179055565b7f00000000000000000000000000000000000000000000000000000000000000006001547f00000000000000000000000000000000000000000000000000000000000000004281611af457611af4612645565b04031115611b375760405162461bcd60e51b815260206004820152601060248201526f213934b233b29029b43aba3237bbb71760811b604482015260640161081a565b611b40816119be565b5f8381526002602052604090205414611b6b5760405162461bcd60e51b815260040161081a9061261d565b60c08101516001600160a01b031615611bbd5760405162461bcd60e51b815260206004820152601460248201527321b630b4b69034b99031b430b63632b733b2b21760611b604482015260640161081a565b600154821115611c0457600182905580515f556040518281527ff786e7f77ede00a02a5464f8f0555798f42ba99a4a920ef2778db8d75e4656f79060200160405180910390a15b600160a0820152611c14816119be565b5f928352600260205260409092209190915550565b7f00000000000000000000000000000000000000000000000000000000000000006001547f00000000000000000000000000000000000000000000000000000000000000004281611c7c57611c7c612645565b040311611cbd5760405162461bcd60e51b815260206004820152600f60248201526e213934b233b290293ab73734b7339760891b604482015260640161081a565b611cc6816119be565b5f8381526002602052604090205414611cf15760405162461bcd60e51b815260040161081a9061261d565b5f8160a001516002811115611d0857611d086125a1565b14611d475760405162461bcd60e51b815260206004820152600f60248201526e21b630b4b6903932b9b7b63b32b21760891b604482015260640161081a565b60c08101516001600160a01b03161561100d5760208101516001600160a01b0316611df8575f828152600260205260408082209190915560c0820151905163a9059cbb60e01b81526001600160a01b0391821660048201527f000000000000000000000000000000000000000000000000000000000000000060248201527f00000000000000000000000000000000000000000000000000000000000000009091169063a9059cbb90604401611659565b60c0810180515f909152611e0b826119be565b505f839052600260205260405163a9059cbb60e01b81526001600160a01b0382811660048301527f000000000000000000000000000000000000000000000000000000000000000060248301527f0000000000000000000000000000000000000000000000000000000000000000169063a9059cbb906044015b6020604051808303815f875af1158015611ea1573d5f803e3d5ffd5b505050506040513d601f19601f82011682018060405250810190611ec591906125cf565b610d095760405162461bcd60e51b815260040161081a906125ee565b7f00000000000000000000000000000000000000000000000000000000000000006001547f00000000000000000000000000000000000000000000000000000000000000004281611f3457611f34612645565b040311611f755760405162461bcd60e51b815260206004820152600f60248201526e213934b233b290293ab73734b7339760891b604482015260640161081a565b611f7e816119be565b5f8381526002602052604090205414611fa95760405162461bcd60e51b815260040161081a9061261d565b5f8160a001516002811115611fc057611fc06125a1565b14611fff5760405162461bcd60e51b815260206004820152600f60248201526e21b630b4b6903932b9b7b63b32b21760891b604482015260640161081a565b60208101516001600160a01b03161561100d5760c08101516001600160a01b03166120b0575f82815260026020908152604080832092909255820151905163a9059cbb60e01b81526001600160a01b0391821660048201527f000000000000000000000000000000000000000000000000000000000000000060248201527f00000000000000000000000000000000000000000000000000000000000000009091169063a9059cbb90604401611659565b6020810180515f9091526120c3826119be565b5f8481526002602052604090819020919091555163a9059cbb60e01b81526001600160a01b0382811660048301527f000000000000000000000000000000000000000000000000000000000000000060248301527f0000000000000000000000000000000000000000000000000000000000000000169063a9059cbb90604401611e85565b5f816060015163ffffffff165f0361216257506002919050565b7f0000000000000000000000000000000000000000000000000000000000000000826060015163ffffffff164203101561219e57506003919050565b5f6005836060015163ffffffff164203816121bb576121bb612645565b608085015163ffffffff16919004019050437f0000000000000000000000000000000000000000000000000000000000000000818303116121ff5760019250612203565b5f92505b50505b919050565b6122158282611011565b6040805160e0810182528281523360208201524263ffffffff16918101919091525f606082018190526080820181905260a0820181905260c082015261225b83826118e9565b63ffffffff4281166060830152431660808201526122798382611aa1565b600160a0820152610d0983826116b5565b6001600160a01b038116811461229e575f80fd5b50565b80356122068161228a565b803563ffffffff81168114612206575f80fd5b803560038110612206575f80fd5b5f60e082840312156122dd575f80fd5b60405160e0810181811067ffffffffffffffff8211171561230c57634e487b7160e01b5f52604160045260245ffd5b60405282358152905080612322602084016122a1565b6020820152612333604084016122ac565b6040820152612344606084016122ac565b6060820152612355608084016122ac565b608082015261236660a084016122bf565b60a082015261237760c084016122a1565b60c08201525092915050565b5f806101008385031215612395575f80fd5b823591506123a684602085016122cd565b90509250929050565b5f805f61012084860312156123c2575f80fd5b83359250602084013591506123da85604086016122cd565b90509250925092565b5f602082840312156123f3575f80fd5b5035919050565b5f806040838503121561240b575f80fd5b50508035926020909101359150565b803567ffffffffffffffff81168114612206575f80fd5b5f8083601f840112612441575f80fd5b50813567ffffffffffffffff811115612458575f80fd5b60208301915083602082850101111561246f575f80fd5b9250929050565b5f805f805f806080878903121561248b575f80fd5b863567ffffffffffffffff808211156124a2575f80fd5b818901915089601f8301126124b5575f80fd5b8135818111156124c3575f80fd5b8a60208260051b85010111156124d7575f80fd5b602083019850809750506124ed60208a0161241a565b95506124fb60408a016122a1565b94506060890135915080821115612510575f80fd5b5061251d89828a01612431565b979a9699509497509295939492505050565b5f80828403610100811215612542575f80fd5b8335925060e0601f1982011215612557575f80fd5b506020830190509250929050565b5f60e08284031215612575575f80fd5b61257f83836122cd565b9392505050565b5f60208284031215612596575f80fd5b813561257f8161228a565b634e487b7160e01b5f52602160045260245ffd5b60208101600483106125c9576125c96125a1565b91905290565b5f602082840312156125df575f80fd5b8151801515811461257f575f80fd5b6020808252601590820152742330b4b632b2102ba2aa24103a3930b739b332b91760591b604082015260600190565b6020808252600e908201526d24b73b30b634b21031b630b4b69760911b604082015260600190565b634e487b7160e01b5f52601260045260245ffd5b5f60208284031215612669575f80fd5b5051919050565b5f60208284031215612680575f80fd5b815161257f8161228a565b5f826126a557634e487b7160e01b5f52601260045260245ffd5b500490565b60c085901b6001600160c01b0319168152606084901b6bffffffffffffffffffffffff191660088201528183601c8301375f9101601c019081529392505050565b634e487b7160e01b5f52603260045260245ffd5b818382375f9101908152919050565b5f6020828403121561271e575f80fd5b61257f826122bf565b8781525f6bffffffffffffffffffffffff19808960601b16602084015263ffffffff60e01b808960e01b166034850152808860e01b166038850152808760e01b16603c850152506003851061277e5761277e6125a1565b60f89490941b60408301525060609190911b90911660418201526055019594505050505056fea2646970667358221220535aceacac91488256f76d0918dbee45c9bd3486a1fcadeb827698927b74d80a64736f6c63430008180033",
  "devdoc": {
    "details": "Vea Outbox From Arbitrum to Chiado. Note: This contract is deployed on Chiado. Note: This contract is permissioned for developer testing (devnet).",
    "events": {
      "Challenged(uint256,address)": {
        "details": "This event indicates that `sendSnapshot(epoch)` should be called in the inbox.",
        "params": {
          "_challenger": "The address of the challenger.",
          "_epoch": "The epoch associated with the challenged claim."
        }
      },
      "Claimed(address,uint256,bytes32)": {
        "details": "Watchers check this event to challenge fraud.",
        "params": {
          "_claimer": "The address of the claimer.",
          "_epoch": "The epoch associated with the claim.",
          "_stateRoot": "The state root of the claim."
        }
      },
      "MessageRelayed(uint64)": {
        "details": "This event indicates that a message has been relayed.",
        "params": {
          "_msgId": "The msgId of the message that was relayed."
        }
      },
      "VerificationStarted(uint256)": {
        "details": "This event indicates that the censorship test started and all challengers are ready even in the worst case scenario of a malicious sequencer.",
        "params": {
          "_epoch": "The epoch that started verification."
        }
      },
      "Verified(uint256)": {
        "details": "This events indicates that verification has succeeded. The messages are ready to be relayed.",
        "params": {
          "_epoch": "The epoch that was verified."
        }
      },
      "sequencerDelayLimitUpdateReceived(uint256)": {
        "details": "This event indicates the sequencer limit updated.",
        "params": {
          "_newSequencerDelayLimit": "The new sequencer delay limit."
        }
      }
    },
    "kind": "dev",
    "methods": {
      "censorshipTestStatus((bytes32,address,uint32,uint32,uint32,uint8,address))": {
        "details": "Gets the status of the censorship test for claim.",
        "params": {
          "_claim": "The claim to test."
        },
        "returns": {
          "status": "True if the claim passed the censorship test."
        }
      },
      "challenge(uint256,(bytes32,address,uint32,uint32,uint32,uint8,address))": {
        "details": "Submit a challenge for the claim of the inbox state root snapshot taken at 'epoch'.",
        "params": {
          "_claim": "The claim associated with the epoch.",
          "_epoch": "The epoch of the claim to challenge."
        }
      },
      "changeDevnetOperator(address)": {
        "details": "Changes the devnet operator.",
        "params": {
          "_devnetOperator": "The new testnet operator."
        }
      },
      "claim(uint256,bytes32)": {
        "details": "Submit a claim about the _stateRoot at _epoch and submit a deposit.",
        "params": {
          "_epoch": "The epoch for which the claim is made.",
          "_stateRoot": "The state root to claim."
        }
      },
      "constructor": {
        "details": "Constructor. Note: epochPeriod must match the VeaInboxArbToGnosis contract deployment on Arbitrum, since it's on a different chain, we can't read it and trust the deployer to set a correct value",
        "params": {
          "_amb": "The address of the AMB contract on Gnosis.",
          "_deposit": "The deposit amount to submit a claim in wei.",
          "_epochPeriod": "The duration of each epoch.",
          "_maxMissingBlocks": "The maximum number of blocks that can be missing in a challenge period.",
          "_minChallengePeriod": "The minimum time window to challenge a claim.",
          "_routerArbToGnosis": "The address of the router on Ethereum that routes from Arbitrum to Gnosis.",
          "_routerChainId": "The chain id of the routerArbToGnosis.",
          "_sequencerDelayLimit": "The maximum delay in seconds that the Arbitrum sequencer can backdate transactions.",
          "_timeoutEpochs": "The epochs before the bridge is considered shutdown.",
          "_weth": "The address of the WETH contract on Gnosis."
        }
      },
      "devnetAdvanceState(uint256,bytes32)": {
        "details": "Testnet operator utility function to claim, validate and withdraw.",
        "params": {
          "_epoch": "The epoch for which the claim is made.",
          "_stateroot": "The state root to claim."
        }
      },
      "epochAt(uint256)": {
        "details": "Get the current epoch from the outbox's point of view using the Ethereum L1 clock.",
        "returns": {
          "epoch": "The hash of the claim."
        }
      },
      "epochNow()": {
        "details": "Get the current epoch from the outbox's point of view using the Ethereum L1 clock.",
        "returns": {
          "epoch": "The hash of the claim."
        }
      },
      "hashClaim((bytes32,address,uint32,uint32,uint32,uint8,address))": {
        "details": "Hashes the claim.",
        "params": {
          "_claim": "The claim to hash."
        },
        "returns": {
          "hashedClaim": "The hash of the claim."
        }
      },
      "isMsgRelayed(uint256)": {
        "details": "Get the msg relayed status.",
        "params": {
          "_msgId": "The msgId to check."
        },
        "returns": {
          "isRelayed": "True if the msg was relayed."
        }
      },
      "resolveDisputedClaim(uint256,bytes32,(bytes32,address,uint32,uint32,uint32,uint8,address))": {
        "details": "Resolves any challenge of the optimistic claim for '_epoch'.",
        "params": {
          "_claim": "The claim associated with the epoch.",
          "_epoch": "The epoch to verify.",
          "_stateRoot": "The true state root for the epoch."
        }
      },
      "sendMessage(bytes32[],uint64,address,bytes)": {
        "details": "Verifies and relays the message. UNTRUSTED.",
        "params": {
          "_message": "The message encoded in the vea inbox as abi.encodeWithSelector(fnSelector, msg.sender, param1, param2, ...)",
          "_msgId": "The zero based index of the message in the inbox.",
          "_proof": "The merkle proof to prove the message inclusion in the inbox state root.",
          "_to": "The address of the contract on Gnosis to call."
        }
      },
      "startVerification(uint256,(bytes32,address,uint32,uint32,uint32,uint8,address))": {
        "details": "Start verification for claim for 'epoch'.",
        "params": {
          "_claim": "The claim associated with the epoch.",
          "_epoch": "The epoch of the claim to challenge."
        }
      },
      "updateSequencerDelayLimit(uint256,uint256)": {
        "details": "Set the sequencerDelayLimit by receiving a message from the AMB.",
        "params": {
          "_newSequencerDelayLimit": "The delaySeconds from the MaxTimeVariation struct in the Arbitrum Sequencer contract.",
          "_timestamp": "The timestamp of the message."
        }
      },
      "verifySnapshot(uint256,(bytes32,address,uint32,uint32,uint32,uint8,address))": {
        "details": "Resolves the optimistic claim for '_epoch'.",
        "params": {
          "_claim": "The claim associated with the epoch.",
          "_epoch": "The epoch of the optimistic claim."
        }
      },
      "withdrawChallengeDeposit(uint256,(bytes32,address,uint32,uint32,uint32,uint8,address))": {
        "details": "Sends the deposit back to the Challenger if successful. Includes a portion of the Bridger's deposit.",
        "params": {
          "_claim": "The claim associated with the epoch.",
          "_epoch": "The epoch associated with the challenge deposit to withraw."
        }
      },
      "withdrawChallengerEscapeHatch(uint256,(bytes32,address,uint32,uint32,uint32,uint8,address))": {
        "details": "When bridge is shutdown, no claim disputes can be resolved. This allows the challenger to withdraw their deposit.",
        "params": {
          "_claim": "The claim associated with the epoch.",
          "_epoch": "The epoch associated with the claim deposit to withraw."
        }
      },
      "withdrawClaimDeposit(uint256,(bytes32,address,uint32,uint32,uint32,uint8,address))": {
        "details": "Sends the deposit back to the Claimer if successful. Includes a portion of the Challenger's deposit if unsuccessfully challenged.",
        "params": {
          "_claim": "The claim associated with the epoch.",
          "_epoch": "The epoch associated with the claim deposit to withraw."
        }
      },
      "withdrawClaimerEscapeHatch(uint256,(bytes32,address,uint32,uint32,uint32,uint8,address))": {
        "details": "When bridge is shutdown, no claim disputes can be resolved. This allows the claimer to withdraw their deposit.",
        "params": {
          "_claim": "The claim associated with the epoch.",
          "_epoch": "The epoch associated with the claim deposit to withraw."
        }
      }
    },
    "version": 1
  },
  "userdoc": {
    "kind": "user",
    "methods": {
      "resolveDisputedClaim(uint256,bytes32,(bytes32,address,uint32,uint32,uint32,uint8,address))": {
        "notice": "Note: Access restricted to AMB."
      }
    },
    "version": 1
  },
  "storageLayout": {
    "storage": [
      {
        "astId": 2671,
        "contract": "src/devnets/arbitrumToGnosis/VeaOutboxArbToGnosisDevnet.sol:VeaOutboxArbToGnosisDevnet",
        "label": "stateRoot",
        "offset": 0,
        "slot": "0",
        "type": "t_bytes32"
      },
      {
        "astId": 2673,
        "contract": "src/devnets/arbitrumToGnosis/VeaOutboxArbToGnosisDevnet.sol:VeaOutboxArbToGnosisDevnet",
        "label": "latestVerifiedEpoch",
        "offset": 0,
        "slot": "1",
        "type": "t_uint256"
      },
      {
        "astId": 2677,
        "contract": "src/devnets/arbitrumToGnosis/VeaOutboxArbToGnosisDevnet.sol:VeaOutboxArbToGnosisDevnet",
        "label": "claimHashes",
        "offset": 0,
        "slot": "2",
        "type": "t_mapping(t_uint256,t_bytes32)"
      },
      {
        "astId": 2681,
        "contract": "src/devnets/arbitrumToGnosis/VeaOutboxArbToGnosisDevnet.sol:VeaOutboxArbToGnosisDevnet",
        "label": "relayed",
        "offset": 0,
        "slot": "3",
        "type": "t_mapping(t_uint256,t_bytes32)"
      },
      {
        "astId": 2683,
        "contract": "src/devnets/arbitrumToGnosis/VeaOutboxArbToGnosisDevnet.sol:VeaOutboxArbToGnosisDevnet",
        "label": "sequencerDelayLimit",
        "offset": 0,
        "slot": "4",
        "type": "t_uint256"
      },
      {
        "astId": 2685,
        "contract": "src/devnets/arbitrumToGnosis/VeaOutboxArbToGnosisDevnet.sol:VeaOutboxArbToGnosisDevnet",
        "label": "timestampDelayUpdated",
        "offset": 0,
        "slot": "5",
        "type": "t_uint256"
      },
      {
        "astId": 7085,
        "contract": "src/devnets/arbitrumToGnosis/VeaOutboxArbToGnosisDevnet.sol:VeaOutboxArbToGnosisDevnet",
        "label": "devnetOperator",
        "offset": 0,
        "slot": "6",
        "type": "t_address"
      }
    ],
    "types": {
      "t_address": {
        "encoding": "inplace",
        "label": "address",
        "numberOfBytes": "20"
      },
      "t_bytes32": {
        "encoding": "inplace",
        "label": "bytes32",
        "numberOfBytes": "32"
      },
      "t_mapping(t_uint256,t_bytes32)": {
        "encoding": "mapping",
        "key": "t_uint256",
        "label": "mapping(uint256 => bytes32)",
        "numberOfBytes": "32",
        "value": "t_bytes32"
      },
      "t_uint256": {
        "encoding": "inplace",
        "label": "uint256",
        "numberOfBytes": "32"
      }
    }
  }
}