{
  "address": "0x1Ec41ca93253F861587a495592206B471B98715c",
  "abi": [
    {
      "inputs": [
        {
          "internalType": "uint256",
          "name": "_deposit",
          "type": "uint256"
        },
        {
          "internalType": "uint256",
          "name": "_epochPeriod",
          "type": "uint256"
        },
        {
          "internalType": "uint256",
          "name": "_challengePeriod",
          "type": "uint256"
        },
        {
          "internalType": "uint256",
          "name": "_timeoutEpochs",
          "type": "uint256"
        },
        {
          "internalType": "uint256",
          "name": "_claimDelay",
          "type": "uint256"
        },
        {
          "internalType": "contract IAMB",
          "name": "_amb",
          "type": "address"
        },
        {
          "internalType": "address",
          "name": "_router",
          "type": "address"
        },
        {
          "internalType": "uint256",
          "name": "_maxMissingBlocks",
          "type": "uint256"
        }
      ],
      "stateMutability": "nonpayable",
      "type": "constructor"
    },
    {
      "anonymous": false,
      "inputs": [
        {
          "indexed": false,
          "internalType": "uint256",
          "name": "epoch",
          "type": "uint256"
        },
        {
          "indexed": true,
          "internalType": "address",
          "name": "challenger",
          "type": "address"
        }
      ],
      "name": "Challenged",
      "type": "event"
    },
    {
      "anonymous": false,
      "inputs": [
        {
          "indexed": true,
          "internalType": "address",
          "name": "claimer",
          "type": "address"
        },
        {
          "indexed": false,
          "internalType": "bytes32",
          "name": "stateRoot",
          "type": "bytes32"
        }
      ],
      "name": "Claimed",
      "type": "event"
    },
    {
      "anonymous": false,
      "inputs": [
        {
          "indexed": false,
          "internalType": "uint64",
          "name": "msgId",
          "type": "uint64"
        }
      ],
      "name": "MessageRelayed",
      "type": "event"
    },
    {
      "anonymous": false,
      "inputs": [
        {
          "indexed": false,
          "internalType": "uint256",
          "name": "epoch",
          "type": "uint256"
        }
      ],
      "name": "Verified",
      "type": "event"
    },
    {
      "inputs": [],
      "name": "amb",
      "outputs": [
        {
          "internalType": "contract IAMB",
          "name": "",
          "type": "address"
        }
      ],
      "stateMutability": "view",
      "type": "function"
    },
    {
      "inputs": [
        {
          "internalType": "uint256",
          "name": "epoch",
          "type": "uint256"
        },
        {
          "components": [
            {
              "internalType": "bytes32",
              "name": "stateRoot",
              "type": "bytes32"
            },
            {
              "internalType": "address",
              "name": "claimer",
              "type": "address"
            },
            {
              "internalType": "uint32",
              "name": "timestamp",
              "type": "uint32"
            },
            {
              "internalType": "uint32",
              "name": "blocknumber",
              "type": "uint32"
            },
            {
              "internalType": "enum IVeaOutboxArbToGnosis.Party",
              "name": "honest",
              "type": "uint8"
            },
            {
              "internalType": "address",
              "name": "challenger",
              "type": "address"
            }
          ],
          "internalType": "struct IVeaOutboxArbToGnosis.Claim",
          "name": "claim",
          "type": "tuple"
        }
      ],
      "name": "challenge",
      "outputs": [],
      "stateMutability": "payable",
      "type": "function"
    },
    {
      "inputs": [],
      "name": "challengePeriod",
      "outputs": [
        {
          "internalType": "uint256",
          "name": "",
          "type": "uint256"
        }
      ],
      "stateMutability": "view",
      "type": "function"
    },
    {
      "inputs": [
        {
          "internalType": "uint256",
          "name": "_epoch",
          "type": "uint256"
        },
        {
          "internalType": "bytes32",
          "name": "_stateRoot",
          "type": "bytes32"
        }
      ],
      "name": "claim",
      "outputs": [],
      "stateMutability": "payable",
      "type": "function"
    },
    {
      "inputs": [],
      "name": "claimDelay",
      "outputs": [
        {
          "internalType": "uint256",
          "name": "",
          "type": "uint256"
        }
      ],
      "stateMutability": "view",
      "type": "function"
    },
    {
      "inputs": [
        {
          "internalType": "uint256",
          "name": "",
          "type": "uint256"
        }
      ],
      "name": "claimHashes",
      "outputs": [
        {
          "internalType": "bytes32",
          "name": "",
          "type": "bytes32"
        }
      ],
      "stateMutability": "view",
      "type": "function"
    },
    {
      "inputs": [],
      "name": "deposit",
      "outputs": [
        {
          "internalType": "uint256",
          "name": "",
          "type": "uint256"
        }
      ],
      "stateMutability": "view",
      "type": "function"
    },
    {
      "inputs": [],
      "name": "epochPeriod",
      "outputs": [
        {
          "internalType": "uint256",
          "name": "",
          "type": "uint256"
        }
      ],
      "stateMutability": "view",
      "type": "function"
    },
    {
      "inputs": [
        {
          "components": [
            {
              "internalType": "bytes32",
              "name": "stateRoot",
              "type": "bytes32"
            },
            {
              "internalType": "address",
              "name": "claimer",
              "type": "address"
            },
            {
              "internalType": "uint32",
              "name": "timestamp",
              "type": "uint32"
            },
            {
              "internalType": "uint32",
              "name": "blocknumber",
              "type": "uint32"
            },
            {
              "internalType": "enum IVeaOutboxArbToGnosis.Party",
              "name": "honest",
              "type": "uint8"
            },
            {
              "internalType": "address",
              "name": "challenger",
              "type": "address"
            }
          ],
          "internalType": "struct IVeaOutboxArbToGnosis.Claim",
          "name": "claim",
          "type": "tuple"
        }
      ],
      "name": "hashClaim",
      "outputs": [
        {
          "internalType": "bytes32",
          "name": "",
          "type": "bytes32"
        }
      ],
      "stateMutability": "pure",
      "type": "function"
    },
    {
      "inputs": [],
      "name": "latestVerifiedEpoch",
      "outputs": [
        {
          "internalType": "uint256",
          "name": "",
          "type": "uint256"
        }
      ],
      "stateMutability": "view",
      "type": "function"
    },
    {
      "inputs": [],
      "name": "maxMissingBlocks",
      "outputs": [
        {
          "internalType": "uint256",
          "name": "",
          "type": "uint256"
        }
      ],
      "stateMutability": "view",
      "type": "function"
    },
    {
      "inputs": [
        {
          "components": [
            {
              "internalType": "bytes32",
              "name": "stateRoot",
              "type": "bytes32"
            },
            {
              "internalType": "address",
              "name": "claimer",
              "type": "address"
            },
            {
              "internalType": "uint32",
              "name": "timestamp",
              "type": "uint32"
            },
            {
              "internalType": "uint32",
              "name": "blocknumber",
              "type": "uint32"
            },
            {
              "internalType": "enum IVeaOutboxArbToGnosis.Party",
              "name": "honest",
              "type": "uint8"
            },
            {
              "internalType": "address",
              "name": "challenger",
              "type": "address"
            }
          ],
          "internalType": "struct IVeaOutboxArbToGnosis.Claim",
          "name": "claim",
          "type": "tuple"
        }
      ],
      "name": "passedTest",
      "outputs": [
        {
          "internalType": "bool",
          "name": "",
          "type": "bool"
        }
      ],
      "stateMutability": "view",
      "type": "function"
    },
    {
      "inputs": [
        {
          "internalType": "uint256",
          "name": "",
          "type": "uint256"
        }
      ],
      "name": "relayed",
      "outputs": [
        {
          "internalType": "bytes32",
          "name": "",
          "type": "bytes32"
        }
      ],
      "stateMutability": "view",
      "type": "function"
    },
    {
      "inputs": [
        {
          "internalType": "uint256",
          "name": "epoch",
          "type": "uint256"
        },
        {
          "internalType": "bytes32",
          "name": "_stateRoot",
          "type": "bytes32"
        },
        {
          "components": [
            {
              "internalType": "bytes32",
              "name": "stateRoot",
              "type": "bytes32"
            },
            {
              "internalType": "address",
              "name": "claimer",
              "type": "address"
            },
            {
              "internalType": "uint32",
              "name": "timestamp",
              "type": "uint32"
            },
            {
              "internalType": "uint32",
              "name": "blocknumber",
              "type": "uint32"
            },
            {
              "internalType": "enum IVeaOutboxArbToGnosis.Party",
              "name": "honest",
              "type": "uint8"
            },
            {
              "internalType": "address",
              "name": "challenger",
              "type": "address"
            }
          ],
          "internalType": "struct IVeaOutboxArbToGnosis.Claim",
          "name": "claim",
          "type": "tuple"
        }
      ],
      "name": "resolveDisputedClaim",
      "outputs": [],
      "stateMutability": "nonpayable",
      "type": "function"
    },
    {
      "inputs": [],
      "name": "router",
      "outputs": [
        {
          "internalType": "address",
          "name": "",
          "type": "address"
        }
      ],
      "stateMutability": "view",
      "type": "function"
    },
    {
      "inputs": [
        {
          "internalType": "bytes32[]",
          "name": "proof",
          "type": "bytes32[]"
        },
        {
          "internalType": "uint64",
          "name": "msgId",
          "type": "uint64"
        },
        {
          "internalType": "address",
          "name": "to",
          "type": "address"
        },
        {
          "internalType": "bytes",
          "name": "message",
          "type": "bytes"
        }
      ],
      "name": "sendMessage",
      "outputs": [],
      "stateMutability": "nonpayable",
      "type": "function"
    },
    {
      "inputs": [],
      "name": "stateRoot",
      "outputs": [
        {
          "internalType": "bytes32",
          "name": "",
          "type": "bytes32"
        }
      ],
      "stateMutability": "view",
      "type": "function"
    },
    {
      "inputs": [],
      "name": "testnetOperator",
      "outputs": [
        {
          "internalType": "address",
          "name": "",
          "type": "address"
        }
      ],
      "stateMutability": "view",
      "type": "function"
    },
    {
      "inputs": [],
      "name": "timeoutEpochs",
      "outputs": [
        {
          "internalType": "uint256",
          "name": "",
          "type": "uint256"
        }
      ],
      "stateMutability": "view",
      "type": "function"
    },
    {
      "inputs": [
        {
          "internalType": "uint256",
          "name": "epoch",
          "type": "uint256"
        },
        {
          "components": [
            {
              "internalType": "bytes32",
              "name": "stateRoot",
              "type": "bytes32"
            },
            {
              "internalType": "address",
              "name": "claimer",
              "type": "address"
            },
            {
              "internalType": "uint32",
              "name": "timestamp",
              "type": "uint32"
            },
            {
              "internalType": "uint32",
              "name": "blocknumber",
              "type": "uint32"
            },
            {
              "internalType": "enum IVeaOutboxArbToGnosis.Party",
              "name": "honest",
              "type": "uint8"
            },
            {
              "internalType": "address",
              "name": "challenger",
              "type": "address"
            }
          ],
          "internalType": "struct IVeaOutboxArbToGnosis.Claim",
          "name": "claim",
          "type": "tuple"
        }
      ],
      "name": "validateSnapshot",
      "outputs": [],
      "stateMutability": "nonpayable",
      "type": "function"
    },
    {
      "inputs": [
        {
          "internalType": "uint256",
          "name": "epoch",
          "type": "uint256"
        },
        {
          "components": [
            {
              "internalType": "bytes32",
              "name": "stateRoot",
              "type": "bytes32"
            },
            {
              "internalType": "address",
              "name": "claimer",
              "type": "address"
            },
            {
              "internalType": "uint32",
              "name": "timestamp",
              "type": "uint32"
            },
            {
              "internalType": "uint32",
              "name": "blocknumber",
              "type": "uint32"
            },
            {
              "internalType": "enum IVeaOutboxArbToGnosis.Party",
              "name": "honest",
              "type": "uint8"
            },
            {
              "internalType": "address",
              "name": "challenger",
              "type": "address"
            }
          ],
          "internalType": "struct IVeaOutboxArbToGnosis.Claim",
          "name": "claim",
          "type": "tuple"
        }
      ],
      "name": "withdrawChallengeDeposit",
      "outputs": [],
      "stateMutability": "nonpayable",
      "type": "function"
    },
    {
      "inputs": [
        {
          "internalType": "uint256",
          "name": "epoch",
          "type": "uint256"
        },
        {
          "components": [
            {
              "internalType": "bytes32",
              "name": "stateRoot",
              "type": "bytes32"
            },
            {
              "internalType": "address",
              "name": "claimer",
              "type": "address"
            },
            {
              "internalType": "uint32",
              "name": "timestamp",
              "type": "uint32"
            },
            {
              "internalType": "uint32",
              "name": "blocknumber",
              "type": "uint32"
            },
            {
              "internalType": "enum IVeaOutboxArbToGnosis.Party",
              "name": "honest",
              "type": "uint8"
            },
            {
              "internalType": "address",
              "name": "challenger",
              "type": "address"
            }
          ],
          "internalType": "struct IVeaOutboxArbToGnosis.Claim",
          "name": "claim",
          "type": "tuple"
        }
      ],
      "name": "withdrawChallengerEscapeHatch",
      "outputs": [],
      "stateMutability": "nonpayable",
      "type": "function"
    },
    {
      "inputs": [
        {
          "internalType": "uint256",
          "name": "epoch",
          "type": "uint256"
        },
        {
          "components": [
            {
              "internalType": "bytes32",
              "name": "stateRoot",
              "type": "bytes32"
            },
            {
              "internalType": "address",
              "name": "claimer",
              "type": "address"
            },
            {
              "internalType": "uint32",
              "name": "timestamp",
              "type": "uint32"
            },
            {
              "internalType": "uint32",
              "name": "blocknumber",
              "type": "uint32"
            },
            {
              "internalType": "enum IVeaOutboxArbToGnosis.Party",
              "name": "honest",
              "type": "uint8"
            },
            {
              "internalType": "address",
              "name": "challenger",
              "type": "address"
            }
          ],
          "internalType": "struct IVeaOutboxArbToGnosis.Claim",
          "name": "claim",
          "type": "tuple"
        }
      ],
      "name": "withdrawClaimDeposit",
      "outputs": [],
      "stateMutability": "nonpayable",
      "type": "function"
    },
    {
      "inputs": [
        {
          "internalType": "uint256",
          "name": "epoch",
          "type": "uint256"
        },
        {
          "components": [
            {
              "internalType": "bytes32",
              "name": "stateRoot",
              "type": "bytes32"
            },
            {
              "internalType": "address",
              "name": "claimer",
              "type": "address"
            },
            {
              "internalType": "uint32",
              "name": "timestamp",
              "type": "uint32"
            },
            {
              "internalType": "uint32",
              "name": "blocknumber",
              "type": "uint32"
            },
            {
              "internalType": "enum IVeaOutboxArbToGnosis.Party",
              "name": "honest",
              "type": "uint8"
            },
            {
              "internalType": "address",
              "name": "challenger",
              "type": "address"
            }
          ],
          "internalType": "struct IVeaOutboxArbToGnosis.Claim",
          "name": "claim",
          "type": "tuple"
        }
      ],
      "name": "withdrawClaimerEscapeHatch",
      "outputs": [],
      "stateMutability": "nonpayable",
      "type": "function"
    }
  ],
  "transactionHash": "0x10cd29d15dfa0cb9851b36d2cb4cde8959309f20925a9602965f150822397397",
  "args": [
    "5000000000000000000",
    600,
    600,
    24,
    2,
    "0x99Ca51a3534785ED619f46A79C7Ad65Fa8d85e7a",
    "0x0000000000000000000000000000000000000000",
    10000000000000
  ],
  "numDeployments": 1,
  "solcInputHash": "afe5966308eecf473de8d552eeca90c6",
  "bytecode": "0x6101e06040523480156200001257600080fd5b506040516200225d3803806200225d833981016040819052620000359162000151565b60c08890526101208790526101408690526101808590526101608490526001600160a01b03808416608052821660a0526101a0819052878787878787878762000080600289620001e0565b60e08190526200009289600262000203565b6200009e919062000223565b6101005261012051600190620000b59042620001e0565b620000c1919062000223565b600155610160514210156200011c5760405162461bcd60e51b815260206004820152601860248201527f496e76616c69642065706f6368436c61696d44656c61792e0000000000000000604482015260640160405180910390fd5b5050336101c05250620002399c50505050505050505050505050565b6001600160a01b03811681146200014e57600080fd5b50565b600080600080600080600080610100898b0312156200016f57600080fd5b885197506020890151965060408901519550606089015194506080890151935060a08901516200019f8162000138565b60c08a0151909350620001b28162000138565b8092505060e089015190509295985092959890939650565b634e487b7160e01b600052601160045260246000fd5b600082620001fe57634e487b7160e01b600052601260045260246000fd5b500490565b80820281158282048414176200021d576200021d620001ca565b92915050565b818103818111156200021d576200021d620001ca565b60805160a05160c05160e05161010051610120516101405161016051610180516101a0516101c051611eee6200036f6000396000818161044f015281816107f901526110d80152600081816103730152818161058401526113640152600081816103a701528181610cf9015281816112100152818161152701526116ea0152600081816101e301526108850152600081816104b70152818161114201526112dc0152600081816103db0152818161086401528181610d1e01528181611235015281816114f701526116ba015260006106e5015260008181610692015261193201526000818161048301528181610740015281816107800152818161105f0152818161168001526118430152600081816104eb0152610dfa01526000818161016201528181610d980152610e240152611eee6000f3fe60806040526004361061014b5760003560e01c8063a53d3c26116100b6578063c299be331161006f578063c299be331461041d578063c4402e7f1461043d578063d0e30db014610471578063f3f480d9146104a5578063f887ea40146104d9578063f939bad91461050d57600080fd5b8063a53d3c261461032e578063a557d91814610341578063aa22a1c614610361578063b044397e14610395578063b5b7a184146103c9578063bd7df3f9146103fd57600080fd5b806331d144571161010857806331d144571461027857806331ddf7431461028b57806334c75d72146102ab5780637ba7900c146102cb57806390df63b7146102eb5780639588eca21461031857600080fd5b80631062b39a1461015057806310e8f6bf146101a15780631c8ec299146101d15780632415855b146102135780632639c0601461023557806327ee6bdd14610262575b600080fd5b34801561015c57600080fd5b506101847f000000000000000000000000000000000000000000000000000000000000000081565b6040516001600160a01b0390911681526020015b60405180910390f35b3480156101ad57600080fd5b506101c16101bc36600461198f565b61052d565b6040519015158152602001610198565b3480156101dd57600080fd5b506102057f000000000000000000000000000000000000000000000000000000000000000081565b604051908152602001610198565b34801561021f57600080fd5b5061023361022e3660046119b2565b6105b4565b005b34801561024157600080fd5b506102056102503660046119df565b60026020526000908152604090205481565b34801561026e57600080fd5b5061020560015481565b6102336102863660046119f8565b61077e565b34801561029757600080fd5b506102336102a6366004611aa3565b610a0a565b3480156102b757600080fd5b506102056102c6366004611c31565b610caa565b3480156102d757600080fd5b506102336102e6366004611c4d565b610cf7565b3480156102f757600080fd5b506102056103063660046119df565b60036020526000908152604090205481565b34801561032457600080fd5b5061020560005481565b61023361033c366004611c84565b610fcd565b34801561034d57600080fd5b5061023361035c366004611c84565b61120e565b34801561036d57600080fd5b506102057f000000000000000000000000000000000000000000000000000000000000000081565b3480156103a157600080fd5b506102057f000000000000000000000000000000000000000000000000000000000000000081565b3480156103d557600080fd5b506102057f000000000000000000000000000000000000000000000000000000000000000081565b34801561040957600080fd5b50610233610418366004611c84565b6114f5565b34801561042957600080fd5b50610233610438366004611c84565b6116b8565b34801561044957600080fd5b506101847f000000000000000000000000000000000000000000000000000000000000000081565b34801561047d57600080fd5b506102057f000000000000000000000000000000000000000000000000000000000000000081565b3480156104b157600080fd5b506102057f000000000000000000000000000000000000000000000000000000000000000081565b3480156104e557600080fd5b506101847f000000000000000000000000000000000000000000000000000000000000000081565b34801561051957600080fd5b506102336105283660046119b2565b61187b565b60008060056105426060850160408601611ca8565b6105529063ffffffff1642611cd9565b61055c9190611d08565b61056c6080850160608601611ca8565b63ffffffff1661057c9190611d2a565b9050436105a97f000000000000000000000000000000000000000000000000000000000000000082611d2a565b909111159392505050565b6105c66102c636839003830183611c31565b600083815260026020526040902054146105fb5760405162461bcd60e51b81526004016105f290611d3d565b60405180910390fd5b600161060d60a0830160808401611d7b565b600281111561061e5761061e611d65565b1461065b5760405162461bcd60e51b815260206004820152600d60248201526c21b630b4b6903330b4b632b21760991b60448201526064016105f2565b600082815260026020526040812081905561067c60c0830160a08401611d96565b6001600160a01b031614610722576040516000907f000000000000000000000000000000000000000000000000000000000000000080156108fc029183818181858288f1506106d79350506040840191505060208301611d96565b6001600160a01b03166108fc7f00000000000000000000000000000000000000000000000000000000000000009081150290604051600060405180830381858888f150505050505050565b6107326040820160208301611d96565b6001600160a01b03166108fc7f00000000000000000000000000000000000000000000000000000000000000009081150290604051600060405180830381858888f150505050505b5050565b7f00000000000000000000000000000000000000000000000000000000000000003410156107ee5760405162461bcd60e51b815260206004820152601b60248201527f496e73756666696369656e7420636c61696d206465706f7369742e000000000060448201526064016105f2565b336001600160a01b037f000000000000000000000000000000000000000000000000000000000000000016146108615760405162461bcd60e51b815260206004820152601860248201527724b73b30b634b2102a32b9ba3732ba1027b832b930ba37b960411b60448201526064016105f2565b817f00000000000000000000000000000000000000000000000000000000000000007f00000000000000000000000000000000000000000000000000000000000000004203816108b3576108b3611cf2565b04146108f25760405162461bcd60e51b815260206004820152600e60248201526d24b73b30b634b21032b837b1b41760911b60448201526064016105f2565b8061090f5760405162461bcd60e51b81526004016105f290611d3d565b600082815260026020526040902054156109615760405162461bcd60e51b815260206004820152601360248201527221b630b4b69030b63932b0b23c9036b0b2329760691b60448201526064016105f2565b6109be6040518060c00160405280838152602001336001600160a01b031681526020014263ffffffff1681526020014363ffffffff168152602001600060028111156109af576109af611d65565b81526000602090910152610caa565b600083815260026020908152604091829020929092555182815233917f91d697238e9aa9f3172d17522c9be529b94a892481554e1ea619369b5b12f39a91015b60405180910390a25050565b60408510610a4c5760405162461bcd60e51b815260206004820152600f60248201526e283937b7b3103a37b7903637b7339760891b60448201526064016105f2565b600084848484604051602001610a659493929190611db3565b604051602081830303815290604052805190602001209050806000526020600020905060005b86811015610ae5576000888883818110610aa757610aa7611df5565b90506020020135905082811115610acc57826000528060205260406000209250610adc565b8060005282602052604060002092505b50600101610a8b565b508060005414610b285760405162461bcd60e51b815260206004820152600e60248201526d24b73b30b634b210383937b7b31760911b60448201526064016105f2565b600885901c66ffffffffffffff1660008181526003602052604090205460ff87169080821c60011615610b9d5760405162461bcd60e51b815260206004820152601760248201527f4d65737361676520616c72656164792072656c6179656400000000000000000060448201526064016105f2565b6000838152600360205260408082206001851b84179055516001600160a01b03891690610bcd9089908990611e0b565b6000604051808303816000865af19150503d8060008114610c0a576040519150601f19603f3d011682016040523d82523d6000602084013e610c0f565b606091505b5050905080610c605760405162461bcd60e51b815260206004820152601760248201527f4661696c656420746f2063616c6c20636f6e747261637400000000000000000060448201526064016105f2565b60405167ffffffffffffffff8a1681527f54303fab361bc52c2f1f56ace7351189582264f74ce47a6e7c3f478d64c429439060200160405180910390a15050505050505050505050565b80516020808301516040808501516060860151608087015160a08801519351600097610cda979096959101611e1b565b604051602081830303815290604052805190602001209050919050565b7f0000000000000000000000000000000000000000000000000000000000000000600154017f00000000000000000000000000000000000000000000000000000000000000004281610d4b57610d4b611cf2565b041115610d8d5760405162461bcd60e51b815260206004820152601060248201526f213934b233b29029b43aba3237bbb71760811b60448201526064016105f2565b336001600160a01b037f00000000000000000000000000000000000000000000000000000000000000001614610df85760405162461bcd60e51b815260206004820152601060248201526f2737ba10333937b690313934b233b29760811b60448201526064016105f2565b7f00000000000000000000000000000000000000000000000000000000000000006001600160a01b03167f00000000000000000000000000000000000000000000000000000000000000006001600160a01b031663d67bdd256040518163ffffffff1660e01b8152600401602060405180830381865afa158015610e80573d6000803e3d6000fd5b505050506040513d601f19601f82011682018060405250810190610ea49190611e9b565b6001600160a01b031614610eed5760405162461bcd60e51b815260206004820152601060248201526f2737ba10333937b6903937baba32b91760811b60448201526064016105f2565b60015483118015610efd57508115155b15610f4057600183905560008290556040518381527ff786e7f77ede00a02a5464f8f0555798f42ba99a4a920ef2778db8d75e4656f79060200160405180910390a15b610f4981610caa565b600084815260026020526040902054148015610f7a5750600081608001516002811115610f7857610f78611d65565b145b15610fc8578051829003610f945760016080820152610faf565b60a08101516001600160a01b031615610faf57600260808201525b610fb881610caa565b6000848152600260205260409020555b505050565b610fd681610caa565b600083815260026020526040902054146110025760405162461bcd60e51b81526004016105f290611d3d565b60a08101516001600160a01b03161561105d5760405162461bcd60e51b815260206004820152601960248201527f436c61696d20616c7265616479206368616c6c656e6765642e0000000000000060448201526064016105f2565b7f00000000000000000000000000000000000000000000000000000000000000003410156110cd5760405162461bcd60e51b815260206004820152601f60248201527f496e73756666696369656e74206368616c6c656e6765206465706f7369742e0060448201526064016105f2565b336001600160a01b037f000000000000000000000000000000000000000000000000000000000000000016146111405760405162461bcd60e51b815260206004820152601860248201527724b73b30b634b2102a32b9ba3732ba1027b832b930ba37b960411b60448201526064016105f2565b7f0000000000000000000000000000000000000000000000000000000000000000816040015163ffffffff160142106111bb5760405162461bcd60e51b815260206004820152601960248201527f4368616c6c656e676520706572696f6420656c61707365642e0000000000000060448201526064016105f2565b3360a08201526111ca81610caa565b600083815260026020908152604091829020929092555183815233917fcfe09ca25f55d949baba5e280f5750c9ba4b9048fca5532f916067d433afe4d791016109fe565b7f0000000000000000000000000000000000000000000000000000000000000000600154017f0000000000000000000000000000000000000000000000000000000000000000428161126257611262611cf2565b0411156112a45760405162461bcd60e51b815260206004820152601060248201526f213934b233b29029b43aba3237bbb71760811b60448201526064016105f2565b6112ad81610caa565b600083815260026020526040902054146112d95760405162461bcd60e51b81526004016105f290611d3d565b427f0000000000000000000000000000000000000000000000000000000000000000826040015163ffffffff1601106113625760405162461bcd60e51b815260206004820152602560248201527f4368616c6c656e676520706572696f6420686173206e6f742079657420656c616044820152643839b2b21760d91b60648201526084016105f2565b7f000000000000000000000000000000000000000000000000000000000000000043016005826040015163ffffffff164203816113a1576113a1611cf2565b04826060015163ffffffff160111156114355760405162461bcd60e51b815260206004820152604a60248201527f546f6f206d616e79206d697373696e6720626c6f636b732e20506f737369626c60448201527f652063656e736f72736869702061747461636b2e205573652063616e6f6e696360648201526930b610313934b233b29760b11b608482015260a4016105f2565b60a08101516001600160a01b0316156114875760405162461bcd60e51b815260206004820152601460248201527321b630b4b69034b99031b430b63632b733b2b21760611b60448201526064016105f2565b6001548211156114cf57600182905580516000556040518281527ff786e7f77ede00a02a5464f8f0555798f42ba99a4a920ef2778db8d75e4656f79060200160405180910390a15b600160808201526114df81610caa565b6000928352600260205260409092209190915550565b7f0000000000000000000000000000000000000000000000000000000000000000428161152457611524611cf2565b047f000000000000000000000000000000000000000000000000000000000000000060015401106115895760405162461bcd60e51b815260206004820152600f60248201526e213934b233b290293ab73734b7339760891b60448201526064016105f2565b61159281610caa565b600083815260026020526040902054146115be5760405162461bcd60e51b81526004016105f290611d3d565b6000816080015160028111156115d6576115d6611d65565b146116155760405162461bcd60e51b815260206004820152600f60248201526e21b630b4b6903932b9b7b63b32b21760891b60448201526064016105f2565b60a08101516001600160a01b03161561077a5760208101516001600160a01b031661164e5760008281526002602052604081205561166a565b600060a082015261165e81610caa565b50600082905260026020525b60a08101516040516001600160a01b03909116907f000000000000000000000000000000000000000000000000000000000000000080156108fc02916000818181858888f150505050505050565b7f000000000000000000000000000000000000000000000000000000000000000042816116e7576116e7611cf2565b047f0000000000000000000000000000000000000000000000000000000000000000600154011061174c5760405162461bcd60e51b815260206004820152600f60248201526e213934b233b290293ab73734b7339760891b60448201526064016105f2565b61175581610caa565b600083815260026020526040902054146117815760405162461bcd60e51b81526004016105f290611d3d565b60008160800151600281111561179957611799611d65565b146117d85760405162461bcd60e51b815260206004820152600f60248201526e21b630b4b6903932b9b7b63b32b21760891b60448201526064016105f2565b60208101516001600160a01b03161561077a5760a08101516001600160a01b03166118115760008281526002602052604081205561182d565b6000602082015261182181610caa565b50600082905260026020525b60208101516040516001600160a01b03909116907f000000000000000000000000000000000000000000000000000000000000000080156108fc02916000818181858888f150505050505050565b61188d6102c636839003830183611c31565b600083815260026020526040902054146118b95760405162461bcd60e51b81526004016105f290611d3d565b60026118cb60a0830160808401611d7b565b60028111156118dc576118dc611d65565b1461191d5760405162461bcd60e51b815260206004820152601160248201527021b430b63632b733b2903330b4b632b21760791b60448201526064016105f2565b600082815260026020526040808220829055517f000000000000000000000000000000000000000000000000000000000000000080156108fc029183818181858288f1506106d793505060c0840191505060a08301611d96565b600060c0828403121561198957600080fd5b50919050565b600060c082840312156119a157600080fd5b6119ab8383611977565b9392505050565b60008060e083850312156119c557600080fd5b823591506119d68460208501611977565b90509250929050565b6000602082840312156119f157600080fd5b5035919050565b60008060408385031215611a0b57600080fd5b50508035926020909101359150565b803567ffffffffffffffff81168114611a3257600080fd5b919050565b6001600160a01b0381168114611a4c57600080fd5b50565b8035611a3281611a37565b60008083601f840112611a6c57600080fd5b50813567ffffffffffffffff811115611a8457600080fd5b602083019150836020828501011115611a9c57600080fd5b9250929050565b60008060008060008060808789031215611abc57600080fd5b863567ffffffffffffffff80821115611ad457600080fd5b818901915089601f830112611ae857600080fd5b813581811115611af757600080fd5b8a60208260051b8501011115611b0c57600080fd5b60208301985080975050611b2260208a01611a1a565b9550611b3060408a01611a4f565b94506060890135915080821115611b4657600080fd5b50611b5389828a01611a5a565b979a9699509497509295939492505050565b803563ffffffff81168114611a3257600080fd5b803560038110611a3257600080fd5b600060c08284031215611b9a57600080fd5b60405160c0810181811067ffffffffffffffff82111715611bcb57634e487b7160e01b600052604160045260246000fd5b60405282358152905080611be160208401611a4f565b6020820152611bf260408401611b65565b6040820152611c0360608401611b65565b6060820152611c1460808401611b79565b6080820152611c2560a08401611a4f565b60a08201525092915050565b600060c08284031215611c4357600080fd5b6119ab8383611b88565b60008060006101008486031215611c6357600080fd5b8335925060208401359150611c7b8560408601611b88565b90509250925092565b60008060e08385031215611c9757600080fd5b823591506119d68460208501611b88565b600060208284031215611cba57600080fd5b6119ab82611b65565b634e487b7160e01b600052601160045260246000fd5b81810381811115611cec57611cec611cc3565b92915050565b634e487b7160e01b600052601260045260246000fd5b600082611d2557634e487b7160e01b600052601260045260246000fd5b500490565b80820180821115611cec57611cec611cc3565b6020808252600e908201526d24b73b30b634b21031b630b4b69760911b604082015260600190565b634e487b7160e01b600052602160045260246000fd5b600060208284031215611d8d57600080fd5b6119ab82611b79565b600060208284031215611da857600080fd5b81356119ab81611a37565b60c085901b6001600160c01b0319168152606084901b6bffffffffffffffffffffffff191660088201528183601c83013760009101601c019081529392505050565b634e487b7160e01b600052603260045260246000fd5b8183823760009101908152919050565b86815260006bffffffffffffffffffffffff19808860601b16602084015263ffffffff60e01b808860e01b166034850152808760e01b1660388501525060038510611e7657634e487b7160e01b600052602160045260246000fd5b60f89490941b603c8301525060609190911b909116603d820152605101949350505050565b600060208284031215611ead57600080fd5b81516119ab81611a3756fea2646970667358221220fd5a7bd57332e390dcf46012733d338e1350b5b193161cc6fd211ead5b91388b64736f6c63430008120033",
  "devdoc": {
    "events": {
      "Challenged(uint256,address)": {
        "details": "This event indicates that `sendSnapshot(epoch)` should be called in the inbox.",
        "params": {
          "challenger": "The address of the challenger.",
          "epoch": "The epoch associated with the challenged claim."
        }
      },
      "Claimed(address,bytes32)": {
        "details": "Watcher check this event to challenge fraud.",
        "params": {
          "claimer": "The address of the claimer.",
          "stateRoot": "The state root of the challenged claim."
        }
      },
      "MessageRelayed(uint64)": {
        "details": "This event indicates that a message has been relayed.",
        "params": {
          "msgId": "The msgId of the message that was relayed."
        }
      },
      "Verified(uint256)": {
        "details": "This events indicates that verification has succeeded. The messages are ready to be relayed.",
        "params": {
          "epoch": "The epoch that was verified."
        }
      }
    },
    "kind": "dev",
    "methods": {
      "challenge(uint256,(bytes32,address,uint32,uint32,uint8,address))": {
        "details": "Submit a challenge for the claim of the inbox state root snapshot taken at 'epoch'.",
        "params": {
          "epoch": "The epoch of the claim to challenge."
        }
      },
      "claim(uint256,bytes32)": {
        "details": "Submit a claim about the the _stateRoot at _epoch and submit a deposit.",
        "params": {
          "_epoch": "The epoch for which the claim is made.",
          "_stateRoot": "The state root to claim."
        }
      },
      "constructor": {
        "details": "Constructor.",
        "params": {
          "_amb": "The address of the AMB contract on Gnosis.",
          "_challengePeriod": "The duration of the period allowing to challenge a claim.",
          "_claimDelay": "The number of epochs a claim can be submitted for.",
          "_deposit": "The deposit amount to submit a claim in wei.",
          "_epochPeriod": "The duration of each epoch.",
          "_maxMissingBlocks": "The maximum number of blocks that can be missing in a challenge period.",
          "_router": "The address of the challenge resolver router contract on Ethereum.",
          "_timeoutEpochs": "The epochs before the bridge is considered shutdown."
        }
      },
      "resolveDisputedClaim(uint256,bytes32,(bytes32,address,uint32,uint32,uint8,address))": {
        "details": "Resolves any challenge of the optimistic claim for '_epoch'.",
        "params": {
          "_stateRoot": "The true state root for the epoch.",
          "epoch": "The epoch to verify."
        }
      },
      "sendMessage(bytes32[],uint64,address,bytes)": {
        "details": "Verifies and relays the message. UNTRUSTED.",
        "params": {
          "message": "The message encoded with header from VeaInbox.",
          "msgId": "The zero based index of the message in the inbox.",
          "proof": "The merkle proof to prove the message.",
          "to": "The address of the contract on the receiving chain which receives the calldata."
        }
      },
      "validateSnapshot(uint256,(bytes32,address,uint32,uint32,uint8,address))": {
        "details": "Resolves the optimistic claim for '_epoch'.",
        "params": {
          "epoch": "The epoch of the optimistic claim."
        }
      },
      "withdrawChallengeDeposit(uint256,(bytes32,address,uint32,uint32,uint8,address))": {
        "details": "Sends the deposit back to the Challenger if their challenge is successful. Includes a portion of the Bridger's deposit.",
        "params": {
          "epoch": "The epoch associated with the challenge deposit to withraw."
        }
      },
      "withdrawChallengerEscapeHatch(uint256,(bytes32,address,uint32,uint32,uint8,address))": {
        "details": "When bridge is shutdown, no claim disputes can be resolved. This allows the claimer to withdraw their deposit.",
        "params": {
          "epoch": "The epoch associated with the claim deposit to withraw."
        }
      },
      "withdrawClaimDeposit(uint256,(bytes32,address,uint32,uint32,uint8,address))": {
        "details": "Sends the deposit back to the Bridger if their claim is not successfully challenged. Includes a portion of the Challenger's deposit if unsuccessfully challenged.",
        "params": {
          "epoch": "The epoch associated with the claim deposit to withraw."
        }
      },
      "withdrawClaimerEscapeHatch(uint256,(bytes32,address,uint32,uint32,uint8,address))": {
        "details": "When bridge is shutdown, no claim disputes can be resolved. This allows the claimer to withdraw their deposit.",
        "params": {
          "epoch": "The epoch associated with the claim deposit to withraw."
        }
      }
    },
    "version": 1
  },
  "userdoc": {
    "kind": "user",
    "methods": {
      "resolveDisputedClaim(uint256,bytes32,(bytes32,address,uint32,uint32,uint8,address))": {
        "notice": "Note: Access restricted to arbitrum  bridge."
      }
    },
    "version": 1
  },
  "storageLayout": {
    "storage": [
      {
        "astId": 2030,
        "contract": "src/devnets/arbitrumToGnosis/VeaOutboxArbToGnosisDevnet.sol:VeaOutboxArbToGnosisDevnet",
        "label": "stateRoot",
        "offset": 0,
        "slot": "0",
        "type": "t_bytes32"
      },
      {
        "astId": 2032,
        "contract": "src/devnets/arbitrumToGnosis/VeaOutboxArbToGnosisDevnet.sol:VeaOutboxArbToGnosisDevnet",
        "label": "latestVerifiedEpoch",
        "offset": 0,
        "slot": "1",
        "type": "t_uint256"
      },
      {
        "astId": 2036,
        "contract": "src/devnets/arbitrumToGnosis/VeaOutboxArbToGnosisDevnet.sol:VeaOutboxArbToGnosisDevnet",
        "label": "claimHashes",
        "offset": 0,
        "slot": "2",
        "type": "t_mapping(t_uint256,t_bytes32)"
      },
      {
        "astId": 2040,
        "contract": "src/devnets/arbitrumToGnosis/VeaOutboxArbToGnosisDevnet.sol:VeaOutboxArbToGnosisDevnet",
        "label": "relayed",
        "offset": 0,
        "slot": "3",
        "type": "t_mapping(t_uint256,t_bytes32)"
      }
    ],
    "types": {
      "t_bytes32": {
        "encoding": "inplace",
        "label": "bytes32",
        "numberOfBytes": "32"
      },
      "t_mapping(t_uint256,t_bytes32)": {
        "encoding": "mapping",
        "key": "t_uint256",
        "label": "mapping(uint256 => bytes32)",
        "numberOfBytes": "32",
        "value": "t_bytes32"
      },
      "t_uint256": {
        "encoding": "inplace",
        "label": "uint256",
        "numberOfBytes": "32"
      }
    }
  }
}