{
  "address": "0x0E459f63db78E2d5E8DC16a717F30A3d24cb79c2",
  "abi": [
    {
      "inputs": [
        {
          "internalType": "uint256",
          "name": "_deposit",
          "type": "uint256"
        },
        {
          "internalType": "uint256",
          "name": "_epochPeriod",
          "type": "uint256"
        },
        {
          "internalType": "uint256",
          "name": "_minChallengePeriod",
          "type": "uint256"
        },
        {
          "internalType": "uint256",
          "name": "_timeoutEpochs",
          "type": "uint256"
        },
        {
          "internalType": "contract IAMB",
          "name": "_amb",
          "type": "address"
        },
        {
          "internalType": "address",
          "name": "_routerArbToGnosis",
          "type": "address"
        },
        {
          "internalType": "uint256",
          "name": "_sequencerDelayLimit",
          "type": "uint256"
        },
        {
          "internalType": "uint256",
          "name": "_maxMissingBlocks",
          "type": "uint256"
        },
        {
          "internalType": "uint256",
          "name": "_routerChainId",
          "type": "uint256"
        },
        {
          "internalType": "contract IWETH",
          "name": "_weth",
          "type": "address"
        },
        {
          "internalType": "uint256",
          "name": "_maxClaimDelayEpochs",
          "type": "uint256"
        }
      ],
      "stateMutability": "nonpayable",
      "type": "constructor"
    },
    {
      "anonymous": false,
      "inputs": [
        {
          "indexed": false,
          "internalType": "uint256",
          "name": "_epoch",
          "type": "uint256"
        },
        {
          "indexed": true,
          "internalType": "address",
          "name": "_challenger",
          "type": "address"
        }
      ],
      "name": "Challenged",
      "type": "event"
    },
    {
      "anonymous": false,
      "inputs": [
        {
          "indexed": true,
          "internalType": "address",
          "name": "_claimer",
          "type": "address"
        },
        {
          "indexed": false,
          "internalType": "bytes32",
          "name": "_stateRoot",
          "type": "bytes32"
        }
      ],
      "name": "Claimed",
      "type": "event"
    },
    {
      "anonymous": false,
      "inputs": [
        {
          "indexed": false,
          "internalType": "uint64",
          "name": "_msgId",
          "type": "uint64"
        }
      ],
      "name": "MessageRelayed",
      "type": "event"
    },
    {
      "anonymous": false,
      "inputs": [
        {
          "indexed": false,
          "internalType": "uint256",
          "name": "_epoch",
          "type": "uint256"
        }
      ],
      "name": "VerificationStarted",
      "type": "event"
    },
    {
      "anonymous": false,
      "inputs": [
        {
          "indexed": false,
          "internalType": "uint256",
          "name": "_epoch",
          "type": "uint256"
        }
      ],
      "name": "Verified",
      "type": "event"
    },
    {
      "anonymous": false,
      "inputs": [
        {
          "indexed": false,
          "internalType": "uint256",
          "name": "_newSequencerDelayLimit",
          "type": "uint256"
        }
      ],
      "name": "sequencerDelayLimitUpdateReceived",
      "type": "event"
    },
    {
      "inputs": [],
      "name": "amb",
      "outputs": [
        {
          "internalType": "contract IAMB",
          "name": "",
          "type": "address"
        }
      ],
      "stateMutability": "view",
      "type": "function"
    },
    {
      "inputs": [
        {
          "components": [
            {
              "internalType": "bytes32",
              "name": "stateRoot",
              "type": "bytes32"
            },
            {
              "internalType": "address",
              "name": "claimer",
              "type": "address"
            },
            {
              "internalType": "uint32",
              "name": "timestampClaimed",
              "type": "uint32"
            },
            {
              "internalType": "uint32",
              "name": "timestampVerification",
              "type": "uint32"
            },
            {
              "internalType": "uint32",
              "name": "blocknumberVerification",
              "type": "uint32"
            },
            {
              "internalType": "enum Party",
              "name": "honest",
              "type": "uint8"
            },
            {
              "internalType": "address",
              "name": "challenger",
              "type": "address"
            }
          ],
          "internalType": "struct Claim",
          "name": "_claim",
          "type": "tuple"
        }
      ],
      "name": "censorshipTestStatus",
      "outputs": [
        {
          "internalType": "enum VeaOutboxArbToGnosis.CensorshipTestStatus",
          "name": "status",
          "type": "uint8"
        }
      ],
      "stateMutability": "view",
      "type": "function"
    },
    {
      "inputs": [
        {
          "internalType": "uint256",
          "name": "_epoch",
          "type": "uint256"
        },
        {
          "components": [
            {
              "internalType": "bytes32",
              "name": "stateRoot",
              "type": "bytes32"
            },
            {
              "internalType": "address",
              "name": "claimer",
              "type": "address"
            },
            {
              "internalType": "uint32",
              "name": "timestampClaimed",
              "type": "uint32"
            },
            {
              "internalType": "uint32",
              "name": "timestampVerification",
              "type": "uint32"
            },
            {
              "internalType": "uint32",
              "name": "blocknumberVerification",
              "type": "uint32"
            },
            {
              "internalType": "enum Party",
              "name": "honest",
              "type": "uint8"
            },
            {
              "internalType": "address",
              "name": "challenger",
              "type": "address"
            }
          ],
          "internalType": "struct Claim",
          "name": "_claim",
          "type": "tuple"
        }
      ],
      "name": "challenge",
      "outputs": [],
      "stateMutability": "payable",
      "type": "function"
    },
    {
      "inputs": [
        {
          "internalType": "uint256",
          "name": "_epoch",
          "type": "uint256"
        },
        {
          "internalType": "bytes32",
          "name": "_stateRoot",
          "type": "bytes32"
        }
      ],
      "name": "claim",
      "outputs": [],
      "stateMutability": "nonpayable",
      "type": "function"
    },
    {
      "inputs": [
        {
          "internalType": "uint256",
          "name": "",
          "type": "uint256"
        }
      ],
      "name": "claimHashes",
      "outputs": [
        {
          "internalType": "bytes32",
          "name": "",
          "type": "bytes32"
        }
      ],
      "stateMutability": "view",
      "type": "function"
    },
    {
      "inputs": [],
      "name": "deposit",
      "outputs": [
        {
          "internalType": "uint256",
          "name": "",
          "type": "uint256"
        }
      ],
      "stateMutability": "view",
      "type": "function"
    },
    {
      "inputs": [
        {
          "internalType": "uint256",
          "name": "timestamp",
          "type": "uint256"
        }
      ],
      "name": "epochAt",
      "outputs": [
        {
          "internalType": "uint256",
          "name": "epoch",
          "type": "uint256"
        }
      ],
      "stateMutability": "view",
      "type": "function"
    },
    {
      "inputs": [],
      "name": "epochNow",
      "outputs": [
        {
          "internalType": "uint256",
          "name": "epoch",
          "type": "uint256"
        }
      ],
      "stateMutability": "view",
      "type": "function"
    },
    {
      "inputs": [],
      "name": "epochPeriod",
      "outputs": [
        {
          "internalType": "uint256",
          "name": "",
          "type": "uint256"
        }
      ],
      "stateMutability": "view",
      "type": "function"
    },
    {
      "inputs": [
        {
          "components": [
            {
              "internalType": "bytes32",
              "name": "stateRoot",
              "type": "bytes32"
            },
            {
              "internalType": "address",
              "name": "claimer",
              "type": "address"
            },
            {
              "internalType": "uint32",
              "name": "timestampClaimed",
              "type": "uint32"
            },
            {
              "internalType": "uint32",
              "name": "timestampVerification",
              "type": "uint32"
            },
            {
              "internalType": "uint32",
              "name": "blocknumberVerification",
              "type": "uint32"
            },
            {
              "internalType": "enum Party",
              "name": "honest",
              "type": "uint8"
            },
            {
              "internalType": "address",
              "name": "challenger",
              "type": "address"
            }
          ],
          "internalType": "struct Claim",
          "name": "_claim",
          "type": "tuple"
        }
      ],
      "name": "hashClaim",
      "outputs": [
        {
          "internalType": "bytes32",
          "name": "hashedClaim",
          "type": "bytes32"
        }
      ],
      "stateMutability": "pure",
      "type": "function"
    },
    {
      "inputs": [],
      "name": "latestVerifiedEpoch",
      "outputs": [
        {
          "internalType": "uint256",
          "name": "",
          "type": "uint256"
        }
      ],
      "stateMutability": "view",
      "type": "function"
    },
    {
      "inputs": [],
      "name": "maxClaimDelayEpochs",
      "outputs": [
        {
          "internalType": "uint256",
          "name": "",
          "type": "uint256"
        }
      ],
      "stateMutability": "view",
      "type": "function"
    },
    {
      "inputs": [],
      "name": "maxMissingBlocks",
      "outputs": [
        {
          "internalType": "uint256",
          "name": "",
          "type": "uint256"
        }
      ],
      "stateMutability": "view",
      "type": "function"
    },
    {
      "inputs": [],
      "name": "minChallengePeriod",
      "outputs": [
        {
          "internalType": "uint256",
          "name": "",
          "type": "uint256"
        }
      ],
      "stateMutability": "view",
      "type": "function"
    },
    {
      "inputs": [
        {
          "internalType": "uint256",
          "name": "",
          "type": "uint256"
        }
      ],
      "name": "relayed",
      "outputs": [
        {
          "internalType": "bytes32",
          "name": "",
          "type": "bytes32"
        }
      ],
      "stateMutability": "view",
      "type": "function"
    },
    {
      "inputs": [
        {
          "internalType": "uint256",
          "name": "_epoch",
          "type": "uint256"
        },
        {
          "internalType": "bytes32",
          "name": "_stateRoot",
          "type": "bytes32"
        },
        {
          "components": [
            {
              "internalType": "bytes32",
              "name": "stateRoot",
              "type": "bytes32"
            },
            {
              "internalType": "address",
              "name": "claimer",
              "type": "address"
            },
            {
              "internalType": "uint32",
              "name": "timestampClaimed",
              "type": "uint32"
            },
            {
              "internalType": "uint32",
              "name": "timestampVerification",
              "type": "uint32"
            },
            {
              "internalType": "uint32",
              "name": "blocknumberVerification",
              "type": "uint32"
            },
            {
              "internalType": "enum Party",
              "name": "honest",
              "type": "uint8"
            },
            {
              "internalType": "address",
              "name": "challenger",
              "type": "address"
            }
          ],
          "internalType": "struct Claim",
          "name": "_claim",
          "type": "tuple"
        }
      ],
      "name": "resolveDisputedClaim",
      "outputs": [],
      "stateMutability": "nonpayable",
      "type": "function"
    },
    {
      "inputs": [],
      "name": "routerArbToGnosis",
      "outputs": [
        {
          "internalType": "address",
          "name": "",
          "type": "address"
        }
      ],
      "stateMutability": "view",
      "type": "function"
    },
    {
      "inputs": [
        {
          "internalType": "bytes32[]",
          "name": "_proof",
          "type": "bytes32[]"
        },
        {
          "internalType": "uint64",
          "name": "_msgId",
          "type": "uint64"
        },
        {
          "internalType": "address",
          "name": "_to",
          "type": "address"
        },
        {
          "internalType": "bytes",
          "name": "_message",
          "type": "bytes"
        }
      ],
      "name": "sendMessage",
      "outputs": [],
      "stateMutability": "nonpayable",
      "type": "function"
    },
    {
      "inputs": [],
      "name": "sequencerDelayLimit",
      "outputs": [
        {
          "internalType": "uint256",
          "name": "",
          "type": "uint256"
        }
      ],
      "stateMutability": "view",
      "type": "function"
    },
    {
      "inputs": [
        {
          "internalType": "uint256",
          "name": "_epoch",
          "type": "uint256"
        },
        {
          "components": [
            {
              "internalType": "bytes32",
              "name": "stateRoot",
              "type": "bytes32"
            },
            {
              "internalType": "address",
              "name": "claimer",
              "type": "address"
            },
            {
              "internalType": "uint32",
              "name": "timestampClaimed",
              "type": "uint32"
            },
            {
              "internalType": "uint32",
              "name": "timestampVerification",
              "type": "uint32"
            },
            {
              "internalType": "uint32",
              "name": "blocknumberVerification",
              "type": "uint32"
            },
            {
              "internalType": "enum Party",
              "name": "honest",
              "type": "uint8"
            },
            {
              "internalType": "address",
              "name": "challenger",
              "type": "address"
            }
          ],
          "internalType": "struct Claim",
          "name": "_claim",
          "type": "tuple"
        }
      ],
      "name": "startVerification",
      "outputs": [],
      "stateMutability": "nonpayable",
      "type": "function"
    },
    {
      "inputs": [],
      "name": "stateRoot",
      "outputs": [
        {
          "internalType": "bytes32",
          "name": "",
          "type": "bytes32"
        }
      ],
      "stateMutability": "view",
      "type": "function"
    },
    {
      "inputs": [],
      "name": "timeoutEpochs",
      "outputs": [
        {
          "internalType": "uint256",
          "name": "",
          "type": "uint256"
        }
      ],
      "stateMutability": "view",
      "type": "function"
    },
    {
      "inputs": [],
      "name": "timestampDelayUpdated",
      "outputs": [
        {
          "internalType": "uint256",
          "name": "",
          "type": "uint256"
        }
      ],
      "stateMutability": "view",
      "type": "function"
    },
    {
      "inputs": [
        {
          "internalType": "uint256",
          "name": "_newSequencerDelayLimit",
          "type": "uint256"
        },
        {
          "internalType": "uint256",
          "name": "_timestamp",
          "type": "uint256"
        }
      ],
      "name": "updateSequencerDelayLimit",
      "outputs": [],
      "stateMutability": "nonpayable",
      "type": "function"
    },
    {
      "inputs": [
        {
          "internalType": "uint256",
          "name": "_epoch",
          "type": "uint256"
        },
        {
          "components": [
            {
              "internalType": "bytes32",
              "name": "stateRoot",
              "type": "bytes32"
            },
            {
              "internalType": "address",
              "name": "claimer",
              "type": "address"
            },
            {
              "internalType": "uint32",
              "name": "timestampClaimed",
              "type": "uint32"
            },
            {
              "internalType": "uint32",
              "name": "timestampVerification",
              "type": "uint32"
            },
            {
              "internalType": "uint32",
              "name": "blocknumberVerification",
              "type": "uint32"
            },
            {
              "internalType": "enum Party",
              "name": "honest",
              "type": "uint8"
            },
            {
              "internalType": "address",
              "name": "challenger",
              "type": "address"
            }
          ],
          "internalType": "struct Claim",
          "name": "_claim",
          "type": "tuple"
        }
      ],
      "name": "verifySnapshot",
      "outputs": [],
      "stateMutability": "nonpayable",
      "type": "function"
    },
    {
      "inputs": [],
      "name": "weth",
      "outputs": [
        {
          "internalType": "contract IWETH",
          "name": "",
          "type": "address"
        }
      ],
      "stateMutability": "view",
      "type": "function"
    },
    {
      "inputs": [
        {
          "internalType": "uint256",
          "name": "_epoch",
          "type": "uint256"
        },
        {
          "components": [
            {
              "internalType": "bytes32",
              "name": "stateRoot",
              "type": "bytes32"
            },
            {
              "internalType": "address",
              "name": "claimer",
              "type": "address"
            },
            {
              "internalType": "uint32",
              "name": "timestampClaimed",
              "type": "uint32"
            },
            {
              "internalType": "uint32",
              "name": "timestampVerification",
              "type": "uint32"
            },
            {
              "internalType": "uint32",
              "name": "blocknumberVerification",
              "type": "uint32"
            },
            {
              "internalType": "enum Party",
              "name": "honest",
              "type": "uint8"
            },
            {
              "internalType": "address",
              "name": "challenger",
              "type": "address"
            }
          ],
          "internalType": "struct Claim",
          "name": "_claim",
          "type": "tuple"
        }
      ],
      "name": "withdrawChallengeDeposit",
      "outputs": [],
      "stateMutability": "nonpayable",
      "type": "function"
    },
    {
      "inputs": [
        {
          "internalType": "uint256",
          "name": "_epoch",
          "type": "uint256"
        },
        {
          "components": [
            {
              "internalType": "bytes32",
              "name": "stateRoot",
              "type": "bytes32"
            },
            {
              "internalType": "address",
              "name": "claimer",
              "type": "address"
            },
            {
              "internalType": "uint32",
              "name": "timestampClaimed",
              "type": "uint32"
            },
            {
              "internalType": "uint32",
              "name": "timestampVerification",
              "type": "uint32"
            },
            {
              "internalType": "uint32",
              "name": "blocknumberVerification",
              "type": "uint32"
            },
            {
              "internalType": "enum Party",
              "name": "honest",
              "type": "uint8"
            },
            {
              "internalType": "address",
              "name": "challenger",
              "type": "address"
            }
          ],
          "internalType": "struct Claim",
          "name": "_claim",
          "type": "tuple"
        }
      ],
      "name": "withdrawChallengerEscapeHatch",
      "outputs": [],
      "stateMutability": "nonpayable",
      "type": "function"
    },
    {
      "inputs": [
        {
          "internalType": "uint256",
          "name": "_epoch",
          "type": "uint256"
        },
        {
          "components": [
            {
              "internalType": "bytes32",
              "name": "stateRoot",
              "type": "bytes32"
            },
            {
              "internalType": "address",
              "name": "claimer",
              "type": "address"
            },
            {
              "internalType": "uint32",
              "name": "timestampClaimed",
              "type": "uint32"
            },
            {
              "internalType": "uint32",
              "name": "timestampVerification",
              "type": "uint32"
            },
            {
              "internalType": "uint32",
              "name": "blocknumberVerification",
              "type": "uint32"
            },
            {
              "internalType": "enum Party",
              "name": "honest",
              "type": "uint8"
            },
            {
              "internalType": "address",
              "name": "challenger",
              "type": "address"
            }
          ],
          "internalType": "struct Claim",
          "name": "_claim",
          "type": "tuple"
        }
      ],
      "name": "withdrawClaimDeposit",
      "outputs": [],
      "stateMutability": "nonpayable",
      "type": "function"
    },
    {
      "inputs": [
        {
          "internalType": "uint256",
          "name": "_epoch",
          "type": "uint256"
        },
        {
          "components": [
            {
              "internalType": "bytes32",
              "name": "stateRoot",
              "type": "bytes32"
            },
            {
              "internalType": "address",
              "name": "claimer",
              "type": "address"
            },
            {
              "internalType": "uint32",
              "name": "timestampClaimed",
              "type": "uint32"
            },
            {
              "internalType": "uint32",
              "name": "timestampVerification",
              "type": "uint32"
            },
            {
              "internalType": "uint32",
              "name": "blocknumberVerification",
              "type": "uint32"
            },
            {
              "internalType": "enum Party",
              "name": "honest",
              "type": "uint8"
            },
            {
              "internalType": "address",
              "name": "challenger",
              "type": "address"
            }
          ],
          "internalType": "struct Claim",
          "name": "_claim",
          "type": "tuple"
        }
      ],
      "name": "withdrawClaimerEscapeHatch",
      "outputs": [],
      "stateMutability": "nonpayable",
      "type": "function"
    }
  ],
  "transactionHash": "0xca2595eacb679b6a7de49b1dec749a34272a2eac4424381a7cfb5f827778b371",
  "args": [
    "200000000000000000",
    7200,
    10800,
    1000000,
    "0x99Ca51a3534785ED619f46A79C7Ad65Fa8d85e7a",
    "0x931FA807020231bCE1340Be8E1e5054207BbAFEd",
    86400,
    1000000,
    5,
    "0x8d74e5e4DA11629537C4575cB0f33b4F0Dfa42EB",
    3
  ],
  "numDeployments": 1,
  "solcInputHash": "7298e2ccdbe09809d528e3141326e32b",
  "bytecode": "0x6102006040523480156200001257600080fd5b5060405162002cee38038062002cee8339810160408190526200003591620000f9565b60e08b90526101608a90526101c08890526101808990526001600160a01b0380881660805286811660a05260048690556101e0859052610140849052821660c0526101a08190526200008960028c620001b5565b6101008190526200009c8c6002620001d8565b620000a89190620001f8565b6101205261016051600190620000bf9042620001b5565b620000cb9190620001f8565b600155506200020e9950505050505050505050565b6001600160a01b0381168114620000f657600080fd5b50565b60008060008060008060008060008060006101608c8e0312156200011c57600080fd5b8b519a5060208c0151995060408c0151985060608c0151975060808c01516200014581620000e0565b60a08d01519097506200015881620000e0565b8096505060c08c0151945060e08c015193506101008c015192506101208c01516200018381620000e0565b809250506101408c015190509295989b509295989b9093969950565b634e487b7160e01b600052601160045260246000fd5b600082620001d357634e487b7160e01b600052601260045260246000fd5b500490565b8082028115828204841417620001f257620001f26200019f565b92915050565b81810381811115620001f257620001f26200019f565b60805160a05160c05160e05161010051610120516101405161016051610180516101a0516101c0516101e051612921620003cd600039600081816104b1015261231e0152600081816104e50152818161088601528181611bfd01528181611df101526120b00152600081816101f901526110d301526000818161056d01526122b2015260008181610519015281816108aa01528181610c3b015281816110130152818161108c015281816110f4015281816119c501528181611b7e01528181611c2101528181611e1501526120d4015260008181610a210152610d54015260006116cf0152600081816115de01526118320152600081816105a10152818161067501528181610f570152818161196201528181611f6a01528181611fff01526122290152600081816103840152818161069b01528181610f7d015281816116040152818161167001528181611858015281816118c40152818161190701528181611f9001528181612025015261224f0152600081816105d501528181610b0e0152610e41015260008181610260015281816109250152818161099f01528181610a8301528181610c7001528181610cd20152610db601526129216000f3fe6080604052600436106101cd5760003560e01c8063541adcca116100f7578063b5b7a18411610095578063d5e6a9df11610064578063d5e6a9df146105c3578063da2b7bc4146105f7578063df19e6ff14610617578063e813a7551461064457600080fd5b8063b5b7a18414610507578063b633b9441461053b578063c2114a161461055b578063d0e30db01461058f57600080fd5b8063930f28af116100d1578063930f28af146104695780639588eca214610489578063aa22a1c61461049f578063b044397e146104d357600080fd5b8063541adcca146104065780637ffc2a6e1461042657806390df63b71461043c57600080fd5b80632c1925191161016f5780633fc8cef31161013e5780633fc8cef3146103725780634788cb38146103a657806349b4299e146103c65780634a439cfe146103e657600080fd5b80632c192519146102f257806331d144571461031257806331ddf743146103325780633ce43cfd1461035257600080fd5b80631062b39a116101ab5780631062b39a1461024e578063222ae7861461029a5780632639c060146102af57806327ee6bdd146102dc57600080fd5b806301139b68146101d2578063042c4aaf146101e75780630f0adca51461022e575b600080fd5b6101e56101e036600461245b565b61065a565b005b3480156101f357600080fd5b5061021b7f000000000000000000000000000000000000000000000000000000000000000081565b6040519081526020015b60405180910390f35b34801561023a57600080fd5b506101e5610249366004612489565b610884565b34801561025a57600080fd5b506102827f000000000000000000000000000000000000000000000000000000000000000081565b6040516001600160a01b039091168152602001610225565b3480156102a657600080fd5b5061021b610c34565b3480156102bb57600080fd5b5061021b6102ca3660046124c0565b60026020526000908152604090205481565b3480156102e857600080fd5b5061021b60015481565b3480156102fe57600080fd5b506101e561030d3660046124d9565b610c65565b34801561031e57600080fd5b506101e561032d3660046124d9565b610f3c565b34801561033e57600080fd5b506101e561034d36600461255c565b61127c565b34801561035e57600080fd5b506101e561036d36600461261e565b61151c565b34801561037e57600080fd5b506102827f000000000000000000000000000000000000000000000000000000000000000081565b3480156103b257600080fd5b506101e56103c136600461261e565b611756565b3480156103d257600080fd5b506101e56103e136600461245b565b61198e565b3480156103f257600080fd5b5061021b6104013660046124c0565b611b77565b34801561041257600080fd5b5061021b610421366004612657565b611ba9565b34801561043257600080fd5b5061021b60055481565b34801561044857600080fd5b5061021b6104573660046124c0565b60036020526000908152604090205481565b34801561047557600080fd5b506101e561048436600461245b565b611bfb565b34801561049557600080fd5b5061021b60005481565b3480156104ab57600080fd5b5061021b7f000000000000000000000000000000000000000000000000000000000000000081565b3480156104df57600080fd5b5061021b7f000000000000000000000000000000000000000000000000000000000000000081565b34801561051357600080fd5b5061021b7f000000000000000000000000000000000000000000000000000000000000000081565b34801561054757600080fd5b506101e561055636600461245b565b611def565b34801561056757600080fd5b5061021b7f000000000000000000000000000000000000000000000000000000000000000081565b34801561059b57600080fd5b5061021b7f000000000000000000000000000000000000000000000000000000000000000081565b3480156105cf57600080fd5b506102827f000000000000000000000000000000000000000000000000000000000000000081565b34801561060357600080fd5b506101e561061236600461245b565b6120ae565b34801561062357600080fd5b50610637610632366004612657565b612294565b6040516102259190612690565b34801561065057600080fd5b5061021b60045481565b6040516323b872dd60e01b81523360048201523060248201527f000000000000000000000000000000000000000000000000000000000000000060448201527f00000000000000000000000000000000000000000000000000000000000000006001600160a01b0316906323b872dd906064016020604051808303816000875af11580156106ec573d6000803e3d6000fd5b505050506040513d601f19601f8201168201806040525081019061071091906126aa565b6107355760405162461bcd60e51b815260040161072c906126cc565b60405180910390fd5b61073e81611ba9565b6000838152600260205260409020541461076a5760405162461bcd60e51b815260040161072c906126fb565b60c08101516001600160a01b0316156107c55760405162461bcd60e51b815260206004820152601960248201527f436c61696d20616c7265616479206368616c6c656e6765642e00000000000000604482015260640161072c565b60008160a0015160028111156107dd576107dd61267a565b1461082a5760405162461bcd60e51b815260206004820152601760248201527f436c61696d20616c72656164792076657269666965642e000000000000000000604482015260640161072c565b3360c082015261083981611ba9565b600083815260026020908152604091829020929092555183815233917fcfe09ca25f55d949baba5e280f5750c9ba4b9048fca5532f916067d433afe4d7910160405180910390a25050565b7f00000000000000000000000000000000000000000000000000000000000000006001547f000000000000000000000000000000000000000000000000000000000000000042816108d7576108d7612723565b0403111561091a5760405162461bcd60e51b815260206004820152601060248201526f213934b233b29029b43aba3237bbb71760811b604482015260640161072c565b336001600160a01b037f0000000000000000000000000000000000000000000000000000000000000000161461099d5760405162461bcd60e51b815260206004820152602260248201527f4e6f742066726f6d206e617469766520476e6f73697320414d42206272696467604482015261329760f11b606482015260840161072c565b7f00000000000000000000000000000000000000000000000000000000000000006001600160a01b0316639e307dff6040518163ffffffff1660e01b8152600401602060405180830381865afa1580156109fb573d6000803e3d6000fd5b505050506040513d601f19601f82011682018060405250810190610a1f9190612739565b7f000000000000000000000000000000000000000000000000000000000000000014610a815760405162461bcd60e51b815260206004820152601160248201527024b73b30b634b21031b430b4b71034b21760791b604482015260640161072c565b7f00000000000000000000000000000000000000000000000000000000000000006001600160a01b031663d67bdd256040518163ffffffff1660e01b8152600401602060405180830381865afa158015610adf573d6000803e3d6000fd5b505050506040513d601f19601f82011682018060405250810190610b039190612752565b6001600160a01b03167f00000000000000000000000000000000000000000000000000000000000000006001600160a01b031614610b765760405162461bcd60e51b815260206004820152601060248201526f2737ba10333937b6903937baba32b91760811b604482015260640161072c565b60015483118015610b8657508115155b15610bc957600183905560008290556040518381527ff786e7f77ede00a02a5464f8f0555798f42ba99a4a920ef2778db8d75e4656f79060200160405180910390a15b610bd281611ba9565b60008481526002602052604090205403610c2f578051829003610bfb57600160a0820152610c16565b60c08101516001600160a01b031615610c1657600260a08201525b610c1f81611ba9565b6000848152600260205260409020555b505050565b6000610c607f000000000000000000000000000000000000000000000000000000000000000042612785565b905090565b336001600160a01b037f00000000000000000000000000000000000000000000000000000000000000001614610cd05760405162461bcd60e51b815260206004820152601060248201526f2737ba10333937b690313934b233b29760811b604482015260640161072c565b7f00000000000000000000000000000000000000000000000000000000000000006001600160a01b0316639e307dff6040518163ffffffff1660e01b8152600401602060405180830381865afa158015610d2e573d6000803e3d6000fd5b505050506040513d601f19601f82011682018060405250810190610d529190612739565b7f000000000000000000000000000000000000000000000000000000000000000014610db45760405162461bcd60e51b815260206004820152601160248201527024b73b30b634b21031b430b4b71034b21760791b604482015260640161072c565b7f00000000000000000000000000000000000000000000000000000000000000006001600160a01b031663d67bdd256040518163ffffffff1660e01b8152600401602060405180830381865afa158015610e12573d6000803e3d6000fd5b505050506040513d601f19601f82011682018060405250810190610e369190612752565b6001600160a01b03167f00000000000000000000000000000000000000000000000000000000000000006001600160a01b031614610ea95760405162461bcd60e51b815260206004820152601060248201526f2737ba10333937b6903937baba32b91760811b604482015260640161072c565b8060055410610ef15760405162461bcd60e51b815260206004820152601460248201527326b2b9b9b0b3b29034b99037baba3230ba32b21760611b604482015260640161072c565b8160045414610f3857600482905560058190556040518281527f684f6fb71cbcb798156dcca2a95dbd142fa1f8957637833b1897ab89e05aa7079060200160405180910390a15b5050565b6040516323b872dd60e01b81523360048201523060248201527f000000000000000000000000000000000000000000000000000000000000000060448201527f00000000000000000000000000000000000000000000000000000000000000006001600160a01b0316906323b872dd906064016020604051808303816000875af1158015610fce573d6000803e3d6000fd5b505050506040513d601f19601f82011682018060405250810190610ff291906126aa565b61100e5760405162461bcd60e51b815260040161072c906126cc565b6110387f000000000000000000000000000000000000000000000000000000000000000042612785565b82106110865760405162461bcd60e51b815260206004820152601960248201527f45706f636820686173206e6f7420796574207061737365642e00000000000000604482015260640161072c565b600060017f0000000000000000000000000000000000000000000000000000000000000000600454426110b991906127a7565b6110c39190612785565b6110cd91906127a7565b905060007f00000000000000000000000000000000000000000000000000000000000000007f0000000000000000000000000000000000000000000000000000000000000000428161112157611121612723565b0403905060008183116111345781611136565b825b9050808510156111795760405162461bcd60e51b815260206004820152600e60248201526d24b73b30b634b21032b837b1b41760911b604482015260640161072c565b836111965760405162461bcd60e51b815260040161072c906126fb565b600085815260026020526040902054156111e85760405162461bcd60e51b815260206004820152601360248201527221b630b4b69030b63932b0b23c9036b0b2329760691b604482015260640161072c565b6040805160e0810182528581523360208201524263ffffffff16918101919091526000606082018190526080820181905260a0820181905260c082015261122e90611ba9565b600086815260026020908152604091829020929092555185815233917f91d697238e9aa9f3172d17522c9be529b94a892481554e1ea619369b5b12f39a910160405180910390a25050505050565b604085106112be5760405162461bcd60e51b815260206004820152600f60248201526e283937b7b3103a37b7903637b7339760891b604482015260640161072c565b6000848484846040516020016112d794939291906127ba565b604051602081830303815290604052805190602001209050806000526020600020905060005b86811015611357576000888883818110611319576113196127fc565b9050602002013590508281111561133e5782600052806020526040600020925061134e565b8060005282602052604060002092505b506001016112fd565b50806000541461139a5760405162461bcd60e51b815260206004820152600e60248201526d24b73b30b634b210383937b7b31760911b604482015260640161072c565b600885901c66ffffffffffffff1660008181526003602052604090205460ff87169080821c6001161561140f5760405162461bcd60e51b815260206004820152601760248201527f4d65737361676520616c72656164792072656c61796564000000000000000000604482015260640161072c565b6000838152600360205260408082206001851b84179055516001600160a01b0389169061143f9089908990612812565b6000604051808303816000865af19150503d806000811461147c576040519150601f19603f3d011682016040523d82523d6000602084013e611481565b606091505b50509050806114d25760405162461bcd60e51b815260206004820152601760248201527f4661696c656420746f2063616c6c20636f6e7472616374000000000000000000604482015260640161072c565b60405167ffffffffffffffff8a1681527f54303fab361bc52c2f1f56ace7351189582264f74ce47a6e7c3f478d64c429439060200160405180910390a15050505050505050505050565b61152e61042136839003830183612657565b6000838152600260205260409020541461155a5760405162461bcd60e51b815260040161072c906126fb565b600261156c60c0830160a08401612822565b600281111561157d5761157d61267a565b146115be5760405162461bcd60e51b815260206004820152601160248201527021b430b63632b733b2903330b4b632b21760791b604482015260640161072c565b6000828152600260205260408082209190915551630852cd8d60e31b81527f000000000000000000000000000000000000000000000000000000000000000060048201527f00000000000000000000000000000000000000000000000000000000000000006001600160a01b0316906342966c6890602401600060405180830381600087803b15801561165057600080fd5b505af1158015611664573d6000803e3d6000fd5b50506001600160a01b037f000000000000000000000000000000000000000000000000000000000000000016915063a9059cbb90506116a960e0840160c0850161283d565b6040516001600160e01b031960e084901b1681526001600160a01b0390911660048201527f000000000000000000000000000000000000000000000000000000000000000060248201526044015b6020604051808303816000875af1158015611716573d6000803e3d6000fd5b505050506040513d601f19601f8201168201806040525081019061173a91906126aa565b610f385760405162461bcd60e51b815260040161072c906126cc565b61176861042136839003830183612657565b600083815260026020526040902054146117945760405162461bcd60e51b815260040161072c906126fb565b60016117a660c0830160a08401612822565b60028111156117b7576117b761267a565b146117f45760405162461bcd60e51b815260206004820152600d60248201526c21b630b4b6903330b4b632b21760991b604482015260640161072c565b600082815260026020526040812081905561181560e0830160c0840161283d565b6001600160a01b0316146118fd57604051630852cd8d60e31b81527f000000000000000000000000000000000000000000000000000000000000000060048201527f00000000000000000000000000000000000000000000000000000000000000006001600160a01b0316906342966c6890602401600060405180830381600087803b1580156118a457600080fd5b505af11580156118b8573d6000803e3d6000fd5b50506001600160a01b037f000000000000000000000000000000000000000000000000000000000000000016915063a9059cbb90506116a9604084016020850161283d565b6001600160a01b037f00000000000000000000000000000000000000000000000000000000000000001663a9059cbb61193c604084016020850161283d565b6040516001600160e01b031960e084901b1681526001600160a01b0390911660048201527f000000000000000000000000000000000000000000000000000000000000000060248201526044016116f7565b61199781611ba9565b600083815260026020526040902054146119c35760405162461bcd60e51b815260040161072c906126fb565b7f00000000000000000000000000000000000000000000000000000000000000006004546119f1919061285a565b6040820151611a069063ffffffff16426127a7565b1015611a695760405162461bcd60e51b815260206004820152602c60248201527f436c61696d206d75737420776169742061746c65617374206d61784c3253746160448201526b3a32a9bcb731a232b630bc9760a11b606482015260840161072c565b6000611a7482612294565b90506002816003811115611a8a57611a8a61267a565b1480611aa757506000816003811115611aa557611aa561267a565b145b611b105760405162461bcd60e51b815260206004820152603460248201527f436c61696d20766572696669636174696f6e20696e2070726f6772657373206f604482015273391030b63932b0b23c9031b7b6b83632ba32b21760611b606482015260840161072c565b63ffffffff428116606084015243166080830152611b2d82611ba9565b60008481526002602090815260409182902092909255518481527f37b700b61b9b4710dddb0c3316b2be7ef6088ed4b1d7bfe0fb98be8f9a163e16910160405180910390a1505050565b6000611ba37f000000000000000000000000000000000000000000000000000000000000000083612785565b92915050565b80516020808301516040808501516060860151608087015160a088015160c08901519451600098611bde98909796910161286d565b604051602081830303815290604052805190602001209050919050565b7f00000000000000000000000000000000000000000000000000000000000000006001547f00000000000000000000000000000000000000000000000000000000000000004281611c4e57611c4e612723565b04031115611c915760405162461bcd60e51b815260206004820152601060248201526f213934b233b29029b43aba3237bbb71760811b604482015260640161072c565b611c9a81611ba9565b60008381526002602052604090205414611cc65760405162461bcd60e51b815260040161072c906126fb565b60c08101516001600160a01b031615611d185760405162461bcd60e51b815260206004820152601460248201527321b630b4b69034b99031b430b63632b733b2b21760611b604482015260640161072c565b6001611d2382612294565b6003811115611d3457611d3461267a565b14611d815760405162461bcd60e51b815260206004820152601b60248201527f43656e736f72736869702074657374206e6f74207061737365642e0000000000604482015260640161072c565b600154821115611dc957600182905580516000556040518281527ff786e7f77ede00a02a5464f8f0555798f42ba99a4a920ef2778db8d75e4656f79060200160405180910390a15b600160a0820152611dd981611ba9565b6000928352600260205260409092209190915550565b7f00000000000000000000000000000000000000000000000000000000000000006001547f00000000000000000000000000000000000000000000000000000000000000004281611e4257611e42612723565b040311611e835760405162461bcd60e51b815260206004820152600f60248201526e213934b233b290293ab73734b7339760891b604482015260640161072c565b611e8c81611ba9565b60008381526002602052604090205414611eb85760405162461bcd60e51b815260040161072c906126fb565b60008160a001516002811115611ed057611ed061267a565b14611f0f5760405162461bcd60e51b815260206004820152600f60248201526e21b630b4b6903932b9b7b63b32b21760891b604482015260640161072c565b60c08101516001600160a01b031615610f385760208101516001600160a01b0316611fc1576000828152600260205260408082209190915560c0820151905163a9059cbb60e01b81526001600160a01b0391821660048201527f000000000000000000000000000000000000000000000000000000000000000060248201527f00000000000000000000000000000000000000000000000000000000000000009091169063a9059cbb906044016116f7565b60c0810180516000909152611fd582611ba9565b506000839052600260205260405163a9059cbb60e01b81526001600160a01b0382811660048301527f000000000000000000000000000000000000000000000000000000000000000060248301527f0000000000000000000000000000000000000000000000000000000000000000169063a9059cbb906044016020604051808303816000875af115801561206e573d6000803e3d6000fd5b505050506040513d601f19601f8201168201806040525081019061209291906126aa565b610c2f5760405162461bcd60e51b815260040161072c906126cc565b7f00000000000000000000000000000000000000000000000000000000000000006001547f0000000000000000000000000000000000000000000000000000000000000000428161210157612101612723565b0403116121425760405162461bcd60e51b815260206004820152600f60248201526e213934b233b290293ab73734b7339760891b604482015260640161072c565b61214b81611ba9565b600083815260026020526040902054146121775760405162461bcd60e51b815260040161072c906126fb565b60008160a00151600281111561218f5761218f61267a565b146121ce5760405162461bcd60e51b815260206004820152600f60248201526e21b630b4b6903932b9b7b63b32b21760891b604482015260640161072c565b60208101516001600160a01b031615610f385760c08101516001600160a01b031661228057600082815260026020908152604080832092909255820151905163a9059cbb60e01b81526001600160a01b0391821660048201527f000000000000000000000000000000000000000000000000000000000000000060248201527f00000000000000000000000000000000000000000000000000000000000000009091169063a9059cbb906044016116f7565b6020810180516000909152611fd582611ba9565b6000816060015163ffffffff166000036122b057506002919050565b7f0000000000000000000000000000000000000000000000000000000000000000826060015163ffffffff16420310156122ec57506003919050565b60006005836060015163ffffffff1642038161230a5761230a612723565b608085015163ffffffff16919004019050437f00000000000000000000000000000000000000000000000000000000000000008183031161234e5760019250612353565b600092505b50505b919050565b6001600160a01b038116811461237057600080fd5b50565b80356123568161235b565b803563ffffffff8116811461235657600080fd5b80356003811061235657600080fd5b600060e082840312156123b357600080fd5b60405160e0810181811067ffffffffffffffff821117156123e457634e487b7160e01b600052604160045260246000fd5b604052823581529050806123fa60208401612373565b602082015261240b6040840161237e565b604082015261241c6060840161237e565b606082015261242d6080840161237e565b608082015261243e60a08401612392565b60a082015261244f60c08401612373565b60c08201525092915050565b600080610100838503121561246f57600080fd5b8235915061248084602085016123a1565b90509250929050565b6000806000610120848603121561249f57600080fd5b83359250602084013591506124b785604086016123a1565b90509250925092565b6000602082840312156124d257600080fd5b5035919050565b600080604083850312156124ec57600080fd5b50508035926020909101359150565b803567ffffffffffffffff8116811461235657600080fd5b60008083601f84011261252557600080fd5b50813567ffffffffffffffff81111561253d57600080fd5b60208301915083602082850101111561255557600080fd5b9250929050565b6000806000806000806080878903121561257557600080fd5b863567ffffffffffffffff8082111561258d57600080fd5b818901915089601f8301126125a157600080fd5b8135818111156125b057600080fd5b8a60208260051b85010111156125c557600080fd5b602083019850809750506125db60208a016124fb565b95506125e960408a01612373565b945060608901359150808211156125ff57600080fd5b5061260c89828a01612513565b979a9699509497509295939492505050565b60008082840361010081121561263357600080fd5b8335925060e0601f198201121561264957600080fd5b506020830190509250929050565b600060e0828403121561266957600080fd5b61267383836123a1565b9392505050565b634e487b7160e01b600052602160045260246000fd5b60208101600483106126a4576126a461267a565b91905290565b6000602082840312156126bc57600080fd5b8151801515811461267357600080fd5b6020808252601590820152742330b4b632b2102ba2aa24103a3930b739b332b91760591b604082015260600190565b6020808252600e908201526d24b73b30b634b21031b630b4b69760911b604082015260600190565b634e487b7160e01b600052601260045260246000fd5b60006020828403121561274b57600080fd5b5051919050565b60006020828403121561276457600080fd5b81516126738161235b565b634e487b7160e01b600052601160045260246000fd5b6000826127a257634e487b7160e01b600052601260045260246000fd5b500490565b81810381811115611ba357611ba361276f565b60c085901b6001600160c01b0319168152606084901b6bffffffffffffffffffffffff191660088201528183601c83013760009101601c019081529392505050565b634e487b7160e01b600052603260045260246000fd5b8183823760009101908152919050565b60006020828403121561283457600080fd5b61267382612392565b60006020828403121561284f57600080fd5b81356126738161235b565b80820180821115611ba357611ba361276f565b87815260006bffffffffffffffffffffffff19808960601b16602084015263ffffffff60e01b808960e01b166034850152808860e01b166038850152808760e01b16603c85015250600385106128c5576128c561267a565b60f89490941b60408301525060609190911b90911660418201526055019594505050505056fea26469706673582212202f82660bc137ed112ddf8b3a1c3b1ba058d63556c98cae41a34d4f4d2528f9f964736f6c63430008120033",
  "devdoc": {
    "details": "Vea Outbox From Arbitrum to Gnosis. Note: This contract is deployed on Gnosis.",
    "events": {
      "Challenged(uint256,address)": {
        "details": "This event indicates that `sendSnapshot(epoch)` should be called in the inbox.",
        "params": {
          "_challenger": "The address of the challenger.",
          "_epoch": "The epoch associated with the challenged claim."
        }
      },
      "Claimed(address,bytes32)": {
        "details": "Watchers check this event to challenge fraud.",
        "params": {
          "_claimer": "The address of the claimer.",
          "_stateRoot": "The state root of the claim."
        }
      },
      "MessageRelayed(uint64)": {
        "details": "This event indicates that a message has been relayed.",
        "params": {
          "_msgId": "The msgId of the message that was relayed."
        }
      },
      "VerificationStarted(uint256)": {
        "details": "This event indicates that the censorship test started and all challengers are ready even in the worst case scenario of a malicious sequencer.",
        "params": {
          "_epoch": "The epoch that started verification."
        }
      },
      "Verified(uint256)": {
        "details": "This events indicates that verification has succeeded. The messages are ready to be relayed.",
        "params": {
          "_epoch": "The epoch that was verified."
        }
      },
      "sequencerDelayLimitUpdateReceived(uint256)": {
        "details": "This event indicates the sequencer limit updated.",
        "params": {
          "_newSequencerDelayLimit": "The new sequencer delay limit."
        }
      }
    },
    "kind": "dev",
    "methods": {
      "censorshipTestStatus((bytes32,address,uint32,uint32,uint32,uint8,address))": {
        "details": "Gets the status of the censorship test for claim.",
        "params": {
          "_claim": "The claim to test."
        },
        "returns": {
          "status": "True if the claim passed the censorship test."
        }
      },
      "challenge(uint256,(bytes32,address,uint32,uint32,uint32,uint8,address))": {
        "details": "Submit a challenge for the claim of the inbox state root snapshot taken at 'epoch'.",
        "params": {
          "_claim": "The claim associated with the epoch.",
          "_epoch": "The epoch of the claim to challenge."
        }
      },
      "claim(uint256,bytes32)": {
        "details": "Submit a claim about the _stateRoot at _epoch and submit a deposit.",
        "params": {
          "_epoch": "The epoch for which the claim is made.",
          "_stateRoot": "The state root to claim."
        }
      },
      "constructor": {
        "details": "Constructor. Note: epochPeriod must match the VeaInboxArbToGnosis contract deployment on Arbitrum, since it's on a different chain, we can't read it and trust the deployer to set a correct value",
        "params": {
          "_amb": "The address of the AMB contract on Gnosis.",
          "_deposit": "The deposit amount to submit a claim in wei.",
          "_epochPeriod": "The duration of each epoch.",
          "_maxClaimDelayEpochs": "The maximum number of epochs that can be claimed in the past.",
          "_maxMissingBlocks": "The maximum number of blocks that can be missing in a challenge period.",
          "_minChallengePeriod": "The minimum time window to challenge a claim.",
          "_routerArbToGnosis": "The address of the router on Ethereum that routes from Arbitrum to Gnosis.",
          "_routerChainId": "The chain id of the routerArbToGnosis.",
          "_sequencerDelayLimit": "The maximum delay in seconds that the Arbitrum sequencer can backdate transactions.",
          "_timeoutEpochs": "The epochs before the bridge is considered shutdown.",
          "_weth": "The address of the WETH contract on Gnosis."
        }
      },
      "epochAt(uint256)": {
        "details": "Get the current epoch from the outbox's point of view using the Ethereum L1 clock.",
        "returns": {
          "epoch": "The hash of the claim."
        }
      },
      "epochNow()": {
        "details": "Get the current epoch from the outbox's point of view using the Ethereum L1 clock.",
        "returns": {
          "epoch": "The hash of the claim."
        }
      },
      "hashClaim((bytes32,address,uint32,uint32,uint32,uint8,address))": {
        "details": "Hashes the claim.",
        "params": {
          "_claim": "The claim to hash."
        },
        "returns": {
          "hashedClaim": "The hash of the claim."
        }
      },
      "resolveDisputedClaim(uint256,bytes32,(bytes32,address,uint32,uint32,uint32,uint8,address))": {
        "details": "Resolves any challenge of the optimistic claim for '_epoch'.",
        "params": {
          "_claim": "The claim associated with the epoch.",
          "_epoch": "The epoch to verify.",
          "_stateRoot": "The true state root for the epoch."
        }
      },
      "sendMessage(bytes32[],uint64,address,bytes)": {
        "details": "Verifies and relays the message. UNTRUSTED.",
        "params": {
          "_message": "The message encoded in the vea inbox as abi.encodeWithSelector(fnSelector, msg.sender, param1, param2, ...)",
          "_msgId": "The zero based index of the message in the inbox.",
          "_proof": "The merkle proof to prove the message inclusion in the inbox state root.",
          "_to": "The address of the contract on Gnosis to call."
        }
      },
      "startVerification(uint256,(bytes32,address,uint32,uint32,uint32,uint8,address))": {
        "details": "Start verification for claim for 'epoch'.",
        "params": {
          "_claim": "The claim associated with the epoch.",
          "_epoch": "The epoch of the claim to challenge."
        }
      },
      "updateSequencerDelayLimit(uint256,uint256)": {
        "details": "Set the sequencerDelayLimit by receiving a message from the AMB.",
        "params": {
          "_newSequencerDelayLimit": "The delaySeconds from the MaxTimeVariation struct in the Arbitrum Sequencer contract.",
          "_timestamp": "The timestamp of the message."
        }
      },
      "verifySnapshot(uint256,(bytes32,address,uint32,uint32,uint32,uint8,address))": {
        "details": "Resolves the optimistic claim for '_epoch'.",
        "params": {
          "_claim": "The claim associated with the epoch.",
          "_epoch": "The epoch of the optimistic claim."
        }
      },
      "withdrawChallengeDeposit(uint256,(bytes32,address,uint32,uint32,uint32,uint8,address))": {
        "details": "Sends the deposit back to the Challenger if successful. Includes a portion of the Bridger's deposit.",
        "params": {
          "_claim": "The claim associated with the epoch.",
          "_epoch": "The epoch associated with the challenge deposit to withraw."
        }
      },
      "withdrawChallengerEscapeHatch(uint256,(bytes32,address,uint32,uint32,uint32,uint8,address))": {
        "details": "When bridge is shutdown, no claim disputes can be resolved. This allows the challenger to withdraw their deposit.",
        "params": {
          "_claim": "The claim associated with the epoch.",
          "_epoch": "The epoch associated with the claim deposit to withraw."
        }
      },
      "withdrawClaimDeposit(uint256,(bytes32,address,uint32,uint32,uint32,uint8,address))": {
        "details": "Sends the deposit back to the Claimer if successful. Includes a portion of the Challenger's deposit if unsuccessfully challenged.",
        "params": {
          "_claim": "The claim associated with the epoch.",
          "_epoch": "The epoch associated with the claim deposit to withraw."
        }
      },
      "withdrawClaimerEscapeHatch(uint256,(bytes32,address,uint32,uint32,uint32,uint8,address))": {
        "details": "When bridge is shutdown, no claim disputes can be resolved. This allows the claimer to withdraw their deposit.",
        "params": {
          "_claim": "The claim associated with the epoch.",
          "_epoch": "The epoch associated with the claim deposit to withraw."
        }
      }
    },
    "version": 1
  },
  "userdoc": {
    "kind": "user",
    "methods": {
      "resolveDisputedClaim(uint256,bytes32,(bytes32,address,uint32,uint32,uint32,uint8,address))": {
        "notice": "Note: Access restricted to AMB."
      }
    },
    "version": 1
  },
  "storageLayout": {
    "storage": [
      {
        "astId": 2593,
        "contract": "src/arbitrumToGnosis/VeaOutboxArbToGnosis.sol:VeaOutboxArbToGnosis",
        "label": "stateRoot",
        "offset": 0,
        "slot": "0",
        "type": "t_bytes32"
      },
      {
        "astId": 2595,
        "contract": "src/arbitrumToGnosis/VeaOutboxArbToGnosis.sol:VeaOutboxArbToGnosis",
        "label": "latestVerifiedEpoch",
        "offset": 0,
        "slot": "1",
        "type": "t_uint256"
      },
      {
        "astId": 2599,
        "contract": "src/arbitrumToGnosis/VeaOutboxArbToGnosis.sol:VeaOutboxArbToGnosis",
        "label": "claimHashes",
        "offset": 0,
        "slot": "2",
        "type": "t_mapping(t_uint256,t_bytes32)"
      },
      {
        "astId": 2603,
        "contract": "src/arbitrumToGnosis/VeaOutboxArbToGnosis.sol:VeaOutboxArbToGnosis",
        "label": "relayed",
        "offset": 0,
        "slot": "3",
        "type": "t_mapping(t_uint256,t_bytes32)"
      },
      {
        "astId": 2605,
        "contract": "src/arbitrumToGnosis/VeaOutboxArbToGnosis.sol:VeaOutboxArbToGnosis",
        "label": "sequencerDelayLimit",
        "offset": 0,
        "slot": "4",
        "type": "t_uint256"
      },
      {
        "astId": 2607,
        "contract": "src/arbitrumToGnosis/VeaOutboxArbToGnosis.sol:VeaOutboxArbToGnosis",
        "label": "timestampDelayUpdated",
        "offset": 0,
        "slot": "5",
        "type": "t_uint256"
      }
    ],
    "types": {
      "t_bytes32": {
        "encoding": "inplace",
        "label": "bytes32",
        "numberOfBytes": "32"
      },
      "t_mapping(t_uint256,t_bytes32)": {
        "encoding": "mapping",
        "key": "t_uint256",
        "label": "mapping(uint256 => bytes32)",
        "numberOfBytes": "32",
        "value": "t_bytes32"
      },
      "t_uint256": {
        "encoding": "inplace",
        "label": "uint256",
        "numberOfBytes": "32"
      }
    }
  }
}