{
  "address": "0xdFd7aDEb43d46FA3f16FB3e27F7fe85c3f5BD89D",
  "abi": [
    {
      "inputs": [
        {
          "internalType": "uint256",
          "name": "_deposit",
          "type": "uint256"
        },
        {
          "internalType": "uint256",
          "name": "_epochPeriod",
          "type": "uint256"
        },
        {
          "internalType": "uint256",
          "name": "_challengePeriod",
          "type": "uint256"
        },
        {
          "internalType": "uint256",
          "name": "_timeoutEpochs",
          "type": "uint256"
        },
        {
          "internalType": "uint256",
          "name": "_claimDelay",
          "type": "uint256"
        },
        {
          "internalType": "contract IAMB",
          "name": "_amb",
          "type": "address"
        },
        {
          "internalType": "address",
          "name": "_routerArbToGnosisDevnet",
          "type": "address"
        },
        {
          "internalType": "uint256",
          "name": "_maxMissingBlocks",
          "type": "uint256"
        }
      ],
      "stateMutability": "nonpayable",
      "type": "constructor"
    },
    {
      "anonymous": false,
      "inputs": [
        {
          "indexed": false,
          "internalType": "uint256",
          "name": "_epoch",
          "type": "uint256"
        },
        {
          "indexed": true,
          "internalType": "address",
          "name": "_challenger",
          "type": "address"
        }
      ],
      "name": "Challenged",
      "type": "event"
    },
    {
      "anonymous": false,
      "inputs": [
        {
          "indexed": true,
          "internalType": "address",
          "name": "_claimer",
          "type": "address"
        },
        {
          "indexed": false,
          "internalType": "bytes32",
          "name": "_stateRoot",
          "type": "bytes32"
        }
      ],
      "name": "Claimed",
      "type": "event"
    },
    {
      "anonymous": false,
      "inputs": [
        {
          "indexed": false,
          "internalType": "uint64",
          "name": "_msgId",
          "type": "uint64"
        }
      ],
      "name": "MessageRelayed",
      "type": "event"
    },
    {
      "anonymous": false,
      "inputs": [
        {
          "indexed": false,
          "internalType": "uint256",
          "name": "_epoch",
          "type": "uint256"
        }
      ],
      "name": "Verified",
      "type": "event"
    },
    {
      "inputs": [],
      "name": "amb",
      "outputs": [
        {
          "internalType": "contract IAMB",
          "name": "",
          "type": "address"
        }
      ],
      "stateMutability": "view",
      "type": "function"
    },
    {
      "inputs": [
        {
          "internalType": "uint256",
          "name": "_epoch",
          "type": "uint256"
        },
        {
          "components": [
            {
              "internalType": "bytes32",
              "name": "stateRoot",
              "type": "bytes32"
            },
            {
              "internalType": "address",
              "name": "claimer",
              "type": "address"
            },
            {
              "internalType": "uint32",
              "name": "timestamp",
              "type": "uint32"
            },
            {
              "internalType": "uint32",
              "name": "blocknumber",
              "type": "uint32"
            },
            {
              "internalType": "enum Party",
              "name": "honest",
              "type": "uint8"
            },
            {
              "internalType": "address",
              "name": "challenger",
              "type": "address"
            }
          ],
          "internalType": "struct Claim",
          "name": "_claim",
          "type": "tuple"
        }
      ],
      "name": "challenge",
      "outputs": [],
      "stateMutability": "payable",
      "type": "function"
    },
    {
      "inputs": [],
      "name": "challengePeriod",
      "outputs": [
        {
          "internalType": "uint256",
          "name": "",
          "type": "uint256"
        }
      ],
      "stateMutability": "view",
      "type": "function"
    },
    {
      "inputs": [
        {
          "internalType": "address",
          "name": "_devnetOperator",
          "type": "address"
        }
      ],
      "name": "changeDevnetOperator",
      "outputs": [],
      "stateMutability": "nonpayable",
      "type": "function"
    },
    {
      "inputs": [
        {
          "internalType": "uint256",
          "name": "_epoch",
          "type": "uint256"
        },
        {
          "internalType": "bytes32",
          "name": "_stateRoot",
          "type": "bytes32"
        }
      ],
      "name": "claim",
      "outputs": [],
      "stateMutability": "payable",
      "type": "function"
    },
    {
      "inputs": [],
      "name": "claimDelay",
      "outputs": [
        {
          "internalType": "uint256",
          "name": "",
          "type": "uint256"
        }
      ],
      "stateMutability": "view",
      "type": "function"
    },
    {
      "inputs": [
        {
          "internalType": "uint256",
          "name": "",
          "type": "uint256"
        }
      ],
      "name": "claimHashes",
      "outputs": [
        {
          "internalType": "bytes32",
          "name": "",
          "type": "bytes32"
        }
      ],
      "stateMutability": "view",
      "type": "function"
    },
    {
      "inputs": [],
      "name": "deposit",
      "outputs": [
        {
          "internalType": "uint256",
          "name": "",
          "type": "uint256"
        }
      ],
      "stateMutability": "view",
      "type": "function"
    },
    {
      "inputs": [
        {
          "internalType": "uint256",
          "name": "_epoch",
          "type": "uint256"
        },
        {
          "internalType": "bytes32",
          "name": "_stateroot",
          "type": "bytes32"
        }
      ],
      "name": "devnetAdvanceState",
      "outputs": [],
      "stateMutability": "payable",
      "type": "function"
    },
    {
      "inputs": [],
      "name": "devnetOperator",
      "outputs": [
        {
          "internalType": "address",
          "name": "",
          "type": "address"
        }
      ],
      "stateMutability": "view",
      "type": "function"
    },
    {
      "inputs": [],
      "name": "epochPeriod",
      "outputs": [
        {
          "internalType": "uint256",
          "name": "",
          "type": "uint256"
        }
      ],
      "stateMutability": "view",
      "type": "function"
    },
    {
      "inputs": [
        {
          "components": [
            {
              "internalType": "bytes32",
              "name": "stateRoot",
              "type": "bytes32"
            },
            {
              "internalType": "address",
              "name": "claimer",
              "type": "address"
            },
            {
              "internalType": "uint32",
              "name": "timestamp",
              "type": "uint32"
            },
            {
              "internalType": "uint32",
              "name": "blocknumber",
              "type": "uint32"
            },
            {
              "internalType": "enum Party",
              "name": "honest",
              "type": "uint8"
            },
            {
              "internalType": "address",
              "name": "challenger",
              "type": "address"
            }
          ],
          "internalType": "struct Claim",
          "name": "_claim",
          "type": "tuple"
        }
      ],
      "name": "hashClaim",
      "outputs": [
        {
          "internalType": "bytes32",
          "name": "hashedClaim",
          "type": "bytes32"
        }
      ],
      "stateMutability": "pure",
      "type": "function"
    },
    {
      "inputs": [],
      "name": "latestVerifiedEpoch",
      "outputs": [
        {
          "internalType": "uint256",
          "name": "",
          "type": "uint256"
        }
      ],
      "stateMutability": "view",
      "type": "function"
    },
    {
      "inputs": [],
      "name": "maxMissingBlocks",
      "outputs": [
        {
          "internalType": "uint256",
          "name": "",
          "type": "uint256"
        }
      ],
      "stateMutability": "view",
      "type": "function"
    },
    {
      "inputs": [
        {
          "components": [
            {
              "internalType": "bytes32",
              "name": "stateRoot",
              "type": "bytes32"
            },
            {
              "internalType": "address",
              "name": "claimer",
              "type": "address"
            },
            {
              "internalType": "uint32",
              "name": "timestamp",
              "type": "uint32"
            },
            {
              "internalType": "uint32",
              "name": "blocknumber",
              "type": "uint32"
            },
            {
              "internalType": "enum Party",
              "name": "honest",
              "type": "uint8"
            },
            {
              "internalType": "address",
              "name": "challenger",
              "type": "address"
            }
          ],
          "internalType": "struct Claim",
          "name": "_claim",
          "type": "tuple"
        }
      ],
      "name": "passedTest",
      "outputs": [
        {
          "internalType": "bool",
          "name": "testPassed",
          "type": "bool"
        }
      ],
      "stateMutability": "view",
      "type": "function"
    },
    {
      "inputs": [
        {
          "internalType": "uint256",
          "name": "",
          "type": "uint256"
        }
      ],
      "name": "relayed",
      "outputs": [
        {
          "internalType": "bytes32",
          "name": "",
          "type": "bytes32"
        }
      ],
      "stateMutability": "view",
      "type": "function"
    },
    {
      "inputs": [
        {
          "internalType": "uint256",
          "name": "_epoch",
          "type": "uint256"
        },
        {
          "internalType": "bytes32",
          "name": "_stateRoot",
          "type": "bytes32"
        },
        {
          "components": [
            {
              "internalType": "bytes32",
              "name": "stateRoot",
              "type": "bytes32"
            },
            {
              "internalType": "address",
              "name": "claimer",
              "type": "address"
            },
            {
              "internalType": "uint32",
              "name": "timestamp",
              "type": "uint32"
            },
            {
              "internalType": "uint32",
              "name": "blocknumber",
              "type": "uint32"
            },
            {
              "internalType": "enum Party",
              "name": "honest",
              "type": "uint8"
            },
            {
              "internalType": "address",
              "name": "challenger",
              "type": "address"
            }
          ],
          "internalType": "struct Claim",
          "name": "_claim",
          "type": "tuple"
        }
      ],
      "name": "resolveDisputedClaim",
      "outputs": [],
      "stateMutability": "nonpayable",
      "type": "function"
    },
    {
      "inputs": [],
      "name": "routerArbToGnosis",
      "outputs": [
        {
          "internalType": "address",
          "name": "",
          "type": "address"
        }
      ],
      "stateMutability": "view",
      "type": "function"
    },
    {
      "inputs": [
        {
          "internalType": "bytes32[]",
          "name": "_proof",
          "type": "bytes32[]"
        },
        {
          "internalType": "uint64",
          "name": "_msgId",
          "type": "uint64"
        },
        {
          "internalType": "address",
          "name": "_to",
          "type": "address"
        },
        {
          "internalType": "bytes",
          "name": "_message",
          "type": "bytes"
        }
      ],
      "name": "sendMessage",
      "outputs": [],
      "stateMutability": "nonpayable",
      "type": "function"
    },
    {
      "inputs": [],
      "name": "stateRoot",
      "outputs": [
        {
          "internalType": "bytes32",
          "name": "",
          "type": "bytes32"
        }
      ],
      "stateMutability": "view",
      "type": "function"
    },
    {
      "inputs": [],
      "name": "timeoutEpochs",
      "outputs": [
        {
          "internalType": "uint256",
          "name": "",
          "type": "uint256"
        }
      ],
      "stateMutability": "view",
      "type": "function"
    },
    {
      "inputs": [
        {
          "internalType": "uint256",
          "name": "_epoch",
          "type": "uint256"
        },
        {
          "components": [
            {
              "internalType": "bytes32",
              "name": "stateRoot",
              "type": "bytes32"
            },
            {
              "internalType": "address",
              "name": "claimer",
              "type": "address"
            },
            {
              "internalType": "uint32",
              "name": "timestamp",
              "type": "uint32"
            },
            {
              "internalType": "uint32",
              "name": "blocknumber",
              "type": "uint32"
            },
            {
              "internalType": "enum Party",
              "name": "honest",
              "type": "uint8"
            },
            {
              "internalType": "address",
              "name": "challenger",
              "type": "address"
            }
          ],
          "internalType": "struct Claim",
          "name": "_claim",
          "type": "tuple"
        }
      ],
      "name": "validateSnapshot",
      "outputs": [],
      "stateMutability": "nonpayable",
      "type": "function"
    },
    {
      "inputs": [
        {
          "internalType": "uint256",
          "name": "_epoch",
          "type": "uint256"
        },
        {
          "components": [
            {
              "internalType": "bytes32",
              "name": "stateRoot",
              "type": "bytes32"
            },
            {
              "internalType": "address",
              "name": "claimer",
              "type": "address"
            },
            {
              "internalType": "uint32",
              "name": "timestamp",
              "type": "uint32"
            },
            {
              "internalType": "uint32",
              "name": "blocknumber",
              "type": "uint32"
            },
            {
              "internalType": "enum Party",
              "name": "honest",
              "type": "uint8"
            },
            {
              "internalType": "address",
              "name": "challenger",
              "type": "address"
            }
          ],
          "internalType": "struct Claim",
          "name": "_claim",
          "type": "tuple"
        }
      ],
      "name": "withdrawChallengeDeposit",
      "outputs": [],
      "stateMutability": "nonpayable",
      "type": "function"
    },
    {
      "inputs": [
        {
          "internalType": "uint256",
          "name": "_epoch",
          "type": "uint256"
        },
        {
          "components": [
            {
              "internalType": "bytes32",
              "name": "stateRoot",
              "type": "bytes32"
            },
            {
              "internalType": "address",
              "name": "claimer",
              "type": "address"
            },
            {
              "internalType": "uint32",
              "name": "timestamp",
              "type": "uint32"
            },
            {
              "internalType": "uint32",
              "name": "blocknumber",
              "type": "uint32"
            },
            {
              "internalType": "enum Party",
              "name": "honest",
              "type": "uint8"
            },
            {
              "internalType": "address",
              "name": "challenger",
              "type": "address"
            }
          ],
          "internalType": "struct Claim",
          "name": "_claim",
          "type": "tuple"
        }
      ],
      "name": "withdrawChallengerEscapeHatch",
      "outputs": [],
      "stateMutability": "nonpayable",
      "type": "function"
    },
    {
      "inputs": [
        {
          "internalType": "uint256",
          "name": "_epoch",
          "type": "uint256"
        },
        {
          "components": [
            {
              "internalType": "bytes32",
              "name": "stateRoot",
              "type": "bytes32"
            },
            {
              "internalType": "address",
              "name": "claimer",
              "type": "address"
            },
            {
              "internalType": "uint32",
              "name": "timestamp",
              "type": "uint32"
            },
            {
              "internalType": "uint32",
              "name": "blocknumber",
              "type": "uint32"
            },
            {
              "internalType": "enum Party",
              "name": "honest",
              "type": "uint8"
            },
            {
              "internalType": "address",
              "name": "challenger",
              "type": "address"
            }
          ],
          "internalType": "struct Claim",
          "name": "_claim",
          "type": "tuple"
        }
      ],
      "name": "withdrawClaimDeposit",
      "outputs": [],
      "stateMutability": "nonpayable",
      "type": "function"
    },
    {
      "inputs": [
        {
          "internalType": "uint256",
          "name": "_epoch",
          "type": "uint256"
        },
        {
          "components": [
            {
              "internalType": "bytes32",
              "name": "stateRoot",
              "type": "bytes32"
            },
            {
              "internalType": "address",
              "name": "claimer",
              "type": "address"
            },
            {
              "internalType": "uint32",
              "name": "timestamp",
              "type": "uint32"
            },
            {
              "internalType": "uint32",
              "name": "blocknumber",
              "type": "uint32"
            },
            {
              "internalType": "enum Party",
              "name": "honest",
              "type": "uint8"
            },
            {
              "internalType": "address",
              "name": "challenger",
              "type": "address"
            }
          ],
          "internalType": "struct Claim",
          "name": "_claim",
          "type": "tuple"
        }
      ],
      "name": "withdrawClaimerEscapeHatch",
      "outputs": [],
      "stateMutability": "nonpayable",
      "type": "function"
    }
  ],
  "transactionHash": "0x7f5fdadebaab37571744759fdf7a075861633178d5e4b6e4ae5e7ac25445a55d",
  "args": [
    "1000000000000000",
    1800,
    0,
    10000000000000,
    0,
    "0x99Ca51a3534785ED619f46A79C7Ad65Fa8d85e7a",
    "0xD4847f86Ed2E9D03839B15fd0818759861c063a8",
    10000000000000
  ],
  "numDeployments": 10,
  "solcInputHash": "de8d57bf51a0c5c580c54a12eae49416",
  "bytecode": "0x6101c06040523480156200001257600080fd5b50604051620024b6380380620024b683398101604081905262000035916200015e565b60c08890526101208790526101408690526101808590526101608490526001600160a01b03808416608052821660a0526101a0819052878787878787878762000080600289620001ed565b60e08190526200009289600262000210565b6200009e919062000230565b6101005261012051600190620000b59042620001ed565b620000c1919062000230565b600155610160514210156200011c5760405162461bcd60e51b815260206004820152601860248201527f496e76616c69642065706f6368436c61696d44656c61792e0000000000000000604482015260640160405180910390fd5b5050600480546001600160a01b0319163317905550620002469c50505050505050505050505050565b6001600160a01b03811681146200015b57600080fd5b50565b600080600080600080600080610100898b0312156200017c57600080fd5b885197506020890151965060408901519550606089015194506080890151935060a0890151620001ac8162000145565b60c08a0151909350620001bf8162000145565b8092505060e089015190509295985092959890939650565b634e487b7160e01b600052601160045260246000fd5b6000826200020b57634e487b7160e01b600052601260045260246000fd5b500490565b80820281158282048414176200022a576200022a620001d7565b92915050565b818103818111156200022a576200022a620001d7565b60805160a05160c05160e05161010051610120516101405161016051610180516101a05161213e62000378600039600081816103e9015281816105d9015261141401526000818161041d01528181610cc9015281816112bf015281816115a701526117b30152600081816102190152610855015260008181610540015281816111f1015261138b0152600081816104510152818161083401528181610cee015281816112e4015281816115cc01526117d801526000818161070e0152611b3a0152600081816106c60152611ae70152600081816104c50152818161075e01528181610799015281816111570152818161171101528181611778015261191e0152600081816104f90152610f1a01526000818161019801528181610d6801528181610dca0152610e8f015261213e6000f3fe6080604052600436106101815760003560e01c80639588eca2116100d1578063bd7df3f91161008a578063d5e6a9df11610064578063d5e6a9df146104e7578063eedcf2a91461051b578063f3f480d91461052e578063f939bad91461056257600080fd5b8063bd7df3f914610473578063c299be3314610493578063d0e30db0146104b357600080fd5b80639588eca21461038e578063a53d3c26146103a4578063a557d918146103b7578063aa22a1c6146103d7578063b044397e1461040b578063b5b7a1841461043f57600080fd5b806331d144571161013e5780637ba7900c116101185780637ba7900c146103015780638a619a71146103215780638ad3a8f71461034157806390df63b71461036157600080fd5b806331d14457146102ae57806331ddf743146102c157806334c75d72146102e157600080fd5b80631062b39a1461018657806310e8f6bf146101d75780631c8ec299146102075780632415855b146102495780632639c0601461026b57806327ee6bdd14610298575b600080fd5b34801561019257600080fd5b506101ba7f000000000000000000000000000000000000000000000000000000000000000081565b6040516001600160a01b0390911681526020015b60405180910390f35b3480156101e357600080fd5b506101f76101f2366004611b8f565b610582565b60405190151581526020016101ce565b34801561021357600080fd5b5061023b7f000000000000000000000000000000000000000000000000000000000000000081565b6040519081526020016101ce565b34801561025557600080fd5b50610269610264366004611ca6565b610609565b005b34801561027757600080fd5b5061023b610286366004611cd3565b60026020526000908152604090205481565b3480156102a457600080fd5b5061023b60015481565b6102696102bc366004611cec565b610797565b3480156102cd57600080fd5b506102696102dc366004611d6f565b6109da565b3480156102ed57600080fd5b5061023b6102fc366004611e31565b610c7a565b34801561030d57600080fd5b5061026961031c366004611e4d565b610cc7565b34801561032d57600080fd5b5061026961033c366004611e84565b611062565b34801561034d57600080fd5b506004546101ba906001600160a01b031681565b34801561036d57600080fd5b5061023b61037c366004611cd3565b60036020526000908152604090205481565b34801561039a57600080fd5b5061023b60005481565b6102696103b2366004611ca6565b6110c5565b3480156103c357600080fd5b506102696103d2366004611ca6565b6112bd565b3480156103e357600080fd5b5061023b7f000000000000000000000000000000000000000000000000000000000000000081565b34801561041757600080fd5b5061023b7f000000000000000000000000000000000000000000000000000000000000000081565b34801561044b57600080fd5b5061023b7f000000000000000000000000000000000000000000000000000000000000000081565b34801561047f57600080fd5b5061026961048e366004611ca6565b6115a5565b34801561049f57600080fd5b506102696104ae366004611ca6565b6117b1565b3480156104bf57600080fd5b5061023b7f000000000000000000000000000000000000000000000000000000000000000081565b3480156104f357600080fd5b506101ba7f000000000000000000000000000000000000000000000000000000000000000081565b610269610529366004611cec565b61196a565b34801561053a57600080fd5b5061023b7f000000000000000000000000000000000000000000000000000000000000000081565b34801561056e57600080fd5b5061026961057d366004611ea1565b611a30565b60008060056105976060850160408601611ec5565b6105a79063ffffffff1642611ef6565b6105b19190611f25565b6105c16080850160608601611ec5565b63ffffffff166105d19190611f47565b9050436105fe7f000000000000000000000000000000000000000000000000000000000000000082611f47565b909111159392505050565b61061281610c7a565b600083815260026020526040902054146106475760405162461bcd60e51b815260040161063e90611f5a565b60405180910390fd5b60018160800151600281111561065f5761065f611f82565b1461069c5760405162461bcd60e51b815260206004820152600d60248201526c21b630b4b6903330b4b632b21760991b604482015260640161063e565b60008281526002602052604081205560a08101516001600160a01b031615610748576040516000907f000000000000000000000000000000000000000000000000000000000000000080156108fc029183818181858288f150505060208301516040516001600160a01b0390911692507f000000000000000000000000000000000000000000000000000000000000000080156108fc029250906000818181858888f150505050505050565b60208101516040516001600160a01b03909116907f000000000000000000000000000000000000000000000000000000000000000080156108fc02916000818181858888f150505050505b5050565b7f00000000000000000000000000000000000000000000000000000000000000003410156108075760405162461bcd60e51b815260206004820152601b60248201527f496e73756666696369656e7420636c61696d206465706f7369742e0000000000604482015260640161063e565b6004546001600160a01b031633146108315760405162461bcd60e51b815260040161063e90611f98565b817f00000000000000000000000000000000000000000000000000000000000000007f000000000000000000000000000000000000000000000000000000000000000042038161088357610883611f0f565b04146108c25760405162461bcd60e51b815260206004820152600e60248201526d24b73b30b634b21032b837b1b41760911b604482015260640161063e565b806108df5760405162461bcd60e51b815260040161063e90611f5a565b600082815260026020526040902054156109315760405162461bcd60e51b815260206004820152601360248201527221b630b4b69030b63932b0b23c9036b0b2329760691b604482015260640161063e565b61098e6040518060c00160405280838152602001336001600160a01b031681526020014263ffffffff1681526020014363ffffffff1681526020016000600281111561097f5761097f611f82565b81526000602090910152610c7a565b600083815260026020908152604091829020929092555182815233917f91d697238e9aa9f3172d17522c9be529b94a892481554e1ea619369b5b12f39a91015b60405180910390a25050565b60408510610a1c5760405162461bcd60e51b815260206004820152600f60248201526e283937b7b3103a37b7903637b7339760891b604482015260640161063e565b600084848484604051602001610a359493929190611fcf565b604051602081830303815290604052805190602001209050806000526020600020905060005b86811015610ab5576000888883818110610a7757610a77612011565b90506020020135905082811115610a9c57826000528060205260406000209250610aac565b8060005282602052604060002092505b50600101610a5b565b508060005414610af85760405162461bcd60e51b815260206004820152600e60248201526d24b73b30b634b210383937b7b31760911b604482015260640161063e565b600885901c66ffffffffffffff1660008181526003602052604090205460ff87169080821c60011615610b6d5760405162461bcd60e51b815260206004820152601760248201527f4d65737361676520616c72656164792072656c61796564000000000000000000604482015260640161063e565b6000838152600360205260408082206001851b84179055516001600160a01b03891690610b9d9089908990612027565b6000604051808303816000865af19150503d8060008114610bda576040519150601f19603f3d011682016040523d82523d6000602084013e610bdf565b606091505b5050905080610c305760405162461bcd60e51b815260206004820152601760248201527f4661696c656420746f2063616c6c20636f6e7472616374000000000000000000604482015260640161063e565b60405167ffffffffffffffff8a1681527f54303fab361bc52c2f1f56ace7351189582264f74ce47a6e7c3f478d64c429439060200160405180910390a15050505050505050505050565b80516020808301516040808501516060860151608087015160a08801519351600097610caa979096959101612037565b604051602081830303815290604052805190602001209050919050565b7f0000000000000000000000000000000000000000000000000000000000000000600154017f00000000000000000000000000000000000000000000000000000000000000004281610d1b57610d1b611f0f565b041115610d5d5760405162461bcd60e51b815260206004820152601060248201526f213934b233b29029b43aba3237bbb71760811b604482015260640161063e565b336001600160a01b037f00000000000000000000000000000000000000000000000000000000000000001614610dc85760405162461bcd60e51b815260206004820152601060248201526f2737ba10333937b690313934b233b29760811b604482015260640161063e565b7f00000000000000000000000000000000000000000000000000000000000000006001600160a01b0316639e307dff6040518163ffffffff1660e01b8152600401602060405180830381865afa158015610e26573d6000803e3d6000fd5b505050506040513d601f19601f82011682018060405250810190610e4a91906120b7565b600114610e8d5760405162461bcd60e51b815260206004820152601160248201527024b73b30b634b21031b430b4b71034b21760791b604482015260640161063e565b7f00000000000000000000000000000000000000000000000000000000000000006001600160a01b031663d67bdd256040518163ffffffff1660e01b8152600401602060405180830381865afa158015610eeb573d6000803e3d6000fd5b505050506040513d601f19601f82011682018060405250810190610f0f91906120d0565b6001600160a01b03167f00000000000000000000000000000000000000000000000000000000000000006001600160a01b031614610f825760405162461bcd60e51b815260206004820152601060248201526f2737ba10333937b6903937baba32b91760811b604482015260640161063e565b60015483118015610f9257508115155b15610fd557600183905560008290556040518381527ff786e7f77ede00a02a5464f8f0555798f42ba99a4a920ef2778db8d75e4656f79060200160405180910390a15b610fde81610c7a565b60008481526002602052604090205414801561100f575060008160800151600281111561100d5761100d611f82565b145b1561105d5780518290036110295760016080820152611044565b60a08101516001600160a01b03161561104457600260808201525b61104d81610c7a565b6000848152600260205260409020555b505050565b6004546001600160a01b0316331461107957600080fd5b6004546001600160a01b031633146110a35760405162461bcd60e51b815260040161063e90611f98565b600480546001600160a01b0319166001600160a01b0392909216919091179055565b6110ce81610c7a565b600083815260026020526040902054146110fa5760405162461bcd60e51b815260040161063e90611f5a565b60a08101516001600160a01b0316156111555760405162461bcd60e51b815260206004820152601960248201527f436c61696d20616c7265616479206368616c6c656e6765642e00000000000000604482015260640161063e565b7f00000000000000000000000000000000000000000000000000000000000000003410156111c55760405162461bcd60e51b815260206004820152601f60248201527f496e73756666696369656e74206368616c6c656e6765206465706f7369742e00604482015260640161063e565b6004546001600160a01b031633146111ef5760405162461bcd60e51b815260040161063e90611f98565b7f0000000000000000000000000000000000000000000000000000000000000000816040015163ffffffff1601421061126a5760405162461bcd60e51b815260206004820152601960248201527f4368616c6c656e676520706572696f6420656c61707365642e00000000000000604482015260640161063e565b3360a082015261127981610c7a565b600083815260026020908152604091829020929092555183815233917fcfe09ca25f55d949baba5e280f5750c9ba4b9048fca5532f916067d433afe4d791016109ce565b7f0000000000000000000000000000000000000000000000000000000000000000600154017f0000000000000000000000000000000000000000000000000000000000000000428161131157611311611f0f565b0411156113535760405162461bcd60e51b815260206004820152601060248201526f213934b233b29029b43aba3237bbb71760811b604482015260640161063e565b61135c81610c7a565b600083815260026020526040902054146113885760405162461bcd60e51b815260040161063e90611f5a565b427f0000000000000000000000000000000000000000000000000000000000000000826040015163ffffffff160111156114125760405162461bcd60e51b815260206004820152602560248201527f4368616c6c656e676520706572696f6420686173206e6f742079657420656c616044820152643839b2b21760d91b606482015260840161063e565b7f000000000000000000000000000000000000000000000000000000000000000043016005826040015163ffffffff1642038161145157611451611f0f565b04826060015163ffffffff160111156114e55760405162461bcd60e51b815260206004820152604a60248201527f546f6f206d616e79206d697373696e6720626c6f636b732e20506f737369626c60448201527f652063656e736f72736869702061747461636b2e205573652063616e6f6e696360648201526930b610313934b233b29760b11b608482015260a40161063e565b60a08101516001600160a01b0316156115375760405162461bcd60e51b815260206004820152601460248201527321b630b4b69034b99031b430b63632b733b2b21760611b604482015260640161063e565b60015482111561157f57600182905580516000556040518281527ff786e7f77ede00a02a5464f8f0555798f42ba99a4a920ef2778db8d75e4656f79060200160405180910390a15b6001608082015261158f81610c7a565b6000928352600260205260409092209190915550565b7f0000000000000000000000000000000000000000000000000000000000000000600154017f000000000000000000000000000000000000000000000000000000000000000042816115f9576115f9611f0f565b04116116395760405162461bcd60e51b815260206004820152600f60248201526e213934b233b290293ab73734b7339760891b604482015260640161063e565b61164281610c7a565b6000838152600260205260409020541461166e5760405162461bcd60e51b815260040161063e90611f5a565b60008160800151600281111561168657611686611f82565b146116c55760405162461bcd60e51b815260206004820152600f60248201526e21b630b4b6903932b9b7b63b32b21760891b604482015260640161063e565b60a08101516001600160a01b0316156107935760208101516001600160a01b03166117495760008281526002602052604080822082905560a083015190516001600160a01b03909116917f000000000000000000000000000000000000000000000000000000000000000080156108fc02929091818181858888f150505050505050565b60a081018051600090915261175d82610c7a565b50600083815260026020526040516001600160a01b038316917f000000000000000000000000000000000000000000000000000000000000000080156108fc02929091818181858888f15050505050505050565b7f0000000000000000000000000000000000000000000000000000000000000000600154017f0000000000000000000000000000000000000000000000000000000000000000428161180557611805611f0f565b04116118455760405162461bcd60e51b815260206004820152600f60248201526e213934b233b290293ab73734b7339760891b604482015260640161063e565b61184e81610c7a565b6000838152600260205260409020541461187a5760405162461bcd60e51b815260040161063e90611f5a565b60008160800151600281111561189257611892611f82565b146118d15760405162461bcd60e51b815260206004820152600f60248201526e21b630b4b6903932b9b7b63b32b21760891b604482015260640161063e565b60208101516001600160a01b0316156107935760a08101516001600160a01b03166119565760008281526002602090815260408083208390559083015190516001600160a01b03909116917f000000000000000000000000000000000000000000000000000000000000000080156108fc02929091818181858888f150505050505050565b602081018051600090915261175d82610c7a565b6119748282610797565b6119d2826040518060c00160405280848152602001336001600160a01b031681526020014263ffffffff1681526020014363ffffffff168152602001600060028111156119c3576119c3611f82565b815260006020909101526112bd565b610793826040518060c00160405280848152602001336001600160a01b031681526020014263ffffffff1681526020014363ffffffff16815260200160016002811115611a2157611a21611f82565b81526000602090910152610609565b611a426102fc36839003830183611e31565b60008381526002602052604090205414611a6e5760405162461bcd60e51b815260040161063e90611f5a565b6002611a8060a08301608084016120ed565b6002811115611a9157611a91611f82565b14611ad25760405162461bcd60e51b815260206004820152601160248201527021b430b63632b733b2903330b4b632b21760791b604482015260640161063e565b600082815260026020526040808220829055517f000000000000000000000000000000000000000000000000000000000000000080156108fc029183818181858288f150611b2c93505060c0840191505060a08301611e84565b6001600160a01b03166108fc7f00000000000000000000000000000000000000000000000000000000000000009081150290604051600060405180830381858888f150505050505050565b600060c08284031215611b8957600080fd5b50919050565b600060c08284031215611ba157600080fd5b611bab8383611b77565b9392505050565b6001600160a01b0381168114611bc757600080fd5b50565b8035611bd581611bb2565b919050565b803563ffffffff81168114611bd557600080fd5b803560038110611bd557600080fd5b600060c08284031215611c0f57600080fd5b60405160c0810181811067ffffffffffffffff82111715611c4057634e487b7160e01b600052604160045260246000fd5b60405282358152905080611c5660208401611bca565b6020820152611c6760408401611bda565b6040820152611c7860608401611bda565b6060820152611c8960808401611bee565b6080820152611c9a60a08401611bca565b60a08201525092915050565b60008060e08385031215611cb957600080fd5b82359150611cca8460208501611bfd565b90509250929050565b600060208284031215611ce557600080fd5b5035919050565b60008060408385031215611cff57600080fd5b50508035926020909101359150565b803567ffffffffffffffff81168114611bd557600080fd5b60008083601f840112611d3857600080fd5b50813567ffffffffffffffff811115611d5057600080fd5b602083019150836020828501011115611d6857600080fd5b9250929050565b60008060008060008060808789031215611d8857600080fd5b863567ffffffffffffffff80821115611da057600080fd5b818901915089601f830112611db457600080fd5b813581811115611dc357600080fd5b8a60208260051b8501011115611dd857600080fd5b60208301985080975050611dee60208a01611d0e565b9550611dfc60408a01611bca565b94506060890135915080821115611e1257600080fd5b50611e1f89828a01611d26565b979a9699509497509295939492505050565b600060c08284031215611e4357600080fd5b611bab8383611bfd565b60008060006101008486031215611e6357600080fd5b8335925060208401359150611e7b8560408601611bfd565b90509250925092565b600060208284031215611e9657600080fd5b8135611bab81611bb2565b60008060e08385031215611eb457600080fd5b82359150611cca8460208501611b77565b600060208284031215611ed757600080fd5b611bab82611bda565b634e487b7160e01b600052601160045260246000fd5b81810381811115611f0957611f09611ee0565b92915050565b634e487b7160e01b600052601260045260246000fd5b600082611f4257634e487b7160e01b600052601260045260246000fd5b500490565b80820180821115611f0957611f09611ee0565b6020808252600e908201526d24b73b30b634b21031b630b4b69760911b604082015260600190565b634e487b7160e01b600052602160045260246000fd5b60208082526018908201527f496e76616c696420546573746e6574204f70657261746f720000000000000000604082015260600190565b60c085901b6001600160c01b0319168152606084901b6bffffffffffffffffffffffff191660088201528183601c83013760009101601c019081529392505050565b634e487b7160e01b600052603260045260246000fd5b8183823760009101908152919050565b86815260006bffffffffffffffffffffffff19808860601b16602084015263ffffffff60e01b808860e01b166034850152808760e01b166038850152506003851061209257634e487b7160e01b600052602160045260246000fd5b60f89490941b603c8301525060609190911b909116603d820152605101949350505050565b6000602082840312156120c957600080fd5b5051919050565b6000602082840312156120e257600080fd5b8151611bab81611bb2565b6000602082840312156120ff57600080fd5b611bab82611bee56fea2646970667358221220b0cef60de85bd7067edc03873ecef384ba4a15e3561f93fb6bef1ba4497788db64736f6c63430008120033",
  "devdoc": {
    "events": {
      "Challenged(uint256,address)": {
        "details": "This event indicates that `sendSnapshot(epoch)` should be called in the inbox.",
        "params": {
          "_challenger": "The address of the challenger.",
          "_epoch": "The epoch associated with the challenged claim."
        }
      },
      "Claimed(address,bytes32)": {
        "details": "Watcher check this event to challenge fraud.",
        "params": {
          "_claimer": "The address of the claimer.",
          "_stateRoot": "The state root of the claim."
        }
      },
      "MessageRelayed(uint64)": {
        "details": "This event indicates that a message has been relayed.",
        "params": {
          "_msgId": "The msgId of the message that was relayed."
        }
      },
      "Verified(uint256)": {
        "details": "This events indicates that verification has succeeded. The messages are ready to be relayed.",
        "params": {
          "_epoch": "The epoch that was verified."
        }
      }
    },
    "kind": "dev",
    "methods": {
      "challenge(uint256,(bytes32,address,uint32,uint32,uint8,address))": {
        "details": "Submit a challenge for the claim of the inbox state root snapshot taken at 'epoch'.",
        "params": {
          "_claim": "The claim associated with the epoch.",
          "_epoch": "The epoch of the claim to challenge."
        }
      },
      "changeDevnetOperator(address)": {
        "details": "Changes the devnet operator.",
        "params": {
          "_devnetOperator": "The new testnet operator."
        }
      },
      "claim(uint256,bytes32)": {
        "details": "Submit a claim about the _stateRoot at _epoch and submit a deposit.",
        "params": {
          "_epoch": "The epoch for which the claim is made.",
          "_stateRoot": "The state root to claim."
        }
      },
      "constructor": {
        "details": "Constructor.",
        "params": {
          "_amb": "The address of the AMB contract on Gnosis.",
          "_challengePeriod": "The duration of the period allowing to challenge a claim.",
          "_claimDelay": "The number of epochs a claim can be submitted for.",
          "_deposit": "The deposit amount to submit a claim in wei.",
          "_epochPeriod": "The duration of each epoch.",
          "_maxMissingBlocks": "The maximum number of blocks that can be missing in a challenge period.",
          "_routerArbToGnosisDevnet": "The address of the router contract on Goerli routing from ArbitrumGoerli to Chiado.",
          "_timeoutEpochs": "The epochs before the bridge is considered shutdown."
        }
      },
      "devnetAdvanceState(uint256,bytes32)": {
        "details": "Testnet operator utility function to claim, validate and withdraw.",
        "params": {
          "_epoch": "The epoch for which the claim is made.",
          "_stateroot": "The state root to claim."
        }
      },
      "hashClaim((bytes32,address,uint32,uint32,uint8,address))": {
        "details": "Hashes the claim.",
        "params": {
          "_claim": "The claim to hash."
        },
        "returns": {
          "hashedClaim": "The hash of the claim."
        }
      },
      "passedTest((bytes32,address,uint32,uint32,uint8,address))": {
        "details": "Claim passed censorship test",
        "params": {
          "_claim": "The claim to test."
        },
        "returns": {
          "testPassed": "True if the claim passed the censorship test."
        }
      },
      "resolveDisputedClaim(uint256,bytes32,(bytes32,address,uint32,uint32,uint8,address))": {
        "details": "Resolves any challenge of the optimistic claim for '_epoch'.",
        "params": {
          "_claim": "The claim associated with the epoch.",
          "_epoch": "The epoch to verify.",
          "_stateRoot": "The true state root for the epoch."
        }
      },
      "sendMessage(bytes32[],uint64,address,bytes)": {
        "details": "Verifies and relays the message. UNTRUSTED.",
        "params": {
          "_message": "The message encoded with header from VeaInbox.",
          "_msgId": "The zero based index of the message in the inbox.",
          "_proof": "The merkle proof to prove the message.",
          "_to": "The address of the contract on Gnosis to call."
        }
      },
      "validateSnapshot(uint256,(bytes32,address,uint32,uint32,uint8,address))": {
        "details": "Resolves the optimistic claim for '_epoch'.",
        "params": {
          "_claim": "The claim associated with the epoch.",
          "_epoch": "The epoch of the optimistic claim."
        }
      },
      "withdrawChallengeDeposit(uint256,(bytes32,address,uint32,uint32,uint8,address))": {
        "details": "Sends the deposit back to the Challenger if successful. Includes a portion of the Bridger's deposit.",
        "params": {
          "_claim": "The claim associated with the epoch.",
          "_epoch": "The epoch associated with the challenge deposit to withraw."
        }
      },
      "withdrawChallengerEscapeHatch(uint256,(bytes32,address,uint32,uint32,uint8,address))": {
        "details": "When bridge is shutdown, no claim disputes can be resolved. This allows the challenger to withdraw their deposit.",
        "params": {
          "_claim": "The claim associated with the epoch.",
          "_epoch": "The epoch associated with the claim deposit to withraw."
        }
      },
      "withdrawClaimDeposit(uint256,(bytes32,address,uint32,uint32,uint8,address))": {
        "details": "Sends the deposit back to the Bridger if their claim is not successfully challenged. Includes a portion of the Challenger's deposit if unsuccessfully challenged.",
        "params": {
          "_claim": "The claim associated with the epoch.",
          "_epoch": "The epoch associated with the claim deposit to withraw."
        }
      },
      "withdrawClaimerEscapeHatch(uint256,(bytes32,address,uint32,uint32,uint8,address))": {
        "details": "When bridge is shutdown, no claim disputes can be resolved. This allows the claimer to withdraw their deposit.",
        "params": {
          "_claim": "The claim associated with the epoch.",
          "_epoch": "The epoch associated with the claim deposit to withraw."
        }
      }
    },
    "version": 1
  },
  "userdoc": {
    "kind": "user",
    "methods": {
      "resolveDisputedClaim(uint256,bytes32,(bytes32,address,uint32,uint32,uint8,address))": {
        "notice": "Note: Access restricted to AMB."
      }
    },
    "notice": "Vea Outbox From ArbitrumGoerli to Chiado. Note: This contract is deployed on Chiado. Note: This contract is permissioned for developer testing (devnet).",
    "version": 1
  },
  "storageLayout": {
    "storage": [
      {
        "astId": 1151,
        "contract": "src/devnets/arbitrumToGnosis/VeaOutboxArbToGnosisDevnet.sol:VeaOutboxArbToGnosisDevnet",
        "label": "stateRoot",
        "offset": 0,
        "slot": "0",
        "type": "t_bytes32"
      },
      {
        "astId": 1153,
        "contract": "src/devnets/arbitrumToGnosis/VeaOutboxArbToGnosisDevnet.sol:VeaOutboxArbToGnosisDevnet",
        "label": "latestVerifiedEpoch",
        "offset": 0,
        "slot": "1",
        "type": "t_uint256"
      },
      {
        "astId": 1157,
        "contract": "src/devnets/arbitrumToGnosis/VeaOutboxArbToGnosisDevnet.sol:VeaOutboxArbToGnosisDevnet",
        "label": "claimHashes",
        "offset": 0,
        "slot": "2",
        "type": "t_mapping(t_uint256,t_bytes32)"
      },
      {
        "astId": 1161,
        "contract": "src/devnets/arbitrumToGnosis/VeaOutboxArbToGnosisDevnet.sol:VeaOutboxArbToGnosisDevnet",
        "label": "relayed",
        "offset": 0,
        "slot": "3",
        "type": "t_mapping(t_uint256,t_bytes32)"
      },
      {
        "astId": 2762,
        "contract": "src/devnets/arbitrumToGnosis/VeaOutboxArbToGnosisDevnet.sol:VeaOutboxArbToGnosisDevnet",
        "label": "devnetOperator",
        "offset": 0,
        "slot": "4",
        "type": "t_address"
      }
    ],
    "types": {
      "t_address": {
        "encoding": "inplace",
        "label": "address",
        "numberOfBytes": "20"
      },
      "t_bytes32": {
        "encoding": "inplace",
        "label": "bytes32",
        "numberOfBytes": "32"
      },
      "t_mapping(t_uint256,t_bytes32)": {
        "encoding": "mapping",
        "key": "t_uint256",
        "label": "mapping(uint256 => bytes32)",
        "numberOfBytes": "32",
        "value": "t_bytes32"
      },
      "t_uint256": {
        "encoding": "inplace",
        "label": "uint256",
        "numberOfBytes": "32"
      }
    }
  }
}