{
  "address": "0xfF2B7048d673767754B798df1702C786E2c59F1F",
  "abi": [
    {
      "inputs": [
        {
          "internalType": "contract IBridge",
          "name": "_bridge",
          "type": "address"
        },
        {
          "internalType": "contract IAMB",
          "name": "_amb",
          "type": "address"
        },
        {
          "internalType": "address",
          "name": "_veaInboxArbToGnosis",
          "type": "address"
        },
        {
          "internalType": "address",
          "name": "_veaOutboxArbToGnosis",
          "type": "address"
        }
      ],
      "stateMutability": "nonpayable",
      "type": "constructor"
    },
    {
      "anonymous": false,
      "inputs": [
        {
          "indexed": true,
          "internalType": "uint256",
          "name": "_epoch",
          "type": "uint256"
        },
        {
          "indexed": false,
          "internalType": "bytes32",
          "name": "_ticketID",
          "type": "bytes32"
        }
      ],
      "name": "Routed",
      "type": "event"
    },
    {
      "anonymous": false,
      "inputs": [
        {
          "indexed": false,
          "internalType": "uint256",
          "name": "_requestedSequencerLimit",
          "type": "uint256"
        }
      ],
      "name": "SequencerLimitDecreaseRequested",
      "type": "event"
    },
    {
      "anonymous": false,
      "inputs": [
        {
          "indexed": false,
          "internalType": "bytes32",
          "name": "_ticketID",
          "type": "bytes32"
        }
      ],
      "name": "SequencerLimitSent",
      "type": "event"
    },
    {
      "anonymous": false,
      "inputs": [
        {
          "indexed": false,
          "internalType": "uint256",
          "name": "_newSequencerLimit",
          "type": "uint256"
        }
      ],
      "name": "SequencerLimitUpdated",
      "type": "event"
    },
    {
      "inputs": [],
      "name": "amb",
      "outputs": [
        {
          "internalType": "contract IAMB",
          "name": "",
          "type": "address"
        }
      ],
      "stateMutability": "view",
      "type": "function"
    },
    {
      "inputs": [],
      "name": "bridge",
      "outputs": [
        {
          "internalType": "contract IBridge",
          "name": "",
          "type": "address"
        }
      ],
      "stateMutability": "view",
      "type": "function"
    },
    {
      "inputs": [],
      "name": "executeSequencerLimitDecreaseRequest",
      "outputs": [],
      "stateMutability": "nonpayable",
      "type": "function"
    },
    {
      "inputs": [
        {
          "internalType": "uint256",
          "name": "_epoch",
          "type": "uint256"
        },
        {
          "internalType": "bytes32",
          "name": "_stateroot",
          "type": "bytes32"
        },
        {
          "components": [
            {
              "internalType": "bytes32",
              "name": "stateRoot",
              "type": "bytes32"
            },
            {
              "internalType": "address",
              "name": "claimer",
              "type": "address"
            },
            {
              "internalType": "uint32",
              "name": "timestampClaimed",
              "type": "uint32"
            },
            {
              "internalType": "uint32",
              "name": "timestampVerification",
              "type": "uint32"
            },
            {
              "internalType": "uint32",
              "name": "blocknumberVerification",
              "type": "uint32"
            },
            {
              "internalType": "enum Party",
              "name": "honest",
              "type": "uint8"
            },
            {
              "internalType": "address",
              "name": "challenger",
              "type": "address"
            }
          ],
          "internalType": "struct Claim",
          "name": "_claim",
          "type": "tuple"
        }
      ],
      "name": "route",
      "outputs": [],
      "stateMutability": "nonpayable",
      "type": "function"
    },
    {
      "inputs": [],
      "name": "sequencerLimit",
      "outputs": [
        {
          "internalType": "uint256",
          "name": "",
          "type": "uint256"
        }
      ],
      "stateMutability": "view",
      "type": "function"
    },
    {
      "inputs": [],
      "name": "sequencerLimitDecreaseRequest",
      "outputs": [
        {
          "internalType": "uint256",
          "name": "requestedSequencerLimit",
          "type": "uint256"
        },
        {
          "internalType": "uint256",
          "name": "timestamp",
          "type": "uint256"
        }
      ],
      "stateMutability": "view",
      "type": "function"
    },
    {
      "inputs": [],
      "name": "updateSequencerLimit",
      "outputs": [],
      "stateMutability": "nonpayable",
      "type": "function"
    },
    {
      "inputs": [],
      "name": "veaInboxArbToGnosis",
      "outputs": [
        {
          "internalType": "address",
          "name": "",
          "type": "address"
        }
      ],
      "stateMutability": "view",
      "type": "function"
    },
    {
      "inputs": [],
      "name": "veaOutboxArbToGnosis",
      "outputs": [
        {
          "internalType": "address",
          "name": "",
          "type": "address"
        }
      ],
      "stateMutability": "view",
      "type": "function"
    }
  ],
  "transactionHash": "0x7dbe5f504a6d9104289dea858569d1ec89e014cdf833f56e41155292c16c59f4",
  "args": [
    "0xaf4159A80B6Cc41ED517DB1c453d1Ef5C2e4dB72",
    "0x99Ca51a3534785ED619f46A79C7Ad65Fa8d85e7a",
    "0x773872EFbA47b926F4B2d42DaB4677431bDA02E4",
    "0x53194Fa828ebEfa5cB515d23CC2467d88f6B0Be2"
  ],
  "numDeployments": 2,
  "solcInputHash": "c9836c6cb024801f3104e49f87086294",
  "bytecode": "0x6101006040523480156200001257600080fd5b5060405162000fe138038062000fe1833981016040819052620000359162000147565b6001600160a01b03808516608081905284821660a05283821660c05290821660e0526040805163ee35f32760e01b8152905163ee35f327916004808201926020929091908290030181865afa15801562000093573d6000803e3d6000fd5b505050506040513d601f19601f82011682018060405250810190620000b99190620001af565b6001600160a01b031663ebea461d6040518163ffffffff1660e01b8152600401608060405180830381865afa158015620000f7573d6000803e3d6000fd5b505050506040513d601f19601f820116820180604052508101906200011d9190620001d6565b50600055506200020d945050505050565b6001600160a01b03811681146200014457600080fd5b50565b600080600080608085870312156200015e57600080fd5b84516200016b816200012e565b60208601519094506200017e816200012e565b604086015190935062000191816200012e565b6060860151909250620001a4816200012e565b939692955090935050565b600060208284031215620001c257600080fd5b8151620001cf816200012e565b9392505050565b60008060008060808587031215620001ed57600080fd5b505082516020840151604085015160609095015191969095509092509050565b60805160a05160c05160e051610d5d620002846000396000818160eb0152818161082401526109bd0152600081816101120152610649015260008181609d015281816107fb015261099401526000818161017b015281816102c1015281816103e5015281816105e701526106730152610d5d6000f3fe608060405234801561001057600080fd5b50600436106100935760003560e01c80639c13b6b5116100665780639c13b6b514610134578063da456a0e1461014b578063dd5fdeaa1461016e578063e78cea9214610176578063f6ee5b761461019d57600080fd5b80631062b39a1461009857806325a2acb1146100dc5780632fa70aa7146100e65780638c5f173f1461010d575b600080fd5b6100bf7f000000000000000000000000000000000000000000000000000000000000000081565b6040516001600160a01b0390911681526020015b60405180910390f35b6100e46101b0565b005b6100bf7f000000000000000000000000000000000000000000000000000000000000000081565b6100bf7f000000000000000000000000000000000000000000000000000000000000000081565b61013d60005481565b6040519081526020016100d3565b600154600254610159919082565b604080519283526020830191909152016100d3565b6100e46103e1565b6100bf7f000000000000000000000000000000000000000000000000000000000000000081565b6100e46101ab366004610aca565b6105dc565b60025460000361021c5760405162461bcd60e51b815260206004820152602c60248201527f4e6f2070656e64696e672073657175656e636572206c696d697420646563726560448201526b30b9b2903932b8bab2b9ba1760a11b60648201526084015b60405180910390fd5b60005460025461022c9190610b0c565b42116102955760405162461bcd60e51b815260206004820152603260248201527f53657175656e636572206c696d697420646563726561736520726571756573746044820152711034b99039ba34b636103832b73234b7339760711b6064820152608401610213565b6001805460009182905560028290556040805163ee35f32760e01b815290519192916001600160a01b037f0000000000000000000000000000000000000000000000000000000000000000169163ee35f3279160048083019260209291908290030181865afa15801561030c573d6000803e3d6000fd5b505050506040513d601f19601f820116820180604052508101906103309190610b48565b6001600160a01b031663ebea461d6040518163ffffffff1660e01b8152600401608060405180830381865afa15801561036d573d6000803e3d6000fd5b505050506040513d601f19601f820116820180604052508101906103919190610b6c565b50925050508181036103dd5760008290556040518281527f5235f7b7d7d312ac3bdcf23fddb2cb8a6b24ee5de5e699d3f9f4bb8b893b408c9060200160405180910390a16103dd610935565b5050565b60007f00000000000000000000000000000000000000000000000000000000000000006001600160a01b031663ee35f3276040518163ffffffff1660e01b8152600401602060405180830381865afa158015610441573d6000803e3d6000fd5b505050506040513d601f19601f820116820180604052508101906104659190610b48565b6001600160a01b031663ebea461d6040518163ffffffff1660e01b8152600401608060405180830381865afa1580156104a2573d6000803e3d6000fd5b505050506040513d601f19601f820116820180604052508101906104c69190610b6c565b50925050506000548111156105185760008190556040518181527f5235f7b7d7d312ac3bdcf23fddb2cb8a6b24ee5de5e699d3f9f4bb8b893b408c9060200160405180910390a1610515610935565b50565b600054811015610515576002541561058c5760405162461bcd60e51b815260206004820152603160248201527f53657175656e636572206c696d697420646563726561736520726571756573746044820152701030b63932b0b23c903832b73234b7339760791b6064820152608401610213565b604080518082018252828152426020918201819052600184905560025590518281527f08b771dddc6449625c7cd99bccdaf915b9c891fb6fa03695a71175b69e376ebb910160405180910390a150565b336001600160a01b037f000000000000000000000000000000000000000000000000000000000000000016146106475760405162461bcd60e51b815260206004820152601060248201526f2737ba10333937b690313934b233b29760811b6044820152606401610213565b7f00000000000000000000000000000000000000000000000000000000000000006001600160a01b03167f00000000000000000000000000000000000000000000000000000000000000006001600160a01b031663ab5d89436040518163ffffffff1660e01b8152600401602060405180830381865afa1580156106cf573d6000803e3d6000fd5b505050506040513d601f19601f820116820180604052508101906106f39190610b48565b6001600160a01b03166380648b026040518163ffffffff1660e01b8152600401602060405180830381865afa158015610730573d6000803e3d6000fd5b505050506040513d601f19601f820116820180604052508101906107549190610b48565b6001600160a01b03161461079b5760405162461bcd60e51b815260206004820152600e60248201526d3b32b0a4b73137bc1037b7363c9760911b6044820152606401610213565b60008383836040516024016107b293929190610bf7565b60408051601f19818403018152918152602080830180516001600160e01b0316630f0adca560e01b179052815163e5789d0360e01b815291519293506000926001600160a01b037f0000000000000000000000000000000000000000000000000000000000000000169263dc8601b3927f0000000000000000000000000000000000000000000000000000000000000000928792869263e5789d03926004808401938290030181865afa15801561086d573d6000803e3d6000fd5b505050506040513d601f19601f820116820180604052508101906108919190610ca9565b6040518463ffffffff1660e01b81526004016108af93929190610cc2565b6020604051808303816000875af11580156108ce573d6000803e3d6000fd5b505050506040513d601f19601f820116820180604052508101906108f29190610ca9565b9050847f888a9bef5168f83425ebe9503cb6d29081cf58d52c60126f8a85a22c9d9935548260405161092691815260200190565b60405180910390a25050505050565b6000805460405160240161094b91815260200190565b60408051601f19818403018152918152602080830180516001600160e01b03166330a66b3160e21b179052815163e5789d0360e01b815291519293506000926001600160a01b037f0000000000000000000000000000000000000000000000000000000000000000169263dc8601b3927f0000000000000000000000000000000000000000000000000000000000000000928792869263e5789d03926004808401938290030181865afa158015610a06573d6000803e3d6000fd5b505050506040513d601f19601f82011682018060405250810190610a2a9190610ca9565b6040518463ffffffff1660e01b8152600401610a4893929190610cc2565b6020604051808303816000875af1158015610a67573d6000803e3d6000fd5b505050506040513d601f19601f82011682018060405250810190610a8b9190610ca9565b90507fd488b9f6b18ad9b161668081604f47fc1bf87885163d2220eb8e27e7c9c7b59381604051610abe91815260200190565b60405180910390a15050565b6000806000838503610120811215610ae157600080fd5b843593506020850135925060e0603f1982011215610afe57600080fd5b506040840190509250925092565b80820180821115610b2d57634e487b7160e01b600052601160045260246000fd5b92915050565b6001600160a01b038116811461051557600080fd5b600060208284031215610b5a57600080fd5b8151610b6581610b33565b9392505050565b60008060008060808587031215610b8257600080fd5b505082516020840151604085015160609095015191969095509092509050565b8035610bad81610b33565b919050565b803563ffffffff81168114610bad57600080fd5b803560038110610bad57600080fd5b60038110610bf357634e487b7160e01b600052602160045260246000fd5b9052565b838152602080820184905282356040830152610120820190830135610c1b81610b33565b6001600160a01b03166060830152610c3560408401610bb2565b63ffffffff808216608085015280610c4f60608701610bb2565b1660a085015280610c6260808701610bb2565b1660c08501525050610c7660a08401610bc6565b610c8360e0840182610bd5565b50610c9060c08401610ba2565b6001600160a01b03811661010084015250949350505050565b600060208284031215610cbb57600080fd5b5051919050565b60018060a01b038416815260006020606081840152845180606085015260005b81811015610cfe57868101830151858201608001528201610ce2565b506000608082860101526080601f19601f8301168501019250505082604083015294935050505056fea2646970667358221220eb4ad4f2e9b0b72e4d19c4740089707442a5a4b35d3f482fe78ca0227afc31b364736f6c63430008120033",
  "devdoc": {
    "details": "Router from Arbitrum to Gnosis Chain. Note: This contract is deployed on Ethereum.",
    "events": {
      "Routed(uint256,bytes32)": {
        "details": "Event emitted when a message is relayed to another Safe Bridge.",
        "params": {
          "_epoch": "The epoch of the batch requested to send.",
          "_ticketID": "The unique identifier provided by the underlying canonical bridge."
        }
      },
      "SequencerLimitDecreaseRequested(uint256)": {
        "details": "This event indicates that a request to decrease the sequencer limit has been made.",
        "params": {
          "_requestedSequencerLimit": "The new sequencer limit requested."
        }
      },
      "SequencerLimitSent(bytes32)": {
        "details": "This event indicates a cross-chain message was sent to inform the veaOutbox of the sequencer limit value",
        "params": {
          "_ticketID": "The ticketID from the AMB of the cross-chain message."
        }
      },
      "SequencerLimitUpdated(uint256)": {
        "details": "This event indicates the sequencer limit updated.",
        "params": {
          "_newSequencerLimit": "The new maxL2StateSyncDelay."
        }
      }
    },
    "kind": "dev",
    "methods": {
      "constructor": {
        "details": "Constructor.",
        "params": {
          "_amb": "The address of the AMB contract on Ethereum.",
          "_bridge": "The address of the arbitrum bridge contract on Ethereum.",
          "_veaInboxArbToGnosis": "The vea inbox on Arbitrum.",
          "_veaOutboxArbToGnosis": "The vea outbox on Gnosis Chain."
        }
      },
      "executeSequencerLimitDecreaseRequest()": {
        "details": "execute SequencerLimitDecreaseRequest"
      },
      "route(uint256,bytes32,(bytes32,address,uint32,uint32,uint32,uint8,address))": {
        "details": "Resolves any challenge of the optimistic claim for '_epoch'.",
        "params": {
          "_claim": "The claim associated with the epoch.",
          "_epoch": "The epoch to verify.",
          "_stateroot": "The true batch merkle root for the epoch."
        }
      },
      "updateSequencerLimit()": {
        "details": "Update the sequencerLimit. If decreasing, a delayed request is created for later execution."
      }
    },
    "version": 1
  },
  "userdoc": {
    "kind": "user",
    "methods": {
      "route(uint256,bytes32,(bytes32,address,uint32,uint32,uint32,uint8,address))": {
        "notice": "Note: Access restricted to arbitrum canonical bridge."
      }
    },
    "version": 1
  },
  "storageLayout": {
    "storage": [
      {
        "astId": 1835,
        "contract": "src/arbitrumToGnosis/RouterArbToGnosis.sol:RouterArbToGnosis",
        "label": "sequencerLimit",
        "offset": 0,
        "slot": "0",
        "type": "t_uint256"
      },
      {
        "astId": 1838,
        "contract": "src/arbitrumToGnosis/RouterArbToGnosis.sol:RouterArbToGnosis",
        "label": "sequencerLimitDecreaseRequest",
        "offset": 0,
        "slot": "1",
        "type": "t_struct(SequencerLimitDecreaseRequest)1843_storage"
      }
    ],
    "types": {
      "t_struct(SequencerLimitDecreaseRequest)1843_storage": {
        "encoding": "inplace",
        "label": "struct RouterArbToGnosis.SequencerLimitDecreaseRequest",
        "members": [
          {
            "astId": 1840,
            "contract": "src/arbitrumToGnosis/RouterArbToGnosis.sol:RouterArbToGnosis",
            "label": "requestedSequencerLimit",
            "offset": 0,
            "slot": "0",
            "type": "t_uint256"
          },
          {
            "astId": 1842,
            "contract": "src/arbitrumToGnosis/RouterArbToGnosis.sol:RouterArbToGnosis",
            "label": "timestamp",
            "offset": 0,
            "slot": "1",
            "type": "t_uint256"
          }
        ],
        "numberOfBytes": "64"
      },
      "t_uint256": {
        "encoding": "inplace",
        "label": "uint256",
        "numberOfBytes": "32"
      }
    }
  }
}