{
  "address": "0xC21c20a719fAc23c54c336FA0E16a0CFdC4baA00",
  "abi": [
    {
      "inputs": [
        {
          "internalType": "contract IBridge",
          "name": "_bridge",
          "type": "address"
        },
        {
          "internalType": "contract IAMB",
          "name": "_amb",
          "type": "address"
        },
        {
          "internalType": "address",
          "name": "_veaInboxArbToGnosis",
          "type": "address"
        },
        {
          "internalType": "address",
          "name": "_veaOutboxArbToGnosis",
          "type": "address"
        },
        {
          "internalType": "uint256",
          "name": "_inboxChainId",
          "type": "uint256"
        }
      ],
      "stateMutability": "nonpayable",
      "type": "constructor"
    },
    {
      "anonymous": false,
      "inputs": [
        {
          "indexed": true,
          "internalType": "uint256",
          "name": "_epoch",
          "type": "uint256"
        },
        {
          "indexed": false,
          "internalType": "uint256",
          "name": "_ticketID",
          "type": "uint256"
        }
      ],
      "name": "Routed",
      "type": "event"
    },
    {
      "anonymous": false,
      "inputs": [
        {
          "indexed": false,
          "internalType": "uint256",
          "name": "_requestedSequencerDelayLimit",
          "type": "uint256"
        }
      ],
      "name": "sequencerDelayLimitDecreaseRequested",
      "type": "event"
    },
    {
      "anonymous": false,
      "inputs": [
        {
          "indexed": false,
          "internalType": "uint256",
          "name": "_ticketID",
          "type": "uint256"
        }
      ],
      "name": "sequencerDelayLimitSent",
      "type": "event"
    },
    {
      "anonymous": false,
      "inputs": [
        {
          "indexed": false,
          "internalType": "uint256",
          "name": "_newSequencerDelayLimit",
          "type": "uint256"
        }
      ],
      "name": "sequencerDelayLimitUpdated",
      "type": "event"
    },
    {
      "anonymous": false,
      "inputs": [
        {
          "indexed": false,
          "internalType": "uint256",
          "name": "_requestedSequencerFutureLimit",
          "type": "uint256"
        }
      ],
      "name": "sequencerFutureLimitDecreaseRequested",
      "type": "event"
    },
    {
      "anonymous": false,
      "inputs": [
        {
          "indexed": false,
          "internalType": "uint256",
          "name": "_ticketID",
          "type": "uint256"
        }
      ],
      "name": "sequencerFutureLimitSent",
      "type": "event"
    },
    {
      "anonymous": false,
      "inputs": [
        {
          "indexed": false,
          "internalType": "uint256",
          "name": "_newSequencerFutureLimit",
          "type": "uint256"
        }
      ],
      "name": "sequencerFutureLimitUpdated",
      "type": "event"
    },
    {
      "inputs": [
        {
          "internalType": "address",
          "name": "",
          "type": "address"
        }
      ],
      "name": "L2GasBalance",
      "outputs": [
        {
          "internalType": "uint256",
          "name": "",
          "type": "uint256"
        }
      ],
      "stateMutability": "view",
      "type": "function"
    },
    {
      "inputs": [],
      "name": "amb",
      "outputs": [
        {
          "internalType": "contract IAMB",
          "name": "",
          "type": "address"
        }
      ],
      "stateMutability": "view",
      "type": "function"
    },
    {
      "inputs": [],
      "name": "bridge",
      "outputs": [
        {
          "internalType": "contract IBridge",
          "name": "",
          "type": "address"
        }
      ],
      "stateMutability": "view",
      "type": "function"
    },
    {
      "inputs": [],
      "name": "deposit",
      "outputs": [],
      "stateMutability": "payable",
      "type": "function"
    },
    {
      "inputs": [],
      "name": "executeSequencerDelayLimitDecreaseRequest",
      "outputs": [],
      "stateMutability": "nonpayable",
      "type": "function"
    },
    {
      "inputs": [],
      "name": "executeSequencerFutureLimitDecreaseRequest",
      "outputs": [],
      "stateMutability": "nonpayable",
      "type": "function"
    },
    {
      "inputs": [
        {
          "internalType": "uint256",
          "name": "_epoch",
          "type": "uint256"
        },
        {
          "internalType": "bytes32",
          "name": "_stateroot",
          "type": "bytes32"
        },
        {
          "internalType": "uint256",
          "name": "_inboxIndex",
          "type": "uint256"
        },
        {
          "internalType": "uint256",
          "name": "_maxSubmissionCost",
          "type": "uint256"
        },
        {
          "internalType": "address",
          "name": "_excessFeeRefundAddress",
          "type": "address"
        },
        {
          "internalType": "uint256",
          "name": "_gasLimit",
          "type": "uint256"
        },
        {
          "internalType": "uint256",
          "name": "_maxFeePerGas",
          "type": "uint256"
        }
      ],
      "name": "route",
      "outputs": [],
      "stateMutability": "nonpayable",
      "type": "function"
    },
    {
      "inputs": [
        {
          "internalType": "uint256",
          "name": "_inboxIndex",
          "type": "uint256"
        },
        {
          "internalType": "uint256",
          "name": "_maxSubmissionCost",
          "type": "uint256"
        },
        {
          "internalType": "address",
          "name": "_excessFeeRefundAddress",
          "type": "address"
        },
        {
          "internalType": "uint256",
          "name": "_gasLimit",
          "type": "uint256"
        },
        {
          "internalType": "uint256",
          "name": "_maxFeePerGas",
          "type": "uint256"
        }
      ],
      "name": "sendSequencerDelayLimit",
      "outputs": [],
      "stateMutability": "nonpayable",
      "type": "function"
    },
    {
      "inputs": [
        {
          "internalType": "uint256",
          "name": "_inboxIndex",
          "type": "uint256"
        },
        {
          "internalType": "uint256",
          "name": "_maxSubmissionCost",
          "type": "uint256"
        },
        {
          "internalType": "address",
          "name": "_excessFeeRefundAddress",
          "type": "address"
        },
        {
          "internalType": "uint256",
          "name": "_gasLimit",
          "type": "uint256"
        },
        {
          "internalType": "uint256",
          "name": "_maxFeePerGas",
          "type": "uint256"
        }
      ],
      "name": "sendSequencerFutureLimit",
      "outputs": [],
      "stateMutability": "nonpayable",
      "type": "function"
    },
    {
      "inputs": [],
      "name": "sequencerDelayLimit",
      "outputs": [
        {
          "internalType": "uint256",
          "name": "",
          "type": "uint256"
        }
      ],
      "stateMutability": "view",
      "type": "function"
    },
    {
      "inputs": [],
      "name": "sequencerDelayLimitDecreaseRequest",
      "outputs": [
        {
          "internalType": "uint256",
          "name": "requestedSequencerLimit",
          "type": "uint256"
        },
        {
          "internalType": "uint256",
          "name": "timestamp",
          "type": "uint256"
        }
      ],
      "stateMutability": "view",
      "type": "function"
    },
    {
      "inputs": [],
      "name": "sequencerFutureLimit",
      "outputs": [
        {
          "internalType": "uint256",
          "name": "",
          "type": "uint256"
        }
      ],
      "stateMutability": "view",
      "type": "function"
    },
    {
      "inputs": [],
      "name": "sequencerFutureLimitDecreaseRequest",
      "outputs": [
        {
          "internalType": "uint256",
          "name": "requestedSequencerLimit",
          "type": "uint256"
        },
        {
          "internalType": "uint256",
          "name": "timestamp",
          "type": "uint256"
        }
      ],
      "stateMutability": "view",
      "type": "function"
    },
    {
      "inputs": [],
      "name": "updateSequencerDelayLimit",
      "outputs": [],
      "stateMutability": "nonpayable",
      "type": "function"
    },
    {
      "inputs": [],
      "name": "updateSequencerFutureLimit",
      "outputs": [],
      "stateMutability": "nonpayable",
      "type": "function"
    },
    {
      "inputs": [],
      "name": "veaInboxGnosisToArb",
      "outputs": [
        {
          "internalType": "address",
          "name": "",
          "type": "address"
        }
      ],
      "stateMutability": "view",
      "type": "function"
    },
    {
      "inputs": [],
      "name": "veaOutboxGnosisToArb",
      "outputs": [
        {
          "internalType": "address",
          "name": "",
          "type": "address"
        }
      ],
      "stateMutability": "view",
      "type": "function"
    },
    {
      "inputs": [
        {
          "internalType": "uint256",
          "name": "_amount",
          "type": "uint256"
        }
      ],
      "name": "withdraw",
      "outputs": [],
      "stateMutability": "nonpayable",
      "type": "function"
    }
  ],
  "transactionHash": "0xb10dea8416999f1d59f314e6911cd0e58f7d7e2fc8874059914aada67bb34b9d",
  "args": [
    "0xaf4159A80B6Cc41ED517DB1c453d1Ef5C2e4dB72",
    "0x99Ca51a3534785ED619f46A79C7Ad65Fa8d85e7a",
    "0xB10EF39cc9b45A8EAfa87655063E3dD83D675075",
    "0x663697f5748c5f4d46a15114Dde5514356E794F4",
    5
  ],
  "numDeployments": 1,
  "solcInputHash": "7298e2ccdbe09809d528e3141326e32b",
  "bytecode": "0x6101206040523480156200001257600080fd5b5060405162001aeb38038062001aeb833981016040819052620000359162000268565b6001600160a01b0380861660805284811660a05283811660c052821660e052610100819052620000646200006f565b50505050506200033a565b60006080516001600160a01b031663ee35f3276040518163ffffffff1660e01b8152600401602060405180830381865afa158015620000b2573d6000803e3d6000fd5b505050506040513d601f19601f82011682018060405250810190620000d89190620002dc565b6001600160a01b031663ebea461d6040518163ffffffff1660e01b8152600401608060405180830381865afa15801562000116573d6000803e3d6000fd5b505050506040513d601f19601f820116820180604052508101906200013c919062000303565b5092505050600154811115620001875760018190556040518181527f611c2e4a78552f908fb0eb2cc503efc1f947cde8574277ab3b0f10fdd510258b9060200160405180910390a150565b6001548110156200024f5760045415620002015760405162461bcd60e51b815260206004820152603160248201527f53657175656e636572206c696d697420646563726561736520726571756573746044820152701030b63932b0b23c903832b73234b7339760791b606482015260840160405180910390fd5b604080518082018252828152426020918201819052600384905560045590518281527fa552b382e128c9d0732f01f09502c18999aec5dce0ed78c5af0ea2274ce9bd7d910160405180910390a15b50565b6001600160a01b03811681146200024f57600080fd5b600080600080600060a086880312156200028157600080fd5b85516200028e8162000252565b6020870151909550620002a18162000252565b6040870151909450620002b48162000252565b6060870151909350620002c78162000252565b80925050608086015190509295509295909350565b600060208284031215620002ef57600080fd5b8151620002fc8162000252565b9392505050565b600080600080608085870312156200031a57600080fd5b505082516020840151604085015160609095015191969095509092509050565b60805160a05160c05160e0516101005161170a620003e1600039600061085501526000818161021101528181610aed0152818161105401526112700152600081816102d7015261094201526000818161019001528181610759015281816107d301526108b701526000818161035301528181610410015281816105a401528181610a6f01528181610bc801528181610d7301528181610fd601526111f2015261170a6000f3fe6080604052600436106101095760003560e01c806365b0183511610095578063b6d7aeff11610064578063b6d7aeff146102f9578063c4977c8b14610319578063d0e30db014610339578063e78cea9214610341578063e813a7551461037557600080fd5b806365b018351461026857806377a43648146102955780637e260880146102aa5780639e75a705146102c557600080fd5b80631ff47dc0116100dc5780631ff47dc0146101ca5780632e1a7d4d146101df5780634738b97f146101ff578063507b5ad3146102335780635f43a47f1461025357600080fd5b8063051d19701461010e5780630c63fa84146101435780630e56752e1461015a5780631062b39a1461017e575b600080fd5b34801561011a57600080fd5b50600354600454610129919082565b604080519283526020830191909152015b60405180910390f35b34801561014f57600080fd5b5061015861038b565b005b34801561016657600080fd5b5061017060025481565b60405190815260200161013a565b34801561018a57600080fd5b506101b27f000000000000000000000000000000000000000000000000000000000000000081565b6040516001600160a01b03909116815260200161013a565b3480156101d657600080fd5b50610158610528565b3480156101eb57600080fd5b506101586101fa366004611357565b6106b5565b34801561020b57600080fd5b506101b27f000000000000000000000000000000000000000000000000000000000000000081565b34801561023f57600080fd5b5061015861024e366004611385565b61074e565b34801561025f57600080fd5b50610158610bc4565b34801561027457600080fd5b506101706102833660046113e4565b60006020819052908152604090205481565b3480156102a157600080fd5b50610158610d6f565b3480156102b657600080fd5b50600554600654610129919082565b3480156102d157600080fd5b506101b27f000000000000000000000000000000000000000000000000000000000000000081565b34801561030557600080fd5b50610158610314366004611408565b610f0c565b34801561032557600080fd5b50610158610334366004611408565b611128565b610158611331565b34801561034d57600080fd5b506101b27f000000000000000000000000000000000000000000000000000000000000000081565b34801561038157600080fd5b5061017060015481565b6004546000036103b65760405162461bcd60e51b81526004016103ad90611451565b60405180910390fd5b6001546004546103c691906114b3565b42116103e45760405162461bcd60e51b81526004016103ad906114cc565b6003805460009182905560048281556040805163ee35f32760e01b815290519293926001600160a01b037f0000000000000000000000000000000000000000000000000000000000000000169263ee35f327928082019260209290918290030181865afa158015610459573d6000803e3d6000fd5b505050506040513d601f19601f8201168201806040525081019061047d919061151e565b6001600160a01b031663ebea461d6040518163ffffffff1660e01b8152600401608060405180830381865afa1580156104ba573d6000803e3d6000fd5b505050506040513d601f19601f820116820180604052508101906104de919061153b565b50925050508181036105245760018290556040518281527f611c2e4a78552f908fb0eb2cc503efc1f947cde8574277ab3b0f10fdd510258b906020015b60405180910390a15b5050565b60065460000361054a5760405162461bcd60e51b81526004016103ad90611451565b60025460065461055a91906114b3565b42116105785760405162461bcd60e51b81526004016103ad906114cc565b6005805460009182905560068290556040805163ee35f32760e01b815290519192916001600160a01b037f0000000000000000000000000000000000000000000000000000000000000000169163ee35f3279160048083019260209291908290030181865afa1580156105ef573d6000803e3d6000fd5b505050506040513d601f19601f82011682018060405250810190610613919061151e565b6001600160a01b031663ebea461d6040518163ffffffff1660e01b8152600401608060405180830381865afa158015610650573d6000803e3d6000fd5b505050506040513d601f19601f82011682018060405250810190610674919061153b565b93505050508181036105245760028290556040518281527fa36c22774e909c9fbb1635e8fb6d13dfb82e0bfd536fc98e7e5697c62b04b2719060200161051b565b33600090815260208190526040902054811061070b5760405162461bcd60e51b815260206004820152601560248201527424b739bab33334b1b4b2b73a103130b630b731b29760591b60448201526064016103ad565b336000908152602081905260408120805483929061072a908490611571565b9091555050604051339082156108fc029083906000818181858888f1505050505050565b336001600160a01b037f000000000000000000000000000000000000000000000000000000000000000016146107d15760405162461bcd60e51b815260206004820152602260248201527f4e6f742066726f6d206e617469766520476e6f73697320414d42206272696467604482015261329760f11b60648201526084016103ad565b7f00000000000000000000000000000000000000000000000000000000000000006001600160a01b0316639e307dff6040518163ffffffff1660e01b8152600401602060405180830381865afa15801561082f573d6000803e3d6000fd5b505050506040513d601f19601f820116820180604052508101906108539190611584565b7f0000000000000000000000000000000000000000000000000000000000000000146108b55760405162461bcd60e51b815260206004820152601160248201527024b73b30b634b21031b430b4b71034b21760791b60448201526064016103ad565b7f00000000000000000000000000000000000000000000000000000000000000006001600160a01b031663d67bdd256040518163ffffffff1660e01b8152600401602060405180830381865afa158015610913573d6000803e3d6000fd5b505050506040513d601f19601f82011682018060405250810190610937919061151e565b6001600160a01b03167f00000000000000000000000000000000000000000000000000000000000000006001600160a01b0316146109a95760405162461bcd60e51b815260206004820152600f60248201526e2b32b09024b73137bc1037b7363c9760891b60448201526064016103ad565b60006109b5828461159d565b6109bf90866114b3565b33600090815260208190526040902054909150818110156109f25760405162461bcd60e51b81526004016103ad906115b4565b6109fc8282611571565b33600090815260208190526040808220929092559051602481018b9052604481018a905260640160408051601f198184030181529181526020820180516001600160e01b0316631195d6f560e31b1790525163e76f5c8d60e01b8152600481018a90529091506000906001600160a01b037f0000000000000000000000000000000000000000000000000000000000000000169063e76f5c8d906024016020604051808303816000875af1158015610ab8573d6000803e3d6000fd5b505050506040513d601f19601f82011682018060405250810190610adc919061151e565b6001600160a01b031663679b6ded857f000000000000000000000000000000000000000000000000000000000000000060008c8c60008d8d8b6040518a63ffffffff1660e01b8152600401610b389897969594939291906115eb565b60206040518083038185885af1158015610b56573d6000803e3d6000fd5b50505050506040513d601f19601f82011682018060405250810190610b7b9190611584565b90508a7fcafd272887d09c9615b3354aa56a477e3ba7b4095d0b6201235c2bfabe2294c582604051610baf91815260200190565b60405180910390a25050505050505050505050565b60007f00000000000000000000000000000000000000000000000000000000000000006001600160a01b031663ee35f3276040518163ffffffff1660e01b8152600401602060405180830381865afa158015610c24573d6000803e3d6000fd5b505050506040513d601f19601f82011682018060405250810190610c48919061151e565b6001600160a01b031663ebea461d6040518163ffffffff1660e01b8152600401608060405180830381865afa158015610c85573d6000803e3d6000fd5b505050506040513d601f19601f82011682018060405250810190610ca9919061153b565b5092505050600154811115610cf45760018190556040518181527f611c2e4a78552f908fb0eb2cc503efc1f947cde8574277ab3b0f10fdd510258b906020015b60405180910390a150565b600154811015610d6c5760045415610d1e5760405162461bcd60e51b81526004016103ad90611683565b604080518082018252828152426020918201819052600384905560045590518281527fa552b382e128c9d0732f01f09502c18999aec5dce0ed78c5af0ea2274ce9bd7d910160405180910390a15b50565b60007f00000000000000000000000000000000000000000000000000000000000000006001600160a01b031663ee35f3276040518163ffffffff1660e01b8152600401602060405180830381865afa158015610dcf573d6000803e3d6000fd5b505050506040513d601f19601f82011682018060405250810190610df3919061151e565b6001600160a01b031663ebea461d6040518163ffffffff1660e01b8152600401608060405180830381865afa158015610e30573d6000803e3d6000fd5b505050506040513d601f19601f82011682018060405250810190610e54919061153b565b9350505050600254811115610e985760028190556040518181527fa36c22774e909c9fbb1635e8fb6d13dfb82e0bfd536fc98e7e5697c62b04b27190602001610ce9565b600254811015610d6c5760065415610ec25760405162461bcd60e51b81526004016103ad90611683565b604080518082018252828152426020918201819052600584905560065590518281527f326636d2e3d2c0d42c0fb6fd9f30ab0fcde3dff35e63db28f8abc38d566057f49101610ce9565b6000610f18828461159d565b610f2290866114b3565b3360009081526020819052604090205490915081811015610f555760405162461bcd60e51b81526004016103ad906115b4565b610f5f8282611571565b3360009081526020819052604080822092909255600254915160248101929092524260448301529060640160408051601f198184030181529181526020820180516001600160e01b031663710cc9a760e01b1790525163e76f5c8d60e01b8152600481018a90529091506000906001600160a01b037f0000000000000000000000000000000000000000000000000000000000000000169063e76f5c8d906024016020604051808303816000875af115801561101f573d6000803e3d6000fd5b505050506040513d601f19601f82011682018060405250810190611043919061151e565b6001600160a01b031663679b6ded857f000000000000000000000000000000000000000000000000000000000000000060008c8c60008d8d8b6040518a63ffffffff1660e01b815260040161109f9897969594939291906115eb565b60206040518083038185885af11580156110bd573d6000803e3d6000fd5b50505050506040513d601f19601f820116820180604052508101906110e29190611584565b90507f0bb0de69fc6722b8061f8161f450a46b49fd536c11535aab912024d630d505cf8160405161111591815260200190565b60405180910390a1505050505050505050565b6000611134828461159d565b61113e90866114b3565b33600090815260208190526040902054909150818110156111715760405162461bcd60e51b81526004016103ad906115b4565b61117b8282611571565b3360009081526020819052604080822092909255600154915160248101929092524260448301529060640160408051601f198184030181529181526020820180516001600160e01b0316632c19251960e01b1790525163e76f5c8d60e01b8152600481018a90529091506000906001600160a01b037f0000000000000000000000000000000000000000000000000000000000000000169063e76f5c8d906024016020604051808303816000875af115801561123b573d6000803e3d6000fd5b505050506040513d601f19601f8201168201806040525081019061125f919061151e565b6001600160a01b031663679b6ded857f000000000000000000000000000000000000000000000000000000000000000060008c8c60008d8d8b6040518a63ffffffff1660e01b81526004016112bb9897969594939291906115eb565b60206040518083038185885af11580156112d9573d6000803e3d6000fd5b50505050506040513d601f19601f820116820180604052508101906112fe9190611584565b90507fe68d5d0ca95adf855ddd4733abf1d205e40aaef86e1c7795f4002791d5e28a388160405161111591815260200190565b33600090815260208190526040812080543492906113509084906114b3565b9091555050565b60006020828403121561136957600080fd5b5035919050565b6001600160a01b0381168114610d6c57600080fd5b600080600080600080600060e0888a0312156113a057600080fd5b8735965060208801359550604088013594506060880135935060808801356113c781611370565b9699959850939692959460a0840135945060c09093013592915050565b6000602082840312156113f657600080fd5b813561140181611370565b9392505050565b600080600080600060a0868803121561142057600080fd5b8535945060208601359350604086013561143981611370565b94979396509394606081013594506080013592915050565b6020808252602c908201527f4e6f2070656e64696e672073657175656e636572206c696d697420646563726560408201526b30b9b2903932b8bab2b9ba1760a11b606082015260800190565b634e487b7160e01b600052601160045260246000fd5b808201808211156114c6576114c661149d565b92915050565b60208082526032908201527f53657175656e636572206c696d697420646563726561736520726571756573746040820152711034b99039ba34b636103832b73234b7339760711b606082015260800190565b60006020828403121561153057600080fd5b815161140181611370565b6000806000806080858703121561155157600080fd5b505082516020840151604085015160609095015191969095509092509050565b818103818111156114c6576114c661149d565b60006020828403121561159657600080fd5b5051919050565b80820281158282048414176114c6576114c661149d565b6020808252601c908201527f496e73756666696369656e74204c32206761732062616c616e63652e00000000604082015260600190565b600061010060018060a01b03808c16845260208b818601528a6040860152818a16606086015281891660808601528760a08601528660c08601528260e0860152855191508183860152600092505b8183101561165857858301810151858401610120015291820191611639565b506101209150600082828601015281601f19601f830116850101925050509998505050505050505050565b60208082526031908201527f53657175656e636572206c696d697420646563726561736520726571756573746040820152701030b63932b0b23c903832b73234b7339760791b60608201526080019056fea26469706673582212206d347ab6da12947fbbaaedb3059a0725b4bd0933fadda0023baef951f2c4a69464736f6c63430008120033",
  "devdoc": {
    "details": "Router from Gnosis Chain to Arbitrum. Note: This contract is deployed on Ethereum.",
    "events": {
      "Routed(uint256,uint256)": {
        "details": "Event emitted when a message is relayed to another Safe Bridge.",
        "params": {
          "_epoch": "The epoch of the batch requested to send.",
          "_ticketID": "The unique identifier provided by the underlying canonical bridge."
        }
      },
      "sequencerDelayLimitDecreaseRequested(uint256)": {
        "details": "This event indicates that a request to decrease the sequencer delay limit has been made.",
        "params": {
          "_requestedSequencerDelayLimit": "The new sequencer limit requested."
        }
      },
      "sequencerDelayLimitSent(uint256)": {
        "details": "This event indicates a cross-chain message was sent to inform the veaOutbox of the sequencer delay limit value",
        "params": {
          "_ticketID": "The ticketID from the delayed inbox of the cross-chain message."
        }
      },
      "sequencerDelayLimitUpdated(uint256)": {
        "details": "This event indicates the sequencer delay limit updated.",
        "params": {
          "_newSequencerDelayLimit": "The new sequencer delay limit."
        }
      },
      "sequencerFutureLimitDecreaseRequested(uint256)": {
        "details": "This event indicates that a request to decrease the sequencer future limit has been made.",
        "params": {
          "_requestedSequencerFutureLimit": "The new sequencer limit requested."
        }
      },
      "sequencerFutureLimitSent(uint256)": {
        "details": "This event indicates a cross-chain message was sent to inform the veaOutbox of the sequencer future limit value",
        "params": {
          "_ticketID": "The ticketID from the delayed inbox of the cross-chain message."
        }
      },
      "sequencerFutureLimitUpdated(uint256)": {
        "details": "This event indicates the sequencer future limit updated.",
        "params": {
          "_newSequencerFutureLimit": "The new sequencer future limit."
        }
      }
    },
    "kind": "dev",
    "methods": {
      "constructor": {
        "details": "Constructor.",
        "params": {
          "_amb": "The address of the AMB contract on Ethereum.",
          "_bridge": "The address of the arbitrum bridge contract on Ethereum.",
          "_inboxChainId": "The chain ID of the inbox chain.",
          "_veaInboxArbToGnosis": "The vea inbox on Arbitrum.",
          "_veaOutboxArbToGnosis": "The vea outbox on Gnosis Chain."
        }
      },
      "executeSequencerDelayLimitDecreaseRequest()": {
        "details": "execute sequencerDelayLimitDecreaseRequest"
      },
      "executeSequencerFutureLimitDecreaseRequest()": {
        "details": "execute sequencerFutureLimitDecreaseRequest"
      },
      "route(uint256,bytes32,uint256,uint256,address,uint256,uint256)": {
        "details": "Resolves any challenge of the optimistic claim for '_epoch'.",
        "params": {
          "_epoch": "The epoch to verify.",
          "_excessFeeRefundAddress": "Address to refund any excess fee to.",
          "_gasLimit": "Max gas deducted from user's L2 balance to cover L2 execution. Should not be set to 1 (magic value used to trigger the RetryableData error).",
          "_inboxIndex": "The index of the inbox in the Arbitrum bridge contract.",
          "_maxFeePerGas": "price bid for L2 execution. Should not be set to 1 (magic value used to trigger the RetryableData error).",
          "_maxSubmissionCost": "Max gas deducted from user's L2 balance to cover base submission fee.",
          "_stateroot": "The true state root for the epoch."
        }
      },
      "sendSequencerDelayLimit(uint256,uint256,address,uint256,uint256)": {
        "details": "Send the sequencer delay limit through the delayed inbox."
      },
      "sendSequencerFutureLimit(uint256,uint256,address,uint256,uint256)": {
        "details": "Send the sequencer future limit through the delayed inbox."
      },
      "updateSequencerDelayLimit()": {
        "details": "Update the sequencerDelayLimit. If decreasing, a delayed request is created for later execution."
      },
      "updateSequencerFutureLimit()": {
        "details": "Update the sequencerFutureLimit. If decreasing, a delayed request is created for later execution."
      }
    },
    "version": 1
  },
  "userdoc": {
    "kind": "user",
    "methods": {
      "route(uint256,bytes32,uint256,uint256,address,uint256,uint256)": {
        "notice": "Note: Access restricted to arbitrum canonical bridge."
      }
    },
    "version": 1
  },
  "storageLayout": {
    "storage": [
      {
        "astId": 7480,
        "contract": "src/gnosisToArbitrum/RouterGnosisToArb.sol:RouterGnosisToArb",
        "label": "L2GasBalance",
        "offset": 0,
        "slot": "0",
        "type": "t_mapping(t_address,t_uint256)"
      },
      {
        "astId": 7482,
        "contract": "src/gnosisToArbitrum/RouterGnosisToArb.sol:RouterGnosisToArb",
        "label": "sequencerDelayLimit",
        "offset": 0,
        "slot": "1",
        "type": "t_uint256"
      },
      {
        "astId": 7484,
        "contract": "src/gnosisToArbitrum/RouterGnosisToArb.sol:RouterGnosisToArb",
        "label": "sequencerFutureLimit",
        "offset": 0,
        "slot": "2",
        "type": "t_uint256"
      },
      {
        "astId": 7487,
        "contract": "src/gnosisToArbitrum/RouterGnosisToArb.sol:RouterGnosisToArb",
        "label": "sequencerDelayLimitDecreaseRequest",
        "offset": 0,
        "slot": "3",
        "type": "t_struct(SequencerLimitDecreaseRequest)7495_storage"
      },
      {
        "astId": 7490,
        "contract": "src/gnosisToArbitrum/RouterGnosisToArb.sol:RouterGnosisToArb",
        "label": "sequencerFutureLimitDecreaseRequest",
        "offset": 0,
        "slot": "5",
        "type": "t_struct(SequencerLimitDecreaseRequest)7495_storage"
      }
    ],
    "types": {
      "t_address": {
        "encoding": "inplace",
        "label": "address",
        "numberOfBytes": "20"
      },
      "t_mapping(t_address,t_uint256)": {
        "encoding": "mapping",
        "key": "t_address",
        "label": "mapping(address => uint256)",
        "numberOfBytes": "32",
        "value": "t_uint256"
      },
      "t_struct(SequencerLimitDecreaseRequest)7495_storage": {
        "encoding": "inplace",
        "label": "struct RouterGnosisToArb.SequencerLimitDecreaseRequest",
        "members": [
          {
            "astId": 7492,
            "contract": "src/gnosisToArbitrum/RouterGnosisToArb.sol:RouterGnosisToArb",
            "label": "requestedSequencerLimit",
            "offset": 0,
            "slot": "0",
            "type": "t_uint256"
          },
          {
            "astId": 7494,
            "contract": "src/gnosisToArbitrum/RouterGnosisToArb.sol:RouterGnosisToArb",
            "label": "timestamp",
            "offset": 0,
            "slot": "1",
            "type": "t_uint256"
          }
        ],
        "numberOfBytes": "64"
      },
      "t_uint256": {
        "encoding": "inplace",
        "label": "uint256",
        "numberOfBytes": "32"
      }
    }
  }
}