{
  "address": "0xA649Ba96A0D57F684188245Cd5b65E58cf02F6b2",
  "abi": [
    {
      "inputs": [
        {
          "internalType": "contract IBridge",
          "name": "_bridge",
          "type": "address"
        },
        {
          "internalType": "contract IAMB",
          "name": "_amb",
          "type": "address"
        },
        {
          "internalType": "address",
          "name": "_veaInboxArbToGnosis",
          "type": "address"
        },
        {
          "internalType": "address",
          "name": "_veaOutboxArbToGnosis",
          "type": "address"
        }
      ],
      "stateMutability": "nonpayable",
      "type": "constructor"
    },
    {
      "anonymous": false,
      "inputs": [
        {
          "indexed": true,
          "internalType": "uint256",
          "name": "epoch",
          "type": "uint256"
        },
        {
          "indexed": false,
          "internalType": "bytes32",
          "name": "ticketID",
          "type": "bytes32"
        }
      ],
      "name": "Routed",
      "type": "event"
    },
    {
      "inputs": [],
      "name": "amb",
      "outputs": [
        {
          "internalType": "contract IAMB",
          "name": "",
          "type": "address"
        }
      ],
      "stateMutability": "view",
      "type": "function"
    },
    {
      "inputs": [],
      "name": "bridge",
      "outputs": [
        {
          "internalType": "contract IBridge",
          "name": "",
          "type": "address"
        }
      ],
      "stateMutability": "view",
      "type": "function"
    },
    {
      "inputs": [
        {
          "internalType": "uint256",
          "name": "epoch",
          "type": "uint256"
        },
        {
          "internalType": "bytes32",
          "name": "stateroot",
          "type": "bytes32"
        },
        {
          "components": [
            {
              "internalType": "bytes32",
              "name": "stateRoot",
              "type": "bytes32"
            },
            {
              "internalType": "address",
              "name": "claimer",
              "type": "address"
            },
            {
              "internalType": "uint32",
              "name": "timestamp",
              "type": "uint32"
            },
            {
              "internalType": "uint32",
              "name": "blocknumber",
              "type": "uint32"
            },
            {
              "internalType": "enum Party",
              "name": "honest",
              "type": "uint8"
            },
            {
              "internalType": "address",
              "name": "challenger",
              "type": "address"
            }
          ],
          "internalType": "struct Claim",
          "name": "claim",
          "type": "tuple"
        }
      ],
      "name": "route",
      "outputs": [],
      "stateMutability": "nonpayable",
      "type": "function"
    },
    {
      "inputs": [],
      "name": "veaInboxArbToGnosis",
      "outputs": [
        {
          "internalType": "address",
          "name": "",
          "type": "address"
        }
      ],
      "stateMutability": "view",
      "type": "function"
    },
    {
      "inputs": [],
      "name": "veaOutboxArbToGnosis",
      "outputs": [
        {
          "internalType": "address",
          "name": "",
          "type": "address"
        }
      ],
      "stateMutability": "view",
      "type": "function"
    }
  ],
  "transactionHash": "0x5cdb680e61974a045c3f1956292e065ab26038b6800ba7cab483bc03a084523f",
  "args": [
    "0xC1Ebd02f738644983b6C4B2d440b8e77DdE276Bd",
    "0x99Ca51a3534785ED619f46A79C7Ad65Fa8d85e7a",
    "0x9C7c2D9276E6C543960943C82f12Ff952B937F46",
    "0x169838Ae4272b68B702b36CeEF5f36a4B7B18A3F"
  ],
  "numDeployments": 8,
  "solcInputHash": "c969dbb068abf4957098c008212d1a0e",
  "bytecode": "0x61010060405234801561001157600080fd5b5060405161079a38038061079a8339810160408190526100309161006a565b6001600160a01b0393841660805291831660a052821660c0521660e0526100c9565b6001600160a01b038116811461006757600080fd5b50565b6000806000806080858703121561008057600080fd5b845161008b81610052565b602086015190945061009c81610052565b60408601519093506100ad81610052565b60608601519092506100be81610052565b939692955090935050565b60805160a05160c05160e0516106786101226000396000818160a4015261037601526000818160cb015261019b0152600081816061015261034d0152600081816101070152818161013401526101c501526106786000f3fe608060405234801561001057600080fd5b50600436106100575760003560e01c80631062b39a1461005c5780632fa70aa71461009f5780638c5f173f146100c6578063b9457b07146100ed578063e78cea9214610102575b600080fd5b6100837f000000000000000000000000000000000000000000000000000000000000000081565b6040516001600160a01b03909116815260200160405180910390f35b6100837f000000000000000000000000000000000000000000000000000000000000000081565b6100837f000000000000000000000000000000000000000000000000000000000000000081565b6101006100fb366004610487565b610129565b005b6100837f000000000000000000000000000000000000000000000000000000000000000081565b336001600160a01b037f000000000000000000000000000000000000000000000000000000000000000016146101995760405162461bcd60e51b815260206004820152601060248201526f2737ba10333937b690313934b233b29760811b60448201526064015b60405180910390fd5b7f00000000000000000000000000000000000000000000000000000000000000006001600160a01b03167f00000000000000000000000000000000000000000000000000000000000000006001600160a01b031663ab5d89436040518163ffffffff1660e01b8152600401602060405180830381865afa158015610221573d6000803e3d6000fd5b505050506040513d601f19601f8201168201806040525081019061024591906104e1565b6001600160a01b03166380648b026040518163ffffffff1660e01b8152600401602060405180830381865afa158015610282573d6000803e3d6000fd5b505050506040513d601f19601f820116820180604052508101906102a691906104e1565b6001600160a01b0316146102ed5760405162461bcd60e51b815260206004820152600e60248201526d3b32b0a4b73137bc1037b7363c9760911b6044820152606401610190565b600083838360405160240161030493929190610529565b60408051601f19818403018152918152602080830180516001600160e01b0316631ee9e40360e21b179052815163e5789d0360e01b815291519293506000926001600160a01b037f0000000000000000000000000000000000000000000000000000000000000000169263dc8601b3927f0000000000000000000000000000000000000000000000000000000000000000928792869263e5789d03926004808401938290030181865afa1580156103bf573d6000803e3d6000fd5b505050506040513d601f19601f820116820180604052508101906103e391906105c4565b6040518463ffffffff1660e01b8152600401610401939291906105dd565b6020604051808303816000875af1158015610420573d6000803e3d6000fd5b505050506040513d601f19601f8201168201806040525081019061044491906105c4565b9050847f888a9bef5168f83425ebe9503cb6d29081cf58d52c60126f8a85a22c9d9935548260405161047891815260200190565b60405180910390a25050505050565b600080600083850361010081121561049e57600080fd5b843593506020850135925060c0603f19820112156104bb57600080fd5b506040840190509250925092565b6001600160a01b03811681146104de57600080fd5b50565b6000602082840312156104f357600080fd5b81516104fe816104c9565b9392505050565b8035610510816104c9565b919050565b803563ffffffff8116811461051057600080fd5b83815260208082018490528235604083015261010082019083013561054d816104c9565b6001600160a01b0316606083015261056760408401610515565b63ffffffff80821660808501528061058160608701610515565b1660a0850152505060808301356003811061059b57600080fd5b60c08301526105ac60a08401610505565b6001600160a01b03811660e084015250949350505050565b6000602082840312156105d657600080fd5b5051919050565b60018060a01b038416815260006020606081840152845180606085015260005b81811015610619578681018301518582016080015282016105fd565b506000608082860101526080601f19601f8301168501019250505082604083015294935050505056fea26469706673582212200fde807ac8231b686485ffb9e7c9b0b05c5e3bb753c6642a6c3a25bc6cfbffb864736f6c63430008120033",
  "devdoc": {
    "events": {
      "Routed(uint256,bytes32)": {
        "details": "Event emitted when a message is relayed to another Safe Bridge.",
        "params": {
          "epoch": "The epoch of the batch requested to send.",
          "ticketID": "The unique identifier provided by the underlying canonical bridge."
        }
      }
    },
    "kind": "dev",
    "methods": {
      "constructor": {
        "details": "Constructor.",
        "params": {
          "_amb": "The address of the AMB contract on Ethereum.",
          "_bridge": "The address of the arbitrum bridge contract on Ethereum.",
          "_veaInboxArbToGnosis": "The vea inbox on Arbitrum.",
          "_veaOutboxArbToGnosis": "The vea outbox on Gnosis Chain."
        }
      },
      "route(uint256,bytes32,(bytes32,address,uint32,uint32,uint8,address))": {
        "details": "Resolves any challenge of the optimistic claim for '_epoch'.",
        "params": {
          "epoch": "The epoch to verify.",
          "stateroot": "The true batch merkle root for the epoch."
        }
      }
    },
    "version": 1
  },
  "userdoc": {
    "kind": "user",
    "methods": {
      "route(uint256,bytes32,(bytes32,address,uint32,uint32,uint8,address))": {
        "notice": "Note: Access restricted to arbitrum canonical bridge."
      }
    },
    "notice": "Router on Ethereum from Arbitrum to Gnosis Chain.",
    "version": 1
  },
  "storageLayout": {
    "storage": [],
    "types": null
  }
}