{
  "address": "0x696567a5F0A6DD4aAe1dBa6ddB4c977aB5B07CAC",
  "abi": [
    {
      "inputs": [
        {
          "internalType": "contract IBridge",
          "name": "_bridge",
          "type": "address"
        },
        {
          "internalType": "contract IAMB",
          "name": "_amb",
          "type": "address"
        },
        {
          "internalType": "address",
          "name": "_veaInboxArbToGnosis",
          "type": "address"
        },
        {
          "internalType": "address",
          "name": "_veaOutboxArbToGnosis",
          "type": "address"
        }
      ],
      "stateMutability": "nonpayable",
      "type": "constructor"
    },
    {
      "anonymous": false,
      "inputs": [
        {
          "indexed": true,
          "internalType": "uint256",
          "name": "_epoch",
          "type": "uint256"
        },
        {
          "indexed": false,
          "internalType": "bytes32",
          "name": "_ticketID",
          "type": "bytes32"
        }
      ],
      "name": "Routed",
      "type": "event"
    },
    {
      "anonymous": false,
      "inputs": [
        {
          "indexed": false,
          "internalType": "uint256",
          "name": "_requestedsequencerDelayLimit",
          "type": "uint256"
        }
      ],
      "name": "sequencerDelayLimitDecreaseRequested",
      "type": "event"
    },
    {
      "anonymous": false,
      "inputs": [
        {
          "indexed": false,
          "internalType": "bytes32",
          "name": "_ticketID",
          "type": "bytes32"
        }
      ],
      "name": "sequencerDelayLimitSent",
      "type": "event"
    },
    {
      "anonymous": false,
      "inputs": [
        {
          "indexed": false,
          "internalType": "uint256",
          "name": "_newsequencerDelayLimit",
          "type": "uint256"
        }
      ],
      "name": "sequencerDelayLimitUpdated",
      "type": "event"
    },
    {
      "inputs": [],
      "name": "amb",
      "outputs": [
        {
          "internalType": "contract IAMB",
          "name": "",
          "type": "address"
        }
      ],
      "stateMutability": "view",
      "type": "function"
    },
    {
      "inputs": [],
      "name": "bridge",
      "outputs": [
        {
          "internalType": "contract IBridge",
          "name": "",
          "type": "address"
        }
      ],
      "stateMutability": "view",
      "type": "function"
    },
    {
      "inputs": [],
      "name": "executesequencerDelayLimitDecreaseRequest",
      "outputs": [],
      "stateMutability": "nonpayable",
      "type": "function"
    },
    {
      "inputs": [
        {
          "internalType": "uint256",
          "name": "_epoch",
          "type": "uint256"
        },
        {
          "internalType": "bytes32",
          "name": "_stateroot",
          "type": "bytes32"
        },
        {
          "components": [
            {
              "internalType": "bytes32",
              "name": "stateRoot",
              "type": "bytes32"
            },
            {
              "internalType": "address",
              "name": "claimer",
              "type": "address"
            },
            {
              "internalType": "uint32",
              "name": "timestampClaimed",
              "type": "uint32"
            },
            {
              "internalType": "uint32",
              "name": "timestampVerification",
              "type": "uint32"
            },
            {
              "internalType": "uint32",
              "name": "blocknumberVerification",
              "type": "uint32"
            },
            {
              "internalType": "enum Party",
              "name": "honest",
              "type": "uint8"
            },
            {
              "internalType": "address",
              "name": "challenger",
              "type": "address"
            }
          ],
          "internalType": "struct Claim",
          "name": "_claim",
          "type": "tuple"
        }
      ],
      "name": "route",
      "outputs": [],
      "stateMutability": "nonpayable",
      "type": "function"
    },
    {
      "inputs": [],
      "name": "sendSequencerDelayLimit",
      "outputs": [],
      "stateMutability": "nonpayable",
      "type": "function"
    },
    {
      "inputs": [],
      "name": "sequencerDelayLimit",
      "outputs": [
        {
          "internalType": "uint256",
          "name": "",
          "type": "uint256"
        }
      ],
      "stateMutability": "view",
      "type": "function"
    },
    {
      "inputs": [],
      "name": "sequencerDelayLimitDecreaseRequest",
      "outputs": [
        {
          "internalType": "uint256",
          "name": "requestedsequencerDelayLimit",
          "type": "uint256"
        },
        {
          "internalType": "uint256",
          "name": "timestamp",
          "type": "uint256"
        }
      ],
      "stateMutability": "view",
      "type": "function"
    },
    {
      "inputs": [],
      "name": "updatesequencerDelayLimit",
      "outputs": [],
      "stateMutability": "nonpayable",
      "type": "function"
    },
    {
      "inputs": [],
      "name": "veaInboxArbToGnosis",
      "outputs": [
        {
          "internalType": "address",
          "name": "",
          "type": "address"
        }
      ],
      "stateMutability": "view",
      "type": "function"
    },
    {
      "inputs": [],
      "name": "veaOutboxArbToGnosis",
      "outputs": [
        {
          "internalType": "address",
          "name": "",
          "type": "address"
        }
      ],
      "stateMutability": "view",
      "type": "function"
    }
  ],
  "transactionHash": "0xb59090074f39a2e01aa2764da827b1bfbdc7b77c769a9df5128b4f1d011b29bb",
  "args": [
    "0xaf4159A80B6Cc41ED517DB1c453d1Ef5C2e4dB72",
    "0x99Ca51a3534785ED619f46A79C7Ad65Fa8d85e7a",
    "0xEC337Fb9977848D0784dC4F01A69c237691755E0",
    "0x00f0A751C921B937208e49a92fAaeaF896733544"
  ],
  "numDeployments": 12,
  "solcInputHash": "cf76e8aad7d9ce9f21e3b6b1180c6852",
  "bytecode": "0x6101006040523480156200001257600080fd5b5060405162000fe538038062000fe5833981016040819052620000359162000147565b6001600160a01b03808516608081905284821660a05283821660c05290821660e0526040805163ee35f32760e01b8152905163ee35f327916004808201926020929091908290030181865afa15801562000093573d6000803e3d6000fd5b505050506040513d601f19601f82011682018060405250810190620000b99190620001af565b6001600160a01b031663ebea461d6040518163ffffffff1660e01b8152600401608060405180830381865afa158015620000f7573d6000803e3d6000fd5b505050506040513d601f19601f820116820180604052508101906200011d9190620001d6565b50600055506200020d945050505050565b6001600160a01b03811681146200014457600080fd5b50565b600080600080608085870312156200015e57600080fd5b84516200016b816200012e565b60208601519094506200017e816200012e565b604086015190935062000191816200012e565b6060860151909250620001a4816200012e565b939692955090935050565b600060208284031215620001c257600080fd5b8151620001cf816200012e565b9392505050565b60008060008060808587031215620001ed57600080fd5b505082516020840151604085015160609095015191969095509092509050565b60805160a05160c05160e051610d60620002856000396000818161010f0152818161044601526109bc01526000818161013601526107e101526000818160d00152818161041d0152610993015260008181610177015281816101c70152818161065f0152818161077f015261080b0152610d606000f3fe608060405234801561001057600080fd5b506004361061009e5760003560e01c8063a41a2faa11610066578063a41a2faa14610162578063cb9384681461016a578063e78cea9214610172578063e813a75514610199578063f6ee5b76146101b057600080fd5b8063051d1970146100a35780631062b39a146100cb5780632fa70aa71461010a5780638c5f173f1461013157806390784ae814610158575b600080fd5b6001546002546100b1919082565b604080519283526020830191909152015b60405180910390f35b6100f27f000000000000000000000000000000000000000000000000000000000000000081565b6040516001600160a01b0390911681526020016100c2565b6100f27f000000000000000000000000000000000000000000000000000000000000000081565b6100f27f000000000000000000000000000000000000000000000000000000000000000081565b6101606101c3565b005b6101606103bc565b610160610553565b6100f27f000000000000000000000000000000000000000000000000000000000000000081565b6101a260005481565b6040519081526020016100c2565b6101606101be366004610acd565b610774565b60007f00000000000000000000000000000000000000000000000000000000000000006001600160a01b031663ee35f3276040518163ffffffff1660e01b8152600401602060405180830381865afa158015610223573d6000803e3d6000fd5b505050506040513d601f19601f820116820180604052508101906102479190610b24565b6001600160a01b031663ebea461d6040518163ffffffff1660e01b8152600401608060405180830381865afa158015610284573d6000803e3d6000fd5b505050506040513d601f19601f820116820180604052508101906102a89190610b48565b50925050506000548111156102f25760008190556040518181527f611c2e4a78552f908fb0eb2cc503efc1f947cde8574277ab3b0f10fdd510258b9060200160405180910390a150565b6000548110156103b9576002541561036b5760405162461bcd60e51b815260206004820152603160248201527f53657175656e636572206c696d697420646563726561736520726571756573746044820152701030b63932b0b23c903832b73234b7339760791b60648201526084015b60405180910390fd5b604080518082018252828152426020918201819052600184905560025590518281527fa552b382e128c9d0732f01f09502c18999aec5dce0ed78c5af0ea2274ce9bd7d910160405180910390a15b50565b60008054604051602481019190915242604482015260640160408051601f19818403018152918152602080830180516001600160e01b0316632c19251960e01b179052815163e5789d0360e01b815291519293506000926001600160a01b037f0000000000000000000000000000000000000000000000000000000000000000169263dc8601b3927f0000000000000000000000000000000000000000000000000000000000000000928792869263e5789d03926004808401938290030181865afa15801561048f573d6000803e3d6000fd5b505050506040513d601f19601f820116820180604052508101906104b39190610b7e565b6040518463ffffffff1660e01b81526004016104d193929190610b97565b6020604051808303816000875af11580156104f0573d6000803e3d6000fd5b505050506040513d601f19601f820116820180604052508101906105149190610b7e565b90507fb38aa59aca3a7ad85f6c314d96b54cae25fc75a92e95994a90c63ae93c63d6878160405161054791815260200190565b60405180910390a15050565b6002546000036105ba5760405162461bcd60e51b815260206004820152602c60248201527f4e6f2070656e64696e672073657175656e636572206c696d697420646563726560448201526b30b9b2903932b8bab2b9ba1760a11b6064820152608401610362565b6000546002546105ca9190610bfc565b42116106335760405162461bcd60e51b815260206004820152603260248201527f53657175656e636572206c696d697420646563726561736520726571756573746044820152711034b99039ba34b636103832b73234b7339760711b6064820152608401610362565b6001805460009182905560028290556040805163ee35f32760e01b815290519192916001600160a01b037f0000000000000000000000000000000000000000000000000000000000000000169163ee35f3279160048083019260209291908290030181865afa1580156106aa573d6000803e3d6000fd5b505050506040513d601f19601f820116820180604052508101906106ce9190610b24565b6001600160a01b031663ebea461d6040518163ffffffff1660e01b8152600401608060405180830381865afa15801561070b573d6000803e3d6000fd5b505050506040513d601f19601f8201168201806040525081019061072f9190610b48565b50925050508181036107705760008290556040518281527f611c2e4a78552f908fb0eb2cc503efc1f947cde8574277ab3b0f10fdd510258b90602001610547565b5050565b336001600160a01b037f000000000000000000000000000000000000000000000000000000000000000016146107df5760405162461bcd60e51b815260206004820152601060248201526f2737ba10333937b690313934b233b29760811b6044820152606401610362565b7f00000000000000000000000000000000000000000000000000000000000000006001600160a01b03167f00000000000000000000000000000000000000000000000000000000000000006001600160a01b031663ab5d89436040518163ffffffff1660e01b8152600401602060405180830381865afa158015610867573d6000803e3d6000fd5b505050506040513d601f19601f8201168201806040525081019061088b9190610b24565b6001600160a01b03166380648b026040518163ffffffff1660e01b8152600401602060405180830381865afa1580156108c8573d6000803e3d6000fd5b505050506040513d601f19601f820116820180604052508101906108ec9190610b24565b6001600160a01b0316146109335760405162461bcd60e51b815260206004820152600e60248201526d3b32b0a4b73137bc1037b7363c9760911b6044820152606401610362565b600083838360405160240161094a93929190610c78565b60408051601f19818403018152918152602080830180516001600160e01b0316630f0adca560e01b179052815163e5789d0360e01b815291519293506000926001600160a01b037f0000000000000000000000000000000000000000000000000000000000000000169263dc8601b3927f0000000000000000000000000000000000000000000000000000000000000000928792869263e5789d03926004808401938290030181865afa158015610a05573d6000803e3d6000fd5b505050506040513d601f19601f82011682018060405250810190610a299190610b7e565b6040518463ffffffff1660e01b8152600401610a4793929190610b97565b6020604051808303816000875af1158015610a66573d6000803e3d6000fd5b505050506040513d601f19601f82011682018060405250810190610a8a9190610b7e565b9050847f888a9bef5168f83425ebe9503cb6d29081cf58d52c60126f8a85a22c9d99355482604051610abe91815260200190565b60405180910390a25050505050565b6000806000838503610120811215610ae457600080fd5b843593506020850135925060e0603f1982011215610b0157600080fd5b506040840190509250925092565b6001600160a01b03811681146103b957600080fd5b600060208284031215610b3657600080fd5b8151610b4181610b0f565b9392505050565b60008060008060808587031215610b5e57600080fd5b505082516020840151604085015160609095015191969095509092509050565b600060208284031215610b9057600080fd5b5051919050565b60018060a01b038416815260006020606081840152845180606085015260005b81811015610bd357868101830151858201608001528201610bb7565b506000608082860101526080601f19601f83011685010192505050826040830152949350505050565b80820180821115610c1d57634e487b7160e01b600052601160045260246000fd5b92915050565b8035610c2e81610b0f565b919050565b803563ffffffff81168114610c2e57600080fd5b803560038110610c2e57600080fd5b60038110610c7457634e487b7160e01b600052602160045260246000fd5b9052565b838152602080820184905282356040830152610120820190830135610c9c81610b0f565b6001600160a01b03166060830152610cb660408401610c33565b63ffffffff808216608085015280610cd060608701610c33565b1660a085015280610ce360808701610c33565b1660c08501525050610cf760a08401610c47565b610d0460e0840182610c56565b50610d1160c08401610c23565b6001600160a01b0381166101008401525094935050505056fea26469706673582212207cb55b40610a180f18a841525380bad6ae05812ccbd20da0962c409dcb5df76264736f6c63430008120033",
  "devdoc": {
    "details": "Router from Arbitrum to Gnosis Chain. Note: This contract is deployed on Ethereum.",
    "events": {
      "Routed(uint256,bytes32)": {
        "details": "Event emitted when a message is relayed to another Safe Bridge.",
        "params": {
          "_epoch": "The epoch of the batch requested to send.",
          "_ticketID": "The unique identifier provided by the underlying canonical bridge."
        }
      },
      "sequencerDelayLimitDecreaseRequested(uint256)": {
        "details": "This event indicates that a request to decrease the sequencer limit has been made.",
        "params": {
          "_requestedsequencerDelayLimit": "The new sequencer limit requested."
        }
      },
      "sequencerDelayLimitSent(bytes32)": {
        "details": "This event indicates a cross-chain message was sent to inform the veaOutbox of the sequencer limit value",
        "params": {
          "_ticketID": "The ticketID from the AMB of the cross-chain message."
        }
      },
      "sequencerDelayLimitUpdated(uint256)": {
        "details": "This event indicates the sequencer limit updated.",
        "params": {
          "_newsequencerDelayLimit": "The new maxL2StateSyncDelay."
        }
      }
    },
    "kind": "dev",
    "methods": {
      "constructor": {
        "details": "Constructor.",
        "params": {
          "_amb": "The address of the AMB contract on Ethereum.",
          "_bridge": "The address of the arbitrum bridge contract on Ethereum.",
          "_veaInboxArbToGnosis": "The vea inbox on Arbitrum.",
          "_veaOutboxArbToGnosis": "The vea outbox on Gnosis Chain."
        }
      },
      "executesequencerDelayLimitDecreaseRequest()": {
        "details": "execute sequencerDelayLimitDecreaseRequest"
      },
      "route(uint256,bytes32,(bytes32,address,uint32,uint32,uint32,uint8,address))": {
        "details": "Resolves any challenge of the optimistic claim for '_epoch'.",
        "params": {
          "_claim": "The claim associated with the epoch.",
          "_epoch": "The epoch to verify.",
          "_stateroot": "The true batch merkle root for the epoch."
        }
      },
      "sendSequencerDelayLimit()": {
        "details": "Calculate the maxL2StateSyncDelay by reading from the Arbitrum Bridge"
      },
      "updatesequencerDelayLimit()": {
        "details": "Update the sequencerDelayLimit. If decreasing, a delayed request is created for later execution."
      }
    },
    "version": 1
  },
  "userdoc": {
    "kind": "user",
    "methods": {
      "route(uint256,bytes32,(bytes32,address,uint32,uint32,uint32,uint8,address))": {
        "notice": "Note: Access restricted to arbitrum canonical bridge."
      }
    },
    "version": 1
  },
  "storageLayout": {
    "storage": [
      {
        "astId": 1436,
        "contract": "src/arbitrumToGnosis/RouterArbToGnosis.sol:RouterArbToGnosis",
        "label": "sequencerDelayLimit",
        "offset": 0,
        "slot": "0",
        "type": "t_uint256"
      },
      {
        "astId": 1439,
        "contract": "src/arbitrumToGnosis/RouterArbToGnosis.sol:RouterArbToGnosis",
        "label": "sequencerDelayLimitDecreaseRequest",
        "offset": 0,
        "slot": "1",
        "type": "t_struct(SequencerDelayLimitDecreaseRequest)1444_storage"
      }
    ],
    "types": {
      "t_struct(SequencerDelayLimitDecreaseRequest)1444_storage": {
        "encoding": "inplace",
        "label": "struct RouterArbToGnosis.SequencerDelayLimitDecreaseRequest",
        "members": [
          {
            "astId": 1441,
            "contract": "src/arbitrumToGnosis/RouterArbToGnosis.sol:RouterArbToGnosis",
            "label": "requestedsequencerDelayLimit",
            "offset": 0,
            "slot": "0",
            "type": "t_uint256"
          },
          {
            "astId": 1443,
            "contract": "src/arbitrumToGnosis/RouterArbToGnosis.sol:RouterArbToGnosis",
            "label": "timestamp",
            "offset": 0,
            "slot": "1",
            "type": "t_uint256"
          }
        ],
        "numberOfBytes": "64"
      },
      "t_uint256": {
        "encoding": "inplace",
        "label": "uint256",
        "numberOfBytes": "32"
      }
    }
  }
}