{
  "address": "0xB32A65B4b0b18d231BA88c3E37F7f600683baD6D",
  "abi": [
    {
      "inputs": [
        {
          "internalType": "uint256",
          "name": "_deposit",
          "type": "uint256"
        },
        {
          "internalType": "uint256",
          "name": "_epochPeriod",
          "type": "uint256"
        },
        {
          "internalType": "uint256",
          "name": "_challengePeriod",
          "type": "uint256"
        },
        {
          "internalType": "uint256",
          "name": "_timeoutEpochs",
          "type": "uint256"
        },
        {
          "internalType": "address",
          "name": "_veaInboxArbToEthDevnet",
          "type": "address"
        },
        {
          "internalType": "address",
          "name": "_bridge",
          "type": "address"
        },
        {
          "internalType": "uint256",
          "name": "_maxMissingBlocks",
          "type": "uint256"
        }
      ],
      "stateMutability": "nonpayable",
      "type": "constructor"
    },
    {
      "anonymous": false,
      "inputs": [
        {
          "indexed": false,
          "internalType": "uint256",
          "name": "_epoch",
          "type": "uint256"
        },
        {
          "indexed": true,
          "internalType": "address",
          "name": "_challenger",
          "type": "address"
        }
      ],
      "name": "Challenged",
      "type": "event"
    },
    {
      "anonymous": false,
      "inputs": [
        {
          "indexed": true,
          "internalType": "address",
          "name": "_claimer",
          "type": "address"
        },
        {
          "indexed": false,
          "internalType": "bytes32",
          "name": "_stateRoot",
          "type": "bytes32"
        }
      ],
      "name": "Claimed",
      "type": "event"
    },
    {
      "anonymous": false,
      "inputs": [
        {
          "indexed": false,
          "internalType": "uint64",
          "name": "_msgId",
          "type": "uint64"
        }
      ],
      "name": "MessageRelayed",
      "type": "event"
    },
    {
      "anonymous": false,
      "inputs": [
        {
          "indexed": false,
          "internalType": "uint256",
          "name": "_requestedSequencerLimit",
          "type": "uint256"
        }
      ],
      "name": "SequencerLimitDecreaseRequested",
      "type": "event"
    },
    {
      "anonymous": false,
      "inputs": [
        {
          "indexed": false,
          "internalType": "uint256",
          "name": "_newSequencerLimit",
          "type": "uint256"
        }
      ],
      "name": "SequencerLimitUpdated",
      "type": "event"
    },
    {
      "anonymous": false,
      "inputs": [
        {
          "indexed": false,
          "internalType": "uint256",
          "name": "_epoch",
          "type": "uint256"
        }
      ],
      "name": "VerificationStarted",
      "type": "event"
    },
    {
      "anonymous": false,
      "inputs": [
        {
          "indexed": false,
          "internalType": "uint256",
          "name": "_epoch",
          "type": "uint256"
        }
      ],
      "name": "Verified",
      "type": "event"
    },
    {
      "inputs": [],
      "name": "bridge",
      "outputs": [
        {
          "internalType": "contract IBridge",
          "name": "",
          "type": "address"
        }
      ],
      "stateMutability": "view",
      "type": "function"
    },
    {
      "inputs": [
        {
          "components": [
            {
              "internalType": "bytes32",
              "name": "stateRoot",
              "type": "bytes32"
            },
            {
              "internalType": "address",
              "name": "claimer",
              "type": "address"
            },
            {
              "internalType": "uint32",
              "name": "timestampClaimed",
              "type": "uint32"
            },
            {
              "internalType": "uint32",
              "name": "timestampVerification",
              "type": "uint32"
            },
            {
              "internalType": "uint32",
              "name": "blocknumberVerification",
              "type": "uint32"
            },
            {
              "internalType": "enum Party",
              "name": "honest",
              "type": "uint8"
            },
            {
              "internalType": "address",
              "name": "challenger",
              "type": "address"
            }
          ],
          "internalType": "struct Claim",
          "name": "_claim",
          "type": "tuple"
        }
      ],
      "name": "censorshipTestStatus",
      "outputs": [
        {
          "internalType": "enum VeaOutboxArbToEth.CensorshipTestStatus",
          "name": "status",
          "type": "uint8"
        }
      ],
      "stateMutability": "view",
      "type": "function"
    },
    {
      "inputs": [
        {
          "internalType": "uint256",
          "name": "_epoch",
          "type": "uint256"
        },
        {
          "components": [
            {
              "internalType": "bytes32",
              "name": "stateRoot",
              "type": "bytes32"
            },
            {
              "internalType": "address",
              "name": "claimer",
              "type": "address"
            },
            {
              "internalType": "uint32",
              "name": "timestampClaimed",
              "type": "uint32"
            },
            {
              "internalType": "uint32",
              "name": "timestampVerification",
              "type": "uint32"
            },
            {
              "internalType": "uint32",
              "name": "blocknumberVerification",
              "type": "uint32"
            },
            {
              "internalType": "enum Party",
              "name": "honest",
              "type": "uint8"
            },
            {
              "internalType": "address",
              "name": "challenger",
              "type": "address"
            }
          ],
          "internalType": "struct Claim",
          "name": "_claim",
          "type": "tuple"
        }
      ],
      "name": "challenge",
      "outputs": [],
      "stateMutability": "payable",
      "type": "function"
    },
    {
      "inputs": [
        {
          "internalType": "address",
          "name": "_devnetOperator",
          "type": "address"
        }
      ],
      "name": "changeDevnetOperator",
      "outputs": [],
      "stateMutability": "nonpayable",
      "type": "function"
    },
    {
      "inputs": [
        {
          "internalType": "uint256",
          "name": "_epoch",
          "type": "uint256"
        },
        {
          "internalType": "bytes32",
          "name": "_stateRoot",
          "type": "bytes32"
        }
      ],
      "name": "claim",
      "outputs": [],
      "stateMutability": "payable",
      "type": "function"
    },
    {
      "inputs": [
        {
          "internalType": "uint256",
          "name": "",
          "type": "uint256"
        }
      ],
      "name": "claimHashes",
      "outputs": [
        {
          "internalType": "bytes32",
          "name": "",
          "type": "bytes32"
        }
      ],
      "stateMutability": "view",
      "type": "function"
    },
    {
      "inputs": [],
      "name": "deposit",
      "outputs": [
        {
          "internalType": "uint256",
          "name": "",
          "type": "uint256"
        }
      ],
      "stateMutability": "view",
      "type": "function"
    },
    {
      "inputs": [
        {
          "internalType": "uint256",
          "name": "_epoch",
          "type": "uint256"
        },
        {
          "internalType": "bytes32",
          "name": "_stateroot",
          "type": "bytes32"
        }
      ],
      "name": "devnetAdvanceState",
      "outputs": [],
      "stateMutability": "payable",
      "type": "function"
    },
    {
      "inputs": [],
      "name": "devnetOperator",
      "outputs": [
        {
          "internalType": "address",
          "name": "",
          "type": "address"
        }
      ],
      "stateMutability": "view",
      "type": "function"
    },
    {
      "inputs": [
        {
          "internalType": "uint256",
          "name": "timestamp",
          "type": "uint256"
        }
      ],
      "name": "epochAt",
      "outputs": [
        {
          "internalType": "uint256",
          "name": "epoch",
          "type": "uint256"
        }
      ],
      "stateMutability": "view",
      "type": "function"
    },
    {
      "inputs": [],
      "name": "epochNow",
      "outputs": [
        {
          "internalType": "uint256",
          "name": "epoch",
          "type": "uint256"
        }
      ],
      "stateMutability": "view",
      "type": "function"
    },
    {
      "inputs": [],
      "name": "epochPeriod",
      "outputs": [
        {
          "internalType": "uint256",
          "name": "",
          "type": "uint256"
        }
      ],
      "stateMutability": "view",
      "type": "function"
    },
    {
      "inputs": [],
      "name": "executeSequencerLimitDecreaseRequest",
      "outputs": [],
      "stateMutability": "nonpayable",
      "type": "function"
    },
    {
      "inputs": [
        {
          "components": [
            {
              "internalType": "bytes32",
              "name": "stateRoot",
              "type": "bytes32"
            },
            {
              "internalType": "address",
              "name": "claimer",
              "type": "address"
            },
            {
              "internalType": "uint32",
              "name": "timestampClaimed",
              "type": "uint32"
            },
            {
              "internalType": "uint32",
              "name": "timestampVerification",
              "type": "uint32"
            },
            {
              "internalType": "uint32",
              "name": "blocknumberVerification",
              "type": "uint32"
            },
            {
              "internalType": "enum Party",
              "name": "honest",
              "type": "uint8"
            },
            {
              "internalType": "address",
              "name": "challenger",
              "type": "address"
            }
          ],
          "internalType": "struct Claim",
          "name": "_claim",
          "type": "tuple"
        }
      ],
      "name": "hashClaim",
      "outputs": [
        {
          "internalType": "bytes32",
          "name": "hashedClaim",
          "type": "bytes32"
        }
      ],
      "stateMutability": "pure",
      "type": "function"
    },
    {
      "inputs": [],
      "name": "latestVerifiedEpoch",
      "outputs": [
        {
          "internalType": "uint256",
          "name": "",
          "type": "uint256"
        }
      ],
      "stateMutability": "view",
      "type": "function"
    },
    {
      "inputs": [],
      "name": "maxMissingBlocks",
      "outputs": [
        {
          "internalType": "uint256",
          "name": "",
          "type": "uint256"
        }
      ],
      "stateMutability": "view",
      "type": "function"
    },
    {
      "inputs": [],
      "name": "minChallengePeriod",
      "outputs": [
        {
          "internalType": "uint256",
          "name": "",
          "type": "uint256"
        }
      ],
      "stateMutability": "view",
      "type": "function"
    },
    {
      "inputs": [
        {
          "internalType": "uint256",
          "name": "",
          "type": "uint256"
        }
      ],
      "name": "relayed",
      "outputs": [
        {
          "internalType": "bytes32",
          "name": "",
          "type": "bytes32"
        }
      ],
      "stateMutability": "view",
      "type": "function"
    },
    {
      "inputs": [
        {
          "internalType": "uint256",
          "name": "_epoch",
          "type": "uint256"
        },
        {
          "internalType": "bytes32",
          "name": "_stateRoot",
          "type": "bytes32"
        },
        {
          "components": [
            {
              "internalType": "bytes32",
              "name": "stateRoot",
              "type": "bytes32"
            },
            {
              "internalType": "address",
              "name": "claimer",
              "type": "address"
            },
            {
              "internalType": "uint32",
              "name": "timestampClaimed",
              "type": "uint32"
            },
            {
              "internalType": "uint32",
              "name": "timestampVerification",
              "type": "uint32"
            },
            {
              "internalType": "uint32",
              "name": "blocknumberVerification",
              "type": "uint32"
            },
            {
              "internalType": "enum Party",
              "name": "honest",
              "type": "uint8"
            },
            {
              "internalType": "address",
              "name": "challenger",
              "type": "address"
            }
          ],
          "internalType": "struct Claim",
          "name": "_claim",
          "type": "tuple"
        }
      ],
      "name": "resolveDisputedClaim",
      "outputs": [],
      "stateMutability": "nonpayable",
      "type": "function"
    },
    {
      "inputs": [
        {
          "internalType": "bytes32[]",
          "name": "_proof",
          "type": "bytes32[]"
        },
        {
          "internalType": "uint64",
          "name": "_msgId",
          "type": "uint64"
        },
        {
          "internalType": "address",
          "name": "_to",
          "type": "address"
        },
        {
          "internalType": "bytes",
          "name": "_message",
          "type": "bytes"
        }
      ],
      "name": "sendMessage",
      "outputs": [],
      "stateMutability": "nonpayable",
      "type": "function"
    },
    {
      "inputs": [],
      "name": "sequencerLimit",
      "outputs": [
        {
          "internalType": "uint256",
          "name": "",
          "type": "uint256"
        }
      ],
      "stateMutability": "view",
      "type": "function"
    },
    {
      "inputs": [],
      "name": "sequencerLimitDecreaseRequest",
      "outputs": [
        {
          "internalType": "uint256",
          "name": "requestedSequencerLimit",
          "type": "uint256"
        },
        {
          "internalType": "uint256",
          "name": "timestamp",
          "type": "uint256"
        }
      ],
      "stateMutability": "view",
      "type": "function"
    },
    {
      "inputs": [
        {
          "internalType": "uint256",
          "name": "_epoch",
          "type": "uint256"
        },
        {
          "components": [
            {
              "internalType": "bytes32",
              "name": "stateRoot",
              "type": "bytes32"
            },
            {
              "internalType": "address",
              "name": "claimer",
              "type": "address"
            },
            {
              "internalType": "uint32",
              "name": "timestampClaimed",
              "type": "uint32"
            },
            {
              "internalType": "uint32",
              "name": "timestampVerification",
              "type": "uint32"
            },
            {
              "internalType": "uint32",
              "name": "blocknumberVerification",
              "type": "uint32"
            },
            {
              "internalType": "enum Party",
              "name": "honest",
              "type": "uint8"
            },
            {
              "internalType": "address",
              "name": "challenger",
              "type": "address"
            }
          ],
          "internalType": "struct Claim",
          "name": "_claim",
          "type": "tuple"
        }
      ],
      "name": "startVerification",
      "outputs": [],
      "stateMutability": "nonpayable",
      "type": "function"
    },
    {
      "inputs": [],
      "name": "stateRoot",
      "outputs": [
        {
          "internalType": "bytes32",
          "name": "",
          "type": "bytes32"
        }
      ],
      "stateMutability": "view",
      "type": "function"
    },
    {
      "inputs": [],
      "name": "timeoutEpochs",
      "outputs": [
        {
          "internalType": "uint256",
          "name": "",
          "type": "uint256"
        }
      ],
      "stateMutability": "view",
      "type": "function"
    },
    {
      "inputs": [],
      "name": "updateSequencerLimit",
      "outputs": [],
      "stateMutability": "nonpayable",
      "type": "function"
    },
    {
      "inputs": [],
      "name": "veaInboxArbToEth",
      "outputs": [
        {
          "internalType": "address",
          "name": "",
          "type": "address"
        }
      ],
      "stateMutability": "view",
      "type": "function"
    },
    {
      "inputs": [
        {
          "internalType": "uint256",
          "name": "_epoch",
          "type": "uint256"
        },
        {
          "components": [
            {
              "internalType": "bytes32",
              "name": "stateRoot",
              "type": "bytes32"
            },
            {
              "internalType": "address",
              "name": "claimer",
              "type": "address"
            },
            {
              "internalType": "uint32",
              "name": "timestampClaimed",
              "type": "uint32"
            },
            {
              "internalType": "uint32",
              "name": "timestampVerification",
              "type": "uint32"
            },
            {
              "internalType": "uint32",
              "name": "blocknumberVerification",
              "type": "uint32"
            },
            {
              "internalType": "enum Party",
              "name": "honest",
              "type": "uint8"
            },
            {
              "internalType": "address",
              "name": "challenger",
              "type": "address"
            }
          ],
          "internalType": "struct Claim",
          "name": "_claim",
          "type": "tuple"
        }
      ],
      "name": "verifySnapshot",
      "outputs": [],
      "stateMutability": "nonpayable",
      "type": "function"
    },
    {
      "inputs": [
        {
          "internalType": "uint256",
          "name": "_epoch",
          "type": "uint256"
        },
        {
          "components": [
            {
              "internalType": "bytes32",
              "name": "stateRoot",
              "type": "bytes32"
            },
            {
              "internalType": "address",
              "name": "claimer",
              "type": "address"
            },
            {
              "internalType": "uint32",
              "name": "timestampClaimed",
              "type": "uint32"
            },
            {
              "internalType": "uint32",
              "name": "timestampVerification",
              "type": "uint32"
            },
            {
              "internalType": "uint32",
              "name": "blocknumberVerification",
              "type": "uint32"
            },
            {
              "internalType": "enum Party",
              "name": "honest",
              "type": "uint8"
            },
            {
              "internalType": "address",
              "name": "challenger",
              "type": "address"
            }
          ],
          "internalType": "struct Claim",
          "name": "_claim",
          "type": "tuple"
        }
      ],
      "name": "withdrawChallengeDeposit",
      "outputs": [],
      "stateMutability": "nonpayable",
      "type": "function"
    },
    {
      "inputs": [
        {
          "internalType": "uint256",
          "name": "_epoch",
          "type": "uint256"
        },
        {
          "components": [
            {
              "internalType": "bytes32",
              "name": "stateRoot",
              "type": "bytes32"
            },
            {
              "internalType": "address",
              "name": "claimer",
              "type": "address"
            },
            {
              "internalType": "uint32",
              "name": "timestampClaimed",
              "type": "uint32"
            },
            {
              "internalType": "uint32",
              "name": "timestampVerification",
              "type": "uint32"
            },
            {
              "internalType": "uint32",
              "name": "blocknumberVerification",
              "type": "uint32"
            },
            {
              "internalType": "enum Party",
              "name": "honest",
              "type": "uint8"
            },
            {
              "internalType": "address",
              "name": "challenger",
              "type": "address"
            }
          ],
          "internalType": "struct Claim",
          "name": "_claim",
          "type": "tuple"
        }
      ],
      "name": "withdrawChallengerEscapeHatch",
      "outputs": [],
      "stateMutability": "nonpayable",
      "type": "function"
    },
    {
      "inputs": [
        {
          "internalType": "uint256",
          "name": "_epoch",
          "type": "uint256"
        },
        {
          "components": [
            {
              "internalType": "bytes32",
              "name": "stateRoot",
              "type": "bytes32"
            },
            {
              "internalType": "address",
              "name": "claimer",
              "type": "address"
            },
            {
              "internalType": "uint32",
              "name": "timestampClaimed",
              "type": "uint32"
            },
            {
              "internalType": "uint32",
              "name": "timestampVerification",
              "type": "uint32"
            },
            {
              "internalType": "uint32",
              "name": "blocknumberVerification",
              "type": "uint32"
            },
            {
              "internalType": "enum Party",
              "name": "honest",
              "type": "uint8"
            },
            {
              "internalType": "address",
              "name": "challenger",
              "type": "address"
            }
          ],
          "internalType": "struct Claim",
          "name": "_claim",
          "type": "tuple"
        }
      ],
      "name": "withdrawClaimDeposit",
      "outputs": [],
      "stateMutability": "nonpayable",
      "type": "function"
    },
    {
      "inputs": [
        {
          "internalType": "uint256",
          "name": "_epoch",
          "type": "uint256"
        },
        {
          "components": [
            {
              "internalType": "bytes32",
              "name": "stateRoot",
              "type": "bytes32"
            },
            {
              "internalType": "address",
              "name": "claimer",
              "type": "address"
            },
            {
              "internalType": "uint32",
              "name": "timestampClaimed",
              "type": "uint32"
            },
            {
              "internalType": "uint32",
              "name": "timestampVerification",
              "type": "uint32"
            },
            {
              "internalType": "uint32",
              "name": "blocknumberVerification",
              "type": "uint32"
            },
            {
              "internalType": "enum Party",
              "name": "honest",
              "type": "uint8"
            },
            {
              "internalType": "address",
              "name": "challenger",
              "type": "address"
            }
          ],
          "internalType": "struct Claim",
          "name": "_claim",
          "type": "tuple"
        }
      ],
      "name": "withdrawClaimerEscapeHatch",
      "outputs": [],
      "stateMutability": "nonpayable",
      "type": "function"
    }
  ],
  "transactionHash": "0x4d92349ef29cd1ffece5eda752ec94ccaa1a4842ff6beb84f37c55f7faa7acaa",
  "args": [
    "1000000000000000",
    1800,
    0,
    10000000000000,
    "0x3aD2FfA09823de2f98F2f0aBA832a6b83521E2E6",
    "0xaf4159A80B6Cc41ED517DB1c453d1Ef5C2e4dB72",
    10000000000000
  ],
  "numDeployments": 8,
  "solcInputHash": "c9836c6cb024801f3104e49f87086294",
  "bytecode": "0x6101a06040523480156200001257600080fd5b5060405162002a4438038062002a448339810160408190526200003591620002ee565b60c08790526101208690526101408590526101608490526001600160a01b0380841660a05282166080526101808190528686868686868662000076620000ee565b620000836002886200036c565b60e0819052620000958860026200038f565b620000a19190620003af565b6101005261012051600190620000b890426200036c565b620000c49190620003af565b6001555050600780546001600160a01b0319163317905550620004219a5050505050505050505050565b60006080516001600160a01b031663ee35f3276040518163ffffffff1660e01b8152600401602060405180830381865afa15801562000131573d6000803e3d6000fd5b505050506040513d601f19601f82011682018060405250810190620001579190620003c5565b6001600160a01b031663ebea461d6040518163ffffffff1660e01b8152600401608060405180830381865afa15801562000195573d6000803e3d6000fd5b505050506040513d601f19601f82011682018060405250810190620001bb9190620003ea565b5092505050600454811115620002065760048190556040518181527f5235f7b7d7d312ac3bdcf23fddb2cb8a6b24ee5de5e699d3f9f4bb8b893b408c9060200160405180910390a150565b600454811015620002ce5760065415620002805760405162461bcd60e51b815260206004820152603160248201527f53657175656e636572206c696d697420646563726561736520726571756573746044820152701030b63932b0b23c903832b73234b7339760791b606482015260840160405180910390fd5b604080518082018252828152426020918201819052600584905560065590518281527f08b771dddc6449625c7cd99bccdaf915b9c891fb6fa03695a71175b69e376ebb910160405180910390a15b50565b80516001600160a01b0381168114620002e957600080fd5b919050565b600080600080600080600060e0888a0312156200030a57600080fd5b875196506020880151955060408801519450606088015193506200033160808901620002d1565b92506200034160a08901620002d1565b915060c0880151905092959891949750929550565b634e487b7160e01b600052601160045260246000fd5b6000826200038a57634e487b7160e01b600052601260045260246000fd5b500490565b8082028115828204841417620003a957620003a962000356565b92915050565b81810381811115620003a957620003a962000356565b600060208284031215620003d857600080fd5b620003e382620002d1565b9392505050565b600080600080608085870312156200040157600080fd5b505082516020840151604085015160609095015191969095509092509050565b60805160a05160c05160e05161010051610120516101405161016051610180516124f56200054f600039600081816104870152611ea90152600081816104bb015281816108b2015281816116dd015281816118680152611a740152600081816105430152611e3d0152600081816104ef015281816108d601528181610bdf015281816115cb015281816117010152818161188c0152611a9801526000818161135801526114910152600081816113050152611449015260008181610577015281816106b2015281816108390152818161086601528181610e47015281816114e1015281816119d201528181611a390152611bdf01526000818161038201526109c001526000818161063d01528181610951015281816109ea01528181610d150152611c2f01526124f56000f3fe6080604052600436106101e35760003560e01c806390df63b711610102578063c2114a1611610095578063dd5fdeaa11610064578063dd5fdeaa146105e9578063df19e6ff146105fe578063e78cea921461062b578063eedcf2a91461065f57600080fd5b8063c2114a1614610531578063d0e30db014610565578063da2b7bc414610599578063da456a0e146105b957600080fd5b8063aa22a1c6116100d1578063aa22a1c614610475578063b044397e146104a9578063b5b7a184146104dd578063b633b9441461051157600080fd5b806390df63b7146103fc578063930f28af146104295780639588eca2146104495780639c13b6b51461045f57600080fd5b80633ce43cfd1161017a578063541adcca11610149578063541adcca1461035057806369cd250d146103705780638a619a71146103bc5780638ad3a8f7146103dc57600080fd5b80633ce43cfd146102d05780634788cb38146102f057806349b4299e146103105780634a439cfe1461033057600080fd5b80632639c060116101b65780632639c0601461025a57806327ee6bdd1461028757806331d144571461029d57806331ddf743146102b057600080fd5b806301139b68146101e85780630f0adca5146101fd578063222ae7861461021d57806325a2acb114610245575b600080fd5b6101fb6101f6366004612063565b610672565b005b34801561020957600080fd5b506101fb610218366004612091565b6108b0565b34801561022957600080fd5b50610232610bd8565b6040519081526020015b60405180910390f35b34801561025157600080fd5b506101fb610c09565b34801561026657600080fd5b506102326102753660046120c8565b60026020526000908152604090205481565b34801561029357600080fd5b5061023260015481565b6101fb6102ab3660046120e1565b610e2e565b3480156102bc57600080fd5b506101fb6102cb366004612164565b610fae565b3480156102dc57600080fd5b506101fb6102eb366004612226565b61124e565b3480156102fc57600080fd5b506101fb61030b366004612063565b611395565b34801561031c57600080fd5b506101fb61032b366004612063565b611519565b34801561033c57600080fd5b5061023261034b3660046120c8565b6115c4565b34801561035c57600080fd5b5061023261036b36600461225f565b6115f6565b34801561037c57600080fd5b506103a47f000000000000000000000000000000000000000000000000000000000000000081565b6040516001600160a01b03909116815260200161023c565b3480156103c857600080fd5b506101fb6103d7366004612282565b611648565b3480156103e857600080fd5b506007546103a4906001600160a01b031681565b34801561040857600080fd5b506102326104173660046120c8565b60036020526000908152604090205481565b34801561043557600080fd5b506101fb610444366004612063565b6116db565b34801561045557600080fd5b5061023260005481565b34801561046b57600080fd5b5061023260045481565b34801561048157600080fd5b506102327f000000000000000000000000000000000000000000000000000000000000000081565b3480156104b557600080fd5b506102327f000000000000000000000000000000000000000000000000000000000000000081565b3480156104e957600080fd5b506102327f000000000000000000000000000000000000000000000000000000000000000081565b34801561051d57600080fd5b506101fb61052c366004612063565b611866565b34801561053d57600080fd5b506102327f000000000000000000000000000000000000000000000000000000000000000081565b34801561057157600080fd5b506102327f000000000000000000000000000000000000000000000000000000000000000081565b3480156105a557600080fd5b506101fb6105b4366004612063565b611a72565b3480156105c557600080fd5b506005546006546105d4919082565b6040805192835260208301919091520161023c565b3480156105f557600080fd5b506101fb611c2b565b34801561060a57600080fd5b5061061e61061936600461225f565b611e1f565b60405161023c91906122b5565b34801561063757600080fd5b506103a47f000000000000000000000000000000000000000000000000000000000000000081565b6101fb61066d3660046120e1565b611ee6565b61067b816115f6565b600083815260026020526040902054146106b05760405162461bcd60e51b81526004016106a7906122cf565b60405180910390fd5b7f00000000000000000000000000000000000000000000000000000000000000003410156107205760405162461bcd60e51b815260206004820152601f60248201527f496e73756666696369656e74206368616c6c656e6765206465706f7369742e0060448201526064016106a7565b60c08101516001600160a01b03161561077b5760405162461bcd60e51b815260206004820152601960248201527f436c61696d20616c7265616479206368616c6c656e6765642e0000000000000060448201526064016106a7565b60008160a0015160028111156107935761079361229f565b146107e05760405162461bcd60e51b815260206004820152601760248201527f436c61696d20616c72656164792076657269666965642e00000000000000000060448201526064016106a7565b3360c08201526107ef816115f6565b600083815260026020908152604091829020929092555183815233917fcfe09ca25f55d949baba5e280f5750c9ba4b9048fca5532f916067d433afe4d791015b60405180910390a27f00000000000000000000000000000000000000000000000000000000000000003411156108ac57600061088b7f00000000000000000000000000000000000000000000000000000000000000003461230d565b604051909150339082156108fc029083906000818181858888f15050505050505b5050565b7f00000000000000000000000000000000000000000000000000000000000000006001547f0000000000000000000000000000000000000000000000000000000000000000428161090357610903612320565b040311156109465760405162461bcd60e51b815260206004820152601060248201526f213934b233b29029b43aba3237bbb71760811b60448201526064016106a7565b336001600160a01b037f000000000000000000000000000000000000000000000000000000000000000016146109be5760405162461bcd60e51b815260206004820181905260248201527f4e6f742066726f6d206e617469766520617262697472756d206272696467652e60448201526064016106a7565b7f00000000000000000000000000000000000000000000000000000000000000006001600160a01b03167f00000000000000000000000000000000000000000000000000000000000000006001600160a01b031663ab5d89436040518163ffffffff1660e01b8152600401602060405180830381865afa158015610a46573d6000803e3d6000fd5b505050506040513d601f19601f82011682018060405250810190610a6a9190612336565b6001600160a01b03166380648b026040518163ffffffff1660e01b8152600401602060405180830381865afa158015610aa7573d6000803e3d6000fd5b505050506040513d601f19601f82011682018060405250810190610acb9190612336565b6001600160a01b031614610b1a5760405162461bcd60e51b81526020600482015260166024820152753b32b0a4b73137bc20b9312a37a2ba341037b7363c9760511b60448201526064016106a7565b60015483118015610b2a57508115155b15610b6d57600183905560008290556040518381527ff786e7f77ede00a02a5464f8f0555798f42ba99a4a920ef2778db8d75e4656f79060200160405180910390a15b610b76816115f6565b60008481526002602052604090205403610bd3578051829003610b9f57600160a0820152610bba565b60c08101516001600160a01b031615610bba57600260a08201525b610bc3816115f6565b6000848152600260205260409020555b505050565b6000610c047f000000000000000000000000000000000000000000000000000000000000000042612353565b905090565b600654600003610c705760405162461bcd60e51b815260206004820152602c60248201527f4e6f2070656e64696e672073657175656e636572206c696d697420646563726560448201526b30b9b2903932b8bab2b9ba1760a11b60648201526084016106a7565b600454600654610c809190612375565b4211610ce95760405162461bcd60e51b815260206004820152603260248201527f53657175656e636572206c696d697420646563726561736520726571756573746044820152711034b99039ba34b636103832b73234b7339760711b60648201526084016106a7565b6005805460009182905560068290556040805163ee35f32760e01b815290519192916001600160a01b037f0000000000000000000000000000000000000000000000000000000000000000169163ee35f3279160048083019260209291908290030181865afa158015610d60573d6000803e3d6000fd5b505050506040513d601f19601f82011682018060405250810190610d849190612336565b6001600160a01b031663ebea461d6040518163ffffffff1660e01b8152600401608060405180830381865afa158015610dc1573d6000803e3d6000fd5b505050506040513d601f19601f82011682018060405250810190610de59190612388565b50925050508181036108ac5760048290556040518281527f5235f7b7d7d312ac3bdcf23fddb2cb8a6b24ee5de5e699d3f9f4bb8b893b408c906020015b60405180910390a15050565b6007546001600160a01b03163314610e4557600080fd5b7f0000000000000000000000000000000000000000000000000000000000000000341015610eb55760405162461bcd60e51b815260206004820152601b60248201527f496e73756666696369656e7420636c61696d206465706f7369742e000000000060448201526064016106a7565b80610ed25760405162461bcd60e51b81526004016106a7906122cf565b60008281526002602052604090205415610f245760405162461bcd60e51b815260206004820152601360248201527221b630b4b69030b63932b0b23c9036b0b2329760691b60448201526064016106a7565b6040805160e0810182528281523360208201524263ffffffff16918101919091526000606082018190526080820181905260a0820181905260c0820152610f6a906115f6565b600083815260026020908152604091829020929092555182815233917f91d697238e9aa9f3172d17522c9be529b94a892481554e1ea619369b5b12f39a910161082f565b60408510610ff05760405162461bcd60e51b815260206004820152600f60248201526e283937b7b3103a37b7903637b7339760891b60448201526064016106a7565b60008484848460405160200161100994939291906123be565b604051602081830303815290604052805190602001209050806000526020600020905060005b8681101561108957600088888381811061104b5761104b612400565b9050602002013590508281111561107057826000528060205260406000209250611080565b8060005282602052604060002092505b5060010161102f565b5080600054146110cc5760405162461bcd60e51b815260206004820152600e60248201526d24b73b30b634b210383937b7b31760911b60448201526064016106a7565b600885901c66ffffffffffffff1660008181526003602052604090205460ff87169080821c600116156111415760405162461bcd60e51b815260206004820152601760248201527f4d65737361676520616c72656164792072656c6179656400000000000000000060448201526064016106a7565b6000838152600360205260408082206001851b84179055516001600160a01b038916906111719089908990612416565b6000604051808303816000865af19150503d80600081146111ae576040519150601f19603f3d011682016040523d82523d6000602084013e6111b3565b606091505b50509050806112045760405162461bcd60e51b815260206004820152601760248201527f4661696c656420746f2063616c6c20636f6e747261637400000000000000000060448201526064016106a7565b60405167ffffffffffffffff8a1681527f54303fab361bc52c2f1f56ace7351189582264f74ce47a6e7c3f478d64c429439060200160405180910390a15050505050505050505050565b61126061036b3683900383018361225f565b6000838152600260205260409020541461128c5760405162461bcd60e51b81526004016106a7906122cf565b600261129e60c0830160a08401612426565b60028111156112af576112af61229f565b146112f05760405162461bcd60e51b815260206004820152601160248201527021b430b63632b733b2903330b4b632b21760791b60448201526064016106a7565b600082815260026020526040808220829055517f000000000000000000000000000000000000000000000000000000000000000080156108fc029183818181858288f15061134a93505060e0840191505060c08301612282565b6001600160a01b03166108fc7f00000000000000000000000000000000000000000000000000000000000000009081150290604051600060405180830381858888f150505050505050565b61139e816115f6565b600083815260026020526040902054146113ca5760405162461bcd60e51b81526004016106a7906122cf565b60018160a0015160028111156113e2576113e261229f565b1461141f5760405162461bcd60e51b815260206004820152600d60248201526c21b630b4b6903330b4b632b21760991b60448201526064016106a7565b60008281526002602052604081205560c08101516001600160a01b0316156114cb576040516000907f000000000000000000000000000000000000000000000000000000000000000080156108fc029183818181858288f150505060208301516040516001600160a01b0390911692507f000000000000000000000000000000000000000000000000000000000000000080156108fc029250906000818181858888f150505050505050565b60208101516040516001600160a01b03909116907f000000000000000000000000000000000000000000000000000000000000000080156108fc02916000818181858888f150505050505050565b6007546001600160a01b0316331461153057600080fd5b611539816115f6565b600083815260026020526040902054146115655760405162461bcd60e51b81526004016106a7906122cf565b63ffffffff428116606083015243166080820152611582816115f6565b60008381526002602090815260409182902092909255518381527f37b700b61b9b4710dddb0c3316b2be7ef6088ed4b1d7bfe0fb98be8f9a163e169101610e22565b60006115f07f000000000000000000000000000000000000000000000000000000000000000083612353565b92915050565b80516020808301516040808501516060860151608087015160a088015160c0890151945160009861162b989097969101612441565b604051602081830303815290604052805190602001209050919050565b6007546001600160a01b0316331461165f57600080fd5b6007546001600160a01b031633146116b95760405162461bcd60e51b815260206004820152601860248201527f496e76616c696420546573746e6574204f70657261746f72000000000000000060448201526064016106a7565b600780546001600160a01b0319166001600160a01b0392909216919091179055565b7f00000000000000000000000000000000000000000000000000000000000000006001547f0000000000000000000000000000000000000000000000000000000000000000428161172e5761172e612320565b040311156117715760405162461bcd60e51b815260206004820152601060248201526f213934b233b29029b43aba3237bbb71760811b60448201526064016106a7565b61177a816115f6565b600083815260026020526040902054146117a65760405162461bcd60e51b81526004016106a7906122cf565b60c08101516001600160a01b0316156117f85760405162461bcd60e51b815260206004820152601460248201527321b630b4b69034b99031b430b63632b733b2b21760611b60448201526064016106a7565b60015482111561184057600182905580516000556040518281527ff786e7f77ede00a02a5464f8f0555798f42ba99a4a920ef2778db8d75e4656f79060200160405180910390a15b600160a0820152611850816115f6565b6000928352600260205260409092209190915550565b7f00000000000000000000000000000000000000000000000000000000000000006001547f000000000000000000000000000000000000000000000000000000000000000042816118b9576118b9612320565b0403116118fa5760405162461bcd60e51b815260206004820152600f60248201526e213934b233b290293ab73734b7339760891b60448201526064016106a7565b611903816115f6565b6000838152600260205260409020541461192f5760405162461bcd60e51b81526004016106a7906122cf565b60008160a0015160028111156119475761194761229f565b146119865760405162461bcd60e51b815260206004820152600f60248201526e21b630b4b6903932b9b7b63b32b21760891b60448201526064016106a7565b60c08101516001600160a01b0316156108ac5760208101516001600160a01b0316611a0a5760008281526002602052604080822082905560c083015190516001600160a01b03909116917f000000000000000000000000000000000000000000000000000000000000000080156108fc02929091818181858888f150505050505050565b60c0810180516000909152611a1e826115f6565b50600083815260026020526040516001600160a01b038316917f000000000000000000000000000000000000000000000000000000000000000080156108fc02929091818181858888f15050505050505050565b7f00000000000000000000000000000000000000000000000000000000000000006001547f00000000000000000000000000000000000000000000000000000000000000004281611ac557611ac5612320565b040311611b065760405162461bcd60e51b815260206004820152600f60248201526e213934b233b290293ab73734b7339760891b60448201526064016106a7565b611b0f816115f6565b60008381526002602052604090205414611b3b5760405162461bcd60e51b81526004016106a7906122cf565b60008160a001516002811115611b5357611b5361229f565b14611b925760405162461bcd60e51b815260206004820152600f60248201526e21b630b4b6903932b9b7b63b32b21760891b60448201526064016106a7565b60208101516001600160a01b0316156108ac5760c08101516001600160a01b0316611c175760008281526002602090815260408083208390559083015190516001600160a01b03909116917f000000000000000000000000000000000000000000000000000000000000000080156108fc02929091818181858888f150505050505050565b6020810180516000909152611a1e826115f6565b60007f00000000000000000000000000000000000000000000000000000000000000006001600160a01b031663ee35f3276040518163ffffffff1660e01b8152600401602060405180830381865afa158015611c8b573d6000803e3d6000fd5b505050506040513d601f19601f82011682018060405250810190611caf9190612336565b6001600160a01b031663ebea461d6040518163ffffffff1660e01b8152600401608060405180830381865afa158015611cec573d6000803e3d6000fd5b505050506040513d601f19601f82011682018060405250810190611d109190612388565b5092505050600454811115611d5a5760048190556040518181527f5235f7b7d7d312ac3bdcf23fddb2cb8a6b24ee5de5e699d3f9f4bb8b893b408c9060200160405180910390a150565b600454811015611e1c5760065415611dce5760405162461bcd60e51b815260206004820152603160248201527f53657175656e636572206c696d697420646563726561736520726571756573746044820152701030b63932b0b23c903832b73234b7339760791b60648201526084016106a7565b604080518082018252828152426020918201819052600584905560065590518281527f08b771dddc6449625c7cd99bccdaf915b9c891fb6fa03695a71175b69e376ebb910160405180910390a15b50565b6000816060015163ffffffff16600003611e3b57506002919050565b7f0000000000000000000000000000000000000000000000000000000000000000826060015163ffffffff1642031015611e7757506003919050565b6000600c836060015163ffffffff16420381611e9557611e95612320565b608085015163ffffffff16919004019050437f000000000000000000000000000000000000000000000000000000000000000081830311611ed95760019250611ede565b600092505b50505b919050565b611ef08282610e2e565b6040805160e0810182528281523360208201524263ffffffff16918101919091526000606082018190526080820181905260a0820181905260c0820152611f378382611519565b63ffffffff428116606083015243166080820152611f5583826116db565b600160a0820152610bd38382611395565b6001600160a01b0381168114611e1c57600080fd5b8035611ee181611f66565b803563ffffffff81168114611ee157600080fd5b803560038110611ee157600080fd5b600060e08284031215611fbb57600080fd5b60405160e0810181811067ffffffffffffffff82111715611fec57634e487b7160e01b600052604160045260246000fd5b6040528235815290508061200260208401611f7b565b602082015261201360408401611f86565b604082015261202460608401611f86565b606082015261203560808401611f86565b608082015261204660a08401611f9a565b60a082015261205760c08401611f7b565b60c08201525092915050565b600080610100838503121561207757600080fd5b823591506120888460208501611fa9565b90509250929050565b600080600061012084860312156120a757600080fd5b83359250602084013591506120bf8560408601611fa9565b90509250925092565b6000602082840312156120da57600080fd5b5035919050565b600080604083850312156120f457600080fd5b50508035926020909101359150565b803567ffffffffffffffff81168114611ee157600080fd5b60008083601f84011261212d57600080fd5b50813567ffffffffffffffff81111561214557600080fd5b60208301915083602082850101111561215d57600080fd5b9250929050565b6000806000806000806080878903121561217d57600080fd5b863567ffffffffffffffff8082111561219557600080fd5b818901915089601f8301126121a957600080fd5b8135818111156121b857600080fd5b8a60208260051b85010111156121cd57600080fd5b602083019850809750506121e360208a01612103565b95506121f160408a01611f7b565b9450606089013591508082111561220757600080fd5b5061221489828a0161211b565b979a9699509497509295939492505050565b60008082840361010081121561223b57600080fd5b8335925060e0601f198201121561225157600080fd5b506020830190509250929050565b600060e0828403121561227157600080fd5b61227b8383611fa9565b9392505050565b60006020828403121561229457600080fd5b813561227b81611f66565b634e487b7160e01b600052602160045260246000fd5b60208101600483106122c9576122c961229f565b91905290565b6020808252600e908201526d24b73b30b634b21031b630b4b69760911b604082015260600190565b634e487b7160e01b600052601160045260246000fd5b818103818111156115f0576115f06122f7565b634e487b7160e01b600052601260045260246000fd5b60006020828403121561234857600080fd5b815161227b81611f66565b60008261237057634e487b7160e01b600052601260045260246000fd5b500490565b808201808211156115f0576115f06122f7565b6000806000806080858703121561239e57600080fd5b505082516020840151604085015160609095015191969095509092509050565b60c085901b6001600160c01b0319168152606084901b6bffffffffffffffffffffffff191660088201528183601c83013760009101601c019081529392505050565b634e487b7160e01b600052603260045260246000fd5b8183823760009101908152919050565b60006020828403121561243857600080fd5b61227b82611f9a565b87815260006bffffffffffffffffffffffff19808960601b16602084015263ffffffff60e01b808960e01b166034850152808860e01b166038850152808760e01b16603c85015250600385106124995761249961229f565b60f89490941b60408301525060609190911b90911660418201526055019594505050505056fea2646970667358221220deeffe1347d1160c62da9e56119a5cfb5e8e519e5e4f73d5390c93582172c2f464736f6c63430008120033",
  "devdoc": {
    "details": "Vea Outbox From ArbitrumGoerli to Goerli. Note: This contract is deployed on Goerli. Note: This contract is permissioned for developer testing (devnet).",
    "events": {
      "Challenged(uint256,address)": {
        "details": "This event indicates that `sendSnapshot(epoch)` should be called in the inbox.",
        "params": {
          "_challenger": "The address of the challenger.",
          "_epoch": "The epoch associated with the challenged claim."
        }
      },
      "Claimed(address,bytes32)": {
        "details": "Watchers check this event to challenge fraud.",
        "params": {
          "_claimer": "The address of the claimer.",
          "_stateRoot": "The state root of the claim."
        }
      },
      "MessageRelayed(uint64)": {
        "details": "This event indicates that a message has been relayed.",
        "params": {
          "_msgId": "The msgId of the message that was relayed."
        }
      },
      "SequencerLimitDecreaseRequested(uint256)": {
        "details": "This event indicates that a request to decrease the sequencer limit has been made.",
        "params": {
          "_requestedSequencerLimit": "The new sequencer limit requested."
        }
      },
      "SequencerLimitUpdated(uint256)": {
        "details": "This event indicates the sequencer limit updated.",
        "params": {
          "_newSequencerLimit": "The new maxL2StateSyncDelay."
        }
      },
      "VerificationStarted(uint256)": {
        "details": "This event indicates that the censorship test started and all challengers are ready even in the worst case scenario of a malicious sequencer.",
        "params": {
          "_epoch": "The epoch that started verification."
        }
      },
      "Verified(uint256)": {
        "details": "This events indicates that verification has succeeded. The messages are ready to be relayed.",
        "params": {
          "_epoch": "The epoch that was verified."
        }
      }
    },
    "kind": "dev",
    "methods": {
      "censorshipTestStatus((bytes32,address,uint32,uint32,uint32,uint8,address))": {
        "details": "Gets the status of the censorship test for claim.",
        "params": {
          "_claim": "The claim to test."
        },
        "returns": {
          "status": "True if the claim passed the censorship test."
        }
      },
      "challenge(uint256,(bytes32,address,uint32,uint32,uint32,uint8,address))": {
        "details": "Submit a challenge for the claim of the inbox state root snapshot taken at 'epoch'.",
        "params": {
          "_claim": "The claim associated with the epoch.",
          "_epoch": "The epoch of the claim to challenge."
        }
      },
      "changeDevnetOperator(address)": {
        "details": "Changes the devnet operator.",
        "params": {
          "_devnetOperator": "The new testnet operator."
        }
      },
      "claim(uint256,bytes32)": {
        "details": "Submit a claim about the _stateRoot at _epoch and submit a deposit.",
        "params": {
          "_epoch": "The epoch for which the claim is made.",
          "_stateRoot": "The state root to claim."
        }
      },
      "constructor": {
        "details": "Constructor.",
        "params": {
          "_bridge": "The address of the Arbitrum bridge contract on Ethereum.",
          "_challengePeriod": "The duration of the period allowing to challenge a claim.",
          "_deposit": "The deposit amount to submit a claim in wei.",
          "_epochPeriod": "The duration of each epoch.",
          "_maxMissingBlocks": "The maximum number of blocks that can be missing in a challenge period.",
          "_timeoutEpochs": "The epochs before the bridge is considered shutdown.",
          "_veaInboxArbToEthDevnet": "The address of the devnet vea inbox on Arbitrum to Ethereum."
        }
      },
      "devnetAdvanceState(uint256,bytes32)": {
        "details": "Testnet operator utility function to claim, validate and withdraw.",
        "params": {
          "_epoch": "The epoch for which the claim is made.",
          "_stateroot": "The state root to claim."
        }
      },
      "epochAt(uint256)": {
        "details": "Get the current epoch from the outbox's point of view using the Ethereum L1 clock.",
        "returns": {
          "epoch": "The hash of the claim."
        }
      },
      "epochNow()": {
        "details": "Get the current epoch from the outbox's point of view using the Ethereum L1 clock.",
        "returns": {
          "epoch": "The hash of the claim."
        }
      },
      "executeSequencerLimitDecreaseRequest()": {
        "details": "execute SequencerLimitDecreaseRequest"
      },
      "hashClaim((bytes32,address,uint32,uint32,uint32,uint8,address))": {
        "details": "Hashes the claim.",
        "params": {
          "_claim": "The claim to hash."
        },
        "returns": {
          "hashedClaim": "The hash of the claim."
        }
      },
      "resolveDisputedClaim(uint256,bytes32,(bytes32,address,uint32,uint32,uint32,uint8,address))": {
        "details": "Resolves any challenge of the optimistic claim for '_epoch'.",
        "params": {
          "_claim": "The claim associated with the epoch.",
          "_epoch": "The epoch to verify.",
          "_stateRoot": "The true state root for the epoch."
        }
      },
      "sendMessage(bytes32[],uint64,address,bytes)": {
        "details": "Verifies and relays the message. UNTRUSTED.",
        "params": {
          "_message": "The message encoded in the vea inbox as abi.encodeWithSelector(fnSelector, msg.sender, param1, param2, ...)",
          "_msgId": "The zero based index of the message in the inbox.",
          "_proof": "The merkle proof to prove the message inclusion in the inbox state root.",
          "_to": "The address of the contract on Ethereum to call."
        }
      },
      "startVerification(uint256,(bytes32,address,uint32,uint32,uint32,uint8,address))": {
        "details": "Start verification for claim for 'epoch'.",
        "params": {
          "_claim": "The claim associated with the epoch.",
          "_epoch": "The epoch of the claim to challenge."
        }
      },
      "updateSequencerLimit()": {
        "details": "Request to decrease the sequencerLimit."
      },
      "verifySnapshot(uint256,(bytes32,address,uint32,uint32,uint32,uint8,address))": {
        "details": "Resolves the optimistic claim for '_epoch'.",
        "params": {
          "_claim": "The claim associated with the epoch.",
          "_epoch": "The epoch of the optimistic claim."
        }
      },
      "withdrawChallengeDeposit(uint256,(bytes32,address,uint32,uint32,uint32,uint8,address))": {
        "details": "Sends the deposit back to the Challenger if successful. Includes a portion of the Bridger's deposit.",
        "params": {
          "_claim": "The claim associated with the epoch.",
          "_epoch": "The epoch associated with the challenge deposit to withraw."
        }
      },
      "withdrawChallengerEscapeHatch(uint256,(bytes32,address,uint32,uint32,uint32,uint8,address))": {
        "details": "When bridge is shutdown, no claim disputes can be resolved. This allows the challenger to withdraw their deposit.",
        "params": {
          "_claim": "The claim associated with the epoch.",
          "_epoch": "The epoch associated with the claim deposit to withraw."
        }
      },
      "withdrawClaimDeposit(uint256,(bytes32,address,uint32,uint32,uint32,uint8,address))": {
        "details": "Sends the deposit back to the Bridger if their claim is not successfully challenged. Includes a portion of the Challenger's deposit if unsuccessfully challenged.",
        "params": {
          "_claim": "The claim associated with the epoch.",
          "_epoch": "The epoch associated with the claim deposit to withraw."
        }
      },
      "withdrawClaimerEscapeHatch(uint256,(bytes32,address,uint32,uint32,uint32,uint8,address))": {
        "details": "When bridge is shutdown, no claim disputes can be resolved. This allows the claimer to withdraw their deposit.",
        "params": {
          "_claim": "The claim associated with the epoch.",
          "_epoch": "The epoch associated with the claim deposit to withraw."
        }
      }
    },
    "version": 1
  },
  "userdoc": {
    "kind": "user",
    "methods": {
      "resolveDisputedClaim(uint256,bytes32,(bytes32,address,uint32,uint32,uint32,uint8,address))": {
        "notice": "Note: Access restricted to arbitrum  bridge."
      }
    },
    "version": 1
  },
  "storageLayout": {
    "storage": [
      {
        "astId": 437,
        "contract": "src/devnets/arbitrumToEth/VeaOutboxArbToEthDevnet.sol:VeaOutboxArbToEthDevnet",
        "label": "stateRoot",
        "offset": 0,
        "slot": "0",
        "type": "t_bytes32"
      },
      {
        "astId": 439,
        "contract": "src/devnets/arbitrumToEth/VeaOutboxArbToEthDevnet.sol:VeaOutboxArbToEthDevnet",
        "label": "latestVerifiedEpoch",
        "offset": 0,
        "slot": "1",
        "type": "t_uint256"
      },
      {
        "astId": 443,
        "contract": "src/devnets/arbitrumToEth/VeaOutboxArbToEthDevnet.sol:VeaOutboxArbToEthDevnet",
        "label": "claimHashes",
        "offset": 0,
        "slot": "2",
        "type": "t_mapping(t_uint256,t_bytes32)"
      },
      {
        "astId": 447,
        "contract": "src/devnets/arbitrumToEth/VeaOutboxArbToEthDevnet.sol:VeaOutboxArbToEthDevnet",
        "label": "relayed",
        "offset": 0,
        "slot": "3",
        "type": "t_mapping(t_uint256,t_bytes32)"
      },
      {
        "astId": 449,
        "contract": "src/devnets/arbitrumToEth/VeaOutboxArbToEthDevnet.sol:VeaOutboxArbToEthDevnet",
        "label": "sequencerLimit",
        "offset": 0,
        "slot": "4",
        "type": "t_uint256"
      },
      {
        "astId": 452,
        "contract": "src/devnets/arbitrumToEth/VeaOutboxArbToEthDevnet.sol:VeaOutboxArbToEthDevnet",
        "label": "sequencerLimitDecreaseRequest",
        "offset": 0,
        "slot": "5",
        "type": "t_struct(SequencerLimitDecreaseRequest)457_storage"
      },
      {
        "astId": 3974,
        "contract": "src/devnets/arbitrumToEth/VeaOutboxArbToEthDevnet.sol:VeaOutboxArbToEthDevnet",
        "label": "devnetOperator",
        "offset": 0,
        "slot": "7",
        "type": "t_address"
      }
    ],
    "types": {
      "t_address": {
        "encoding": "inplace",
        "label": "address",
        "numberOfBytes": "20"
      },
      "t_bytes32": {
        "encoding": "inplace",
        "label": "bytes32",
        "numberOfBytes": "32"
      },
      "t_mapping(t_uint256,t_bytes32)": {
        "encoding": "mapping",
        "key": "t_uint256",
        "label": "mapping(uint256 => bytes32)",
        "numberOfBytes": "32",
        "value": "t_bytes32"
      },
      "t_struct(SequencerLimitDecreaseRequest)457_storage": {
        "encoding": "inplace",
        "label": "struct VeaOutboxArbToEth.SequencerLimitDecreaseRequest",
        "members": [
          {
            "astId": 454,
            "contract": "src/devnets/arbitrumToEth/VeaOutboxArbToEthDevnet.sol:VeaOutboxArbToEthDevnet",
            "label": "requestedSequencerLimit",
            "offset": 0,
            "slot": "0",
            "type": "t_uint256"
          },
          {
            "astId": 456,
            "contract": "src/devnets/arbitrumToEth/VeaOutboxArbToEthDevnet.sol:VeaOutboxArbToEthDevnet",
            "label": "timestamp",
            "offset": 0,
            "slot": "1",
            "type": "t_uint256"
          }
        ],
        "numberOfBytes": "64"
      },
      "t_uint256": {
        "encoding": "inplace",
        "label": "uint256",
        "numberOfBytes": "32"
      }
    }
  }
}