{
  "address": "0xe453d94553aC781ed21EeDef6be5ceaBBAaD5bd0",
  "abi": [
    {
      "inputs": [
        {
          "internalType": "uint256",
          "name": "_deposit",
          "type": "uint256"
        },
        {
          "internalType": "uint256",
          "name": "_epochPeriod",
          "type": "uint256"
        },
        {
          "internalType": "uint256",
          "name": "_challengePeriod",
          "type": "uint256"
        },
        {
          "internalType": "uint256",
          "name": "_timeoutEpochs",
          "type": "uint256"
        },
        {
          "internalType": "uint256",
          "name": "_claimDelay",
          "type": "uint256"
        },
        {
          "internalType": "address",
          "name": "_veaInbox",
          "type": "address"
        },
        {
          "internalType": "address",
          "name": "_inbox",
          "type": "address"
        },
        {
          "internalType": "uint256",
          "name": "_maxMissingBlocks",
          "type": "uint256"
        }
      ],
      "stateMutability": "nonpayable",
      "type": "constructor"
    },
    {
      "anonymous": false,
      "inputs": [
        {
          "indexed": false,
          "internalType": "uint256",
          "name": "epoch",
          "type": "uint256"
        },
        {
          "indexed": true,
          "internalType": "address",
          "name": "challenger",
          "type": "address"
        }
      ],
      "name": "Challenged",
      "type": "event"
    },
    {
      "anonymous": false,
      "inputs": [
        {
          "indexed": true,
          "internalType": "uint256",
          "name": "epoch",
          "type": "uint256"
        },
        {
          "indexed": true,
          "internalType": "address",
          "name": "claimer",
          "type": "address"
        },
        {
          "indexed": false,
          "internalType": "bytes32",
          "name": "stateRoot",
          "type": "bytes32"
        }
      ],
      "name": "Claimed",
      "type": "event"
    },
    {
      "anonymous": false,
      "inputs": [
        {
          "indexed": false,
          "internalType": "uint64",
          "name": "msgId",
          "type": "uint64"
        }
      ],
      "name": "MessageRelayed",
      "type": "event"
    },
    {
      "anonymous": false,
      "inputs": [
        {
          "indexed": true,
          "internalType": "uint256",
          "name": "epoch",
          "type": "uint256"
        }
      ],
      "name": "Verified",
      "type": "event"
    },
    {
      "inputs": [
        {
          "internalType": "uint256",
          "name": "epoch",
          "type": "uint256"
        },
        {
          "components": [
            {
              "internalType": "bytes32",
              "name": "stateRoot",
              "type": "bytes32"
            },
            {
              "internalType": "address",
              "name": "claimer",
              "type": "address"
            },
            {
              "internalType": "uint32",
              "name": "timestamp",
              "type": "uint32"
            },
            {
              "internalType": "uint32",
              "name": "blocknumber",
              "type": "uint32"
            },
            {
              "internalType": "enum IVeaOutboxArbToEth.Party",
              "name": "honest",
              "type": "uint8"
            },
            {
              "internalType": "address",
              "name": "challenger",
              "type": "address"
            }
          ],
          "internalType": "struct IVeaOutboxArbToEth.Claim",
          "name": "claim",
          "type": "tuple"
        }
      ],
      "name": "challenge",
      "outputs": [],
      "stateMutability": "payable",
      "type": "function"
    },
    {
      "inputs": [],
      "name": "challengePeriod",
      "outputs": [
        {
          "internalType": "uint256",
          "name": "",
          "type": "uint256"
        }
      ],
      "stateMutability": "view",
      "type": "function"
    },
    {
      "inputs": [
        {
          "internalType": "uint256",
          "name": "_epoch",
          "type": "uint256"
        },
        {
          "internalType": "bytes32",
          "name": "_stateRoot",
          "type": "bytes32"
        }
      ],
      "name": "claim",
      "outputs": [],
      "stateMutability": "payable",
      "type": "function"
    },
    {
      "inputs": [],
      "name": "claimDelay",
      "outputs": [
        {
          "internalType": "uint256",
          "name": "",
          "type": "uint256"
        }
      ],
      "stateMutability": "view",
      "type": "function"
    },
    {
      "inputs": [
        {
          "internalType": "uint256",
          "name": "",
          "type": "uint256"
        }
      ],
      "name": "claimHashes",
      "outputs": [
        {
          "internalType": "bytes32",
          "name": "",
          "type": "bytes32"
        }
      ],
      "stateMutability": "view",
      "type": "function"
    },
    {
      "inputs": [],
      "name": "deposit",
      "outputs": [
        {
          "internalType": "uint256",
          "name": "",
          "type": "uint256"
        }
      ],
      "stateMutability": "view",
      "type": "function"
    },
    {
      "inputs": [],
      "name": "epochPeriod",
      "outputs": [
        {
          "internalType": "uint256",
          "name": "",
          "type": "uint256"
        }
      ],
      "stateMutability": "view",
      "type": "function"
    },
    {
      "inputs": [],
      "name": "inbox",
      "outputs": [
        {
          "internalType": "contract IInbox",
          "name": "",
          "type": "address"
        }
      ],
      "stateMutability": "view",
      "type": "function"
    },
    {
      "inputs": [],
      "name": "latestVerifiedEpoch",
      "outputs": [
        {
          "internalType": "uint256",
          "name": "",
          "type": "uint256"
        }
      ],
      "stateMutability": "view",
      "type": "function"
    },
    {
      "inputs": [],
      "name": "maxMissingBlocks",
      "outputs": [
        {
          "internalType": "uint256",
          "name": "",
          "type": "uint256"
        }
      ],
      "stateMutability": "view",
      "type": "function"
    },
    {
      "inputs": [
        {
          "internalType": "uint256",
          "name": "",
          "type": "uint256"
        }
      ],
      "name": "relayed",
      "outputs": [
        {
          "internalType": "bytes32",
          "name": "",
          "type": "bytes32"
        }
      ],
      "stateMutability": "view",
      "type": "function"
    },
    {
      "inputs": [
        {
          "internalType": "uint256",
          "name": "epoch",
          "type": "uint256"
        },
        {
          "internalType": "bytes32",
          "name": "_stateRoot",
          "type": "bytes32"
        },
        {
          "components": [
            {
              "internalType": "bytes32",
              "name": "stateRoot",
              "type": "bytes32"
            },
            {
              "internalType": "address",
              "name": "claimer",
              "type": "address"
            },
            {
              "internalType": "uint32",
              "name": "timestamp",
              "type": "uint32"
            },
            {
              "internalType": "uint32",
              "name": "blocknumber",
              "type": "uint32"
            },
            {
              "internalType": "enum IVeaOutboxArbToEth.Party",
              "name": "honest",
              "type": "uint8"
            },
            {
              "internalType": "address",
              "name": "challenger",
              "type": "address"
            }
          ],
          "internalType": "struct IVeaOutboxArbToEth.Claim",
          "name": "claim",
          "type": "tuple"
        }
      ],
      "name": "resolveDisputedClaim",
      "outputs": [],
      "stateMutability": "nonpayable",
      "type": "function"
    },
    {
      "inputs": [
        {
          "internalType": "bytes32[]",
          "name": "proof",
          "type": "bytes32[]"
        },
        {
          "internalType": "uint64",
          "name": "msgId",
          "type": "uint64"
        },
        {
          "internalType": "address",
          "name": "to",
          "type": "address"
        },
        {
          "internalType": "bytes",
          "name": "message",
          "type": "bytes"
        }
      ],
      "name": "sendMessage",
      "outputs": [],
      "stateMutability": "nonpayable",
      "type": "function"
    },
    {
      "inputs": [],
      "name": "stateRoot",
      "outputs": [
        {
          "internalType": "bytes32",
          "name": "",
          "type": "bytes32"
        }
      ],
      "stateMutability": "view",
      "type": "function"
    },
    {
      "inputs": [],
      "name": "timeoutEpochs",
      "outputs": [
        {
          "internalType": "uint256",
          "name": "",
          "type": "uint256"
        }
      ],
      "stateMutability": "view",
      "type": "function"
    },
    {
      "inputs": [
        {
          "internalType": "uint256",
          "name": "epoch",
          "type": "uint256"
        },
        {
          "components": [
            {
              "internalType": "bytes32",
              "name": "stateRoot",
              "type": "bytes32"
            },
            {
              "internalType": "address",
              "name": "claimer",
              "type": "address"
            },
            {
              "internalType": "uint32",
              "name": "timestamp",
              "type": "uint32"
            },
            {
              "internalType": "uint32",
              "name": "blocknumber",
              "type": "uint32"
            },
            {
              "internalType": "enum IVeaOutboxArbToEth.Party",
              "name": "honest",
              "type": "uint8"
            },
            {
              "internalType": "address",
              "name": "challenger",
              "type": "address"
            }
          ],
          "internalType": "struct IVeaOutboxArbToEth.Claim",
          "name": "claim",
          "type": "tuple"
        }
      ],
      "name": "validateSnapshot",
      "outputs": [],
      "stateMutability": "nonpayable",
      "type": "function"
    },
    {
      "inputs": [],
      "name": "veaInbox",
      "outputs": [
        {
          "internalType": "address",
          "name": "",
          "type": "address"
        }
      ],
      "stateMutability": "view",
      "type": "function"
    },
    {
      "inputs": [
        {
          "internalType": "uint256",
          "name": "epoch",
          "type": "uint256"
        },
        {
          "components": [
            {
              "internalType": "bytes32",
              "name": "stateRoot",
              "type": "bytes32"
            },
            {
              "internalType": "address",
              "name": "claimer",
              "type": "address"
            },
            {
              "internalType": "uint32",
              "name": "timestamp",
              "type": "uint32"
            },
            {
              "internalType": "uint32",
              "name": "blocknumber",
              "type": "uint32"
            },
            {
              "internalType": "enum IVeaOutboxArbToEth.Party",
              "name": "honest",
              "type": "uint8"
            },
            {
              "internalType": "address",
              "name": "challenger",
              "type": "address"
            }
          ],
          "internalType": "struct IVeaOutboxArbToEth.Claim",
          "name": "claim",
          "type": "tuple"
        }
      ],
      "name": "withdrawChallengeDeposit",
      "outputs": [],
      "stateMutability": "nonpayable",
      "type": "function"
    },
    {
      "inputs": [
        {
          "internalType": "uint256",
          "name": "epoch",
          "type": "uint256"
        },
        {
          "components": [
            {
              "internalType": "bytes32",
              "name": "stateRoot",
              "type": "bytes32"
            },
            {
              "internalType": "address",
              "name": "claimer",
              "type": "address"
            },
            {
              "internalType": "uint32",
              "name": "timestamp",
              "type": "uint32"
            },
            {
              "internalType": "uint32",
              "name": "blocknumber",
              "type": "uint32"
            },
            {
              "internalType": "enum IVeaOutboxArbToEth.Party",
              "name": "honest",
              "type": "uint8"
            },
            {
              "internalType": "address",
              "name": "challenger",
              "type": "address"
            }
          ],
          "internalType": "struct IVeaOutboxArbToEth.Claim",
          "name": "claim",
          "type": "tuple"
        }
      ],
      "name": "withdrawClaimDeposit",
      "outputs": [],
      "stateMutability": "nonpayable",
      "type": "function"
    },
    {
      "inputs": [
        {
          "internalType": "uint256",
          "name": "epoch",
          "type": "uint256"
        },
        {
          "components": [
            {
              "internalType": "bytes32",
              "name": "stateRoot",
              "type": "bytes32"
            },
            {
              "internalType": "address",
              "name": "claimer",
              "type": "address"
            },
            {
              "internalType": "uint32",
              "name": "timestamp",
              "type": "uint32"
            },
            {
              "internalType": "uint32",
              "name": "blocknumber",
              "type": "uint32"
            },
            {
              "internalType": "enum IVeaOutboxArbToEth.Party",
              "name": "honest",
              "type": "uint8"
            },
            {
              "internalType": "address",
              "name": "challenger",
              "type": "address"
            }
          ],
          "internalType": "struct IVeaOutboxArbToEth.Claim",
          "name": "claim",
          "type": "tuple"
        }
      ],
      "name": "withdrawEscapeHatch",
      "outputs": [],
      "stateMutability": "nonpayable",
      "type": "function"
    }
  ],
  "transactionHash": "0x6573057a3abf2246f7839ec1d445f38700572d35a2fae30e3577a3086ee84540",
  "args": [
    "10000000000000000",
    3600,
    1800,
    10000000000000,
    0,
    "0x43d0B5445CcA646e1F662F8920826b7e8D3eaF66",
    "0x6BEbC4925716945D46F0Ec336D5C2564F419682C",
    10000000000000
  ],
  "numDeployments": 16,
  "solcInputHash": "92291cf7ba72b848a3704688a6c8e3b6",
  "bytecode": "0x6101c06040523480156200001257600080fd5b5060405162001dbf38038062001dbf83398101604081905262000035916200013f565b60c08890526101208790526101408690526101808590526101608490526001600160a01b0380841660a05282166080526101a081905262000078600289620001c7565b60e08190526200008a896002620001ea565b6200009691906200020c565b6101005261012051600190620000ad9042620001c7565b620000b991906200020c565b60015561016051421015620001145760405162461bcd60e51b815260206004820152601860248201527f496e76616c69642065706f6368436c61696d44656c61792e0000000000000000604482015260640160405180910390fd5b505050505050505062000226565b80516001600160a01b03811681146200013a57600080fd5b919050565b600080600080600080600080610100898b0312156200015d57600080fd5b88519750602089015196506040890151955060608901519450608089015193506200018b60a08a0162000122565b92506200019b60c08a0162000122565b915060e089015190509295985092959890939650565b634e487b7160e01b600052601160045260246000fd5b600082620001e557634e487b7160e01b600052601260045260246000fd5b500490565b6000816000190483118215151615620002075762000207620001b1565b500290565b600082821015620002215762000221620001b1565b500390565b60805160a05160c05160e05161010051610120516101405161016051610180516101a051611a9f62000320600039600081816102f7015261118a01526000818161032b01528181610ae801528181611036015261143e01526000818161018701526106c00152600081816103c701528181610f61015261110201526000818161035f0152818161069f01528181610b0d0152818161105b015261140e0152600061059301526000818161054001526113c7015260008181610393015281816105ee0152818161062e01528181610ef1015261150f0152600081816101360152610c5e01526000818161041b0152610b800152611a9f6000f3fe60806040526004361061011f5760003560e01c8063a53d3c26116100a0578063d0e30db011610064578063d0e30db014610381578063f3f480d9146103b5578063f939bad9146103e9578063fb0e722b14610409578063fd3f976f1461043d57600080fd5b8063a53d3c26146102b2578063a557d918146102c5578063aa22a1c6146102e5578063b044397e14610319578063b5b7a1841461034d57600080fd5b806331d14457116100e757806331d144571461021c57806331ddf7431461022f5780637ba7900c1461024f57806390df63b71461026f5780639588eca21461029c57600080fd5b806302d3e236146101245780631c8ec299146101755780632415855b146101b75780632639c060146101d957806327ee6bdd14610206575b600080fd5b34801561013057600080fd5b506101587f000000000000000000000000000000000000000000000000000000000000000081565b6040516001600160a01b0390911681526020015b60405180910390f35b34801561018157600080fd5b506101a97f000000000000000000000000000000000000000000000000000000000000000081565b60405190815260200161016c565b3480156101c357600080fd5b506101d76101d23660046115c7565b61045d565b005b3480156101e557600080fd5b506101a96101f43660046115ff565b60026020526000908152604090205481565b34801561021257600080fd5b506101a960015481565b6101d761022a366004611618565b61062c565b34801561023b57600080fd5b506101d761024a3660046116c3565b610846565b34801561025b57600080fd5b506101d761026a366004611851565b610ae6565b34801561027b57600080fd5b506101a961028a3660046115ff565b60036020526000908152604090205481565b3480156102a857600080fd5b506101a960005481565b6101d76102c0366004611888565b610e5f565b3480156102d157600080fd5b506101d76102e0366004611888565b611034565b3480156102f157600080fd5b506101a97f000000000000000000000000000000000000000000000000000000000000000081565b34801561032557600080fd5b506101a97f000000000000000000000000000000000000000000000000000000000000000081565b34801561035957600080fd5b506101a97f000000000000000000000000000000000000000000000000000000000000000081565b34801561038d57600080fd5b506101a97f000000000000000000000000000000000000000000000000000000000000000081565b3480156103c157600080fd5b506101a97f000000000000000000000000000000000000000000000000000000000000000081565b3480156103f557600080fd5b506101d76104043660046115c7565b611310565b34801561041557600080fd5b506101587f000000000000000000000000000000000000000000000000000000000000000081565b34801561044957600080fd5b506101d76104583660046115c7565b61140c565b61047461046f368390038301836118b5565b61157a565b600083815260026020526040902054146104a95760405162461bcd60e51b81526004016104a0906118d8565b60405180910390fd5b60016104bb60a0830160808401611916565b60028111156104cc576104cc611900565b146105095760405162461bcd60e51b815260206004820152600d60248201526c21b630b4b6903330b4b632b21760991b60448201526064016104a0565b600082815260026020526040812081905561052a60c0830160a08401611931565b6001600160a01b0316146105d0576040516000907f000000000000000000000000000000000000000000000000000000000000000080156108fc029183818181858288f1506105859350506040840191505060208301611931565b6001600160a01b03166108fc7f00000000000000000000000000000000000000000000000000000000000000009081150290604051600060405180830381858888f150505050505050565b6105e06040820160208301611931565b6001600160a01b03166108fc7f00000000000000000000000000000000000000000000000000000000000000009081150290604051600060405180830381858888f150505050505b5050565b7f000000000000000000000000000000000000000000000000000000000000000034101561069c5760405162461bcd60e51b815260206004820152601b60248201527f496e73756666696369656e7420636c61696d206465706f7369742e000000000060448201526064016104a0565b817f00000000000000000000000000000000000000000000000000000000000000007f00000000000000000000000000000000000000000000000000000000000000004203816106ee576106ee61194e565b041461072d5760405162461bcd60e51b815260206004820152600e60248201526d24b73b30b634b21032b837b1b41760911b60448201526064016104a0565b8061074a5760405162461bcd60e51b81526004016104a0906118d8565b6000828152600260205260409020541561079c5760405162461bcd60e51b815260206004820152601360248201527221b630b4b69030b63932b0b23c9036b0b2329760691b60448201526064016104a0565b6107f96040518060c00160405280838152602001336001600160a01b031681526020014263ffffffff1681526020014363ffffffff168152602001600060028111156107ea576107ea611900565b8152600060209091015261157a565b6000838152600260209081526040918290209290925551828152339184917fbcb8b73e5a89971ee294cc3d2f51a084375b679f88047211b28c5344acb53df5910160405180910390a35050565b604085106108885760405162461bcd60e51b815260206004820152600f60248201526e283937b7b3103a37b7903637b7339760891b60448201526064016104a0565b6000848484846040516020016108a19493929190611964565b604051602081830303815290604052805190602001209050806000526020600020905060005b868110156109215760008888838181106108e3576108e36119a6565b9050602002013590508281111561090857826000528060205260406000209250610918565b8060005282602052604060002092505b506001016108c7565b5080600054146109645760405162461bcd60e51b815260206004820152600e60248201526d24b73b30b634b210383937b7b31760911b60448201526064016104a0565b600885901c66ffffffffffffff1660008181526003602052604090205460ff87169080821c600116156109d95760405162461bcd60e51b815260206004820152601760248201527f4d65737361676520616c72656164792072656c6179656400000000000000000060448201526064016104a0565b6000838152600360205260408082206001851b84179055516001600160a01b03891690610a0990899089906119bc565b6000604051808303816000865af19150503d8060008114610a46576040519150601f19603f3d011682016040523d82523d6000602084013e610a4b565b606091505b5050905080610a9c5760405162461bcd60e51b815260206004820152601760248201527f4661696c656420746f2063616c6c20636f6e747261637400000000000000000060448201526064016104a0565b60405167ffffffffffffffff8a1681527f54303fab361bc52c2f1f56ace7351189582264f74ce47a6e7c3f478d64c429439060200160405180910390a15050505050505050505050565b7f0000000000000000000000000000000000000000000000000000000000000000600154017f00000000000000000000000000000000000000000000000000000000000000004281610b3a57610b3a61194e565b041115610b7c5760405162461bcd60e51b815260206004820152601060248201526f213934b233b29029b43aba3237bbb71760811b60448201526064016104a0565b60007f00000000000000000000000000000000000000000000000000000000000000006001600160a01b031663e78cea926040518163ffffffff1660e01b815260040160206040518083038186803b158015610bd757600080fd5b505afa158015610beb573d6000803e3d6000fd5b505050506040513d601f19601f82011682018060405250810190610c0f91906119cc565b9050336001600160a01b03821614610c5c5760405162461bcd60e51b815260206004820152601060248201526f2737ba10333937b690313934b233b29760811b60448201526064016104a0565b7f00000000000000000000000000000000000000000000000000000000000000006001600160a01b0316816001600160a01b031663ab5d89436040518163ffffffff1660e01b815260040160206040518083038186803b158015610cbf57600080fd5b505afa158015610cd3573d6000803e3d6000fd5b505050506040513d601f19601f82011682018060405250810190610cf791906119cc565b6001600160a01b03166380648b026040518163ffffffff1660e01b815260040160206040518083038186803b158015610d2f57600080fd5b505afa158015610d43573d6000803e3d6000fd5b505050506040513d601f19601f82011682018060405250810190610d6791906119cc565b6001600160a01b031614610dac5760405162461bcd60e51b815260206004820152600c60248201526b29b2b73232b91037b7363c9760a11b60448201526064016104a0565b600154841115610dc75760018490558215610dc75760008390555b610dd08261157a565b6000858152600260205260409020541415610e2e578151831415610dfa5760016080830152610e15565b60a08201516001600160a01b031615610e1557600260808301525b610e1e8261157a565b6000858152600260205260409020555b60405184907ff786e7f77ede00a02a5464f8f0555798f42ba99a4a920ef2778db8d75e4656f790600090a250505050565b610e688161157a565b60008381526002602052604090205414610e945760405162461bcd60e51b81526004016104a0906118d8565b60a08101516001600160a01b031615610eef5760405162461bcd60e51b815260206004820152601960248201527f436c61696d20616c7265616479206368616c6c656e6765642e0000000000000060448201526064016104a0565b7f0000000000000000000000000000000000000000000000000000000000000000341015610f5f5760405162461bcd60e51b815260206004820152601f60248201527f496e73756666696369656e74206368616c6c656e6765206465706f7369742e0060448201526064016104a0565b7f0000000000000000000000000000000000000000000000000000000000000000816040015163ffffffff16014210610fda5760405162461bcd60e51b815260206004820152601960248201527f4368616c6c656e676520706572696f6420656c61707365642e0000000000000060448201526064016104a0565b3360a0820152610fe98161157a565b600083815260026020908152604091829020929092555183815233917fcfe09ca25f55d949baba5e280f5750c9ba4b9048fca5532f916067d433afe4d7910160405180910390a25050565b7f0000000000000000000000000000000000000000000000000000000000000000600154017f000000000000000000000000000000000000000000000000000000000000000042816110885761108861194e565b0411156110ca5760405162461bcd60e51b815260206004820152601060248201526f213934b233b29029b43aba3237bbb71760811b60448201526064016104a0565b6110d38161157a565b600083815260026020526040902054146110ff5760405162461bcd60e51b81526004016104a0906118d8565b427f0000000000000000000000000000000000000000000000000000000000000000826040015163ffffffff1601106111885760405162461bcd60e51b815260206004820152602560248201527f4368616c6c656e676520706572696f6420686173206e6f742079657420656c616044820152643839b2b21760d91b60648201526084016104a0565b7f00000000000000000000000000000000000000000000000000000000000000004301600c826040015163ffffffff164203816111c7576111c761194e565b04826060015163ffffffff1601111561125b5760405162461bcd60e51b815260206004820152604a60248201527f546f6f206d616e79206d697373696e6720626c6f636b732e20506f737369626c60448201527f652063656e736f72736869702061747461636b2e205573652063616e6f6e696360648201526930b610313934b233b29760b11b608482015260a4016104a0565b60a08101516001600160a01b0316156112ad5760405162461bcd60e51b815260206004820152601460248201527321b630b4b69034b99031b430b63632b733b2b21760611b60448201526064016104a0565b6001548211156112c257600182905580516000555b600160808201526112d28161157a565b60008381526002602052604080822092909255905183917ff786e7f77ede00a02a5464f8f0555798f42ba99a4a920ef2778db8d75e4656f791a25050565b61132261046f368390038301836118b5565b6000838152600260205260409020541461134e5760405162461bcd60e51b81526004016104a0906118d8565b600261136060a0830160808401611916565b600281111561137157611371611900565b146113b25760405162461bcd60e51b815260206004820152601160248201527021b430b63632b733b2903330b4b632b21760791b60448201526064016104a0565b600082815260026020526040808220829055517f000000000000000000000000000000000000000000000000000000000000000080156108fc029183818181858288f15061058593505060c0840191505060a08301611931565b7f0000000000000000000000000000000000000000000000000000000000000000428161143b5761143b61194e565b047f000000000000000000000000000000000000000000000000000000000000000060015401106114a05760405162461bcd60e51b815260206004820152600f60248201526e213934b233b290293ab73734b7339760891b60448201526064016104a0565b6114b261046f368390038301836118b5565b600083815260026020526040902054146114de5760405162461bcd60e51b81526004016104a0906118d8565b600082815260026020908152604080832092909255611501918301908301611931565b6001600160a01b03166108fc7f00000000000000000000000000000000000000000000000000000000000000009081150290604051600060405180830381858888f1506000935061155c9250505060c0830160a08401611931565b6001600160a01b031614610628576105e060c0820160a08301611931565b80516020808301516040808501516060860151608087015160a088015193516000976115aa9790969591016119e9565b604051602081830303815290604052805190602001209050919050565b60008082840360e08112156115db57600080fd5b8335925060c0601f19820112156115f157600080fd5b506020830190509250929050565b60006020828403121561161157600080fd5b5035919050565b6000806040838503121561162b57600080fd5b50508035926020909101359150565b803567ffffffffffffffff8116811461165257600080fd5b919050565b6001600160a01b038116811461166c57600080fd5b50565b803561165281611657565b60008083601f84011261168c57600080fd5b50813567ffffffffffffffff8111156116a457600080fd5b6020830191508360208285010111156116bc57600080fd5b9250929050565b600080600080600080608087890312156116dc57600080fd5b863567ffffffffffffffff808211156116f457600080fd5b818901915089601f83011261170857600080fd5b81358181111561171757600080fd5b8a60208260051b850101111561172c57600080fd5b6020830198508097505061174260208a0161163a565b955061175060408a0161166f565b9450606089013591508082111561176657600080fd5b5061177389828a0161167a565b979a9699509497509295939492505050565b803563ffffffff8116811461165257600080fd5b80356003811061165257600080fd5b600060c082840312156117ba57600080fd5b60405160c0810181811067ffffffffffffffff821117156117eb57634e487b7160e01b600052604160045260246000fd5b604052823581529050806118016020840161166f565b602082015261181260408401611785565b604082015261182360608401611785565b606082015261183460808401611799565b608082015261184560a0840161166f565b60a08201525092915050565b6000806000610100848603121561186757600080fd5b833592506020840135915061187f85604086016117a8565b90509250925092565b60008060e0838503121561189b57600080fd5b823591506118ac84602085016117a8565b90509250929050565b600060c082840312156118c757600080fd5b6118d183836117a8565b9392505050565b6020808252600e908201526d24b73b30b634b21031b630b4b69760911b604082015260600190565b634e487b7160e01b600052602160045260246000fd5b60006020828403121561192857600080fd5b6118d182611799565b60006020828403121561194357600080fd5b81356118d181611657565b634e487b7160e01b600052601260045260246000fd5b60c085901b6001600160c01b0319168152606084901b6bffffffffffffffffffffffff191660088201528183601c83013760009101601c019081529392505050565b634e487b7160e01b600052603260045260246000fd5b8183823760009101908152919050565b6000602082840312156119de57600080fd5b81516118d181611657565b86815260006bffffffffffffffffffffffff19808860601b16602084015263ffffffff60e01b808860e01b166034850152808760e01b1660388501525060038510611a4457634e487b7160e01b600052602160045260246000fd5b60f89490941b603c8301525060609190911b909116603d82015260510194935050505056fea264697066735822122057ba4df9215f0c53a1c7786754b0cd3bca2ebf53408ab654a1b92076387b602f64736f6c63430008090033",
  "devdoc": {
    "events": {
      "Challenged(uint256,address)": {
        "details": "This event indicates that `sendSnapshot(epoch)` should be called in the inbox.",
        "params": {
          "challenger": "The address of the challenger.",
          "epoch": "The epoch associated with the challenged claim."
        }
      },
      "Claimed(uint256,address,bytes32)": {
        "details": "Watcher check this event to challenge fraud.",
        "params": {
          "claimer": "The address of the claimer.",
          "stateRoot": "The epoch for which the the claim was made."
        }
      },
      "MessageRelayed(uint64)": {
        "details": "This event indicates that a message has been relayed.",
        "params": {
          "msgId": "The msgId of the message that was relayed."
        }
      },
      "Verified(uint256)": {
        "details": "This events indicates that verification has succeeded. The messages are ready to be relayed.",
        "params": {
          "epoch": "The epoch associated with the verified inbox state root snapshot."
        }
      }
    },
    "kind": "dev",
    "methods": {
      "challenge(uint256,(bytes32,address,uint32,uint32,uint8,address))": {
        "details": "Submit a challenge for the claim of the inbox state root snapshot taken at 'epoch'.",
        "params": {
          "epoch": "The epoch of the claim to challenge."
        }
      },
      "claim(uint256,bytes32)": {
        "details": "Submit a claim about the the _stateRoot at _epoch and submit a deposit.",
        "params": {
          "_epoch": "The epoch for which the claim is made.",
          "_stateRoot": "The state root to claim."
        }
      },
      "constructor": {
        "details": "Constructor.",
        "params": {
          "_challengePeriod": "The duration of the period allowing to challenge a claim.",
          "_claimDelay": "The number of epochs a claim can be submitted for.",
          "_deposit": "The deposit amount to submit a claim in wei.",
          "_epochPeriod": "The duration of each epoch.",
          "_inbox": "The address of the inbox contract on Ethereum.",
          "_maxMissingBlocks": "The maximum number of blocks that can be missing in a challenge period.",
          "_timeoutEpochs": "The epochs before the bridge is considered shutdown.",
          "_veaInbox": "The address of the inbox contract on Arbitrum."
        }
      },
      "resolveDisputedClaim(uint256,bytes32,(bytes32,address,uint32,uint32,uint8,address))": {
        "details": "Resolves any challenge of the optimistic claim for '_epoch'.",
        "params": {
          "_stateRoot": "The true state root for the epoch.",
          "epoch": "The epoch to verify."
        }
      },
      "sendMessage(bytes32[],uint64,address,bytes)": {
        "details": "Verifies and relays the message. UNTRUSTED.",
        "params": {
          "message": "The message encoded with header from VeaInbox.",
          "msgId": "The zero based index of the message in the inbox.",
          "proof": "The merkle proof to prove the message.",
          "to": "The address of the contract on the receiving chain which receives the calldata."
        }
      },
      "validateSnapshot(uint256,(bytes32,address,uint32,uint32,uint8,address))": {
        "details": "Resolves the optimistic claim for '_epoch'.",
        "params": {
          "epoch": "The epoch of the optimistic claim."
        }
      },
      "withdrawChallengeDeposit(uint256,(bytes32,address,uint32,uint32,uint8,address))": {
        "details": "Sends the deposit back to the Challenger if their challenge is successful. Includes a portion of the Bridger's deposit.",
        "params": {
          "epoch": "The epoch associated with the challenge deposit to withraw."
        }
      },
      "withdrawClaimDeposit(uint256,(bytes32,address,uint32,uint32,uint8,address))": {
        "details": "Sends the deposit back to the Bridger if their claim is not successfully challenged. Includes a portion of the Challenger's deposit if unsuccessfully challenged.",
        "params": {
          "epoch": "The epoch associated with the claim deposit to withraw."
        }
      },
      "withdrawEscapeHatch(uint256,(bytes32,address,uint32,uint32,uint8,address))": {
        "details": "Sends the deposit back to the Bridger if their claim is not successfully challenged. Includes a portion of the Challenger's deposit if unsuccessfully challenged.",
        "params": {
          "epoch": "The epoch associated with the claim deposit to withraw."
        }
      }
    },
    "version": 1
  },
  "userdoc": {
    "kind": "user",
    "methods": {
      "resolveDisputedClaim(uint256,bytes32,(bytes32,address,uint32,uint32,uint8,address))": {
        "notice": "Note: Access restricted to arbitrum  bridge."
      }
    },
    "notice": "Vea Bridge Outbox From Arbitrum to Ethereum.",
    "version": 1
  },
  "storageLayout": {
    "storage": [
      {
        "astId": 39,
        "contract": "src/arbitrumToEth/VeaOutboxArbToEth.sol:VeaOutboxArbToEth",
        "label": "stateRoot",
        "offset": 0,
        "slot": "0",
        "type": "t_bytes32"
      },
      {
        "astId": 41,
        "contract": "src/arbitrumToEth/VeaOutboxArbToEth.sol:VeaOutboxArbToEth",
        "label": "latestVerifiedEpoch",
        "offset": 0,
        "slot": "1",
        "type": "t_uint256"
      },
      {
        "astId": 45,
        "contract": "src/arbitrumToEth/VeaOutboxArbToEth.sol:VeaOutboxArbToEth",
        "label": "claimHashes",
        "offset": 0,
        "slot": "2",
        "type": "t_mapping(t_uint256,t_bytes32)"
      },
      {
        "astId": 49,
        "contract": "src/arbitrumToEth/VeaOutboxArbToEth.sol:VeaOutboxArbToEth",
        "label": "relayed",
        "offset": 0,
        "slot": "3",
        "type": "t_mapping(t_uint256,t_bytes32)"
      }
    ],
    "types": {
      "t_bytes32": {
        "encoding": "inplace",
        "label": "bytes32",
        "numberOfBytes": "32"
      },
      "t_mapping(t_uint256,t_bytes32)": {
        "encoding": "mapping",
        "key": "t_uint256",
        "label": "mapping(uint256 => bytes32)",
        "numberOfBytes": "32",
        "value": "t_bytes32"
      },
      "t_uint256": {
        "encoding": "inplace",
        "label": "uint256",
        "numberOfBytes": "32"
      }
    }
  }
}