{
  "address": "0x906dE43dBef27639b1688Ac46532a16dc07Ce410",
  "abi": [
    {
      "inputs": [
        {
          "internalType": "uint256",
          "name": "_deposit",
          "type": "uint256"
        },
        {
          "internalType": "uint256",
          "name": "_epochPeriod",
          "type": "uint256"
        },
        {
          "internalType": "uint256",
          "name": "_challengePeriod",
          "type": "uint256"
        },
        {
          "internalType": "uint256",
          "name": "_timeoutEpochs",
          "type": "uint256"
        },
        {
          "internalType": "uint256",
          "name": "_epochClaimDelay",
          "type": "uint256"
        },
        {
          "internalType": "address",
          "name": "_veaInbox",
          "type": "address"
        },
        {
          "internalType": "address",
          "name": "_inbox",
          "type": "address"
        },
        {
          "internalType": "uint256",
          "name": "_maxMissingBlocks",
          "type": "uint256"
        }
      ],
      "stateMutability": "nonpayable",
      "type": "constructor"
    },
    {
      "anonymous": false,
      "inputs": [
        {
          "indexed": false,
          "internalType": "uint256",
          "name": "epoch",
          "type": "uint256"
        },
        {
          "indexed": true,
          "internalType": "address",
          "name": "challenger",
          "type": "address"
        }
      ],
      "name": "Challenged",
      "type": "event"
    },
    {
      "anonymous": false,
      "inputs": [
        {
          "indexed": true,
          "internalType": "address",
          "name": "claimer",
          "type": "address"
        },
        {
          "indexed": false,
          "internalType": "bytes32",
          "name": "stateRoot",
          "type": "bytes32"
        }
      ],
      "name": "Claimed",
      "type": "event"
    },
    {
      "anonymous": false,
      "inputs": [
        {
          "indexed": false,
          "internalType": "uint64",
          "name": "msgId",
          "type": "uint64"
        }
      ],
      "name": "MessageRelayed",
      "type": "event"
    },
    {
      "anonymous": false,
      "inputs": [
        {
          "indexed": false,
          "internalType": "uint256",
          "name": "epoch",
          "type": "uint256"
        }
      ],
      "name": "Verified",
      "type": "event"
    },
    {
      "inputs": [
        {
          "internalType": "uint256",
          "name": "epoch",
          "type": "uint256"
        },
        {
          "components": [
            {
              "internalType": "bytes32",
              "name": "stateRoot",
              "type": "bytes32"
            },
            {
              "internalType": "address",
              "name": "claimer",
              "type": "address"
            },
            {
              "internalType": "uint32",
              "name": "timestamp",
              "type": "uint32"
            },
            {
              "internalType": "uint32",
              "name": "blocknumber",
              "type": "uint32"
            },
            {
              "internalType": "enum IVeaOutboxArbToEth.Party",
              "name": "honest",
              "type": "uint8"
            },
            {
              "internalType": "address",
              "name": "challenger",
              "type": "address"
            }
          ],
          "internalType": "struct IVeaOutboxArbToEth.Claim",
          "name": "claim",
          "type": "tuple"
        }
      ],
      "name": "challenge",
      "outputs": [],
      "stateMutability": "payable",
      "type": "function"
    },
    {
      "inputs": [],
      "name": "challengePeriod",
      "outputs": [
        {
          "internalType": "uint256",
          "name": "",
          "type": "uint256"
        }
      ],
      "stateMutability": "view",
      "type": "function"
    },
    {
      "inputs": [
        {
          "internalType": "address",
          "name": "_testnetOperator",
          "type": "address"
        }
      ],
      "name": "changeTestnetOperator",
      "outputs": [],
      "stateMutability": "nonpayable",
      "type": "function"
    },
    {
      "inputs": [
        {
          "internalType": "uint256",
          "name": "_epoch",
          "type": "uint256"
        },
        {
          "internalType": "bytes32",
          "name": "_stateRoot",
          "type": "bytes32"
        }
      ],
      "name": "claim",
      "outputs": [],
      "stateMutability": "payable",
      "type": "function"
    },
    {
      "inputs": [],
      "name": "claimDelay",
      "outputs": [
        {
          "internalType": "uint256",
          "name": "",
          "type": "uint256"
        }
      ],
      "stateMutability": "view",
      "type": "function"
    },
    {
      "inputs": [
        {
          "internalType": "uint256",
          "name": "",
          "type": "uint256"
        }
      ],
      "name": "claimHashes",
      "outputs": [
        {
          "internalType": "bytes32",
          "name": "",
          "type": "bytes32"
        }
      ],
      "stateMutability": "view",
      "type": "function"
    },
    {
      "inputs": [],
      "name": "deposit",
      "outputs": [
        {
          "internalType": "uint256",
          "name": "",
          "type": "uint256"
        }
      ],
      "stateMutability": "view",
      "type": "function"
    },
    {
      "inputs": [
        {
          "internalType": "uint256",
          "name": "epoch",
          "type": "uint256"
        },
        {
          "internalType": "bytes32",
          "name": "stateroot",
          "type": "bytes32"
        }
      ],
      "name": "devnetAdvanceState",
      "outputs": [],
      "stateMutability": "payable",
      "type": "function"
    },
    {
      "inputs": [],
      "name": "epochPeriod",
      "outputs": [
        {
          "internalType": "uint256",
          "name": "",
          "type": "uint256"
        }
      ],
      "stateMutability": "view",
      "type": "function"
    },
    {
      "inputs": [
        {
          "components": [
            {
              "internalType": "bytes32",
              "name": "stateRoot",
              "type": "bytes32"
            },
            {
              "internalType": "address",
              "name": "claimer",
              "type": "address"
            },
            {
              "internalType": "uint32",
              "name": "timestamp",
              "type": "uint32"
            },
            {
              "internalType": "uint32",
              "name": "blocknumber",
              "type": "uint32"
            },
            {
              "internalType": "enum IVeaOutboxArbToEth.Party",
              "name": "honest",
              "type": "uint8"
            },
            {
              "internalType": "address",
              "name": "challenger",
              "type": "address"
            }
          ],
          "internalType": "struct IVeaOutboxArbToEth.Claim",
          "name": "claim",
          "type": "tuple"
        }
      ],
      "name": "hashClaim",
      "outputs": [
        {
          "internalType": "bytes32",
          "name": "",
          "type": "bytes32"
        }
      ],
      "stateMutability": "pure",
      "type": "function"
    },
    {
      "inputs": [],
      "name": "inbox",
      "outputs": [
        {
          "internalType": "contract IInbox",
          "name": "",
          "type": "address"
        }
      ],
      "stateMutability": "view",
      "type": "function"
    },
    {
      "inputs": [],
      "name": "latestVerifiedEpoch",
      "outputs": [
        {
          "internalType": "uint256",
          "name": "",
          "type": "uint256"
        }
      ],
      "stateMutability": "view",
      "type": "function"
    },
    {
      "inputs": [],
      "name": "maxMissingBlocks",
      "outputs": [
        {
          "internalType": "uint256",
          "name": "",
          "type": "uint256"
        }
      ],
      "stateMutability": "view",
      "type": "function"
    },
    {
      "inputs": [
        {
          "components": [
            {
              "internalType": "bytes32",
              "name": "stateRoot",
              "type": "bytes32"
            },
            {
              "internalType": "address",
              "name": "claimer",
              "type": "address"
            },
            {
              "internalType": "uint32",
              "name": "timestamp",
              "type": "uint32"
            },
            {
              "internalType": "uint32",
              "name": "blocknumber",
              "type": "uint32"
            },
            {
              "internalType": "enum IVeaOutboxArbToEth.Party",
              "name": "honest",
              "type": "uint8"
            },
            {
              "internalType": "address",
              "name": "challenger",
              "type": "address"
            }
          ],
          "internalType": "struct IVeaOutboxArbToEth.Claim",
          "name": "claim",
          "type": "tuple"
        }
      ],
      "name": "passedTest",
      "outputs": [
        {
          "internalType": "bool",
          "name": "",
          "type": "bool"
        }
      ],
      "stateMutability": "view",
      "type": "function"
    },
    {
      "inputs": [
        {
          "internalType": "uint256",
          "name": "",
          "type": "uint256"
        }
      ],
      "name": "relayed",
      "outputs": [
        {
          "internalType": "bytes32",
          "name": "",
          "type": "bytes32"
        }
      ],
      "stateMutability": "view",
      "type": "function"
    },
    {
      "inputs": [
        {
          "internalType": "uint256",
          "name": "epoch",
          "type": "uint256"
        },
        {
          "internalType": "bytes32",
          "name": "_stateRoot",
          "type": "bytes32"
        },
        {
          "components": [
            {
              "internalType": "bytes32",
              "name": "stateRoot",
              "type": "bytes32"
            },
            {
              "internalType": "address",
              "name": "claimer",
              "type": "address"
            },
            {
              "internalType": "uint32",
              "name": "timestamp",
              "type": "uint32"
            },
            {
              "internalType": "uint32",
              "name": "blocknumber",
              "type": "uint32"
            },
            {
              "internalType": "enum IVeaOutboxArbToEth.Party",
              "name": "honest",
              "type": "uint8"
            },
            {
              "internalType": "address",
              "name": "challenger",
              "type": "address"
            }
          ],
          "internalType": "struct IVeaOutboxArbToEth.Claim",
          "name": "claim",
          "type": "tuple"
        }
      ],
      "name": "resolveDisputedClaim",
      "outputs": [],
      "stateMutability": "nonpayable",
      "type": "function"
    },
    {
      "inputs": [
        {
          "internalType": "bytes32[]",
          "name": "proof",
          "type": "bytes32[]"
        },
        {
          "internalType": "uint64",
          "name": "msgId",
          "type": "uint64"
        },
        {
          "internalType": "address",
          "name": "to",
          "type": "address"
        },
        {
          "internalType": "bytes",
          "name": "message",
          "type": "bytes"
        }
      ],
      "name": "sendMessage",
      "outputs": [],
      "stateMutability": "nonpayable",
      "type": "function"
    },
    {
      "inputs": [],
      "name": "stateRoot",
      "outputs": [
        {
          "internalType": "bytes32",
          "name": "",
          "type": "bytes32"
        }
      ],
      "stateMutability": "view",
      "type": "function"
    },
    {
      "inputs": [],
      "name": "testnetOperator",
      "outputs": [
        {
          "internalType": "address",
          "name": "",
          "type": "address"
        }
      ],
      "stateMutability": "view",
      "type": "function"
    },
    {
      "inputs": [],
      "name": "timeoutEpochs",
      "outputs": [
        {
          "internalType": "uint256",
          "name": "",
          "type": "uint256"
        }
      ],
      "stateMutability": "view",
      "type": "function"
    },
    {
      "inputs": [
        {
          "internalType": "uint256",
          "name": "epoch",
          "type": "uint256"
        },
        {
          "components": [
            {
              "internalType": "bytes32",
              "name": "stateRoot",
              "type": "bytes32"
            },
            {
              "internalType": "address",
              "name": "claimer",
              "type": "address"
            },
            {
              "internalType": "uint32",
              "name": "timestamp",
              "type": "uint32"
            },
            {
              "internalType": "uint32",
              "name": "blocknumber",
              "type": "uint32"
            },
            {
              "internalType": "enum IVeaOutboxArbToEth.Party",
              "name": "honest",
              "type": "uint8"
            },
            {
              "internalType": "address",
              "name": "challenger",
              "type": "address"
            }
          ],
          "internalType": "struct IVeaOutboxArbToEth.Claim",
          "name": "claim",
          "type": "tuple"
        }
      ],
      "name": "validateSnapshot",
      "outputs": [],
      "stateMutability": "nonpayable",
      "type": "function"
    },
    {
      "inputs": [],
      "name": "veaInbox",
      "outputs": [
        {
          "internalType": "address",
          "name": "",
          "type": "address"
        }
      ],
      "stateMutability": "view",
      "type": "function"
    },
    {
      "inputs": [
        {
          "internalType": "uint256",
          "name": "epoch",
          "type": "uint256"
        },
        {
          "components": [
            {
              "internalType": "bytes32",
              "name": "stateRoot",
              "type": "bytes32"
            },
            {
              "internalType": "address",
              "name": "claimer",
              "type": "address"
            },
            {
              "internalType": "uint32",
              "name": "timestamp",
              "type": "uint32"
            },
            {
              "internalType": "uint32",
              "name": "blocknumber",
              "type": "uint32"
            },
            {
              "internalType": "enum IVeaOutboxArbToEth.Party",
              "name": "honest",
              "type": "uint8"
            },
            {
              "internalType": "address",
              "name": "challenger",
              "type": "address"
            }
          ],
          "internalType": "struct IVeaOutboxArbToEth.Claim",
          "name": "claim",
          "type": "tuple"
        }
      ],
      "name": "withdrawChallengeDeposit",
      "outputs": [],
      "stateMutability": "nonpayable",
      "type": "function"
    },
    {
      "inputs": [
        {
          "internalType": "uint256",
          "name": "epoch",
          "type": "uint256"
        },
        {
          "components": [
            {
              "internalType": "bytes32",
              "name": "stateRoot",
              "type": "bytes32"
            },
            {
              "internalType": "address",
              "name": "claimer",
              "type": "address"
            },
            {
              "internalType": "uint32",
              "name": "timestamp",
              "type": "uint32"
            },
            {
              "internalType": "uint32",
              "name": "blocknumber",
              "type": "uint32"
            },
            {
              "internalType": "enum IVeaOutboxArbToEth.Party",
              "name": "honest",
              "type": "uint8"
            },
            {
              "internalType": "address",
              "name": "challenger",
              "type": "address"
            }
          ],
          "internalType": "struct IVeaOutboxArbToEth.Claim",
          "name": "claim",
          "type": "tuple"
        }
      ],
      "name": "withdrawChallengerEscapeHatch",
      "outputs": [],
      "stateMutability": "nonpayable",
      "type": "function"
    },
    {
      "inputs": [
        {
          "internalType": "uint256",
          "name": "epoch",
          "type": "uint256"
        },
        {
          "components": [
            {
              "internalType": "bytes32",
              "name": "stateRoot",
              "type": "bytes32"
            },
            {
              "internalType": "address",
              "name": "claimer",
              "type": "address"
            },
            {
              "internalType": "uint32",
              "name": "timestamp",
              "type": "uint32"
            },
            {
              "internalType": "uint32",
              "name": "blocknumber",
              "type": "uint32"
            },
            {
              "internalType": "enum IVeaOutboxArbToEth.Party",
              "name": "honest",
              "type": "uint8"
            },
            {
              "internalType": "address",
              "name": "challenger",
              "type": "address"
            }
          ],
          "internalType": "struct IVeaOutboxArbToEth.Claim",
          "name": "claim",
          "type": "tuple"
        }
      ],
      "name": "withdrawClaimDeposit",
      "outputs": [],
      "stateMutability": "nonpayable",
      "type": "function"
    },
    {
      "inputs": [
        {
          "internalType": "uint256",
          "name": "epoch",
          "type": "uint256"
        },
        {
          "components": [
            {
              "internalType": "bytes32",
              "name": "stateRoot",
              "type": "bytes32"
            },
            {
              "internalType": "address",
              "name": "claimer",
              "type": "address"
            },
            {
              "internalType": "uint32",
              "name": "timestamp",
              "type": "uint32"
            },
            {
              "internalType": "uint32",
              "name": "blocknumber",
              "type": "uint32"
            },
            {
              "internalType": "enum IVeaOutboxArbToEth.Party",
              "name": "honest",
              "type": "uint8"
            },
            {
              "internalType": "address",
              "name": "challenger",
              "type": "address"
            }
          ],
          "internalType": "struct IVeaOutboxArbToEth.Claim",
          "name": "claim",
          "type": "tuple"
        }
      ],
      "name": "withdrawClaimerEscapeHatch",
      "outputs": [],
      "stateMutability": "nonpayable",
      "type": "function"
    }
  ],
  "transactionHash": "0xe11b6df93846fa037df2ff4413e33707ad25445438141d51ae4f78eca7eab4e4",
  "args": [
    "1000000000000000",
    1800,
    0,
    10000000000000,
    0,
    "0x906dE43dBef27639b1688Ac46532a16dc07Ce410",
    "0x6BEbC4925716945D46F0Ec336D5C2564F419682C",
    10000000000000
  ],
  "numDeployments": 4,
  "solcInputHash": "310d213a0515307414feefe4bc0ccad2",
  "bytecode": "0x6101c06040523480156200001257600080fd5b506040516200240d3803806200240d833981016040819052620000359162000162565b60c08890526101208790526101408690526101808590526101608490526001600160a01b0380841660a05282166080526101a0819052878787878787878762000080600289620001ea565b60e0819052620000928960026200020d565b6200009e91906200022d565b6101005261012051600190620000b59042620001ea565b620000c191906200022d565b600155610160514210156200011c5760405162461bcd60e51b815260206004820152601860248201527f496e76616c69642065706f6368436c61696d44656c61792e0000000000000000604482015260640160405180910390fd5b5050600480546001600160a01b0319163317905550620002439c50505050505050505050505050565b80516001600160a01b03811681146200015d57600080fd5b919050565b600080600080600080600080610100898b0312156200018057600080fd5b8851975060208901519650604089015195506060890151945060808901519350620001ae60a08a0162000145565b9250620001be60c08a0162000145565b915060e089015190509295985092959890939650565b634e487b7160e01b600052601160045260246000fd5b6000826200020857634e487b7160e01b600052601260045260246000fd5b500490565b8082028115828204841417620002275762000227620001d4565b92915050565b81810381811115620002275762000227620001d4565b60805160a05160c05160e05161010051610120516101405161016051610180516101a0516120ad62000360600039600081816103c90152818161062e01526113dc0152600081816103fd01528181610d15015281816112870152818161159f015261176201526000818161023b01526108a101526000818161050c015281816111b901526113530152600081816104310152818161088001528181610d3a015281816112ac0152818161156f015261173201526000818161075a0152611ac20152600081816107120152611a6f0152600081816104c5015281816107aa015281816107e50152818161111f015281816116f801526118ba0152600081816101980152610e7c0152600081816105600152610dad01526120ad6000f3fe6080604052600436106101815760003560e01c8063a53d3c26116100d1578063c299be331161008a578063eedcf2a911610064578063eedcf2a9146104e7578063f3f480d9146104fa578063f939bad91461052e578063fb0e722b1461054e57600080fd5b8063c299be3314610473578063c4402e7f14610493578063d0e30db0146104b357600080fd5b8063a53d3c2614610384578063a557d91814610397578063aa22a1c6146103b7578063b044397e146103eb578063b5b7a1841461041f578063bd7df3f91461045357600080fd5b806327ee6bdd1161013e57806334c75d721161011857806334c75d72146103015780637ba7900c1461032157806390df63b7146103415780639588eca21461036e57600080fd5b806327ee6bdd146102b857806331d14457146102ce57806331ddf743146102e157600080fd5b806302d3e236146101865780630419402f146101d757806310e8f6bf146101f95780631c8ec299146102295780632415855b1461026b5780632639c0601461028b575b600080fd5b34801561019257600080fd5b506101ba7f000000000000000000000000000000000000000000000000000000000000000081565b6040516001600160a01b0390911681526020015b60405180910390f35b3480156101e357600080fd5b506101f76101f2366004611b27565b610582565b005b34801561020557600080fd5b50610219610214366004611b63565b6105d7565b60405190151581526020016101ce565b34801561023557600080fd5b5061025d7f000000000000000000000000000000000000000000000000000000000000000081565b6040519081526020016101ce565b34801561027757600080fd5b506101f7610286366004611c4b565b61065e565b34801561029757600080fd5b5061025d6102a6366004611c78565b60026020526000908152604090205481565b3480156102c457600080fd5b5061025d60015481565b6101f76102dc366004611c91565b6107e3565b3480156102ed57600080fd5b506101f76102fc366004611d14565b610a26565b34801561030d57600080fd5b5061025d61031c366004611dd6565b610cc6565b34801561032d57600080fd5b506101f761033c366004611df2565b610d13565b34801561034d57600080fd5b5061025d61035c366004611c78565b60036020526000908152604090205481565b34801561037a57600080fd5b5061025d60005481565b6101f7610392366004611c4b565b61108d565b3480156103a357600080fd5b506101f76103b2366004611c4b565b611285565b3480156103c357600080fd5b5061025d7f000000000000000000000000000000000000000000000000000000000000000081565b3480156103f757600080fd5b5061025d7f000000000000000000000000000000000000000000000000000000000000000081565b34801561042b57600080fd5b5061025d7f000000000000000000000000000000000000000000000000000000000000000081565b34801561045f57600080fd5b506101f761046e366004611c4b565b61156d565b34801561047f57600080fd5b506101f761048e366004611c4b565b611730565b34801561049f57600080fd5b506004546101ba906001600160a01b031681565b3480156104bf57600080fd5b5061025d7f000000000000000000000000000000000000000000000000000000000000000081565b6101f76104f5366004611c91565b6118f2565b34801561050657600080fd5b5061025d7f000000000000000000000000000000000000000000000000000000000000000081565b34801561053a57600080fd5b506101f7610549366004611e29565b6119b8565b34801561055a57600080fd5b506101ba7f000000000000000000000000000000000000000000000000000000000000000081565b6004546001600160a01b031633146105b55760405162461bcd60e51b81526004016105ac90611e4d565b60405180910390fd5b600480546001600160a01b0319166001600160a01b0392909216919091179055565b600080600c6105ec6060850160408601611e84565b6105fc9063ffffffff1642611eb5565b6106069190611ee4565b6106166080850160608601611e84565b63ffffffff166106269190611f06565b9050436106537f000000000000000000000000000000000000000000000000000000000000000082611f06565b909111159392505050565b61066781610cc6565b600083815260026020526040902054146106935760405162461bcd60e51b81526004016105ac90611f19565b6001816080015160028111156106ab576106ab611f41565b146106e85760405162461bcd60e51b815260206004820152600d60248201526c21b630b4b6903330b4b632b21760991b60448201526064016105ac565b60008281526002602052604081205560a08101516001600160a01b031615610794576040516000907f000000000000000000000000000000000000000000000000000000000000000080156108fc029183818181858288f150505060208301516040516001600160a01b0390911692507f000000000000000000000000000000000000000000000000000000000000000080156108fc029250906000818181858888f150505050505050565b60208101516040516001600160a01b03909116907f000000000000000000000000000000000000000000000000000000000000000080156108fc02916000818181858888f150505050505b5050565b7f00000000000000000000000000000000000000000000000000000000000000003410156108535760405162461bcd60e51b815260206004820152601b60248201527f496e73756666696369656e7420636c61696d206465706f7369742e000000000060448201526064016105ac565b6004546001600160a01b0316331461087d5760405162461bcd60e51b81526004016105ac90611e4d565b817f00000000000000000000000000000000000000000000000000000000000000007f00000000000000000000000000000000000000000000000000000000000000004203816108cf576108cf611ece565b041461090e5760405162461bcd60e51b815260206004820152600e60248201526d24b73b30b634b21032b837b1b41760911b60448201526064016105ac565b8061092b5760405162461bcd60e51b81526004016105ac90611f19565b6000828152600260205260409020541561097d5760405162461bcd60e51b815260206004820152601360248201527221b630b4b69030b63932b0b23c9036b0b2329760691b60448201526064016105ac565b6109da6040518060c00160405280838152602001336001600160a01b031681526020014263ffffffff1681526020014363ffffffff168152602001600060028111156109cb576109cb611f41565b81526000602090910152610cc6565b600083815260026020908152604091829020929092555182815233917f91d697238e9aa9f3172d17522c9be529b94a892481554e1ea619369b5b12f39a91015b60405180910390a25050565b60408510610a685760405162461bcd60e51b815260206004820152600f60248201526e283937b7b3103a37b7903637b7339760891b60448201526064016105ac565b600084848484604051602001610a819493929190611f57565b604051602081830303815290604052805190602001209050806000526020600020905060005b86811015610b01576000888883818110610ac357610ac3611f99565b90506020020135905082811115610ae857826000528060205260406000209250610af8565b8060005282602052604060002092505b50600101610aa7565b508060005414610b445760405162461bcd60e51b815260206004820152600e60248201526d24b73b30b634b210383937b7b31760911b60448201526064016105ac565b600885901c66ffffffffffffff1660008181526003602052604090205460ff87169080821c60011615610bb95760405162461bcd60e51b815260206004820152601760248201527f4d65737361676520616c72656164792072656c6179656400000000000000000060448201526064016105ac565b6000838152600360205260408082206001851b84179055516001600160a01b03891690610be99089908990611faf565b6000604051808303816000865af19150503d8060008114610c26576040519150601f19603f3d011682016040523d82523d6000602084013e610c2b565b606091505b5050905080610c7c5760405162461bcd60e51b815260206004820152601760248201527f4661696c656420746f2063616c6c20636f6e747261637400000000000000000060448201526064016105ac565b60405167ffffffffffffffff8a1681527f54303fab361bc52c2f1f56ace7351189582264f74ce47a6e7c3f478d64c429439060200160405180910390a15050505050505050505050565b80516020808301516040808501516060860151608087015160a08801519351600097610cf6979096959101611fbf565b604051602081830303815290604052805190602001209050919050565b7f0000000000000000000000000000000000000000000000000000000000000000600154017f00000000000000000000000000000000000000000000000000000000000000004281610d6757610d67611ece565b041115610da95760405162461bcd60e51b815260206004820152601060248201526f213934b233b29029b43aba3237bbb71760811b60448201526064016105ac565b60007f00000000000000000000000000000000000000000000000000000000000000006001600160a01b031663e78cea926040518163ffffffff1660e01b8152600401602060405180830381865afa158015610e09573d6000803e3d6000fd5b505050506040513d601f19601f82011682018060405250810190610e2d919061203f565b9050336001600160a01b03821614610e7a5760405162461bcd60e51b815260206004820152601060248201526f2737ba10333937b690313934b233b29760811b60448201526064016105ac565b7f00000000000000000000000000000000000000000000000000000000000000006001600160a01b0316816001600160a01b031663ab5d89436040518163ffffffff1660e01b8152600401602060405180830381865afa158015610ee2573d6000803e3d6000fd5b505050506040513d601f19601f82011682018060405250810190610f06919061203f565b6001600160a01b03166380648b026040518163ffffffff1660e01b8152600401602060405180830381865afa158015610f43573d6000803e3d6000fd5b505050506040513d601f19601f82011682018060405250810190610f67919061203f565b6001600160a01b031614610fac5760405162461bcd60e51b815260206004820152600c60248201526b29b2b73232b91037b7363c9760a11b60448201526064016105ac565b60015484118015610fbc57508215155b15610fff57600184905560008390556040518481527ff786e7f77ede00a02a5464f8f0555798f42ba99a4a920ef2778db8d75e4656f79060200160405180910390a15b61100882610cc6565b600085815260026020526040902054148015611039575060008260800151600281111561103757611037611f41565b145b15611087578151839003611053576001608083015261106e565b60a08201516001600160a01b03161561106e57600260808301525b61107782610cc6565b6000858152600260205260409020555b50505050565b61109681610cc6565b600083815260026020526040902054146110c25760405162461bcd60e51b81526004016105ac90611f19565b60a08101516001600160a01b03161561111d5760405162461bcd60e51b815260206004820152601960248201527f436c61696d20616c7265616479206368616c6c656e6765642e0000000000000060448201526064016105ac565b7f000000000000000000000000000000000000000000000000000000000000000034101561118d5760405162461bcd60e51b815260206004820152601f60248201527f496e73756666696369656e74206368616c6c656e6765206465706f7369742e0060448201526064016105ac565b6004546001600160a01b031633146111b75760405162461bcd60e51b81526004016105ac90611e4d565b7f0000000000000000000000000000000000000000000000000000000000000000816040015163ffffffff160142106112325760405162461bcd60e51b815260206004820152601960248201527f4368616c6c656e676520706572696f6420656c61707365642e0000000000000060448201526064016105ac565b3360a082015261124181610cc6565b600083815260026020908152604091829020929092555183815233917fcfe09ca25f55d949baba5e280f5750c9ba4b9048fca5532f916067d433afe4d79101610a1a565b7f0000000000000000000000000000000000000000000000000000000000000000600154017f000000000000000000000000000000000000000000000000000000000000000042816112d9576112d9611ece565b04111561131b5760405162461bcd60e51b815260206004820152601060248201526f213934b233b29029b43aba3237bbb71760811b60448201526064016105ac565b61132481610cc6565b600083815260026020526040902054146113505760405162461bcd60e51b81526004016105ac90611f19565b427f0000000000000000000000000000000000000000000000000000000000000000826040015163ffffffff160111156113da5760405162461bcd60e51b815260206004820152602560248201527f4368616c6c656e676520706572696f6420686173206e6f742079657420656c616044820152643839b2b21760d91b60648201526084016105ac565b7f00000000000000000000000000000000000000000000000000000000000000004301600c826040015163ffffffff1642038161141957611419611ece565b04826060015163ffffffff160111156114ad5760405162461bcd60e51b815260206004820152604a60248201527f546f6f206d616e79206d697373696e6720626c6f636b732e20506f737369626c60448201527f652063656e736f72736869702061747461636b2e205573652063616e6f6e696360648201526930b610313934b233b29760b11b608482015260a4016105ac565b60a08101516001600160a01b0316156114ff5760405162461bcd60e51b815260206004820152601460248201527321b630b4b69034b99031b430b63632b733b2b21760611b60448201526064016105ac565b60015482111561154757600182905580516000556040518281527ff786e7f77ede00a02a5464f8f0555798f42ba99a4a920ef2778db8d75e4656f79060200160405180910390a15b6001608082015261155781610cc6565b6000928352600260205260409092209190915550565b7f0000000000000000000000000000000000000000000000000000000000000000428161159c5761159c611ece565b047f000000000000000000000000000000000000000000000000000000000000000060015401106116015760405162461bcd60e51b815260206004820152600f60248201526e213934b233b290293ab73734b7339760891b60448201526064016105ac565b61160a81610cc6565b600083815260026020526040902054146116365760405162461bcd60e51b81526004016105ac90611f19565b60008160800151600281111561164e5761164e611f41565b1461168d5760405162461bcd60e51b815260206004820152600f60248201526e21b630b4b6903932b9b7b63b32b21760891b60448201526064016105ac565b60a08101516001600160a01b0316156107df5760208101516001600160a01b03166116c6576000828152600260205260408120556116e2565b600060a08201526116d681610cc6565b50600082905260026020525b60a08101516040516001600160a01b03909116907f000000000000000000000000000000000000000000000000000000000000000080156108fc02916000818181858888f150505050505050565b7f0000000000000000000000000000000000000000000000000000000000000000428161175f5761175f611ece565b047f000000000000000000000000000000000000000000000000000000000000000060015401106117c45760405162461bcd60e51b815260206004820152600f60248201526e213934b233b290293ab73734b7339760891b60448201526064016105ac565b6117cd81610cc6565b600083815260026020526040902054146117f95760405162461bcd60e51b81526004016105ac90611f19565b60008160800151600281111561181157611811611f41565b146118505760405162461bcd60e51b815260206004820152600f60248201526e21b630b4b6903932b9b7b63b32b21760891b60448201526064016105ac565b60208101516001600160a01b0316156107df5760a08101516001600160a01b031661188957600082815260026020526040812055610794565b6000602082015261189981610cc6565b506000829052600260205260208101516040516001600160a01b03909116907f000000000000000000000000000000000000000000000000000000000000000080156108fc02916000818181858888f150505050505050565b6118fc82826107e3565b61195a826040518060c00160405280848152602001336001600160a01b031681526020014263ffffffff1681526020014363ffffffff1681526020016000600281111561194b5761194b611f41565b81526000602090910152611285565b6107df826040518060c00160405280848152602001336001600160a01b031681526020014263ffffffff1681526020014363ffffffff168152602001600160028111156119a9576119a9611f41565b8152600060209091015261065e565b6119ca61031c36839003830183611dd6565b600083815260026020526040902054146119f65760405162461bcd60e51b81526004016105ac90611f19565b6002611a0860a083016080840161205c565b6002811115611a1957611a19611f41565b14611a5a5760405162461bcd60e51b815260206004820152601160248201527021b430b63632b733b2903330b4b632b21760791b60448201526064016105ac565b600082815260026020526040808220829055517f000000000000000000000000000000000000000000000000000000000000000080156108fc029183818181858288f150611ab493505060c0840191505060a08301611b27565b6001600160a01b03166108fc7f00000000000000000000000000000000000000000000000000000000000000009081150290604051600060405180830381858888f150505050505050565b6001600160a01b0381168114611b1457600080fd5b50565b8035611b2281611aff565b919050565b600060208284031215611b3957600080fd5b8135611b4481611aff565b9392505050565b600060c08284031215611b5d57600080fd5b50919050565b600060c08284031215611b7557600080fd5b611b448383611b4b565b803563ffffffff81168114611b2257600080fd5b803560038110611b2257600080fd5b600060c08284031215611bb457600080fd5b60405160c0810181811067ffffffffffffffff82111715611be557634e487b7160e01b600052604160045260246000fd5b60405282358152905080611bfb60208401611b17565b6020820152611c0c60408401611b7f565b6040820152611c1d60608401611b7f565b6060820152611c2e60808401611b93565b6080820152611c3f60a08401611b17565b60a08201525092915050565b60008060e08385031215611c5e57600080fd5b82359150611c6f8460208501611ba2565b90509250929050565b600060208284031215611c8a57600080fd5b5035919050565b60008060408385031215611ca457600080fd5b50508035926020909101359150565b803567ffffffffffffffff81168114611b2257600080fd5b60008083601f840112611cdd57600080fd5b50813567ffffffffffffffff811115611cf557600080fd5b602083019150836020828501011115611d0d57600080fd5b9250929050565b60008060008060008060808789031215611d2d57600080fd5b863567ffffffffffffffff80821115611d4557600080fd5b818901915089601f830112611d5957600080fd5b813581811115611d6857600080fd5b8a60208260051b8501011115611d7d57600080fd5b60208301985080975050611d9360208a01611cb3565b9550611da160408a01611b17565b94506060890135915080821115611db757600080fd5b50611dc489828a01611ccb565b979a9699509497509295939492505050565b600060c08284031215611de857600080fd5b611b448383611ba2565b60008060006101008486031215611e0857600080fd5b8335925060208401359150611e208560408601611ba2565b90509250925092565b60008060e08385031215611e3c57600080fd5b82359150611c6f8460208501611b4b565b60208082526018908201527f496e76616c696420546573746e6574204f70657261746f720000000000000000604082015260600190565b600060208284031215611e9657600080fd5b611b4482611b7f565b634e487b7160e01b600052601160045260246000fd5b81810381811115611ec857611ec8611e9f565b92915050565b634e487b7160e01b600052601260045260246000fd5b600082611f0157634e487b7160e01b600052601260045260246000fd5b500490565b80820180821115611ec857611ec8611e9f565b6020808252600e908201526d24b73b30b634b21031b630b4b69760911b604082015260600190565b634e487b7160e01b600052602160045260246000fd5b60c085901b6001600160c01b0319168152606084901b6bffffffffffffffffffffffff191660088201528183601c83013760009101601c019081529392505050565b634e487b7160e01b600052603260045260246000fd5b8183823760009101908152919050565b86815260006bffffffffffffffffffffffff19808860601b16602084015263ffffffff60e01b808860e01b166034850152808760e01b166038850152506003851061201a57634e487b7160e01b600052602160045260246000fd5b60f89490941b603c8301525060609190911b909116603d820152605101949350505050565b60006020828403121561205157600080fd5b8151611b4481611aff565b60006020828403121561206e57600080fd5b611b4482611b9356fea2646970667358221220e1d4effefaabfd839bc9ec37355d426bf45042b4e9f6e5b0547b12e4d0c51f8764736f6c63430008120033",
  "devdoc": {
    "events": {
      "Challenged(uint256,address)": {
        "details": "This event indicates that `sendSnapshot(epoch)` should be called in the inbox.",
        "params": {
          "challenger": "The address of the challenger.",
          "epoch": "The epoch associated with the challenged claim."
        }
      },
      "Claimed(address,bytes32)": {
        "details": "Watcher check this event to challenge fraud.",
        "params": {
          "claimer": "The address of the claimer.",
          "stateRoot": "The state root of the challenged claim."
        }
      },
      "MessageRelayed(uint64)": {
        "details": "This event indicates that a message has been relayed.",
        "params": {
          "msgId": "The msgId of the message that was relayed."
        }
      },
      "Verified(uint256)": {
        "details": "This events indicates that verification has succeeded. The messages are ready to be relayed.",
        "params": {
          "epoch": "The epoch that was verified."
        }
      }
    },
    "kind": "dev",
    "methods": {
      "challenge(uint256,(bytes32,address,uint32,uint32,uint8,address))": {
        "details": "Submit a challenge for the claim of the inbox state root snapshot taken at 'epoch'.",
        "params": {
          "epoch": "The epoch of the claim to challenge."
        }
      },
      "claim(uint256,bytes32)": {
        "details": "Submit a claim about the the _stateRoot at _epoch and submit a deposit.",
        "params": {
          "_epoch": "The epoch for which the claim is made.",
          "_stateRoot": "The state root to claim."
        }
      },
      "constructor": {
        "details": "Constructor.",
        "params": {
          "_challengePeriod": "The duration of the period allowing to challenge a claim.",
          "_deposit": "The deposit amount to submit a claim in wei.",
          "_epochClaimDelay": "The number of epochs a claim can be submitted for.",
          "_epochPeriod": "The duration of each epoch.",
          "_inbox": "The address of the inbox contract on Ethereum.",
          "_maxMissingBlocks": "The maximum number of blocks that can be missing in a challenge period.",
          "_timeoutEpochs": "The epochs before the bridge is considered shutdown.",
          "_veaInbox": "The address of the inbox contract on Arbitrum."
        }
      },
      "devnetAdvanceState(uint256,bytes32)": {
        "details": "Testnet operator utility function to claim, validate and withdraw.",
        "params": {
          "epoch": "The epoch for which the claim is made.",
          "stateroot": "The state root to claim."
        }
      },
      "resolveDisputedClaim(uint256,bytes32,(bytes32,address,uint32,uint32,uint8,address))": {
        "details": "Resolves any challenge of the optimistic claim for '_epoch'.",
        "params": {
          "_stateRoot": "The true state root for the epoch.",
          "epoch": "The epoch to verify."
        }
      },
      "sendMessage(bytes32[],uint64,address,bytes)": {
        "details": "Verifies and relays the message. UNTRUSTED.",
        "params": {
          "message": "The message encoded with header from VeaInbox.",
          "msgId": "The zero based index of the message in the inbox.",
          "proof": "The merkle proof to prove the message.",
          "to": "The address of the contract on the receiving chain which receives the calldata."
        }
      },
      "validateSnapshot(uint256,(bytes32,address,uint32,uint32,uint8,address))": {
        "details": "Resolves the optimistic claim for '_epoch'.",
        "params": {
          "epoch": "The epoch of the optimistic claim."
        }
      },
      "withdrawChallengeDeposit(uint256,(bytes32,address,uint32,uint32,uint8,address))": {
        "details": "Sends the deposit back to the Challenger if their challenge is successful. Includes a portion of the Bridger's deposit.",
        "params": {
          "epoch": "The epoch associated with the challenge deposit to withraw."
        }
      },
      "withdrawChallengerEscapeHatch(uint256,(bytes32,address,uint32,uint32,uint8,address))": {
        "details": "When bridge is shutdown, no claim disputes can be resolved. This allows the claimer to withdraw their deposit.",
        "params": {
          "epoch": "The epoch associated with the claim deposit to withraw."
        }
      },
      "withdrawClaimDeposit(uint256,(bytes32,address,uint32,uint32,uint8,address))": {
        "details": "Sends the deposit back to the Bridger if their claim is not successfully challenged. Includes a portion of the Challenger's deposit if unsuccessfully challenged.",
        "params": {
          "epoch": "The epoch associated with the claim deposit to withraw."
        }
      },
      "withdrawClaimerEscapeHatch(uint256,(bytes32,address,uint32,uint32,uint8,address))": {
        "details": "When bridge is shutdown, no claim disputes can be resolved. This allows the claimer to withdraw their deposit.",
        "params": {
          "epoch": "The epoch associated with the claim deposit to withraw."
        }
      }
    },
    "version": 1
  },
  "userdoc": {
    "kind": "user",
    "methods": {
      "resolveDisputedClaim(uint256,bytes32,(bytes32,address,uint32,uint32,uint8,address))": {
        "notice": "Note: Access restricted to arbitrum  bridge."
      }
    },
    "version": 1
  },
  "storageLayout": {
    "storage": [
      {
        "astId": 39,
        "contract": "src/devnets/arbitrumToEth/VeaOutboxArbToEthDevnet.sol:VeaOutboxArbToEthDevnet",
        "label": "stateRoot",
        "offset": 0,
        "slot": "0",
        "type": "t_bytes32"
      },
      {
        "astId": 41,
        "contract": "src/devnets/arbitrumToEth/VeaOutboxArbToEthDevnet.sol:VeaOutboxArbToEthDevnet",
        "label": "latestVerifiedEpoch",
        "offset": 0,
        "slot": "1",
        "type": "t_uint256"
      },
      {
        "astId": 45,
        "contract": "src/devnets/arbitrumToEth/VeaOutboxArbToEthDevnet.sol:VeaOutboxArbToEthDevnet",
        "label": "claimHashes",
        "offset": 0,
        "slot": "2",
        "type": "t_mapping(t_uint256,t_bytes32)"
      },
      {
        "astId": 49,
        "contract": "src/devnets/arbitrumToEth/VeaOutboxArbToEthDevnet.sol:VeaOutboxArbToEthDevnet",
        "label": "relayed",
        "offset": 0,
        "slot": "3",
        "type": "t_mapping(t_uint256,t_bytes32)"
      },
      {
        "astId": 1370,
        "contract": "src/devnets/arbitrumToEth/VeaOutboxArbToEthDevnet.sol:VeaOutboxArbToEthDevnet",
        "label": "testnetOperator",
        "offset": 0,
        "slot": "4",
        "type": "t_address"
      }
    ],
    "types": {
      "t_address": {
        "encoding": "inplace",
        "label": "address",
        "numberOfBytes": "20"
      },
      "t_bytes32": {
        "encoding": "inplace",
        "label": "bytes32",
        "numberOfBytes": "32"
      },
      "t_mapping(t_uint256,t_bytes32)": {
        "encoding": "mapping",
        "key": "t_uint256",
        "label": "mapping(uint256 => bytes32)",
        "numberOfBytes": "32",
        "value": "t_bytes32"
      },
      "t_uint256": {
        "encoding": "inplace",
        "label": "uint256",
        "numberOfBytes": "32"
      }
    }
  }
}