{
  "address": "0x4B1275adA5014d7A10375B87bb0cfaCAbC47d3dC",
  "abi": [
    {
      "inputs": [
        {
          "internalType": "uint256",
          "name": "_deposit",
          "type": "uint256"
        },
        {
          "internalType": "uint256",
          "name": "_epochPeriod",
          "type": "uint256"
        },
        {
          "internalType": "uint256",
          "name": "_minChallengePeriod",
          "type": "uint256"
        },
        {
          "internalType": "uint256",
          "name": "_timeoutEpochs",
          "type": "uint256"
        },
        {
          "internalType": "address",
          "name": "_veaInboxArbToEthDevnet",
          "type": "address"
        },
        {
          "internalType": "address",
          "name": "_bridge",
          "type": "address"
        },
        {
          "internalType": "uint256",
          "name": "_maxMissingBlocks",
          "type": "uint256"
        }
      ],
      "stateMutability": "nonpayable",
      "type": "constructor"
    },
    {
      "anonymous": false,
      "inputs": [
        {
          "indexed": false,
          "internalType": "uint256",
          "name": "_epoch",
          "type": "uint256"
        },
        {
          "indexed": true,
          "internalType": "address",
          "name": "_challenger",
          "type": "address"
        }
      ],
      "name": "Challenged",
      "type": "event"
    },
    {
      "anonymous": false,
      "inputs": [
        {
          "indexed": true,
          "internalType": "address",
          "name": "_claimer",
          "type": "address"
        },
        {
          "indexed": false,
          "internalType": "uint256",
          "name": "_epoch",
          "type": "uint256"
        },
        {
          "indexed": false,
          "internalType": "bytes32",
          "name": "_stateRoot",
          "type": "bytes32"
        }
      ],
      "name": "Claimed",
      "type": "event"
    },
    {
      "anonymous": false,
      "inputs": [
        {
          "indexed": false,
          "internalType": "uint64",
          "name": "_msgId",
          "type": "uint64"
        }
      ],
      "name": "MessageRelayed",
      "type": "event"
    },
    {
      "anonymous": false,
      "inputs": [
        {
          "indexed": false,
          "internalType": "uint256",
          "name": "_epoch",
          "type": "uint256"
        }
      ],
      "name": "VerificationStarted",
      "type": "event"
    },
    {
      "anonymous": false,
      "inputs": [
        {
          "indexed": false,
          "internalType": "uint256",
          "name": "_epoch",
          "type": "uint256"
        }
      ],
      "name": "Verified",
      "type": "event"
    },
    {
      "anonymous": false,
      "inputs": [
        {
          "indexed": false,
          "internalType": "uint256",
          "name": "_requestedSequencerDelayLimit",
          "type": "uint256"
        }
      ],
      "name": "sequencerDelayLimitDecreaseRequested",
      "type": "event"
    },
    {
      "anonymous": false,
      "inputs": [
        {
          "indexed": false,
          "internalType": "uint256",
          "name": "_newSequencerDelayLimit",
          "type": "uint256"
        }
      ],
      "name": "sequencerDelayLimitUpdated",
      "type": "event"
    },
    {
      "inputs": [],
      "name": "bridge",
      "outputs": [
        {
          "internalType": "contract IBridge",
          "name": "",
          "type": "address"
        }
      ],
      "stateMutability": "view",
      "type": "function"
    },
    {
      "inputs": [
        {
          "components": [
            {
              "internalType": "bytes32",
              "name": "stateRoot",
              "type": "bytes32"
            },
            {
              "internalType": "address",
              "name": "claimer",
              "type": "address"
            },
            {
              "internalType": "uint32",
              "name": "timestampClaimed",
              "type": "uint32"
            },
            {
              "internalType": "uint32",
              "name": "timestampVerification",
              "type": "uint32"
            },
            {
              "internalType": "uint32",
              "name": "blocknumberVerification",
              "type": "uint32"
            },
            {
              "internalType": "enum Party",
              "name": "honest",
              "type": "uint8"
            },
            {
              "internalType": "address",
              "name": "challenger",
              "type": "address"
            }
          ],
          "internalType": "struct Claim",
          "name": "_claim",
          "type": "tuple"
        }
      ],
      "name": "censorshipTestStatus",
      "outputs": [
        {
          "internalType": "enum VeaOutboxArbToEth.CensorshipTestStatus",
          "name": "status",
          "type": "uint8"
        }
      ],
      "stateMutability": "view",
      "type": "function"
    },
    {
      "inputs": [
        {
          "internalType": "uint256",
          "name": "_epoch",
          "type": "uint256"
        },
        {
          "components": [
            {
              "internalType": "bytes32",
              "name": "stateRoot",
              "type": "bytes32"
            },
            {
              "internalType": "address",
              "name": "claimer",
              "type": "address"
            },
            {
              "internalType": "uint32",
              "name": "timestampClaimed",
              "type": "uint32"
            },
            {
              "internalType": "uint32",
              "name": "timestampVerification",
              "type": "uint32"
            },
            {
              "internalType": "uint32",
              "name": "blocknumberVerification",
              "type": "uint32"
            },
            {
              "internalType": "enum Party",
              "name": "honest",
              "type": "uint8"
            },
            {
              "internalType": "address",
              "name": "challenger",
              "type": "address"
            }
          ],
          "internalType": "struct Claim",
          "name": "_claim",
          "type": "tuple"
        }
      ],
      "name": "challenge",
      "outputs": [],
      "stateMutability": "payable",
      "type": "function"
    },
    {
      "inputs": [
        {
          "internalType": "address",
          "name": "_devnetOperator",
          "type": "address"
        }
      ],
      "name": "changeDevnetOperator",
      "outputs": [],
      "stateMutability": "nonpayable",
      "type": "function"
    },
    {
      "inputs": [
        {
          "internalType": "uint256",
          "name": "_epoch",
          "type": "uint256"
        },
        {
          "internalType": "bytes32",
          "name": "_stateRoot",
          "type": "bytes32"
        }
      ],
      "name": "claim",
      "outputs": [],
      "stateMutability": "payable",
      "type": "function"
    },
    {
      "inputs": [
        {
          "internalType": "uint256",
          "name": "",
          "type": "uint256"
        }
      ],
      "name": "claimHashes",
      "outputs": [
        {
          "internalType": "bytes32",
          "name": "",
          "type": "bytes32"
        }
      ],
      "stateMutability": "view",
      "type": "function"
    },
    {
      "inputs": [],
      "name": "deposit",
      "outputs": [
        {
          "internalType": "uint256",
          "name": "",
          "type": "uint256"
        }
      ],
      "stateMutability": "view",
      "type": "function"
    },
    {
      "inputs": [
        {
          "internalType": "uint256",
          "name": "_epoch",
          "type": "uint256"
        },
        {
          "internalType": "bytes32",
          "name": "_stateroot",
          "type": "bytes32"
        }
      ],
      "name": "devnetAdvanceState",
      "outputs": [],
      "stateMutability": "payable",
      "type": "function"
    },
    {
      "inputs": [],
      "name": "devnetOperator",
      "outputs": [
        {
          "internalType": "address",
          "name": "",
          "type": "address"
        }
      ],
      "stateMutability": "view",
      "type": "function"
    },
    {
      "inputs": [
        {
          "internalType": "uint256",
          "name": "timestamp",
          "type": "uint256"
        }
      ],
      "name": "epochAt",
      "outputs": [
        {
          "internalType": "uint256",
          "name": "epoch",
          "type": "uint256"
        }
      ],
      "stateMutability": "view",
      "type": "function"
    },
    {
      "inputs": [],
      "name": "epochNow",
      "outputs": [
        {
          "internalType": "uint256",
          "name": "epoch",
          "type": "uint256"
        }
      ],
      "stateMutability": "view",
      "type": "function"
    },
    {
      "inputs": [],
      "name": "epochPeriod",
      "outputs": [
        {
          "internalType": "uint256",
          "name": "",
          "type": "uint256"
        }
      ],
      "stateMutability": "view",
      "type": "function"
    },
    {
      "inputs": [],
      "name": "executeSequencerDelayLimitDecreaseRequest",
      "outputs": [],
      "stateMutability": "nonpayable",
      "type": "function"
    },
    {
      "inputs": [
        {
          "components": [
            {
              "internalType": "bytes32",
              "name": "stateRoot",
              "type": "bytes32"
            },
            {
              "internalType": "address",
              "name": "claimer",
              "type": "address"
            },
            {
              "internalType": "uint32",
              "name": "timestampClaimed",
              "type": "uint32"
            },
            {
              "internalType": "uint32",
              "name": "timestampVerification",
              "type": "uint32"
            },
            {
              "internalType": "uint32",
              "name": "blocknumberVerification",
              "type": "uint32"
            },
            {
              "internalType": "enum Party",
              "name": "honest",
              "type": "uint8"
            },
            {
              "internalType": "address",
              "name": "challenger",
              "type": "address"
            }
          ],
          "internalType": "struct Claim",
          "name": "_claim",
          "type": "tuple"
        }
      ],
      "name": "hashClaim",
      "outputs": [
        {
          "internalType": "bytes32",
          "name": "hashedClaim",
          "type": "bytes32"
        }
      ],
      "stateMutability": "pure",
      "type": "function"
    },
    {
      "inputs": [],
      "name": "latestVerifiedEpoch",
      "outputs": [
        {
          "internalType": "uint256",
          "name": "",
          "type": "uint256"
        }
      ],
      "stateMutability": "view",
      "type": "function"
    },
    {
      "inputs": [],
      "name": "maxMissingBlocks",
      "outputs": [
        {
          "internalType": "uint256",
          "name": "",
          "type": "uint256"
        }
      ],
      "stateMutability": "view",
      "type": "function"
    },
    {
      "inputs": [],
      "name": "minChallengePeriod",
      "outputs": [
        {
          "internalType": "uint256",
          "name": "",
          "type": "uint256"
        }
      ],
      "stateMutability": "view",
      "type": "function"
    },
    {
      "inputs": [
        {
          "internalType": "uint256",
          "name": "",
          "type": "uint256"
        }
      ],
      "name": "relayed",
      "outputs": [
        {
          "internalType": "bytes32",
          "name": "",
          "type": "bytes32"
        }
      ],
      "stateMutability": "view",
      "type": "function"
    },
    {
      "inputs": [
        {
          "internalType": "uint256",
          "name": "_epoch",
          "type": "uint256"
        },
        {
          "internalType": "bytes32",
          "name": "_stateRoot",
          "type": "bytes32"
        },
        {
          "components": [
            {
              "internalType": "bytes32",
              "name": "stateRoot",
              "type": "bytes32"
            },
            {
              "internalType": "address",
              "name": "claimer",
              "type": "address"
            },
            {
              "internalType": "uint32",
              "name": "timestampClaimed",
              "type": "uint32"
            },
            {
              "internalType": "uint32",
              "name": "timestampVerification",
              "type": "uint32"
            },
            {
              "internalType": "uint32",
              "name": "blocknumberVerification",
              "type": "uint32"
            },
            {
              "internalType": "enum Party",
              "name": "honest",
              "type": "uint8"
            },
            {
              "internalType": "address",
              "name": "challenger",
              "type": "address"
            }
          ],
          "internalType": "struct Claim",
          "name": "_claim",
          "type": "tuple"
        }
      ],
      "name": "resolveDisputedClaim",
      "outputs": [],
      "stateMutability": "nonpayable",
      "type": "function"
    },
    {
      "inputs": [
        {
          "internalType": "bytes32[]",
          "name": "_proof",
          "type": "bytes32[]"
        },
        {
          "internalType": "uint64",
          "name": "_msgId",
          "type": "uint64"
        },
        {
          "internalType": "address",
          "name": "_to",
          "type": "address"
        },
        {
          "internalType": "bytes",
          "name": "_message",
          "type": "bytes"
        }
      ],
      "name": "sendMessage",
      "outputs": [],
      "stateMutability": "nonpayable",
      "type": "function"
    },
    {
      "inputs": [],
      "name": "sequencerDelayLimit",
      "outputs": [
        {
          "internalType": "uint256",
          "name": "",
          "type": "uint256"
        }
      ],
      "stateMutability": "view",
      "type": "function"
    },
    {
      "inputs": [],
      "name": "sequencerDelayLimitDecreaseRequest",
      "outputs": [
        {
          "internalType": "uint256",
          "name": "requestedsequencerDelayLimit",
          "type": "uint256"
        },
        {
          "internalType": "uint256",
          "name": "timestamp",
          "type": "uint256"
        }
      ],
      "stateMutability": "view",
      "type": "function"
    },
    {
      "inputs": [
        {
          "internalType": "uint256",
          "name": "_epoch",
          "type": "uint256"
        },
        {
          "components": [
            {
              "internalType": "bytes32",
              "name": "stateRoot",
              "type": "bytes32"
            },
            {
              "internalType": "address",
              "name": "claimer",
              "type": "address"
            },
            {
              "internalType": "uint32",
              "name": "timestampClaimed",
              "type": "uint32"
            },
            {
              "internalType": "uint32",
              "name": "timestampVerification",
              "type": "uint32"
            },
            {
              "internalType": "uint32",
              "name": "blocknumberVerification",
              "type": "uint32"
            },
            {
              "internalType": "enum Party",
              "name": "honest",
              "type": "uint8"
            },
            {
              "internalType": "address",
              "name": "challenger",
              "type": "address"
            }
          ],
          "internalType": "struct Claim",
          "name": "_claim",
          "type": "tuple"
        }
      ],
      "name": "startVerification",
      "outputs": [],
      "stateMutability": "nonpayable",
      "type": "function"
    },
    {
      "inputs": [],
      "name": "stateRoot",
      "outputs": [
        {
          "internalType": "bytes32",
          "name": "",
          "type": "bytes32"
        }
      ],
      "stateMutability": "view",
      "type": "function"
    },
    {
      "inputs": [],
      "name": "timeoutEpochs",
      "outputs": [
        {
          "internalType": "uint256",
          "name": "",
          "type": "uint256"
        }
      ],
      "stateMutability": "view",
      "type": "function"
    },
    {
      "inputs": [],
      "name": "updateSequencerDelayLimit",
      "outputs": [],
      "stateMutability": "nonpayable",
      "type": "function"
    },
    {
      "inputs": [],
      "name": "veaInboxArbToEth",
      "outputs": [
        {
          "internalType": "address",
          "name": "",
          "type": "address"
        }
      ],
      "stateMutability": "view",
      "type": "function"
    },
    {
      "inputs": [
        {
          "internalType": "uint256",
          "name": "_epoch",
          "type": "uint256"
        },
        {
          "components": [
            {
              "internalType": "bytes32",
              "name": "stateRoot",
              "type": "bytes32"
            },
            {
              "internalType": "address",
              "name": "claimer",
              "type": "address"
            },
            {
              "internalType": "uint32",
              "name": "timestampClaimed",
              "type": "uint32"
            },
            {
              "internalType": "uint32",
              "name": "timestampVerification",
              "type": "uint32"
            },
            {
              "internalType": "uint32",
              "name": "blocknumberVerification",
              "type": "uint32"
            },
            {
              "internalType": "enum Party",
              "name": "honest",
              "type": "uint8"
            },
            {
              "internalType": "address",
              "name": "challenger",
              "type": "address"
            }
          ],
          "internalType": "struct Claim",
          "name": "_claim",
          "type": "tuple"
        }
      ],
      "name": "verifySnapshot",
      "outputs": [],
      "stateMutability": "nonpayable",
      "type": "function"
    },
    {
      "inputs": [
        {
          "internalType": "uint256",
          "name": "_epoch",
          "type": "uint256"
        },
        {
          "components": [
            {
              "internalType": "bytes32",
              "name": "stateRoot",
              "type": "bytes32"
            },
            {
              "internalType": "address",
              "name": "claimer",
              "type": "address"
            },
            {
              "internalType": "uint32",
              "name": "timestampClaimed",
              "type": "uint32"
            },
            {
              "internalType": "uint32",
              "name": "timestampVerification",
              "type": "uint32"
            },
            {
              "internalType": "uint32",
              "name": "blocknumberVerification",
              "type": "uint32"
            },
            {
              "internalType": "enum Party",
              "name": "honest",
              "type": "uint8"
            },
            {
              "internalType": "address",
              "name": "challenger",
              "type": "address"
            }
          ],
          "internalType": "struct Claim",
          "name": "_claim",
          "type": "tuple"
        }
      ],
      "name": "withdrawChallengeDeposit",
      "outputs": [],
      "stateMutability": "nonpayable",
      "type": "function"
    },
    {
      "inputs": [
        {
          "internalType": "uint256",
          "name": "_epoch",
          "type": "uint256"
        },
        {
          "components": [
            {
              "internalType": "bytes32",
              "name": "stateRoot",
              "type": "bytes32"
            },
            {
              "internalType": "address",
              "name": "claimer",
              "type": "address"
            },
            {
              "internalType": "uint32",
              "name": "timestampClaimed",
              "type": "uint32"
            },
            {
              "internalType": "uint32",
              "name": "timestampVerification",
              "type": "uint32"
            },
            {
              "internalType": "uint32",
              "name": "blocknumberVerification",
              "type": "uint32"
            },
            {
              "internalType": "enum Party",
              "name": "honest",
              "type": "uint8"
            },
            {
              "internalType": "address",
              "name": "challenger",
              "type": "address"
            }
          ],
          "internalType": "struct Claim",
          "name": "_claim",
          "type": "tuple"
        }
      ],
      "name": "withdrawChallengerEscapeHatch",
      "outputs": [],
      "stateMutability": "nonpayable",
      "type": "function"
    },
    {
      "inputs": [
        {
          "internalType": "uint256",
          "name": "_epoch",
          "type": "uint256"
        },
        {
          "components": [
            {
              "internalType": "bytes32",
              "name": "stateRoot",
              "type": "bytes32"
            },
            {
              "internalType": "address",
              "name": "claimer",
              "type": "address"
            },
            {
              "internalType": "uint32",
              "name": "timestampClaimed",
              "type": "uint32"
            },
            {
              "internalType": "uint32",
              "name": "timestampVerification",
              "type": "uint32"
            },
            {
              "internalType": "uint32",
              "name": "blocknumberVerification",
              "type": "uint32"
            },
            {
              "internalType": "enum Party",
              "name": "honest",
              "type": "uint8"
            },
            {
              "internalType": "address",
              "name": "challenger",
              "type": "address"
            }
          ],
          "internalType": "struct Claim",
          "name": "_claim",
          "type": "tuple"
        }
      ],
      "name": "withdrawClaimDeposit",
      "outputs": [],
      "stateMutability": "nonpayable",
      "type": "function"
    },
    {
      "inputs": [
        {
          "internalType": "uint256",
          "name": "_epoch",
          "type": "uint256"
        },
        {
          "components": [
            {
              "internalType": "bytes32",
              "name": "stateRoot",
              "type": "bytes32"
            },
            {
              "internalType": "address",
              "name": "claimer",
              "type": "address"
            },
            {
              "internalType": "uint32",
              "name": "timestampClaimed",
              "type": "uint32"
            },
            {
              "internalType": "uint32",
              "name": "timestampVerification",
              "type": "uint32"
            },
            {
              "internalType": "uint32",
              "name": "blocknumberVerification",
              "type": "uint32"
            },
            {
              "internalType": "enum Party",
              "name": "honest",
              "type": "uint8"
            },
            {
              "internalType": "address",
              "name": "challenger",
              "type": "address"
            }
          ],
          "internalType": "struct Claim",
          "name": "_claim",
          "type": "tuple"
        }
      ],
      "name": "withdrawClaimerEscapeHatch",
      "outputs": [],
      "stateMutability": "nonpayable",
      "type": "function"
    }
  ],
  "transactionHash": "0xa710d88bcc4365d2a793f0c7cf746745fc3d35f6380ffe380491656e351d837f",
  "args": [
    "1000000000000000",
    1800,
    0,
    10000000000000,
    "0xe81afBecf7d0bB755fB9f1fb417b95Bf924534e6",
    "0xaf4159A80B6Cc41ED517DB1c453d1Ef5C2e4dB72",
    10000000000000
  ],
  "numDeployments": 3,
  "solcInputHash": "6b0b750c6eee9aa0a5e450d1f0bbb2d2",
  "bytecode": "0x6101a06040523480156200001257600080fd5b5060405162002a4b38038062002a4b8339810160408190526200003591620002ee565b60c08790526101208690526101408590526101608490526001600160a01b0380841660a05282166080526101808190528686868686868662000076620000ee565b620000836002886200036c565b60e0819052620000958860026200038f565b620000a19190620003af565b6101005261012051600190620000b890426200036c565b620000c49190620003af565b6001555050600780546001600160a01b0319163317905550620004219a5050505050505050505050565b60006080516001600160a01b031663ee35f3276040518163ffffffff1660e01b8152600401602060405180830381865afa15801562000131573d6000803e3d6000fd5b505050506040513d601f19601f82011682018060405250810190620001579190620003c5565b6001600160a01b031663ebea461d6040518163ffffffff1660e01b8152600401608060405180830381865afa15801562000195573d6000803e3d6000fd5b505050506040513d601f19601f82011682018060405250810190620001bb9190620003ea565b5092505050600454811115620002065760048190556040518181527f611c2e4a78552f908fb0eb2cc503efc1f947cde8574277ab3b0f10fdd510258b9060200160405180910390a150565b600454811015620002ce5760065415620002805760405162461bcd60e51b815260206004820152603160248201527f53657175656e636572206c696d697420646563726561736520726571756573746044820152701030b63932b0b23c903832b73234b7339760791b606482015260840160405180910390fd5b604080518082018252828152426020918201819052600584905560065590518281527fa552b382e128c9d0732f01f09502c18999aec5dce0ed78c5af0ea2274ce9bd7d910160405180910390a15b50565b80516001600160a01b0381168114620002e957600080fd5b919050565b600080600080600080600060e0888a0312156200030a57600080fd5b875196506020880151955060408801519450606088015193506200033160808901620002d1565b92506200034160a08901620002d1565b915060c0880151905092959891949750929550565b634e487b7160e01b600052601160045260246000fd5b6000826200038a57634e487b7160e01b600052601260045260246000fd5b500490565b8082028115828204841417620003a957620003a962000356565b92915050565b81810381811115620003a957620003a962000356565b600060208284031215620003d857600080fd5b620003e382620002d1565b9392505050565b600080600080608085870312156200040157600080fd5b505082516020840151604085015160609095015191969095509092509050565b60805160a05160c05160e05161010051610120516101405161016051610180516124fc6200054f600039600081816104b60152611eb00152600081816104ea01528181610ad7015281816118d801528181611a630152611c6f0152600081816105720152611e4401526000818161051e01528181610afb01528181610e04015281816115d2015281816118fc01528181611a870152611c9301526000818161135f015261149801526000818161130c01526114500152600081816105a6015281816106b2015281816108390152818161086601528181610e47015281816114e801528181611bcd01528181611c340152611dda0152600081816103c70152610be5015260008181610627015281816109bc01528181610b7601528181610c0f015261165301526124fc6000f3fe6080604052600436106101e35760003560e01c80638a619a7111610102578063b633b94411610095578063df19e6ff11610064578063df19e6ff146105e8578063e78cea9214610615578063e813a75514610649578063eedcf2a91461065f57600080fd5b8063b633b94414610540578063c2114a1614610560578063d0e30db014610594578063da2b7bc4146105c857600080fd5b80639588eca2116100d15780639588eca21461048e578063aa22a1c6146104a4578063b044397e146104d8578063b5b7a1841461050c57600080fd5b80638a619a71146104015780638ad3a8f71461042157806390df63b714610441578063930f28af1461046e57600080fd5b806331ddf7431161017a5780634a439cfe116101495780634a439cfe14610360578063541adcca146103805780635f43a47f146103a057806369cd250d146103b557600080fd5b806331ddf743146102e05780633ce43cfd146103005780634788cb381461032057806349b4299e1461034057600080fd5b8063222ae786116101b6578063222ae786146102675780632639c0601461028a57806327ee6bdd146102b757806331d14457146102cd57600080fd5b806301139b68146101e8578063051d1970146101fd5780630c63fa84146102325780630f0adca514610247575b600080fd5b6101fb6101f636600461206a565b610672565b005b34801561020957600080fd5b50600554600654610218919082565b604080519283526020830191909152015b60405180910390f35b34801561023e57600080fd5b506101fb6108b0565b34801561025357600080fd5b506101fb610262366004612098565b610ad5565b34801561027357600080fd5b5061027c610dfd565b604051908152602001610229565b34801561029657600080fd5b5061027c6102a53660046120cf565b60026020526000908152604090205481565b3480156102c357600080fd5b5061027c60015481565b6101fb6102db3660046120e8565b610e2e565b3480156102ec57600080fd5b506101fb6102fb36600461216b565b610fb5565b34801561030c57600080fd5b506101fb61031b36600461222d565b611255565b34801561032c57600080fd5b506101fb61033b36600461206a565b61139c565b34801561034c57600080fd5b506101fb61035b36600461206a565b611520565b34801561036c57600080fd5b5061027c61037b3660046120cf565b6115cb565b34801561038c57600080fd5b5061027c61039b366004612266565b6115fd565b3480156103ac57600080fd5b506101fb61164f565b3480156103c157600080fd5b506103e97f000000000000000000000000000000000000000000000000000000000000000081565b6040516001600160a01b039091168152602001610229565b34801561040d57600080fd5b506101fb61041c366004612289565b611843565b34801561042d57600080fd5b506007546103e9906001600160a01b031681565b34801561044d57600080fd5b5061027c61045c3660046120cf565b60036020526000908152604090205481565b34801561047a57600080fd5b506101fb61048936600461206a565b6118d6565b34801561049a57600080fd5b5061027c60005481565b3480156104b057600080fd5b5061027c7f000000000000000000000000000000000000000000000000000000000000000081565b3480156104e457600080fd5b5061027c7f000000000000000000000000000000000000000000000000000000000000000081565b34801561051857600080fd5b5061027c7f000000000000000000000000000000000000000000000000000000000000000081565b34801561054c57600080fd5b506101fb61055b36600461206a565b611a61565b34801561056c57600080fd5b5061027c7f000000000000000000000000000000000000000000000000000000000000000081565b3480156105a057600080fd5b5061027c7f000000000000000000000000000000000000000000000000000000000000000081565b3480156105d457600080fd5b506101fb6105e336600461206a565b611c6d565b3480156105f457600080fd5b50610608610603366004612266565b611e26565b60405161022991906122bc565b34801561062157600080fd5b506103e97f000000000000000000000000000000000000000000000000000000000000000081565b34801561065557600080fd5b5061027c60045481565b6101fb61066d3660046120e8565b611eed565b61067b816115fd565b600083815260026020526040902054146106b05760405162461bcd60e51b81526004016106a7906122d6565b60405180910390fd5b7f00000000000000000000000000000000000000000000000000000000000000003410156107205760405162461bcd60e51b815260206004820152601f60248201527f496e73756666696369656e74206368616c6c656e6765206465706f7369742e0060448201526064016106a7565b60c08101516001600160a01b03161561077b5760405162461bcd60e51b815260206004820152601960248201527f436c61696d20616c7265616479206368616c6c656e6765642e0000000000000060448201526064016106a7565b60008160a001516002811115610793576107936122a6565b146107e05760405162461bcd60e51b815260206004820152601760248201527f436c61696d20616c72656164792076657269666965642e00000000000000000060448201526064016106a7565b3360c08201526107ef816115fd565b600083815260026020908152604091829020929092555183815233917fcfe09ca25f55d949baba5e280f5750c9ba4b9048fca5532f916067d433afe4d791015b60405180910390a27f00000000000000000000000000000000000000000000000000000000000000003411156108ac57600061088b7f000000000000000000000000000000000000000000000000000000000000000034612314565b604051909150339082156108fc029083906000818181858888f15050505050505b5050565b6006546000036109175760405162461bcd60e51b815260206004820152602c60248201527f4e6f2070656e64696e672073657175656e636572206c696d697420646563726560448201526b30b9b2903932b8bab2b9ba1760a11b60648201526084016106a7565b6004546006546109279190612327565b42116109905760405162461bcd60e51b815260206004820152603260248201527f53657175656e636572206c696d697420646563726561736520726571756573746044820152711034b99039ba34b636103832b73234b7339760711b60648201526084016106a7565b6005805460009182905560068290556040805163ee35f32760e01b815290519192916001600160a01b037f0000000000000000000000000000000000000000000000000000000000000000169163ee35f3279160048083019260209291908290030181865afa158015610a07573d6000803e3d6000fd5b505050506040513d601f19601f82011682018060405250810190610a2b919061233a565b6001600160a01b031663ebea461d6040518163ffffffff1660e01b8152600401608060405180830381865afa158015610a68573d6000803e3d6000fd5b505050506040513d601f19601f82011682018060405250810190610a8c9190612357565b50925050508181036108ac5760048290556040518281527f611c2e4a78552f908fb0eb2cc503efc1f947cde8574277ab3b0f10fdd510258b906020015b60405180910390a15050565b7f00000000000000000000000000000000000000000000000000000000000000006001547f00000000000000000000000000000000000000000000000000000000000000004281610b2857610b2861238d565b04031115610b6b5760405162461bcd60e51b815260206004820152601060248201526f213934b233b29029b43aba3237bbb71760811b60448201526064016106a7565b336001600160a01b037f00000000000000000000000000000000000000000000000000000000000000001614610be35760405162461bcd60e51b815260206004820181905260248201527f4e6f742066726f6d206e617469766520617262697472756d206272696467652e60448201526064016106a7565b7f00000000000000000000000000000000000000000000000000000000000000006001600160a01b03167f00000000000000000000000000000000000000000000000000000000000000006001600160a01b031663ab5d89436040518163ffffffff1660e01b8152600401602060405180830381865afa158015610c6b573d6000803e3d6000fd5b505050506040513d601f19601f82011682018060405250810190610c8f919061233a565b6001600160a01b03166380648b026040518163ffffffff1660e01b8152600401602060405180830381865afa158015610ccc573d6000803e3d6000fd5b505050506040513d601f19601f82011682018060405250810190610cf0919061233a565b6001600160a01b031614610d3f5760405162461bcd60e51b81526020600482015260166024820152753b32b0a4b73137bc20b9312a37a2ba341037b7363c9760511b60448201526064016106a7565b60015483118015610d4f57508115155b15610d9257600183905560008290556040518381527ff786e7f77ede00a02a5464f8f0555798f42ba99a4a920ef2778db8d75e4656f79060200160405180910390a15b610d9b816115fd565b60008481526002602052604090205403610df8578051829003610dc457600160a0820152610ddf565b60c08101516001600160a01b031615610ddf57600260a08201525b610de8816115fd565b6000848152600260205260409020555b505050565b6000610e297f0000000000000000000000000000000000000000000000000000000000000000426123a3565b905090565b6007546001600160a01b03163314610e4557600080fd5b7f0000000000000000000000000000000000000000000000000000000000000000341015610eb55760405162461bcd60e51b815260206004820152601b60248201527f496e73756666696369656e7420636c61696d206465706f7369742e000000000060448201526064016106a7565b80610ed25760405162461bcd60e51b81526004016106a7906122d6565b60008281526002602052604090205415610f245760405162461bcd60e51b815260206004820152601360248201527221b630b4b69030b63932b0b23c9036b0b2329760691b60448201526064016106a7565b6040805160e0810182528281523360208201524263ffffffff16918101919091526000606082018190526080820181905260a0820181905260c0820152610f6a906115fd565b60008381526002602090815260409182902092909255805184815291820183905233917fd95107f4584744c6c893a04c43058aadd1ce8aac8ca5d64140eaf277de6c1d57910161082f565b60408510610ff75760405162461bcd60e51b815260206004820152600f60248201526e283937b7b3103a37b7903637b7339760891b60448201526064016106a7565b60008484848460405160200161101094939291906123c5565b604051602081830303815290604052805190602001209050806000526020600020905060005b8681101561109057600088888381811061105257611052612407565b9050602002013590508281111561107757826000528060205260406000209250611087565b8060005282602052604060002092505b50600101611036565b5080600054146110d35760405162461bcd60e51b815260206004820152600e60248201526d24b73b30b634b210383937b7b31760911b60448201526064016106a7565b600885901c66ffffffffffffff1660008181526003602052604090205460ff87169080821c600116156111485760405162461bcd60e51b815260206004820152601760248201527f4d65737361676520616c72656164792072656c6179656400000000000000000060448201526064016106a7565b6000838152600360205260408082206001851b84179055516001600160a01b03891690611178908990899061241d565b6000604051808303816000865af19150503d80600081146111b5576040519150601f19603f3d011682016040523d82523d6000602084013e6111ba565b606091505b505090508061120b5760405162461bcd60e51b815260206004820152601760248201527f4661696c656420746f2063616c6c20636f6e747261637400000000000000000060448201526064016106a7565b60405167ffffffffffffffff8a1681527f54303fab361bc52c2f1f56ace7351189582264f74ce47a6e7c3f478d64c429439060200160405180910390a15050505050505050505050565b61126761039b36839003830183612266565b600083815260026020526040902054146112935760405162461bcd60e51b81526004016106a7906122d6565b60026112a560c0830160a0840161242d565b60028111156112b6576112b66122a6565b146112f75760405162461bcd60e51b815260206004820152601160248201527021b430b63632b733b2903330b4b632b21760791b60448201526064016106a7565b600082815260026020526040808220829055517f000000000000000000000000000000000000000000000000000000000000000080156108fc029183818181858288f15061135193505060e0840191505060c08301612289565b6001600160a01b03166108fc7f00000000000000000000000000000000000000000000000000000000000000009081150290604051600060405180830381858888f150505050505050565b6113a5816115fd565b600083815260026020526040902054146113d15760405162461bcd60e51b81526004016106a7906122d6565b60018160a0015160028111156113e9576113e96122a6565b146114265760405162461bcd60e51b815260206004820152600d60248201526c21b630b4b6903330b4b632b21760991b60448201526064016106a7565b60008281526002602052604081205560c08101516001600160a01b0316156114d2576040516000907f000000000000000000000000000000000000000000000000000000000000000080156108fc029183818181858288f150505060208301516040516001600160a01b0390911692507f000000000000000000000000000000000000000000000000000000000000000080156108fc029250906000818181858888f150505050505050565b60208101516040516001600160a01b03909116907f000000000000000000000000000000000000000000000000000000000000000080156108fc02916000818181858888f150505050505050565b6007546001600160a01b0316331461153757600080fd5b611540816115fd565b6000838152600260205260409020541461156c5760405162461bcd60e51b81526004016106a7906122d6565b63ffffffff428116606083015243166080820152611589816115fd565b60008381526002602090815260409182902092909255518381527f37b700b61b9b4710dddb0c3316b2be7ef6088ed4b1d7bfe0fb98be8f9a163e169101610ac9565b60006115f77f0000000000000000000000000000000000000000000000000000000000000000836123a3565b92915050565b80516020808301516040808501516060860151608087015160a088015160c08901519451600098611632989097969101612448565b604051602081830303815290604052805190602001209050919050565b60007f00000000000000000000000000000000000000000000000000000000000000006001600160a01b031663ee35f3276040518163ffffffff1660e01b8152600401602060405180830381865afa1580156116af573d6000803e3d6000fd5b505050506040513d601f19601f820116820180604052508101906116d3919061233a565b6001600160a01b031663ebea461d6040518163ffffffff1660e01b8152600401608060405180830381865afa158015611710573d6000803e3d6000fd5b505050506040513d601f19601f820116820180604052508101906117349190612357565b509250505060045481111561177e5760048190556040518181527f611c2e4a78552f908fb0eb2cc503efc1f947cde8574277ab3b0f10fdd510258b9060200160405180910390a150565b60045481101561184057600654156117f25760405162461bcd60e51b815260206004820152603160248201527f53657175656e636572206c696d697420646563726561736520726571756573746044820152701030b63932b0b23c903832b73234b7339760791b60648201526084016106a7565b604080518082018252828152426020918201819052600584905560065590518281527fa552b382e128c9d0732f01f09502c18999aec5dce0ed78c5af0ea2274ce9bd7d910160405180910390a15b50565b6007546001600160a01b0316331461185a57600080fd5b6007546001600160a01b031633146118b45760405162461bcd60e51b815260206004820152601860248201527f496e76616c696420546573746e6574204f70657261746f72000000000000000060448201526064016106a7565b600780546001600160a01b0319166001600160a01b0392909216919091179055565b7f00000000000000000000000000000000000000000000000000000000000000006001547f000000000000000000000000000000000000000000000000000000000000000042816119295761192961238d565b0403111561196c5760405162461bcd60e51b815260206004820152601060248201526f213934b233b29029b43aba3237bbb71760811b60448201526064016106a7565b611975816115fd565b600083815260026020526040902054146119a15760405162461bcd60e51b81526004016106a7906122d6565b60c08101516001600160a01b0316156119f35760405162461bcd60e51b815260206004820152601460248201527321b630b4b69034b99031b430b63632b733b2b21760611b60448201526064016106a7565b600154821115611a3b57600182905580516000556040518281527ff786e7f77ede00a02a5464f8f0555798f42ba99a4a920ef2778db8d75e4656f79060200160405180910390a15b600160a0820152611a4b816115fd565b6000928352600260205260409092209190915550565b7f00000000000000000000000000000000000000000000000000000000000000006001547f00000000000000000000000000000000000000000000000000000000000000004281611ab457611ab461238d565b040311611af55760405162461bcd60e51b815260206004820152600f60248201526e213934b233b290293ab73734b7339760891b60448201526064016106a7565b611afe816115fd565b60008381526002602052604090205414611b2a5760405162461bcd60e51b81526004016106a7906122d6565b60008160a001516002811115611b4257611b426122a6565b14611b815760405162461bcd60e51b815260206004820152600f60248201526e21b630b4b6903932b9b7b63b32b21760891b60448201526064016106a7565b60c08101516001600160a01b0316156108ac5760208101516001600160a01b0316611c055760008281526002602052604080822082905560c083015190516001600160a01b03909116917f000000000000000000000000000000000000000000000000000000000000000080156108fc02929091818181858888f150505050505050565b60c0810180516000909152611c19826115fd565b50600083815260026020526040516001600160a01b038316917f000000000000000000000000000000000000000000000000000000000000000080156108fc02929091818181858888f15050505050505050565b7f00000000000000000000000000000000000000000000000000000000000000006001547f00000000000000000000000000000000000000000000000000000000000000004281611cc057611cc061238d565b040311611d015760405162461bcd60e51b815260206004820152600f60248201526e213934b233b290293ab73734b7339760891b60448201526064016106a7565b611d0a816115fd565b60008381526002602052604090205414611d365760405162461bcd60e51b81526004016106a7906122d6565b60008160a001516002811115611d4e57611d4e6122a6565b14611d8d5760405162461bcd60e51b815260206004820152600f60248201526e21b630b4b6903932b9b7b63b32b21760891b60448201526064016106a7565b60208101516001600160a01b0316156108ac5760c08101516001600160a01b0316611e125760008281526002602090815260408083208390559083015190516001600160a01b03909116917f000000000000000000000000000000000000000000000000000000000000000080156108fc02929091818181858888f150505050505050565b6020810180516000909152611c19826115fd565b6000816060015163ffffffff16600003611e4257506002919050565b7f0000000000000000000000000000000000000000000000000000000000000000826060015163ffffffff1642031015611e7e57506003919050565b6000600c836060015163ffffffff16420381611e9c57611e9c61238d565b608085015163ffffffff16919004019050437f000000000000000000000000000000000000000000000000000000000000000081830311611ee05760019250611ee5565b600092505b50505b919050565b611ef78282610e2e565b6040805160e0810182528281523360208201524263ffffffff16918101919091526000606082018190526080820181905260a0820181905260c0820152611f3e8382611520565b63ffffffff428116606083015243166080820152611f5c83826118d6565b600160a0820152610df8838261139c565b6001600160a01b038116811461184057600080fd5b8035611ee881611f6d565b803563ffffffff81168114611ee857600080fd5b803560038110611ee857600080fd5b600060e08284031215611fc257600080fd5b60405160e0810181811067ffffffffffffffff82111715611ff357634e487b7160e01b600052604160045260246000fd5b6040528235815290508061200960208401611f82565b602082015261201a60408401611f8d565b604082015261202b60608401611f8d565b606082015261203c60808401611f8d565b608082015261204d60a08401611fa1565b60a082015261205e60c08401611f82565b60c08201525092915050565b600080610100838503121561207e57600080fd5b8235915061208f8460208501611fb0565b90509250929050565b600080600061012084860312156120ae57600080fd5b83359250602084013591506120c68560408601611fb0565b90509250925092565b6000602082840312156120e157600080fd5b5035919050565b600080604083850312156120fb57600080fd5b50508035926020909101359150565b803567ffffffffffffffff81168114611ee857600080fd5b60008083601f84011261213457600080fd5b50813567ffffffffffffffff81111561214c57600080fd5b60208301915083602082850101111561216457600080fd5b9250929050565b6000806000806000806080878903121561218457600080fd5b863567ffffffffffffffff8082111561219c57600080fd5b818901915089601f8301126121b057600080fd5b8135818111156121bf57600080fd5b8a60208260051b85010111156121d457600080fd5b602083019850809750506121ea60208a0161210a565b95506121f860408a01611f82565b9450606089013591508082111561220e57600080fd5b5061221b89828a01612122565b979a9699509497509295939492505050565b60008082840361010081121561224257600080fd5b8335925060e0601f198201121561225857600080fd5b506020830190509250929050565b600060e0828403121561227857600080fd5b6122828383611fb0565b9392505050565b60006020828403121561229b57600080fd5b813561228281611f6d565b634e487b7160e01b600052602160045260246000fd5b60208101600483106122d0576122d06122a6565b91905290565b6020808252600e908201526d24b73b30b634b21031b630b4b69760911b604082015260600190565b634e487b7160e01b600052601160045260246000fd5b818103818111156115f7576115f76122fe565b808201808211156115f7576115f76122fe565b60006020828403121561234c57600080fd5b815161228281611f6d565b6000806000806080858703121561236d57600080fd5b505082516020840151604085015160609095015191969095509092509050565b634e487b7160e01b600052601260045260246000fd5b6000826123c057634e487b7160e01b600052601260045260246000fd5b500490565b60c085901b6001600160c01b0319168152606084901b6bffffffffffffffffffffffff191660088201528183601c83013760009101601c019081529392505050565b634e487b7160e01b600052603260045260246000fd5b8183823760009101908152919050565b60006020828403121561243f57600080fd5b61228282611fa1565b87815260006bffffffffffffffffffffffff19808960601b16602084015263ffffffff60e01b808960e01b166034850152808860e01b166038850152808760e01b16603c85015250600385106124a0576124a06122a6565b60f89490941b60408301525060609190911b90911660418201526055019594505050505056fea26469706673582212202e6d7450550becfa9dbdb8cdfba00c4bceb171e206d60b855763ac61ae1a6e4f64736f6c63430008120033",
  "devdoc": {
    "details": "Vea Outbox From ArbitrumGoerli to Goerli. Note: This contract is deployed on Goerli. Note: This contract is permissioned for developer testing (devnet).",
    "events": {
      "Challenged(uint256,address)": {
        "details": "This event indicates that `sendSnapshot(epoch)` should be called in the inbox.",
        "params": {
          "_challenger": "The address of the challenger.",
          "_epoch": "The epoch associated with the challenged claim."
        }
      },
      "Claimed(address,uint256,bytes32)": {
        "details": "Watchers check this event to challenge fraud.",
        "params": {
          "_claimer": "The address of the claimer.",
          "_epoch": "The epoch associated with the claim.",
          "_stateRoot": "The state root of the claim."
        }
      },
      "MessageRelayed(uint64)": {
        "details": "This event indicates that a message has been relayed.",
        "params": {
          "_msgId": "The msgId of the message that was relayed."
        }
      },
      "VerificationStarted(uint256)": {
        "details": "This event indicates that the censorship test started and all challengers are ready even in the worst case scenario of a malicious sequencer.",
        "params": {
          "_epoch": "The epoch that started verification."
        }
      },
      "Verified(uint256)": {
        "details": "This events indicates that verification has succeeded. The messages are ready to be relayed.",
        "params": {
          "_epoch": "The epoch that was verified."
        }
      },
      "sequencerDelayLimitDecreaseRequested(uint256)": {
        "details": "This event indicates that a request to decrease the sequencer limit has been made.",
        "params": {
          "_requestedSequencerDelayLimit": "The new sequencer delay limit requested."
        }
      },
      "sequencerDelayLimitUpdated(uint256)": {
        "details": "This event indicates the sequencer limit updated.",
        "params": {
          "_newSequencerDelayLimit": "The new sequencer delay limit."
        }
      }
    },
    "kind": "dev",
    "methods": {
      "censorshipTestStatus((bytes32,address,uint32,uint32,uint32,uint8,address))": {
        "details": "Gets the status of the censorship test for claim.",
        "params": {
          "_claim": "The claim to test."
        },
        "returns": {
          "status": "True if the claim passed the censorship test."
        }
      },
      "challenge(uint256,(bytes32,address,uint32,uint32,uint32,uint8,address))": {
        "details": "Submit a challenge for the claim of the inbox state root snapshot taken at 'epoch'.",
        "params": {
          "_claim": "The claim associated with the epoch.",
          "_epoch": "The epoch of the claim to challenge."
        }
      },
      "changeDevnetOperator(address)": {
        "details": "Changes the devnet operator.",
        "params": {
          "_devnetOperator": "The new testnet operator."
        }
      },
      "claim(uint256,bytes32)": {
        "details": "Submit a claim about the _stateRoot at _epoch and submit a deposit.",
        "params": {
          "_epoch": "The epoch for which the claim is made.",
          "_stateRoot": "The state root to claim."
        }
      },
      "constructor": {
        "details": "Constructor.",
        "params": {
          "_deposit": "The deposit amount to submit a claim in wei.",
          "_epochPeriod": "The duration of each epoch.",
          "_maxMissingBlocks": "The maximum number of blocks that can be missing in a challenge period.",
          "_minChallengePeriod": "The minimum time window to challenge a claim.",
          "_timeoutEpochs": "The epochs before the bridge is considered shutdown.",
          "_veaInboxArbToEthDevnet": "The address of the inbox contract on Arbitrum."
        }
      },
      "devnetAdvanceState(uint256,bytes32)": {
        "details": "Testnet operator utility function to claim, validate and withdraw.",
        "params": {
          "_epoch": "The epoch for which the claim is made.",
          "_stateroot": "The state root to claim."
        }
      },
      "epochAt(uint256)": {
        "details": "Get the current epoch from the outbox's point of view using the Ethereum L1 clock.",
        "returns": {
          "epoch": "The hash of the claim."
        }
      },
      "epochNow()": {
        "details": "Get the current epoch from the outbox's point of view using the Ethereum L1 clock.",
        "returns": {
          "epoch": "The hash of the claim."
        }
      },
      "executeSequencerDelayLimitDecreaseRequest()": {
        "details": "execute sequencerDelayLimitDecreaseRequest"
      },
      "hashClaim((bytes32,address,uint32,uint32,uint32,uint8,address))": {
        "details": "Hashes the claim.",
        "params": {
          "_claim": "The claim to hash."
        },
        "returns": {
          "hashedClaim": "The hash of the claim."
        }
      },
      "resolveDisputedClaim(uint256,bytes32,(bytes32,address,uint32,uint32,uint32,uint8,address))": {
        "details": "Resolves any challenge of the optimistic claim for '_epoch'.",
        "params": {
          "_claim": "The claim associated with the epoch.",
          "_epoch": "The epoch to verify.",
          "_stateRoot": "The true state root for the epoch."
        }
      },
      "sendMessage(bytes32[],uint64,address,bytes)": {
        "details": "Verifies and relays the message. UNTRUSTED.",
        "params": {
          "_message": "The message encoded in the vea inbox as abi.encodeWithSelector(fnSelector, msg.sender, param1, param2, ...)",
          "_msgId": "The zero based index of the message in the inbox.",
          "_proof": "The merkle proof to prove the message inclusion in the inbox state root.",
          "_to": "The address of the contract on Ethereum to call."
        }
      },
      "startVerification(uint256,(bytes32,address,uint32,uint32,uint32,uint8,address))": {
        "details": "Start verification for claim for 'epoch'.",
        "params": {
          "_claim": "The claim associated with the epoch.",
          "_epoch": "The epoch of the claim to challenge."
        }
      },
      "updateSequencerDelayLimit()": {
        "details": "Request to decrease the sequencerDelayLimit."
      },
      "verifySnapshot(uint256,(bytes32,address,uint32,uint32,uint32,uint8,address))": {
        "details": "Resolves the optimistic claim for '_epoch'.",
        "params": {
          "_claim": "The claim associated with the epoch.",
          "_epoch": "The epoch of the optimistic claim."
        }
      },
      "withdrawChallengeDeposit(uint256,(bytes32,address,uint32,uint32,uint32,uint8,address))": {
        "details": "Sends the deposit back to the Challenger if successful. Includes a portion of the Bridger's deposit.",
        "params": {
          "_claim": "The claim associated with the epoch.",
          "_epoch": "The epoch associated with the challenge deposit to withraw."
        }
      },
      "withdrawChallengerEscapeHatch(uint256,(bytes32,address,uint32,uint32,uint32,uint8,address))": {
        "details": "When bridge is shutdown, no claim disputes can be resolved. This allows the challenger to withdraw their deposit.",
        "params": {
          "_claim": "The claim associated with the epoch.",
          "_epoch": "The epoch associated with the claim deposit to withraw."
        }
      },
      "withdrawClaimDeposit(uint256,(bytes32,address,uint32,uint32,uint32,uint8,address))": {
        "details": "Sends the deposit back to the Bridger if their claim is not successfully challenged. Includes a portion of the Challenger's deposit if unsuccessfully challenged.",
        "params": {
          "_claim": "The claim associated with the epoch.",
          "_epoch": "The epoch associated with the claim deposit to withraw."
        }
      },
      "withdrawClaimerEscapeHatch(uint256,(bytes32,address,uint32,uint32,uint32,uint8,address))": {
        "details": "When bridge is shutdown, no claim disputes can be resolved. This allows the claimer to withdraw their deposit.",
        "params": {
          "_claim": "The claim associated with the epoch.",
          "_epoch": "The epoch associated with the claim deposit to withraw."
        }
      }
    },
    "version": 1
  },
  "userdoc": {
    "kind": "user",
    "methods": {
      "resolveDisputedClaim(uint256,bytes32,(bytes32,address,uint32,uint32,uint32,uint8,address))": {
        "notice": "Note: Access restricted to arbitrum  bridge."
      }
    },
    "version": 1
  },
  "storageLayout": {
    "storage": [
      {
        "astId": 38,
        "contract": "src/devnets/arbitrumToEth/VeaOutboxArbToEthDevnet.sol:VeaOutboxArbToEthDevnet",
        "label": "stateRoot",
        "offset": 0,
        "slot": "0",
        "type": "t_bytes32"
      },
      {
        "astId": 40,
        "contract": "src/devnets/arbitrumToEth/VeaOutboxArbToEthDevnet.sol:VeaOutboxArbToEthDevnet",
        "label": "latestVerifiedEpoch",
        "offset": 0,
        "slot": "1",
        "type": "t_uint256"
      },
      {
        "astId": 44,
        "contract": "src/devnets/arbitrumToEth/VeaOutboxArbToEthDevnet.sol:VeaOutboxArbToEthDevnet",
        "label": "claimHashes",
        "offset": 0,
        "slot": "2",
        "type": "t_mapping(t_uint256,t_bytes32)"
      },
      {
        "astId": 48,
        "contract": "src/devnets/arbitrumToEth/VeaOutboxArbToEthDevnet.sol:VeaOutboxArbToEthDevnet",
        "label": "relayed",
        "offset": 0,
        "slot": "3",
        "type": "t_mapping(t_uint256,t_bytes32)"
      },
      {
        "astId": 50,
        "contract": "src/devnets/arbitrumToEth/VeaOutboxArbToEthDevnet.sol:VeaOutboxArbToEthDevnet",
        "label": "sequencerDelayLimit",
        "offset": 0,
        "slot": "4",
        "type": "t_uint256"
      },
      {
        "astId": 53,
        "contract": "src/devnets/arbitrumToEth/VeaOutboxArbToEthDevnet.sol:VeaOutboxArbToEthDevnet",
        "label": "sequencerDelayLimitDecreaseRequest",
        "offset": 0,
        "slot": "5",
        "type": "t_struct(SequencerDelayLimitDecreaseRequest)58_storage"
      },
      {
        "astId": 2895,
        "contract": "src/devnets/arbitrumToEth/VeaOutboxArbToEthDevnet.sol:VeaOutboxArbToEthDevnet",
        "label": "devnetOperator",
        "offset": 0,
        "slot": "7",
        "type": "t_address"
      }
    ],
    "types": {
      "t_address": {
        "encoding": "inplace",
        "label": "address",
        "numberOfBytes": "20"
      },
      "t_bytes32": {
        "encoding": "inplace",
        "label": "bytes32",
        "numberOfBytes": "32"
      },
      "t_mapping(t_uint256,t_bytes32)": {
        "encoding": "mapping",
        "key": "t_uint256",
        "label": "mapping(uint256 => bytes32)",
        "numberOfBytes": "32",
        "value": "t_bytes32"
      },
      "t_struct(SequencerDelayLimitDecreaseRequest)58_storage": {
        "encoding": "inplace",
        "label": "struct VeaOutboxArbToEth.SequencerDelayLimitDecreaseRequest",
        "members": [
          {
            "astId": 55,
            "contract": "src/devnets/arbitrumToEth/VeaOutboxArbToEthDevnet.sol:VeaOutboxArbToEthDevnet",
            "label": "requestedsequencerDelayLimit",
            "offset": 0,
            "slot": "0",
            "type": "t_uint256"
          },
          {
            "astId": 57,
            "contract": "src/devnets/arbitrumToEth/VeaOutboxArbToEthDevnet.sol:VeaOutboxArbToEthDevnet",
            "label": "timestamp",
            "offset": 0,
            "slot": "1",
            "type": "t_uint256"
          }
        ],
        "numberOfBytes": "64"
      },
      "t_uint256": {
        "encoding": "inplace",
        "label": "uint256",
        "numberOfBytes": "32"
      }
    }
  }
}