{
  "address": "0xE8ea62d3a4F06301016b9C23Ace108F3D8027839",
  "abi": [
    {
      "inputs": [
        {
          "internalType": "uint256",
          "name": "_deposit",
          "type": "uint256"
        },
        {
          "internalType": "uint256",
          "name": "_epochPeriod",
          "type": "uint256"
        },
        {
          "internalType": "uint256",
          "name": "_minChallengePeriod",
          "type": "uint256"
        },
        {
          "internalType": "uint256",
          "name": "_timeoutEpochs",
          "type": "uint256"
        },
        {
          "internalType": "address",
          "name": "_veaInboxArbToEthDevnet",
          "type": "address"
        },
        {
          "internalType": "address",
          "name": "_bridge",
          "type": "address"
        },
        {
          "internalType": "uint256",
          "name": "_maxMissingBlocks",
          "type": "uint256"
        },
        {
          "internalType": "uint256",
          "name": "_maxClaimDelayEpochs",
          "type": "uint256"
        }
      ],
      "stateMutability": "nonpayable",
      "type": "constructor"
    },
    {
      "anonymous": false,
      "inputs": [
        {
          "indexed": false,
          "internalType": "uint256",
          "name": "_epoch",
          "type": "uint256"
        },
        {
          "indexed": true,
          "internalType": "address",
          "name": "_challenger",
          "type": "address"
        }
      ],
      "name": "Challenged",
      "type": "event"
    },
    {
      "anonymous": false,
      "inputs": [
        {
          "indexed": true,
          "internalType": "address",
          "name": "_claimer",
          "type": "address"
        },
        {
          "indexed": false,
          "internalType": "bytes32",
          "name": "_stateRoot",
          "type": "bytes32"
        }
      ],
      "name": "Claimed",
      "type": "event"
    },
    {
      "anonymous": false,
      "inputs": [
        {
          "indexed": false,
          "internalType": "uint64",
          "name": "_msgId",
          "type": "uint64"
        }
      ],
      "name": "MessageRelayed",
      "type": "event"
    },
    {
      "anonymous": false,
      "inputs": [
        {
          "indexed": false,
          "internalType": "uint256",
          "name": "_epoch",
          "type": "uint256"
        }
      ],
      "name": "VerificationStarted",
      "type": "event"
    },
    {
      "anonymous": false,
      "inputs": [
        {
          "indexed": false,
          "internalType": "uint256",
          "name": "_epoch",
          "type": "uint256"
        }
      ],
      "name": "Verified",
      "type": "event"
    },
    {
      "anonymous": false,
      "inputs": [
        {
          "indexed": false,
          "internalType": "uint256",
          "name": "_requestedSequencerDelayLimit",
          "type": "uint256"
        }
      ],
      "name": "sequencerDelayLimitDecreaseRequested",
      "type": "event"
    },
    {
      "anonymous": false,
      "inputs": [
        {
          "indexed": false,
          "internalType": "uint256",
          "name": "_newSequencerDelayLimit",
          "type": "uint256"
        }
      ],
      "name": "sequencerDelayLimitUpdated",
      "type": "event"
    },
    {
      "inputs": [],
      "name": "bridge",
      "outputs": [
        {
          "internalType": "contract IBridge",
          "name": "",
          "type": "address"
        }
      ],
      "stateMutability": "view",
      "type": "function"
    },
    {
      "inputs": [
        {
          "components": [
            {
              "internalType": "bytes32",
              "name": "stateRoot",
              "type": "bytes32"
            },
            {
              "internalType": "address",
              "name": "claimer",
              "type": "address"
            },
            {
              "internalType": "uint32",
              "name": "timestampClaimed",
              "type": "uint32"
            },
            {
              "internalType": "uint32",
              "name": "timestampVerification",
              "type": "uint32"
            },
            {
              "internalType": "uint32",
              "name": "blocknumberVerification",
              "type": "uint32"
            },
            {
              "internalType": "enum Party",
              "name": "honest",
              "type": "uint8"
            },
            {
              "internalType": "address",
              "name": "challenger",
              "type": "address"
            }
          ],
          "internalType": "struct Claim",
          "name": "_claim",
          "type": "tuple"
        }
      ],
      "name": "censorshipTestStatus",
      "outputs": [
        {
          "internalType": "enum VeaOutboxArbToEth.CensorshipTestStatus",
          "name": "status",
          "type": "uint8"
        }
      ],
      "stateMutability": "view",
      "type": "function"
    },
    {
      "inputs": [
        {
          "internalType": "uint256",
          "name": "_epoch",
          "type": "uint256"
        },
        {
          "components": [
            {
              "internalType": "bytes32",
              "name": "stateRoot",
              "type": "bytes32"
            },
            {
              "internalType": "address",
              "name": "claimer",
              "type": "address"
            },
            {
              "internalType": "uint32",
              "name": "timestampClaimed",
              "type": "uint32"
            },
            {
              "internalType": "uint32",
              "name": "timestampVerification",
              "type": "uint32"
            },
            {
              "internalType": "uint32",
              "name": "blocknumberVerification",
              "type": "uint32"
            },
            {
              "internalType": "enum Party",
              "name": "honest",
              "type": "uint8"
            },
            {
              "internalType": "address",
              "name": "challenger",
              "type": "address"
            }
          ],
          "internalType": "struct Claim",
          "name": "_claim",
          "type": "tuple"
        }
      ],
      "name": "challenge",
      "outputs": [],
      "stateMutability": "payable",
      "type": "function"
    },
    {
      "inputs": [
        {
          "internalType": "address",
          "name": "_devnetOperator",
          "type": "address"
        }
      ],
      "name": "changeDevnetOperator",
      "outputs": [],
      "stateMutability": "nonpayable",
      "type": "function"
    },
    {
      "inputs": [
        {
          "internalType": "uint256",
          "name": "_epoch",
          "type": "uint256"
        },
        {
          "internalType": "bytes32",
          "name": "_stateRoot",
          "type": "bytes32"
        }
      ],
      "name": "claim",
      "outputs": [],
      "stateMutability": "payable",
      "type": "function"
    },
    {
      "inputs": [
        {
          "internalType": "uint256",
          "name": "",
          "type": "uint256"
        }
      ],
      "name": "claimHashes",
      "outputs": [
        {
          "internalType": "bytes32",
          "name": "",
          "type": "bytes32"
        }
      ],
      "stateMutability": "view",
      "type": "function"
    },
    {
      "inputs": [],
      "name": "deposit",
      "outputs": [
        {
          "internalType": "uint256",
          "name": "",
          "type": "uint256"
        }
      ],
      "stateMutability": "view",
      "type": "function"
    },
    {
      "inputs": [
        {
          "internalType": "uint256",
          "name": "_epoch",
          "type": "uint256"
        },
        {
          "internalType": "bytes32",
          "name": "_stateroot",
          "type": "bytes32"
        }
      ],
      "name": "devnetAdvanceState",
      "outputs": [],
      "stateMutability": "payable",
      "type": "function"
    },
    {
      "inputs": [],
      "name": "devnetOperator",
      "outputs": [
        {
          "internalType": "address",
          "name": "",
          "type": "address"
        }
      ],
      "stateMutability": "view",
      "type": "function"
    },
    {
      "inputs": [
        {
          "internalType": "uint256",
          "name": "timestamp",
          "type": "uint256"
        }
      ],
      "name": "epochAt",
      "outputs": [
        {
          "internalType": "uint256",
          "name": "epoch",
          "type": "uint256"
        }
      ],
      "stateMutability": "view",
      "type": "function"
    },
    {
      "inputs": [],
      "name": "epochNow",
      "outputs": [
        {
          "internalType": "uint256",
          "name": "epoch",
          "type": "uint256"
        }
      ],
      "stateMutability": "view",
      "type": "function"
    },
    {
      "inputs": [],
      "name": "epochPeriod",
      "outputs": [
        {
          "internalType": "uint256",
          "name": "",
          "type": "uint256"
        }
      ],
      "stateMutability": "view",
      "type": "function"
    },
    {
      "inputs": [],
      "name": "executeSequencerDelayLimitDecreaseRequest",
      "outputs": [],
      "stateMutability": "nonpayable",
      "type": "function"
    },
    {
      "inputs": [
        {
          "components": [
            {
              "internalType": "bytes32",
              "name": "stateRoot",
              "type": "bytes32"
            },
            {
              "internalType": "address",
              "name": "claimer",
              "type": "address"
            },
            {
              "internalType": "uint32",
              "name": "timestampClaimed",
              "type": "uint32"
            },
            {
              "internalType": "uint32",
              "name": "timestampVerification",
              "type": "uint32"
            },
            {
              "internalType": "uint32",
              "name": "blocknumberVerification",
              "type": "uint32"
            },
            {
              "internalType": "enum Party",
              "name": "honest",
              "type": "uint8"
            },
            {
              "internalType": "address",
              "name": "challenger",
              "type": "address"
            }
          ],
          "internalType": "struct Claim",
          "name": "_claim",
          "type": "tuple"
        }
      ],
      "name": "hashClaim",
      "outputs": [
        {
          "internalType": "bytes32",
          "name": "hashedClaim",
          "type": "bytes32"
        }
      ],
      "stateMutability": "pure",
      "type": "function"
    },
    {
      "inputs": [],
      "name": "latestVerifiedEpoch",
      "outputs": [
        {
          "internalType": "uint256",
          "name": "",
          "type": "uint256"
        }
      ],
      "stateMutability": "view",
      "type": "function"
    },
    {
      "inputs": [],
      "name": "maxClaimDelayEpochs",
      "outputs": [
        {
          "internalType": "uint256",
          "name": "",
          "type": "uint256"
        }
      ],
      "stateMutability": "view",
      "type": "function"
    },
    {
      "inputs": [],
      "name": "maxMissingBlocks",
      "outputs": [
        {
          "internalType": "uint256",
          "name": "",
          "type": "uint256"
        }
      ],
      "stateMutability": "view",
      "type": "function"
    },
    {
      "inputs": [],
      "name": "minChallengePeriod",
      "outputs": [
        {
          "internalType": "uint256",
          "name": "",
          "type": "uint256"
        }
      ],
      "stateMutability": "view",
      "type": "function"
    },
    {
      "inputs": [
        {
          "internalType": "uint256",
          "name": "",
          "type": "uint256"
        }
      ],
      "name": "relayed",
      "outputs": [
        {
          "internalType": "bytes32",
          "name": "",
          "type": "bytes32"
        }
      ],
      "stateMutability": "view",
      "type": "function"
    },
    {
      "inputs": [
        {
          "internalType": "uint256",
          "name": "_epoch",
          "type": "uint256"
        },
        {
          "internalType": "bytes32",
          "name": "_stateRoot",
          "type": "bytes32"
        },
        {
          "components": [
            {
              "internalType": "bytes32",
              "name": "stateRoot",
              "type": "bytes32"
            },
            {
              "internalType": "address",
              "name": "claimer",
              "type": "address"
            },
            {
              "internalType": "uint32",
              "name": "timestampClaimed",
              "type": "uint32"
            },
            {
              "internalType": "uint32",
              "name": "timestampVerification",
              "type": "uint32"
            },
            {
              "internalType": "uint32",
              "name": "blocknumberVerification",
              "type": "uint32"
            },
            {
              "internalType": "enum Party",
              "name": "honest",
              "type": "uint8"
            },
            {
              "internalType": "address",
              "name": "challenger",
              "type": "address"
            }
          ],
          "internalType": "struct Claim",
          "name": "_claim",
          "type": "tuple"
        }
      ],
      "name": "resolveDisputedClaim",
      "outputs": [],
      "stateMutability": "nonpayable",
      "type": "function"
    },
    {
      "inputs": [
        {
          "internalType": "bytes32[]",
          "name": "_proof",
          "type": "bytes32[]"
        },
        {
          "internalType": "uint64",
          "name": "_msgId",
          "type": "uint64"
        },
        {
          "internalType": "address",
          "name": "_to",
          "type": "address"
        },
        {
          "internalType": "bytes",
          "name": "_message",
          "type": "bytes"
        }
      ],
      "name": "sendMessage",
      "outputs": [],
      "stateMutability": "nonpayable",
      "type": "function"
    },
    {
      "inputs": [],
      "name": "sequencerDelayLimit",
      "outputs": [
        {
          "internalType": "uint256",
          "name": "",
          "type": "uint256"
        }
      ],
      "stateMutability": "view",
      "type": "function"
    },
    {
      "inputs": [],
      "name": "sequencerDelayLimitDecreaseRequest",
      "outputs": [
        {
          "internalType": "uint256",
          "name": "requestedsequencerDelayLimit",
          "type": "uint256"
        },
        {
          "internalType": "uint256",
          "name": "timestamp",
          "type": "uint256"
        }
      ],
      "stateMutability": "view",
      "type": "function"
    },
    {
      "inputs": [
        {
          "internalType": "uint256",
          "name": "_epoch",
          "type": "uint256"
        },
        {
          "components": [
            {
              "internalType": "bytes32",
              "name": "stateRoot",
              "type": "bytes32"
            },
            {
              "internalType": "address",
              "name": "claimer",
              "type": "address"
            },
            {
              "internalType": "uint32",
              "name": "timestampClaimed",
              "type": "uint32"
            },
            {
              "internalType": "uint32",
              "name": "timestampVerification",
              "type": "uint32"
            },
            {
              "internalType": "uint32",
              "name": "blocknumberVerification",
              "type": "uint32"
            },
            {
              "internalType": "enum Party",
              "name": "honest",
              "type": "uint8"
            },
            {
              "internalType": "address",
              "name": "challenger",
              "type": "address"
            }
          ],
          "internalType": "struct Claim",
          "name": "_claim",
          "type": "tuple"
        }
      ],
      "name": "startVerification",
      "outputs": [],
      "stateMutability": "nonpayable",
      "type": "function"
    },
    {
      "inputs": [],
      "name": "stateRoot",
      "outputs": [
        {
          "internalType": "bytes32",
          "name": "",
          "type": "bytes32"
        }
      ],
      "stateMutability": "view",
      "type": "function"
    },
    {
      "inputs": [],
      "name": "timeoutEpochs",
      "outputs": [
        {
          "internalType": "uint256",
          "name": "",
          "type": "uint256"
        }
      ],
      "stateMutability": "view",
      "type": "function"
    },
    {
      "inputs": [],
      "name": "updateSequencerDelayLimit",
      "outputs": [],
      "stateMutability": "nonpayable",
      "type": "function"
    },
    {
      "inputs": [],
      "name": "veaInboxArbToEth",
      "outputs": [
        {
          "internalType": "address",
          "name": "",
          "type": "address"
        }
      ],
      "stateMutability": "view",
      "type": "function"
    },
    {
      "inputs": [
        {
          "internalType": "uint256",
          "name": "_epoch",
          "type": "uint256"
        },
        {
          "components": [
            {
              "internalType": "bytes32",
              "name": "stateRoot",
              "type": "bytes32"
            },
            {
              "internalType": "address",
              "name": "claimer",
              "type": "address"
            },
            {
              "internalType": "uint32",
              "name": "timestampClaimed",
              "type": "uint32"
            },
            {
              "internalType": "uint32",
              "name": "timestampVerification",
              "type": "uint32"
            },
            {
              "internalType": "uint32",
              "name": "blocknumberVerification",
              "type": "uint32"
            },
            {
              "internalType": "enum Party",
              "name": "honest",
              "type": "uint8"
            },
            {
              "internalType": "address",
              "name": "challenger",
              "type": "address"
            }
          ],
          "internalType": "struct Claim",
          "name": "_claim",
          "type": "tuple"
        }
      ],
      "name": "verifySnapshot",
      "outputs": [],
      "stateMutability": "nonpayable",
      "type": "function"
    },
    {
      "inputs": [
        {
          "internalType": "uint256",
          "name": "_epoch",
          "type": "uint256"
        },
        {
          "components": [
            {
              "internalType": "bytes32",
              "name": "stateRoot",
              "type": "bytes32"
            },
            {
              "internalType": "address",
              "name": "claimer",
              "type": "address"
            },
            {
              "internalType": "uint32",
              "name": "timestampClaimed",
              "type": "uint32"
            },
            {
              "internalType": "uint32",
              "name": "timestampVerification",
              "type": "uint32"
            },
            {
              "internalType": "uint32",
              "name": "blocknumberVerification",
              "type": "uint32"
            },
            {
              "internalType": "enum Party",
              "name": "honest",
              "type": "uint8"
            },
            {
              "internalType": "address",
              "name": "challenger",
              "type": "address"
            }
          ],
          "internalType": "struct Claim",
          "name": "_claim",
          "type": "tuple"
        }
      ],
      "name": "withdrawChallengeDeposit",
      "outputs": [],
      "stateMutability": "nonpayable",
      "type": "function"
    },
    {
      "inputs": [
        {
          "internalType": "uint256",
          "name": "_epoch",
          "type": "uint256"
        },
        {
          "components": [
            {
              "internalType": "bytes32",
              "name": "stateRoot",
              "type": "bytes32"
            },
            {
              "internalType": "address",
              "name": "claimer",
              "type": "address"
            },
            {
              "internalType": "uint32",
              "name": "timestampClaimed",
              "type": "uint32"
            },
            {
              "internalType": "uint32",
              "name": "timestampVerification",
              "type": "uint32"
            },
            {
              "internalType": "uint32",
              "name": "blocknumberVerification",
              "type": "uint32"
            },
            {
              "internalType": "enum Party",
              "name": "honest",
              "type": "uint8"
            },
            {
              "internalType": "address",
              "name": "challenger",
              "type": "address"
            }
          ],
          "internalType": "struct Claim",
          "name": "_claim",
          "type": "tuple"
        }
      ],
      "name": "withdrawChallengerEscapeHatch",
      "outputs": [],
      "stateMutability": "nonpayable",
      "type": "function"
    },
    {
      "inputs": [
        {
          "internalType": "uint256",
          "name": "_epoch",
          "type": "uint256"
        },
        {
          "components": [
            {
              "internalType": "bytes32",
              "name": "stateRoot",
              "type": "bytes32"
            },
            {
              "internalType": "address",
              "name": "claimer",
              "type": "address"
            },
            {
              "internalType": "uint32",
              "name": "timestampClaimed",
              "type": "uint32"
            },
            {
              "internalType": "uint32",
              "name": "timestampVerification",
              "type": "uint32"
            },
            {
              "internalType": "uint32",
              "name": "blocknumberVerification",
              "type": "uint32"
            },
            {
              "internalType": "enum Party",
              "name": "honest",
              "type": "uint8"
            },
            {
              "internalType": "address",
              "name": "challenger",
              "type": "address"
            }
          ],
          "internalType": "struct Claim",
          "name": "_claim",
          "type": "tuple"
        }
      ],
      "name": "withdrawClaimDeposit",
      "outputs": [],
      "stateMutability": "nonpayable",
      "type": "function"
    },
    {
      "inputs": [
        {
          "internalType": "uint256",
          "name": "_epoch",
          "type": "uint256"
        },
        {
          "components": [
            {
              "internalType": "bytes32",
              "name": "stateRoot",
              "type": "bytes32"
            },
            {
              "internalType": "address",
              "name": "claimer",
              "type": "address"
            },
            {
              "internalType": "uint32",
              "name": "timestampClaimed",
              "type": "uint32"
            },
            {
              "internalType": "uint32",
              "name": "timestampVerification",
              "type": "uint32"
            },
            {
              "internalType": "uint32",
              "name": "blocknumberVerification",
              "type": "uint32"
            },
            {
              "internalType": "enum Party",
              "name": "honest",
              "type": "uint8"
            },
            {
              "internalType": "address",
              "name": "challenger",
              "type": "address"
            }
          ],
          "internalType": "struct Claim",
          "name": "_claim",
          "type": "tuple"
        }
      ],
      "name": "withdrawClaimerEscapeHatch",
      "outputs": [],
      "stateMutability": "nonpayable",
      "type": "function"
    }
  ],
  "transactionHash": "0x5c2c676f65f97dff6eb83f88f00b39eae3cae1555dfb31a7f5baf1f2dee03217",
  "args": [
    "1000000000000000",
    1800,
    0,
    10000000000000,
    "0xDa528e9BE20a8A22437D28Ed6C63bb6d00Ad0032",
    "0xaf4159A80B6Cc41ED517DB1c453d1Ef5C2e4dB72",
    10000000000000,
    3
  ],
  "numDeployments": 1,
  "solcInputHash": "7298e2ccdbe09809d528e3141326e32b",
  "bytecode": "0x6101c06040523480156200001257600080fd5b5060405162002aa038038062002aa08339810160408190526200003591620002f7565b60c08890526101208790526101408690526101808590526001600160a01b0380851660a05283166080526101a082905261016081905287878787878787876200007d620000f7565b6200008a6002896200037e565b60e08190526200009c896002620003a1565b620000a89190620003c1565b6101005261012051600190620000bf90426200037e565b620000cb9190620003c1565b6001555050600780546001600160a01b0319163317905550620004339c50505050505050505050505050565b60006080516001600160a01b031663ee35f3276040518163ffffffff1660e01b8152600401602060405180830381865afa1580156200013a573d6000803e3d6000fd5b505050506040513d601f19601f82011682018060405250810190620001609190620003d7565b6001600160a01b031663ebea461d6040518163ffffffff1660e01b8152600401608060405180830381865afa1580156200019e573d6000803e3d6000fd5b505050506040513d601f19601f82011682018060405250810190620001c49190620003fc565b50925050506004548111156200020f5760048190556040518181527f611c2e4a78552f908fb0eb2cc503efc1f947cde8574277ab3b0f10fdd510258b9060200160405180910390a150565b600454811015620002d75760065415620002895760405162461bcd60e51b815260206004820152603160248201527f53657175656e636572206c696d697420646563726561736520726571756573746044820152701030b63932b0b23c903832b73234b7339760791b606482015260840160405180910390fd5b604080518082018252828152426020918201819052600584905560065590518281527fa552b382e128c9d0732f01f09502c18999aec5dce0ed78c5af0ea2274ce9bd7d910160405180910390a15b50565b80516001600160a01b0381168114620002f257600080fd5b919050565b600080600080600080600080610100898b0312156200031557600080fd5b885197506020890151965060408901519550606089015194506200033c60808a01620002da565b93506200034c60a08a01620002da565b60c08a015160e0909a0151989b979a5095989497939692505050565b634e487b7160e01b600052601160045260246000fd5b6000826200039c57634e487b7160e01b600052601260045260246000fd5b500490565b8082028115828204841417620003bb57620003bb62000368565b92915050565b81810381811115620003bb57620003bb62000368565b600060208284031215620003ea57600080fd5b620003f582620002da565b9392505050565b600080600080608085870312156200041357600080fd5b505082516020840151604085015160609095015191969095509092509050565b60805160a05160c05160e05161010051610120516101405161016051610180516101a0516125346200056c600039600081816104f50152611ee801526000818161052901528181610b160152818161191001528181611a9b0152611ca70152600061021a0152600081816105b10152611e7c01526000818161055d01528181610b3a01528181610e430152818161160a0152818161193401528181611abf0152611ccb01526000818161139701526114d001526000818161134401526114880152600081816105e5015281816106f101528181610878015281816108a501528181610e860152818161152001528181611c0501528181611c6c0152611e120152600081816104060152610c24015260008181610666015281816109fb01528181610bb501528181610c4e015261168b01526125346000f3fe6080604052600436106101ee5760003560e01c806369cd250d1161010d578063b5b7a184116100a0578063da2b7bc41161006f578063da2b7bc414610607578063df19e6ff14610627578063e78cea9214610654578063e813a75514610688578063eedcf2a91461069e57600080fd5b8063b5b7a1841461054b578063b633b9441461057f578063c2114a161461059f578063d0e30db0146105d357600080fd5b8063930f28af116100dc578063930f28af146104ad5780639588eca2146104cd578063aa22a1c6146104e3578063b044397e1461051757600080fd5b806369cd250d146103f45780638a619a71146104405780638ad3a8f71461046057806390df63b71461048057600080fd5b806331d144571161018557806349b4299e1161015457806349b4299e1461037f5780634a439cfe1461039f578063541adcca146103bf5780635f43a47f146103df57600080fd5b806331d144571461030c57806331ddf7431461031f5780633ce43cfd1461033f5780634788cb381461035f57600080fd5b80630f0adca5116101c15780630f0adca514610294578063222ae786146102b45780632639c060146102c957806327ee6bdd146102f657600080fd5b806301139b68146101f3578063042c4aaf14610208578063051d19701461024f5780630c63fa841461027f575b600080fd5b6102066102013660046120a2565b6106b1565b005b34801561021457600080fd5b5061023c7f000000000000000000000000000000000000000000000000000000000000000081565b6040519081526020015b60405180910390f35b34801561025b57600080fd5b5060055460065461026a919082565b60408051928352602083019190915201610246565b34801561028b57600080fd5b506102066108ef565b3480156102a057600080fd5b506102066102af3660046120d0565b610b14565b3480156102c057600080fd5b5061023c610e3c565b3480156102d557600080fd5b5061023c6102e4366004612107565b60026020526000908152604090205481565b34801561030257600080fd5b5061023c60015481565b61020661031a366004612120565b610e6d565b34801561032b57600080fd5b5061020661033a3660046121a3565b610fed565b34801561034b57600080fd5b5061020661035a366004612265565b61128d565b34801561036b57600080fd5b5061020661037a3660046120a2565b6113d4565b34801561038b57600080fd5b5061020661039a3660046120a2565b611558565b3480156103ab57600080fd5b5061023c6103ba366004612107565b611603565b3480156103cb57600080fd5b5061023c6103da36600461229e565b611635565b3480156103eb57600080fd5b50610206611687565b34801561040057600080fd5b506104287f000000000000000000000000000000000000000000000000000000000000000081565b6040516001600160a01b039091168152602001610246565b34801561044c57600080fd5b5061020661045b3660046122c1565b61187b565b34801561046c57600080fd5b50600754610428906001600160a01b031681565b34801561048c57600080fd5b5061023c61049b366004612107565b60036020526000908152604090205481565b3480156104b957600080fd5b506102066104c83660046120a2565b61190e565b3480156104d957600080fd5b5061023c60005481565b3480156104ef57600080fd5b5061023c7f000000000000000000000000000000000000000000000000000000000000000081565b34801561052357600080fd5b5061023c7f000000000000000000000000000000000000000000000000000000000000000081565b34801561055757600080fd5b5061023c7f000000000000000000000000000000000000000000000000000000000000000081565b34801561058b57600080fd5b5061020661059a3660046120a2565b611a99565b3480156105ab57600080fd5b5061023c7f000000000000000000000000000000000000000000000000000000000000000081565b3480156105df57600080fd5b5061023c7f000000000000000000000000000000000000000000000000000000000000000081565b34801561061357600080fd5b506102066106223660046120a2565b611ca5565b34801561063357600080fd5b5061064761064236600461229e565b611e5e565b60405161024691906122f4565b34801561066057600080fd5b506104287f000000000000000000000000000000000000000000000000000000000000000081565b34801561069457600080fd5b5061023c60045481565b6102066106ac366004612120565b611f25565b6106ba81611635565b600083815260026020526040902054146106ef5760405162461bcd60e51b81526004016106e69061230e565b60405180910390fd5b7f000000000000000000000000000000000000000000000000000000000000000034101561075f5760405162461bcd60e51b815260206004820152601f60248201527f496e73756666696369656e74206368616c6c656e6765206465706f7369742e0060448201526064016106e6565b60c08101516001600160a01b0316156107ba5760405162461bcd60e51b815260206004820152601960248201527f436c61696d20616c7265616479206368616c6c656e6765642e0000000000000060448201526064016106e6565b60008160a0015160028111156107d2576107d26122de565b1461081f5760405162461bcd60e51b815260206004820152601760248201527f436c61696d20616c72656164792076657269666965642e00000000000000000060448201526064016106e6565b3360c082015261082e81611635565b600083815260026020908152604091829020929092555183815233917fcfe09ca25f55d949baba5e280f5750c9ba4b9048fca5532f916067d433afe4d791015b60405180910390a27f00000000000000000000000000000000000000000000000000000000000000003411156108eb5760006108ca7f00000000000000000000000000000000000000000000000000000000000000003461234c565b604051909150339082156108fc029083906000818181858888f15050505050505b5050565b6006546000036109565760405162461bcd60e51b815260206004820152602c60248201527f4e6f2070656e64696e672073657175656e636572206c696d697420646563726560448201526b30b9b2903932b8bab2b9ba1760a11b60648201526084016106e6565b600454600654610966919061235f565b42116109cf5760405162461bcd60e51b815260206004820152603260248201527f53657175656e636572206c696d697420646563726561736520726571756573746044820152711034b99039ba34b636103832b73234b7339760711b60648201526084016106e6565b6005805460009182905560068290556040805163ee35f32760e01b815290519192916001600160a01b037f0000000000000000000000000000000000000000000000000000000000000000169163ee35f3279160048083019260209291908290030181865afa158015610a46573d6000803e3d6000fd5b505050506040513d601f19601f82011682018060405250810190610a6a9190612372565b6001600160a01b031663ebea461d6040518163ffffffff1660e01b8152600401608060405180830381865afa158015610aa7573d6000803e3d6000fd5b505050506040513d601f19601f82011682018060405250810190610acb919061238f565b50925050508181036108eb5760048290556040518281527f611c2e4a78552f908fb0eb2cc503efc1f947cde8574277ab3b0f10fdd510258b906020015b60405180910390a15050565b7f00000000000000000000000000000000000000000000000000000000000000006001547f00000000000000000000000000000000000000000000000000000000000000004281610b6757610b676123c5565b04031115610baa5760405162461bcd60e51b815260206004820152601060248201526f213934b233b29029b43aba3237bbb71760811b60448201526064016106e6565b336001600160a01b037f00000000000000000000000000000000000000000000000000000000000000001614610c225760405162461bcd60e51b815260206004820181905260248201527f4e6f742066726f6d206e617469766520617262697472756d206272696467652e60448201526064016106e6565b7f00000000000000000000000000000000000000000000000000000000000000006001600160a01b03167f00000000000000000000000000000000000000000000000000000000000000006001600160a01b031663ab5d89436040518163ffffffff1660e01b8152600401602060405180830381865afa158015610caa573d6000803e3d6000fd5b505050506040513d601f19601f82011682018060405250810190610cce9190612372565b6001600160a01b03166380648b026040518163ffffffff1660e01b8152600401602060405180830381865afa158015610d0b573d6000803e3d6000fd5b505050506040513d601f19601f82011682018060405250810190610d2f9190612372565b6001600160a01b031614610d7e5760405162461bcd60e51b81526020600482015260166024820152753b32b0a4b73137bc20b9312a37a2ba341037b7363c9760511b60448201526064016106e6565b60015483118015610d8e57508115155b15610dd157600183905560008290556040518381527ff786e7f77ede00a02a5464f8f0555798f42ba99a4a920ef2778db8d75e4656f79060200160405180910390a15b610dda81611635565b60008481526002602052604090205403610e37578051829003610e0357600160a0820152610e1e565b60c08101516001600160a01b031615610e1e57600260a08201525b610e2781611635565b6000848152600260205260409020555b505050565b6000610e687f0000000000000000000000000000000000000000000000000000000000000000426123db565b905090565b6007546001600160a01b03163314610e8457600080fd5b7f0000000000000000000000000000000000000000000000000000000000000000341015610ef45760405162461bcd60e51b815260206004820152601b60248201527f496e73756666696369656e7420636c61696d206465706f7369742e000000000060448201526064016106e6565b80610f115760405162461bcd60e51b81526004016106e69061230e565b60008281526002602052604090205415610f635760405162461bcd60e51b815260206004820152601360248201527221b630b4b69030b63932b0b23c9036b0b2329760691b60448201526064016106e6565b6040805160e0810182528281523360208201524263ffffffff16918101919091526000606082018190526080820181905260a0820181905260c0820152610fa990611635565b600083815260026020908152604091829020929092555182815233917f91d697238e9aa9f3172d17522c9be529b94a892481554e1ea619369b5b12f39a910161086e565b6040851061102f5760405162461bcd60e51b815260206004820152600f60248201526e283937b7b3103a37b7903637b7339760891b60448201526064016106e6565b60008484848460405160200161104894939291906123fd565b604051602081830303815290604052805190602001209050806000526020600020905060005b868110156110c857600088888381811061108a5761108a61243f565b905060200201359050828111156110af578260005280602052604060002092506110bf565b8060005282602052604060002092505b5060010161106e565b50806000541461110b5760405162461bcd60e51b815260206004820152600e60248201526d24b73b30b634b210383937b7b31760911b60448201526064016106e6565b600885901c66ffffffffffffff1660008181526003602052604090205460ff87169080821c600116156111805760405162461bcd60e51b815260206004820152601760248201527f4d65737361676520616c72656164792072656c6179656400000000000000000060448201526064016106e6565b6000838152600360205260408082206001851b84179055516001600160a01b038916906111b09089908990612455565b6000604051808303816000865af19150503d80600081146111ed576040519150601f19603f3d011682016040523d82523d6000602084013e6111f2565b606091505b50509050806112435760405162461bcd60e51b815260206004820152601760248201527f4661696c656420746f2063616c6c20636f6e747261637400000000000000000060448201526064016106e6565b60405167ffffffffffffffff8a1681527f54303fab361bc52c2f1f56ace7351189582264f74ce47a6e7c3f478d64c429439060200160405180910390a15050505050505050505050565b61129f6103da3683900383018361229e565b600083815260026020526040902054146112cb5760405162461bcd60e51b81526004016106e69061230e565b60026112dd60c0830160a08401612465565b60028111156112ee576112ee6122de565b1461132f5760405162461bcd60e51b815260206004820152601160248201527021b430b63632b733b2903330b4b632b21760791b60448201526064016106e6565b600082815260026020526040808220829055517f000000000000000000000000000000000000000000000000000000000000000080156108fc029183818181858288f15061138993505060e0840191505060c083016122c1565b6001600160a01b03166108fc7f00000000000000000000000000000000000000000000000000000000000000009081150290604051600060405180830381858888f150505050505050565b6113dd81611635565b600083815260026020526040902054146114095760405162461bcd60e51b81526004016106e69061230e565b60018160a001516002811115611421576114216122de565b1461145e5760405162461bcd60e51b815260206004820152600d60248201526c21b630b4b6903330b4b632b21760991b60448201526064016106e6565b60008281526002602052604081205560c08101516001600160a01b03161561150a576040516000907f000000000000000000000000000000000000000000000000000000000000000080156108fc029183818181858288f150505060208301516040516001600160a01b0390911692507f000000000000000000000000000000000000000000000000000000000000000080156108fc029250906000818181858888f150505050505050565b60208101516040516001600160a01b03909116907f000000000000000000000000000000000000000000000000000000000000000080156108fc02916000818181858888f150505050505050565b6007546001600160a01b0316331461156f57600080fd5b61157881611635565b600083815260026020526040902054146115a45760405162461bcd60e51b81526004016106e69061230e565b63ffffffff4281166060830152431660808201526115c181611635565b60008381526002602090815260409182902092909255518381527f37b700b61b9b4710dddb0c3316b2be7ef6088ed4b1d7bfe0fb98be8f9a163e169101610b08565b600061162f7f0000000000000000000000000000000000000000000000000000000000000000836123db565b92915050565b80516020808301516040808501516060860151608087015160a088015160c0890151945160009861166a989097969101612480565b604051602081830303815290604052805190602001209050919050565b60007f00000000000000000000000000000000000000000000000000000000000000006001600160a01b031663ee35f3276040518163ffffffff1660e01b8152600401602060405180830381865afa1580156116e7573d6000803e3d6000fd5b505050506040513d601f19601f8201168201806040525081019061170b9190612372565b6001600160a01b031663ebea461d6040518163ffffffff1660e01b8152600401608060405180830381865afa158015611748573d6000803e3d6000fd5b505050506040513d601f19601f8201168201806040525081019061176c919061238f565b50925050506004548111156117b65760048190556040518181527f611c2e4a78552f908fb0eb2cc503efc1f947cde8574277ab3b0f10fdd510258b9060200160405180910390a150565b600454811015611878576006541561182a5760405162461bcd60e51b815260206004820152603160248201527f53657175656e636572206c696d697420646563726561736520726571756573746044820152701030b63932b0b23c903832b73234b7339760791b60648201526084016106e6565b604080518082018252828152426020918201819052600584905560065590518281527fa552b382e128c9d0732f01f09502c18999aec5dce0ed78c5af0ea2274ce9bd7d910160405180910390a15b50565b6007546001600160a01b0316331461189257600080fd5b6007546001600160a01b031633146118ec5760405162461bcd60e51b815260206004820152601860248201527f496e76616c696420546573746e6574204f70657261746f72000000000000000060448201526064016106e6565b600780546001600160a01b0319166001600160a01b0392909216919091179055565b7f00000000000000000000000000000000000000000000000000000000000000006001547f00000000000000000000000000000000000000000000000000000000000000004281611961576119616123c5565b040311156119a45760405162461bcd60e51b815260206004820152601060248201526f213934b233b29029b43aba3237bbb71760811b60448201526064016106e6565b6119ad81611635565b600083815260026020526040902054146119d95760405162461bcd60e51b81526004016106e69061230e565b60c08101516001600160a01b031615611a2b5760405162461bcd60e51b815260206004820152601460248201527321b630b4b69034b99031b430b63632b733b2b21760611b60448201526064016106e6565b600154821115611a7357600182905580516000556040518281527ff786e7f77ede00a02a5464f8f0555798f42ba99a4a920ef2778db8d75e4656f79060200160405180910390a15b600160a0820152611a8381611635565b6000928352600260205260409092209190915550565b7f00000000000000000000000000000000000000000000000000000000000000006001547f00000000000000000000000000000000000000000000000000000000000000004281611aec57611aec6123c5565b040311611b2d5760405162461bcd60e51b815260206004820152600f60248201526e213934b233b290293ab73734b7339760891b60448201526064016106e6565b611b3681611635565b60008381526002602052604090205414611b625760405162461bcd60e51b81526004016106e69061230e565b60008160a001516002811115611b7a57611b7a6122de565b14611bb95760405162461bcd60e51b815260206004820152600f60248201526e21b630b4b6903932b9b7b63b32b21760891b60448201526064016106e6565b60c08101516001600160a01b0316156108eb5760208101516001600160a01b0316611c3d5760008281526002602052604080822082905560c083015190516001600160a01b03909116917f000000000000000000000000000000000000000000000000000000000000000080156108fc02929091818181858888f150505050505050565b60c0810180516000909152611c5182611635565b50600083815260026020526040516001600160a01b038316917f000000000000000000000000000000000000000000000000000000000000000080156108fc02929091818181858888f15050505050505050565b7f00000000000000000000000000000000000000000000000000000000000000006001547f00000000000000000000000000000000000000000000000000000000000000004281611cf857611cf86123c5565b040311611d395760405162461bcd60e51b815260206004820152600f60248201526e213934b233b290293ab73734b7339760891b60448201526064016106e6565b611d4281611635565b60008381526002602052604090205414611d6e5760405162461bcd60e51b81526004016106e69061230e565b60008160a001516002811115611d8657611d866122de565b14611dc55760405162461bcd60e51b815260206004820152600f60248201526e21b630b4b6903932b9b7b63b32b21760891b60448201526064016106e6565b60208101516001600160a01b0316156108eb5760c08101516001600160a01b0316611e4a5760008281526002602090815260408083208390559083015190516001600160a01b03909116917f000000000000000000000000000000000000000000000000000000000000000080156108fc02929091818181858888f150505050505050565b6020810180516000909152611c5182611635565b6000816060015163ffffffff16600003611e7a57506002919050565b7f0000000000000000000000000000000000000000000000000000000000000000826060015163ffffffff1642031015611eb657506003919050565b6000600c836060015163ffffffff16420381611ed457611ed46123c5565b608085015163ffffffff16919004019050437f000000000000000000000000000000000000000000000000000000000000000081830311611f185760019250611f1d565b600092505b50505b919050565b611f2f8282610e6d565b6040805160e0810182528281523360208201524263ffffffff16918101919091526000606082018190526080820181905260a0820181905260c0820152611f768382611558565b63ffffffff428116606083015243166080820152611f94838261190e565b600160a0820152610e3783826113d4565b6001600160a01b038116811461187857600080fd5b8035611f2081611fa5565b803563ffffffff81168114611f2057600080fd5b803560038110611f2057600080fd5b600060e08284031215611ffa57600080fd5b60405160e0810181811067ffffffffffffffff8211171561202b57634e487b7160e01b600052604160045260246000fd5b6040528235815290508061204160208401611fba565b602082015261205260408401611fc5565b604082015261206360608401611fc5565b606082015261207460808401611fc5565b608082015261208560a08401611fd9565b60a082015261209660c08401611fba565b60c08201525092915050565b60008061010083850312156120b657600080fd5b823591506120c78460208501611fe8565b90509250929050565b600080600061012084860312156120e657600080fd5b83359250602084013591506120fe8560408601611fe8565b90509250925092565b60006020828403121561211957600080fd5b5035919050565b6000806040838503121561213357600080fd5b50508035926020909101359150565b803567ffffffffffffffff81168114611f2057600080fd5b60008083601f84011261216c57600080fd5b50813567ffffffffffffffff81111561218457600080fd5b60208301915083602082850101111561219c57600080fd5b9250929050565b600080600080600080608087890312156121bc57600080fd5b863567ffffffffffffffff808211156121d457600080fd5b818901915089601f8301126121e857600080fd5b8135818111156121f757600080fd5b8a60208260051b850101111561220c57600080fd5b6020830198508097505061222260208a01612142565b955061223060408a01611fba565b9450606089013591508082111561224657600080fd5b5061225389828a0161215a565b979a9699509497509295939492505050565b60008082840361010081121561227a57600080fd5b8335925060e0601f198201121561229057600080fd5b506020830190509250929050565b600060e082840312156122b057600080fd5b6122ba8383611fe8565b9392505050565b6000602082840312156122d357600080fd5b81356122ba81611fa5565b634e487b7160e01b600052602160045260246000fd5b6020810160048310612308576123086122de565b91905290565b6020808252600e908201526d24b73b30b634b21031b630b4b69760911b604082015260600190565b634e487b7160e01b600052601160045260246000fd5b8181038181111561162f5761162f612336565b8082018082111561162f5761162f612336565b60006020828403121561238457600080fd5b81516122ba81611fa5565b600080600080608085870312156123a557600080fd5b505082516020840151604085015160609095015191969095509092509050565b634e487b7160e01b600052601260045260246000fd5b6000826123f857634e487b7160e01b600052601260045260246000fd5b500490565b60c085901b6001600160c01b0319168152606084901b6bffffffffffffffffffffffff191660088201528183601c83013760009101601c019081529392505050565b634e487b7160e01b600052603260045260246000fd5b8183823760009101908152919050565b60006020828403121561247757600080fd5b6122ba82611fd9565b87815260006bffffffffffffffffffffffff19808960601b16602084015263ffffffff60e01b808960e01b166034850152808860e01b166038850152808760e01b16603c85015250600385106124d8576124d86122de565b60f89490941b60408301525060609190911b90911660418201526055019594505050505056fea26469706673582212209c60d1c76eb843f8e6d3a11b4f0793b3f068f1a267c85486593da837494af1bd64736f6c63430008120033",
  "devdoc": {
    "details": "Vea Outbox From ArbitrumGoerli to Goerli. Note: This contract is deployed on Goerli. Note: This contract is permissioned for developer testing (devnet).",
    "events": {
      "Challenged(uint256,address)": {
        "details": "This event indicates that `sendSnapshot(epoch)` should be called in the inbox.",
        "params": {
          "_challenger": "The address of the challenger.",
          "_epoch": "The epoch associated with the challenged claim."
        }
      },
      "Claimed(address,bytes32)": {
        "details": "Watchers check this event to challenge fraud.",
        "params": {
          "_claimer": "The address of the claimer.",
          "_stateRoot": "The state root of the claim."
        }
      },
      "MessageRelayed(uint64)": {
        "details": "This event indicates that a message has been relayed.",
        "params": {
          "_msgId": "The msgId of the message that was relayed."
        }
      },
      "VerificationStarted(uint256)": {
        "details": "This event indicates that the censorship test started and all challengers are ready even in the worst case scenario of a malicious sequencer.",
        "params": {
          "_epoch": "The epoch that started verification."
        }
      },
      "Verified(uint256)": {
        "details": "This events indicates that verification has succeeded. The messages are ready to be relayed.",
        "params": {
          "_epoch": "The epoch that was verified."
        }
      },
      "sequencerDelayLimitDecreaseRequested(uint256)": {
        "details": "This event indicates that a request to decrease the sequencer limit has been made.",
        "params": {
          "_requestedSequencerDelayLimit": "The new sequencer delay limit requested."
        }
      },
      "sequencerDelayLimitUpdated(uint256)": {
        "details": "This event indicates the sequencer limit updated.",
        "params": {
          "_newSequencerDelayLimit": "The new sequencer delay limit."
        }
      }
    },
    "kind": "dev",
    "methods": {
      "censorshipTestStatus((bytes32,address,uint32,uint32,uint32,uint8,address))": {
        "details": "Gets the status of the censorship test for claim.",
        "params": {
          "_claim": "The claim to test."
        },
        "returns": {
          "status": "True if the claim passed the censorship test."
        }
      },
      "challenge(uint256,(bytes32,address,uint32,uint32,uint32,uint8,address))": {
        "details": "Submit a challenge for the claim of the inbox state root snapshot taken at 'epoch'.",
        "params": {
          "_claim": "The claim associated with the epoch.",
          "_epoch": "The epoch of the claim to challenge."
        }
      },
      "changeDevnetOperator(address)": {
        "details": "Changes the devnet operator.",
        "params": {
          "_devnetOperator": "The new testnet operator."
        }
      },
      "claim(uint256,bytes32)": {
        "details": "Submit a claim about the _stateRoot at _epoch and submit a deposit.",
        "params": {
          "_epoch": "The epoch for which the claim is made.",
          "_stateRoot": "The state root to claim."
        }
      },
      "constructor": {
        "details": "Constructor.",
        "params": {
          "_deposit": "The deposit amount to submit a claim in wei.",
          "_epochPeriod": "The duration of each epoch.",
          "_maxClaimDelayEpochs": "The maximum number of epochs that can be claimed in the past.",
          "_maxMissingBlocks": "The maximum number of blocks that can be missing in a challenge period.",
          "_minChallengePeriod": "The minimum time window to challenge a claim.",
          "_timeoutEpochs": "The epochs before the bridge is considered shutdown.",
          "_veaInboxArbToEthDevnet": "The address of the inbox contract on Arbitrum."
        }
      },
      "devnetAdvanceState(uint256,bytes32)": {
        "details": "Testnet operator utility function to claim, validate and withdraw.",
        "params": {
          "_epoch": "The epoch for which the claim is made.",
          "_stateroot": "The state root to claim."
        }
      },
      "epochAt(uint256)": {
        "details": "Get the current epoch from the outbox's point of view using the Ethereum L1 clock.",
        "returns": {
          "epoch": "The hash of the claim."
        }
      },
      "epochNow()": {
        "details": "Get the current epoch from the outbox's point of view using the Ethereum L1 clock.",
        "returns": {
          "epoch": "The hash of the claim."
        }
      },
      "executeSequencerDelayLimitDecreaseRequest()": {
        "details": "execute sequencerDelayLimitDecreaseRequest"
      },
      "hashClaim((bytes32,address,uint32,uint32,uint32,uint8,address))": {
        "details": "Hashes the claim.",
        "params": {
          "_claim": "The claim to hash."
        },
        "returns": {
          "hashedClaim": "The hash of the claim."
        }
      },
      "resolveDisputedClaim(uint256,bytes32,(bytes32,address,uint32,uint32,uint32,uint8,address))": {
        "details": "Resolves any challenge of the optimistic claim for '_epoch'.",
        "params": {
          "_claim": "The claim associated with the epoch.",
          "_epoch": "The epoch to verify.",
          "_stateRoot": "The true state root for the epoch."
        }
      },
      "sendMessage(bytes32[],uint64,address,bytes)": {
        "details": "Verifies and relays the message. UNTRUSTED.",
        "params": {
          "_message": "The message encoded in the vea inbox as abi.encodeWithSelector(fnSelector, msg.sender, param1, param2, ...)",
          "_msgId": "The zero based index of the message in the inbox.",
          "_proof": "The merkle proof to prove the message inclusion in the inbox state root.",
          "_to": "The address of the contract on Ethereum to call."
        }
      },
      "startVerification(uint256,(bytes32,address,uint32,uint32,uint32,uint8,address))": {
        "details": "Start verification for claim for 'epoch'.",
        "params": {
          "_claim": "The claim associated with the epoch.",
          "_epoch": "The epoch of the claim to challenge."
        }
      },
      "updateSequencerDelayLimit()": {
        "details": "Request to decrease the sequencerDelayLimit."
      },
      "verifySnapshot(uint256,(bytes32,address,uint32,uint32,uint32,uint8,address))": {
        "details": "Resolves the optimistic claim for '_epoch'.",
        "params": {
          "_claim": "The claim associated with the epoch.",
          "_epoch": "The epoch of the optimistic claim."
        }
      },
      "withdrawChallengeDeposit(uint256,(bytes32,address,uint32,uint32,uint32,uint8,address))": {
        "details": "Sends the deposit back to the Challenger if successful. Includes a portion of the Bridger's deposit.",
        "params": {
          "_claim": "The claim associated with the epoch.",
          "_epoch": "The epoch associated with the challenge deposit to withraw."
        }
      },
      "withdrawChallengerEscapeHatch(uint256,(bytes32,address,uint32,uint32,uint32,uint8,address))": {
        "details": "When bridge is shutdown, no claim disputes can be resolved. This allows the challenger to withdraw their deposit.",
        "params": {
          "_claim": "The claim associated with the epoch.",
          "_epoch": "The epoch associated with the claim deposit to withraw."
        }
      },
      "withdrawClaimDeposit(uint256,(bytes32,address,uint32,uint32,uint32,uint8,address))": {
        "details": "Sends the deposit back to the Bridger if their claim is not successfully challenged. Includes a portion of the Challenger's deposit if unsuccessfully challenged.",
        "params": {
          "_claim": "The claim associated with the epoch.",
          "_epoch": "The epoch associated with the claim deposit to withraw."
        }
      },
      "withdrawClaimerEscapeHatch(uint256,(bytes32,address,uint32,uint32,uint32,uint8,address))": {
        "details": "When bridge is shutdown, no claim disputes can be resolved. This allows the claimer to withdraw their deposit.",
        "params": {
          "_claim": "The claim associated with the epoch.",
          "_epoch": "The epoch associated with the claim deposit to withraw."
        }
      }
    },
    "version": 1
  },
  "userdoc": {
    "kind": "user",
    "methods": {
      "resolveDisputedClaim(uint256,bytes32,(bytes32,address,uint32,uint32,uint32,uint8,address))": {
        "notice": "Note: Access restricted to arbitrum  bridge."
      }
    },
    "version": 1
  },
  "storageLayout": {
    "storage": [
      {
        "astId": 432,
        "contract": "src/devnets/arbitrumToEth/VeaOutboxArbToEthDevnet.sol:VeaOutboxArbToEthDevnet",
        "label": "stateRoot",
        "offset": 0,
        "slot": "0",
        "type": "t_bytes32"
      },
      {
        "astId": 434,
        "contract": "src/devnets/arbitrumToEth/VeaOutboxArbToEthDevnet.sol:VeaOutboxArbToEthDevnet",
        "label": "latestVerifiedEpoch",
        "offset": 0,
        "slot": "1",
        "type": "t_uint256"
      },
      {
        "astId": 438,
        "contract": "src/devnets/arbitrumToEth/VeaOutboxArbToEthDevnet.sol:VeaOutboxArbToEthDevnet",
        "label": "claimHashes",
        "offset": 0,
        "slot": "2",
        "type": "t_mapping(t_uint256,t_bytes32)"
      },
      {
        "astId": 442,
        "contract": "src/devnets/arbitrumToEth/VeaOutboxArbToEthDevnet.sol:VeaOutboxArbToEthDevnet",
        "label": "relayed",
        "offset": 0,
        "slot": "3",
        "type": "t_mapping(t_uint256,t_bytes32)"
      },
      {
        "astId": 444,
        "contract": "src/devnets/arbitrumToEth/VeaOutboxArbToEthDevnet.sol:VeaOutboxArbToEthDevnet",
        "label": "sequencerDelayLimit",
        "offset": 0,
        "slot": "4",
        "type": "t_uint256"
      },
      {
        "astId": 447,
        "contract": "src/devnets/arbitrumToEth/VeaOutboxArbToEthDevnet.sol:VeaOutboxArbToEthDevnet",
        "label": "sequencerDelayLimitDecreaseRequest",
        "offset": 0,
        "slot": "5",
        "type": "t_struct(SequencerDelayLimitDecreaseRequest)452_storage"
      },
      {
        "astId": 6525,
        "contract": "src/devnets/arbitrumToEth/VeaOutboxArbToEthDevnet.sol:VeaOutboxArbToEthDevnet",
        "label": "devnetOperator",
        "offset": 0,
        "slot": "7",
        "type": "t_address"
      }
    ],
    "types": {
      "t_address": {
        "encoding": "inplace",
        "label": "address",
        "numberOfBytes": "20"
      },
      "t_bytes32": {
        "encoding": "inplace",
        "label": "bytes32",
        "numberOfBytes": "32"
      },
      "t_mapping(t_uint256,t_bytes32)": {
        "encoding": "mapping",
        "key": "t_uint256",
        "label": "mapping(uint256 => bytes32)",
        "numberOfBytes": "32",
        "value": "t_bytes32"
      },
      "t_struct(SequencerDelayLimitDecreaseRequest)452_storage": {
        "encoding": "inplace",
        "label": "struct VeaOutboxArbToEth.SequencerDelayLimitDecreaseRequest",
        "members": [
          {
            "astId": 449,
            "contract": "src/devnets/arbitrumToEth/VeaOutboxArbToEthDevnet.sol:VeaOutboxArbToEthDevnet",
            "label": "requestedsequencerDelayLimit",
            "offset": 0,
            "slot": "0",
            "type": "t_uint256"
          },
          {
            "astId": 451,
            "contract": "src/devnets/arbitrumToEth/VeaOutboxArbToEthDevnet.sol:VeaOutboxArbToEthDevnet",
            "label": "timestamp",
            "offset": 0,
            "slot": "1",
            "type": "t_uint256"
          }
        ],
        "numberOfBytes": "64"
      },
      "t_uint256": {
        "encoding": "inplace",
        "label": "uint256",
        "numberOfBytes": "32"
      }
    }
  }
}