{
  "address": "0x9cF5c011e2A4CB7797413f311A35AcB021071c35",
  "abi": [
    {
      "inputs": [
        {
          "internalType": "uint256",
          "name": "_deposit",
          "type": "uint256"
        },
        {
          "internalType": "uint256",
          "name": "_epochPeriod",
          "type": "uint256"
        },
        {
          "internalType": "uint256",
          "name": "_minChallengePeriod",
          "type": "uint256"
        },
        {
          "internalType": "uint256",
          "name": "_timeoutEpochs",
          "type": "uint256"
        },
        {
          "internalType": "address",
          "name": "_veaInboxArbToEth",
          "type": "address"
        },
        {
          "internalType": "address",
          "name": "_bridge",
          "type": "address"
        },
        {
          "internalType": "uint256",
          "name": "_maxMissingBlocks",
          "type": "uint256"
        }
      ],
      "stateMutability": "nonpayable",
      "type": "constructor"
    },
    {
      "anonymous": false,
      "inputs": [
        {
          "indexed": false,
          "internalType": "uint256",
          "name": "_epoch",
          "type": "uint256"
        },
        {
          "indexed": true,
          "internalType": "address",
          "name": "_challenger",
          "type": "address"
        }
      ],
      "name": "Challenged",
      "type": "event"
    },
    {
      "anonymous": false,
      "inputs": [
        {
          "indexed": true,
          "internalType": "address",
          "name": "_claimer",
          "type": "address"
        },
        {
          "indexed": false,
          "internalType": "bytes32",
          "name": "_stateRoot",
          "type": "bytes32"
        }
      ],
      "name": "Claimed",
      "type": "event"
    },
    {
      "anonymous": false,
      "inputs": [
        {
          "indexed": false,
          "internalType": "uint64",
          "name": "_msgId",
          "type": "uint64"
        }
      ],
      "name": "MessageRelayed",
      "type": "event"
    },
    {
      "anonymous": false,
      "inputs": [
        {
          "indexed": false,
          "internalType": "uint256",
          "name": "_requestedSequencerLimit",
          "type": "uint256"
        }
      ],
      "name": "SequencerLimitDecreaseRequested",
      "type": "event"
    },
    {
      "anonymous": false,
      "inputs": [
        {
          "indexed": false,
          "internalType": "uint256",
          "name": "_newSequencerLimit",
          "type": "uint256"
        }
      ],
      "name": "SequencerLimitUpdated",
      "type": "event"
    },
    {
      "anonymous": false,
      "inputs": [
        {
          "indexed": false,
          "internalType": "uint256",
          "name": "_epoch",
          "type": "uint256"
        }
      ],
      "name": "VerificationStarted",
      "type": "event"
    },
    {
      "anonymous": false,
      "inputs": [
        {
          "indexed": false,
          "internalType": "uint256",
          "name": "_epoch",
          "type": "uint256"
        }
      ],
      "name": "Verified",
      "type": "event"
    },
    {
      "inputs": [],
      "name": "bridge",
      "outputs": [
        {
          "internalType": "contract IBridge",
          "name": "",
          "type": "address"
        }
      ],
      "stateMutability": "view",
      "type": "function"
    },
    {
      "inputs": [
        {
          "components": [
            {
              "internalType": "bytes32",
              "name": "stateRoot",
              "type": "bytes32"
            },
            {
              "internalType": "address",
              "name": "claimer",
              "type": "address"
            },
            {
              "internalType": "uint32",
              "name": "timestampClaimed",
              "type": "uint32"
            },
            {
              "internalType": "uint32",
              "name": "timestampVerification",
              "type": "uint32"
            },
            {
              "internalType": "uint32",
              "name": "blocknumberVerification",
              "type": "uint32"
            },
            {
              "internalType": "enum Party",
              "name": "honest",
              "type": "uint8"
            },
            {
              "internalType": "address",
              "name": "challenger",
              "type": "address"
            }
          ],
          "internalType": "struct Claim",
          "name": "_claim",
          "type": "tuple"
        }
      ],
      "name": "censorshipTestStatus",
      "outputs": [
        {
          "internalType": "enum VeaOutboxArbToEth.CensorshipTestStatus",
          "name": "status",
          "type": "uint8"
        }
      ],
      "stateMutability": "view",
      "type": "function"
    },
    {
      "inputs": [
        {
          "internalType": "uint256",
          "name": "_epoch",
          "type": "uint256"
        },
        {
          "components": [
            {
              "internalType": "bytes32",
              "name": "stateRoot",
              "type": "bytes32"
            },
            {
              "internalType": "address",
              "name": "claimer",
              "type": "address"
            },
            {
              "internalType": "uint32",
              "name": "timestampClaimed",
              "type": "uint32"
            },
            {
              "internalType": "uint32",
              "name": "timestampVerification",
              "type": "uint32"
            },
            {
              "internalType": "uint32",
              "name": "blocknumberVerification",
              "type": "uint32"
            },
            {
              "internalType": "enum Party",
              "name": "honest",
              "type": "uint8"
            },
            {
              "internalType": "address",
              "name": "challenger",
              "type": "address"
            }
          ],
          "internalType": "struct Claim",
          "name": "_claim",
          "type": "tuple"
        }
      ],
      "name": "challenge",
      "outputs": [],
      "stateMutability": "payable",
      "type": "function"
    },
    {
      "inputs": [
        {
          "internalType": "uint256",
          "name": "_epoch",
          "type": "uint256"
        },
        {
          "internalType": "bytes32",
          "name": "_stateRoot",
          "type": "bytes32"
        }
      ],
      "name": "claim",
      "outputs": [],
      "stateMutability": "payable",
      "type": "function"
    },
    {
      "inputs": [
        {
          "internalType": "uint256",
          "name": "",
          "type": "uint256"
        }
      ],
      "name": "claimHashes",
      "outputs": [
        {
          "internalType": "bytes32",
          "name": "",
          "type": "bytes32"
        }
      ],
      "stateMutability": "view",
      "type": "function"
    },
    {
      "inputs": [],
      "name": "deposit",
      "outputs": [
        {
          "internalType": "uint256",
          "name": "",
          "type": "uint256"
        }
      ],
      "stateMutability": "view",
      "type": "function"
    },
    {
      "inputs": [
        {
          "internalType": "uint256",
          "name": "timestamp",
          "type": "uint256"
        }
      ],
      "name": "epochAt",
      "outputs": [
        {
          "internalType": "uint256",
          "name": "epoch",
          "type": "uint256"
        }
      ],
      "stateMutability": "view",
      "type": "function"
    },
    {
      "inputs": [],
      "name": "epochNow",
      "outputs": [
        {
          "internalType": "uint256",
          "name": "epoch",
          "type": "uint256"
        }
      ],
      "stateMutability": "view",
      "type": "function"
    },
    {
      "inputs": [],
      "name": "epochPeriod",
      "outputs": [
        {
          "internalType": "uint256",
          "name": "",
          "type": "uint256"
        }
      ],
      "stateMutability": "view",
      "type": "function"
    },
    {
      "inputs": [],
      "name": "executeSequencerLimitDecreaseRequest",
      "outputs": [],
      "stateMutability": "nonpayable",
      "type": "function"
    },
    {
      "inputs": [
        {
          "components": [
            {
              "internalType": "bytes32",
              "name": "stateRoot",
              "type": "bytes32"
            },
            {
              "internalType": "address",
              "name": "claimer",
              "type": "address"
            },
            {
              "internalType": "uint32",
              "name": "timestampClaimed",
              "type": "uint32"
            },
            {
              "internalType": "uint32",
              "name": "timestampVerification",
              "type": "uint32"
            },
            {
              "internalType": "uint32",
              "name": "blocknumberVerification",
              "type": "uint32"
            },
            {
              "internalType": "enum Party",
              "name": "honest",
              "type": "uint8"
            },
            {
              "internalType": "address",
              "name": "challenger",
              "type": "address"
            }
          ],
          "internalType": "struct Claim",
          "name": "_claim",
          "type": "tuple"
        }
      ],
      "name": "hashClaim",
      "outputs": [
        {
          "internalType": "bytes32",
          "name": "hashedClaim",
          "type": "bytes32"
        }
      ],
      "stateMutability": "pure",
      "type": "function"
    },
    {
      "inputs": [],
      "name": "latestVerifiedEpoch",
      "outputs": [
        {
          "internalType": "uint256",
          "name": "",
          "type": "uint256"
        }
      ],
      "stateMutability": "view",
      "type": "function"
    },
    {
      "inputs": [],
      "name": "maxMissingBlocks",
      "outputs": [
        {
          "internalType": "uint256",
          "name": "",
          "type": "uint256"
        }
      ],
      "stateMutability": "view",
      "type": "function"
    },
    {
      "inputs": [],
      "name": "minChallengePeriod",
      "outputs": [
        {
          "internalType": "uint256",
          "name": "",
          "type": "uint256"
        }
      ],
      "stateMutability": "view",
      "type": "function"
    },
    {
      "inputs": [
        {
          "internalType": "uint256",
          "name": "",
          "type": "uint256"
        }
      ],
      "name": "relayed",
      "outputs": [
        {
          "internalType": "bytes32",
          "name": "",
          "type": "bytes32"
        }
      ],
      "stateMutability": "view",
      "type": "function"
    },
    {
      "inputs": [
        {
          "internalType": "uint256",
          "name": "_epoch",
          "type": "uint256"
        },
        {
          "internalType": "bytes32",
          "name": "_stateRoot",
          "type": "bytes32"
        },
        {
          "components": [
            {
              "internalType": "bytes32",
              "name": "stateRoot",
              "type": "bytes32"
            },
            {
              "internalType": "address",
              "name": "claimer",
              "type": "address"
            },
            {
              "internalType": "uint32",
              "name": "timestampClaimed",
              "type": "uint32"
            },
            {
              "internalType": "uint32",
              "name": "timestampVerification",
              "type": "uint32"
            },
            {
              "internalType": "uint32",
              "name": "blocknumberVerification",
              "type": "uint32"
            },
            {
              "internalType": "enum Party",
              "name": "honest",
              "type": "uint8"
            },
            {
              "internalType": "address",
              "name": "challenger",
              "type": "address"
            }
          ],
          "internalType": "struct Claim",
          "name": "_claim",
          "type": "tuple"
        }
      ],
      "name": "resolveDisputedClaim",
      "outputs": [],
      "stateMutability": "nonpayable",
      "type": "function"
    },
    {
      "inputs": [
        {
          "internalType": "bytes32[]",
          "name": "_proof",
          "type": "bytes32[]"
        },
        {
          "internalType": "uint64",
          "name": "_msgId",
          "type": "uint64"
        },
        {
          "internalType": "address",
          "name": "_to",
          "type": "address"
        },
        {
          "internalType": "bytes",
          "name": "_message",
          "type": "bytes"
        }
      ],
      "name": "sendMessage",
      "outputs": [],
      "stateMutability": "nonpayable",
      "type": "function"
    },
    {
      "inputs": [],
      "name": "sequencerLimit",
      "outputs": [
        {
          "internalType": "uint256",
          "name": "",
          "type": "uint256"
        }
      ],
      "stateMutability": "view",
      "type": "function"
    },
    {
      "inputs": [],
      "name": "sequencerLimitDecreaseRequest",
      "outputs": [
        {
          "internalType": "uint256",
          "name": "requestedSequencerLimit",
          "type": "uint256"
        },
        {
          "internalType": "uint256",
          "name": "timestamp",
          "type": "uint256"
        }
      ],
      "stateMutability": "view",
      "type": "function"
    },
    {
      "inputs": [
        {
          "internalType": "uint256",
          "name": "_epoch",
          "type": "uint256"
        },
        {
          "components": [
            {
              "internalType": "bytes32",
              "name": "stateRoot",
              "type": "bytes32"
            },
            {
              "internalType": "address",
              "name": "claimer",
              "type": "address"
            },
            {
              "internalType": "uint32",
              "name": "timestampClaimed",
              "type": "uint32"
            },
            {
              "internalType": "uint32",
              "name": "timestampVerification",
              "type": "uint32"
            },
            {
              "internalType": "uint32",
              "name": "blocknumberVerification",
              "type": "uint32"
            },
            {
              "internalType": "enum Party",
              "name": "honest",
              "type": "uint8"
            },
            {
              "internalType": "address",
              "name": "challenger",
              "type": "address"
            }
          ],
          "internalType": "struct Claim",
          "name": "_claim",
          "type": "tuple"
        }
      ],
      "name": "startVerification",
      "outputs": [],
      "stateMutability": "nonpayable",
      "type": "function"
    },
    {
      "inputs": [],
      "name": "stateRoot",
      "outputs": [
        {
          "internalType": "bytes32",
          "name": "",
          "type": "bytes32"
        }
      ],
      "stateMutability": "view",
      "type": "function"
    },
    {
      "inputs": [],
      "name": "timeoutEpochs",
      "outputs": [
        {
          "internalType": "uint256",
          "name": "",
          "type": "uint256"
        }
      ],
      "stateMutability": "view",
      "type": "function"
    },
    {
      "inputs": [],
      "name": "updateSequencerLimit",
      "outputs": [],
      "stateMutability": "nonpayable",
      "type": "function"
    },
    {
      "inputs": [],
      "name": "veaInboxArbToEth",
      "outputs": [
        {
          "internalType": "address",
          "name": "",
          "type": "address"
        }
      ],
      "stateMutability": "view",
      "type": "function"
    },
    {
      "inputs": [
        {
          "internalType": "uint256",
          "name": "_epoch",
          "type": "uint256"
        },
        {
          "components": [
            {
              "internalType": "bytes32",
              "name": "stateRoot",
              "type": "bytes32"
            },
            {
              "internalType": "address",
              "name": "claimer",
              "type": "address"
            },
            {
              "internalType": "uint32",
              "name": "timestampClaimed",
              "type": "uint32"
            },
            {
              "internalType": "uint32",
              "name": "timestampVerification",
              "type": "uint32"
            },
            {
              "internalType": "uint32",
              "name": "blocknumberVerification",
              "type": "uint32"
            },
            {
              "internalType": "enum Party",
              "name": "honest",
              "type": "uint8"
            },
            {
              "internalType": "address",
              "name": "challenger",
              "type": "address"
            }
          ],
          "internalType": "struct Claim",
          "name": "_claim",
          "type": "tuple"
        }
      ],
      "name": "verifySnapshot",
      "outputs": [],
      "stateMutability": "nonpayable",
      "type": "function"
    },
    {
      "inputs": [
        {
          "internalType": "uint256",
          "name": "_epoch",
          "type": "uint256"
        },
        {
          "components": [
            {
              "internalType": "bytes32",
              "name": "stateRoot",
              "type": "bytes32"
            },
            {
              "internalType": "address",
              "name": "claimer",
              "type": "address"
            },
            {
              "internalType": "uint32",
              "name": "timestampClaimed",
              "type": "uint32"
            },
            {
              "internalType": "uint32",
              "name": "timestampVerification",
              "type": "uint32"
            },
            {
              "internalType": "uint32",
              "name": "blocknumberVerification",
              "type": "uint32"
            },
            {
              "internalType": "enum Party",
              "name": "honest",
              "type": "uint8"
            },
            {
              "internalType": "address",
              "name": "challenger",
              "type": "address"
            }
          ],
          "internalType": "struct Claim",
          "name": "_claim",
          "type": "tuple"
        }
      ],
      "name": "withdrawChallengeDeposit",
      "outputs": [],
      "stateMutability": "nonpayable",
      "type": "function"
    },
    {
      "inputs": [
        {
          "internalType": "uint256",
          "name": "_epoch",
          "type": "uint256"
        },
        {
          "components": [
            {
              "internalType": "bytes32",
              "name": "stateRoot",
              "type": "bytes32"
            },
            {
              "internalType": "address",
              "name": "claimer",
              "type": "address"
            },
            {
              "internalType": "uint32",
              "name": "timestampClaimed",
              "type": "uint32"
            },
            {
              "internalType": "uint32",
              "name": "timestampVerification",
              "type": "uint32"
            },
            {
              "internalType": "uint32",
              "name": "blocknumberVerification",
              "type": "uint32"
            },
            {
              "internalType": "enum Party",
              "name": "honest",
              "type": "uint8"
            },
            {
              "internalType": "address",
              "name": "challenger",
              "type": "address"
            }
          ],
          "internalType": "struct Claim",
          "name": "_claim",
          "type": "tuple"
        }
      ],
      "name": "withdrawChallengerEscapeHatch",
      "outputs": [],
      "stateMutability": "nonpayable",
      "type": "function"
    },
    {
      "inputs": [
        {
          "internalType": "uint256",
          "name": "_epoch",
          "type": "uint256"
        },
        {
          "components": [
            {
              "internalType": "bytes32",
              "name": "stateRoot",
              "type": "bytes32"
            },
            {
              "internalType": "address",
              "name": "claimer",
              "type": "address"
            },
            {
              "internalType": "uint32",
              "name": "timestampClaimed",
              "type": "uint32"
            },
            {
              "internalType": "uint32",
              "name": "timestampVerification",
              "type": "uint32"
            },
            {
              "internalType": "uint32",
              "name": "blocknumberVerification",
              "type": "uint32"
            },
            {
              "internalType": "enum Party",
              "name": "honest",
              "type": "uint8"
            },
            {
              "internalType": "address",
              "name": "challenger",
              "type": "address"
            }
          ],
          "internalType": "struct Claim",
          "name": "_claim",
          "type": "tuple"
        }
      ],
      "name": "withdrawClaimDeposit",
      "outputs": [],
      "stateMutability": "nonpayable",
      "type": "function"
    },
    {
      "inputs": [
        {
          "internalType": "uint256",
          "name": "_epoch",
          "type": "uint256"
        },
        {
          "components": [
            {
              "internalType": "bytes32",
              "name": "stateRoot",
              "type": "bytes32"
            },
            {
              "internalType": "address",
              "name": "claimer",
              "type": "address"
            },
            {
              "internalType": "uint32",
              "name": "timestampClaimed",
              "type": "uint32"
            },
            {
              "internalType": "uint32",
              "name": "timestampVerification",
              "type": "uint32"
            },
            {
              "internalType": "uint32",
              "name": "blocknumberVerification",
              "type": "uint32"
            },
            {
              "internalType": "enum Party",
              "name": "honest",
              "type": "uint8"
            },
            {
              "internalType": "address",
              "name": "challenger",
              "type": "address"
            }
          ],
          "internalType": "struct Claim",
          "name": "_claim",
          "type": "tuple"
        }
      ],
      "name": "withdrawClaimerEscapeHatch",
      "outputs": [],
      "stateMutability": "nonpayable",
      "type": "function"
    }
  ],
  "transactionHash": "0xeca2566e580428b02088fc385aadf58ed9920fe21f2af39dc7de30ba32eed346",
  "args": [
    "1000000000000000000",
    3600,
    10800,
    1000000,
    "0x8893441F219e2836D9c7E1c727CDA9ACFF84D069",
    "0xaf4159A80B6Cc41ED517DB1c453d1Ef5C2e4dB72",
    1000000
  ],
  "numDeployments": 4,
  "solcInputHash": "c9836c6cb024801f3104e49f87086294",
  "bytecode": "0x6101a06040523480156200001257600080fd5b5060405162002b2e38038062002b2e8339810160408190526200003591620002ce565b60c08790526101208690526101408590526101608490526001600160a01b0380841660a05282166080526101808190526200006f620000ce565b6200007c6002886200034c565b60e08190526200008e8860026200036f565b6200009a91906200038f565b6101005261012051600190620000b190426200034c565b620000bd91906200038f565b600155506200040195505050505050565b60006080516001600160a01b031663ee35f3276040518163ffffffff1660e01b8152600401602060405180830381865afa15801562000111573d6000803e3d6000fd5b505050506040513d601f19601f82011682018060405250810190620001379190620003a5565b6001600160a01b031663ebea461d6040518163ffffffff1660e01b8152600401608060405180830381865afa15801562000175573d6000803e3d6000fd5b505050506040513d601f19601f820116820180604052508101906200019b9190620003ca565b5092505050600454811115620001e65760048190556040518181527f5235f7b7d7d312ac3bdcf23fddb2cb8a6b24ee5de5e699d3f9f4bb8b893b408c9060200160405180910390a150565b600454811015620002ae5760065415620002605760405162461bcd60e51b815260206004820152603160248201527f53657175656e636572206c696d697420646563726561736520726571756573746044820152701030b63932b0b23c903832b73234b7339760791b606482015260840160405180910390fd5b604080518082018252828152426020918201819052600584905560065590518281527f08b771dddc6449625c7cd99bccdaf915b9c891fb6fa03695a71175b69e376ebb910160405180910390a15b50565b80516001600160a01b0381168114620002c957600080fd5b919050565b600080600080600080600060e0888a031215620002ea57600080fd5b875196506020880151955060408801519450606088015193506200031160808901620002b1565b92506200032160a08901620002b1565b915060c0880151905092959891949750929550565b634e487b7160e01b600052601160045260246000fd5b6000826200036a57634e487b7160e01b600052601260045260246000fd5b500490565b808202811582820484141762000389576200038962000336565b92915050565b8181038181111562000389576200038962000336565b600060208284031215620003b857600080fd5b620003c382620002b1565b9392505050565b60008060008060808587031215620003e157600080fd5b505082516020840151604085015160609095015191969095509092509050565b60805160a05160c05160e05161010051610120516101405161016051610180516125f16200053d60003960008181610426015261202501526000818161045a0152818161083e015281816117f0015281816119e40152611bf00152600081816104e20152611fb901526000818161048e0152818161086201528181610b6b01528181610e2b01528181610eb3015281816115b7015281816117710152818161181401528181611a080152611c14015260006113ce01526000818161137b01526114e00152600081816105160152818161063e015281816107c5015281816107f201528181610dbb0152818161154301528181611b4e01528181611bb50152611d5b015260008181610361015261094c0152600081816105dc015281816108dd0152818161097601528181610ca10152611dab01526125f16000f3fe6080604052600436106101c25760003560e01c806390df63b7116100f7578063b633b94411610095578063da456a0e11610064578063da456a0e14610558578063dd5fdeaa14610588578063df19e6ff1461059d578063e78cea92146105ca57600080fd5b8063b633b944146104b0578063c2114a16146104d0578063d0e30db014610504578063da2b7bc41461053857600080fd5b80639c13b6b5116100d15780639c13b6b5146103fe578063aa22a1c614610414578063b044397e14610448578063b5b7a1841461047c57600080fd5b806390df63b71461039b578063930f28af146103c85780639588eca2146103e857600080fd5b806331ddf7431161016457806349b4299e1161013e57806349b4299e146102ef5780634a439cfe1461030f578063541adcca1461032f57806369cd250d1461034f57600080fd5b806331ddf7431461028f5780633ce43cfd146102af5780634788cb38146102cf57600080fd5b806325a2acb1116101a057806325a2acb1146102245780632639c0601461023957806327ee6bdd1461026657806331d144571461027c57600080fd5b806301139b68146101c75780630f0adca5146101dc578063222ae786146101fc575b600080fd5b6101da6101d536600461215f565b6105fe565b005b3480156101e857600080fd5b506101da6101f736600461218d565b61083c565b34801561020857600080fd5b50610211610b64565b6040519081526020015b60405180910390f35b34801561023057600080fd5b506101da610b95565b34801561024557600080fd5b506102116102543660046121c4565b60026020526000908152604090205481565b34801561027257600080fd5b5061021160015481565b6101da61028a3660046121dd565b610db9565b34801561029b57600080fd5b506101da6102aa366004612260565b611024565b3480156102bb57600080fd5b506101da6102ca366004612322565b6112c4565b3480156102db57600080fd5b506101da6102ea366004612322565b61140b565b3480156102fb57600080fd5b506101da61030a36600461215f565b611580565b34801561031b57600080fd5b5061021161032a3660046121c4565b61176a565b34801561033b57600080fd5b5061021161034a36600461235b565b61179c565b34801561035b57600080fd5b506103837f000000000000000000000000000000000000000000000000000000000000000081565b6040516001600160a01b03909116815260200161021b565b3480156103a757600080fd5b506102116103b63660046121c4565b60036020526000908152604090205481565b3480156103d457600080fd5b506101da6103e336600461215f565b6117ee565b3480156103f457600080fd5b5061021160005481565b34801561040a57600080fd5b5061021160045481565b34801561042057600080fd5b506102117f000000000000000000000000000000000000000000000000000000000000000081565b34801561045457600080fd5b506102117f000000000000000000000000000000000000000000000000000000000000000081565b34801561048857600080fd5b506102117f000000000000000000000000000000000000000000000000000000000000000081565b3480156104bc57600080fd5b506101da6104cb36600461215f565b6119e2565b3480156104dc57600080fd5b506102117f000000000000000000000000000000000000000000000000000000000000000081565b34801561051057600080fd5b506102117f000000000000000000000000000000000000000000000000000000000000000081565b34801561054457600080fd5b506101da61055336600461215f565b611bee565b34801561056457600080fd5b50600554600654610573919082565b6040805192835260208301919091520161021b565b34801561059457600080fd5b506101da611da7565b3480156105a957600080fd5b506105bd6105b836600461235b565b611f9b565b60405161021b9190612394565b3480156105d657600080fd5b506103837f000000000000000000000000000000000000000000000000000000000000000081565b6106078161179c565b6000838152600260205260409020541461063c5760405162461bcd60e51b8152600401610633906123ae565b60405180910390fd5b7f00000000000000000000000000000000000000000000000000000000000000003410156106ac5760405162461bcd60e51b815260206004820152601f60248201527f496e73756666696369656e74206368616c6c656e6765206465706f7369742e006044820152606401610633565b60c08101516001600160a01b0316156107075760405162461bcd60e51b815260206004820152601960248201527f436c61696d20616c7265616479206368616c6c656e6765642e000000000000006044820152606401610633565b60008160a00151600281111561071f5761071f61237e565b1461076c5760405162461bcd60e51b815260206004820152601760248201527f436c61696d20616c72656164792076657269666965642e0000000000000000006044820152606401610633565b3360c082015261077b8161179c565b600083815260026020908152604091829020929092555183815233917fcfe09ca25f55d949baba5e280f5750c9ba4b9048fca5532f916067d433afe4d791015b60405180910390a27f00000000000000000000000000000000000000000000000000000000000000003411156108385760006108177f0000000000000000000000000000000000000000000000000000000000000000346123ec565b604051909150339082156108fc029083906000818181858888f15050505050505b5050565b7f00000000000000000000000000000000000000000000000000000000000000006001547f0000000000000000000000000000000000000000000000000000000000000000428161088f5761088f6123ff565b040311156108d25760405162461bcd60e51b815260206004820152601060248201526f213934b233b29029b43aba3237bbb71760811b6044820152606401610633565b336001600160a01b037f0000000000000000000000000000000000000000000000000000000000000000161461094a5760405162461bcd60e51b815260206004820181905260248201527f4e6f742066726f6d206e617469766520617262697472756d206272696467652e6044820152606401610633565b7f00000000000000000000000000000000000000000000000000000000000000006001600160a01b03167f00000000000000000000000000000000000000000000000000000000000000006001600160a01b031663ab5d89436040518163ffffffff1660e01b8152600401602060405180830381865afa1580156109d2573d6000803e3d6000fd5b505050506040513d601f19601f820116820180604052508101906109f69190612415565b6001600160a01b03166380648b026040518163ffffffff1660e01b8152600401602060405180830381865afa158015610a33573d6000803e3d6000fd5b505050506040513d601f19601f82011682018060405250810190610a579190612415565b6001600160a01b031614610aa65760405162461bcd60e51b81526020600482015260166024820152753b32b0a4b73137bc20b9312a37a2ba341037b7363c9760511b6044820152606401610633565b60015483118015610ab657508115155b15610af957600183905560008290556040518381527ff786e7f77ede00a02a5464f8f0555798f42ba99a4a920ef2778db8d75e4656f79060200160405180910390a15b610b028161179c565b60008481526002602052604090205403610b5f578051829003610b2b57600160a0820152610b46565b60c08101516001600160a01b031615610b4657600260a08201525b610b4f8161179c565b6000848152600260205260409020555b505050565b6000610b907f000000000000000000000000000000000000000000000000000000000000000042612432565b905090565b600654600003610bfc5760405162461bcd60e51b815260206004820152602c60248201527f4e6f2070656e64696e672073657175656e636572206c696d697420646563726560448201526b30b9b2903932b8bab2b9ba1760a11b6064820152608401610633565b600454600654610c0c9190612454565b4211610c755760405162461bcd60e51b815260206004820152603260248201527f53657175656e636572206c696d697420646563726561736520726571756573746044820152711034b99039ba34b636103832b73234b7339760711b6064820152608401610633565b6005805460009182905560068290556040805163ee35f32760e01b815290519192916001600160a01b037f0000000000000000000000000000000000000000000000000000000000000000169163ee35f3279160048083019260209291908290030181865afa158015610cec573d6000803e3d6000fd5b505050506040513d601f19601f82011682018060405250810190610d109190612415565b6001600160a01b031663ebea461d6040518163ffffffff1660e01b8152600401608060405180830381865afa158015610d4d573d6000803e3d6000fd5b505050506040513d601f19601f82011682018060405250810190610d719190612467565b50925050508181036108385760048290556040518281527f5235f7b7d7d312ac3bdcf23fddb2cb8a6b24ee5de5e699d3f9f4bb8b893b408c9060200160405180910390a15050565b7f0000000000000000000000000000000000000000000000000000000000000000341015610e295760405162461bcd60e51b815260206004820152601b60248201527f496e73756666696369656e7420636c61696d206465706f7369742e00000000006044820152606401610633565b7f00000000000000000000000000000000000000000000000000000000000000004281610e5857610e586123ff565b048210610ea75760405162461bcd60e51b815260206004820152601960248201527f45706f636820686173206e6f7420796574207061737365642e000000000000006044820152606401610633565b600454421115610f2b577f0000000000000000000000000000000000000000000000000000000000000000600454420381610ee457610ee46123ff565b04826001011015610f2b5760405162461bcd60e51b815260206004820152601160248201527022b837b1b41034b9903a37b79037b6321760791b6044820152606401610633565b80610f485760405162461bcd60e51b8152600401610633906123ae565b60008281526002602052604090205415610f9a5760405162461bcd60e51b815260206004820152601360248201527221b630b4b69030b63932b0b23c9036b0b2329760691b6044820152606401610633565b6040805160e0810182528281523360208201524263ffffffff16918101919091526000606082018190526080820181905260a0820181905260c0820152610fe09061179c565b600083815260026020908152604091829020929092555182815233917f91d697238e9aa9f3172d17522c9be529b94a892481554e1ea619369b5b12f39a91016107bb565b604085106110665760405162461bcd60e51b815260206004820152600f60248201526e283937b7b3103a37b7903637b7339760891b6044820152606401610633565b60008484848460405160200161107f949392919061249d565b604051602081830303815290604052805190602001209050806000526020600020905060005b868110156110ff5760008888838181106110c1576110c16124df565b905060200201359050828111156110e6578260005280602052604060002092506110f6565b8060005282602052604060002092505b506001016110a5565b5080600054146111425760405162461bcd60e51b815260206004820152600e60248201526d24b73b30b634b210383937b7b31760911b6044820152606401610633565b600885901c66ffffffffffffff1660008181526003602052604090205460ff87169080821c600116156111b75760405162461bcd60e51b815260206004820152601760248201527f4d65737361676520616c72656164792072656c617965640000000000000000006044820152606401610633565b6000838152600360205260408082206001851b84179055516001600160a01b038916906111e790899089906124f5565b6000604051808303816000865af19150503d8060008114611224576040519150601f19603f3d011682016040523d82523d6000602084013e611229565b606091505b505090508061127a5760405162461bcd60e51b815260206004820152601760248201527f4661696c656420746f2063616c6c20636f6e74726163740000000000000000006044820152606401610633565b60405167ffffffffffffffff8a1681527f54303fab361bc52c2f1f56ace7351189582264f74ce47a6e7c3f478d64c429439060200160405180910390a15050505050505050505050565b6112d661034a3683900383018361235b565b600083815260026020526040902054146113025760405162461bcd60e51b8152600401610633906123ae565b600261131460c0830160a08401612505565b60028111156113255761132561237e565b146113665760405162461bcd60e51b815260206004820152601160248201527021b430b63632b733b2903330b4b632b21760791b6044820152606401610633565b600082815260026020526040808220829055517f000000000000000000000000000000000000000000000000000000000000000080156108fc029183818181858288f1506113c093505060e0840191505060c08301612520565b6001600160a01b03166108fc7f00000000000000000000000000000000000000000000000000000000000000009081150290604051600060405180830381858888f150505050505050565b61141d61034a3683900383018361235b565b600083815260026020526040902054146114495760405162461bcd60e51b8152600401610633906123ae565b600161145b60c0830160a08401612505565b600281111561146c5761146c61237e565b146114a95760405162461bcd60e51b815260206004820152600d60248201526c21b630b4b6903330b4b632b21760991b6044820152606401610633565b60008281526002602052604081208190556114ca60e0830160c08401612520565b6001600160a01b031614611525576040516000907f000000000000000000000000000000000000000000000000000000000000000080156108fc029183818181858288f1506113c09350506040840191505060208301612520565b6115356040820160208301612520565b6001600160a01b03166108fc7f00000000000000000000000000000000000000000000000000000000000000009081150290604051600060405180830381858888f150505050505050565b6115898161179c565b600083815260026020526040902054146115b55760405162461bcd60e51b8152600401610633906123ae565b7f0000000000000000000000000000000000000000000000000000000000000000600454826040015163ffffffff166115ee9190612454565b6115f89190612454565b42101561165c5760405162461bcd60e51b815260206004820152602c60248201527f436c61696d206d75737420776169742061746c65617374206d61784c3253746160448201526b3a32a9bcb731a232b630bc9760a11b6064820152608401610633565b600061166782611f9b565b9050600281600381111561167d5761167d61237e565b148061169a575060008160038111156116985761169861237e565b145b6117035760405162461bcd60e51b815260206004820152603460248201527f436c61696d20766572696669636174696f6e20696e2070726f6772657373206f604482015273391030b63932b0b23c9031b7b6b83632ba32b21760611b6064820152608401610633565b63ffffffff4281166060840152431660808301526117208261179c565b60008481526002602090815260409182902092909255518481527f37b700b61b9b4710dddb0c3316b2be7ef6088ed4b1d7bfe0fb98be8f9a163e16910160405180910390a1505050565b60006117967f000000000000000000000000000000000000000000000000000000000000000083612432565b92915050565b80516020808301516040808501516060860151608087015160a088015160c089015194516000986117d198909796910161253d565b604051602081830303815290604052805190602001209050919050565b7f00000000000000000000000000000000000000000000000000000000000000006001547f00000000000000000000000000000000000000000000000000000000000000004281611841576118416123ff565b040311156118845760405162461bcd60e51b815260206004820152601060248201526f213934b233b29029b43aba3237bbb71760811b6044820152606401610633565b61188d8161179c565b600083815260026020526040902054146118b95760405162461bcd60e51b8152600401610633906123ae565b60c08101516001600160a01b03161561190b5760405162461bcd60e51b815260206004820152601460248201527321b630b4b69034b99031b430b63632b733b2b21760611b6044820152606401610633565b600161191682611f9b565b60038111156119275761192761237e565b146119745760405162461bcd60e51b815260206004820152601b60248201527f43656e736f72736869702074657374206e6f74207061737365642e00000000006044820152606401610633565b6001548211156119bc57600182905580516000556040518281527ff786e7f77ede00a02a5464f8f0555798f42ba99a4a920ef2778db8d75e4656f79060200160405180910390a15b600160a08201526119cc8161179c565b6000928352600260205260409092209190915550565b7f00000000000000000000000000000000000000000000000000000000000000006001547f00000000000000000000000000000000000000000000000000000000000000004281611a3557611a356123ff565b040311611a765760405162461bcd60e51b815260206004820152600f60248201526e213934b233b290293ab73734b7339760891b6044820152606401610633565b611a7f8161179c565b60008381526002602052604090205414611aab5760405162461bcd60e51b8152600401610633906123ae565b60008160a001516002811115611ac357611ac361237e565b14611b025760405162461bcd60e51b815260206004820152600f60248201526e21b630b4b6903932b9b7b63b32b21760891b6044820152606401610633565b60c08101516001600160a01b0316156108385760208101516001600160a01b0316611b865760008281526002602052604080822082905560c083015190516001600160a01b03909116917f000000000000000000000000000000000000000000000000000000000000000080156108fc02929091818181858888f150505050505050565b60c0810180516000909152611b9a8261179c565b50600083815260026020526040516001600160a01b038316917f000000000000000000000000000000000000000000000000000000000000000080156108fc02929091818181858888f15050505050505050565b7f00000000000000000000000000000000000000000000000000000000000000006001547f00000000000000000000000000000000000000000000000000000000000000004281611c4157611c416123ff565b040311611c825760405162461bcd60e51b815260206004820152600f60248201526e213934b233b290293ab73734b7339760891b6044820152606401610633565b611c8b8161179c565b60008381526002602052604090205414611cb75760405162461bcd60e51b8152600401610633906123ae565b60008160a001516002811115611ccf57611ccf61237e565b14611d0e5760405162461bcd60e51b815260206004820152600f60248201526e21b630b4b6903932b9b7b63b32b21760891b6044820152606401610633565b60208101516001600160a01b0316156108385760c08101516001600160a01b0316611d935760008281526002602090815260408083208390559083015190516001600160a01b03909116917f000000000000000000000000000000000000000000000000000000000000000080156108fc02929091818181858888f150505050505050565b6020810180516000909152611b9a8261179c565b60007f00000000000000000000000000000000000000000000000000000000000000006001600160a01b031663ee35f3276040518163ffffffff1660e01b8152600401602060405180830381865afa158015611e07573d6000803e3d6000fd5b505050506040513d601f19601f82011682018060405250810190611e2b9190612415565b6001600160a01b031663ebea461d6040518163ffffffff1660e01b8152600401608060405180830381865afa158015611e68573d6000803e3d6000fd5b505050506040513d601f19601f82011682018060405250810190611e8c9190612467565b5092505050600454811115611ed65760048190556040518181527f5235f7b7d7d312ac3bdcf23fddb2cb8a6b24ee5de5e699d3f9f4bb8b893b408c9060200160405180910390a150565b600454811015611f985760065415611f4a5760405162461bcd60e51b815260206004820152603160248201527f53657175656e636572206c696d697420646563726561736520726571756573746044820152701030b63932b0b23c903832b73234b7339760791b6064820152608401610633565b604080518082018252828152426020918201819052600584905560065590518281527f08b771dddc6449625c7cd99bccdaf915b9c891fb6fa03695a71175b69e376ebb910160405180910390a15b50565b6000816060015163ffffffff16600003611fb757506002919050565b7f0000000000000000000000000000000000000000000000000000000000000000826060015163ffffffff1642031015611ff357506003919050565b6000600c836060015163ffffffff16420381612011576120116123ff565b608085015163ffffffff16919004019050437f000000000000000000000000000000000000000000000000000000000000000081830311612055576001925061205a565b600092505b50505b919050565b6001600160a01b0381168114611f9857600080fd5b803561205d81612062565b803563ffffffff8116811461205d57600080fd5b80356003811061205d57600080fd5b600060e082840312156120b757600080fd5b60405160e0810181811067ffffffffffffffff821117156120e857634e487b7160e01b600052604160045260246000fd5b604052823581529050806120fe60208401612077565b602082015261210f60408401612082565b604082015261212060608401612082565b606082015261213160808401612082565b608082015261214260a08401612096565b60a082015261215360c08401612077565b60c08201525092915050565b600080610100838503121561217357600080fd5b8235915061218484602085016120a5565b90509250929050565b600080600061012084860312156121a357600080fd5b83359250602084013591506121bb85604086016120a5565b90509250925092565b6000602082840312156121d657600080fd5b5035919050565b600080604083850312156121f057600080fd5b50508035926020909101359150565b803567ffffffffffffffff8116811461205d57600080fd5b60008083601f84011261222957600080fd5b50813567ffffffffffffffff81111561224157600080fd5b60208301915083602082850101111561225957600080fd5b9250929050565b6000806000806000806080878903121561227957600080fd5b863567ffffffffffffffff8082111561229157600080fd5b818901915089601f8301126122a557600080fd5b8135818111156122b457600080fd5b8a60208260051b85010111156122c957600080fd5b602083019850809750506122df60208a016121ff565b95506122ed60408a01612077565b9450606089013591508082111561230357600080fd5b5061231089828a01612217565b979a9699509497509295939492505050565b60008082840361010081121561233757600080fd5b8335925060e0601f198201121561234d57600080fd5b506020830190509250929050565b600060e0828403121561236d57600080fd5b61237783836120a5565b9392505050565b634e487b7160e01b600052602160045260246000fd5b60208101600483106123a8576123a861237e565b91905290565b6020808252600e908201526d24b73b30b634b21031b630b4b69760911b604082015260600190565b634e487b7160e01b600052601160045260246000fd5b81810381811115611796576117966123d6565b634e487b7160e01b600052601260045260246000fd5b60006020828403121561242757600080fd5b815161237781612062565b60008261244f57634e487b7160e01b600052601260045260246000fd5b500490565b80820180821115611796576117966123d6565b6000806000806080858703121561247d57600080fd5b505082516020840151604085015160609095015191969095509092509050565b60c085901b6001600160c01b0319168152606084901b6bffffffffffffffffffffffff191660088201528183601c83013760009101601c019081529392505050565b634e487b7160e01b600052603260045260246000fd5b8183823760009101908152919050565b60006020828403121561251757600080fd5b61237782612096565b60006020828403121561253257600080fd5b813561237781612062565b87815260006bffffffffffffffffffffffff19808960601b16602084015263ffffffff60e01b808960e01b166034850152808860e01b166038850152808760e01b16603c85015250600385106125955761259561237e565b60f89490941b60408301525060609190911b90911660418201526055019594505050505056fea264697066735822122093700a2c6c183d4eae9f8eb2c732ea7533c5d7603a33b7672eeea861efcd1c3564736f6c63430008120033",
  "devdoc": {
    "details": "Vea Outbox From Arbitrum to Ethereum. Note: This contract is deployed on Ethereum.",
    "events": {
      "Challenged(uint256,address)": {
        "details": "This event indicates that `sendSnapshot(epoch)` should be called in the inbox.",
        "params": {
          "_challenger": "The address of the challenger.",
          "_epoch": "The epoch associated with the challenged claim."
        }
      },
      "Claimed(address,bytes32)": {
        "details": "Watchers check this event to challenge fraud.",
        "params": {
          "_claimer": "The address of the claimer.",
          "_stateRoot": "The state root of the claim."
        }
      },
      "MessageRelayed(uint64)": {
        "details": "This event indicates that a message has been relayed.",
        "params": {
          "_msgId": "The msgId of the message that was relayed."
        }
      },
      "SequencerLimitDecreaseRequested(uint256)": {
        "details": "This event indicates that a request to decrease the sequencer limit has been made.",
        "params": {
          "_requestedSequencerLimit": "The new sequencer limit requested."
        }
      },
      "SequencerLimitUpdated(uint256)": {
        "details": "This event indicates the sequencer limit updated.",
        "params": {
          "_newSequencerLimit": "The new maxL2StateSyncDelay."
        }
      },
      "VerificationStarted(uint256)": {
        "details": "This event indicates that the censorship test started and all challengers are ready even in the worst case scenario of a malicious sequencer.",
        "params": {
          "_epoch": "The epoch that started verification."
        }
      },
      "Verified(uint256)": {
        "details": "This events indicates that verification has succeeded. The messages are ready to be relayed.",
        "params": {
          "_epoch": "The epoch that was verified."
        }
      }
    },
    "kind": "dev",
    "methods": {
      "censorshipTestStatus((bytes32,address,uint32,uint32,uint32,uint8,address))": {
        "details": "Gets the status of the censorship test for claim.",
        "params": {
          "_claim": "The claim to test."
        },
        "returns": {
          "status": "True if the claim passed the censorship test."
        }
      },
      "challenge(uint256,(bytes32,address,uint32,uint32,uint32,uint8,address))": {
        "details": "Submit a challenge for the claim of the inbox state root snapshot taken at 'epoch'.",
        "params": {
          "_claim": "The claim associated with the epoch.",
          "_epoch": "The epoch of the claim to challenge."
        }
      },
      "claim(uint256,bytes32)": {
        "details": "Submit a claim about the _stateRoot at _epoch and submit a deposit.",
        "params": {
          "_epoch": "The epoch for which the claim is made.",
          "_stateRoot": "The state root to claim."
        }
      },
      "constructor": {
        "details": "Constructor. Note: epochPeriod must match the VeaInboxArbToEth contract deployment on Arbitrum, since it's on a different chain, we can't read it and trust the deployer to set a correct value",
        "params": {
          "_deposit": "The deposit amount to submit a claim in wei.",
          "_epochPeriod": "The duration of each epoch.",
          "_maxMissingBlocks": "The maximum number of blocks that can be missing in a challenge period.",
          "_minChallengePeriod": "The minimum time window to challenge a claim.",
          "_timeoutEpochs": "The epochs before the bridge is considered shutdown.",
          "_veaInboxArbToEth": "The address of the inbox contract on Arbitrum."
        }
      },
      "epochAt(uint256)": {
        "details": "Get the current epoch from the outbox's point of view using the Ethereum L1 clock.",
        "returns": {
          "epoch": "The hash of the claim."
        }
      },
      "epochNow()": {
        "details": "Get the current epoch from the outbox's point of view using the Ethereum L1 clock.",
        "returns": {
          "epoch": "The hash of the claim."
        }
      },
      "executeSequencerLimitDecreaseRequest()": {
        "details": "execute SequencerLimitDecreaseRequest"
      },
      "hashClaim((bytes32,address,uint32,uint32,uint32,uint8,address))": {
        "details": "Hashes the claim.",
        "params": {
          "_claim": "The claim to hash."
        },
        "returns": {
          "hashedClaim": "The hash of the claim."
        }
      },
      "resolveDisputedClaim(uint256,bytes32,(bytes32,address,uint32,uint32,uint32,uint8,address))": {
        "details": "Resolves any challenge of the optimistic claim for '_epoch'.",
        "params": {
          "_claim": "The claim associated with the epoch.",
          "_epoch": "The epoch to verify.",
          "_stateRoot": "The true state root for the epoch."
        }
      },
      "sendMessage(bytes32[],uint64,address,bytes)": {
        "details": "Verifies and relays the message. UNTRUSTED.",
        "params": {
          "_message": "The message encoded in the vea inbox as abi.encodeWithSelector(fnSelector, msg.sender, param1, param2, ...)",
          "_msgId": "The zero based index of the message in the inbox.",
          "_proof": "The merkle proof to prove the message inclusion in the inbox state root.",
          "_to": "The address of the contract on Ethereum to call."
        }
      },
      "startVerification(uint256,(bytes32,address,uint32,uint32,uint32,uint8,address))": {
        "details": "Start verification for claim for 'epoch'.",
        "params": {
          "_claim": "The claim associated with the epoch.",
          "_epoch": "The epoch of the claim to challenge."
        }
      },
      "updateSequencerLimit()": {
        "details": "Request to decrease the sequencerLimit."
      },
      "verifySnapshot(uint256,(bytes32,address,uint32,uint32,uint32,uint8,address))": {
        "details": "Resolves the optimistic claim for '_epoch'.",
        "params": {
          "_claim": "The claim associated with the epoch.",
          "_epoch": "The epoch of the optimistic claim."
        }
      },
      "withdrawChallengeDeposit(uint256,(bytes32,address,uint32,uint32,uint32,uint8,address))": {
        "details": "Sends the deposit back to the Challenger if successful. Includes a portion of the Bridger's deposit.",
        "params": {
          "_claim": "The claim associated with the epoch.",
          "_epoch": "The epoch associated with the challenge deposit to withraw."
        }
      },
      "withdrawChallengerEscapeHatch(uint256,(bytes32,address,uint32,uint32,uint32,uint8,address))": {
        "details": "When bridge is shutdown, no claim disputes can be resolved. This allows the challenger to withdraw their deposit.",
        "params": {
          "_claim": "The claim associated with the epoch.",
          "_epoch": "The epoch associated with the claim deposit to withraw."
        }
      },
      "withdrawClaimDeposit(uint256,(bytes32,address,uint32,uint32,uint32,uint8,address))": {
        "details": "Sends the deposit back to the Claimer if successful. Includes a portion of the Challenger's deposit if unsuccessfully challenged.",
        "params": {
          "_claim": "The claim associated with the epoch.",
          "_epoch": "The epoch associated with the claim deposit to withraw."
        }
      },
      "withdrawClaimerEscapeHatch(uint256,(bytes32,address,uint32,uint32,uint32,uint8,address))": {
        "details": "When bridge is shutdown, no claim disputes can be resolved. This allows the claimer to withdraw their deposit.",
        "params": {
          "_claim": "The claim associated with the epoch.",
          "_epoch": "The epoch associated with the claim deposit to withraw."
        }
      }
    },
    "version": 1
  },
  "userdoc": {
    "kind": "user",
    "methods": {
      "resolveDisputedClaim(uint256,bytes32,(bytes32,address,uint32,uint32,uint32,uint8,address))": {
        "notice": "Note: Access restricted to arbitrum  bridge."
      }
    },
    "version": 1
  },
  "storageLayout": {
    "storage": [
      {
        "astId": 437,
        "contract": "src/arbitrumToEth/VeaOutboxArbToEth.sol:VeaOutboxArbToEth",
        "label": "stateRoot",
        "offset": 0,
        "slot": "0",
        "type": "t_bytes32"
      },
      {
        "astId": 439,
        "contract": "src/arbitrumToEth/VeaOutboxArbToEth.sol:VeaOutboxArbToEth",
        "label": "latestVerifiedEpoch",
        "offset": 0,
        "slot": "1",
        "type": "t_uint256"
      },
      {
        "astId": 443,
        "contract": "src/arbitrumToEth/VeaOutboxArbToEth.sol:VeaOutboxArbToEth",
        "label": "claimHashes",
        "offset": 0,
        "slot": "2",
        "type": "t_mapping(t_uint256,t_bytes32)"
      },
      {
        "astId": 447,
        "contract": "src/arbitrumToEth/VeaOutboxArbToEth.sol:VeaOutboxArbToEth",
        "label": "relayed",
        "offset": 0,
        "slot": "3",
        "type": "t_mapping(t_uint256,t_bytes32)"
      },
      {
        "astId": 449,
        "contract": "src/arbitrumToEth/VeaOutboxArbToEth.sol:VeaOutboxArbToEth",
        "label": "sequencerLimit",
        "offset": 0,
        "slot": "4",
        "type": "t_uint256"
      },
      {
        "astId": 452,
        "contract": "src/arbitrumToEth/VeaOutboxArbToEth.sol:VeaOutboxArbToEth",
        "label": "sequencerLimitDecreaseRequest",
        "offset": 0,
        "slot": "5",
        "type": "t_struct(SequencerLimitDecreaseRequest)457_storage"
      }
    ],
    "types": {
      "t_bytes32": {
        "encoding": "inplace",
        "label": "bytes32",
        "numberOfBytes": "32"
      },
      "t_mapping(t_uint256,t_bytes32)": {
        "encoding": "mapping",
        "key": "t_uint256",
        "label": "mapping(uint256 => bytes32)",
        "numberOfBytes": "32",
        "value": "t_bytes32"
      },
      "t_struct(SequencerLimitDecreaseRequest)457_storage": {
        "encoding": "inplace",
        "label": "struct VeaOutboxArbToEth.SequencerLimitDecreaseRequest",
        "members": [
          {
            "astId": 454,
            "contract": "src/arbitrumToEth/VeaOutboxArbToEth.sol:VeaOutboxArbToEth",
            "label": "requestedSequencerLimit",
            "offset": 0,
            "slot": "0",
            "type": "t_uint256"
          },
          {
            "astId": 456,
            "contract": "src/arbitrumToEth/VeaOutboxArbToEth.sol:VeaOutboxArbToEth",
            "label": "timestamp",
            "offset": 0,
            "slot": "1",
            "type": "t_uint256"
          }
        ],
        "numberOfBytes": "64"
      },
      "t_uint256": {
        "encoding": "inplace",
        "label": "uint256",
        "numberOfBytes": "32"
      }
    }
  }
}