{
  "address": "0x8C1935dbBB87C42e7ED4E94BE3e8FA61B8b3a025",
  "abi": [
    {
      "inputs": [
        {
          "internalType": "uint256",
          "name": "_deposit",
          "type": "uint256"
        },
        {
          "internalType": "uint64",
          "name": "_epochPeriod",
          "type": "uint64"
        },
        {
          "internalType": "uint64",
          "name": "_challengePeriod",
          "type": "uint64"
        },
        {
          "internalType": "uint64",
          "name": "_numEpochTimeout",
          "type": "uint64"
        },
        {
          "internalType": "uint64",
          "name": "_epochClaimWindow",
          "type": "uint64"
        },
        {
          "internalType": "address",
          "name": "_veaInbox",
          "type": "address"
        },
        {
          "internalType": "address",
          "name": "_inbox",
          "type": "address"
        }
      ],
      "stateMutability": "nonpayable",
      "type": "constructor"
    },
    {
      "anonymous": false,
      "inputs": [
        {
          "indexed": true,
          "internalType": "uint64",
          "name": "epoch",
          "type": "uint64"
        },
        {
          "indexed": true,
          "internalType": "address",
          "name": "challenger",
          "type": "address"
        }
      ],
      "name": "ChallengeDepositWithdrawn",
      "type": "event"
    },
    {
      "anonymous": false,
      "inputs": [
        {
          "indexed": true,
          "internalType": "uint64",
          "name": "epoch",
          "type": "uint64"
        },
        {
          "indexed": true,
          "internalType": "address",
          "name": "challenger",
          "type": "address"
        }
      ],
      "name": "ChallengeDepositWithdrawnTimeout",
      "type": "event"
    },
    {
      "anonymous": false,
      "inputs": [
        {
          "indexed": true,
          "internalType": "uint64",
          "name": "epoch",
          "type": "uint64"
        }
      ],
      "name": "Challenged",
      "type": "event"
    },
    {
      "anonymous": false,
      "inputs": [
        {
          "indexed": true,
          "internalType": "uint64",
          "name": "epoch",
          "type": "uint64"
        },
        {
          "indexed": true,
          "internalType": "address",
          "name": "bridger",
          "type": "address"
        }
      ],
      "name": "ClaimDepositWithdrawn",
      "type": "event"
    },
    {
      "anonymous": false,
      "inputs": [
        {
          "indexed": true,
          "internalType": "uint64",
          "name": "epoch",
          "type": "uint64"
        },
        {
          "indexed": true,
          "internalType": "address",
          "name": "bridger",
          "type": "address"
        }
      ],
      "name": "ClaimDepositWithdrawnTimeout",
      "type": "event"
    },
    {
      "anonymous": false,
      "inputs": [
        {
          "indexed": true,
          "internalType": "uint64",
          "name": "epoch",
          "type": "uint64"
        },
        {
          "indexed": false,
          "internalType": "bytes32",
          "name": "claimedStateRoot",
          "type": "bytes32"
        }
      ],
      "name": "Claimed",
      "type": "event"
    },
    {
      "anonymous": false,
      "inputs": [
        {
          "indexed": true,
          "internalType": "uint64",
          "name": "nonce",
          "type": "uint64"
        }
      ],
      "name": "MessageRelayed",
      "type": "event"
    },
    {
      "anonymous": false,
      "inputs": [
        {
          "indexed": true,
          "internalType": "uint64",
          "name": "epoch",
          "type": "uint64"
        }
      ],
      "name": "Verified",
      "type": "event"
    },
    {
      "inputs": [
        {
          "internalType": "uint64",
          "name": "_epoch",
          "type": "uint64"
        }
      ],
      "name": "challenge",
      "outputs": [],
      "stateMutability": "payable",
      "type": "function"
    },
    {
      "inputs": [],
      "name": "challengePeriod",
      "outputs": [
        {
          "internalType": "uint64",
          "name": "",
          "type": "uint64"
        }
      ],
      "stateMutability": "view",
      "type": "function"
    },
    {
      "inputs": [
        {
          "internalType": "uint64",
          "name": "",
          "type": "uint64"
        }
      ],
      "name": "challenges",
      "outputs": [
        {
          "internalType": "address",
          "name": "challenger",
          "type": "address"
        },
        {
          "internalType": "bool",
          "name": "honest",
          "type": "bool"
        },
        {
          "internalType": "bool",
          "name": "depositAndRewardWithdrawn",
          "type": "bool"
        }
      ],
      "stateMutability": "view",
      "type": "function"
    },
    {
      "inputs": [
        {
          "internalType": "uint64",
          "name": "_epoch",
          "type": "uint64"
        },
        {
          "internalType": "bytes32",
          "name": "_stateRoot",
          "type": "bytes32"
        }
      ],
      "name": "claim",
      "outputs": [],
      "stateMutability": "payable",
      "type": "function"
    },
    {
      "inputs": [
        {
          "internalType": "uint64",
          "name": "",
          "type": "uint64"
        }
      ],
      "name": "claims",
      "outputs": [
        {
          "internalType": "bytes32",
          "name": "stateRoot",
          "type": "bytes32"
        },
        {
          "internalType": "address",
          "name": "bridger",
          "type": "address"
        },
        {
          "internalType": "uint64",
          "name": "timestamp",
          "type": "uint64"
        },
        {
          "internalType": "bool",
          "name": "honest",
          "type": "bool"
        },
        {
          "internalType": "bool",
          "name": "depositAndRewardWithdrawn",
          "type": "bool"
        }
      ],
      "stateMutability": "view",
      "type": "function"
    },
    {
      "inputs": [],
      "name": "deposit",
      "outputs": [
        {
          "internalType": "uint256",
          "name": "",
          "type": "uint256"
        }
      ],
      "stateMutability": "view",
      "type": "function"
    },
    {
      "inputs": [],
      "name": "epochClaimWindow",
      "outputs": [
        {
          "internalType": "uint64",
          "name": "",
          "type": "uint64"
        }
      ],
      "stateMutability": "view",
      "type": "function"
    },
    {
      "inputs": [],
      "name": "epochPeriod",
      "outputs": [
        {
          "internalType": "uint64",
          "name": "",
          "type": "uint64"
        }
      ],
      "stateMutability": "view",
      "type": "function"
    },
    {
      "inputs": [],
      "name": "inbox",
      "outputs": [
        {
          "internalType": "contract IInbox",
          "name": "",
          "type": "address"
        }
      ],
      "stateMutability": "view",
      "type": "function"
    },
    {
      "inputs": [],
      "name": "latestVerifiedEpoch",
      "outputs": [
        {
          "internalType": "uint64",
          "name": "",
          "type": "uint64"
        }
      ],
      "stateMutability": "view",
      "type": "function"
    },
    {
      "inputs": [],
      "name": "messageSender",
      "outputs": [
        {
          "internalType": "address",
          "name": "",
          "type": "address"
        }
      ],
      "stateMutability": "view",
      "type": "function"
    },
    {
      "inputs": [],
      "name": "numEpochTimeout",
      "outputs": [
        {
          "internalType": "uint64",
          "name": "",
          "type": "uint64"
        }
      ],
      "stateMutability": "view",
      "type": "function"
    },
    {
      "inputs": [
        {
          "internalType": "uint64",
          "name": "",
          "type": "uint64"
        }
      ],
      "name": "relayed",
      "outputs": [
        {
          "internalType": "bytes32",
          "name": "",
          "type": "bytes32"
        }
      ],
      "stateMutability": "view",
      "type": "function"
    },
    {
      "inputs": [
        {
          "internalType": "uint64",
          "name": "_epoch",
          "type": "uint64"
        },
        {
          "internalType": "bytes32",
          "name": "_stateRoot",
          "type": "bytes32"
        }
      ],
      "name": "resolveChallenge",
      "outputs": [],
      "stateMutability": "nonpayable",
      "type": "function"
    },
    {
      "inputs": [],
      "name": "stateRoot",
      "outputs": [
        {
          "internalType": "bytes32",
          "name": "",
          "type": "bytes32"
        }
      ],
      "stateMutability": "view",
      "type": "function"
    },
    {
      "inputs": [],
      "name": "veaInbox",
      "outputs": [
        {
          "internalType": "address",
          "name": "",
          "type": "address"
        }
      ],
      "stateMutability": "view",
      "type": "function"
    },
    {
      "inputs": [
        {
          "internalType": "bytes32[]",
          "name": "proof",
          "type": "bytes32[]"
        },
        {
          "internalType": "uint64",
          "name": "index",
          "type": "uint64"
        },
        {
          "internalType": "address",
          "name": "msgSender",
          "type": "address"
        },
        {
          "internalType": "address",
          "name": "to",
          "type": "address"
        },
        {
          "internalType": "bytes",
          "name": "data",
          "type": "bytes"
        }
      ],
      "name": "verifyAndRelayMessage",
      "outputs": [],
      "stateMutability": "nonpayable",
      "type": "function"
    },
    {
      "inputs": [
        {
          "internalType": "uint64",
          "name": "_epoch",
          "type": "uint64"
        }
      ],
      "name": "verifyStateroot",
      "outputs": [],
      "stateMutability": "nonpayable",
      "type": "function"
    },
    {
      "inputs": [
        {
          "internalType": "uint64",
          "name": "_epoch",
          "type": "uint64"
        }
      ],
      "name": "withdrawChallengeDeposit",
      "outputs": [],
      "stateMutability": "nonpayable",
      "type": "function"
    },
    {
      "inputs": [
        {
          "internalType": "uint64",
          "name": "_epoch",
          "type": "uint64"
        }
      ],
      "name": "withdrawChallengeDepositTimeout",
      "outputs": [],
      "stateMutability": "nonpayable",
      "type": "function"
    },
    {
      "inputs": [
        {
          "internalType": "uint64",
          "name": "_epoch",
          "type": "uint64"
        }
      ],
      "name": "withdrawClaimDeposit",
      "outputs": [],
      "stateMutability": "nonpayable",
      "type": "function"
    },
    {
      "inputs": [
        {
          "internalType": "uint64",
          "name": "_epoch",
          "type": "uint64"
        }
      ],
      "name": "withdrawClaimDepositTimeout",
      "outputs": [],
      "stateMutability": "nonpayable",
      "type": "function"
    }
  ],
  "transactionHash": "0x87976d113a9662e216502a653764815f20a80530a450b99bc102041bd7ce9ad4",
  "args": [
    "10000000000000000",
    1800,
    1800,
    12,
    2,
    "0x9c528cFcE634b39fbD77b6EEA30C69f3A9Bf33Ff",
    "0x6BEbC4925716945D46F0Ec336D5C2564F419682C"
  ],
  "numDeployments": 2,
  "solcInputHash": "4f20c87db03013ad37c14b515a07c604",
  "bytecode": "0x6101606040523480156200001257600080fd5b5060405162002420380380620024208339810160408190526200003591620000fc565b60a08790526001600160401b038087166101008190528682166101205285821660c05290841660e0526001600160a01b0380841661014052821660805260019062000081904262000188565b6200008d9190620001bd565b600180546001600160e01b0319166001600160401b039290921691909117600160401b600160e01b0317905550620001f495505050505050565b80516001600160401b0381168114620000df57600080fd5b919050565b80516001600160a01b0381168114620000df57600080fd5b600080600080600080600060e0888a0312156200011857600080fd5b875196506200012a60208901620000c7565b95506200013a60408901620000c7565b94506200014a60608901620000c7565b93506200015a60808901620000c7565b92506200016a60a08901620000e4565b91506200017a60c08901620000e4565b905092959891949750929550565b60006001600160401b0383811680620001b157634e487b7160e01b600052601260045260246000fd5b92169190910492915050565b60006001600160401b0383811690831681811015620001ec57634e487b7160e01b600052601160045260246000fd5b039392505050565b60805160a05160c05160e051610100516101205161014051612137620002e96000396000818161014c0152610f9501526000818161053c01528181610ace0152611bc00152600081816103c00152818161085f015281816114db015281816115c0015261185c01526000818161019d01526115ec0152600081816104f5015281816108230152818161149f015261182001526000818161049a015281816106f40152818161072b01528181610757015281816109ce01528181610d9b01528181610de601528181610e070152818161154b015281816119d50152611a560152600081816105700152610eb701526121376000f3fe6080604052600436106101355760003560e01c8063aecc3561116100ab578063d0e30db01161006f578063d0e30db014610488578063d67bdd25146104bc578063dbad86e2146104e3578063eff6fc1214610517578063f3f480d91461052a578063fb0e722b1461055e57600080fd5b8063aecc35611461038e578063b5b7a184146103ae578063b9d01620146103e2578063c29c903d146103f5578063c7ab20391461041557600080fd5b8063300ce23b116100fd578063300ce23b146102bd57806351c4725a146102f857806353fa2cf31461031857806354195bbd146103385780636a91b06d146103585780639588eca21461037857600080fd5b806302d3e2361461013a57806324ab8c171461018b57806325ba8229146101d757806327adb7d7146101f957806327ee6bdd1461029d575b600080fd5b34801561014657600080fd5b5061016e7f000000000000000000000000000000000000000000000000000000000000000081565b6040516001600160a01b0390911681526020015b60405180910390f35b34801561019757600080fd5b506101bf7f000000000000000000000000000000000000000000000000000000000000000081565b6040516001600160401b039091168152602001610182565b3480156101e357600080fd5b506101f76101f2366004611db0565b610592565b005b34801561020557600080fd5b5061025d610214366004611db0565b600260205260009081526040902080546001909101546001600160a01b038116906001600160401b03600160a01b8204169060ff600160e01b8204811691600160e81b90041685565b604080519586526001600160a01b0390941660208601526001600160401b039092169284019290925290151560608301521515608082015260a001610182565b3480156102a957600080fd5b506001546101bf906001600160401b031681565b3480156102c957600080fd5b506102ea6102d8366004611db0565b60046020526000908152604090205481565b604051908152602001610182565b34801561030457600080fd5b506101f7610313366004611db0565b61081a565b34801561032457600080fd5b506101f7610333366004611db0565b610a46565b34801561034457600080fd5b506101f7610353366004611db0565b610c54565b34801561036457600080fd5b506101f7610373366004611dd2565b610eb3565b34801561038457600080fd5b506102ea60005481565b34801561039a57600080fd5b506101f76103a9366004611e67565b6111d7565b3480156103ba57600080fd5b506101bf7f000000000000000000000000000000000000000000000000000000000000000081565b6101f76103f0366004611dd2565b611496565b34801561040157600080fd5b506101f7610410366004611db0565b611817565b34801561042157600080fd5b50610461610430366004611db0565b6003602052600090815260409020546001600160a01b0381169060ff600160a01b8204811691600160a81b90041683565b604080516001600160a01b0390941684529115156020840152151590820152606001610182565b34801561049457600080fd5b506102ea7f000000000000000000000000000000000000000000000000000000000000000081565b3480156104c857600080fd5b5060015461016e90600160401b90046001600160a01b031681565b3480156104ef57600080fd5b506101bf7f000000000000000000000000000000000000000000000000000000000000000081565b6101f7610525366004611db0565b611a54565b34801561053657600080fd5b506101bf7f000000000000000000000000000000000000000000000000000000000000000081565b34801561056a57600080fd5b5061016e7f000000000000000000000000000000000000000000000000000000000000000081565b6001600160401b038116600090815260026020526040902060018101546001600160a01b03166106005760405162461bcd60e51b815260206004820152601460248201527310db185a5b48191bd95cc81b9bdd08195e1a5cdd60621b60448201526064015b60405180910390fd5b600181810154600160e01b900460ff1615151461064f5760405162461bcd60e51b815260206004820152600d60248201526c21b630b4b6903330b4b632b21760991b60448201526064016105f7565b6001810154600160e81b900460ff16156106c45760405162461bcd60e51b815260206004820152603060248201527f436c61696d206465706f73697420616e6420616e79207265776172647320616c60448201526f3932b0b23c903bb4ba34323930bbb71760811b60648201526084016105f7565b60018101805460ff60e81b1916600160e81b1790556001600160401b0382166000908152600360205260409020547f0000000000000000000000000000000000000000000000000000000000000000906001600160a01b0316156107a857600061074f60027f0000000000000000000000000000000000000000000000000000000000000000611f65565b905061077b817f0000000000000000000000000000000000000000000000000000000000000000611f79565b6107859083611f90565b60405190925061dead9082156108fc029083906000818181858888f15050505050505b60018201546040516001600160a01b0390911690819083156108fc029084906000818181858888f150506040516001600160a01b03851693506001600160401b03881692507fe253a0a351357d324e7f0c6c51bba258f2d03dfa9f4b881fc249dc84a1dc102b9150600090a350505050565b600154610851907f0000000000000000000000000000000000000000000000000000000000000000906001600160401b0316611fa8565b6001600160401b03166108847f000000000000000000000000000000000000000000000000000000000000000042611fd3565b6001600160401b0316116108cc5760405162461bcd60e51b815260206004820152600f60248201526e213934b233b290293ab73734b7339760891b60448201526064016105f7565b6001546001600160401b039081169082161161092a5760405162461bcd60e51b815260206004820181905260248201527f436c61696d206e6f74206d61646520696e2074696d656f757420706572696f6460448201526064016105f7565b6001600160401b038116600090815260036020526040902080546001600160a01b03166109945760405162461bcd60e51b815260206004820152601860248201527710da185b1b195b99d948191bd95cc81b9bdd08195e1a5cdd60421b60448201526064016105f7565b80546001600160401b03831660009081526003602052604080822080546001600160b01b0319169055516001600160a01b039092169182917f000000000000000000000000000000000000000000000000000000000000000080156108fc02929091818181858888f150506040516001600160a01b03851693506001600160401b03871692507f020e151dc0ae41d6c8128cd9d00fa1bfe750a7048759e78e94d572e50145c0ce9150600090a3505050565b6001600160401b038116600090815260026020526040902060018101546001600160a01b0316610ac35760405162461bcd60e51b815260206004820152602260248201527f496e76616c69642065706f63682c206e6f20636c61696d20746f2076657269666044820152613c9760f11b60648201526084016105f7565b6001810154610b03907f000000000000000000000000000000000000000000000000000000000000000090600160a01b90046001600160401b0316611fa8565b6001600160401b03164211610b685760405162461bcd60e51b815260206004820152602560248201527f4368616c6c656e676520706572696f6420686173206e6f742079657420656c616044820152643839b2b21760d91b60648201526084016105f7565b6001600160401b0382166000908152600360205260409020546001600160a01b031615610bce5760405162461bcd60e51b815260206004820152601460248201527321b630b4b69034b99031b430b63632b733b2b21760611b60448201526064016105f7565b6001546001600160401b039081169083161115610c07576001805467ffffffffffffffff19166001600160401b03841617905580546000555b60018101805460ff60e01b1916600160e01b1790556040516001600160401b038316907f701523238d5af3a654701f72f118b993c898d2993c98ad880672c1511ee23fd390600090a25050565b6001600160401b038116600090815260036020526040902080546001600160a01b0316610cbe5760405162461bcd60e51b815260206004820152601860248201527710da185b1b195b99d948191bd95cc81b9bdd08195e1a5cdd60421b60448201526064016105f7565b8054600160a01b900460ff161515600114610d0f5760405162461bcd60e51b815260206004820152601160248201527021b430b63632b733b2903330b4b632b21760791b60448201526064016105f7565b8054600160a81b900460ff1615610d815760405162461bcd60e51b815260206004820152603060248201527f4368616c6c656e6765206465706f73697420616e64207265776172647320616c60448201526f3932b0b23c903bb4ba34323930bbb71760811b60648201526084016105f7565b805460ff60a81b1916600160a81b1781556000610dbf60027f0000000000000000000000000000000000000000000000000000000000000000611f65565b60405190915061dead9082156108fc029083906000818181858888f19350505050506000817f00000000000000000000000000000000000000000000000000000000000000007f0000000000000000000000000000000000000000000000000000000000000000610e309190611f90565b610e3a9190611f79565b83549091506001600160a01b0316806108fc610e568585611f79565b6040518115909202916000818181858888f150506040516001600160a01b03851693506001600160401b03891692507f9c932fa54c653abdadc30673ee29cdf20c15702000eaddb1f5d96668b66fad6f9150600090a35050505050565b60007f00000000000000000000000000000000000000000000000000000000000000006001600160a01b031663e78cea926040518163ffffffff1660e01b815260040160206040518083038186803b158015610f0e57600080fd5b505afa158015610f22573d6000803e3d6000fd5b505050506040513d601f19601f82011682018060405250810190610f469190611ff9565b9050336001600160a01b03821614610f935760405162461bcd60e51b815260206004820152601060248201526f2737ba10333937b690313934b233b29760811b60448201526064016105f7565b7f00000000000000000000000000000000000000000000000000000000000000006001600160a01b0316816001600160a01b031663ab5d89436040518163ffffffff1660e01b815260040160206040518083038186803b158015610ff657600080fd5b505afa15801561100a573d6000803e3d6000fd5b505050506040513d601f19601f8201168201806040525081019061102e9190611ff9565b6001600160a01b03166380648b026040518163ffffffff1660e01b815260040160206040518083038186803b15801561106657600080fd5b505afa15801561107a573d6000803e3d6000fd5b505050506040513d601f19601f8201168201806040525081019061109e9190611ff9565b6001600160a01b0316146110e35760405162461bcd60e51b815260206004820152600c60248201526b29b2b73232b91037b7363c9760a11b60448201526064016105f7565b6001546001600160401b03908116908416111561111c576001805467ffffffffffffffff19166001600160401b03851617905560008290555b6001600160401b0383166000908152600260209081526040808320600390925290912060018201546001600160a01b03161580159061115b5750815484145b1561117a5760018201805460ff60e01b1916600160e01b17905561119c565b80546001600160a01b03161561119c57805460ff60a01b1916600160a01b1781555b6040516001600160401b038616907f701523238d5af3a654701f72f118b993c898d2993c98ad880672c1511ee23fd390600090a25050505050565b600085858585856040516020016111f2959493929190612016565b60408051601f1981840301815282825280516020918201209083015201604051602081830303815290604052805190602001209050611265888880806020026020016040519081016040528093929190818152602001838360200280828437600092019190915250859250611cdd915050565b600054146112a65760405162461bcd60e51b815260206004820152600e60248201526d24b73b30b634b210383937b7b31760911b60448201526064016105f7565b60006112b461010088611fd3565b905060006112c461010089612072565b6001600160401b03808416600090815260046020526040902054919250821681901c600116156113365760405162461bcd60e51b815260206004820152601760248201527f4d65737361676520616c72656164792072656c6179656400000000000000000060448201526064016105f7565b6001600160401b03838116600090815260046020526040808220600193861684901b8517905582546001600160a01b038c8116600160401b908102600160401b600160e01b03198416179095559151939004811692908a169061139c908a908a90612098565b6000604051808303816000865af19150503d80600081146113d9576040519150601f19603f3d011682016040523d82523d6000602084013e6113de565b606091505b505090508061142f5760405162461bcd60e51b815260206004820152601760248201527f4661696c656420746f2063616c6c20636f6e747261637400000000000000000060448201526064016105f7565b60018054600160401b600160e01b031916600160401b6001600160a01b038516021790556040516001600160401b038c16907f54303fab361bc52c2f1f56ace7351189582264f74ce47a6e7c3f478d64c4294390600090a250505050505050505050505050565b6001546114cd907f0000000000000000000000000000000000000000000000000000000000000000906001600160401b0316611fa8565b6001600160401b03166115007f000000000000000000000000000000000000000000000000000000000000000042611fd3565b6001600160401b0316106115495760405162461bcd60e51b815260206004820152601060248201526f213934b233b29029b43aba3237bbb71760811b60448201526064016105f7565b7f00000000000000000000000000000000000000000000000000000000000000003410156115b95760405162461bcd60e51b815260206004820152601b60248201527f496e73756666696369656e7420636c61696d206465706f7369742e000000000060448201526064016105f7565b60006115e57f000000000000000000000000000000000000000000000000000000000000000042611fd3565b90506116117f0000000000000000000000000000000000000000000000000000000000000000826120a8565b6001600160401b0316836001600160401b0316101580156116445750806001600160401b0316836001600160401b031611155b6116815760405162461bcd60e51b815260206004820152600e60248201526d24b73b30b634b21032b837b1b41760911b60448201526064016105f7565b816116bf5760405162461bcd60e51b815260206004820152600e60248201526d24b73b30b634b21031b630b4b69760911b60448201526064016105f7565b6001600160401b0383166000908152600260205260409020600101546001600160a01b0316156117275760405162461bcd60e51b815260206004820152601360248201527221b630b4b69030b63932b0b23c9036b0b2329760691b60448201526064016105f7565b6040805160a0810182528381523360208083019182526001600160401b03428116848601908152600060608601818152608087018281528b851680845260029096529188902096518755945160019690960180549251955191511515600160e81b0260ff60e81b19921515600160e01b029290921661ffff60e01b1996909416600160a01b026001600160e01b03199093166001600160a01b0397909716969096179190911793909316179190911790915590517fe4f94f54402abd5809eda421851bbb851c1728ceedfa6977ce3301ce25fb0ddd9061180a9085815260200190565b60405180910390a2505050565b60015461184e907f0000000000000000000000000000000000000000000000000000000000000000906001600160401b0316611fa8565b6001600160401b03166118817f000000000000000000000000000000000000000000000000000000000000000042611fd3565b6001600160401b0316116118c95760405162461bcd60e51b815260206004820152600f60248201526e213934b233b290293ab73734b7339760891b60448201526064016105f7565b6001546001600160401b03908116908216116119275760405162461bcd60e51b815260206004820181905260248201527f436c61696d206e6f74206d61646520696e2074696d656f757420706572696f6460448201526064016105f7565b6001600160401b038116600090815260026020526040902060018101546001600160a01b03166119905760405162461bcd60e51b815260206004820152601460248201527310db185a5b48191bd95cc81b9bdd08195e1a5cdd60621b60448201526064016105f7565b6001808201546001600160401b03841660009081526002602052604080822082815590930180546001600160f01b031916905591516001600160a01b039091169182917f000000000000000000000000000000000000000000000000000000000000000080156108fc0292909190818181858888f150505060018401546040516001600160a01b0390911692506001600160401b03861691507f23c13795a54713c168a0ad10fa11716fbfc1b86faf28c32cb2817518e89440df90600090a3505050565b7f0000000000000000000000000000000000000000000000000000000000000000341015611ac45760405162461bcd60e51b815260206004820152601860248201527f4e6f7420656e6f75676820636c61696d206465706f736974000000000000000060448201526064016105f7565b6001600160401b0381166000908152600260205260409020600101546001600160a01b0316611b2e5760405162461bcd60e51b815260206004820152601660248201527527379031b630b4b6903a379031b430b63632b733b29760511b60448201526064016105f7565b6001600160401b0381166000908152600360205260409020546001600160a01b031615611b9d5760405162461bcd60e51b815260206004820152601960248201527f436c61696d20616c7265616479206368616c6c656e6765642e0000000000000060448201526064016105f7565b6001600160401b03818116600090815260026020526040902060010154611bef917f0000000000000000000000000000000000000000000000000000000000000000811691600160a01b900416611f90565b4210611c3d5760405162461bcd60e51b815260206004820152601960248201527f4368616c6c656e676520706572696f6420656c61707365642e0000000000000060448201526064016105f7565b60408051606081018252338152600060208083018281528385018381526001600160401b038716808552600390935285842094518554925191511515600160a81b0260ff60a81b19921515600160a01b026001600160a81b03199094166001600160a01b039290921691909117929092171617909255915190917feb56d9da2626be6529d610fc090914456855b5c1a8e642f71e88f4b8b4556d3e91a250565b815160009060408110611d225760405162461bcd60e51b815260206004820152600d60248201526c24b73b30b634b210283937b7b360991b60448201526064016105f7565b8260005b82811015611d8b576000868281518110611d4257611d426120d0565b6020026020010151905082811115611d6857826000528060205260406000209250611d78565b8060005282602052604060002092505b5080611d83816120e6565b915050611d26565b50949350505050565b80356001600160401b0381168114611dab57600080fd5b919050565b600060208284031215611dc257600080fd5b611dcb82611d94565b9392505050565b60008060408385031215611de557600080fd5b611dee83611d94565b946020939093013593505050565b6001600160a01b0381168114611e1157600080fd5b50565b8035611dab81611dfc565b60008083601f840112611e3157600080fd5b5081356001600160401b03811115611e4857600080fd5b602083019150836020828501011115611e6057600080fd5b9250929050565b600080600080600080600060a0888a031215611e8257600080fd5b87356001600160401b0380821115611e9957600080fd5b818a0191508a601f830112611ead57600080fd5b813581811115611ebc57600080fd5b8b60208260051b8501011115611ed157600080fd5b60208301995080985050611ee760208b01611d94565b9650611ef560408b01611e14565b9550611f0360608b01611e14565b945060808a0135915080821115611f1957600080fd5b50611f268a828b01611e1f565b989b979a50959850939692959293505050565b634e487b7160e01b600052601260045260246000fd5b634e487b7160e01b600052601160045260246000fd5b600082611f7457611f74611f39565b500490565b600082821015611f8b57611f8b611f4f565b500390565b60008219821115611fa357611fa3611f4f565b500190565b60006001600160401b03808316818516808303821115611fca57611fca611f4f565b01949350505050565b60006001600160401b0380841680611fed57611fed611f39565b92169190910492915050565b60006020828403121561200b57600080fd5b8151611dcb81611dfc565b6001600160401b03861681526001600160a01b0385811660208301528416604082015260806060820181905281018290526000828460a0840137600060a0848401015260a0601f19601f85011683010190509695505050505050565b60006001600160401b038084168061208c5761208c611f39565b92169190910692915050565b8183823760009101908152919050565b60006001600160401b03838116908316818110156120c8576120c8611f4f565b039392505050565b634e487b7160e01b600052603260045260246000fd5b60006000198214156120fa576120fa611f4f565b506001019056fea26469706673582212206d3e031399decc4fda3cabfd8d904c6be238b3c9044cff971cd4b45b06afd44b64736f6c63430008090033",
  "devdoc": {
    "events": {
      "ChallengeDepositWithdrawn(uint64,address)": {
        "details": "This event indicates that the challenge deposit has been withdrawn.",
        "params": {
          "challenger": "The recipient of the challenge deposit.",
          "epoch": "The epoch associated with the batch."
        }
      },
      "ChallengeDepositWithdrawnTimeout(uint64,address)": {
        "details": "This event indicates that the challenge deposit has been withdrawn.",
        "params": {
          "challenger": "The recipient of the challenge deposit.",
          "epoch": "The epoch associated with the batch."
        }
      },
      "Challenged(uint64)": {
        "details": "This event indicates that `sendSafeFallback()` should be called on the sending side.",
        "params": {
          "epoch": "The epoch associated with the challenged claim."
        }
      },
      "ClaimDepositWithdrawn(uint64,address)": {
        "details": "This event indicates that the claim deposit has been withdrawn.",
        "params": {
          "bridger": "The recipient of the claim deposit.",
          "epoch": "The epoch associated with the batch."
        }
      },
      "ClaimDepositWithdrawnTimeout(uint64,address)": {
        "details": "This event indicates that the claim deposit has been withdrawn.",
        "params": {
          "bridger": "The recipient of the claim deposit.",
          "epoch": "The epoch associated with the batch."
        }
      },
      "Claimed(uint64,bytes32)": {
        "details": "The Fast Bridge participants watch for these events to decide if a challenge should be submitted.",
        "params": {
          "claimedStateRoot": "The claimed state root of the batched messages.",
          "epoch": "The epoch for which the the claim was made."
        }
      },
      "MessageRelayed(uint64)": {
        "details": "This event indicates that a message has been relayed for the batch in this `_epoch`.",
        "params": {
          "nonce": "The nonce of the message that was relayed."
        }
      },
      "Verified(uint64)": {
        "details": "This events indicates that optimistic verification has succeeded. The messages are ready to be relayed.",
        "params": {
          "epoch": "The epoch associated with the batch."
        }
      }
    },
    "kind": "dev",
    "methods": {
      "challenge(uint64)": {
        "details": "Submit a challenge for the claim of the current epoch's Fast Bridge batch merkleroot state and submit a deposit. The `batchMerkleRoot` in the claim already made for the last finalized epoch should be different from the one on the sending side, otherwise the sender will lose his deposit.",
        "params": {
          "_epoch": "The epoch of the claim to challenge."
        }
      },
      "claim(uint64,bytes32)": {
        "details": "Submit a claim about the the _stateRoot at _epoch and submit a deposit.",
        "params": {
          "_epoch": "The epoch for which the claim is made.",
          "_stateRoot": "The state root to claim."
        }
      },
      "constructor": {
        "details": "Constructor.",
        "params": {
          "_challengePeriod": "The duration of the period allowing to challenge a claim.",
          "_deposit": "The deposit amount to submit a claim in wei.",
          "_epochClaimWindow": "The number of epochs a claim can be submitted for.",
          "_epochPeriod": "The duration of each epoch.",
          "_inbox": "The address of the inbox contract on Ethereum.",
          "_numEpochTimeout": "The number of epochs after which the bridge is considered to be frozen.",
          "_veaInbox": "The address of the inbox contract on Ethereum."
        }
      },
      "resolveChallenge(uint64,bytes32)": {
        "details": "Resolves any challenge of the optimistic claim for '_epoch'.",
        "params": {
          "_epoch": "The epoch to verify.",
          "_stateRoot": "The true state root for the epoch."
        }
      },
      "verifyAndRelayMessage(bytes32[],uint64,address,address,bytes)": {
        "details": "Verifies and relays the message.",
        "params": {
          "data": "The data of the message.",
          "index": "The index of the message in the merkle tree.",
          "msgSender": "The address of the message sender.",
          "proof": "The merkle proof to prove the message.",
          "to": "The address of the message receiver."
        }
      },
      "verifyStateroot(uint64)": {
        "details": "Resolves the optimistic claim for '_epoch'.",
        "params": {
          "_epoch": "The epoch of the optimistic claim."
        }
      },
      "withdrawChallengeDeposit(uint64)": {
        "details": "Sends the deposit back to the Challenger if their challenge is successful. Includes a portion of the Bridger's deposit.",
        "params": {
          "_epoch": "The epoch associated with the challenge deposit to withraw."
        }
      },
      "withdrawChallengeDepositTimeout(uint64)": {
        "details": "Sends the deposit back to the Challenger if their challenge is successful. Includes a portion of the Bridger's deposit.",
        "params": {
          "_epoch": "The epoch associated with the challenge deposit to withraw."
        }
      },
      "withdrawClaimDeposit(uint64)": {
        "details": "Sends the deposit back to the Bridger if their claim is not successfully challenged. Includes a portion of the Challenger's deposit if unsuccessfully challenged.",
        "params": {
          "_epoch": "The epoch associated with the claim deposit to withraw."
        }
      },
      "withdrawClaimDepositTimeout(uint64)": {
        "details": "Sends the deposit back to the Bridger if their claim is not successfully challenged. Includes a portion of the Challenger's deposit if unsuccessfully challenged.",
        "params": {
          "_epoch": "The epoch associated with the claim deposit to withraw."
        }
      }
    },
    "stateVariables": {
      "messageSender": {
        "details": "The message sender of a relayed message.",
        "return": "messageSender The address of the message sender.",
        "returns": {
          "_0": "messageSender The address of the message sender."
        }
      }
    },
    "version": 1
  },
  "userdoc": {
    "kind": "user",
    "methods": {
      "resolveChallenge(uint64,bytes32)": {
        "notice": "Note: Access restricted to arbitrum canonical bridge."
      }
    },
    "notice": "Vea Bridge Outbox On L1 Ethereum",
    "version": 1
  },
  "storageLayout": {
    "storage": [
      {
        "astId": 496,
        "contract": "src/VeaOutbox.sol:VeaOutbox",
        "label": "stateRoot",
        "offset": 0,
        "slot": "0",
        "type": "t_bytes32"
      },
      {
        "astId": 498,
        "contract": "src/VeaOutbox.sol:VeaOutbox",
        "label": "latestVerifiedEpoch",
        "offset": 0,
        "slot": "1",
        "type": "t_uint64"
      },
      {
        "astId": 500,
        "contract": "src/VeaOutbox.sol:VeaOutbox",
        "label": "messageSender",
        "offset": 8,
        "slot": "1",
        "type": "t_address"
      },
      {
        "astId": 505,
        "contract": "src/VeaOutbox.sol:VeaOutbox",
        "label": "claims",
        "offset": 0,
        "slot": "2",
        "type": "t_mapping(t_uint64,t_struct(Claim)472_storage)"
      },
      {
        "astId": 510,
        "contract": "src/VeaOutbox.sol:VeaOutbox",
        "label": "challenges",
        "offset": 0,
        "slot": "3",
        "type": "t_mapping(t_uint64,t_struct(Challenge)479_storage)"
      },
      {
        "astId": 514,
        "contract": "src/VeaOutbox.sol:VeaOutbox",
        "label": "relayed",
        "offset": 0,
        "slot": "4",
        "type": "t_mapping(t_uint64,t_bytes32)"
      }
    ],
    "types": {
      "t_address": {
        "encoding": "inplace",
        "label": "address",
        "numberOfBytes": "20"
      },
      "t_bool": {
        "encoding": "inplace",
        "label": "bool",
        "numberOfBytes": "1"
      },
      "t_bytes32": {
        "encoding": "inplace",
        "label": "bytes32",
        "numberOfBytes": "32"
      },
      "t_mapping(t_uint64,t_bytes32)": {
        "encoding": "mapping",
        "key": "t_uint64",
        "label": "mapping(uint64 => bytes32)",
        "numberOfBytes": "32",
        "value": "t_bytes32"
      },
      "t_mapping(t_uint64,t_struct(Challenge)479_storage)": {
        "encoding": "mapping",
        "key": "t_uint64",
        "label": "mapping(uint64 => struct VeaOutbox.Challenge)",
        "numberOfBytes": "32",
        "value": "t_struct(Challenge)479_storage"
      },
      "t_mapping(t_uint64,t_struct(Claim)472_storage)": {
        "encoding": "mapping",
        "key": "t_uint64",
        "label": "mapping(uint64 => struct VeaOutbox.Claim)",
        "numberOfBytes": "32",
        "value": "t_struct(Claim)472_storage"
      },
      "t_struct(Challenge)479_storage": {
        "encoding": "inplace",
        "label": "struct VeaOutbox.Challenge",
        "members": [
          {
            "astId": 474,
            "contract": "src/VeaOutbox.sol:VeaOutbox",
            "label": "challenger",
            "offset": 0,
            "slot": "0",
            "type": "t_address"
          },
          {
            "astId": 476,
            "contract": "src/VeaOutbox.sol:VeaOutbox",
            "label": "honest",
            "offset": 20,
            "slot": "0",
            "type": "t_bool"
          },
          {
            "astId": 478,
            "contract": "src/VeaOutbox.sol:VeaOutbox",
            "label": "depositAndRewardWithdrawn",
            "offset": 21,
            "slot": "0",
            "type": "t_bool"
          }
        ],
        "numberOfBytes": "32"
      },
      "t_struct(Claim)472_storage": {
        "encoding": "inplace",
        "label": "struct VeaOutbox.Claim",
        "members": [
          {
            "astId": 463,
            "contract": "src/VeaOutbox.sol:VeaOutbox",
            "label": "stateRoot",
            "offset": 0,
            "slot": "0",
            "type": "t_bytes32"
          },
          {
            "astId": 465,
            "contract": "src/VeaOutbox.sol:VeaOutbox",
            "label": "bridger",
            "offset": 0,
            "slot": "1",
            "type": "t_address"
          },
          {
            "astId": 467,
            "contract": "src/VeaOutbox.sol:VeaOutbox",
            "label": "timestamp",
            "offset": 20,
            "slot": "1",
            "type": "t_uint64"
          },
          {
            "astId": 469,
            "contract": "src/VeaOutbox.sol:VeaOutbox",
            "label": "honest",
            "offset": 28,
            "slot": "1",
            "type": "t_bool"
          },
          {
            "astId": 471,
            "contract": "src/VeaOutbox.sol:VeaOutbox",
            "label": "depositAndRewardWithdrawn",
            "offset": 29,
            "slot": "1",
            "type": "t_bool"
          }
        ],
        "numberOfBytes": "64"
      },
      "t_uint64": {
        "encoding": "inplace",
        "label": "uint64",
        "numberOfBytes": "8"
      }
    }
  }
}