{
  "address": "0x92Cd1F40e5A4FFa25f83Dd9231EBD9df02eD6a5F",
  "abi": [
    {
      "inputs": [
        {
          "internalType": "uint256",
          "name": "_deposit",
          "type": "uint256"
        },
        {
          "internalType": "uint256",
          "name": "_epochPeriod",
          "type": "uint256"
        },
        {
          "internalType": "uint256",
          "name": "_minChallengePeriod",
          "type": "uint256"
        },
        {
          "internalType": "uint256",
          "name": "_timeoutEpochs",
          "type": "uint256"
        },
        {
          "internalType": "address",
          "name": "_veaInboxArbToEth",
          "type": "address"
        },
        {
          "internalType": "address",
          "name": "_bridge",
          "type": "address"
        },
        {
          "internalType": "uint256",
          "name": "_maxMissingBlocks",
          "type": "uint256"
        },
        {
          "internalType": "uint256",
          "name": "_maxClaimDelayEpochs",
          "type": "uint256"
        }
      ],
      "stateMutability": "nonpayable",
      "type": "constructor"
    },
    {
      "anonymous": false,
      "inputs": [
        {
          "indexed": false,
          "internalType": "uint256",
          "name": "_epoch",
          "type": "uint256"
        },
        {
          "indexed": true,
          "internalType": "address",
          "name": "_challenger",
          "type": "address"
        }
      ],
      "name": "Challenged",
      "type": "event"
    },
    {
      "anonymous": false,
      "inputs": [
        {
          "indexed": true,
          "internalType": "address",
          "name": "_claimer",
          "type": "address"
        },
        {
          "indexed": false,
          "internalType": "bytes32",
          "name": "_stateRoot",
          "type": "bytes32"
        }
      ],
      "name": "Claimed",
      "type": "event"
    },
    {
      "anonymous": false,
      "inputs": [
        {
          "indexed": false,
          "internalType": "uint64",
          "name": "_msgId",
          "type": "uint64"
        }
      ],
      "name": "MessageRelayed",
      "type": "event"
    },
    {
      "anonymous": false,
      "inputs": [
        {
          "indexed": false,
          "internalType": "uint256",
          "name": "_epoch",
          "type": "uint256"
        }
      ],
      "name": "VerificationStarted",
      "type": "event"
    },
    {
      "anonymous": false,
      "inputs": [
        {
          "indexed": false,
          "internalType": "uint256",
          "name": "_epoch",
          "type": "uint256"
        }
      ],
      "name": "Verified",
      "type": "event"
    },
    {
      "anonymous": false,
      "inputs": [
        {
          "indexed": false,
          "internalType": "uint256",
          "name": "_requestedSequencerDelayLimit",
          "type": "uint256"
        }
      ],
      "name": "sequencerDelayLimitDecreaseRequested",
      "type": "event"
    },
    {
      "anonymous": false,
      "inputs": [
        {
          "indexed": false,
          "internalType": "uint256",
          "name": "_newSequencerDelayLimit",
          "type": "uint256"
        }
      ],
      "name": "sequencerDelayLimitUpdated",
      "type": "event"
    },
    {
      "inputs": [],
      "name": "bridge",
      "outputs": [
        {
          "internalType": "contract IBridge",
          "name": "",
          "type": "address"
        }
      ],
      "stateMutability": "view",
      "type": "function"
    },
    {
      "inputs": [
        {
          "components": [
            {
              "internalType": "bytes32",
              "name": "stateRoot",
              "type": "bytes32"
            },
            {
              "internalType": "address",
              "name": "claimer",
              "type": "address"
            },
            {
              "internalType": "uint32",
              "name": "timestampClaimed",
              "type": "uint32"
            },
            {
              "internalType": "uint32",
              "name": "timestampVerification",
              "type": "uint32"
            },
            {
              "internalType": "uint32",
              "name": "blocknumberVerification",
              "type": "uint32"
            },
            {
              "internalType": "enum Party",
              "name": "honest",
              "type": "uint8"
            },
            {
              "internalType": "address",
              "name": "challenger",
              "type": "address"
            }
          ],
          "internalType": "struct Claim",
          "name": "_claim",
          "type": "tuple"
        }
      ],
      "name": "censorshipTestStatus",
      "outputs": [
        {
          "internalType": "enum VeaOutboxArbToEth.CensorshipTestStatus",
          "name": "status",
          "type": "uint8"
        }
      ],
      "stateMutability": "view",
      "type": "function"
    },
    {
      "inputs": [
        {
          "internalType": "uint256",
          "name": "_epoch",
          "type": "uint256"
        },
        {
          "components": [
            {
              "internalType": "bytes32",
              "name": "stateRoot",
              "type": "bytes32"
            },
            {
              "internalType": "address",
              "name": "claimer",
              "type": "address"
            },
            {
              "internalType": "uint32",
              "name": "timestampClaimed",
              "type": "uint32"
            },
            {
              "internalType": "uint32",
              "name": "timestampVerification",
              "type": "uint32"
            },
            {
              "internalType": "uint32",
              "name": "blocknumberVerification",
              "type": "uint32"
            },
            {
              "internalType": "enum Party",
              "name": "honest",
              "type": "uint8"
            },
            {
              "internalType": "address",
              "name": "challenger",
              "type": "address"
            }
          ],
          "internalType": "struct Claim",
          "name": "_claim",
          "type": "tuple"
        }
      ],
      "name": "challenge",
      "outputs": [],
      "stateMutability": "payable",
      "type": "function"
    },
    {
      "inputs": [
        {
          "internalType": "uint256",
          "name": "_epoch",
          "type": "uint256"
        },
        {
          "internalType": "bytes32",
          "name": "_stateRoot",
          "type": "bytes32"
        }
      ],
      "name": "claim",
      "outputs": [],
      "stateMutability": "payable",
      "type": "function"
    },
    {
      "inputs": [
        {
          "internalType": "uint256",
          "name": "",
          "type": "uint256"
        }
      ],
      "name": "claimHashes",
      "outputs": [
        {
          "internalType": "bytes32",
          "name": "",
          "type": "bytes32"
        }
      ],
      "stateMutability": "view",
      "type": "function"
    },
    {
      "inputs": [],
      "name": "deposit",
      "outputs": [
        {
          "internalType": "uint256",
          "name": "",
          "type": "uint256"
        }
      ],
      "stateMutability": "view",
      "type": "function"
    },
    {
      "inputs": [
        {
          "internalType": "uint256",
          "name": "timestamp",
          "type": "uint256"
        }
      ],
      "name": "epochAt",
      "outputs": [
        {
          "internalType": "uint256",
          "name": "epoch",
          "type": "uint256"
        }
      ],
      "stateMutability": "view",
      "type": "function"
    },
    {
      "inputs": [],
      "name": "epochNow",
      "outputs": [
        {
          "internalType": "uint256",
          "name": "epoch",
          "type": "uint256"
        }
      ],
      "stateMutability": "view",
      "type": "function"
    },
    {
      "inputs": [],
      "name": "epochPeriod",
      "outputs": [
        {
          "internalType": "uint256",
          "name": "",
          "type": "uint256"
        }
      ],
      "stateMutability": "view",
      "type": "function"
    },
    {
      "inputs": [],
      "name": "executeSequencerDelayLimitDecreaseRequest",
      "outputs": [],
      "stateMutability": "nonpayable",
      "type": "function"
    },
    {
      "inputs": [
        {
          "components": [
            {
              "internalType": "bytes32",
              "name": "stateRoot",
              "type": "bytes32"
            },
            {
              "internalType": "address",
              "name": "claimer",
              "type": "address"
            },
            {
              "internalType": "uint32",
              "name": "timestampClaimed",
              "type": "uint32"
            },
            {
              "internalType": "uint32",
              "name": "timestampVerification",
              "type": "uint32"
            },
            {
              "internalType": "uint32",
              "name": "blocknumberVerification",
              "type": "uint32"
            },
            {
              "internalType": "enum Party",
              "name": "honest",
              "type": "uint8"
            },
            {
              "internalType": "address",
              "name": "challenger",
              "type": "address"
            }
          ],
          "internalType": "struct Claim",
          "name": "_claim",
          "type": "tuple"
        }
      ],
      "name": "hashClaim",
      "outputs": [
        {
          "internalType": "bytes32",
          "name": "hashedClaim",
          "type": "bytes32"
        }
      ],
      "stateMutability": "pure",
      "type": "function"
    },
    {
      "inputs": [],
      "name": "latestVerifiedEpoch",
      "outputs": [
        {
          "internalType": "uint256",
          "name": "",
          "type": "uint256"
        }
      ],
      "stateMutability": "view",
      "type": "function"
    },
    {
      "inputs": [],
      "name": "maxClaimDelayEpochs",
      "outputs": [
        {
          "internalType": "uint256",
          "name": "",
          "type": "uint256"
        }
      ],
      "stateMutability": "view",
      "type": "function"
    },
    {
      "inputs": [],
      "name": "maxMissingBlocks",
      "outputs": [
        {
          "internalType": "uint256",
          "name": "",
          "type": "uint256"
        }
      ],
      "stateMutability": "view",
      "type": "function"
    },
    {
      "inputs": [],
      "name": "minChallengePeriod",
      "outputs": [
        {
          "internalType": "uint256",
          "name": "",
          "type": "uint256"
        }
      ],
      "stateMutability": "view",
      "type": "function"
    },
    {
      "inputs": [
        {
          "internalType": "uint256",
          "name": "",
          "type": "uint256"
        }
      ],
      "name": "relayed",
      "outputs": [
        {
          "internalType": "bytes32",
          "name": "",
          "type": "bytes32"
        }
      ],
      "stateMutability": "view",
      "type": "function"
    },
    {
      "inputs": [
        {
          "internalType": "uint256",
          "name": "_epoch",
          "type": "uint256"
        },
        {
          "internalType": "bytes32",
          "name": "_stateRoot",
          "type": "bytes32"
        },
        {
          "components": [
            {
              "internalType": "bytes32",
              "name": "stateRoot",
              "type": "bytes32"
            },
            {
              "internalType": "address",
              "name": "claimer",
              "type": "address"
            },
            {
              "internalType": "uint32",
              "name": "timestampClaimed",
              "type": "uint32"
            },
            {
              "internalType": "uint32",
              "name": "timestampVerification",
              "type": "uint32"
            },
            {
              "internalType": "uint32",
              "name": "blocknumberVerification",
              "type": "uint32"
            },
            {
              "internalType": "enum Party",
              "name": "honest",
              "type": "uint8"
            },
            {
              "internalType": "address",
              "name": "challenger",
              "type": "address"
            }
          ],
          "internalType": "struct Claim",
          "name": "_claim",
          "type": "tuple"
        }
      ],
      "name": "resolveDisputedClaim",
      "outputs": [],
      "stateMutability": "nonpayable",
      "type": "function"
    },
    {
      "inputs": [
        {
          "internalType": "bytes32[]",
          "name": "_proof",
          "type": "bytes32[]"
        },
        {
          "internalType": "uint64",
          "name": "_msgId",
          "type": "uint64"
        },
        {
          "internalType": "address",
          "name": "_to",
          "type": "address"
        },
        {
          "internalType": "bytes",
          "name": "_message",
          "type": "bytes"
        }
      ],
      "name": "sendMessage",
      "outputs": [],
      "stateMutability": "nonpayable",
      "type": "function"
    },
    {
      "inputs": [],
      "name": "sequencerDelayLimit",
      "outputs": [
        {
          "internalType": "uint256",
          "name": "",
          "type": "uint256"
        }
      ],
      "stateMutability": "view",
      "type": "function"
    },
    {
      "inputs": [],
      "name": "sequencerDelayLimitDecreaseRequest",
      "outputs": [
        {
          "internalType": "uint256",
          "name": "requestedsequencerDelayLimit",
          "type": "uint256"
        },
        {
          "internalType": "uint256",
          "name": "timestamp",
          "type": "uint256"
        }
      ],
      "stateMutability": "view",
      "type": "function"
    },
    {
      "inputs": [
        {
          "internalType": "uint256",
          "name": "_epoch",
          "type": "uint256"
        },
        {
          "components": [
            {
              "internalType": "bytes32",
              "name": "stateRoot",
              "type": "bytes32"
            },
            {
              "internalType": "address",
              "name": "claimer",
              "type": "address"
            },
            {
              "internalType": "uint32",
              "name": "timestampClaimed",
              "type": "uint32"
            },
            {
              "internalType": "uint32",
              "name": "timestampVerification",
              "type": "uint32"
            },
            {
              "internalType": "uint32",
              "name": "blocknumberVerification",
              "type": "uint32"
            },
            {
              "internalType": "enum Party",
              "name": "honest",
              "type": "uint8"
            },
            {
              "internalType": "address",
              "name": "challenger",
              "type": "address"
            }
          ],
          "internalType": "struct Claim",
          "name": "_claim",
          "type": "tuple"
        }
      ],
      "name": "startVerification",
      "outputs": [],
      "stateMutability": "nonpayable",
      "type": "function"
    },
    {
      "inputs": [],
      "name": "stateRoot",
      "outputs": [
        {
          "internalType": "bytes32",
          "name": "",
          "type": "bytes32"
        }
      ],
      "stateMutability": "view",
      "type": "function"
    },
    {
      "inputs": [],
      "name": "timeoutEpochs",
      "outputs": [
        {
          "internalType": "uint256",
          "name": "",
          "type": "uint256"
        }
      ],
      "stateMutability": "view",
      "type": "function"
    },
    {
      "inputs": [],
      "name": "updateSequencerDelayLimit",
      "outputs": [],
      "stateMutability": "nonpayable",
      "type": "function"
    },
    {
      "inputs": [],
      "name": "veaInboxArbToEth",
      "outputs": [
        {
          "internalType": "address",
          "name": "",
          "type": "address"
        }
      ],
      "stateMutability": "view",
      "type": "function"
    },
    {
      "inputs": [
        {
          "internalType": "uint256",
          "name": "_epoch",
          "type": "uint256"
        },
        {
          "components": [
            {
              "internalType": "bytes32",
              "name": "stateRoot",
              "type": "bytes32"
            },
            {
              "internalType": "address",
              "name": "claimer",
              "type": "address"
            },
            {
              "internalType": "uint32",
              "name": "timestampClaimed",
              "type": "uint32"
            },
            {
              "internalType": "uint32",
              "name": "timestampVerification",
              "type": "uint32"
            },
            {
              "internalType": "uint32",
              "name": "blocknumberVerification",
              "type": "uint32"
            },
            {
              "internalType": "enum Party",
              "name": "honest",
              "type": "uint8"
            },
            {
              "internalType": "address",
              "name": "challenger",
              "type": "address"
            }
          ],
          "internalType": "struct Claim",
          "name": "_claim",
          "type": "tuple"
        }
      ],
      "name": "verifySnapshot",
      "outputs": [],
      "stateMutability": "nonpayable",
      "type": "function"
    },
    {
      "inputs": [
        {
          "internalType": "uint256",
          "name": "_epoch",
          "type": "uint256"
        },
        {
          "components": [
            {
              "internalType": "bytes32",
              "name": "stateRoot",
              "type": "bytes32"
            },
            {
              "internalType": "address",
              "name": "claimer",
              "type": "address"
            },
            {
              "internalType": "uint32",
              "name": "timestampClaimed",
              "type": "uint32"
            },
            {
              "internalType": "uint32",
              "name": "timestampVerification",
              "type": "uint32"
            },
            {
              "internalType": "uint32",
              "name": "blocknumberVerification",
              "type": "uint32"
            },
            {
              "internalType": "enum Party",
              "name": "honest",
              "type": "uint8"
            },
            {
              "internalType": "address",
              "name": "challenger",
              "type": "address"
            }
          ],
          "internalType": "struct Claim",
          "name": "_claim",
          "type": "tuple"
        }
      ],
      "name": "withdrawChallengeDeposit",
      "outputs": [],
      "stateMutability": "nonpayable",
      "type": "function"
    },
    {
      "inputs": [
        {
          "internalType": "uint256",
          "name": "_epoch",
          "type": "uint256"
        },
        {
          "components": [
            {
              "internalType": "bytes32",
              "name": "stateRoot",
              "type": "bytes32"
            },
            {
              "internalType": "address",
              "name": "claimer",
              "type": "address"
            },
            {
              "internalType": "uint32",
              "name": "timestampClaimed",
              "type": "uint32"
            },
            {
              "internalType": "uint32",
              "name": "timestampVerification",
              "type": "uint32"
            },
            {
              "internalType": "uint32",
              "name": "blocknumberVerification",
              "type": "uint32"
            },
            {
              "internalType": "enum Party",
              "name": "honest",
              "type": "uint8"
            },
            {
              "internalType": "address",
              "name": "challenger",
              "type": "address"
            }
          ],
          "internalType": "struct Claim",
          "name": "_claim",
          "type": "tuple"
        }
      ],
      "name": "withdrawChallengerEscapeHatch",
      "outputs": [],
      "stateMutability": "nonpayable",
      "type": "function"
    },
    {
      "inputs": [
        {
          "internalType": "uint256",
          "name": "_epoch",
          "type": "uint256"
        },
        {
          "components": [
            {
              "internalType": "bytes32",
              "name": "stateRoot",
              "type": "bytes32"
            },
            {
              "internalType": "address",
              "name": "claimer",
              "type": "address"
            },
            {
              "internalType": "uint32",
              "name": "timestampClaimed",
              "type": "uint32"
            },
            {
              "internalType": "uint32",
              "name": "timestampVerification",
              "type": "uint32"
            },
            {
              "internalType": "uint32",
              "name": "blocknumberVerification",
              "type": "uint32"
            },
            {
              "internalType": "enum Party",
              "name": "honest",
              "type": "uint8"
            },
            {
              "internalType": "address",
              "name": "challenger",
              "type": "address"
            }
          ],
          "internalType": "struct Claim",
          "name": "_claim",
          "type": "tuple"
        }
      ],
      "name": "withdrawClaimDeposit",
      "outputs": [],
      "stateMutability": "nonpayable",
      "type": "function"
    },
    {
      "inputs": [
        {
          "internalType": "uint256",
          "name": "_epoch",
          "type": "uint256"
        },
        {
          "components": [
            {
              "internalType": "bytes32",
              "name": "stateRoot",
              "type": "bytes32"
            },
            {
              "internalType": "address",
              "name": "claimer",
              "type": "address"
            },
            {
              "internalType": "uint32",
              "name": "timestampClaimed",
              "type": "uint32"
            },
            {
              "internalType": "uint32",
              "name": "timestampVerification",
              "type": "uint32"
            },
            {
              "internalType": "uint32",
              "name": "blocknumberVerification",
              "type": "uint32"
            },
            {
              "internalType": "enum Party",
              "name": "honest",
              "type": "uint8"
            },
            {
              "internalType": "address",
              "name": "challenger",
              "type": "address"
            }
          ],
          "internalType": "struct Claim",
          "name": "_claim",
          "type": "tuple"
        }
      ],
      "name": "withdrawClaimerEscapeHatch",
      "outputs": [],
      "stateMutability": "nonpayable",
      "type": "function"
    }
  ],
  "transactionHash": "0xccfb57fdeb42e9b14be71245c827fc76dec738ba743b1bdb4d351737d876a1fa",
  "args": [
    "1000000000000000000",
    7200,
    10800,
    1000000,
    "0xE732B5b0DEE43619031e080Da461059F75a260E2",
    "0xaf4159A80B6Cc41ED517DB1c453d1Ef5C2e4dB72",
    1000000,
    3
  ],
  "numDeployments": 1,
  "solcInputHash": "7298e2ccdbe09809d528e3141326e32b",
  "bytecode": "0x6101c06040523480156200001257600080fd5b5060405162002c8b38038062002c8b8339810160408190526200003591620002d5565b60c08890526101208790526101408690526101808590526001600160a01b0380851660a05283166080526101a082905261016081905262000075620000d5565b620000826002896200035c565b60e0819052620000948960026200037f565b620000a091906200039f565b6101005261012051600190620000b790426200035c565b620000c391906200039f565b60015550620004119650505050505050565b60006080516001600160a01b031663ee35f3276040518163ffffffff1660e01b8152600401602060405180830381865afa15801562000118573d6000803e3d6000fd5b505050506040513d601f19601f820116820180604052508101906200013e9190620003b5565b6001600160a01b031663ebea461d6040518163ffffffff1660e01b8152600401608060405180830381865afa1580156200017c573d6000803e3d6000fd5b505050506040513d601f19601f82011682018060405250810190620001a29190620003da565b5092505050600454811115620001ed5760048190556040518181527f611c2e4a78552f908fb0eb2cc503efc1f947cde8574277ab3b0f10fdd510258b9060200160405180910390a150565b600454811015620002b55760065415620002675760405162461bcd60e51b815260206004820152603160248201527f53657175656e636572206c696d697420646563726561736520726571756573746044820152701030b63932b0b23c903832b73234b7339760791b606482015260840160405180910390fd5b604080518082018252828152426020918201819052600584905560065590518281527fa552b382e128c9d0732f01f09502c18999aec5dce0ed78c5af0ea2274ce9bd7d910160405180910390a15b50565b80516001600160a01b0381168114620002d057600080fd5b919050565b600080600080600080600080610100898b031215620002f357600080fd5b885197506020890151965060408901519550606089015194506200031a60808a01620002b8565b93506200032a60a08a01620002b8565b60c08a015160e0909a0151989b979a5095989497939692505050565b634e487b7160e01b600052601160045260246000fd5b6000826200037a57634e487b7160e01b600052601260045260246000fd5b500490565b808202811582820484141762000399576200039962000346565b92915050565b8181038181111562000399576200039962000346565b600060208284031215620003c857600080fd5b620003d382620002b8565b9392505050565b60008060008060808587031215620003f157600080fd5b505082516020840151604085015160609095015191969095509092509050565b60805160a05160c05160e05161010051610120516101405161016051610180516101a0516127176200057460003960008181610494015261214b0152600081816104c801528181610aa001528181611b0a01528181611cfe0152611f0a0152600081816101f90152610f2c01526000818161055001526120df0152600081816104fc01528181610ac401528181610dcd01528181610e6c01528181610ee501528181610f4d015281816116dd0152818161189701528181611b2e01528181611d220152611f2e015260006114f40152600081816114a101526116060152600081816105840152818161067d015281816108030152818161083001528181610df9015281816110d0015281816110fd0152818161166901528181611e6801528181611ecf01526120750152600081816103e50152610bae0152600081816106050152818161098601528181610b3f01528181610bd8015261191801526127176000f3fe6080604052600436106101cd5760003560e01c80635f43a47f116100f7578063b5b7a18411610095578063da2b7bc411610064578063da2b7bc4146105a6578063df19e6ff146105c6578063e78cea92146105f3578063e813a7551461062757600080fd5b8063b5b7a184146104ea578063b633b9441461051e578063c2114a161461053e578063d0e30db01461057257600080fd5b8063930f28af116100d1578063930f28af1461044c5780639588eca21461046c578063aa22a1c614610482578063b044397e146104b657600080fd5b80635f43a47f146103be57806369cd250d146103d357806390df63b71461041f57600080fd5b806327ee6bdd1161016f5780634788cb381161013e5780634788cb381461033e57806349b4299e1461035e5780634a439cfe1461037e578063541adcca1461039e57600080fd5b806327ee6bdd146102d557806331d14457146102eb57806331ddf743146102fe5780633ce43cfd1461031e57600080fd5b80630c63fa84116101ab5780630c63fa841461025e5780630f0adca514610273578063222ae786146102935780632639c060146102a857600080fd5b806301139b68146101d2578063042c4aaf146101e7578063051d19701461022e575b600080fd5b6101e56101e0366004612285565b61063d565b005b3480156101f357600080fd5b5061021b7f000000000000000000000000000000000000000000000000000000000000000081565b6040519081526020015b60405180910390f35b34801561023a57600080fd5b50600554600654610249919082565b60408051928352602083019190915201610225565b34801561026a57600080fd5b506101e561087a565b34801561027f57600080fd5b506101e561028e3660046122b3565b610a9e565b34801561029f57600080fd5b5061021b610dc6565b3480156102b457600080fd5b5061021b6102c33660046122ea565b60026020526000908152604090205481565b3480156102e157600080fd5b5061021b60015481565b6101e56102f9366004612303565b610df7565b34801561030a57600080fd5b506101e5610319366004612386565b61114a565b34801561032a57600080fd5b506101e5610339366004612448565b6113ea565b34801561034a57600080fd5b506101e5610359366004612448565b611531565b34801561036a57600080fd5b506101e5610379366004612285565b6116a6565b34801561038a57600080fd5b5061021b6103993660046122ea565b611890565b3480156103aa57600080fd5b5061021b6103b9366004612481565b6118c2565b3480156103ca57600080fd5b506101e5611914565b3480156103df57600080fd5b506104077f000000000000000000000000000000000000000000000000000000000000000081565b6040516001600160a01b039091168152602001610225565b34801561042b57600080fd5b5061021b61043a3660046122ea565b60036020526000908152604090205481565b34801561045857600080fd5b506101e5610467366004612285565b611b08565b34801561047857600080fd5b5061021b60005481565b34801561048e57600080fd5b5061021b7f000000000000000000000000000000000000000000000000000000000000000081565b3480156104c257600080fd5b5061021b7f000000000000000000000000000000000000000000000000000000000000000081565b3480156104f657600080fd5b5061021b7f000000000000000000000000000000000000000000000000000000000000000081565b34801561052a57600080fd5b506101e5610539366004612285565b611cfc565b34801561054a57600080fd5b5061021b7f000000000000000000000000000000000000000000000000000000000000000081565b34801561057e57600080fd5b5061021b7f000000000000000000000000000000000000000000000000000000000000000081565b3480156105b257600080fd5b506101e56105c1366004612285565b611f08565b3480156105d257600080fd5b506105e66105e1366004612481565b6120c1565b60405161022591906124ba565b3480156105ff57600080fd5b506104077f000000000000000000000000000000000000000000000000000000000000000081565b34801561063357600080fd5b5061021b60045481565b610646816118c2565b6000838152600260205260409020541461067b5760405162461bcd60e51b8152600401610672906124d4565b60405180910390fd5b7f00000000000000000000000000000000000000000000000000000000000000003410156106eb5760405162461bcd60e51b815260206004820152601f60248201527f496e73756666696369656e74206368616c6c656e6765206465706f7369742e006044820152606401610672565b60c08101516001600160a01b0316156107465760405162461bcd60e51b815260206004820152601960248201527f436c61696d20616c7265616479206368616c6c656e6765642e000000000000006044820152606401610672565b60008160a00151600281111561075e5761075e6124a4565b146107ab5760405162461bcd60e51b815260206004820152601760248201527f436c61696d20616c72656164792076657269666965642e0000000000000000006044820152606401610672565b3360c08201526107ba816118c2565b600083815260026020908152604091829020929092555183815233917fcfe09ca25f55d949baba5e280f5750c9ba4b9048fca5532f916067d433afe4d7910160405180910390a27f00000000000000000000000000000000000000000000000000000000000000003411156108765760006108557f000000000000000000000000000000000000000000000000000000000000000034612512565b604051909150339082156108fc029083906000818181858888f15050505050505b5050565b6006546000036108e15760405162461bcd60e51b815260206004820152602c60248201527f4e6f2070656e64696e672073657175656e636572206c696d697420646563726560448201526b30b9b2903932b8bab2b9ba1760a11b6064820152608401610672565b6004546006546108f19190612525565b421161095a5760405162461bcd60e51b815260206004820152603260248201527f53657175656e636572206c696d697420646563726561736520726571756573746044820152711034b99039ba34b636103832b73234b7339760711b6064820152608401610672565b6005805460009182905560068290556040805163ee35f32760e01b815290519192916001600160a01b037f0000000000000000000000000000000000000000000000000000000000000000169163ee35f3279160048083019260209291908290030181865afa1580156109d1573d6000803e3d6000fd5b505050506040513d601f19601f820116820180604052508101906109f59190612538565b6001600160a01b031663ebea461d6040518163ffffffff1660e01b8152600401608060405180830381865afa158015610a32573d6000803e3d6000fd5b505050506040513d601f19601f82011682018060405250810190610a569190612555565b50925050508181036108765760048290556040518281527f611c2e4a78552f908fb0eb2cc503efc1f947cde8574277ab3b0f10fdd510258b9060200160405180910390a15050565b7f00000000000000000000000000000000000000000000000000000000000000006001547f00000000000000000000000000000000000000000000000000000000000000004281610af157610af161258b565b04031115610b345760405162461bcd60e51b815260206004820152601060248201526f213934b233b29029b43aba3237bbb71760811b6044820152606401610672565b336001600160a01b037f00000000000000000000000000000000000000000000000000000000000000001614610bac5760405162461bcd60e51b815260206004820181905260248201527f4e6f742066726f6d206e617469766520617262697472756d206272696467652e6044820152606401610672565b7f00000000000000000000000000000000000000000000000000000000000000006001600160a01b03167f00000000000000000000000000000000000000000000000000000000000000006001600160a01b031663ab5d89436040518163ffffffff1660e01b8152600401602060405180830381865afa158015610c34573d6000803e3d6000fd5b505050506040513d601f19601f82011682018060405250810190610c589190612538565b6001600160a01b03166380648b026040518163ffffffff1660e01b8152600401602060405180830381865afa158015610c95573d6000803e3d6000fd5b505050506040513d601f19601f82011682018060405250810190610cb99190612538565b6001600160a01b031614610d085760405162461bcd60e51b81526020600482015260166024820152753b32b0a4b73137bc20b9312a37a2ba341037b7363c9760511b6044820152606401610672565b60015483118015610d1857508115155b15610d5b57600183905560008290556040518381527ff786e7f77ede00a02a5464f8f0555798f42ba99a4a920ef2778db8d75e4656f79060200160405180910390a15b610d64816118c2565b60008481526002602052604090205403610dc1578051829003610d8d57600160a0820152610da8565b60c08101516001600160a01b031615610da857600260a08201525b610db1816118c2565b6000848152600260205260409020555b505050565b6000610df27f0000000000000000000000000000000000000000000000000000000000000000426125a1565b905090565b7f0000000000000000000000000000000000000000000000000000000000000000341015610e675760405162461bcd60e51b815260206004820152601b60248201527f496e73756666696369656e7420636c61696d206465706f7369742e00000000006044820152606401610672565b610e917f0000000000000000000000000000000000000000000000000000000000000000426125a1565b8210610edf5760405162461bcd60e51b815260206004820152601960248201527f45706f636820686173206e6f7420796574207061737365642e000000000000006044820152606401610672565b600060017f000000000000000000000000000000000000000000000000000000000000000060045442610f129190612512565b610f1c91906125a1565b610f269190612512565b905060007f00000000000000000000000000000000000000000000000000000000000000007f00000000000000000000000000000000000000000000000000000000000000004281610f7a57610f7a61258b565b040390506000818311610f8d5781610f8f565b825b905080851015610fd25760405162461bcd60e51b815260206004820152600e60248201526d24b73b30b634b21032b837b1b41760911b6044820152606401610672565b83610fef5760405162461bcd60e51b8152600401610672906124d4565b600085815260026020526040902054156110415760405162461bcd60e51b815260206004820152601360248201527221b630b4b69030b63932b0b23c9036b0b2329760691b6044820152606401610672565b6040805160e0810182528581523360208201524263ffffffff16918101919091526000606082018190526080820181905260a0820181905260c0820152611087906118c2565b600086815260026020908152604091829020929092555185815233917f91d697238e9aa9f3172d17522c9be529b94a892481554e1ea619369b5b12f39a910160405180910390a27f00000000000000000000000000000000000000000000000000000000000000003411156111435760006111227f000000000000000000000000000000000000000000000000000000000000000034612512565b604051909150339082156108fc029083906000818181858888f15050505050505b5050505050565b6040851061118c5760405162461bcd60e51b815260206004820152600f60248201526e283937b7b3103a37b7903637b7339760891b6044820152606401610672565b6000848484846040516020016111a594939291906125c3565b604051602081830303815290604052805190602001209050806000526020600020905060005b868110156112255760008888838181106111e7576111e7612605565b9050602002013590508281111561120c5782600052806020526040600020925061121c565b8060005282602052604060002092505b506001016111cb565b5080600054146112685760405162461bcd60e51b815260206004820152600e60248201526d24b73b30b634b210383937b7b31760911b6044820152606401610672565b600885901c66ffffffffffffff1660008181526003602052604090205460ff87169080821c600116156112dd5760405162461bcd60e51b815260206004820152601760248201527f4d65737361676520616c72656164792072656c617965640000000000000000006044820152606401610672565b6000838152600360205260408082206001851b84179055516001600160a01b0389169061130d908990899061261b565b6000604051808303816000865af19150503d806000811461134a576040519150601f19603f3d011682016040523d82523d6000602084013e61134f565b606091505b50509050806113a05760405162461bcd60e51b815260206004820152601760248201527f4661696c656420746f2063616c6c20636f6e74726163740000000000000000006044820152606401610672565b60405167ffffffffffffffff8a1681527f54303fab361bc52c2f1f56ace7351189582264f74ce47a6e7c3f478d64c429439060200160405180910390a15050505050505050505050565b6113fc6103b936839003830183612481565b600083815260026020526040902054146114285760405162461bcd60e51b8152600401610672906124d4565b600261143a60c0830160a0840161262b565b600281111561144b5761144b6124a4565b1461148c5760405162461bcd60e51b815260206004820152601160248201527021b430b63632b733b2903330b4b632b21760791b6044820152606401610672565b600082815260026020526040808220829055517f000000000000000000000000000000000000000000000000000000000000000080156108fc029183818181858288f1506114e693505060e0840191505060c08301612646565b6001600160a01b03166108fc7f00000000000000000000000000000000000000000000000000000000000000009081150290604051600060405180830381858888f150505050505050565b6115436103b936839003830183612481565b6000838152600260205260409020541461156f5760405162461bcd60e51b8152600401610672906124d4565b600161158160c0830160a0840161262b565b6002811115611592576115926124a4565b146115cf5760405162461bcd60e51b815260206004820152600d60248201526c21b630b4b6903330b4b632b21760991b6044820152606401610672565b60008281526002602052604081208190556115f060e0830160c08401612646565b6001600160a01b03161461164b576040516000907f000000000000000000000000000000000000000000000000000000000000000080156108fc029183818181858288f1506114e69350506040840191505060208301612646565b61165b6040820160208301612646565b6001600160a01b03166108fc7f00000000000000000000000000000000000000000000000000000000000000009081150290604051600060405180830381858888f150505050505050565b6116af816118c2565b600083815260026020526040902054146116db5760405162461bcd60e51b8152600401610672906124d4565b7f0000000000000000000000000000000000000000000000000000000000000000600454826040015163ffffffff166117149190612525565b61171e9190612525565b4210156117825760405162461bcd60e51b815260206004820152602c60248201527f436c61696d206d75737420776169742061746c65617374206d61784c3253746160448201526b3a32a9bcb731a232b630bc9760a11b6064820152608401610672565b600061178d826120c1565b905060028160038111156117a3576117a36124a4565b14806117c0575060008160038111156117be576117be6124a4565b145b6118295760405162461bcd60e51b815260206004820152603460248201527f436c61696d20766572696669636174696f6e20696e2070726f6772657373206f604482015273391030b63932b0b23c9031b7b6b83632ba32b21760611b6064820152608401610672565b63ffffffff428116606084015243166080830152611846826118c2565b60008481526002602090815260409182902092909255518481527f37b700b61b9b4710dddb0c3316b2be7ef6088ed4b1d7bfe0fb98be8f9a163e16910160405180910390a1505050565b60006118bc7f0000000000000000000000000000000000000000000000000000000000000000836125a1565b92915050565b80516020808301516040808501516060860151608087015160a088015160c089015194516000986118f7989097969101612663565b604051602081830303815290604052805190602001209050919050565b60007f00000000000000000000000000000000000000000000000000000000000000006001600160a01b031663ee35f3276040518163ffffffff1660e01b8152600401602060405180830381865afa158015611974573d6000803e3d6000fd5b505050506040513d601f19601f820116820180604052508101906119989190612538565b6001600160a01b031663ebea461d6040518163ffffffff1660e01b8152600401608060405180830381865afa1580156119d5573d6000803e3d6000fd5b505050506040513d601f19601f820116820180604052508101906119f99190612555565b5092505050600454811115611a435760048190556040518181527f611c2e4a78552f908fb0eb2cc503efc1f947cde8574277ab3b0f10fdd510258b9060200160405180910390a150565b600454811015611b055760065415611ab75760405162461bcd60e51b815260206004820152603160248201527f53657175656e636572206c696d697420646563726561736520726571756573746044820152701030b63932b0b23c903832b73234b7339760791b6064820152608401610672565b604080518082018252828152426020918201819052600584905560065590518281527fa552b382e128c9d0732f01f09502c18999aec5dce0ed78c5af0ea2274ce9bd7d910160405180910390a15b50565b7f00000000000000000000000000000000000000000000000000000000000000006001547f00000000000000000000000000000000000000000000000000000000000000004281611b5b57611b5b61258b565b04031115611b9e5760405162461bcd60e51b815260206004820152601060248201526f213934b233b29029b43aba3237bbb71760811b6044820152606401610672565b611ba7816118c2565b60008381526002602052604090205414611bd35760405162461bcd60e51b8152600401610672906124d4565b60c08101516001600160a01b031615611c255760405162461bcd60e51b815260206004820152601460248201527321b630b4b69034b99031b430b63632b733b2b21760611b6044820152606401610672565b6001611c30826120c1565b6003811115611c4157611c416124a4565b14611c8e5760405162461bcd60e51b815260206004820152601b60248201527f43656e736f72736869702074657374206e6f74207061737365642e00000000006044820152606401610672565b600154821115611cd657600182905580516000556040518281527ff786e7f77ede00a02a5464f8f0555798f42ba99a4a920ef2778db8d75e4656f79060200160405180910390a15b600160a0820152611ce6816118c2565b6000928352600260205260409092209190915550565b7f00000000000000000000000000000000000000000000000000000000000000006001547f00000000000000000000000000000000000000000000000000000000000000004281611d4f57611d4f61258b565b040311611d905760405162461bcd60e51b815260206004820152600f60248201526e213934b233b290293ab73734b7339760891b6044820152606401610672565b611d99816118c2565b60008381526002602052604090205414611dc55760405162461bcd60e51b8152600401610672906124d4565b60008160a001516002811115611ddd57611ddd6124a4565b14611e1c5760405162461bcd60e51b815260206004820152600f60248201526e21b630b4b6903932b9b7b63b32b21760891b6044820152606401610672565b60c08101516001600160a01b0316156108765760208101516001600160a01b0316611ea05760008281526002602052604080822082905560c083015190516001600160a01b03909116917f000000000000000000000000000000000000000000000000000000000000000080156108fc02929091818181858888f150505050505050565b60c0810180516000909152611eb4826118c2565b50600083815260026020526040516001600160a01b038316917f000000000000000000000000000000000000000000000000000000000000000080156108fc02929091818181858888f15050505050505050565b7f00000000000000000000000000000000000000000000000000000000000000006001547f00000000000000000000000000000000000000000000000000000000000000004281611f5b57611f5b61258b565b040311611f9c5760405162461bcd60e51b815260206004820152600f60248201526e213934b233b290293ab73734b7339760891b6044820152606401610672565b611fa5816118c2565b60008381526002602052604090205414611fd15760405162461bcd60e51b8152600401610672906124d4565b60008160a001516002811115611fe957611fe96124a4565b146120285760405162461bcd60e51b815260206004820152600f60248201526e21b630b4b6903932b9b7b63b32b21760891b6044820152606401610672565b60208101516001600160a01b0316156108765760c08101516001600160a01b03166120ad5760008281526002602090815260408083208390559083015190516001600160a01b03909116917f000000000000000000000000000000000000000000000000000000000000000080156108fc02929091818181858888f150505050505050565b6020810180516000909152611eb4826118c2565b6000816060015163ffffffff166000036120dd57506002919050565b7f0000000000000000000000000000000000000000000000000000000000000000826060015163ffffffff164203101561211957506003919050565b6000600c836060015163ffffffff164203816121375761213761258b565b608085015163ffffffff16919004019050437f00000000000000000000000000000000000000000000000000000000000000008183031161217b5760019250612180565b600092505b50505b919050565b6001600160a01b0381168114611b0557600080fd5b803561218381612188565b803563ffffffff8116811461218357600080fd5b80356003811061218357600080fd5b600060e082840312156121dd57600080fd5b60405160e0810181811067ffffffffffffffff8211171561220e57634e487b7160e01b600052604160045260246000fd5b604052823581529050806122246020840161219d565b6020820152612235604084016121a8565b6040820152612246606084016121a8565b6060820152612257608084016121a8565b608082015261226860a084016121bc565b60a082015261227960c0840161219d565b60c08201525092915050565b600080610100838503121561229957600080fd5b823591506122aa84602085016121cb565b90509250929050565b600080600061012084860312156122c957600080fd5b83359250602084013591506122e185604086016121cb565b90509250925092565b6000602082840312156122fc57600080fd5b5035919050565b6000806040838503121561231657600080fd5b50508035926020909101359150565b803567ffffffffffffffff8116811461218357600080fd5b60008083601f84011261234f57600080fd5b50813567ffffffffffffffff81111561236757600080fd5b60208301915083602082850101111561237f57600080fd5b9250929050565b6000806000806000806080878903121561239f57600080fd5b863567ffffffffffffffff808211156123b757600080fd5b818901915089601f8301126123cb57600080fd5b8135818111156123da57600080fd5b8a60208260051b85010111156123ef57600080fd5b6020830198508097505061240560208a01612325565b955061241360408a0161219d565b9450606089013591508082111561242957600080fd5b5061243689828a0161233d565b979a9699509497509295939492505050565b60008082840361010081121561245d57600080fd5b8335925060e0601f198201121561247357600080fd5b506020830190509250929050565b600060e0828403121561249357600080fd5b61249d83836121cb565b9392505050565b634e487b7160e01b600052602160045260246000fd5b60208101600483106124ce576124ce6124a4565b91905290565b6020808252600e908201526d24b73b30b634b21031b630b4b69760911b604082015260600190565b634e487b7160e01b600052601160045260246000fd5b818103818111156118bc576118bc6124fc565b808201808211156118bc576118bc6124fc565b60006020828403121561254a57600080fd5b815161249d81612188565b6000806000806080858703121561256b57600080fd5b505082516020840151604085015160609095015191969095509092509050565b634e487b7160e01b600052601260045260246000fd5b6000826125be57634e487b7160e01b600052601260045260246000fd5b500490565b60c085901b6001600160c01b0319168152606084901b6bffffffffffffffffffffffff191660088201528183601c83013760009101601c019081529392505050565b634e487b7160e01b600052603260045260246000fd5b8183823760009101908152919050565b60006020828403121561263d57600080fd5b61249d826121bc565b60006020828403121561265857600080fd5b813561249d81612188565b87815260006bffffffffffffffffffffffff19808960601b16602084015263ffffffff60e01b808960e01b166034850152808860e01b166038850152808760e01b16603c85015250600385106126bb576126bb6124a4565b60f89490941b60408301525060609190911b90911660418201526055019594505050505056fea2646970667358221220af6b7bb1a2a01e26fd13c068961fe9cf4bd3863799379849841ae6b78e1b45b964736f6c63430008120033",
  "devdoc": {
    "details": "Vea Outbox From Arbitrum to Ethereum. Note: This contract is deployed on Ethereum.",
    "events": {
      "Challenged(uint256,address)": {
        "details": "This event indicates that `sendSnapshot(epoch)` should be called in the inbox.",
        "params": {
          "_challenger": "The address of the challenger.",
          "_epoch": "The epoch associated with the challenged claim."
        }
      },
      "Claimed(address,bytes32)": {
        "details": "Watchers check this event to challenge fraud.",
        "params": {
          "_claimer": "The address of the claimer.",
          "_stateRoot": "The state root of the claim."
        }
      },
      "MessageRelayed(uint64)": {
        "details": "This event indicates that a message has been relayed.",
        "params": {
          "_msgId": "The msgId of the message that was relayed."
        }
      },
      "VerificationStarted(uint256)": {
        "details": "This event indicates that the censorship test started and all challengers are ready even in the worst case scenario of a malicious sequencer.",
        "params": {
          "_epoch": "The epoch that started verification."
        }
      },
      "Verified(uint256)": {
        "details": "This events indicates that verification has succeeded. The messages are ready to be relayed.",
        "params": {
          "_epoch": "The epoch that was verified."
        }
      },
      "sequencerDelayLimitDecreaseRequested(uint256)": {
        "details": "This event indicates that a request to decrease the sequencer limit has been made.",
        "params": {
          "_requestedSequencerDelayLimit": "The new sequencer delay limit requested."
        }
      },
      "sequencerDelayLimitUpdated(uint256)": {
        "details": "This event indicates the sequencer limit updated.",
        "params": {
          "_newSequencerDelayLimit": "The new sequencer delay limit."
        }
      }
    },
    "kind": "dev",
    "methods": {
      "censorshipTestStatus((bytes32,address,uint32,uint32,uint32,uint8,address))": {
        "details": "Gets the status of the censorship test for claim.",
        "params": {
          "_claim": "The claim to test."
        },
        "returns": {
          "status": "True if the claim passed the censorship test."
        }
      },
      "challenge(uint256,(bytes32,address,uint32,uint32,uint32,uint8,address))": {
        "details": "Submit a challenge for the claim of the inbox state root snapshot taken at 'epoch'.",
        "params": {
          "_claim": "The claim associated with the epoch.",
          "_epoch": "The epoch of the claim to challenge."
        }
      },
      "claim(uint256,bytes32)": {
        "details": "Submit a claim about the _stateRoot at _epoch and submit a deposit.",
        "params": {
          "_epoch": "The epoch for which the claim is made.",
          "_stateRoot": "The state root to claim."
        }
      },
      "constructor": {
        "details": "Constructor. Note: epochPeriod must match the VeaInboxArbToEth contract deployment on Arbitrum, since it's on a different chain, we can't read it and trust the deployer to set a correct value",
        "params": {
          "_deposit": "The deposit amount to submit a claim in wei.",
          "_epochPeriod": "The duration of each epoch.",
          "_maxClaimDelayEpochs": "The maximum number of epochs that can be claimed in the past.",
          "_maxMissingBlocks": "The maximum number of blocks that can be missing in a challenge period.",
          "_minChallengePeriod": "The minimum time window to challenge a claim.",
          "_timeoutEpochs": "The epochs before the bridge is considered shutdown.",
          "_veaInboxArbToEth": "The address of the inbox contract on Arbitrum."
        }
      },
      "epochAt(uint256)": {
        "details": "Get the current epoch from the outbox's point of view using the Ethereum L1 clock.",
        "returns": {
          "epoch": "The hash of the claim."
        }
      },
      "epochNow()": {
        "details": "Get the current epoch from the outbox's point of view using the Ethereum L1 clock.",
        "returns": {
          "epoch": "The hash of the claim."
        }
      },
      "executeSequencerDelayLimitDecreaseRequest()": {
        "details": "execute sequencerDelayLimitDecreaseRequest"
      },
      "hashClaim((bytes32,address,uint32,uint32,uint32,uint8,address))": {
        "details": "Hashes the claim.",
        "params": {
          "_claim": "The claim to hash."
        },
        "returns": {
          "hashedClaim": "The hash of the claim."
        }
      },
      "resolveDisputedClaim(uint256,bytes32,(bytes32,address,uint32,uint32,uint32,uint8,address))": {
        "details": "Resolves any challenge of the optimistic claim for '_epoch'.",
        "params": {
          "_claim": "The claim associated with the epoch.",
          "_epoch": "The epoch to verify.",
          "_stateRoot": "The true state root for the epoch."
        }
      },
      "sendMessage(bytes32[],uint64,address,bytes)": {
        "details": "Verifies and relays the message. UNTRUSTED.",
        "params": {
          "_message": "The message encoded in the vea inbox as abi.encodeWithSelector(fnSelector, msg.sender, param1, param2, ...)",
          "_msgId": "The zero based index of the message in the inbox.",
          "_proof": "The merkle proof to prove the message inclusion in the inbox state root.",
          "_to": "The address of the contract on Ethereum to call."
        }
      },
      "startVerification(uint256,(bytes32,address,uint32,uint32,uint32,uint8,address))": {
        "details": "Start verification for claim for 'epoch'.",
        "params": {
          "_claim": "The claim associated with the epoch.",
          "_epoch": "The epoch of the claim to challenge."
        }
      },
      "updateSequencerDelayLimit()": {
        "details": "Request to decrease the sequencerDelayLimit."
      },
      "verifySnapshot(uint256,(bytes32,address,uint32,uint32,uint32,uint8,address))": {
        "details": "Resolves the optimistic claim for '_epoch'.",
        "params": {
          "_claim": "The claim associated with the epoch.",
          "_epoch": "The epoch of the optimistic claim."
        }
      },
      "withdrawChallengeDeposit(uint256,(bytes32,address,uint32,uint32,uint32,uint8,address))": {
        "details": "Sends the deposit back to the Challenger if successful. Includes a portion of the Bridger's deposit.",
        "params": {
          "_claim": "The claim associated with the epoch.",
          "_epoch": "The epoch associated with the challenge deposit to withraw."
        }
      },
      "withdrawChallengerEscapeHatch(uint256,(bytes32,address,uint32,uint32,uint32,uint8,address))": {
        "details": "When bridge is shutdown, no claim disputes can be resolved. This allows the challenger to withdraw their deposit.",
        "params": {
          "_claim": "The claim associated with the epoch.",
          "_epoch": "The epoch associated with the claim deposit to withraw."
        }
      },
      "withdrawClaimDeposit(uint256,(bytes32,address,uint32,uint32,uint32,uint8,address))": {
        "details": "Sends the deposit back to the Claimer if successful. Includes a portion of the Challenger's deposit if unsuccessfully challenged.",
        "params": {
          "_claim": "The claim associated with the epoch.",
          "_epoch": "The epoch associated with the claim deposit to withraw."
        }
      },
      "withdrawClaimerEscapeHatch(uint256,(bytes32,address,uint32,uint32,uint32,uint8,address))": {
        "details": "When bridge is shutdown, no claim disputes can be resolved. This allows the claimer to withdraw their deposit.",
        "params": {
          "_claim": "The claim associated with the epoch.",
          "_epoch": "The epoch associated with the claim deposit to withraw."
        }
      }
    },
    "version": 1
  },
  "userdoc": {
    "kind": "user",
    "methods": {
      "resolveDisputedClaim(uint256,bytes32,(bytes32,address,uint32,uint32,uint32,uint8,address))": {
        "notice": "Note: Access restricted to arbitrum  bridge."
      }
    },
    "version": 1
  },
  "storageLayout": {
    "storage": [
      {
        "astId": 432,
        "contract": "src/arbitrumToEth/VeaOutboxArbToEth.sol:VeaOutboxArbToEth",
        "label": "stateRoot",
        "offset": 0,
        "slot": "0",
        "type": "t_bytes32"
      },
      {
        "astId": 434,
        "contract": "src/arbitrumToEth/VeaOutboxArbToEth.sol:VeaOutboxArbToEth",
        "label": "latestVerifiedEpoch",
        "offset": 0,
        "slot": "1",
        "type": "t_uint256"
      },
      {
        "astId": 438,
        "contract": "src/arbitrumToEth/VeaOutboxArbToEth.sol:VeaOutboxArbToEth",
        "label": "claimHashes",
        "offset": 0,
        "slot": "2",
        "type": "t_mapping(t_uint256,t_bytes32)"
      },
      {
        "astId": 442,
        "contract": "src/arbitrumToEth/VeaOutboxArbToEth.sol:VeaOutboxArbToEth",
        "label": "relayed",
        "offset": 0,
        "slot": "3",
        "type": "t_mapping(t_uint256,t_bytes32)"
      },
      {
        "astId": 444,
        "contract": "src/arbitrumToEth/VeaOutboxArbToEth.sol:VeaOutboxArbToEth",
        "label": "sequencerDelayLimit",
        "offset": 0,
        "slot": "4",
        "type": "t_uint256"
      },
      {
        "astId": 447,
        "contract": "src/arbitrumToEth/VeaOutboxArbToEth.sol:VeaOutboxArbToEth",
        "label": "sequencerDelayLimitDecreaseRequest",
        "offset": 0,
        "slot": "5",
        "type": "t_struct(SequencerDelayLimitDecreaseRequest)452_storage"
      }
    ],
    "types": {
      "t_bytes32": {
        "encoding": "inplace",
        "label": "bytes32",
        "numberOfBytes": "32"
      },
      "t_mapping(t_uint256,t_bytes32)": {
        "encoding": "mapping",
        "key": "t_uint256",
        "label": "mapping(uint256 => bytes32)",
        "numberOfBytes": "32",
        "value": "t_bytes32"
      },
      "t_struct(SequencerDelayLimitDecreaseRequest)452_storage": {
        "encoding": "inplace",
        "label": "struct VeaOutboxArbToEth.SequencerDelayLimitDecreaseRequest",
        "members": [
          {
            "astId": 449,
            "contract": "src/arbitrumToEth/VeaOutboxArbToEth.sol:VeaOutboxArbToEth",
            "label": "requestedsequencerDelayLimit",
            "offset": 0,
            "slot": "0",
            "type": "t_uint256"
          },
          {
            "astId": 451,
            "contract": "src/arbitrumToEth/VeaOutboxArbToEth.sol:VeaOutboxArbToEth",
            "label": "timestamp",
            "offset": 0,
            "slot": "1",
            "type": "t_uint256"
          }
        ],
        "numberOfBytes": "64"
      },
      "t_uint256": {
        "encoding": "inplace",
        "label": "uint256",
        "numberOfBytes": "32"
      }
    }
  }
}